{
	"data": {
		"bytecode": {
			"linkReferences": {
				"libraries/TickMath.sol": {
					"TickMath": [
						{
							"length": 20,
							"start": 11501
						},
						{
							"length": 20,
							"start": 11811
						},
						{
							"length": 20,
							"start": 12096
						}
					]
				}
			},
			"object": "608060405234801561001057600080fd5b5061572e80620000216000396000f3fe608060405234801561001057600080fd5b506004361061010b5760003560e01c8063571a4c72116100a2578063d21220a711610071578063d21220a7146104a0578063ef6ae4cc146104d4578063f46c855e14610539578063f5d588de1461060f578063fdda7ec5146106605761010b565b8063571a4c721461033f5780635a76f25e146103be5780637a95fff4146103dc578063bbea8f6a1461043e5761010b565b8063443cb4bc116100de578063443cb4bc14610246578063469da37e1461026457806347fd03d9146102c65780635339c296146102fa5761010b565b806302ea5e1f146101105780630dfe16811461018f5780631a686502146101c35780632a354ad9146101e1575b600080fd5b6101556004803603606081101561012657600080fd5b8101908080359060200190929190803515159060200190929190803560020b906020019092919050505061069b565b604051808481526020018381526020018273ffffffffffffffffffffffffffffffffffffffff168152602001935050505060405180910390f35b6101976107c6565b604051808273ffffffffffffffffffffffffffffffffffffffff16815260200191505060405180910390f35b6101cb6107ec565b6040518082815260200191505060405180910390f35b610230600480360360408110156101f757600080fd5b81019080803573ffffffffffffffffffffffffffffffffffffffff169060200190929190803560020b90602001909291905050506107f2565b6040518082815260200191505060405180910390f35b61024e610817565b6040518082815260200191505060405180910390f35b6102a96004803603606081101561027a57600080fd5b81019080803560020b906020019092919080359060200190929190803515159060200190929190505050610870565b604051808381526020018281526020019250505060405180910390f35b6102ce610c9f565b604051808273ffffffffffffffffffffffffffffffffffffffff16815260200191505060405180910390f35b6103296004803603602081101561031057600080fd5b81019080803560010b9060200190929190505050610cc5565b6040518082815260200191505060405180910390f35b6103846004803603606081101561035557600080fd5b8101908080359060200190929190803515159060200190929190803560020b9060200190929190505050610cdd565b604051808481526020018381526020018273ffffffffffffffffffffffffffffffffffffffff168152602001935050505060405180910390f35b6103c661112f565b6040518082815260200191505060405180910390f35b610428600480360360408110156103f257600080fd5b8101908080359060200190929190803573ffffffffffffffffffffffffffffffffffffffff169060200190929190505050611188565b6040518082815260200191505060405180910390f35b61048a6004803603604081101561045457600080fd5b8101908080359060200190929190803573ffffffffffffffffffffffffffffffffffffffff169060200190929190505050611220565b6040518082815260200191505060405180910390f35b6104a86112c9565b604051808273ffffffffffffffffffffffffffffffffffffffff16815260200191505060405180910390f35b610523600480360360408110156104ea57600080fd5b81019080803573ffffffffffffffffffffffffffffffffffffffff169060200190929190803560020b90602001909291905050506112ef565b6040518082815260200191505060405180910390f35b61060d600480360361010081101561055057600080fd5b81019080803560020b906020019092919080356fffffffffffffffffffffffffffffffff16906020019092919080356fffffffffffffffffffffffffffffffff16906020019092919080356fffffffffffffffffffffffffffffffff16906020019092919080356fffffffffffffffffffffffffffffffff169060200190929190803573ffffffffffffffffffffffffffffffffffffffff1690602001909291908035906020019092919080359060200190929190505050611314565b005b6106486004803603604081101561062557600080fd5b81019080803560020b906020019092919080359060200190929190505050611393565b60405180821515815260200191505060405180910390f35b6106996004803603604081101561067657600080fd5b81019080803560020b9060200190929190803590602001909291905050506113a7565b005b6000806000806106cc600260009054906101000a900473ffffffffffffffffffffffffffffffffffffffff16611833565b90506106d661562d565b87816000018181525050600260009054906101000a900473ffffffffffffffffffffffffffffffffffffffff16816060019073ffffffffffffffffffffffffffffffffffffffff16908173ffffffffffffffffffffffffffffffffffffffff1681525050868160a0019015159081151581525050858160c0019060020b908160020b8152505081816080019060020b908160020b8152505061077781611c2f565b905050809150506107ab6103e861079d6103e58460200151611eea90919063ffffffff16565b611f7f90919063ffffffff16565b81604001518260600151945094509450505093509350939050565b601360009054906101000a900473ffffffffffffffffffffffffffffffffffffffff1681565b60035481565b600c602052816000526040600020602052806000526040600020600091509150505481565b600061086b6003546c01000000000000000000000000600260009054906101000a900473ffffffffffffffffffffffffffffffffffffffff1673ffffffffffffffffffffffffffffffffffffffff16611f93565b905090565b6000806000600b60008760020b60020b81526020019081526020016000206040518060800160405290816000820160009054906101000a90046fffffffffffffffffffffffffffffffff166fffffffffffffffffffffffffffffffff166fffffffffffffffffffffffffffffffff1681526020016000820160109054906101000a90046fffffffffffffffffffffffffffffffff166fffffffffffffffffffffffffffffffff166fffffffffffffffffffffffffffffffff1681526020016001820160009054906101000a90046fffffffffffffffffffffffffffffffff166fffffffffffffffffffffffffffffffff166fffffffffffffffffffffffffffffffff1681526020016001820160109054906101000a90046fffffffffffffffffffffffffffffffff166fffffffffffffffffffffffffffffffff166fffffffffffffffffffffffffffffffff1681525050905060006109ce87611ff1565b90508415610b31576000610a2083606001516fffffffffffffffffffffffffffffffff16610a1285604001516fffffffffffffffffffffffffffffffff1685611220565b61242c90919063ffffffff16565b9050610a2c87826124af565b96506000811415610a465760008094509450505050610c97565b610a518860006124c8565b15610ae557610a7e610a7984604001516fffffffffffffffffffffffffffffffff1684611220565b6125a4565b83606001818151019150906fffffffffffffffffffffffffffffffff1690816fffffffffffffffffffffffffffffffff1681525050600083604001906fffffffffffffffffffffffffffffffff1690816fffffffffffffffffffffffffffffffff16815250505b610b068784604001516fffffffffffffffffffffffffffffffff16836125cc565b9450610b298784606001516fffffffffffffffffffffffffffffffff16836125cc565b935050610c94565b6000610b7b83602001516fffffffffffffffffffffffffffffffff16610b6d85600001516fffffffffffffffffffffffffffffffff1685611188565b61242c90919063ffffffff16565b9050610b8787826124af565b96506000811415610ba15760008094509450505050610c97565b610bac8860016124c8565b15610c4057610bd9610bd484600001516fffffffffffffffffffffffffffffffff1684611188565b6125a4565b83602001818151019150906fffffffffffffffffffffffffffffffff1690816fffffffffffffffffffffffffffffffff1681525050600083600001906fffffffffffffffffffffffffffffffff1690816fffffffffffffffffffffffffffffffff16815250505b610c4a87826124af565b9650610c6d8784602001516fffffffffffffffffffffffffffffffff16836125cc565b9450610c908784600001516fffffffffffffffffffffffffffffffff16836125cc565b9350505b50505b935093915050565b600260009054906101000a900473ffffffffffffffffffffffffffffffffffffffff1681565b60126020528060005260406000206000915090505481565b600080600080861415610d1b57600080600260009054906101000a900473ffffffffffffffffffffffffffffffffffffffff16925092509250611126565b6000610d48600260009054906101000a900473ffffffffffffffffffffffffffffffffffffffff16611833565b9050600260009054906101000a900473ffffffffffffffffffffffffffffffffffffffff169150610d7761562d565b87816000018181525050600260009054906101000a900473ffffffffffffffffffffffffffffffffffffffff16816060019073ffffffffffffffffffffffffffffffffffffffff16908173ffffffffffffffffffffffffffffffffffffffff1681525050868160a0019015159081151581525050858160c0019060020b908160020b8152505081816080019060020b908160020b81525050610e17615688565b6000610e2283611c2f565b809350819450829550505050826060015173ffffffffffffffffffffffffffffffffffffffff16610e568460800151611ff1565b73ffffffffffffffffffffffffffffffffffffffff16148015610e765750805b15610e9257610e9183608001518385606001516000806126a6565b5b8815610ec3578360020b836080015160020b1315610ebe57610ebd8460018560800151036000612c54565b5b610eea565b8360020b836080015160020b1215610ee957610ee86001846080015101856001612c54565b5b5b8260600151600260006101000a81548173ffffffffffffffffffffffffffffffffffffffff021916908373ffffffffffffffffffffffffffffffffffffffff16021790555088610f5457610f4f858460600151610f486003546125a4565b6001613024565b610f70565b610f6f858460600151610f686003546125a4565b60016130fe565b5b95508583602001511115610f9b578583602001510395506103e8861015610f9657600095505b611023565b856103e88460200151011115610fb45760009550611022565b6040517f08c379a000000000000000000000000000000000000000000000000000000000815260040180806020018281038252600f8152602001807f746f6c6572616e7420657863656564000000000000000000000000000000000081525060200191505060405180910390fd5b5b60008360400151111561110c578815611096576103e8611052876080600454901c61323490919063ffffffff16565b1061107557611070608087901b60045461323490919063ffffffff16565b61108b565b6004546fffffffffffffffffffffffffffffffff165b60048190555061110b565b6103e86110c0876004546fffffffffffffffffffffffffffffffff1661323490919063ffffffff16565b106110f9576110f46110d1876125a4565b6fffffffffffffffffffffffffffffffff1660045461323490919063ffffffff16565b611104565b608080600454901c901b5b6004819055505b5b826000015183602001518460600151965096509650505050505b93509350939050565b6000611183600354600260009054906101000a900473ffffffffffffffffffffffffffffffffffffffff1673ffffffffffffffffffffffffffffffffffffffff166c01000000000000000000000000611f93565b905090565b6000808273ffffffffffffffffffffffffffffffffffffffff1614806111ae5750600083145b156111bc576000905061121a565b6112176111ed846c010000000000000000000000008573ffffffffffffffffffffffffffffffffffffffff166125cc565b6c010000000000000000000000008473ffffffffffffffffffffffffffffffffffffffff166125cc565b90505b92915050565b6000808273ffffffffffffffffffffffffffffffffffffffff1614806112465750600083145b1561125457600090506112c3565b60606112ab8373ffffffffffffffffffffffffffffffffffffffff16606061129b8673ffffffffffffffffffffffffffffffffffffffff1688611eea90919063ffffffff16565b901c611eea90919063ffffffff16565b901c905060008111156112c2578080600190039150505b5b92915050565b601460009054906101000a900473ffffffffffffffffffffffffffffffffffffffff1681565b600d602052816000526040600020602052806000526040600020600091509150505481565b6113898860405180608001604052808a6fffffffffffffffffffffffffffffffff168152602001896fffffffffffffffffffffffffffffffff168152602001886fffffffffffffffffffffffffffffffff168152602001876fffffffffffffffffffffffffffffffff168152508585856126a6565b5050505050505050565b600061139f83836124c8565b905092915050565b6000806000806113b6866132b7565b93509350935093506113de600586600281106113ce57fe5b01546113d986613300565b613310565b156114f157611405600586600281106113f357fe5b01546113fe86613300565b600061332d565b6005866002811061141257fe5b01819055506114437fffffffffffffffffffffffffffffffffffffffffffffffffffffffffffffffff84600061332d565b6007866002811061145057fe5b0160008660000b60000b8152602001908152602001600020819055506114987fffffffffffffffffffffffffffffffffffffffffffffffffffffffffffffffff82600061332d565b600986600281106114a557fe5b0160008460010b60010b8152602001908152602001600020819055506000600e86600281106114d057fe5b0160008660000b60000b81526020019081526020016000208190555061182b565b6115206007866002811061150157fe5b0160008660000b60000b81526020019081526020016000205484613310565b1561165c576115566007866002811061153557fe5b0160008660000b60000b81526020019081526020016000205484600061332d565b6007866002811061156357fe5b0160008660000b60000b8152602001908152602001600020819055506115ab7fffffffffffffffffffffffffffffffffffffffffffffffffffffffffffffffff82600061332d565b600986600281106115b857fe5b0160008460010b60010b815260200190815260200160002081905550601085600281106115e157fe5b0160008360010b60010b815260200190815260200160002054600e866002811061160757fe5b0160008660000b60000b81526020019081526020016000206000828254039250508190555060006010866002811061163b57fe5b0160008460010b60010b81526020019081526020016000208190555061182a565b61168b6009866002811061166c57fe5b0160008460010b60010b81526020019081526020016000205482613310565b15611829576116c1600986600281106116a057fe5b0160008460010b60010b81526020019081526020016000205482600061332d565b600986600281106116ce57fe5b0160008460010b60010b815260200190815260200160002081905550600080861161173157600b60008860020b60020b815260200190815260200160002060010160009054906101000a90046fffffffffffffffffffffffffffffffff1661176b565b600b60008860020b60020b815260200190815260200160002060000160009054906101000a90046fffffffffffffffffffffffffffffffff165b6fffffffffffffffffffffffffffffffff169050600080871161179f5761179a826117958a611ff1565b611220565b6117b2565b6117b1826117ac8a611ff1565b611188565b5b905080608083901b01600e88600281106117c857fe5b0160008860000b60000b81526020019081526020016000206000828254039250508190555080608083901b016010886002811061180157fe5b0160008860000b60010b81526020019081526020016000206000828254039250508190555050505b5b5b505050505050565b60006401000276a373ffffffffffffffffffffffffffffffffffffffff168273ffffffffffffffffffffffffffffffffffffffff16101580156118b5575073fffd8963efd1fc6a506488495d951d5263988d2673ffffffffffffffffffffffffffffffffffffffff168273ffffffffffffffffffffffffffffffffffffffff16105b611927576040517f08c379a00000000000000000000000000000000000000000000000000000000081526004018080602001828103825260018152602001807f520000000000000000000000000000000000000000000000000000000000000081525060200191505060405180910390fd5b600060208373ffffffffffffffffffffffffffffffffffffffff16901b9050600081905060006fffffffffffffffffffffffffffffffff821160071b808217915082811c92505067ffffffffffffffff821160061b808217915082811c92505063ffffffff821160051b808217915082811c92505061ffff821160041b808217915082811c92505060ff821160031b808217915082811c925050600f821160021b808217915082811c9250506003821160011b808217915082811c9250506001821180821791505060808110611a0557607f810383901c9150611a0f565b80607f0383901b91505b6000604060808303901b9050828302607f1c92508260801c80603f1b8217915083811c935050828302607f1c92508260801c80603e1b8217915083811c935050828302607f1c92508260801c80603d1b8217915083811c935050828302607f1c92508260801c80603c1b8217915083811c935050828302607f1c92508260801c80603b1b8217915083811c935050828302607f1c92508260801c80603a1b8217915083811c935050828302607f1c92508260801c8060391b8217915083811c935050828302607f1c92508260801c8060381b8217915083811c935050828302607f1c92508260801c8060371b8217915083811c935050828302607f1c92508260801c8060361b8217915083811c935050828302607f1c92508260801c8060351b8217915083811c935050828302607f1c92508260801c8060341b8217915083811c935050828302607f1c92508260801c8060331b8217915083811c935050828302607f1c92508260801c8060321b82179150506000693627a301d71055774c8582029050600060806f028f6481ab7f045a5af012a19d003aaa8303901d9050600060806fdb2df09e81959a81455e260799a0632f8401901d90508060020b8260020b14611c1f578873ffffffffffffffffffffffffffffffffffffffff16611bf682611ff1565b73ffffffffffffffffffffffffffffffffffffffff161115611c185781611c1a565b805b611c21565b815b975050505050505050919050565b611c3761562d565b611c3f615688565b60008084600001511415611cc85783604051806080016040528060006fffffffffffffffffffffffffffffffff16815260200160006fffffffffffffffffffffffffffffffff16815260200160006fffffffffffffffffffffffffffffffff16815260200160006fffffffffffffffffffffffffffffffff168152506000925092509250611ee3565b836060015173ffffffffffffffffffffffffffffffffffffffff16611cf08560800151611ff1565b73ffffffffffffffffffffffffffffffffffffffff1614611ebe5760008460a00151611d20578460800151611d29565b60018560800151015b90506000806000611db36040518060e001604052808a60000151815260200160008152602001600260009054906101000a900473ffffffffffffffffffffffffffffffffffffffff1673ffffffffffffffffffffffffffffffffffffffff1681526020018660020b815260200160008152602001600081526020018a60a00151151581525061335a565b9250925092508215611e24578088600001818151039150818152505081886020018181510191508181525050611de884611ff1565b886060019073ffffffffffffffffffffffffffffffffffffffff16908173ffffffffffffffffffffffffffffffffffffffff1681525050611eb9565b611e2d8861343e565b9750600088600001818152505087604051806080016040528060006fffffffffffffffffffffffffffffffff16815260200160006fffffffffffffffffffffffffffffffff16815260200160006fffffffffffffffffffffffffffffffff16815260200160006fffffffffffffffffffffffffffffffff16815250600096509650965050505050611ee3565b505050505b611ec6615688565b611ecf85613683565b809250819650505084816001935093509350505b9193909250565b600080821480611f075750828283850292508281611f0457fe5b04145b611f79576040517f08c379a00000000000000000000000000000000000000000000000000000000081526004018080602001828103825260148152602001807f64732d6d6174682d6d756c2d6f766572666c6f7700000000000000000000000081525060200191505060405180910390fd5b92915050565b6000818381611f8a57fe5b04905092915050565b6000611fa08484846125cc565b905060008280611fac57fe5b8486091115611fea577fffffffffffffffffffffffffffffffffffffffffffffffffffffffffffffffff8110611fe157600080fd5b80806001019150505b9392505050565b60008060008360020b12612008578260020b612010565b8260020b6000035b90507ffffffffffffffffffffffffffffffffffffffffffffffffffffffffffff2761860000360020b8111156120ae576040517f08c379a00000000000000000000000000000000000000000000000000000000081526004018080602001828103825260018152602001807f540000000000000000000000000000000000000000000000000000000000000081525060200191505060405180910390fd5b6000806001831614156120d2577001000000000000000000000000000000006120e4565b6ffffcb933bd6fad37aa2d162d1a5940015b70ffffffffffffffffffffffffffffffffff1690506000600283161461211e5760806ffff97272373d413259a46990580e213a8202901c90505b600060048316146121435760806ffff2e50f5f656932ef12357cf3c7fdcc8202901c90505b600060088316146121685760806fffe5caca7e10e4e61c3624eaa0941cd08202901c90505b6000601083161461218d5760806fffcb9843d60f6159c9db58835c9266448202901c90505b600060208316146121b25760806fff973b41fa98c081472e6896dfb254c08202901c90505b600060408316146121d75760806fff2ea16466c96a3843ec78b326b528618202901c90505b600060808316146121fc5760806ffe5dee046a99a2a811c461f1969c30538202901c90505b60006101008316146122225760806ffcbe86c7900a88aedcffc83b479aa3a48202901c90505b60006102008316146122485760806ff987a7253ac413176f2b074cf7815e548202901c90505b600061040083161461226e5760806ff3392b0822b70005940c7a398e4b70f38202901c90505b60006108008316146122945760806fe7159475a2c29b7443b29c7fa6e889d98202901c90505b60006110008316146122ba5760806fd097f3bdfd2022b8845ad8f792aa58258202901c90505b60006120008316146122e05760806fa9f746462d870fdf8a65dc1f90e061e58202901c90505b60006140008316146123065760806f70d869a156d2a1b890bb3df62baf32f78202901c90505b600061800083161461232c5760806f31be135f97d08fd981231505542fcfa68202901c90505b6000620100008316146123535760806f09aa508b5b7a84e1c677de54f3e99bc98202901c90505b6000620200008316146123795760806e5d6af8dedb81196699c329225ee6048202901c90505b60006204000083161461239e5760806d2216e584f5fa1ea926041bedfe988202901c90505b6000620800008316146123c15760806b048a170391f7dc42444e8fa28202901c90505b60008460020b13156123fa57807fffffffffffffffffffffffffffffffffffffffffffffffffffffffffffffffff816123f657fe5b0490505b6000640100000000828161240a57fe5b061461241757600161241a565b60005b60ff16602082901c0192505050919050565b60008282840191508110156124a9576040517f08c379a00000000000000000000000000000000000000000000000000000000081526004018080602001828103825260148152602001807f64732d6d6174682d6164642d6f766572666c6f7700000000000000000000000081525060200191505060405180910390fd5b92915050565b60008183106124be57816124c0565b825b905092915050565b60008060008060006124d9876132b7565b9350935093509350612501600587600281106124f157fe5b01546124fc86613300565b613310565b1561251357600194505050505061259e565b6125426007876002811061252357fe5b0160008660000b60000b81526020019081526020016000205484613310565b1561255457600194505050505061259e565b6125836009876002811061256457fe5b0160008460010b60010b81526020019081526020016000205482613310565b1561259557600194505050505061259e565b60009450505050505b92915050565b600081829150816fffffffffffffffffffffffffffffffff16146125c757600080fd5b919050565b60008060008019858709858702925082811083820303915050600081141561260757600084116125fb57600080fd5b8382049250505061269f565b80841161261357600080fd5b600084868809905082811182039150808303925060008586600003169050808604955080840493506001818260000304019050808302841793506000600287600302189050808702600203810290508087026002038102905080870260020381029050808702600203810290508087026002038102905080870260020381029050808502955050505050505b9392505050565b6000806126b2876132b7565b5092505091506126c38760006124c8565b15612762576126f06126eb87600001516fffffffffffffffffffffffffffffffff1687611188565b6125a4565b86602001818151019150906fffffffffffffffffffffffffffffffff1690816fffffffffffffffffffffffffffffffff1681525050600086600001906fffffffffffffffffffffffffffffffff1690816fffffffffffffffffffffffffffffffff16815250506127618760006113a7565b5b61276d8760016124c8565b1561280c5761279a61279587604001516fffffffffffffffffffffffffffffffff1687611220565b6125a4565b86606001818151019150906fffffffffffffffffffffffffffffffff1690816fffffffffffffffffffffffffffffffff1681525050600086604001906fffffffffffffffffffffffffffffffff1690816fffffffffffffffffffffffffffffffff168152505061280b8760016113a7565b5b85600b60008960020b60020b815260200190815260200160002060008201518160000160006101000a8154816fffffffffffffffffffffffffffffffff02191690836fffffffffffffffffffffffffffffffff16021790555060208201518160000160106101000a8154816fffffffffffffffffffffffffffffffff02191690836fffffffffffffffffffffffffffffffff16021790555060408201518160010160006101000a8154816fffffffffffffffffffffffffffffffff02191690836fffffffffffffffffffffffffffffffff16021790555060608201518160010160106101000a8154816fffffffffffffffffffffffffffffffff02191690836fffffffffffffffffffffffffffffffff160217905550905050600080600454905060008513156129d45760006129428689611188565b90506000811115612957578080600190039150505b6001925080608087901b01600e846002811061296f57fe5b0160008760000b60000b81526020019081526020016000206000828254019250508190555080608087901b01601084600281106129a857fe5b0160008660010b60010b8152602001908152602001600020600082825401925050819055508582019150505b6000851215612a875760006129ec8660000389611188565b90506000811115612a01578080600190039150505b6001925080608087600003901b01600e8460028110612a1c57fe5b0160008760000b60000b81526020019081526020016000206000828254039250508190555080608087600003901b0160108460028110612a5857fe5b0160008660010b60010b8152602001908152602001600020600082825403925050819055508560000382039150505b6000861315612b1f576000612a9c8789611220565b90506000925080608088901b01600e8460028110612ab657fe5b0160008760000b60000b81526020019081526020016000206000828254019250508190555080608088901b0160108460028110612aef57fe5b0160008660010b60010b815260200190815260200160002060008282540192505081905550608087901b82019150505b6000861215612bc3576000612b378760000389611220565b90506000925080608088600003901b01600e8460028110612b5457fe5b0160008760000b60000b81526020019081526020016000206000828254039250508190555080608088600003901b0160108460028110612b9057fe5b0160008660010b60010b815260200190815260200160002060008282540392505081905550608087600003901b82039150505b6004548114612bd457806004819055505b600088600001516fffffffffffffffffffffffffffffffff16148015612c105750600088604001516fffffffffffffffffffffffffffffffff16145b15612c3157612c2c8960006012613d969092919063ffffffff16565b612c49565b612c488960016012613d969092919063ffffffff16565b5b505050505050505050565b8260020b8260020b1215612c6757600080fd5b600080600080612c76876132b7565b93509350935093506000806000612c8c896132b7565b935050925092508660000b8360000b1315612dc957612cb98a6001612cb28d6001613e5d565b038a612c54565b6001870160000b8360000b1315612dac5773__$e59ac5441f1a8f376d0930c8a0eb1fdb51$__634033822a60058a60028110612cf157fe5b0154612cff60018b01613300565b612d0b60018803613300565b60016040518563ffffffff1660e01b8152600401808581526020018460ff1681526020018360ff168152602001821515815260200194505050505060206040518083038186803b158015612d5e57600080fd5b505af4158015612d72573d6000803e3d6000fd5b505050506040513d6020811015612d8857600080fd5b810190808051906020019092919050505060058960028110612da657fe5b01819055505b612dc46001612dbc8b6000613e5d565b018a8a612c54565b613018565b8560ff168260ff161115612f1d57612def8a6001612de88d6001613ec2565b038a612c54565b6001860160ff168260ff161115612f005773__$e59ac5441f1a8f376d0930c8a0eb1fdb51$__634033822a60078a60028110612e2757fe5b0160008a60000b60000b815260200190815260200160002054600189016001860360016040518563ffffffff1660e01b8152600401808581526020018460ff1681526020018360ff168152602001821515815260200194505050505060206040518083038186803b158015612e9b57600080fd5b505af4158015612eaf573d6000803e3d6000fd5b505050506040513d6020811015612ec557600080fd5b810190808051906020019092919050505060078960028110612ee357fe5b0160008960000b60000b8152602001908152602001600020819055505b612f186001612f108b6000613ec2565b018a8a612c54565b613017565b73__$e59ac5441f1a8f376d0930c8a0eb1fdb51$__634033822a60098a60028110612f4457fe5b0160008860010b60010b815260200190815260200160002054868460016040518563ffffffff1660e01b8152600401808581526020018460ff1681526020018360ff168152602001821515815260200194505050505060206040518083038186803b158015612fb257600080fd5b505af4158015612fc6573d6000803e3d6000fd5b505050506040513d6020811015612fdc57600080fd5b810190808051906020019092919050505060098960028110612ffa57fe5b0160008760010b60010b8152602001908152602001600020819055505b5b50505050505050505050565b60008373ffffffffffffffffffffffffffffffffffffffff168573ffffffffffffffffffffffffffffffffffffffff16111561306557838580955081965050505b816130b1576130ac836fffffffffffffffffffffffffffffffff1686860373ffffffffffffffffffffffffffffffffffffffff166c010000000000000000000000006125cc565b6130f4565b6130f3836fffffffffffffffffffffffffffffffff1686860373ffffffffffffffffffffffffffffffffffffffff166c01000000000000000000000000611f93565b5b9050949350505050565b60008373ffffffffffffffffffffffffffffffffffffffff168573ffffffffffffffffffffffffffffffffffffffff16111561313f57838580955081965050505b6000606060ff16846fffffffffffffffffffffffffffffffff16901b9050600086860373ffffffffffffffffffffffffffffffffffffffff16905060008773ffffffffffffffffffffffffffffffffffffffff161161319d57600080fd5b836131e7578673ffffffffffffffffffffffffffffffffffffffff166131da83838973ffffffffffffffffffffffffffffffffffffffff166125cc565b816131e157fe5b04613228565b61322761320b83838973ffffffffffffffffffffffffffffffffffffffff16611f93565b8873ffffffffffffffffffffffffffffffffffffffff16613efd565b5b92505050949350505050565b60008282840391508111156132b1576040517f08c379a00000000000000000000000000000000000000000000000000000000081526004018080602001828103825260158152602001807f64732d6d6174682d7375622d756e646572666c6f77000000000000000000000081525060200191505060405180910390fd5b92915050565b600080600080600e8560020b901d9350604060088660020b901d60020b816132db57fe5b07925060088560020b901d91506101008560020b816132f657fe5b0790509193509193565b6000607f8260000b019050919050565b6000808260ff166001901b90506000818516141591505092915050565b60008115613346578260ff166001901b84179050613353565b8260ff166000901b841690505b9392505050565b60008060008061336d8560600151611ff1565b90508460c001516133985761339385604001518261338c6003546125a4565b60016130fe565b6133b4565b6133b38560400151826133ac6003546125a4565b6001613024565b5b9150818560a00151018560000151111561343657818560a001510185600001510385600001818152505060008560c00151613409576134048660400151836133fd6003546125a4565b6000613024565b613425565b61342486604001518361341d6003546125a4565b60006130fe565b5b905085608001518101935060019450505b509193909250565b61344661562d565b60008260600151905061347283606001516134626003546125a4565b85600001518660a0015115613f10565b836060019073ffffffffffffffffffffffffffffffffffffffff16908173ffffffffffffffffffffffffffffffffffffffff16815250506134b68360600151611833565b836080019060020b908160020b81525050627fffff8360c0015160020b1415801561350857507fffffffffffffffffffffffffffffffffffffffffffffffffffffffffff8000018360c0015160020b14155b1561361a578260a00151801561352b57508260c0015160020b836080015160020b135b8061355157508260a0015115801561355057508260c0015160020b836080015160020b125b5b15613609576135638360c00151611ff1565b836060019073ffffffffffffffffffffffffffffffffffffffff16908173ffffffffffffffffffffffffffffffffffffffff16815250508260a001516135c3576135be8184606001516135b76003546125a4565b60016130fe565b6135df565b6135de8184606001516135d76003546125a4565b6001613024565b5b8360000181815103915081815250508260c00151836080019060020b908160020b81525050613615565b60008360000181815250505b613626565b60008360000181815250505b8260a0015161364f5761364a8184606001516136436003546125a4565b6000613024565b61366b565b61366a8184606001516136636003546125a4565b60006130fe565b5b83602001818151019150818152505082915050919050565b61368b61562d565b613693615688565b600083600001519050836080015160020b8460c0015160020b14156138105783600b6000866080015160020b60020b8152602001908152602001600020806040518060800160405290816000820160009054906101000a90046fffffffffffffffffffffffffffffffff166fffffffffffffffffffffffffffffffff166fffffffffffffffffffffffffffffffff1681526020016000820160109054906101000a90046fffffffffffffffffffffffffffffffff166fffffffffffffffffffffffffffffffff166fffffffffffffffffffffffffffffffff1681526020016001820160009054906101000a90046fffffffffffffffffffffffffffffffff166fffffffffffffffffffffffffffffffff166fffffffffffffffffffffffffffffffff1681526020016001820160109054906101000a90046fffffffffffffffffffffffffffffffff166fffffffffffffffffffffffffffffffff166fffffffffffffffffffffffffffffffff168152505090509250925050613d91565b60008460000151141561397b5783600b6000866080015160020b60020b8152602001908152602001600020806040518060800160405290816000820160009054906101000a90046fffffffffffffffffffffffffffffffff166fffffffffffffffffffffffffffffffff166fffffffffffffffffffffffffffffffff1681526020016000820160109054906101000a90046fffffffffffffffffffffffffffffffff166fffffffffffffffffffffffffffffffff166fffffffffffffffffffffffffffffffff1681526020016001820160009054906101000a90046fffffffffffffffffffffffffffffffff166fffffffffffffffffffffffffffffffff166fffffffffffffffffffffffffffffffff1681526020016001820160109054906101000a90046fffffffffffffffffffffffffffffffff166fffffffffffffffffffffffffffffffff166fffffffffffffffffffffffffffffffff168152505090509250925050613d91565b61399e84608001518560a00151613993576000613996565b60015b60ff166124c8565b6139ed576139aa615688565b6139b385613f82565b80925081965050506000856000015114156139d5578481935093505050613d91565b84600001518203856040018181510191508181525050505b8360a001518015613a13575060ff610100856080015160020b81613a0d57fe5b0760020b145b80613a4157508360a00151158015613a4057506000610100856080015160020b81613a3a57fe5b0760020b145b5b15613a7d576000600190505b8015613a6957613a5c8561463c565b8092508196505050613a4d565b613a7285613683565b935093505050613d91565b6000613ab88560a00151613a98576001866080015103613a9e565b85608001515b60018760a00151156012614b1e909392919063ffffffff16565b5090508460a001518015613ad557508460c0015160020b8160020b135b80613af757508460a00151158015613af657508460c0015160020b8160020b125b5b15613b04578460c0015190505b6000806000613b6e6040518060e001604052808a600001518152602001600081526020018a6060015173ffffffffffffffffffffffffffffffffffffffff1681526020018660020b815260200160008152602001600081526020018a60a00151151581525061335a565b9250925092508215613c03578088600001818151039150818152505081886020018181510191508181525050613ba384611ff1565b886060019073ffffffffffffffffffffffffffffffffffffffff16908173ffffffffffffffffffffffffffffffffffffffff168152505083886080019060020b908160020b81525050613bf588613683565b965096505050505050613d91565b613c0c8861343e565b97506000886000018181525050613c268860600151611833565b886080019060020b908160020b8152505087600b60008660020b60020b8152602001908152602001600020806040518060800160405290816000820160009054906101000a90046fffffffffffffffffffffffffffffffff166fffffffffffffffffffffffffffffffff166fffffffffffffffffffffffffffffffff1681526020016000820160109054906101000a90046fffffffffffffffffffffffffffffffff166fffffffffffffffffffffffffffffffff166fffffffffffffffffffffffffffffffff1681526020016001820160009054906101000a90046fffffffffffffffffffffffffffffffff166fffffffffffffffffffffffffffffffff166fffffffffffffffffffffffffffffffff1681526020016001820160109054906101000a90046fffffffffffffffffffffffffffffffff166fffffffffffffffffffffffffffffffff166fffffffffffffffffffffffffffffffff168152505090509650965050505050505b915091565b60006001905060008160020b8460020b81613dad57fe5b0760020b14613dbb57600080fd5b600080613dd68360020b8660020b81613dd057fe5b05614c76565b9150915060008160ff166001901b905060008760008560010b60010b8152602001908152602001600020549050818116810390508515613e165781810190505b8760008560010b60010b8152602001908152602001600020548114613e5357808860008660010b60010b8152602001908152602001600020819055505b5050505050505050565b60008115613e93577fffffffffffffffffffffffffffffffffffffffffffffffffffffffffff7fc0006140008401169050613ebc565b60017fffffffffffffffffffffffffffffffffffffffffffffffffffffffffff7fc00084160390505b92915050565b60008115613ee357600880610100850160020b901d60020b901b9050613ef7565b60016008808560020b901d60020b901b0390505b92915050565b6000808284061182840401905092915050565b6000808573ffffffffffffffffffffffffffffffffffffffff1611613f3457600080fd5b6000846fffffffffffffffffffffffffffffffff1611613f5357600080fd5b81613f6a57613f658585856001614c99565b613f78565b613f778585856001614e0b565b5b9050949350505050565b613f8a61562d565b613f92615688565b613fb583608001518460a00151613faa576000613fad565b60015b60ff166124c8565b156140315782604051806080016040528060006fffffffffffffffffffffffffffffffff16815260200160006fffffffffffffffffffffffffffffffff16815260200160006fffffffffffffffffffffffffffffffff16815260200160006fffffffffffffffffffffffffffffffff1681525091509150614637565b6000600b6000856080015160020b60020b81526020019081526020016000206040518060800160405290816000820160009054906101000a90046fffffffffffffffffffffffffffffffff166fffffffffffffffffffffffffffffffff166fffffffffffffffffffffffffffffffff1681526020016000820160109054906101000a90046fffffffffffffffffffffffffffffffff166fffffffffffffffffffffffffffffffff166fffffffffffffffffffffffffffffffff1681526020016001820160009054906101000a90046fffffffffffffffffffffffffffffffff166fffffffffffffffffffffffffffffffff166fffffffffffffffffffffffffffffffff1681526020016001820160109054906101000a90046fffffffffffffffffffffffffffffffff166fffffffffffffffffffffffffffffffff166fffffffffffffffffffffffffffffffff168152505090508360a0015180156141ac5750600081604001516fffffffffffffffffffffffffffffffff16115b156143a85760006141c585600001518660600151611188565b90508082604001516fffffffffffffffffffffffffffffffff1610614294576141ed816125a4565b82604001818151039150906fffffffffffffffffffffffffffffffff1690816fffffffffffffffffffffffffffffffff168152505061422f85600001516125a4565b82606001818151019150906fffffffffffffffffffffffffffffffff1690816fffffffffffffffffffffffffffffffff1681525050600085600001818152505061428681866020015161242c90919063ffffffff16565b8560200181815250506143a2565b60006142ba83604001516fffffffffffffffffffffffffffffffff168760600151611220565b90506142d381876000015161323490919063ffffffff16565b8660000181815250506000866000015111156142fb5785600001805180919060019003815250505b61432883604001516fffffffffffffffffffffffffffffffff16876020015161242c90919063ffffffff16565b86602001818152505061433a816125a4565b83606001818151019150906fffffffffffffffffffffffffffffffff1690816fffffffffffffffffffffffffffffffff1681525050600083604001906fffffffffffffffffffffffffffffffff1690816fffffffffffffffffffffffffffffffff1681525050505b5061462f565b8360a001511580156143d05750600081600001516fffffffffffffffffffffffffffffffff16115b1561462e5783600001516143fe82600001516fffffffffffffffffffffffffffffffff168660600151611188565b1061451f57600061441785600001518660600151611220565b9050614422816125a4565b82600001818151039150906fffffffffffffffffffffffffffffffff1690816fffffffffffffffffffffffffffffffff1681525050600082600001516fffffffffffffffffffffffffffffffff1611156144ac57816000018051809190600190036fffffffffffffffffffffffffffffffff166fffffffffffffffffffffffffffffffff16815250505b6144b985600001516125a4565b82602001818151019150906fffffffffffffffffffffffffffffffff1690816fffffffffffffffffffffffffffffffff1681525050600085600001818152505061451081866020015161242c90919063ffffffff16565b8560200181815250505061462d565b600061454582600001516fffffffffffffffffffffffffffffffff168660600151611188565b905061455e81866000015161323490919063ffffffff16565b8560000181815250506000856000015111156145865784600001805180919060019003815250505b6145b382600001516fffffffffffffffffffffffffffffffff16866020015161242c90919063ffffffff16565b8560200181815250506145c5816125a4565b82602001818151019150906fffffffffffffffffffffffffffffffff1690816fffffffffffffffffffffffffffffffff1681525050600082600001906fffffffffffffffffffffffffffffffff1690816fffffffffffffffffffffffffffffffff1681525050505b5b5b838192509250505b915091565b61464461562d565b6000826080015160020b8360c0015160020b14156146685782600091509150614b19565b6000836000015114156146815782600091509150614b19565b600080600061469386608001516132b7565b509250925092508560a0015180156146ae5750603f8260ff16145b806146ca57508560a001511580156146c9575060008260ff16145b5b15614702576000600190505b80156146f2576146e587614f95565b80925081985050506146d6565b8660019550955050505050614b19565b8560a001516147145760018203614719565b600182015b91508560a0015161472d5760018103614732565b600181015b905060008660a001516147595760ff61475388608001518960a00151613ec2565b0361476f565b60ff61476d88608001518960a00151613ec2565b015b905060006147b760078960a0015161478857600061478b565b60015b60ff166002811061479857fe5b0160008760000b60000b81526020019081526020016000205485613310565b6147fb5760108860a001516147cd5760016147d0565b60005b60ff16600281106147dd57fe5b0160008460010b60010b8152602001908152602001600020546147fe565b60005b90506000816fffffffffffffffffffffffffffffffff169050608082901c915060008060006148866040518060e001604052808e600001518152602001600081526020018e6060015173ffffffffffffffffffffffffffffffffffffffff1681526020018860020b81526020018781526020018681526020018e60a00151151581525061335a565b9250925092508280156148c057508b60a001516148b0578560020b8c60c0015160020b13156148bf565b8560020b8c60c0015160020b12155b5b156149a35761490960078d60a001516148da5760006148dd565b60015b60ff16600281106148ea57fe5b0160008b60000b60000b81526020019081526020016000205489613310565b508084018c6000018181510391508181525050818c6020018181510191508181525050838c604001818151019150818152505061494586611ff1565b8c6060019073ffffffffffffffffffffffffffffffffffffffff16908173ffffffffffffffffffffffffffffffffffffffff1681525050858c6080019060020b908160020b815250508b60019a509a50505050505050505050614b19565b6149b58c608001518d60a00151613ec2565b9550614a1c6040518060e001604052808e600001518152602001600081526020018e6060015173ffffffffffffffffffffffffffffffffffffffff1681526020018860020b815260200160008152602001600081526020018e60a00151151581525061335a565b809350819450829550505050828015614a355750600085115b15614ac157808c6000018181510391508181525050818c6020018181510191508181525050614a6386611ff1565b8c6060019073ffffffffffffffffffffffffffffffffffffffff16908173ffffffffffffffffffffffffffffffffffffffff1681525050858c6080019060020b908160020b815250508b60009a509a50505050505050505050614b19565b8b606001518c6060019073ffffffffffffffffffffffffffffffffffffffff16908173ffffffffffffffffffffffffffffffffffffffff1681525050614b068c61343e565b9b508b60009a509a505050505050505050505b915091565b60008060008460020b8660020b81614b3257fe5b05905060008660020b128015614b5b575060008560020b8760020b81614b5457fe5b0760020b14155b15614b6a578080600190039150505b8315614bee57600080614b7c83614c76565b9150915060008160ff166001901b60018360ff166001901b030190506000818b60008660010b60010b8152602001908152602001600020541690506000811415955085614bd057888360ff16860302614be3565b88614bda826153ff565b840360ff168603025b965050505050614c6c565b600080614bfd60018401614c76565b91509150600060018260ff166001901b031990506000818b60008660010b60010b8152602001908152602001600020541690506000811415955085614c4f57888360ff0360ff16600187010102614c65565b8883614c5a836154da565b0360ff166001870101025b9650505050505b5094509492505050565b60008060088360020b901d91506101008360020b81614c9157fe5b079050915091565b60008115614d4f57600073ffffffffffffffffffffffffffffffffffffffff8016841115614cf057614ceb846c01000000000000000000000000876fffffffffffffffffffffffffffffffff166125cc565b614d14565b846fffffffffffffffffffffffffffffffff16606060ff1685901b81614d1257fe5b045b9050614d47614d42828873ffffffffffffffffffffffffffffffffffffffff1661242c90919063ffffffff16565b615601565b915050614e03565b600073ffffffffffffffffffffffffffffffffffffffff8016841115614d9e57614d99846c01000000000000000000000000876fffffffffffffffffffffffffffffffff16611f93565b614dc2565b614dc1606060ff1685901b866fffffffffffffffffffffffffffffffff16613efd565b5b9050808673ffffffffffffffffffffffffffffffffffffffff1611614de657600080fd5b808673ffffffffffffffffffffffffffffffffffffffff16039150505b949350505050565b600080831415614e1d57849050614f8d565b6000606060ff16856fffffffffffffffffffffffffffffffff16901b90508215614f045760008673ffffffffffffffffffffffffffffffffffffffff16858873ffffffffffffffffffffffffffffffffffffffff16870292508281614e7e57fe5b041415614ec05760008183019050828110614ebe57614eb4838973ffffffffffffffffffffffffffffffffffffffff1683611f93565b9350505050614f8d565b505b614efb82614ef6878a73ffffffffffffffffffffffffffffffffffffffff168681614ee757fe5b0461242c90919063ffffffff16565b613efd565b92505050614f8d565b60008673ffffffffffffffffffffffffffffffffffffffff16858873ffffffffffffffffffffffffffffffffffffffff16870292508281614f4157fe5b04148015614f4e57508082115b614f5757600080fd5b60008183039050614f87614f82848a73ffffffffffffffffffffffffffffffffffffffff1684611f93565b615601565b93505050505b949350505050565b614f9d61562d565b6000826080015160020b8360c0015160020b1415614fc157826000915091506153fa565b6000614fd084608001516132b7565b5050509050603f60000b6001820160000b12158015614ff057508360a001515b8061503257507fffffffffffffffffffffffffffffffffffffffffffffffffffffffffffffffc160000b6001820360000b1315801561503157508360a00151155b5b1561504f57600084600001818152505083600092509250506153fa565b60008460a0015161507557613fff61506f86608001518760a00151613e5d565b0361508c565b613fff61508a86608001518760a00151613e5d565b015b905060008560a001516150a257600183036150a7565b600183015b905060006150e060058860a001516150c05760006150c3565b60015b60ff16600281106150d057fe5b01546150db84613300565b613310565b61512457600e8760a001516150f65760016150f9565b60005b60ff166002811061510657fe5b0160008360000b60000b815260200190815260200160002054615127565b60005b90506000816fffffffffffffffffffffffffffffffff169050608082901c915060008060006151af6040518060e001604052808d600001518152602001600081526020018d6060015173ffffffffffffffffffffffffffffffffffffffff1681526020018960020b81526020018781526020018681526020018d60a00151151581525061335a565b9250925092508280156151e957508a60a001516151d9578660020b8b60c0015160020b13156151e8565b8660020b8b60c0015160020b12155b5b15615286578084018b6000018181510391508181525050818b6020018181510191508181525050838b604001818151019150818152505061522987611ff1565b8b6060019073ffffffffffffffffffffffffffffffffffffffff16908173ffffffffffffffffffffffffffffffffffffffff1681525050868b6080019060020b908160020b815250508a60019950995050505050505050506153fa565b6152988b608001518c60a00151613e5d565b96506152ff6040518060e001604052808d600001518152602001600081526020018d6060015173ffffffffffffffffffffffffffffffffffffffff1681526020018960020b815260200160008152602001600081526020018d60a00151151581525061335a565b8093508194508295505050508280156153185750600085115b156153a357808b6000018181510391508181525050818b602001818151019150818152505061534687611ff1565b8b6060019073ffffffffffffffffffffffffffffffffffffffff16908173ffffffffffffffffffffffffffffffffffffffff1681525050868b6080019060020b908160020b815250508a60009950995050505050505050506153fa565b8a606001518b6060019073ffffffffffffffffffffffffffffffffffffffff16908173ffffffffffffffffffffffffffffffffffffffff16815250506153e88b61343e565b9a508a60009950995050505050505050505b915091565b600080821161540d57600080fd5b700100000000000000000000000000000000821061543357608082901c91506080810190505b68010000000000000000821061545157604082901c91506040810190505b640100000000821061546b57602082901c91506020810190505b62010000821061548357601082901c91506010810190505b610100821061549a57600882901c91506008810190505b601082106154b057600482901c91506004810190505b600482106154c657600282901c91506002810190505b600282106154d5576001810190505b919050565b60008082116154e857600080fd5b60ff905060006fffffffffffffffffffffffffffffffff8016831611156155145760808103905061551c565b608082901c91505b600067ffffffffffffffff80168316111561553c57604081039050615544565b604082901c91505b600063ffffffff80168316111561556057602081039050615568565b602082901c91505b600061ffff8016831611156155825760108103905061558a565b601082901c91505b600060ff8016831611156155a3576008810390506155ab565b600882901c91505b6000600f831611156155c2576004810390506155ca565b600482901c91505b60006003831611156155e1576002810390506155e9565b600282901c91505b60006001831611156155fc576001810390505b919050565b6000818291508173ffffffffffffffffffffffffffffffffffffffff161461562857600080fd5b919050565b6040518060e00160405280600081526020016000815260200160008152602001600073ffffffffffffffffffffffffffffffffffffffff168152602001600060020b8152602001600015158152602001600060020b81525090565b604051806080016040528060006fffffffffffffffffffffffffffffffff16815260200160006fffffffffffffffffffffffffffffffff16815260200160006fffffffffffffffffffffffffffffffff16815260200160006fffffffffffffffffffffffffffffffff168152509056fea264697066735822122011256eecb3d7a1e5fa601efd230e88ae3d50d6c78fac61441fb8c2bc56084c8064736f6c63430007060033",
			"opcodes": "PUSH1 0x80 PUSH1 0x40 MSTORE CALLVALUE DUP1 ISZERO PUSH2 0x10 JUMPI PUSH1 0x0 DUP1 REVERT JUMPDEST POP PUSH2 0x572E DUP1 PUSH3 0x21 PUSH1 0x0 CODECOPY PUSH1 0x0 RETURN INVALID PUSH1 0x80 PUSH1 0x40 MSTORE CALLVALUE DUP1 ISZERO PUSH2 0x10 JUMPI PUSH1 0x0 DUP1 REVERT JUMPDEST POP PUSH1 0x4 CALLDATASIZE LT PUSH2 0x10B JUMPI PUSH1 0x0 CALLDATALOAD PUSH1 0xE0 SHR DUP1 PUSH4 0x571A4C72 GT PUSH2 0xA2 JUMPI DUP1 PUSH4 0xD21220A7 GT PUSH2 0x71 JUMPI DUP1 PUSH4 0xD21220A7 EQ PUSH2 0x4A0 JUMPI DUP1 PUSH4 0xEF6AE4CC EQ PUSH2 0x4D4 JUMPI DUP1 PUSH4 0xF46C855E EQ PUSH2 0x539 JUMPI DUP1 PUSH4 0xF5D588DE EQ PUSH2 0x60F JUMPI DUP1 PUSH4 0xFDDA7EC5 EQ PUSH2 0x660 JUMPI PUSH2 0x10B JUMP JUMPDEST DUP1 PUSH4 0x571A4C72 EQ PUSH2 0x33F JUMPI DUP1 PUSH4 0x5A76F25E EQ PUSH2 0x3BE JUMPI DUP1 PUSH4 0x7A95FFF4 EQ PUSH2 0x3DC JUMPI DUP1 PUSH4 0xBBEA8F6A EQ PUSH2 0x43E JUMPI PUSH2 0x10B JUMP JUMPDEST DUP1 PUSH4 0x443CB4BC GT PUSH2 0xDE JUMPI DUP1 PUSH4 0x443CB4BC EQ PUSH2 0x246 JUMPI DUP1 PUSH4 0x469DA37E EQ PUSH2 0x264 JUMPI DUP1 PUSH4 0x47FD03D9 EQ PUSH2 0x2C6 JUMPI DUP1 PUSH4 0x5339C296 EQ PUSH2 0x2FA JUMPI PUSH2 0x10B JUMP JUMPDEST DUP1 PUSH4 0x2EA5E1F EQ PUSH2 0x110 JUMPI DUP1 PUSH4 0xDFE1681 EQ PUSH2 0x18F JUMPI DUP1 PUSH4 0x1A686502 EQ PUSH2 0x1C3 JUMPI DUP1 PUSH4 0x2A354AD9 EQ PUSH2 0x1E1 JUMPI JUMPDEST PUSH1 0x0 DUP1 REVERT JUMPDEST PUSH2 0x155 PUSH1 0x4 DUP1 CALLDATASIZE SUB PUSH1 0x60 DUP2 LT ISZERO PUSH2 0x126 JUMPI PUSH1 0x0 DUP1 REVERT JUMPDEST DUP2 ADD SWAP1 DUP1 DUP1 CALLDATALOAD SWAP1 PUSH1 0x20 ADD SWAP1 SWAP3 SWAP2 SWAP1 DUP1 CALLDATALOAD ISZERO ISZERO SWAP1 PUSH1 0x20 ADD SWAP1 SWAP3 SWAP2 SWAP1 DUP1 CALLDATALOAD PUSH1 0x2 SIGNEXTEND SWAP1 PUSH1 0x20 ADD SWAP1 SWAP3 SWAP2 SWAP1 POP POP POP PUSH2 0x69B JUMP JUMPDEST PUSH1 0x40 MLOAD DUP1 DUP5 DUP2 MSTORE PUSH1 0x20 ADD DUP4 DUP2 MSTORE PUSH1 0x20 ADD DUP3 PUSH20 0xFFFFFFFFFFFFFFFFFFFFFFFFFFFFFFFFFFFFFFFF AND DUP2 MSTORE PUSH1 0x20 ADD SWAP4 POP POP POP POP PUSH1 0x40 MLOAD DUP1 SWAP2 SUB SWAP1 RETURN JUMPDEST PUSH2 0x197 PUSH2 0x7C6 JUMP JUMPDEST PUSH1 0x40 MLOAD DUP1 DUP3 PUSH20 0xFFFFFFFFFFFFFFFFFFFFFFFFFFFFFFFFFFFFFFFF AND DUP2 MSTORE PUSH1 0x20 ADD SWAP2 POP POP PUSH1 0x40 MLOAD DUP1 SWAP2 SUB SWAP1 RETURN JUMPDEST PUSH2 0x1CB PUSH2 0x7EC JUMP JUMPDEST PUSH1 0x40 MLOAD DUP1 DUP3 DUP2 MSTORE PUSH1 0x20 ADD SWAP2 POP POP PUSH1 0x40 MLOAD DUP1 SWAP2 SUB SWAP1 RETURN JUMPDEST PUSH2 0x230 PUSH1 0x4 DUP1 CALLDATASIZE SUB PUSH1 0x40 DUP2 LT ISZERO PUSH2 0x1F7 JUMPI PUSH1 0x0 DUP1 REVERT JUMPDEST DUP2 ADD SWAP1 DUP1 DUP1 CALLDATALOAD PUSH20 0xFFFFFFFFFFFFFFFFFFFFFFFFFFFFFFFFFFFFFFFF AND SWAP1 PUSH1 0x20 ADD SWAP1 SWAP3 SWAP2 SWAP1 DUP1 CALLDATALOAD PUSH1 0x2 SIGNEXTEND SWAP1 PUSH1 0x20 ADD SWAP1 SWAP3 SWAP2 SWAP1 POP POP POP PUSH2 0x7F2 JUMP JUMPDEST PUSH1 0x40 MLOAD DUP1 DUP3 DUP2 MSTORE PUSH1 0x20 ADD SWAP2 POP POP PUSH1 0x40 MLOAD DUP1 SWAP2 SUB SWAP1 RETURN JUMPDEST PUSH2 0x24E PUSH2 0x817 JUMP JUMPDEST PUSH1 0x40 MLOAD DUP1 DUP3 DUP2 MSTORE PUSH1 0x20 ADD SWAP2 POP POP PUSH1 0x40 MLOAD DUP1 SWAP2 SUB SWAP1 RETURN JUMPDEST PUSH2 0x2A9 PUSH1 0x4 DUP1 CALLDATASIZE SUB PUSH1 0x60 DUP2 LT ISZERO PUSH2 0x27A JUMPI PUSH1 0x0 DUP1 REVERT JUMPDEST DUP2 ADD SWAP1 DUP1 DUP1 CALLDATALOAD PUSH1 0x2 SIGNEXTEND SWAP1 PUSH1 0x20 ADD SWAP1 SWAP3 SWAP2 SWAP1 DUP1 CALLDATALOAD SWAP1 PUSH1 0x20 ADD SWAP1 SWAP3 SWAP2 SWAP1 DUP1 CALLDATALOAD ISZERO ISZERO SWAP1 PUSH1 0x20 ADD SWAP1 SWAP3 SWAP2 SWAP1 POP POP POP PUSH2 0x870 JUMP JUMPDEST PUSH1 0x40 MLOAD DUP1 DUP4 DUP2 MSTORE PUSH1 0x20 ADD DUP3 DUP2 MSTORE PUSH1 0x20 ADD SWAP3 POP POP POP PUSH1 0x40 MLOAD DUP1 SWAP2 SUB SWAP1 RETURN JUMPDEST PUSH2 0x2CE PUSH2 0xC9F JUMP JUMPDEST PUSH1 0x40 MLOAD DUP1 DUP3 PUSH20 0xFFFFFFFFFFFFFFFFFFFFFFFFFFFFFFFFFFFFFFFF AND DUP2 MSTORE PUSH1 0x20 ADD SWAP2 POP POP PUSH1 0x40 MLOAD DUP1 SWAP2 SUB SWAP1 RETURN JUMPDEST PUSH2 0x329 PUSH1 0x4 DUP1 CALLDATASIZE SUB PUSH1 0x20 DUP2 LT ISZERO PUSH2 0x310 JUMPI PUSH1 0x0 DUP1 REVERT JUMPDEST DUP2 ADD SWAP1 DUP1 DUP1 CALLDATALOAD PUSH1 0x1 SIGNEXTEND SWAP1 PUSH1 0x20 ADD SWAP1 SWAP3 SWAP2 SWAP1 POP POP POP PUSH2 0xCC5 JUMP JUMPDEST PUSH1 0x40 MLOAD DUP1 DUP3 DUP2 MSTORE PUSH1 0x20 ADD SWAP2 POP POP PUSH1 0x40 MLOAD DUP1 SWAP2 SUB SWAP1 RETURN JUMPDEST PUSH2 0x384 PUSH1 0x4 DUP1 CALLDATASIZE SUB PUSH1 0x60 DUP2 LT ISZERO PUSH2 0x355 JUMPI PUSH1 0x0 DUP1 REVERT JUMPDEST DUP2 ADD SWAP1 DUP1 DUP1 CALLDATALOAD SWAP1 PUSH1 0x20 ADD SWAP1 SWAP3 SWAP2 SWAP1 DUP1 CALLDATALOAD ISZERO ISZERO SWAP1 PUSH1 0x20 ADD SWAP1 SWAP3 SWAP2 SWAP1 DUP1 CALLDATALOAD PUSH1 0x2 SIGNEXTEND SWAP1 PUSH1 0x20 ADD SWAP1 SWAP3 SWAP2 SWAP1 POP POP POP PUSH2 0xCDD JUMP JUMPDEST PUSH1 0x40 MLOAD DUP1 DUP5 DUP2 MSTORE PUSH1 0x20 ADD DUP4 DUP2 MSTORE PUSH1 0x20 ADD DUP3 PUSH20 0xFFFFFFFFFFFFFFFFFFFFFFFFFFFFFFFFFFFFFFFF AND DUP2 MSTORE PUSH1 0x20 ADD SWAP4 POP POP POP POP PUSH1 0x40 MLOAD DUP1 SWAP2 SUB SWAP1 RETURN JUMPDEST PUSH2 0x3C6 PUSH2 0x112F JUMP JUMPDEST PUSH1 0x40 MLOAD DUP1 DUP3 DUP2 MSTORE PUSH1 0x20 ADD SWAP2 POP POP PUSH1 0x40 MLOAD DUP1 SWAP2 SUB SWAP1 RETURN JUMPDEST PUSH2 0x428 PUSH1 0x4 DUP1 CALLDATASIZE SUB PUSH1 0x40 DUP2 LT ISZERO PUSH2 0x3F2 JUMPI PUSH1 0x0 DUP1 REVERT JUMPDEST DUP2 ADD SWAP1 DUP1 DUP1 CALLDATALOAD SWAP1 PUSH1 0x20 ADD SWAP1 SWAP3 SWAP2 SWAP1 DUP1 CALLDATALOAD PUSH20 0xFFFFFFFFFFFFFFFFFFFFFFFFFFFFFFFFFFFFFFFF AND SWAP1 PUSH1 0x20 ADD SWAP1 SWAP3 SWAP2 SWAP1 POP POP POP PUSH2 0x1188 JUMP JUMPDEST PUSH1 0x40 MLOAD DUP1 DUP3 DUP2 MSTORE PUSH1 0x20 ADD SWAP2 POP POP PUSH1 0x40 MLOAD DUP1 SWAP2 SUB SWAP1 RETURN JUMPDEST PUSH2 0x48A PUSH1 0x4 DUP1 CALLDATASIZE SUB PUSH1 0x40 DUP2 LT ISZERO PUSH2 0x454 JUMPI PUSH1 0x0 DUP1 REVERT JUMPDEST DUP2 ADD SWAP1 DUP1 DUP1 CALLDATALOAD SWAP1 PUSH1 0x20 ADD SWAP1 SWAP3 SWAP2 SWAP1 DUP1 CALLDATALOAD PUSH20 0xFFFFFFFFFFFFFFFFFFFFFFFFFFFFFFFFFFFFFFFF AND SWAP1 PUSH1 0x20 ADD SWAP1 SWAP3 SWAP2 SWAP1 POP POP POP PUSH2 0x1220 JUMP JUMPDEST PUSH1 0x40 MLOAD DUP1 DUP3 DUP2 MSTORE PUSH1 0x20 ADD SWAP2 POP POP PUSH1 0x40 MLOAD DUP1 SWAP2 SUB SWAP1 RETURN JUMPDEST PUSH2 0x4A8 PUSH2 0x12C9 JUMP JUMPDEST PUSH1 0x40 MLOAD DUP1 DUP3 PUSH20 0xFFFFFFFFFFFFFFFFFFFFFFFFFFFFFFFFFFFFFFFF AND DUP2 MSTORE PUSH1 0x20 ADD SWAP2 POP POP PUSH1 0x40 MLOAD DUP1 SWAP2 SUB SWAP1 RETURN JUMPDEST PUSH2 0x523 PUSH1 0x4 DUP1 CALLDATASIZE SUB PUSH1 0x40 DUP2 LT ISZERO PUSH2 0x4EA JUMPI PUSH1 0x0 DUP1 REVERT JUMPDEST DUP2 ADD SWAP1 DUP1 DUP1 CALLDATALOAD PUSH20 0xFFFFFFFFFFFFFFFFFFFFFFFFFFFFFFFFFFFFFFFF AND SWAP1 PUSH1 0x20 ADD SWAP1 SWAP3 SWAP2 SWAP1 DUP1 CALLDATALOAD PUSH1 0x2 SIGNEXTEND SWAP1 PUSH1 0x20 ADD SWAP1 SWAP3 SWAP2 SWAP1 POP POP POP PUSH2 0x12EF JUMP JUMPDEST PUSH1 0x40 MLOAD DUP1 DUP3 DUP2 MSTORE PUSH1 0x20 ADD SWAP2 POP POP PUSH1 0x40 MLOAD DUP1 SWAP2 SUB SWAP1 RETURN JUMPDEST PUSH2 0x60D PUSH1 0x4 DUP1 CALLDATASIZE SUB PUSH2 0x100 DUP2 LT ISZERO PUSH2 0x550 JUMPI PUSH1 0x0 DUP1 REVERT JUMPDEST DUP2 ADD SWAP1 DUP1 DUP1 CALLDATALOAD PUSH1 0x2 SIGNEXTEND SWAP1 PUSH1 0x20 ADD SWAP1 SWAP3 SWAP2 SWAP1 DUP1 CALLDATALOAD PUSH16 0xFFFFFFFFFFFFFFFFFFFFFFFFFFFFFFFF AND SWAP1 PUSH1 0x20 ADD SWAP1 SWAP3 SWAP2 SWAP1 DUP1 CALLDATALOAD PUSH16 0xFFFFFFFFFFFFFFFFFFFFFFFFFFFFFFFF AND SWAP1 PUSH1 0x20 ADD SWAP1 SWAP3 SWAP2 SWAP1 DUP1 CALLDATALOAD PUSH16 0xFFFFFFFFFFFFFFFFFFFFFFFFFFFFFFFF AND SWAP1 PUSH1 0x20 ADD SWAP1 SWAP3 SWAP2 SWAP1 DUP1 CALLDATALOAD PUSH16 0xFFFFFFFFFFFFFFFFFFFFFFFFFFFFFFFF AND SWAP1 PUSH1 0x20 ADD SWAP1 SWAP3 SWAP2 SWAP1 DUP1 CALLDATALOAD PUSH20 0xFFFFFFFFFFFFFFFFFFFFFFFFFFFFFFFFFFFFFFFF AND SWAP1 PUSH1 0x20 ADD SWAP1 SWAP3 SWAP2 SWAP1 DUP1 CALLDATALOAD SWAP1 PUSH1 0x20 ADD SWAP1 SWAP3 SWAP2 SWAP1 DUP1 CALLDATALOAD SWAP1 PUSH1 0x20 ADD SWAP1 SWAP3 SWAP2 SWAP1 POP POP POP PUSH2 0x1314 JUMP JUMPDEST STOP JUMPDEST PUSH2 0x648 PUSH1 0x4 DUP1 CALLDATASIZE SUB PUSH1 0x40 DUP2 LT ISZERO PUSH2 0x625 JUMPI PUSH1 0x0 DUP1 REVERT JUMPDEST DUP2 ADD SWAP1 DUP1 DUP1 CALLDATALOAD PUSH1 0x2 SIGNEXTEND SWAP1 PUSH1 0x20 ADD SWAP1 SWAP3 SWAP2 SWAP1 DUP1 CALLDATALOAD SWAP1 PUSH1 0x20 ADD SWAP1 SWAP3 SWAP2 SWAP1 POP POP POP PUSH2 0x1393 JUMP JUMPDEST PUSH1 0x40 MLOAD DUP1 DUP3 ISZERO ISZERO DUP2 MSTORE PUSH1 0x20 ADD SWAP2 POP POP PUSH1 0x40 MLOAD DUP1 SWAP2 SUB SWAP1 RETURN JUMPDEST PUSH2 0x699 PUSH1 0x4 DUP1 CALLDATASIZE SUB PUSH1 0x40 DUP2 LT ISZERO PUSH2 0x676 JUMPI PUSH1 0x0 DUP1 REVERT JUMPDEST DUP2 ADD SWAP1 DUP1 DUP1 CALLDATALOAD PUSH1 0x2 SIGNEXTEND SWAP1 PUSH1 0x20 ADD SWAP1 SWAP3 SWAP2 SWAP1 DUP1 CALLDATALOAD SWAP1 PUSH1 0x20 ADD SWAP1 SWAP3 SWAP2 SWAP1 POP POP POP PUSH2 0x13A7 JUMP JUMPDEST STOP JUMPDEST PUSH1 0x0 DUP1 PUSH1 0x0 DUP1 PUSH2 0x6CC PUSH1 0x2 PUSH1 0x0 SWAP1 SLOAD SWAP1 PUSH2 0x100 EXP SWAP1 DIV PUSH20 0xFFFFFFFFFFFFFFFFFFFFFFFFFFFFFFFFFFFFFFFF AND PUSH2 0x1833 JUMP JUMPDEST SWAP1 POP PUSH2 0x6D6 PUSH2 0x562D JUMP JUMPDEST DUP8 DUP2 PUSH1 0x0 ADD DUP2 DUP2 MSTORE POP POP PUSH1 0x2 PUSH1 0x0 SWAP1 SLOAD SWAP1 PUSH2 0x100 EXP SWAP1 DIV PUSH20 0xFFFFFFFFFFFFFFFFFFFFFFFFFFFFFFFFFFFFFFFF AND DUP2 PUSH1 0x60 ADD SWAP1 PUSH20 0xFFFFFFFFFFFFFFFFFFFFFFFFFFFFFFFFFFFFFFFF AND SWAP1 DUP2 PUSH20 0xFFFFFFFFFFFFFFFFFFFFFFFFFFFFFFFFFFFFFFFF AND DUP2 MSTORE POP POP DUP7 DUP2 PUSH1 0xA0 ADD SWAP1 ISZERO ISZERO SWAP1 DUP2 ISZERO ISZERO DUP2 MSTORE POP POP DUP6 DUP2 PUSH1 0xC0 ADD SWAP1 PUSH1 0x2 SIGNEXTEND SWAP1 DUP2 PUSH1 0x2 SIGNEXTEND DUP2 MSTORE POP POP DUP2 DUP2 PUSH1 0x80 ADD SWAP1 PUSH1 0x2 SIGNEXTEND SWAP1 DUP2 PUSH1 0x2 SIGNEXTEND DUP2 MSTORE POP POP PUSH2 0x777 DUP2 PUSH2 0x1C2F JUMP JUMPDEST SWAP1 POP POP DUP1 SWAP2 POP POP PUSH2 0x7AB PUSH2 0x3E8 PUSH2 0x79D PUSH2 0x3E5 DUP5 PUSH1 0x20 ADD MLOAD PUSH2 0x1EEA SWAP1 SWAP2 SWAP1 PUSH4 0xFFFFFFFF AND JUMP JUMPDEST PUSH2 0x1F7F SWAP1 SWAP2 SWAP1 PUSH4 0xFFFFFFFF AND JUMP JUMPDEST DUP2 PUSH1 0x40 ADD MLOAD DUP3 PUSH1 0x60 ADD MLOAD SWAP5 POP SWAP5 POP SWAP5 POP POP POP SWAP4 POP SWAP4 POP SWAP4 SWAP1 POP JUMP JUMPDEST PUSH1 0x13 PUSH1 0x0 SWAP1 SLOAD SWAP1 PUSH2 0x100 EXP SWAP1 DIV PUSH20 0xFFFFFFFFFFFFFFFFFFFFFFFFFFFFFFFFFFFFFFFF AND DUP2 JUMP JUMPDEST PUSH1 0x3 SLOAD DUP2 JUMP JUMPDEST PUSH1 0xC PUSH1 0x20 MSTORE DUP2 PUSH1 0x0 MSTORE PUSH1 0x40 PUSH1 0x0 KECCAK256 PUSH1 0x20 MSTORE DUP1 PUSH1 0x0 MSTORE PUSH1 0x40 PUSH1 0x0 KECCAK256 PUSH1 0x0 SWAP2 POP SWAP2 POP POP SLOAD DUP2 JUMP JUMPDEST PUSH1 0x0 PUSH2 0x86B PUSH1 0x3 SLOAD PUSH13 0x1000000000000000000000000 PUSH1 0x2 PUSH1 0x0 SWAP1 SLOAD SWAP1 PUSH2 0x100 EXP SWAP1 DIV PUSH20 0xFFFFFFFFFFFFFFFFFFFFFFFFFFFFFFFFFFFFFFFF AND PUSH20 0xFFFFFFFFFFFFFFFFFFFFFFFFFFFFFFFFFFFFFFFF AND PUSH2 0x1F93 JUMP JUMPDEST SWAP1 POP SWAP1 JUMP JUMPDEST PUSH1 0x0 DUP1 PUSH1 0x0 PUSH1 0xB PUSH1 0x0 DUP8 PUSH1 0x2 SIGNEXTEND PUSH1 0x2 SIGNEXTEND DUP2 MSTORE PUSH1 0x20 ADD SWAP1 DUP2 MSTORE PUSH1 0x20 ADD PUSH1 0x0 KECCAK256 PUSH1 0x40 MLOAD DUP1 PUSH1 0x80 ADD PUSH1 0x40 MSTORE SWAP1 DUP2 PUSH1 0x0 DUP3 ADD PUSH1 0x0 SWAP1 SLOAD SWAP1 PUSH2 0x100 EXP SWAP1 DIV PUSH16 0xFFFFFFFFFFFFFFFFFFFFFFFFFFFFFFFF AND PUSH16 0xFFFFFFFFFFFFFFFFFFFFFFFFFFFFFFFF AND PUSH16 0xFFFFFFFFFFFFFFFFFFFFFFFFFFFFFFFF AND DUP2 MSTORE PUSH1 0x20 ADD PUSH1 0x0 DUP3 ADD PUSH1 0x10 SWAP1 SLOAD SWAP1 PUSH2 0x100 EXP SWAP1 DIV PUSH16 0xFFFFFFFFFFFFFFFFFFFFFFFFFFFFFFFF AND PUSH16 0xFFFFFFFFFFFFFFFFFFFFFFFFFFFFFFFF AND PUSH16 0xFFFFFFFFFFFFFFFFFFFFFFFFFFFFFFFF AND DUP2 MSTORE PUSH1 0x20 ADD PUSH1 0x1 DUP3 ADD PUSH1 0x0 SWAP1 SLOAD SWAP1 PUSH2 0x100 EXP SWAP1 DIV PUSH16 0xFFFFFFFFFFFFFFFFFFFFFFFFFFFFFFFF AND PUSH16 0xFFFFFFFFFFFFFFFFFFFFFFFFFFFFFFFF AND PUSH16 0xFFFFFFFFFFFFFFFFFFFFFFFFFFFFFFFF AND DUP2 MSTORE PUSH1 0x20 ADD PUSH1 0x1 DUP3 ADD PUSH1 0x10 SWAP1 SLOAD SWAP1 PUSH2 0x100 EXP SWAP1 DIV PUSH16 0xFFFFFFFFFFFFFFFFFFFFFFFFFFFFFFFF AND PUSH16 0xFFFFFFFFFFFFFFFFFFFFFFFFFFFFFFFF AND PUSH16 0xFFFFFFFFFFFFFFFFFFFFFFFFFFFFFFFF AND DUP2 MSTORE POP POP SWAP1 POP PUSH1 0x0 PUSH2 0x9CE DUP8 PUSH2 0x1FF1 JUMP JUMPDEST SWAP1 POP DUP5 ISZERO PUSH2 0xB31 JUMPI PUSH1 0x0 PUSH2 0xA20 DUP4 PUSH1 0x60 ADD MLOAD PUSH16 0xFFFFFFFFFFFFFFFFFFFFFFFFFFFFFFFF AND PUSH2 0xA12 DUP6 PUSH1 0x40 ADD MLOAD PUSH16 0xFFFFFFFFFFFFFFFFFFFFFFFFFFFFFFFF AND DUP6 PUSH2 0x1220 JUMP JUMPDEST PUSH2 0x242C SWAP1 SWAP2 SWAP1 PUSH4 0xFFFFFFFF AND JUMP JUMPDEST SWAP1 POP PUSH2 0xA2C DUP8 DUP3 PUSH2 0x24AF JUMP JUMPDEST SWAP7 POP PUSH1 0x0 DUP2 EQ ISZERO PUSH2 0xA46 JUMPI PUSH1 0x0 DUP1 SWAP5 POP SWAP5 POP POP POP POP PUSH2 0xC97 JUMP JUMPDEST PUSH2 0xA51 DUP9 PUSH1 0x0 PUSH2 0x24C8 JUMP JUMPDEST ISZERO PUSH2 0xAE5 JUMPI PUSH2 0xA7E PUSH2 0xA79 DUP5 PUSH1 0x40 ADD MLOAD PUSH16 0xFFFFFFFFFFFFFFFFFFFFFFFFFFFFFFFF AND DUP5 PUSH2 0x1220 JUMP JUMPDEST PUSH2 0x25A4 JUMP JUMPDEST DUP4 PUSH1 0x60 ADD DUP2 DUP2 MLOAD ADD SWAP2 POP SWAP1 PUSH16 0xFFFFFFFFFFFFFFFFFFFFFFFFFFFFFFFF AND SWAP1 DUP2 PUSH16 0xFFFFFFFFFFFFFFFFFFFFFFFFFFFFFFFF AND DUP2 MSTORE POP POP PUSH1 0x0 DUP4 PUSH1 0x40 ADD SWAP1 PUSH16 0xFFFFFFFFFFFFFFFFFFFFFFFFFFFFFFFF AND SWAP1 DUP2 PUSH16 0xFFFFFFFFFFFFFFFFFFFFFFFFFFFFFFFF AND DUP2 MSTORE POP POP JUMPDEST PUSH2 0xB06 DUP8 DUP5 PUSH1 0x40 ADD MLOAD PUSH16 0xFFFFFFFFFFFFFFFFFFFFFFFFFFFFFFFF AND DUP4 PUSH2 0x25CC JUMP JUMPDEST SWAP5 POP PUSH2 0xB29 DUP8 DUP5 PUSH1 0x60 ADD MLOAD PUSH16 0xFFFFFFFFFFFFFFFFFFFFFFFFFFFFFFFF AND DUP4 PUSH2 0x25CC JUMP JUMPDEST SWAP4 POP POP PUSH2 0xC94 JUMP JUMPDEST PUSH1 0x0 PUSH2 0xB7B DUP4 PUSH1 0x20 ADD MLOAD PUSH16 0xFFFFFFFFFFFFFFFFFFFFFFFFFFFFFFFF AND PUSH2 0xB6D DUP6 PUSH1 0x0 ADD MLOAD PUSH16 0xFFFFFFFFFFFFFFFFFFFFFFFFFFFFFFFF AND DUP6 PUSH2 0x1188 JUMP JUMPDEST PUSH2 0x242C SWAP1 SWAP2 SWAP1 PUSH4 0xFFFFFFFF AND JUMP JUMPDEST SWAP1 POP PUSH2 0xB87 DUP8 DUP3 PUSH2 0x24AF JUMP JUMPDEST SWAP7 POP PUSH1 0x0 DUP2 EQ ISZERO PUSH2 0xBA1 JUMPI PUSH1 0x0 DUP1 SWAP5 POP SWAP5 POP POP POP POP PUSH2 0xC97 JUMP JUMPDEST PUSH2 0xBAC DUP9 PUSH1 0x1 PUSH2 0x24C8 JUMP JUMPDEST ISZERO PUSH2 0xC40 JUMPI PUSH2 0xBD9 PUSH2 0xBD4 DUP5 PUSH1 0x0 ADD MLOAD PUSH16 0xFFFFFFFFFFFFFFFFFFFFFFFFFFFFFFFF AND DUP5 PUSH2 0x1188 JUMP JUMPDEST PUSH2 0x25A4 JUMP JUMPDEST DUP4 PUSH1 0x20 ADD DUP2 DUP2 MLOAD ADD SWAP2 POP SWAP1 PUSH16 0xFFFFFFFFFFFFFFFFFFFFFFFFFFFFFFFF AND SWAP1 DUP2 PUSH16 0xFFFFFFFFFFFFFFFFFFFFFFFFFFFFFFFF AND DUP2 MSTORE POP POP PUSH1 0x0 DUP4 PUSH1 0x0 ADD SWAP1 PUSH16 0xFFFFFFFFFFFFFFFFFFFFFFFFFFFFFFFF AND SWAP1 DUP2 PUSH16 0xFFFFFFFFFFFFFFFFFFFFFFFFFFFFFFFF AND DUP2 MSTORE POP POP JUMPDEST PUSH2 0xC4A DUP8 DUP3 PUSH2 0x24AF JUMP JUMPDEST SWAP7 POP PUSH2 0xC6D DUP8 DUP5 PUSH1 0x20 ADD MLOAD PUSH16 0xFFFFFFFFFFFFFFFFFFFFFFFFFFFFFFFF AND DUP4 PUSH2 0x25CC JUMP JUMPDEST SWAP5 POP PUSH2 0xC90 DUP8 DUP5 PUSH1 0x0 ADD MLOAD PUSH16 0xFFFFFFFFFFFFFFFFFFFFFFFFFFFFFFFF AND DUP4 PUSH2 0x25CC JUMP JUMPDEST SWAP4 POP POP JUMPDEST POP POP JUMPDEST SWAP4 POP SWAP4 SWAP2 POP POP JUMP JUMPDEST PUSH1 0x2 PUSH1 0x0 SWAP1 SLOAD SWAP1 PUSH2 0x100 EXP SWAP1 DIV PUSH20 0xFFFFFFFFFFFFFFFFFFFFFFFFFFFFFFFFFFFFFFFF AND DUP2 JUMP JUMPDEST PUSH1 0x12 PUSH1 0x20 MSTORE DUP1 PUSH1 0x0 MSTORE PUSH1 0x40 PUSH1 0x0 KECCAK256 PUSH1 0x0 SWAP2 POP SWAP1 POP SLOAD DUP2 JUMP JUMPDEST PUSH1 0x0 DUP1 PUSH1 0x0 DUP1 DUP7 EQ ISZERO PUSH2 0xD1B JUMPI PUSH1 0x0 DUP1 PUSH1 0x2 PUSH1 0x0 SWAP1 SLOAD SWAP1 PUSH2 0x100 EXP SWAP1 DIV PUSH20 0xFFFFFFFFFFFFFFFFFFFFFFFFFFFFFFFFFFFFFFFF AND SWAP3 POP SWAP3 POP SWAP3 POP PUSH2 0x1126 JUMP JUMPDEST PUSH1 0x0 PUSH2 0xD48 PUSH1 0x2 PUSH1 0x0 SWAP1 SLOAD SWAP1 PUSH2 0x100 EXP SWAP1 DIV PUSH20 0xFFFFFFFFFFFFFFFFFFFFFFFFFFFFFFFFFFFFFFFF AND PUSH2 0x1833 JUMP JUMPDEST SWAP1 POP PUSH1 0x2 PUSH1 0x0 SWAP1 SLOAD SWAP1 PUSH2 0x100 EXP SWAP1 DIV PUSH20 0xFFFFFFFFFFFFFFFFFFFFFFFFFFFFFFFFFFFFFFFF AND SWAP2 POP PUSH2 0xD77 PUSH2 0x562D JUMP JUMPDEST DUP8 DUP2 PUSH1 0x0 ADD DUP2 DUP2 MSTORE POP POP PUSH1 0x2 PUSH1 0x0 SWAP1 SLOAD SWAP1 PUSH2 0x100 EXP SWAP1 DIV PUSH20 0xFFFFFFFFFFFFFFFFFFFFFFFFFFFFFFFFFFFFFFFF AND DUP2 PUSH1 0x60 ADD SWAP1 PUSH20 0xFFFFFFFFFFFFFFFFFFFFFFFFFFFFFFFFFFFFFFFF AND SWAP1 DUP2 PUSH20 0xFFFFFFFFFFFFFFFFFFFFFFFFFFFFFFFFFFFFFFFF AND DUP2 MSTORE POP POP DUP7 DUP2 PUSH1 0xA0 ADD SWAP1 ISZERO ISZERO SWAP1 DUP2 ISZERO ISZERO DUP2 MSTORE POP POP DUP6 DUP2 PUSH1 0xC0 ADD SWAP1 PUSH1 0x2 SIGNEXTEND SWAP1 DUP2 PUSH1 0x2 SIGNEXTEND DUP2 MSTORE POP POP DUP2 DUP2 PUSH1 0x80 ADD SWAP1 PUSH1 0x2 SIGNEXTEND SWAP1 DUP2 PUSH1 0x2 SIGNEXTEND DUP2 MSTORE POP POP PUSH2 0xE17 PUSH2 0x5688 JUMP JUMPDEST PUSH1 0x0 PUSH2 0xE22 DUP4 PUSH2 0x1C2F JUMP JUMPDEST DUP1 SWAP4 POP DUP2 SWAP5 POP DUP3 SWAP6 POP POP POP POP DUP3 PUSH1 0x60 ADD MLOAD PUSH20 0xFFFFFFFFFFFFFFFFFFFFFFFFFFFFFFFFFFFFFFFF AND PUSH2 0xE56 DUP5 PUSH1 0x80 ADD MLOAD PUSH2 0x1FF1 JUMP JUMPDEST PUSH20 0xFFFFFFFFFFFFFFFFFFFFFFFFFFFFFFFFFFFFFFFF AND EQ DUP1 ISZERO PUSH2 0xE76 JUMPI POP DUP1 JUMPDEST ISZERO PUSH2 0xE92 JUMPI PUSH2 0xE91 DUP4 PUSH1 0x80 ADD MLOAD DUP4 DUP6 PUSH1 0x60 ADD MLOAD PUSH1 0x0 DUP1 PUSH2 0x26A6 JUMP JUMPDEST JUMPDEST DUP9 ISZERO PUSH2 0xEC3 JUMPI DUP4 PUSH1 0x2 SIGNEXTEND DUP4 PUSH1 0x80 ADD MLOAD PUSH1 0x2 SIGNEXTEND SGT ISZERO PUSH2 0xEBE JUMPI PUSH2 0xEBD DUP5 PUSH1 0x1 DUP6 PUSH1 0x80 ADD MLOAD SUB PUSH1 0x0 PUSH2 0x2C54 JUMP JUMPDEST JUMPDEST PUSH2 0xEEA JUMP JUMPDEST DUP4 PUSH1 0x2 SIGNEXTEND DUP4 PUSH1 0x80 ADD MLOAD PUSH1 0x2 SIGNEXTEND SLT ISZERO PUSH2 0xEE9 JUMPI PUSH2 0xEE8 PUSH1 0x1 DUP5 PUSH1 0x80 ADD MLOAD ADD DUP6 PUSH1 0x1 PUSH2 0x2C54 JUMP JUMPDEST JUMPDEST JUMPDEST DUP3 PUSH1 0x60 ADD MLOAD PUSH1 0x2 PUSH1 0x0 PUSH2 0x100 EXP DUP2 SLOAD DUP2 PUSH20 0xFFFFFFFFFFFFFFFFFFFFFFFFFFFFFFFFFFFFFFFF MUL NOT AND SWAP1 DUP4 PUSH20 0xFFFFFFFFFFFFFFFFFFFFFFFFFFFFFFFFFFFFFFFF AND MUL OR SWAP1 SSTORE POP DUP9 PUSH2 0xF54 JUMPI PUSH2 0xF4F DUP6 DUP5 PUSH1 0x60 ADD MLOAD PUSH2 0xF48 PUSH1 0x3 SLOAD PUSH2 0x25A4 JUMP JUMPDEST PUSH1 0x1 PUSH2 0x3024 JUMP JUMPDEST PUSH2 0xF70 JUMP JUMPDEST PUSH2 0xF6F DUP6 DUP5 PUSH1 0x60 ADD MLOAD PUSH2 0xF68 PUSH1 0x3 SLOAD PUSH2 0x25A4 JUMP JUMPDEST PUSH1 0x1 PUSH2 0x30FE JUMP JUMPDEST JUMPDEST SWAP6 POP DUP6 DUP4 PUSH1 0x20 ADD MLOAD GT ISZERO PUSH2 0xF9B JUMPI DUP6 DUP4 PUSH1 0x20 ADD MLOAD SUB SWAP6 POP PUSH2 0x3E8 DUP7 LT ISZERO PUSH2 0xF96 JUMPI PUSH1 0x0 SWAP6 POP JUMPDEST PUSH2 0x1023 JUMP JUMPDEST DUP6 PUSH2 0x3E8 DUP5 PUSH1 0x20 ADD MLOAD ADD GT ISZERO PUSH2 0xFB4 JUMPI PUSH1 0x0 SWAP6 POP PUSH2 0x1022 JUMP JUMPDEST PUSH1 0x40 MLOAD PUSH32 0x8C379A000000000000000000000000000000000000000000000000000000000 DUP2 MSTORE PUSH1 0x4 ADD DUP1 DUP1 PUSH1 0x20 ADD DUP3 DUP2 SUB DUP3 MSTORE PUSH1 0xF DUP2 MSTORE PUSH1 0x20 ADD DUP1 PUSH32 0x746F6C6572616E74206578636565640000000000000000000000000000000000 DUP2 MSTORE POP PUSH1 0x20 ADD SWAP2 POP POP PUSH1 0x40 MLOAD DUP1 SWAP2 SUB SWAP1 REVERT JUMPDEST JUMPDEST PUSH1 0x0 DUP4 PUSH1 0x40 ADD MLOAD GT ISZERO PUSH2 0x110C JUMPI DUP9 ISZERO PUSH2 0x1096 JUMPI PUSH2 0x3E8 PUSH2 0x1052 DUP8 PUSH1 0x80 PUSH1 0x4 SLOAD SWAP1 SHR PUSH2 0x3234 SWAP1 SWAP2 SWAP1 PUSH4 0xFFFFFFFF AND JUMP JUMPDEST LT PUSH2 0x1075 JUMPI PUSH2 0x1070 PUSH1 0x80 DUP8 SWAP1 SHL PUSH1 0x4 SLOAD PUSH2 0x3234 SWAP1 SWAP2 SWAP1 PUSH4 0xFFFFFFFF AND JUMP JUMPDEST PUSH2 0x108B JUMP JUMPDEST PUSH1 0x4 SLOAD PUSH16 0xFFFFFFFFFFFFFFFFFFFFFFFFFFFFFFFF AND JUMPDEST PUSH1 0x4 DUP2 SWAP1 SSTORE POP PUSH2 0x110B JUMP JUMPDEST PUSH2 0x3E8 PUSH2 0x10C0 DUP8 PUSH1 0x4 SLOAD PUSH16 0xFFFFFFFFFFFFFFFFFFFFFFFFFFFFFFFF AND PUSH2 0x3234 SWAP1 SWAP2 SWAP1 PUSH4 0xFFFFFFFF AND JUMP JUMPDEST LT PUSH2 0x10F9 JUMPI PUSH2 0x10F4 PUSH2 0x10D1 DUP8 PUSH2 0x25A4 JUMP JUMPDEST PUSH16 0xFFFFFFFFFFFFFFFFFFFFFFFFFFFFFFFF AND PUSH1 0x4 SLOAD PUSH2 0x3234 SWAP1 SWAP2 SWAP1 PUSH4 0xFFFFFFFF AND JUMP JUMPDEST PUSH2 0x1104 JUMP JUMPDEST PUSH1 0x80 DUP1 PUSH1 0x4 SLOAD SWAP1 SHR SWAP1 SHL JUMPDEST PUSH1 0x4 DUP2 SWAP1 SSTORE POP JUMPDEST JUMPDEST DUP3 PUSH1 0x0 ADD MLOAD DUP4 PUSH1 0x20 ADD MLOAD DUP5 PUSH1 0x60 ADD MLOAD SWAP7 POP SWAP7 POP SWAP7 POP POP POP POP POP JUMPDEST SWAP4 POP SWAP4 POP SWAP4 SWAP1 POP JUMP JUMPDEST PUSH1 0x0 PUSH2 0x1183 PUSH1 0x3 SLOAD PUSH1 0x2 PUSH1 0x0 SWAP1 SLOAD SWAP1 PUSH2 0x100 EXP SWAP1 DIV PUSH20 0xFFFFFFFFFFFFFFFFFFFFFFFFFFFFFFFFFFFFFFFF AND PUSH20 0xFFFFFFFFFFFFFFFFFFFFFFFFFFFFFFFFFFFFFFFF AND PUSH13 0x1000000000000000000000000 PUSH2 0x1F93 JUMP JUMPDEST SWAP1 POP SWAP1 JUMP JUMPDEST PUSH1 0x0 DUP1 DUP3 PUSH20 0xFFFFFFFFFFFFFFFFFFFFFFFFFFFFFFFFFFFFFFFF AND EQ DUP1 PUSH2 0x11AE JUMPI POP PUSH1 0x0 DUP4 EQ JUMPDEST ISZERO PUSH2 0x11BC JUMPI PUSH1 0x0 SWAP1 POP PUSH2 0x121A JUMP JUMPDEST PUSH2 0x1217 PUSH2 0x11ED DUP5 PUSH13 0x1000000000000000000000000 DUP6 PUSH20 0xFFFFFFFFFFFFFFFFFFFFFFFFFFFFFFFFFFFFFFFF AND PUSH2 0x25CC JUMP JUMPDEST PUSH13 0x1000000000000000000000000 DUP5 PUSH20 0xFFFFFFFFFFFFFFFFFFFFFFFFFFFFFFFFFFFFFFFF AND PUSH2 0x25CC JUMP JUMPDEST SWAP1 POP JUMPDEST SWAP3 SWAP2 POP POP JUMP JUMPDEST PUSH1 0x0 DUP1 DUP3 PUSH20 0xFFFFFFFFFFFFFFFFFFFFFFFFFFFFFFFFFFFFFFFF AND EQ DUP1 PUSH2 0x1246 JUMPI POP PUSH1 0x0 DUP4 EQ JUMPDEST ISZERO PUSH2 0x1254 JUMPI PUSH1 0x0 SWAP1 POP PUSH2 0x12C3 JUMP JUMPDEST PUSH1 0x60 PUSH2 0x12AB DUP4 PUSH20 0xFFFFFFFFFFFFFFFFFFFFFFFFFFFFFFFFFFFFFFFF AND PUSH1 0x60 PUSH2 0x129B DUP7 PUSH20 0xFFFFFFFFFFFFFFFFFFFFFFFFFFFFFFFFFFFFFFFF AND DUP9 PUSH2 0x1EEA SWAP1 SWAP2 SWAP1 PUSH4 0xFFFFFFFF AND JUMP JUMPDEST SWAP1 SHR PUSH2 0x1EEA SWAP1 SWAP2 SWAP1 PUSH4 0xFFFFFFFF AND JUMP JUMPDEST SWAP1 SHR SWAP1 POP PUSH1 0x0 DUP2 GT ISZERO PUSH2 0x12C2 JUMPI DUP1 DUP1 PUSH1 0x1 SWAP1 SUB SWAP2 POP POP JUMPDEST JUMPDEST SWAP3 SWAP2 POP POP JUMP JUMPDEST PUSH1 0x14 PUSH1 0x0 SWAP1 SLOAD SWAP1 PUSH2 0x100 EXP SWAP1 DIV PUSH20 0xFFFFFFFFFFFFFFFFFFFFFFFFFFFFFFFFFFFFFFFF AND DUP2 JUMP JUMPDEST PUSH1 0xD PUSH1 0x20 MSTORE DUP2 PUSH1 0x0 MSTORE PUSH1 0x40 PUSH1 0x0 KECCAK256 PUSH1 0x20 MSTORE DUP1 PUSH1 0x0 MSTORE PUSH1 0x40 PUSH1 0x0 KECCAK256 PUSH1 0x0 SWAP2 POP SWAP2 POP POP SLOAD DUP2 JUMP JUMPDEST PUSH2 0x1389 DUP9 PUSH1 0x40 MLOAD DUP1 PUSH1 0x80 ADD PUSH1 0x40 MSTORE DUP1 DUP11 PUSH16 0xFFFFFFFFFFFFFFFFFFFFFFFFFFFFFFFF AND DUP2 MSTORE PUSH1 0x20 ADD DUP10 PUSH16 0xFFFFFFFFFFFFFFFFFFFFFFFFFFFFFFFF AND DUP2 MSTORE PUSH1 0x20 ADD DUP9 PUSH16 0xFFFFFFFFFFFFFFFFFFFFFFFFFFFFFFFF AND DUP2 MSTORE PUSH1 0x20 ADD DUP8 PUSH16 0xFFFFFFFFFFFFFFFFFFFFFFFFFFFFFFFF AND DUP2 MSTORE POP DUP6 DUP6 DUP6 PUSH2 0x26A6 JUMP JUMPDEST POP POP POP POP POP POP POP POP JUMP JUMPDEST PUSH1 0x0 PUSH2 0x139F DUP4 DUP4 PUSH2 0x24C8 JUMP JUMPDEST SWAP1 POP SWAP3 SWAP2 POP POP JUMP JUMPDEST PUSH1 0x0 DUP1 PUSH1 0x0 DUP1 PUSH2 0x13B6 DUP7 PUSH2 0x32B7 JUMP JUMPDEST SWAP4 POP SWAP4 POP SWAP4 POP SWAP4 POP PUSH2 0x13DE PUSH1 0x5 DUP7 PUSH1 0x2 DUP2 LT PUSH2 0x13CE JUMPI INVALID JUMPDEST ADD SLOAD PUSH2 0x13D9 DUP7 PUSH2 0x3300 JUMP JUMPDEST PUSH2 0x3310 JUMP JUMPDEST ISZERO PUSH2 0x14F1 JUMPI PUSH2 0x1405 PUSH1 0x5 DUP7 PUSH1 0x2 DUP2 LT PUSH2 0x13F3 JUMPI INVALID JUMPDEST ADD SLOAD PUSH2 0x13FE DUP7 PUSH2 0x3300 JUMP JUMPDEST PUSH1 0x0 PUSH2 0x332D JUMP JUMPDEST PUSH1 0x5 DUP7 PUSH1 0x2 DUP2 LT PUSH2 0x1412 JUMPI INVALID JUMPDEST ADD DUP2 SWAP1 SSTORE POP PUSH2 0x1443 PUSH32 0xFFFFFFFFFFFFFFFFFFFFFFFFFFFFFFFFFFFFFFFFFFFFFFFFFFFFFFFFFFFFFFFF DUP5 PUSH1 0x0 PUSH2 0x332D JUMP JUMPDEST PUSH1 0x7 DUP7 PUSH1 0x2 DUP2 LT PUSH2 0x1450 JUMPI INVALID JUMPDEST ADD PUSH1 0x0 DUP7 PUSH1 0x0 SIGNEXTEND PUSH1 0x0 SIGNEXTEND DUP2 MSTORE PUSH1 0x20 ADD SWAP1 DUP2 MSTORE PUSH1 0x20 ADD PUSH1 0x0 KECCAK256 DUP2 SWAP1 SSTORE POP PUSH2 0x1498 PUSH32 0xFFFFFFFFFFFFFFFFFFFFFFFFFFFFFFFFFFFFFFFFFFFFFFFFFFFFFFFFFFFFFFFF DUP3 PUSH1 0x0 PUSH2 0x332D JUMP JUMPDEST PUSH1 0x9 DUP7 PUSH1 0x2 DUP2 LT PUSH2 0x14A5 JUMPI INVALID JUMPDEST ADD PUSH1 0x0 DUP5 PUSH1 0x1 SIGNEXTEND PUSH1 0x1 SIGNEXTEND DUP2 MSTORE PUSH1 0x20 ADD SWAP1 DUP2 MSTORE PUSH1 0x20 ADD PUSH1 0x0 KECCAK256 DUP2 SWAP1 SSTORE POP PUSH1 0x0 PUSH1 0xE DUP7 PUSH1 0x2 DUP2 LT PUSH2 0x14D0 JUMPI INVALID JUMPDEST ADD PUSH1 0x0 DUP7 PUSH1 0x0 SIGNEXTEND PUSH1 0x0 SIGNEXTEND DUP2 MSTORE PUSH1 0x20 ADD SWAP1 DUP2 MSTORE PUSH1 0x20 ADD PUSH1 0x0 KECCAK256 DUP2 SWAP1 SSTORE POP PUSH2 0x182B JUMP JUMPDEST PUSH2 0x1520 PUSH1 0x7 DUP7 PUSH1 0x2 DUP2 LT PUSH2 0x1501 JUMPI INVALID JUMPDEST ADD PUSH1 0x0 DUP7 PUSH1 0x0 SIGNEXTEND PUSH1 0x0 SIGNEXTEND DUP2 MSTORE PUSH1 0x20 ADD SWAP1 DUP2 MSTORE PUSH1 0x20 ADD PUSH1 0x0 KECCAK256 SLOAD DUP5 PUSH2 0x3310 JUMP JUMPDEST ISZERO PUSH2 0x165C JUMPI PUSH2 0x1556 PUSH1 0x7 DUP7 PUSH1 0x2 DUP2 LT PUSH2 0x1535 JUMPI INVALID JUMPDEST ADD PUSH1 0x0 DUP7 PUSH1 0x0 SIGNEXTEND PUSH1 0x0 SIGNEXTEND DUP2 MSTORE PUSH1 0x20 ADD SWAP1 DUP2 MSTORE PUSH1 0x20 ADD PUSH1 0x0 KECCAK256 SLOAD DUP5 PUSH1 0x0 PUSH2 0x332D JUMP JUMPDEST PUSH1 0x7 DUP7 PUSH1 0x2 DUP2 LT PUSH2 0x1563 JUMPI INVALID JUMPDEST ADD PUSH1 0x0 DUP7 PUSH1 0x0 SIGNEXTEND PUSH1 0x0 SIGNEXTEND DUP2 MSTORE PUSH1 0x20 ADD SWAP1 DUP2 MSTORE PUSH1 0x20 ADD PUSH1 0x0 KECCAK256 DUP2 SWAP1 SSTORE POP PUSH2 0x15AB PUSH32 0xFFFFFFFFFFFFFFFFFFFFFFFFFFFFFFFFFFFFFFFFFFFFFFFFFFFFFFFFFFFFFFFF DUP3 PUSH1 0x0 PUSH2 0x332D JUMP JUMPDEST PUSH1 0x9 DUP7 PUSH1 0x2 DUP2 LT PUSH2 0x15B8 JUMPI INVALID JUMPDEST ADD PUSH1 0x0 DUP5 PUSH1 0x1 SIGNEXTEND PUSH1 0x1 SIGNEXTEND DUP2 MSTORE PUSH1 0x20 ADD SWAP1 DUP2 MSTORE PUSH1 0x20 ADD PUSH1 0x0 KECCAK256 DUP2 SWAP1 SSTORE POP PUSH1 0x10 DUP6 PUSH1 0x2 DUP2 LT PUSH2 0x15E1 JUMPI INVALID JUMPDEST ADD PUSH1 0x0 DUP4 PUSH1 0x1 SIGNEXTEND PUSH1 0x1 SIGNEXTEND DUP2 MSTORE PUSH1 0x20 ADD SWAP1 DUP2 MSTORE PUSH1 0x20 ADD PUSH1 0x0 KECCAK256 SLOAD PUSH1 0xE DUP7 PUSH1 0x2 DUP2 LT PUSH2 0x1607 JUMPI INVALID JUMPDEST ADD PUSH1 0x0 DUP7 PUSH1 0x0 SIGNEXTEND PUSH1 0x0 SIGNEXTEND DUP2 MSTORE PUSH1 0x20 ADD SWAP1 DUP2 MSTORE PUSH1 0x20 ADD PUSH1 0x0 KECCAK256 PUSH1 0x0 DUP3 DUP3 SLOAD SUB SWAP3 POP POP DUP2 SWAP1 SSTORE POP PUSH1 0x0 PUSH1 0x10 DUP7 PUSH1 0x2 DUP2 LT PUSH2 0x163B JUMPI INVALID JUMPDEST ADD PUSH1 0x0 DUP5 PUSH1 0x1 SIGNEXTEND PUSH1 0x1 SIGNEXTEND DUP2 MSTORE PUSH1 0x20 ADD SWAP1 DUP2 MSTORE PUSH1 0x20 ADD PUSH1 0x0 KECCAK256 DUP2 SWAP1 SSTORE POP PUSH2 0x182A JUMP JUMPDEST PUSH2 0x168B PUSH1 0x9 DUP7 PUSH1 0x2 DUP2 LT PUSH2 0x166C JUMPI INVALID JUMPDEST ADD PUSH1 0x0 DUP5 PUSH1 0x1 SIGNEXTEND PUSH1 0x1 SIGNEXTEND DUP2 MSTORE PUSH1 0x20 ADD SWAP1 DUP2 MSTORE PUSH1 0x20 ADD PUSH1 0x0 KECCAK256 SLOAD DUP3 PUSH2 0x3310 JUMP JUMPDEST ISZERO PUSH2 0x1829 JUMPI PUSH2 0x16C1 PUSH1 0x9 DUP7 PUSH1 0x2 DUP2 LT PUSH2 0x16A0 JUMPI INVALID JUMPDEST ADD PUSH1 0x0 DUP5 PUSH1 0x1 SIGNEXTEND PUSH1 0x1 SIGNEXTEND DUP2 MSTORE PUSH1 0x20 ADD SWAP1 DUP2 MSTORE PUSH1 0x20 ADD PUSH1 0x0 KECCAK256 SLOAD DUP3 PUSH1 0x0 PUSH2 0x332D JUMP JUMPDEST PUSH1 0x9 DUP7 PUSH1 0x2 DUP2 LT PUSH2 0x16CE JUMPI INVALID JUMPDEST ADD PUSH1 0x0 DUP5 PUSH1 0x1 SIGNEXTEND PUSH1 0x1 SIGNEXTEND DUP2 MSTORE PUSH1 0x20 ADD SWAP1 DUP2 MSTORE PUSH1 0x20 ADD PUSH1 0x0 KECCAK256 DUP2 SWAP1 SSTORE POP PUSH1 0x0 DUP1 DUP7 GT PUSH2 0x1731 JUMPI PUSH1 0xB PUSH1 0x0 DUP9 PUSH1 0x2 SIGNEXTEND PUSH1 0x2 SIGNEXTEND DUP2 MSTORE PUSH1 0x20 ADD SWAP1 DUP2 MSTORE PUSH1 0x20 ADD PUSH1 0x0 KECCAK256 PUSH1 0x1 ADD PUSH1 0x0 SWAP1 SLOAD SWAP1 PUSH2 0x100 EXP SWAP1 DIV PUSH16 0xFFFFFFFFFFFFFFFFFFFFFFFFFFFFFFFF AND PUSH2 0x176B JUMP JUMPDEST PUSH1 0xB PUSH1 0x0 DUP9 PUSH1 0x2 SIGNEXTEND PUSH1 0x2 SIGNEXTEND DUP2 MSTORE PUSH1 0x20 ADD SWAP1 DUP2 MSTORE PUSH1 0x20 ADD PUSH1 0x0 KECCAK256 PUSH1 0x0 ADD PUSH1 0x0 SWAP1 SLOAD SWAP1 PUSH2 0x100 EXP SWAP1 DIV PUSH16 0xFFFFFFFFFFFFFFFFFFFFFFFFFFFFFFFF AND JUMPDEST PUSH16 0xFFFFFFFFFFFFFFFFFFFFFFFFFFFFFFFF AND SWAP1 POP PUSH1 0x0 DUP1 DUP8 GT PUSH2 0x179F JUMPI PUSH2 0x179A DUP3 PUSH2 0x1795 DUP11 PUSH2 0x1FF1 JUMP JUMPDEST PUSH2 0x1220 JUMP JUMPDEST PUSH2 0x17B2 JUMP JUMPDEST PUSH2 0x17B1 DUP3 PUSH2 0x17AC DUP11 PUSH2 0x1FF1 JUMP JUMPDEST PUSH2 0x1188 JUMP JUMPDEST JUMPDEST SWAP1 POP DUP1 PUSH1 0x80 DUP4 SWAP1 SHL ADD PUSH1 0xE DUP9 PUSH1 0x2 DUP2 LT PUSH2 0x17C8 JUMPI INVALID JUMPDEST ADD PUSH1 0x0 DUP9 PUSH1 0x0 SIGNEXTEND PUSH1 0x0 SIGNEXTEND DUP2 MSTORE PUSH1 0x20 ADD SWAP1 DUP2 MSTORE PUSH1 0x20 ADD PUSH1 0x0 KECCAK256 PUSH1 0x0 DUP3 DUP3 SLOAD SUB SWAP3 POP POP DUP2 SWAP1 SSTORE POP DUP1 PUSH1 0x80 DUP4 SWAP1 SHL ADD PUSH1 0x10 DUP9 PUSH1 0x2 DUP2 LT PUSH2 0x1801 JUMPI INVALID JUMPDEST ADD PUSH1 0x0 DUP9 PUSH1 0x0 SIGNEXTEND PUSH1 0x1 SIGNEXTEND DUP2 MSTORE PUSH1 0x20 ADD SWAP1 DUP2 MSTORE PUSH1 0x20 ADD PUSH1 0x0 KECCAK256 PUSH1 0x0 DUP3 DUP3 SLOAD SUB SWAP3 POP POP DUP2 SWAP1 SSTORE POP POP POP JUMPDEST JUMPDEST JUMPDEST POP POP POP POP POP POP JUMP JUMPDEST PUSH1 0x0 PUSH5 0x1000276A3 PUSH20 0xFFFFFFFFFFFFFFFFFFFFFFFFFFFFFFFFFFFFFFFF AND DUP3 PUSH20 0xFFFFFFFFFFFFFFFFFFFFFFFFFFFFFFFFFFFFFFFF AND LT ISZERO DUP1 ISZERO PUSH2 0x18B5 JUMPI POP PUSH20 0xFFFD8963EFD1FC6A506488495D951D5263988D26 PUSH20 0xFFFFFFFFFFFFFFFFFFFFFFFFFFFFFFFFFFFFFFFF AND DUP3 PUSH20 0xFFFFFFFFFFFFFFFFFFFFFFFFFFFFFFFFFFFFFFFF AND LT JUMPDEST PUSH2 0x1927 JUMPI PUSH1 0x40 MLOAD PUSH32 0x8C379A000000000000000000000000000000000000000000000000000000000 DUP2 MSTORE PUSH1 0x4 ADD DUP1 DUP1 PUSH1 0x20 ADD DUP3 DUP2 SUB DUP3 MSTORE PUSH1 0x1 DUP2 MSTORE PUSH1 0x20 ADD DUP1 PUSH32 0x5200000000000000000000000000000000000000000000000000000000000000 DUP2 MSTORE POP PUSH1 0x20 ADD SWAP2 POP POP PUSH1 0x40 MLOAD DUP1 SWAP2 SUB SWAP1 REVERT JUMPDEST PUSH1 0x0 PUSH1 0x20 DUP4 PUSH20 0xFFFFFFFFFFFFFFFFFFFFFFFFFFFFFFFFFFFFFFFF AND SWAP1 SHL SWAP1 POP PUSH1 0x0 DUP2 SWAP1 POP PUSH1 0x0 PUSH16 0xFFFFFFFFFFFFFFFFFFFFFFFFFFFFFFFF DUP3 GT PUSH1 0x7 SHL DUP1 DUP3 OR SWAP2 POP DUP3 DUP2 SHR SWAP3 POP POP PUSH8 0xFFFFFFFFFFFFFFFF DUP3 GT PUSH1 0x6 SHL DUP1 DUP3 OR SWAP2 POP DUP3 DUP2 SHR SWAP3 POP POP PUSH4 0xFFFFFFFF DUP3 GT PUSH1 0x5 SHL DUP1 DUP3 OR SWAP2 POP DUP3 DUP2 SHR SWAP3 POP POP PUSH2 0xFFFF DUP3 GT PUSH1 0x4 SHL DUP1 DUP3 OR SWAP2 POP DUP3 DUP2 SHR SWAP3 POP POP PUSH1 0xFF DUP3 GT PUSH1 0x3 SHL DUP1 DUP3 OR SWAP2 POP DUP3 DUP2 SHR SWAP3 POP POP PUSH1 0xF DUP3 GT PUSH1 0x2 SHL DUP1 DUP3 OR SWAP2 POP DUP3 DUP2 SHR SWAP3 POP POP PUSH1 0x3 DUP3 GT PUSH1 0x1 SHL DUP1 DUP3 OR SWAP2 POP DUP3 DUP2 SHR SWAP3 POP POP PUSH1 0x1 DUP3 GT DUP1 DUP3 OR SWAP2 POP POP PUSH1 0x80 DUP2 LT PUSH2 0x1A05 JUMPI PUSH1 0x7F DUP2 SUB DUP4 SWAP1 SHR SWAP2 POP PUSH2 0x1A0F JUMP JUMPDEST DUP1 PUSH1 0x7F SUB DUP4 SWAP1 SHL SWAP2 POP JUMPDEST PUSH1 0x0 PUSH1 0x40 PUSH1 0x80 DUP4 SUB SWAP1 SHL SWAP1 POP DUP3 DUP4 MUL PUSH1 0x7F SHR SWAP3 POP DUP3 PUSH1 0x80 SHR DUP1 PUSH1 0x3F SHL DUP3 OR SWAP2 POP DUP4 DUP2 SHR SWAP4 POP POP DUP3 DUP4 MUL PUSH1 0x7F SHR SWAP3 POP DUP3 PUSH1 0x80 SHR DUP1 PUSH1 0x3E SHL DUP3 OR SWAP2 POP DUP4 DUP2 SHR SWAP4 POP POP DUP3 DUP4 MUL PUSH1 0x7F SHR SWAP3 POP DUP3 PUSH1 0x80 SHR DUP1 PUSH1 0x3D SHL DUP3 OR SWAP2 POP DUP4 DUP2 SHR SWAP4 POP POP DUP3 DUP4 MUL PUSH1 0x7F SHR SWAP3 POP DUP3 PUSH1 0x80 SHR DUP1 PUSH1 0x3C SHL DUP3 OR SWAP2 POP DUP4 DUP2 SHR SWAP4 POP POP DUP3 DUP4 MUL PUSH1 0x7F SHR SWAP3 POP DUP3 PUSH1 0x80 SHR DUP1 PUSH1 0x3B SHL DUP3 OR SWAP2 POP DUP4 DUP2 SHR SWAP4 POP POP DUP3 DUP4 MUL PUSH1 0x7F SHR SWAP3 POP DUP3 PUSH1 0x80 SHR DUP1 PUSH1 0x3A SHL DUP3 OR SWAP2 POP DUP4 DUP2 SHR SWAP4 POP POP DUP3 DUP4 MUL PUSH1 0x7F SHR SWAP3 POP DUP3 PUSH1 0x80 SHR DUP1 PUSH1 0x39 SHL DUP3 OR SWAP2 POP DUP4 DUP2 SHR SWAP4 POP POP DUP3 DUP4 MUL PUSH1 0x7F SHR SWAP3 POP DUP3 PUSH1 0x80 SHR DUP1 PUSH1 0x38 SHL DUP3 OR SWAP2 POP DUP4 DUP2 SHR SWAP4 POP POP DUP3 DUP4 MUL PUSH1 0x7F SHR SWAP3 POP DUP3 PUSH1 0x80 SHR DUP1 PUSH1 0x37 SHL DUP3 OR SWAP2 POP DUP4 DUP2 SHR SWAP4 POP POP DUP3 DUP4 MUL PUSH1 0x7F SHR SWAP3 POP DUP3 PUSH1 0x80 SHR DUP1 PUSH1 0x36 SHL DUP3 OR SWAP2 POP DUP4 DUP2 SHR SWAP4 POP POP DUP3 DUP4 MUL PUSH1 0x7F SHR SWAP3 POP DUP3 PUSH1 0x80 SHR DUP1 PUSH1 0x35 SHL DUP3 OR SWAP2 POP DUP4 DUP2 SHR SWAP4 POP POP DUP3 DUP4 MUL PUSH1 0x7F SHR SWAP3 POP DUP3 PUSH1 0x80 SHR DUP1 PUSH1 0x34 SHL DUP3 OR SWAP2 POP DUP4 DUP2 SHR SWAP4 POP POP DUP3 DUP4 MUL PUSH1 0x7F SHR SWAP3 POP DUP3 PUSH1 0x80 SHR DUP1 PUSH1 0x33 SHL DUP3 OR SWAP2 POP DUP4 DUP2 SHR SWAP4 POP POP DUP3 DUP4 MUL PUSH1 0x7F SHR SWAP3 POP DUP3 PUSH1 0x80 SHR DUP1 PUSH1 0x32 SHL DUP3 OR SWAP2 POP POP PUSH1 0x0 PUSH10 0x3627A301D71055774C85 DUP3 MUL SWAP1 POP PUSH1 0x0 PUSH1 0x80 PUSH16 0x28F6481AB7F045A5AF012A19D003AAA DUP4 SUB SWAP1 SAR SWAP1 POP PUSH1 0x0 PUSH1 0x80 PUSH16 0xDB2DF09E81959A81455E260799A0632F DUP5 ADD SWAP1 SAR SWAP1 POP DUP1 PUSH1 0x2 SIGNEXTEND DUP3 PUSH1 0x2 SIGNEXTEND EQ PUSH2 0x1C1F JUMPI DUP9 PUSH20 0xFFFFFFFFFFFFFFFFFFFFFFFFFFFFFFFFFFFFFFFF AND PUSH2 0x1BF6 DUP3 PUSH2 0x1FF1 JUMP JUMPDEST PUSH20 0xFFFFFFFFFFFFFFFFFFFFFFFFFFFFFFFFFFFFFFFF AND GT ISZERO PUSH2 0x1C18 JUMPI DUP2 PUSH2 0x1C1A JUMP JUMPDEST DUP1 JUMPDEST PUSH2 0x1C21 JUMP JUMPDEST DUP2 JUMPDEST SWAP8 POP POP POP POP POP POP POP POP SWAP2 SWAP1 POP JUMP JUMPDEST PUSH2 0x1C37 PUSH2 0x562D JUMP JUMPDEST PUSH2 0x1C3F PUSH2 0x5688 JUMP JUMPDEST PUSH1 0x0 DUP1 DUP5 PUSH1 0x0 ADD MLOAD EQ ISZERO PUSH2 0x1CC8 JUMPI DUP4 PUSH1 0x40 MLOAD DUP1 PUSH1 0x80 ADD PUSH1 0x40 MSTORE DUP1 PUSH1 0x0 PUSH16 0xFFFFFFFFFFFFFFFFFFFFFFFFFFFFFFFF AND DUP2 MSTORE PUSH1 0x20 ADD PUSH1 0x0 PUSH16 0xFFFFFFFFFFFFFFFFFFFFFFFFFFFFFFFF AND DUP2 MSTORE PUSH1 0x20 ADD PUSH1 0x0 PUSH16 0xFFFFFFFFFFFFFFFFFFFFFFFFFFFFFFFF AND DUP2 MSTORE PUSH1 0x20 ADD PUSH1 0x0 PUSH16 0xFFFFFFFFFFFFFFFFFFFFFFFFFFFFFFFF AND DUP2 MSTORE POP PUSH1 0x0 SWAP3 POP SWAP3 POP SWAP3 POP PUSH2 0x1EE3 JUMP JUMPDEST DUP4 PUSH1 0x60 ADD MLOAD PUSH20 0xFFFFFFFFFFFFFFFFFFFFFFFFFFFFFFFFFFFFFFFF AND PUSH2 0x1CF0 DUP6 PUSH1 0x80 ADD MLOAD PUSH2 0x1FF1 JUMP JUMPDEST PUSH20 0xFFFFFFFFFFFFFFFFFFFFFFFFFFFFFFFFFFFFFFFF AND EQ PUSH2 0x1EBE JUMPI PUSH1 0x0 DUP5 PUSH1 0xA0 ADD MLOAD PUSH2 0x1D20 JUMPI DUP5 PUSH1 0x80 ADD MLOAD PUSH2 0x1D29 JUMP JUMPDEST PUSH1 0x1 DUP6 PUSH1 0x80 ADD MLOAD ADD JUMPDEST SWAP1 POP PUSH1 0x0 DUP1 PUSH1 0x0 PUSH2 0x1DB3 PUSH1 0x40 MLOAD DUP1 PUSH1 0xE0 ADD PUSH1 0x40 MSTORE DUP1 DUP11 PUSH1 0x0 ADD MLOAD DUP2 MSTORE PUSH1 0x20 ADD PUSH1 0x0 DUP2 MSTORE PUSH1 0x20 ADD PUSH1 0x2 PUSH1 0x0 SWAP1 SLOAD SWAP1 PUSH2 0x100 EXP SWAP1 DIV PUSH20 0xFFFFFFFFFFFFFFFFFFFFFFFFFFFFFFFFFFFFFFFF AND PUSH20 0xFFFFFFFFFFFFFFFFFFFFFFFFFFFFFFFFFFFFFFFF AND DUP2 MSTORE PUSH1 0x20 ADD DUP7 PUSH1 0x2 SIGNEXTEND DUP2 MSTORE PUSH1 0x20 ADD PUSH1 0x0 DUP2 MSTORE PUSH1 0x20 ADD PUSH1 0x0 DUP2 MSTORE PUSH1 0x20 ADD DUP11 PUSH1 0xA0 ADD MLOAD ISZERO ISZERO DUP2 MSTORE POP PUSH2 0x335A JUMP JUMPDEST SWAP3 POP SWAP3 POP SWAP3 POP DUP3 ISZERO PUSH2 0x1E24 JUMPI DUP1 DUP9 PUSH1 0x0 ADD DUP2 DUP2 MLOAD SUB SWAP2 POP DUP2 DUP2 MSTORE POP POP DUP2 DUP9 PUSH1 0x20 ADD DUP2 DUP2 MLOAD ADD SWAP2 POP DUP2 DUP2 MSTORE POP POP PUSH2 0x1DE8 DUP5 PUSH2 0x1FF1 JUMP JUMPDEST DUP9 PUSH1 0x60 ADD SWAP1 PUSH20 0xFFFFFFFFFFFFFFFFFFFFFFFFFFFFFFFFFFFFFFFF AND SWAP1 DUP2 PUSH20 0xFFFFFFFFFFFFFFFFFFFFFFFFFFFFFFFFFFFFFFFF AND DUP2 MSTORE POP POP PUSH2 0x1EB9 JUMP JUMPDEST PUSH2 0x1E2D DUP9 PUSH2 0x343E JUMP JUMPDEST SWAP8 POP PUSH1 0x0 DUP9 PUSH1 0x0 ADD DUP2 DUP2 MSTORE POP POP DUP8 PUSH1 0x40 MLOAD DUP1 PUSH1 0x80 ADD PUSH1 0x40 MSTORE DUP1 PUSH1 0x0 PUSH16 0xFFFFFFFFFFFFFFFFFFFFFFFFFFFFFFFF AND DUP2 MSTORE PUSH1 0x20 ADD PUSH1 0x0 PUSH16 0xFFFFFFFFFFFFFFFFFFFFFFFFFFFFFFFF AND DUP2 MSTORE PUSH1 0x20 ADD PUSH1 0x0 PUSH16 0xFFFFFFFFFFFFFFFFFFFFFFFFFFFFFFFF AND DUP2 MSTORE PUSH1 0x20 ADD PUSH1 0x0 PUSH16 0xFFFFFFFFFFFFFFFFFFFFFFFFFFFFFFFF AND DUP2 MSTORE POP PUSH1 0x0 SWAP7 POP SWAP7 POP SWAP7 POP POP POP POP POP PUSH2 0x1EE3 JUMP JUMPDEST POP POP POP POP JUMPDEST PUSH2 0x1EC6 PUSH2 0x5688 JUMP JUMPDEST PUSH2 0x1ECF DUP6 PUSH2 0x3683 JUMP JUMPDEST DUP1 SWAP3 POP DUP2 SWAP7 POP POP POP DUP5 DUP2 PUSH1 0x1 SWAP4 POP SWAP4 POP SWAP4 POP POP JUMPDEST SWAP2 SWAP4 SWAP1 SWAP3 POP JUMP JUMPDEST PUSH1 0x0 DUP1 DUP3 EQ DUP1 PUSH2 0x1F07 JUMPI POP DUP3 DUP3 DUP4 DUP6 MUL SWAP3 POP DUP3 DUP2 PUSH2 0x1F04 JUMPI INVALID JUMPDEST DIV EQ JUMPDEST PUSH2 0x1F79 JUMPI PUSH1 0x40 MLOAD PUSH32 0x8C379A000000000000000000000000000000000000000000000000000000000 DUP2 MSTORE PUSH1 0x4 ADD DUP1 DUP1 PUSH1 0x20 ADD DUP3 DUP2 SUB DUP3 MSTORE PUSH1 0x14 DUP2 MSTORE PUSH1 0x20 ADD DUP1 PUSH32 0x64732D6D6174682D6D756C2D6F766572666C6F77000000000000000000000000 DUP2 MSTORE POP PUSH1 0x20 ADD SWAP2 POP POP PUSH1 0x40 MLOAD DUP1 SWAP2 SUB SWAP1 REVERT JUMPDEST SWAP3 SWAP2 POP POP JUMP JUMPDEST PUSH1 0x0 DUP2 DUP4 DUP2 PUSH2 0x1F8A JUMPI INVALID JUMPDEST DIV SWAP1 POP SWAP3 SWAP2 POP POP JUMP JUMPDEST PUSH1 0x0 PUSH2 0x1FA0 DUP5 DUP5 DUP5 PUSH2 0x25CC JUMP JUMPDEST SWAP1 POP PUSH1 0x0 DUP3 DUP1 PUSH2 0x1FAC JUMPI INVALID JUMPDEST DUP5 DUP7 MULMOD GT ISZERO PUSH2 0x1FEA JUMPI PUSH32 0xFFFFFFFFFFFFFFFFFFFFFFFFFFFFFFFFFFFFFFFFFFFFFFFFFFFFFFFFFFFFFFFF DUP2 LT PUSH2 0x1FE1 JUMPI PUSH1 0x0 DUP1 REVERT JUMPDEST DUP1 DUP1 PUSH1 0x1 ADD SWAP2 POP POP JUMPDEST SWAP4 SWAP3 POP POP POP JUMP JUMPDEST PUSH1 0x0 DUP1 PUSH1 0x0 DUP4 PUSH1 0x2 SIGNEXTEND SLT PUSH2 0x2008 JUMPI DUP3 PUSH1 0x2 SIGNEXTEND PUSH2 0x2010 JUMP JUMPDEST DUP3 PUSH1 0x2 SIGNEXTEND PUSH1 0x0 SUB JUMPDEST SWAP1 POP PUSH32 0xFFFFFFFFFFFFFFFFFFFFFFFFFFFFFFFFFFFFFFFFFFFFFFFFFFFFFFFFFFF27618 PUSH1 0x0 SUB PUSH1 0x2 SIGNEXTEND DUP2 GT ISZERO PUSH2 0x20AE JUMPI PUSH1 0x40 MLOAD PUSH32 0x8C379A000000000000000000000000000000000000000000000000000000000 DUP2 MSTORE PUSH1 0x4 ADD DUP1 DUP1 PUSH1 0x20 ADD DUP3 DUP2 SUB DUP3 MSTORE PUSH1 0x1 DUP2 MSTORE PUSH1 0x20 ADD DUP1 PUSH32 0x5400000000000000000000000000000000000000000000000000000000000000 DUP2 MSTORE POP PUSH1 0x20 ADD SWAP2 POP POP PUSH1 0x40 MLOAD DUP1 SWAP2 SUB SWAP1 REVERT JUMPDEST PUSH1 0x0 DUP1 PUSH1 0x1 DUP4 AND EQ ISZERO PUSH2 0x20D2 JUMPI PUSH17 0x100000000000000000000000000000000 PUSH2 0x20E4 JUMP JUMPDEST PUSH16 0xFFFCB933BD6FAD37AA2D162D1A594001 JUMPDEST PUSH17 0xFFFFFFFFFFFFFFFFFFFFFFFFFFFFFFFFFF AND SWAP1 POP PUSH1 0x0 PUSH1 0x2 DUP4 AND EQ PUSH2 0x211E JUMPI PUSH1 0x80 PUSH16 0xFFF97272373D413259A46990580E213A DUP3 MUL SWAP1 SHR SWAP1 POP JUMPDEST PUSH1 0x0 PUSH1 0x4 DUP4 AND EQ PUSH2 0x2143 JUMPI PUSH1 0x80 PUSH16 0xFFF2E50F5F656932EF12357CF3C7FDCC DUP3 MUL SWAP1 SHR SWAP1 POP JUMPDEST PUSH1 0x0 PUSH1 0x8 DUP4 AND EQ PUSH2 0x2168 JUMPI PUSH1 0x80 PUSH16 0xFFE5CACA7E10E4E61C3624EAA0941CD0 DUP3 MUL SWAP1 SHR SWAP1 POP JUMPDEST PUSH1 0x0 PUSH1 0x10 DUP4 AND EQ PUSH2 0x218D JUMPI PUSH1 0x80 PUSH16 0xFFCB9843D60F6159C9DB58835C926644 DUP3 MUL SWAP1 SHR SWAP1 POP JUMPDEST PUSH1 0x0 PUSH1 0x20 DUP4 AND EQ PUSH2 0x21B2 JUMPI PUSH1 0x80 PUSH16 0xFF973B41FA98C081472E6896DFB254C0 DUP3 MUL SWAP1 SHR SWAP1 POP JUMPDEST PUSH1 0x0 PUSH1 0x40 DUP4 AND EQ PUSH2 0x21D7 JUMPI PUSH1 0x80 PUSH16 0xFF2EA16466C96A3843EC78B326B52861 DUP3 MUL SWAP1 SHR SWAP1 POP JUMPDEST PUSH1 0x0 PUSH1 0x80 DUP4 AND EQ PUSH2 0x21FC JUMPI PUSH1 0x80 PUSH16 0xFE5DEE046A99A2A811C461F1969C3053 DUP3 MUL SWAP1 SHR SWAP1 POP JUMPDEST PUSH1 0x0 PUSH2 0x100 DUP4 AND EQ PUSH2 0x2222 JUMPI PUSH1 0x80 PUSH16 0xFCBE86C7900A88AEDCFFC83B479AA3A4 DUP3 MUL SWAP1 SHR SWAP1 POP JUMPDEST PUSH1 0x0 PUSH2 0x200 DUP4 AND EQ PUSH2 0x2248 JUMPI PUSH1 0x80 PUSH16 0xF987A7253AC413176F2B074CF7815E54 DUP3 MUL SWAP1 SHR SWAP1 POP JUMPDEST PUSH1 0x0 PUSH2 0x400 DUP4 AND EQ PUSH2 0x226E JUMPI PUSH1 0x80 PUSH16 0xF3392B0822B70005940C7A398E4B70F3 DUP3 MUL SWAP1 SHR SWAP1 POP JUMPDEST PUSH1 0x0 PUSH2 0x800 DUP4 AND EQ PUSH2 0x2294 JUMPI PUSH1 0x80 PUSH16 0xE7159475A2C29B7443B29C7FA6E889D9 DUP3 MUL SWAP1 SHR SWAP1 POP JUMPDEST PUSH1 0x0 PUSH2 0x1000 DUP4 AND EQ PUSH2 0x22BA JUMPI PUSH1 0x80 PUSH16 0xD097F3BDFD2022B8845AD8F792AA5825 DUP3 MUL SWAP1 SHR SWAP1 POP JUMPDEST PUSH1 0x0 PUSH2 0x2000 DUP4 AND EQ PUSH2 0x22E0 JUMPI PUSH1 0x80 PUSH16 0xA9F746462D870FDF8A65DC1F90E061E5 DUP3 MUL SWAP1 SHR SWAP1 POP JUMPDEST PUSH1 0x0 PUSH2 0x4000 DUP4 AND EQ PUSH2 0x2306 JUMPI PUSH1 0x80 PUSH16 0x70D869A156D2A1B890BB3DF62BAF32F7 DUP3 MUL SWAP1 SHR SWAP1 POP JUMPDEST PUSH1 0x0 PUSH2 0x8000 DUP4 AND EQ PUSH2 0x232C JUMPI PUSH1 0x80 PUSH16 0x31BE135F97D08FD981231505542FCFA6 DUP3 MUL SWAP1 SHR SWAP1 POP JUMPDEST PUSH1 0x0 PUSH3 0x10000 DUP4 AND EQ PUSH2 0x2353 JUMPI PUSH1 0x80 PUSH16 0x9AA508B5B7A84E1C677DE54F3E99BC9 DUP3 MUL SWAP1 SHR SWAP1 POP JUMPDEST PUSH1 0x0 PUSH3 0x20000 DUP4 AND EQ PUSH2 0x2379 JUMPI PUSH1 0x80 PUSH15 0x5D6AF8DEDB81196699C329225EE604 DUP3 MUL SWAP1 SHR SWAP1 POP JUMPDEST PUSH1 0x0 PUSH3 0x40000 DUP4 AND EQ PUSH2 0x239E JUMPI PUSH1 0x80 PUSH14 0x2216E584F5FA1EA926041BEDFE98 DUP3 MUL SWAP1 SHR SWAP1 POP JUMPDEST PUSH1 0x0 PUSH3 0x80000 DUP4 AND EQ PUSH2 0x23C1 JUMPI PUSH1 0x80 PUSH12 0x48A170391F7DC42444E8FA2 DUP3 MUL SWAP1 SHR SWAP1 POP JUMPDEST PUSH1 0x0 DUP5 PUSH1 0x2 SIGNEXTEND SGT ISZERO PUSH2 0x23FA JUMPI DUP1 PUSH32 0xFFFFFFFFFFFFFFFFFFFFFFFFFFFFFFFFFFFFFFFFFFFFFFFFFFFFFFFFFFFFFFFF DUP2 PUSH2 0x23F6 JUMPI INVALID JUMPDEST DIV SWAP1 POP JUMPDEST PUSH1 0x0 PUSH5 0x100000000 DUP3 DUP2 PUSH2 0x240A JUMPI INVALID JUMPDEST MOD EQ PUSH2 0x2417 JUMPI PUSH1 0x1 PUSH2 0x241A JUMP JUMPDEST PUSH1 0x0 JUMPDEST PUSH1 0xFF AND PUSH1 0x20 DUP3 SWAP1 SHR ADD SWAP3 POP POP POP SWAP2 SWAP1 POP JUMP JUMPDEST PUSH1 0x0 DUP3 DUP3 DUP5 ADD SWAP2 POP DUP2 LT ISZERO PUSH2 0x24A9 JUMPI PUSH1 0x40 MLOAD PUSH32 0x8C379A000000000000000000000000000000000000000000000000000000000 DUP2 MSTORE PUSH1 0x4 ADD DUP1 DUP1 PUSH1 0x20 ADD DUP3 DUP2 SUB DUP3 MSTORE PUSH1 0x14 DUP2 MSTORE PUSH1 0x20 ADD DUP1 PUSH32 0x64732D6D6174682D6164642D6F766572666C6F77000000000000000000000000 DUP2 MSTORE POP PUSH1 0x20 ADD SWAP2 POP POP PUSH1 0x40 MLOAD DUP1 SWAP2 SUB SWAP1 REVERT JUMPDEST SWAP3 SWAP2 POP POP JUMP JUMPDEST PUSH1 0x0 DUP2 DUP4 LT PUSH2 0x24BE JUMPI DUP2 PUSH2 0x24C0 JUMP JUMPDEST DUP3 JUMPDEST SWAP1 POP SWAP3 SWAP2 POP POP JUMP JUMPDEST PUSH1 0x0 DUP1 PUSH1 0x0 DUP1 PUSH1 0x0 PUSH2 0x24D9 DUP8 PUSH2 0x32B7 JUMP JUMPDEST SWAP4 POP SWAP4 POP SWAP4 POP SWAP4 POP PUSH2 0x2501 PUSH1 0x5 DUP8 PUSH1 0x2 DUP2 LT PUSH2 0x24F1 JUMPI INVALID JUMPDEST ADD SLOAD PUSH2 0x24FC DUP7 PUSH2 0x3300 JUMP JUMPDEST PUSH2 0x3310 JUMP JUMPDEST ISZERO PUSH2 0x2513 JUMPI PUSH1 0x1 SWAP5 POP POP POP POP POP PUSH2 0x259E JUMP JUMPDEST PUSH2 0x2542 PUSH1 0x7 DUP8 PUSH1 0x2 DUP2 LT PUSH2 0x2523 JUMPI INVALID JUMPDEST ADD PUSH1 0x0 DUP7 PUSH1 0x0 SIGNEXTEND PUSH1 0x0 SIGNEXTEND DUP2 MSTORE PUSH1 0x20 ADD SWAP1 DUP2 MSTORE PUSH1 0x20 ADD PUSH1 0x0 KECCAK256 SLOAD DUP5 PUSH2 0x3310 JUMP JUMPDEST ISZERO PUSH2 0x2554 JUMPI PUSH1 0x1 SWAP5 POP POP POP POP POP PUSH2 0x259E JUMP JUMPDEST PUSH2 0x2583 PUSH1 0x9 DUP8 PUSH1 0x2 DUP2 LT PUSH2 0x2564 JUMPI INVALID JUMPDEST ADD PUSH1 0x0 DUP5 PUSH1 0x1 SIGNEXTEND PUSH1 0x1 SIGNEXTEND DUP2 MSTORE PUSH1 0x20 ADD SWAP1 DUP2 MSTORE PUSH1 0x20 ADD PUSH1 0x0 KECCAK256 SLOAD DUP3 PUSH2 0x3310 JUMP JUMPDEST ISZERO PUSH2 0x2595 JUMPI PUSH1 0x1 SWAP5 POP POP POP POP POP PUSH2 0x259E JUMP JUMPDEST PUSH1 0x0 SWAP5 POP POP POP POP POP JUMPDEST SWAP3 SWAP2 POP POP JUMP JUMPDEST PUSH1 0x0 DUP2 DUP3 SWAP2 POP DUP2 PUSH16 0xFFFFFFFFFFFFFFFFFFFFFFFFFFFFFFFF AND EQ PUSH2 0x25C7 JUMPI PUSH1 0x0 DUP1 REVERT JUMPDEST SWAP2 SWAP1 POP JUMP JUMPDEST PUSH1 0x0 DUP1 PUSH1 0x0 DUP1 NOT DUP6 DUP8 MULMOD DUP6 DUP8 MUL SWAP3 POP DUP3 DUP2 LT DUP4 DUP3 SUB SUB SWAP2 POP POP PUSH1 0x0 DUP2 EQ ISZERO PUSH2 0x2607 JUMPI PUSH1 0x0 DUP5 GT PUSH2 0x25FB JUMPI PUSH1 0x0 DUP1 REVERT JUMPDEST DUP4 DUP3 DIV SWAP3 POP POP POP PUSH2 0x269F JUMP JUMPDEST DUP1 DUP5 GT PUSH2 0x2613 JUMPI PUSH1 0x0 DUP1 REVERT JUMPDEST PUSH1 0x0 DUP5 DUP7 DUP9 MULMOD SWAP1 POP DUP3 DUP2 GT DUP3 SUB SWAP2 POP DUP1 DUP4 SUB SWAP3 POP PUSH1 0x0 DUP6 DUP7 PUSH1 0x0 SUB AND SWAP1 POP DUP1 DUP7 DIV SWAP6 POP DUP1 DUP5 DIV SWAP4 POP PUSH1 0x1 DUP2 DUP3 PUSH1 0x0 SUB DIV ADD SWAP1 POP DUP1 DUP4 MUL DUP5 OR SWAP4 POP PUSH1 0x0 PUSH1 0x2 DUP8 PUSH1 0x3 MUL XOR SWAP1 POP DUP1 DUP8 MUL PUSH1 0x2 SUB DUP2 MUL SWAP1 POP DUP1 DUP8 MUL PUSH1 0x2 SUB DUP2 MUL SWAP1 POP DUP1 DUP8 MUL PUSH1 0x2 SUB DUP2 MUL SWAP1 POP DUP1 DUP8 MUL PUSH1 0x2 SUB DUP2 MUL SWAP1 POP DUP1 DUP8 MUL PUSH1 0x2 SUB DUP2 MUL SWAP1 POP DUP1 DUP8 MUL PUSH1 0x2 SUB DUP2 MUL SWAP1 POP DUP1 DUP6 MUL SWAP6 POP POP POP POP POP POP JUMPDEST SWAP4 SWAP3 POP POP POP JUMP JUMPDEST PUSH1 0x0 DUP1 PUSH2 0x26B2 DUP8 PUSH2 0x32B7 JUMP JUMPDEST POP SWAP3 POP POP SWAP2 POP PUSH2 0x26C3 DUP8 PUSH1 0x0 PUSH2 0x24C8 JUMP JUMPDEST ISZERO PUSH2 0x2762 JUMPI PUSH2 0x26F0 PUSH2 0x26EB DUP8 PUSH1 0x0 ADD MLOAD PUSH16 0xFFFFFFFFFFFFFFFFFFFFFFFFFFFFFFFF AND DUP8 PUSH2 0x1188 JUMP JUMPDEST PUSH2 0x25A4 JUMP JUMPDEST DUP7 PUSH1 0x20 ADD DUP2 DUP2 MLOAD ADD SWAP2 POP SWAP1 PUSH16 0xFFFFFFFFFFFFFFFFFFFFFFFFFFFFFFFF AND SWAP1 DUP2 PUSH16 0xFFFFFFFFFFFFFFFFFFFFFFFFFFFFFFFF AND DUP2 MSTORE POP POP PUSH1 0x0 DUP7 PUSH1 0x0 ADD SWAP1 PUSH16 0xFFFFFFFFFFFFFFFFFFFFFFFFFFFFFFFF AND SWAP1 DUP2 PUSH16 0xFFFFFFFFFFFFFFFFFFFFFFFFFFFFFFFF AND DUP2 MSTORE POP POP PUSH2 0x2761 DUP8 PUSH1 0x0 PUSH2 0x13A7 JUMP JUMPDEST JUMPDEST PUSH2 0x276D DUP8 PUSH1 0x1 PUSH2 0x24C8 JUMP JUMPDEST ISZERO PUSH2 0x280C JUMPI PUSH2 0x279A PUSH2 0x2795 DUP8 PUSH1 0x40 ADD MLOAD PUSH16 0xFFFFFFFFFFFFFFFFFFFFFFFFFFFFFFFF AND DUP8 PUSH2 0x1220 JUMP JUMPDEST PUSH2 0x25A4 JUMP JUMPDEST DUP7 PUSH1 0x60 ADD DUP2 DUP2 MLOAD ADD SWAP2 POP SWAP1 PUSH16 0xFFFFFFFFFFFFFFFFFFFFFFFFFFFFFFFF AND SWAP1 DUP2 PUSH16 0xFFFFFFFFFFFFFFFFFFFFFFFFFFFFFFFF AND DUP2 MSTORE POP POP PUSH1 0x0 DUP7 PUSH1 0x40 ADD SWAP1 PUSH16 0xFFFFFFFFFFFFFFFFFFFFFFFFFFFFFFFF AND SWAP1 DUP2 PUSH16 0xFFFFFFFFFFFFFFFFFFFFFFFFFFFFFFFF AND DUP2 MSTORE POP POP PUSH2 0x280B DUP8 PUSH1 0x1 PUSH2 0x13A7 JUMP JUMPDEST JUMPDEST DUP6 PUSH1 0xB PUSH1 0x0 DUP10 PUSH1 0x2 SIGNEXTEND PUSH1 0x2 SIGNEXTEND DUP2 MSTORE PUSH1 0x20 ADD SWAP1 DUP2 MSTORE PUSH1 0x20 ADD PUSH1 0x0 KECCAK256 PUSH1 0x0 DUP3 ADD MLOAD DUP2 PUSH1 0x0 ADD PUSH1 0x0 PUSH2 0x100 EXP DUP2 SLOAD DUP2 PUSH16 0xFFFFFFFFFFFFFFFFFFFFFFFFFFFFFFFF MUL NOT AND SWAP1 DUP4 PUSH16 0xFFFFFFFFFFFFFFFFFFFFFFFFFFFFFFFF AND MUL OR SWAP1 SSTORE POP PUSH1 0x20 DUP3 ADD MLOAD DUP2 PUSH1 0x0 ADD PUSH1 0x10 PUSH2 0x100 EXP DUP2 SLOAD DUP2 PUSH16 0xFFFFFFFFFFFFFFFFFFFFFFFFFFFFFFFF MUL NOT AND SWAP1 DUP4 PUSH16 0xFFFFFFFFFFFFFFFFFFFFFFFFFFFFFFFF AND MUL OR SWAP1 SSTORE POP PUSH1 0x40 DUP3 ADD MLOAD DUP2 PUSH1 0x1 ADD PUSH1 0x0 PUSH2 0x100 EXP DUP2 SLOAD DUP2 PUSH16 0xFFFFFFFFFFFFFFFFFFFFFFFFFFFFFFFF MUL NOT AND SWAP1 DUP4 PUSH16 0xFFFFFFFFFFFFFFFFFFFFFFFFFFFFFFFF AND MUL OR SWAP1 SSTORE POP PUSH1 0x60 DUP3 ADD MLOAD DUP2 PUSH1 0x1 ADD PUSH1 0x10 PUSH2 0x100 EXP DUP2 SLOAD DUP2 PUSH16 0xFFFFFFFFFFFFFFFFFFFFFFFFFFFFFFFF MUL NOT AND SWAP1 DUP4 PUSH16 0xFFFFFFFFFFFFFFFFFFFFFFFFFFFFFFFF AND MUL OR SWAP1 SSTORE POP SWAP1 POP POP PUSH1 0x0 DUP1 PUSH1 0x4 SLOAD SWAP1 POP PUSH1 0x0 DUP6 SGT ISZERO PUSH2 0x29D4 JUMPI PUSH1 0x0 PUSH2 0x2942 DUP7 DUP10 PUSH2 0x1188 JUMP JUMPDEST SWAP1 POP PUSH1 0x0 DUP2 GT ISZERO PUSH2 0x2957 JUMPI DUP1 DUP1 PUSH1 0x1 SWAP1 SUB SWAP2 POP POP JUMPDEST PUSH1 0x1 SWAP3 POP DUP1 PUSH1 0x80 DUP8 SWAP1 SHL ADD PUSH1 0xE DUP5 PUSH1 0x2 DUP2 LT PUSH2 0x296F JUMPI INVALID JUMPDEST ADD PUSH1 0x0 DUP8 PUSH1 0x0 SIGNEXTEND PUSH1 0x0 SIGNEXTEND DUP2 MSTORE PUSH1 0x20 ADD SWAP1 DUP2 MSTORE PUSH1 0x20 ADD PUSH1 0x0 KECCAK256 PUSH1 0x0 DUP3 DUP3 SLOAD ADD SWAP3 POP POP DUP2 SWAP1 SSTORE POP DUP1 PUSH1 0x80 DUP8 SWAP1 SHL ADD PUSH1 0x10 DUP5 PUSH1 0x2 DUP2 LT PUSH2 0x29A8 JUMPI INVALID JUMPDEST ADD PUSH1 0x0 DUP7 PUSH1 0x1 SIGNEXTEND PUSH1 0x1 SIGNEXTEND DUP2 MSTORE PUSH1 0x20 ADD SWAP1 DUP2 MSTORE PUSH1 0x20 ADD PUSH1 0x0 KECCAK256 PUSH1 0x0 DUP3 DUP3 SLOAD ADD SWAP3 POP POP DUP2 SWAP1 SSTORE POP DUP6 DUP3 ADD SWAP2 POP POP JUMPDEST PUSH1 0x0 DUP6 SLT ISZERO PUSH2 0x2A87 JUMPI PUSH1 0x0 PUSH2 0x29EC DUP7 PUSH1 0x0 SUB DUP10 PUSH2 0x1188 JUMP JUMPDEST SWAP1 POP PUSH1 0x0 DUP2 GT ISZERO PUSH2 0x2A01 JUMPI DUP1 DUP1 PUSH1 0x1 SWAP1 SUB SWAP2 POP POP JUMPDEST PUSH1 0x1 SWAP3 POP DUP1 PUSH1 0x80 DUP8 PUSH1 0x0 SUB SWAP1 SHL ADD PUSH1 0xE DUP5 PUSH1 0x2 DUP2 LT PUSH2 0x2A1C JUMPI INVALID JUMPDEST ADD PUSH1 0x0 DUP8 PUSH1 0x0 SIGNEXTEND PUSH1 0x0 SIGNEXTEND DUP2 MSTORE PUSH1 0x20 ADD SWAP1 DUP2 MSTORE PUSH1 0x20 ADD PUSH1 0x0 KECCAK256 PUSH1 0x0 DUP3 DUP3 SLOAD SUB SWAP3 POP POP DUP2 SWAP1 SSTORE POP DUP1 PUSH1 0x80 DUP8 PUSH1 0x0 SUB SWAP1 SHL ADD PUSH1 0x10 DUP5 PUSH1 0x2 DUP2 LT PUSH2 0x2A58 JUMPI INVALID JUMPDEST ADD PUSH1 0x0 DUP7 PUSH1 0x1 SIGNEXTEND PUSH1 0x1 SIGNEXTEND DUP2 MSTORE PUSH1 0x20 ADD SWAP1 DUP2 MSTORE PUSH1 0x20 ADD PUSH1 0x0 KECCAK256 PUSH1 0x0 DUP3 DUP3 SLOAD SUB SWAP3 POP POP DUP2 SWAP1 SSTORE POP DUP6 PUSH1 0x0 SUB DUP3 SUB SWAP2 POP POP JUMPDEST PUSH1 0x0 DUP7 SGT ISZERO PUSH2 0x2B1F JUMPI PUSH1 0x0 PUSH2 0x2A9C DUP8 DUP10 PUSH2 0x1220 JUMP JUMPDEST SWAP1 POP PUSH1 0x0 SWAP3 POP DUP1 PUSH1 0x80 DUP9 SWAP1 SHL ADD PUSH1 0xE DUP5 PUSH1 0x2 DUP2 LT PUSH2 0x2AB6 JUMPI INVALID JUMPDEST ADD PUSH1 0x0 DUP8 PUSH1 0x0 SIGNEXTEND PUSH1 0x0 SIGNEXTEND DUP2 MSTORE PUSH1 0x20 ADD SWAP1 DUP2 MSTORE PUSH1 0x20 ADD PUSH1 0x0 KECCAK256 PUSH1 0x0 DUP3 DUP3 SLOAD ADD SWAP3 POP POP DUP2 SWAP1 SSTORE POP DUP1 PUSH1 0x80 DUP9 SWAP1 SHL ADD PUSH1 0x10 DUP5 PUSH1 0x2 DUP2 LT PUSH2 0x2AEF JUMPI INVALID JUMPDEST ADD PUSH1 0x0 DUP7 PUSH1 0x1 SIGNEXTEND PUSH1 0x1 SIGNEXTEND DUP2 MSTORE PUSH1 0x20 ADD SWAP1 DUP2 MSTORE PUSH1 0x20 ADD PUSH1 0x0 KECCAK256 PUSH1 0x0 DUP3 DUP3 SLOAD ADD SWAP3 POP POP DUP2 SWAP1 SSTORE POP PUSH1 0x80 DUP8 SWAP1 SHL DUP3 ADD SWAP2 POP POP JUMPDEST PUSH1 0x0 DUP7 SLT ISZERO PUSH2 0x2BC3 JUMPI PUSH1 0x0 PUSH2 0x2B37 DUP8 PUSH1 0x0 SUB DUP10 PUSH2 0x1220 JUMP JUMPDEST SWAP1 POP PUSH1 0x0 SWAP3 POP DUP1 PUSH1 0x80 DUP9 PUSH1 0x0 SUB SWAP1 SHL ADD PUSH1 0xE DUP5 PUSH1 0x2 DUP2 LT PUSH2 0x2B54 JUMPI INVALID JUMPDEST ADD PUSH1 0x0 DUP8 PUSH1 0x0 SIGNEXTEND PUSH1 0x0 SIGNEXTEND DUP2 MSTORE PUSH1 0x20 ADD SWAP1 DUP2 MSTORE PUSH1 0x20 ADD PUSH1 0x0 KECCAK256 PUSH1 0x0 DUP3 DUP3 SLOAD SUB SWAP3 POP POP DUP2 SWAP1 SSTORE POP DUP1 PUSH1 0x80 DUP9 PUSH1 0x0 SUB SWAP1 SHL ADD PUSH1 0x10 DUP5 PUSH1 0x2 DUP2 LT PUSH2 0x2B90 JUMPI INVALID JUMPDEST ADD PUSH1 0x0 DUP7 PUSH1 0x1 SIGNEXTEND PUSH1 0x1 SIGNEXTEND DUP2 MSTORE PUSH1 0x20 ADD SWAP1 DUP2 MSTORE PUSH1 0x20 ADD PUSH1 0x0 KECCAK256 PUSH1 0x0 DUP3 DUP3 SLOAD SUB SWAP3 POP POP DUP2 SWAP1 SSTORE POP PUSH1 0x80 DUP8 PUSH1 0x0 SUB SWAP1 SHL DUP3 SUB SWAP2 POP POP JUMPDEST PUSH1 0x4 SLOAD DUP2 EQ PUSH2 0x2BD4 JUMPI DUP1 PUSH1 0x4 DUP2 SWAP1 SSTORE POP JUMPDEST PUSH1 0x0 DUP9 PUSH1 0x0 ADD MLOAD PUSH16 0xFFFFFFFFFFFFFFFFFFFFFFFFFFFFFFFF AND EQ DUP1 ISZERO PUSH2 0x2C10 JUMPI POP PUSH1 0x0 DUP9 PUSH1 0x40 ADD MLOAD PUSH16 0xFFFFFFFFFFFFFFFFFFFFFFFFFFFFFFFF AND EQ JUMPDEST ISZERO PUSH2 0x2C31 JUMPI PUSH2 0x2C2C DUP10 PUSH1 0x0 PUSH1 0x12 PUSH2 0x3D96 SWAP1 SWAP3 SWAP2 SWAP1 PUSH4 0xFFFFFFFF AND JUMP JUMPDEST PUSH2 0x2C49 JUMP JUMPDEST PUSH2 0x2C48 DUP10 PUSH1 0x1 PUSH1 0x12 PUSH2 0x3D96 SWAP1 SWAP3 SWAP2 SWAP1 PUSH4 0xFFFFFFFF AND JUMP JUMPDEST JUMPDEST POP POP POP POP POP POP POP POP POP JUMP JUMPDEST DUP3 PUSH1 0x2 SIGNEXTEND DUP3 PUSH1 0x2 SIGNEXTEND SLT ISZERO PUSH2 0x2C67 JUMPI PUSH1 0x0 DUP1 REVERT JUMPDEST PUSH1 0x0 DUP1 PUSH1 0x0 DUP1 PUSH2 0x2C76 DUP8 PUSH2 0x32B7 JUMP JUMPDEST SWAP4 POP SWAP4 POP SWAP4 POP SWAP4 POP PUSH1 0x0 DUP1 PUSH1 0x0 PUSH2 0x2C8C DUP10 PUSH2 0x32B7 JUMP JUMPDEST SWAP4 POP POP SWAP3 POP SWAP3 POP DUP7 PUSH1 0x0 SIGNEXTEND DUP4 PUSH1 0x0 SIGNEXTEND SGT ISZERO PUSH2 0x2DC9 JUMPI PUSH2 0x2CB9 DUP11 PUSH1 0x1 PUSH2 0x2CB2 DUP14 PUSH1 0x1 PUSH2 0x3E5D JUMP JUMPDEST SUB DUP11 PUSH2 0x2C54 JUMP JUMPDEST PUSH1 0x1 DUP8 ADD PUSH1 0x0 SIGNEXTEND DUP4 PUSH1 0x0 SIGNEXTEND SGT ISZERO PUSH2 0x2DAC JUMPI PUSH20 0x0 PUSH4 0x4033822A PUSH1 0x5 DUP11 PUSH1 0x2 DUP2 LT PUSH2 0x2CF1 JUMPI INVALID JUMPDEST ADD SLOAD PUSH2 0x2CFF PUSH1 0x1 DUP12 ADD PUSH2 0x3300 JUMP JUMPDEST PUSH2 0x2D0B PUSH1 0x1 DUP9 SUB PUSH2 0x3300 JUMP JUMPDEST PUSH1 0x1 PUSH1 0x40 MLOAD DUP6 PUSH4 0xFFFFFFFF AND PUSH1 0xE0 SHL DUP2 MSTORE PUSH1 0x4 ADD DUP1 DUP6 DUP2 MSTORE PUSH1 0x20 ADD DUP5 PUSH1 0xFF AND DUP2 MSTORE PUSH1 0x20 ADD DUP4 PUSH1 0xFF AND DUP2 MSTORE PUSH1 0x20 ADD DUP3 ISZERO ISZERO DUP2 MSTORE PUSH1 0x20 ADD SWAP5 POP POP POP POP POP PUSH1 0x20 PUSH1 0x40 MLOAD DUP1 DUP4 SUB DUP2 DUP7 DUP1 EXTCODESIZE ISZERO DUP1 ISZERO PUSH2 0x2D5E JUMPI PUSH1 0x0 DUP1 REVERT JUMPDEST POP GAS DELEGATECALL ISZERO DUP1 ISZERO PUSH2 0x2D72 JUMPI RETURNDATASIZE PUSH1 0x0 DUP1 RETURNDATACOPY RETURNDATASIZE PUSH1 0x0 REVERT JUMPDEST POP POP POP POP PUSH1 0x40 MLOAD RETURNDATASIZE PUSH1 0x20 DUP2 LT ISZERO PUSH2 0x2D88 JUMPI PUSH1 0x0 DUP1 REVERT JUMPDEST DUP2 ADD SWAP1 DUP1 DUP1 MLOAD SWAP1 PUSH1 0x20 ADD SWAP1 SWAP3 SWAP2 SWAP1 POP POP POP PUSH1 0x5 DUP10 PUSH1 0x2 DUP2 LT PUSH2 0x2DA6 JUMPI INVALID JUMPDEST ADD DUP2 SWAP1 SSTORE POP JUMPDEST PUSH2 0x2DC4 PUSH1 0x1 PUSH2 0x2DBC DUP12 PUSH1 0x0 PUSH2 0x3E5D JUMP JUMPDEST ADD DUP11 DUP11 PUSH2 0x2C54 JUMP JUMPDEST PUSH2 0x3018 JUMP JUMPDEST DUP6 PUSH1 0xFF AND DUP3 PUSH1 0xFF AND GT ISZERO PUSH2 0x2F1D JUMPI PUSH2 0x2DEF DUP11 PUSH1 0x1 PUSH2 0x2DE8 DUP14 PUSH1 0x1 PUSH2 0x3EC2 JUMP JUMPDEST SUB DUP11 PUSH2 0x2C54 JUMP JUMPDEST PUSH1 0x1 DUP7 ADD PUSH1 0xFF AND DUP3 PUSH1 0xFF AND GT ISZERO PUSH2 0x2F00 JUMPI PUSH20 0x0 PUSH4 0x4033822A PUSH1 0x7 DUP11 PUSH1 0x2 DUP2 LT PUSH2 0x2E27 JUMPI INVALID JUMPDEST ADD PUSH1 0x0 DUP11 PUSH1 0x0 SIGNEXTEND PUSH1 0x0 SIGNEXTEND DUP2 MSTORE PUSH1 0x20 ADD SWAP1 DUP2 MSTORE PUSH1 0x20 ADD PUSH1 0x0 KECCAK256 SLOAD PUSH1 0x1 DUP10 ADD PUSH1 0x1 DUP7 SUB PUSH1 0x1 PUSH1 0x40 MLOAD DUP6 PUSH4 0xFFFFFFFF AND PUSH1 0xE0 SHL DUP2 MSTORE PUSH1 0x4 ADD DUP1 DUP6 DUP2 MSTORE PUSH1 0x20 ADD DUP5 PUSH1 0xFF AND DUP2 MSTORE PUSH1 0x20 ADD DUP4 PUSH1 0xFF AND DUP2 MSTORE PUSH1 0x20 ADD DUP3 ISZERO ISZERO DUP2 MSTORE PUSH1 0x20 ADD SWAP5 POP POP POP POP POP PUSH1 0x20 PUSH1 0x40 MLOAD DUP1 DUP4 SUB DUP2 DUP7 DUP1 EXTCODESIZE ISZERO DUP1 ISZERO PUSH2 0x2E9B JUMPI PUSH1 0x0 DUP1 REVERT JUMPDEST POP GAS DELEGATECALL ISZERO DUP1 ISZERO PUSH2 0x2EAF JUMPI RETURNDATASIZE PUSH1 0x0 DUP1 RETURNDATACOPY RETURNDATASIZE PUSH1 0x0 REVERT JUMPDEST POP POP POP POP PUSH1 0x40 MLOAD RETURNDATASIZE PUSH1 0x20 DUP2 LT ISZERO PUSH2 0x2EC5 JUMPI PUSH1 0x0 DUP1 REVERT JUMPDEST DUP2 ADD SWAP1 DUP1 DUP1 MLOAD SWAP1 PUSH1 0x20 ADD SWAP1 SWAP3 SWAP2 SWAP1 POP POP POP PUSH1 0x7 DUP10 PUSH1 0x2 DUP2 LT PUSH2 0x2EE3 JUMPI INVALID JUMPDEST ADD PUSH1 0x0 DUP10 PUSH1 0x0 SIGNEXTEND PUSH1 0x0 SIGNEXTEND DUP2 MSTORE PUSH1 0x20 ADD SWAP1 DUP2 MSTORE PUSH1 0x20 ADD PUSH1 0x0 KECCAK256 DUP2 SWAP1 SSTORE POP JUMPDEST PUSH2 0x2F18 PUSH1 0x1 PUSH2 0x2F10 DUP12 PUSH1 0x0 PUSH2 0x3EC2 JUMP JUMPDEST ADD DUP11 DUP11 PUSH2 0x2C54 JUMP JUMPDEST PUSH2 0x3017 JUMP JUMPDEST PUSH20 0x0 PUSH4 0x4033822A PUSH1 0x9 DUP11 PUSH1 0x2 DUP2 LT PUSH2 0x2F44 JUMPI INVALID JUMPDEST ADD PUSH1 0x0 DUP9 PUSH1 0x1 SIGNEXTEND PUSH1 0x1 SIGNEXTEND DUP2 MSTORE PUSH1 0x20 ADD SWAP1 DUP2 MSTORE PUSH1 0x20 ADD PUSH1 0x0 KECCAK256 SLOAD DUP7 DUP5 PUSH1 0x1 PUSH1 0x40 MLOAD DUP6 PUSH4 0xFFFFFFFF AND PUSH1 0xE0 SHL DUP2 MSTORE PUSH1 0x4 ADD DUP1 DUP6 DUP2 MSTORE PUSH1 0x20 ADD DUP5 PUSH1 0xFF AND DUP2 MSTORE PUSH1 0x20 ADD DUP4 PUSH1 0xFF AND DUP2 MSTORE PUSH1 0x20 ADD DUP3 ISZERO ISZERO DUP2 MSTORE PUSH1 0x20 ADD SWAP5 POP POP POP POP POP PUSH1 0x20 PUSH1 0x40 MLOAD DUP1 DUP4 SUB DUP2 DUP7 DUP1 EXTCODESIZE ISZERO DUP1 ISZERO PUSH2 0x2FB2 JUMPI PUSH1 0x0 DUP1 REVERT JUMPDEST POP GAS DELEGATECALL ISZERO DUP1 ISZERO PUSH2 0x2FC6 JUMPI RETURNDATASIZE PUSH1 0x0 DUP1 RETURNDATACOPY RETURNDATASIZE PUSH1 0x0 REVERT JUMPDEST POP POP POP POP PUSH1 0x40 MLOAD RETURNDATASIZE PUSH1 0x20 DUP2 LT ISZERO PUSH2 0x2FDC JUMPI PUSH1 0x0 DUP1 REVERT JUMPDEST DUP2 ADD SWAP1 DUP1 DUP1 MLOAD SWAP1 PUSH1 0x20 ADD SWAP1 SWAP3 SWAP2 SWAP1 POP POP POP PUSH1 0x9 DUP10 PUSH1 0x2 DUP2 LT PUSH2 0x2FFA JUMPI INVALID JUMPDEST ADD PUSH1 0x0 DUP8 PUSH1 0x1 SIGNEXTEND PUSH1 0x1 SIGNEXTEND DUP2 MSTORE PUSH1 0x20 ADD SWAP1 DUP2 MSTORE PUSH1 0x20 ADD PUSH1 0x0 KECCAK256 DUP2 SWAP1 SSTORE POP JUMPDEST JUMPDEST POP POP POP POP POP POP POP POP POP POP JUMP JUMPDEST PUSH1 0x0 DUP4 PUSH20 0xFFFFFFFFFFFFFFFFFFFFFFFFFFFFFFFFFFFFFFFF AND DUP6 PUSH20 0xFFFFFFFFFFFFFFFFFFFFFFFFFFFFFFFFFFFFFFFF AND GT ISZERO PUSH2 0x3065 JUMPI DUP4 DUP6 DUP1 SWAP6 POP DUP2 SWAP7 POP POP POP JUMPDEST DUP2 PUSH2 0x30B1 JUMPI PUSH2 0x30AC DUP4 PUSH16 0xFFFFFFFFFFFFFFFFFFFFFFFFFFFFFFFF AND DUP7 DUP7 SUB PUSH20 0xFFFFFFFFFFFFFFFFFFFFFFFFFFFFFFFFFFFFFFFF AND PUSH13 0x1000000000000000000000000 PUSH2 0x25CC JUMP JUMPDEST PUSH2 0x30F4 JUMP JUMPDEST PUSH2 0x30F3 DUP4 PUSH16 0xFFFFFFFFFFFFFFFFFFFFFFFFFFFFFFFF AND DUP7 DUP7 SUB PUSH20 0xFFFFFFFFFFFFFFFFFFFFFFFFFFFFFFFFFFFFFFFF AND PUSH13 0x1000000000000000000000000 PUSH2 0x1F93 JUMP JUMPDEST JUMPDEST SWAP1 POP SWAP5 SWAP4 POP POP POP POP JUMP JUMPDEST PUSH1 0x0 DUP4 PUSH20 0xFFFFFFFFFFFFFFFFFFFFFFFFFFFFFFFFFFFFFFFF AND DUP6 PUSH20 0xFFFFFFFFFFFFFFFFFFFFFFFFFFFFFFFFFFFFFFFF AND GT ISZERO PUSH2 0x313F JUMPI DUP4 DUP6 DUP1 SWAP6 POP DUP2 SWAP7 POP POP POP JUMPDEST PUSH1 0x0 PUSH1 0x60 PUSH1 0xFF AND DUP5 PUSH16 0xFFFFFFFFFFFFFFFFFFFFFFFFFFFFFFFF AND SWAP1 SHL SWAP1 POP PUSH1 0x0 DUP7 DUP7 SUB PUSH20 0xFFFFFFFFFFFFFFFFFFFFFFFFFFFFFFFFFFFFFFFF AND SWAP1 POP PUSH1 0x0 DUP8 PUSH20 0xFFFFFFFFFFFFFFFFFFFFFFFFFFFFFFFFFFFFFFFF AND GT PUSH2 0x319D JUMPI PUSH1 0x0 DUP1 REVERT JUMPDEST DUP4 PUSH2 0x31E7 JUMPI DUP7 PUSH20 0xFFFFFFFFFFFFFFFFFFFFFFFFFFFFFFFFFFFFFFFF AND PUSH2 0x31DA DUP4 DUP4 DUP10 PUSH20 0xFFFFFFFFFFFFFFFFFFFFFFFFFFFFFFFFFFFFFFFF AND PUSH2 0x25CC JUMP JUMPDEST DUP2 PUSH2 0x31E1 JUMPI INVALID JUMPDEST DIV PUSH2 0x3228 JUMP JUMPDEST PUSH2 0x3227 PUSH2 0x320B DUP4 DUP4 DUP10 PUSH20 0xFFFFFFFFFFFFFFFFFFFFFFFFFFFFFFFFFFFFFFFF AND PUSH2 0x1F93 JUMP JUMPDEST DUP9 PUSH20 0xFFFFFFFFFFFFFFFFFFFFFFFFFFFFFFFFFFFFFFFF AND PUSH2 0x3EFD JUMP JUMPDEST JUMPDEST SWAP3 POP POP POP SWAP5 SWAP4 POP POP POP POP JUMP JUMPDEST PUSH1 0x0 DUP3 DUP3 DUP5 SUB SWAP2 POP DUP2 GT ISZERO PUSH2 0x32B1 JUMPI PUSH1 0x40 MLOAD PUSH32 0x8C379A000000000000000000000000000000000000000000000000000000000 DUP2 MSTORE PUSH1 0x4 ADD DUP1 DUP1 PUSH1 0x20 ADD DUP3 DUP2 SUB DUP3 MSTORE PUSH1 0x15 DUP2 MSTORE PUSH1 0x20 ADD DUP1 PUSH32 0x64732D6D6174682D7375622D756E646572666C6F770000000000000000000000 DUP2 MSTORE POP PUSH1 0x20 ADD SWAP2 POP POP PUSH1 0x40 MLOAD DUP1 SWAP2 SUB SWAP1 REVERT JUMPDEST SWAP3 SWAP2 POP POP JUMP JUMPDEST PUSH1 0x0 DUP1 PUSH1 0x0 DUP1 PUSH1 0xE DUP6 PUSH1 0x2 SIGNEXTEND SWAP1 SAR SWAP4 POP PUSH1 0x40 PUSH1 0x8 DUP7 PUSH1 0x2 SIGNEXTEND SWAP1 SAR PUSH1 0x2 SIGNEXTEND DUP2 PUSH2 0x32DB JUMPI INVALID JUMPDEST SMOD SWAP3 POP PUSH1 0x8 DUP6 PUSH1 0x2 SIGNEXTEND SWAP1 SAR SWAP2 POP PUSH2 0x100 DUP6 PUSH1 0x2 SIGNEXTEND DUP2 PUSH2 0x32F6 JUMPI INVALID JUMPDEST SMOD SWAP1 POP SWAP2 SWAP4 POP SWAP2 SWAP4 JUMP JUMPDEST PUSH1 0x0 PUSH1 0x7F DUP3 PUSH1 0x0 SIGNEXTEND ADD SWAP1 POP SWAP2 SWAP1 POP JUMP JUMPDEST PUSH1 0x0 DUP1 DUP3 PUSH1 0xFF AND PUSH1 0x1 SWAP1 SHL SWAP1 POP PUSH1 0x0 DUP2 DUP6 AND EQ ISZERO SWAP2 POP POP SWAP3 SWAP2 POP POP JUMP JUMPDEST PUSH1 0x0 DUP2 ISZERO PUSH2 0x3346 JUMPI DUP3 PUSH1 0xFF AND PUSH1 0x1 SWAP1 SHL DUP5 OR SWAP1 POP PUSH2 0x3353 JUMP JUMPDEST DUP3 PUSH1 0xFF AND PUSH1 0x0 SWAP1 SHL DUP5 AND SWAP1 POP JUMPDEST SWAP4 SWAP3 POP POP POP JUMP JUMPDEST PUSH1 0x0 DUP1 PUSH1 0x0 DUP1 PUSH2 0x336D DUP6 PUSH1 0x60 ADD MLOAD PUSH2 0x1FF1 JUMP JUMPDEST SWAP1 POP DUP5 PUSH1 0xC0 ADD MLOAD PUSH2 0x3398 JUMPI PUSH2 0x3393 DUP6 PUSH1 0x40 ADD MLOAD DUP3 PUSH2 0x338C PUSH1 0x3 SLOAD PUSH2 0x25A4 JUMP JUMPDEST PUSH1 0x1 PUSH2 0x30FE JUMP JUMPDEST PUSH2 0x33B4 JUMP JUMPDEST PUSH2 0x33B3 DUP6 PUSH1 0x40 ADD MLOAD DUP3 PUSH2 0x33AC PUSH1 0x3 SLOAD PUSH2 0x25A4 JUMP JUMPDEST PUSH1 0x1 PUSH2 0x3024 JUMP JUMPDEST JUMPDEST SWAP2 POP DUP2 DUP6 PUSH1 0xA0 ADD MLOAD ADD DUP6 PUSH1 0x0 ADD MLOAD GT ISZERO PUSH2 0x3436 JUMPI DUP2 DUP6 PUSH1 0xA0 ADD MLOAD ADD DUP6 PUSH1 0x0 ADD MLOAD SUB DUP6 PUSH1 0x0 ADD DUP2 DUP2 MSTORE POP POP PUSH1 0x0 DUP6 PUSH1 0xC0 ADD MLOAD PUSH2 0x3409 JUMPI PUSH2 0x3404 DUP7 PUSH1 0x40 ADD MLOAD DUP4 PUSH2 0x33FD PUSH1 0x3 SLOAD PUSH2 0x25A4 JUMP JUMPDEST PUSH1 0x0 PUSH2 0x3024 JUMP JUMPDEST PUSH2 0x3425 JUMP JUMPDEST PUSH2 0x3424 DUP7 PUSH1 0x40 ADD MLOAD DUP4 PUSH2 0x341D PUSH1 0x3 SLOAD PUSH2 0x25A4 JUMP JUMPDEST PUSH1 0x0 PUSH2 0x30FE JUMP JUMPDEST JUMPDEST SWAP1 POP DUP6 PUSH1 0x80 ADD MLOAD DUP2 ADD SWAP4 POP PUSH1 0x1 SWAP5 POP POP JUMPDEST POP SWAP2 SWAP4 SWAP1 SWAP3 POP JUMP JUMPDEST PUSH2 0x3446 PUSH2 0x562D JUMP JUMPDEST PUSH1 0x0 DUP3 PUSH1 0x60 ADD MLOAD SWAP1 POP PUSH2 0x3472 DUP4 PUSH1 0x60 ADD MLOAD PUSH2 0x3462 PUSH1 0x3 SLOAD PUSH2 0x25A4 JUMP JUMPDEST DUP6 PUSH1 0x0 ADD MLOAD DUP7 PUSH1 0xA0 ADD MLOAD ISZERO PUSH2 0x3F10 JUMP JUMPDEST DUP4 PUSH1 0x60 ADD SWAP1 PUSH20 0xFFFFFFFFFFFFFFFFFFFFFFFFFFFFFFFFFFFFFFFF AND SWAP1 DUP2 PUSH20 0xFFFFFFFFFFFFFFFFFFFFFFFFFFFFFFFFFFFFFFFF AND DUP2 MSTORE POP POP PUSH2 0x34B6 DUP4 PUSH1 0x60 ADD MLOAD PUSH2 0x1833 JUMP JUMPDEST DUP4 PUSH1 0x80 ADD SWAP1 PUSH1 0x2 SIGNEXTEND SWAP1 DUP2 PUSH1 0x2 SIGNEXTEND DUP2 MSTORE POP POP PUSH3 0x7FFFFF DUP4 PUSH1 0xC0 ADD MLOAD PUSH1 0x2 SIGNEXTEND EQ ISZERO DUP1 ISZERO PUSH2 0x3508 JUMPI POP PUSH32 0xFFFFFFFFFFFFFFFFFFFFFFFFFFFFFFFFFFFFFFFFFFFFFFFFFFFFFFFFFF800001 DUP4 PUSH1 0xC0 ADD MLOAD PUSH1 0x2 SIGNEXTEND EQ ISZERO JUMPDEST ISZERO PUSH2 0x361A JUMPI DUP3 PUSH1 0xA0 ADD MLOAD DUP1 ISZERO PUSH2 0x352B JUMPI POP DUP3 PUSH1 0xC0 ADD MLOAD PUSH1 0x2 SIGNEXTEND DUP4 PUSH1 0x80 ADD MLOAD PUSH1 0x2 SIGNEXTEND SGT JUMPDEST DUP1 PUSH2 0x3551 JUMPI POP DUP3 PUSH1 0xA0 ADD MLOAD ISZERO DUP1 ISZERO PUSH2 0x3550 JUMPI POP DUP3 PUSH1 0xC0 ADD MLOAD PUSH1 0x2 SIGNEXTEND DUP4 PUSH1 0x80 ADD MLOAD PUSH1 0x2 SIGNEXTEND SLT JUMPDEST JUMPDEST ISZERO PUSH2 0x3609 JUMPI PUSH2 0x3563 DUP4 PUSH1 0xC0 ADD MLOAD PUSH2 0x1FF1 JUMP JUMPDEST DUP4 PUSH1 0x60 ADD SWAP1 PUSH20 0xFFFFFFFFFFFFFFFFFFFFFFFFFFFFFFFFFFFFFFFF AND SWAP1 DUP2 PUSH20 0xFFFFFFFFFFFFFFFFFFFFFFFFFFFFFFFFFFFFFFFF AND DUP2 MSTORE POP POP DUP3 PUSH1 0xA0 ADD MLOAD PUSH2 0x35C3 JUMPI PUSH2 0x35BE DUP2 DUP5 PUSH1 0x60 ADD MLOAD PUSH2 0x35B7 PUSH1 0x3 SLOAD PUSH2 0x25A4 JUMP JUMPDEST PUSH1 0x1 PUSH2 0x30FE JUMP JUMPDEST PUSH2 0x35DF JUMP JUMPDEST PUSH2 0x35DE DUP2 DUP5 PUSH1 0x60 ADD MLOAD PUSH2 0x35D7 PUSH1 0x3 SLOAD PUSH2 0x25A4 JUMP JUMPDEST PUSH1 0x1 PUSH2 0x3024 JUMP JUMPDEST JUMPDEST DUP4 PUSH1 0x0 ADD DUP2 DUP2 MLOAD SUB SWAP2 POP DUP2 DUP2 MSTORE POP POP DUP3 PUSH1 0xC0 ADD MLOAD DUP4 PUSH1 0x80 ADD SWAP1 PUSH1 0x2 SIGNEXTEND SWAP1 DUP2 PUSH1 0x2 SIGNEXTEND DUP2 MSTORE POP POP PUSH2 0x3615 JUMP JUMPDEST PUSH1 0x0 DUP4 PUSH1 0x0 ADD DUP2 DUP2 MSTORE POP POP JUMPDEST PUSH2 0x3626 JUMP JUMPDEST PUSH1 0x0 DUP4 PUSH1 0x0 ADD DUP2 DUP2 MSTORE POP POP JUMPDEST DUP3 PUSH1 0xA0 ADD MLOAD PUSH2 0x364F JUMPI PUSH2 0x364A DUP2 DUP5 PUSH1 0x60 ADD MLOAD PUSH2 0x3643 PUSH1 0x3 SLOAD PUSH2 0x25A4 JUMP JUMPDEST PUSH1 0x0 PUSH2 0x3024 JUMP JUMPDEST PUSH2 0x366B JUMP JUMPDEST PUSH2 0x366A DUP2 DUP5 PUSH1 0x60 ADD MLOAD PUSH2 0x3663 PUSH1 0x3 SLOAD PUSH2 0x25A4 JUMP JUMPDEST PUSH1 0x0 PUSH2 0x30FE JUMP JUMPDEST JUMPDEST DUP4 PUSH1 0x20 ADD DUP2 DUP2 MLOAD ADD SWAP2 POP DUP2 DUP2 MSTORE POP POP DUP3 SWAP2 POP POP SWAP2 SWAP1 POP JUMP JUMPDEST PUSH2 0x368B PUSH2 0x562D JUMP JUMPDEST PUSH2 0x3693 PUSH2 0x5688 JUMP JUMPDEST PUSH1 0x0 DUP4 PUSH1 0x0 ADD MLOAD SWAP1 POP DUP4 PUSH1 0x80 ADD MLOAD PUSH1 0x2 SIGNEXTEND DUP5 PUSH1 0xC0 ADD MLOAD PUSH1 0x2 SIGNEXTEND EQ ISZERO PUSH2 0x3810 JUMPI DUP4 PUSH1 0xB PUSH1 0x0 DUP7 PUSH1 0x80 ADD MLOAD PUSH1 0x2 SIGNEXTEND PUSH1 0x2 SIGNEXTEND DUP2 MSTORE PUSH1 0x20 ADD SWAP1 DUP2 MSTORE PUSH1 0x20 ADD PUSH1 0x0 KECCAK256 DUP1 PUSH1 0x40 MLOAD DUP1 PUSH1 0x80 ADD PUSH1 0x40 MSTORE SWAP1 DUP2 PUSH1 0x0 DUP3 ADD PUSH1 0x0 SWAP1 SLOAD SWAP1 PUSH2 0x100 EXP SWAP1 DIV PUSH16 0xFFFFFFFFFFFFFFFFFFFFFFFFFFFFFFFF AND PUSH16 0xFFFFFFFFFFFFFFFFFFFFFFFFFFFFFFFF AND PUSH16 0xFFFFFFFFFFFFFFFFFFFFFFFFFFFFFFFF AND DUP2 MSTORE PUSH1 0x20 ADD PUSH1 0x0 DUP3 ADD PUSH1 0x10 SWAP1 SLOAD SWAP1 PUSH2 0x100 EXP SWAP1 DIV PUSH16 0xFFFFFFFFFFFFFFFFFFFFFFFFFFFFFFFF AND PUSH16 0xFFFFFFFFFFFFFFFFFFFFFFFFFFFFFFFF AND PUSH16 0xFFFFFFFFFFFFFFFFFFFFFFFFFFFFFFFF AND DUP2 MSTORE PUSH1 0x20 ADD PUSH1 0x1 DUP3 ADD PUSH1 0x0 SWAP1 SLOAD SWAP1 PUSH2 0x100 EXP SWAP1 DIV PUSH16 0xFFFFFFFFFFFFFFFFFFFFFFFFFFFFFFFF AND PUSH16 0xFFFFFFFFFFFFFFFFFFFFFFFFFFFFFFFF AND PUSH16 0xFFFFFFFFFFFFFFFFFFFFFFFFFFFFFFFF AND DUP2 MSTORE PUSH1 0x20 ADD PUSH1 0x1 DUP3 ADD PUSH1 0x10 SWAP1 SLOAD SWAP1 PUSH2 0x100 EXP SWAP1 DIV PUSH16 0xFFFFFFFFFFFFFFFFFFFFFFFFFFFFFFFF AND PUSH16 0xFFFFFFFFFFFFFFFFFFFFFFFFFFFFFFFF AND PUSH16 0xFFFFFFFFFFFFFFFFFFFFFFFFFFFFFFFF AND DUP2 MSTORE POP POP SWAP1 POP SWAP3 POP SWAP3 POP POP PUSH2 0x3D91 JUMP JUMPDEST PUSH1 0x0 DUP5 PUSH1 0x0 ADD MLOAD EQ ISZERO PUSH2 0x397B JUMPI DUP4 PUSH1 0xB PUSH1 0x0 DUP7 PUSH1 0x80 ADD MLOAD PUSH1 0x2 SIGNEXTEND PUSH1 0x2 SIGNEXTEND DUP2 MSTORE PUSH1 0x20 ADD SWAP1 DUP2 MSTORE PUSH1 0x20 ADD PUSH1 0x0 KECCAK256 DUP1 PUSH1 0x40 MLOAD DUP1 PUSH1 0x80 ADD PUSH1 0x40 MSTORE SWAP1 DUP2 PUSH1 0x0 DUP3 ADD PUSH1 0x0 SWAP1 SLOAD SWAP1 PUSH2 0x100 EXP SWAP1 DIV PUSH16 0xFFFFFFFFFFFFFFFFFFFFFFFFFFFFFFFF AND PUSH16 0xFFFFFFFFFFFFFFFFFFFFFFFFFFFFFFFF AND PUSH16 0xFFFFFFFFFFFFFFFFFFFFFFFFFFFFFFFF AND DUP2 MSTORE PUSH1 0x20 ADD PUSH1 0x0 DUP3 ADD PUSH1 0x10 SWAP1 SLOAD SWAP1 PUSH2 0x100 EXP SWAP1 DIV PUSH16 0xFFFFFFFFFFFFFFFFFFFFFFFFFFFFFFFF AND PUSH16 0xFFFFFFFFFFFFFFFFFFFFFFFFFFFFFFFF AND PUSH16 0xFFFFFFFFFFFFFFFFFFFFFFFFFFFFFFFF AND DUP2 MSTORE PUSH1 0x20 ADD PUSH1 0x1 DUP3 ADD PUSH1 0x0 SWAP1 SLOAD SWAP1 PUSH2 0x100 EXP SWAP1 DIV PUSH16 0xFFFFFFFFFFFFFFFFFFFFFFFFFFFFFFFF AND PUSH16 0xFFFFFFFFFFFFFFFFFFFFFFFFFFFFFFFF AND PUSH16 0xFFFFFFFFFFFFFFFFFFFFFFFFFFFFFFFF AND DUP2 MSTORE PUSH1 0x20 ADD PUSH1 0x1 DUP3 ADD PUSH1 0x10 SWAP1 SLOAD SWAP1 PUSH2 0x100 EXP SWAP1 DIV PUSH16 0xFFFFFFFFFFFFFFFFFFFFFFFFFFFFFFFF AND PUSH16 0xFFFFFFFFFFFFFFFFFFFFFFFFFFFFFFFF AND PUSH16 0xFFFFFFFFFFFFFFFFFFFFFFFFFFFFFFFF AND DUP2 MSTORE POP POP SWAP1 POP SWAP3 POP SWAP3 POP POP PUSH2 0x3D91 JUMP JUMPDEST PUSH2 0x399E DUP5 PUSH1 0x80 ADD MLOAD DUP6 PUSH1 0xA0 ADD MLOAD PUSH2 0x3993 JUMPI PUSH1 0x0 PUSH2 0x3996 JUMP JUMPDEST PUSH1 0x1 JUMPDEST PUSH1 0xFF AND PUSH2 0x24C8 JUMP JUMPDEST PUSH2 0x39ED JUMPI PUSH2 0x39AA PUSH2 0x5688 JUMP JUMPDEST PUSH2 0x39B3 DUP6 PUSH2 0x3F82 JUMP JUMPDEST DUP1 SWAP3 POP DUP2 SWAP7 POP POP POP PUSH1 0x0 DUP6 PUSH1 0x0 ADD MLOAD EQ ISZERO PUSH2 0x39D5 JUMPI DUP5 DUP2 SWAP4 POP SWAP4 POP POP POP PUSH2 0x3D91 JUMP JUMPDEST DUP5 PUSH1 0x0 ADD MLOAD DUP3 SUB DUP6 PUSH1 0x40 ADD DUP2 DUP2 MLOAD ADD SWAP2 POP DUP2 DUP2 MSTORE POP POP POP JUMPDEST DUP4 PUSH1 0xA0 ADD MLOAD DUP1 ISZERO PUSH2 0x3A13 JUMPI POP PUSH1 0xFF PUSH2 0x100 DUP6 PUSH1 0x80 ADD MLOAD PUSH1 0x2 SIGNEXTEND DUP2 PUSH2 0x3A0D JUMPI INVALID JUMPDEST SMOD PUSH1 0x2 SIGNEXTEND EQ JUMPDEST DUP1 PUSH2 0x3A41 JUMPI POP DUP4 PUSH1 0xA0 ADD MLOAD ISZERO DUP1 ISZERO PUSH2 0x3A40 JUMPI POP PUSH1 0x0 PUSH2 0x100 DUP6 PUSH1 0x80 ADD MLOAD PUSH1 0x2 SIGNEXTEND DUP2 PUSH2 0x3A3A JUMPI INVALID JUMPDEST SMOD PUSH1 0x2 SIGNEXTEND EQ JUMPDEST JUMPDEST ISZERO PUSH2 0x3A7D JUMPI PUSH1 0x0 PUSH1 0x1 SWAP1 POP JUMPDEST DUP1 ISZERO PUSH2 0x3A69 JUMPI PUSH2 0x3A5C DUP6 PUSH2 0x463C JUMP JUMPDEST DUP1 SWAP3 POP DUP2 SWAP7 POP POP POP PUSH2 0x3A4D JUMP JUMPDEST PUSH2 0x3A72 DUP6 PUSH2 0x3683 JUMP JUMPDEST SWAP4 POP SWAP4 POP POP POP PUSH2 0x3D91 JUMP JUMPDEST PUSH1 0x0 PUSH2 0x3AB8 DUP6 PUSH1 0xA0 ADD MLOAD PUSH2 0x3A98 JUMPI PUSH1 0x1 DUP7 PUSH1 0x80 ADD MLOAD SUB PUSH2 0x3A9E JUMP JUMPDEST DUP6 PUSH1 0x80 ADD MLOAD JUMPDEST PUSH1 0x1 DUP8 PUSH1 0xA0 ADD MLOAD ISZERO PUSH1 0x12 PUSH2 0x4B1E SWAP1 SWAP4 SWAP3 SWAP2 SWAP1 PUSH4 0xFFFFFFFF AND JUMP JUMPDEST POP SWAP1 POP DUP5 PUSH1 0xA0 ADD MLOAD DUP1 ISZERO PUSH2 0x3AD5 JUMPI POP DUP5 PUSH1 0xC0 ADD MLOAD PUSH1 0x2 SIGNEXTEND DUP2 PUSH1 0x2 SIGNEXTEND SGT JUMPDEST DUP1 PUSH2 0x3AF7 JUMPI POP DUP5 PUSH1 0xA0 ADD MLOAD ISZERO DUP1 ISZERO PUSH2 0x3AF6 JUMPI POP DUP5 PUSH1 0xC0 ADD MLOAD PUSH1 0x2 SIGNEXTEND DUP2 PUSH1 0x2 SIGNEXTEND SLT JUMPDEST JUMPDEST ISZERO PUSH2 0x3B04 JUMPI DUP5 PUSH1 0xC0 ADD MLOAD SWAP1 POP JUMPDEST PUSH1 0x0 DUP1 PUSH1 0x0 PUSH2 0x3B6E PUSH1 0x40 MLOAD DUP1 PUSH1 0xE0 ADD PUSH1 0x40 MSTORE DUP1 DUP11 PUSH1 0x0 ADD MLOAD DUP2 MSTORE PUSH1 0x20 ADD PUSH1 0x0 DUP2 MSTORE PUSH1 0x20 ADD DUP11 PUSH1 0x60 ADD MLOAD PUSH20 0xFFFFFFFFFFFFFFFFFFFFFFFFFFFFFFFFFFFFFFFF AND DUP2 MSTORE PUSH1 0x20 ADD DUP7 PUSH1 0x2 SIGNEXTEND DUP2 MSTORE PUSH1 0x20 ADD PUSH1 0x0 DUP2 MSTORE PUSH1 0x20 ADD PUSH1 0x0 DUP2 MSTORE PUSH1 0x20 ADD DUP11 PUSH1 0xA0 ADD MLOAD ISZERO ISZERO DUP2 MSTORE POP PUSH2 0x335A JUMP JUMPDEST SWAP3 POP SWAP3 POP SWAP3 POP DUP3 ISZERO PUSH2 0x3C03 JUMPI DUP1 DUP9 PUSH1 0x0 ADD DUP2 DUP2 MLOAD SUB SWAP2 POP DUP2 DUP2 MSTORE POP POP DUP2 DUP9 PUSH1 0x20 ADD DUP2 DUP2 MLOAD ADD SWAP2 POP DUP2 DUP2 MSTORE POP POP PUSH2 0x3BA3 DUP5 PUSH2 0x1FF1 JUMP JUMPDEST DUP9 PUSH1 0x60 ADD SWAP1 PUSH20 0xFFFFFFFFFFFFFFFFFFFFFFFFFFFFFFFFFFFFFFFF AND SWAP1 DUP2 PUSH20 0xFFFFFFFFFFFFFFFFFFFFFFFFFFFFFFFFFFFFFFFF AND DUP2 MSTORE POP POP DUP4 DUP9 PUSH1 0x80 ADD SWAP1 PUSH1 0x2 SIGNEXTEND SWAP1 DUP2 PUSH1 0x2 SIGNEXTEND DUP2 MSTORE POP POP PUSH2 0x3BF5 DUP9 PUSH2 0x3683 JUMP JUMPDEST SWAP7 POP SWAP7 POP POP POP POP POP POP PUSH2 0x3D91 JUMP JUMPDEST PUSH2 0x3C0C DUP9 PUSH2 0x343E JUMP JUMPDEST SWAP8 POP PUSH1 0x0 DUP9 PUSH1 0x0 ADD DUP2 DUP2 MSTORE POP POP PUSH2 0x3C26 DUP9 PUSH1 0x60 ADD MLOAD PUSH2 0x1833 JUMP JUMPDEST DUP9 PUSH1 0x80 ADD SWAP1 PUSH1 0x2 SIGNEXTEND SWAP1 DUP2 PUSH1 0x2 SIGNEXTEND DUP2 MSTORE POP POP DUP8 PUSH1 0xB PUSH1 0x0 DUP7 PUSH1 0x2 SIGNEXTEND PUSH1 0x2 SIGNEXTEND DUP2 MSTORE PUSH1 0x20 ADD SWAP1 DUP2 MSTORE PUSH1 0x20 ADD PUSH1 0x0 KECCAK256 DUP1 PUSH1 0x40 MLOAD DUP1 PUSH1 0x80 ADD PUSH1 0x40 MSTORE SWAP1 DUP2 PUSH1 0x0 DUP3 ADD PUSH1 0x0 SWAP1 SLOAD SWAP1 PUSH2 0x100 EXP SWAP1 DIV PUSH16 0xFFFFFFFFFFFFFFFFFFFFFFFFFFFFFFFF AND PUSH16 0xFFFFFFFFFFFFFFFFFFFFFFFFFFFFFFFF AND PUSH16 0xFFFFFFFFFFFFFFFFFFFFFFFFFFFFFFFF AND DUP2 MSTORE PUSH1 0x20 ADD PUSH1 0x0 DUP3 ADD PUSH1 0x10 SWAP1 SLOAD SWAP1 PUSH2 0x100 EXP SWAP1 DIV PUSH16 0xFFFFFFFFFFFFFFFFFFFFFFFFFFFFFFFF AND PUSH16 0xFFFFFFFFFFFFFFFFFFFFFFFFFFFFFFFF AND PUSH16 0xFFFFFFFFFFFFFFFFFFFFFFFFFFFFFFFF AND DUP2 MSTORE PUSH1 0x20 ADD PUSH1 0x1 DUP3 ADD PUSH1 0x0 SWAP1 SLOAD SWAP1 PUSH2 0x100 EXP SWAP1 DIV PUSH16 0xFFFFFFFFFFFFFFFFFFFFFFFFFFFFFFFF AND PUSH16 0xFFFFFFFFFFFFFFFFFFFFFFFFFFFFFFFF AND PUSH16 0xFFFFFFFFFFFFFFFFFFFFFFFFFFFFFFFF AND DUP2 MSTORE PUSH1 0x20 ADD PUSH1 0x1 DUP3 ADD PUSH1 0x10 SWAP1 SLOAD SWAP1 PUSH2 0x100 EXP SWAP1 DIV PUSH16 0xFFFFFFFFFFFFFFFFFFFFFFFFFFFFFFFF AND PUSH16 0xFFFFFFFFFFFFFFFFFFFFFFFFFFFFFFFF AND PUSH16 0xFFFFFFFFFFFFFFFFFFFFFFFFFFFFFFFF AND DUP2 MSTORE POP POP SWAP1 POP SWAP7 POP SWAP7 POP POP POP POP POP POP JUMPDEST SWAP2 POP SWAP2 JUMP JUMPDEST PUSH1 0x0 PUSH1 0x1 SWAP1 POP PUSH1 0x0 DUP2 PUSH1 0x2 SIGNEXTEND DUP5 PUSH1 0x2 SIGNEXTEND DUP2 PUSH2 0x3DAD JUMPI INVALID JUMPDEST SMOD PUSH1 0x2 SIGNEXTEND EQ PUSH2 0x3DBB JUMPI PUSH1 0x0 DUP1 REVERT JUMPDEST PUSH1 0x0 DUP1 PUSH2 0x3DD6 DUP4 PUSH1 0x2 SIGNEXTEND DUP7 PUSH1 0x2 SIGNEXTEND DUP2 PUSH2 0x3DD0 JUMPI INVALID JUMPDEST SDIV PUSH2 0x4C76 JUMP JUMPDEST SWAP2 POP SWAP2 POP PUSH1 0x0 DUP2 PUSH1 0xFF AND PUSH1 0x1 SWAP1 SHL SWAP1 POP PUSH1 0x0 DUP8 PUSH1 0x0 DUP6 PUSH1 0x1 SIGNEXTEND PUSH1 0x1 SIGNEXTEND DUP2 MSTORE PUSH1 0x20 ADD SWAP1 DUP2 MSTORE PUSH1 0x20 ADD PUSH1 0x0 KECCAK256 SLOAD SWAP1 POP DUP2 DUP2 AND DUP2 SUB SWAP1 POP DUP6 ISZERO PUSH2 0x3E16 JUMPI DUP2 DUP2 ADD SWAP1 POP JUMPDEST DUP8 PUSH1 0x0 DUP6 PUSH1 0x1 SIGNEXTEND PUSH1 0x1 SIGNEXTEND DUP2 MSTORE PUSH1 0x20 ADD SWAP1 DUP2 MSTORE PUSH1 0x20 ADD PUSH1 0x0 KECCAK256 SLOAD DUP2 EQ PUSH2 0x3E53 JUMPI DUP1 DUP9 PUSH1 0x0 DUP7 PUSH1 0x1 SIGNEXTEND PUSH1 0x1 SIGNEXTEND DUP2 MSTORE PUSH1 0x20 ADD SWAP1 DUP2 MSTORE PUSH1 0x20 ADD PUSH1 0x0 KECCAK256 DUP2 SWAP1 SSTORE POP JUMPDEST POP POP POP POP POP POP POP POP JUMP JUMPDEST PUSH1 0x0 DUP2 ISZERO PUSH2 0x3E93 JUMPI PUSH32 0xFFFFFFFFFFFFFFFFFFFFFFFFFFFFFFFFFFFFFFFFFFFFFFFFFFFFFFFFFF7FC000 PUSH2 0x4000 DUP5 ADD AND SWAP1 POP PUSH2 0x3EBC JUMP JUMPDEST PUSH1 0x1 PUSH32 0xFFFFFFFFFFFFFFFFFFFFFFFFFFFFFFFFFFFFFFFFFFFFFFFFFFFFFFFFFF7FC000 DUP5 AND SUB SWAP1 POP JUMPDEST SWAP3 SWAP2 POP POP JUMP JUMPDEST PUSH1 0x0 DUP2 ISZERO PUSH2 0x3EE3 JUMPI PUSH1 0x8 DUP1 PUSH2 0x100 DUP6 ADD PUSH1 0x2 SIGNEXTEND SWAP1 SAR PUSH1 0x2 SIGNEXTEND SWAP1 SHL SWAP1 POP PUSH2 0x3EF7 JUMP JUMPDEST PUSH1 0x1 PUSH1 0x8 DUP1 DUP6 PUSH1 0x2 SIGNEXTEND SWAP1 SAR PUSH1 0x2 SIGNEXTEND SWAP1 SHL SUB SWAP1 POP JUMPDEST SWAP3 SWAP2 POP POP JUMP JUMPDEST PUSH1 0x0 DUP1 DUP3 DUP5 MOD GT DUP3 DUP5 DIV ADD SWAP1 POP SWAP3 SWAP2 POP POP JUMP JUMPDEST PUSH1 0x0 DUP1 DUP6 PUSH20 0xFFFFFFFFFFFFFFFFFFFFFFFFFFFFFFFFFFFFFFFF AND GT PUSH2 0x3F34 JUMPI PUSH1 0x0 DUP1 REVERT JUMPDEST PUSH1 0x0 DUP5 PUSH16 0xFFFFFFFFFFFFFFFFFFFFFFFFFFFFFFFF AND GT PUSH2 0x3F53 JUMPI PUSH1 0x0 DUP1 REVERT JUMPDEST DUP2 PUSH2 0x3F6A JUMPI PUSH2 0x3F65 DUP6 DUP6 DUP6 PUSH1 0x1 PUSH2 0x4C99 JUMP JUMPDEST PUSH2 0x3F78 JUMP JUMPDEST PUSH2 0x3F77 DUP6 DUP6 DUP6 PUSH1 0x1 PUSH2 0x4E0B JUMP JUMPDEST JUMPDEST SWAP1 POP SWAP5 SWAP4 POP POP POP POP JUMP JUMPDEST PUSH2 0x3F8A PUSH2 0x562D JUMP JUMPDEST PUSH2 0x3F92 PUSH2 0x5688 JUMP JUMPDEST PUSH2 0x3FB5 DUP4 PUSH1 0x80 ADD MLOAD DUP5 PUSH1 0xA0 ADD MLOAD PUSH2 0x3FAA JUMPI PUSH1 0x0 PUSH2 0x3FAD JUMP JUMPDEST PUSH1 0x1 JUMPDEST PUSH1 0xFF AND PUSH2 0x24C8 JUMP JUMPDEST ISZERO PUSH2 0x4031 JUMPI DUP3 PUSH1 0x40 MLOAD DUP1 PUSH1 0x80 ADD PUSH1 0x40 MSTORE DUP1 PUSH1 0x0 PUSH16 0xFFFFFFFFFFFFFFFFFFFFFFFFFFFFFFFF AND DUP2 MSTORE PUSH1 0x20 ADD PUSH1 0x0 PUSH16 0xFFFFFFFFFFFFFFFFFFFFFFFFFFFFFFFF AND DUP2 MSTORE PUSH1 0x20 ADD PUSH1 0x0 PUSH16 0xFFFFFFFFFFFFFFFFFFFFFFFFFFFFFFFF AND DUP2 MSTORE PUSH1 0x20 ADD PUSH1 0x0 PUSH16 0xFFFFFFFFFFFFFFFFFFFFFFFFFFFFFFFF AND DUP2 MSTORE POP SWAP2 POP SWAP2 POP PUSH2 0x4637 JUMP JUMPDEST PUSH1 0x0 PUSH1 0xB PUSH1 0x0 DUP6 PUSH1 0x80 ADD MLOAD PUSH1 0x2 SIGNEXTEND PUSH1 0x2 SIGNEXTEND DUP2 MSTORE PUSH1 0x20 ADD SWAP1 DUP2 MSTORE PUSH1 0x20 ADD PUSH1 0x0 KECCAK256 PUSH1 0x40 MLOAD DUP1 PUSH1 0x80 ADD PUSH1 0x40 MSTORE SWAP1 DUP2 PUSH1 0x0 DUP3 ADD PUSH1 0x0 SWAP1 SLOAD SWAP1 PUSH2 0x100 EXP SWAP1 DIV PUSH16 0xFFFFFFFFFFFFFFFFFFFFFFFFFFFFFFFF AND PUSH16 0xFFFFFFFFFFFFFFFFFFFFFFFFFFFFFFFF AND PUSH16 0xFFFFFFFFFFFFFFFFFFFFFFFFFFFFFFFF AND DUP2 MSTORE PUSH1 0x20 ADD PUSH1 0x0 DUP3 ADD PUSH1 0x10 SWAP1 SLOAD SWAP1 PUSH2 0x100 EXP SWAP1 DIV PUSH16 0xFFFFFFFFFFFFFFFFFFFFFFFFFFFFFFFF AND PUSH16 0xFFFFFFFFFFFFFFFFFFFFFFFFFFFFFFFF AND PUSH16 0xFFFFFFFFFFFFFFFFFFFFFFFFFFFFFFFF AND DUP2 MSTORE PUSH1 0x20 ADD PUSH1 0x1 DUP3 ADD PUSH1 0x0 SWAP1 SLOAD SWAP1 PUSH2 0x100 EXP SWAP1 DIV PUSH16 0xFFFFFFFFFFFFFFFFFFFFFFFFFFFFFFFF AND PUSH16 0xFFFFFFFFFFFFFFFFFFFFFFFFFFFFFFFF AND PUSH16 0xFFFFFFFFFFFFFFFFFFFFFFFFFFFFFFFF AND DUP2 MSTORE PUSH1 0x20 ADD PUSH1 0x1 DUP3 ADD PUSH1 0x10 SWAP1 SLOAD SWAP1 PUSH2 0x100 EXP SWAP1 DIV PUSH16 0xFFFFFFFFFFFFFFFFFFFFFFFFFFFFFFFF AND PUSH16 0xFFFFFFFFFFFFFFFFFFFFFFFFFFFFFFFF AND PUSH16 0xFFFFFFFFFFFFFFFFFFFFFFFFFFFFFFFF AND DUP2 MSTORE POP POP SWAP1 POP DUP4 PUSH1 0xA0 ADD MLOAD DUP1 ISZERO PUSH2 0x41AC JUMPI POP PUSH1 0x0 DUP2 PUSH1 0x40 ADD MLOAD PUSH16 0xFFFFFFFFFFFFFFFFFFFFFFFFFFFFFFFF AND GT JUMPDEST ISZERO PUSH2 0x43A8 JUMPI PUSH1 0x0 PUSH2 0x41C5 DUP6 PUSH1 0x0 ADD MLOAD DUP7 PUSH1 0x60 ADD MLOAD PUSH2 0x1188 JUMP JUMPDEST SWAP1 POP DUP1 DUP3 PUSH1 0x40 ADD MLOAD PUSH16 0xFFFFFFFFFFFFFFFFFFFFFFFFFFFFFFFF AND LT PUSH2 0x4294 JUMPI PUSH2 0x41ED DUP2 PUSH2 0x25A4 JUMP JUMPDEST DUP3 PUSH1 0x40 ADD DUP2 DUP2 MLOAD SUB SWAP2 POP SWAP1 PUSH16 0xFFFFFFFFFFFFFFFFFFFFFFFFFFFFFFFF AND SWAP1 DUP2 PUSH16 0xFFFFFFFFFFFFFFFFFFFFFFFFFFFFFFFF AND DUP2 MSTORE POP POP PUSH2 0x422F DUP6 PUSH1 0x0 ADD MLOAD PUSH2 0x25A4 JUMP JUMPDEST DUP3 PUSH1 0x60 ADD DUP2 DUP2 MLOAD ADD SWAP2 POP SWAP1 PUSH16 0xFFFFFFFFFFFFFFFFFFFFFFFFFFFFFFFF AND SWAP1 DUP2 PUSH16 0xFFFFFFFFFFFFFFFFFFFFFFFFFFFFFFFF AND DUP2 MSTORE POP POP PUSH1 0x0 DUP6 PUSH1 0x0 ADD DUP2 DUP2 MSTORE POP POP PUSH2 0x4286 DUP2 DUP7 PUSH1 0x20 ADD MLOAD PUSH2 0x242C SWAP1 SWAP2 SWAP1 PUSH4 0xFFFFFFFF AND JUMP JUMPDEST DUP6 PUSH1 0x20 ADD DUP2 DUP2 MSTORE POP POP PUSH2 0x43A2 JUMP JUMPDEST PUSH1 0x0 PUSH2 0x42BA DUP4 PUSH1 0x40 ADD MLOAD PUSH16 0xFFFFFFFFFFFFFFFFFFFFFFFFFFFFFFFF AND DUP8 PUSH1 0x60 ADD MLOAD PUSH2 0x1220 JUMP JUMPDEST SWAP1 POP PUSH2 0x42D3 DUP2 DUP8 PUSH1 0x0 ADD MLOAD PUSH2 0x3234 SWAP1 SWAP2 SWAP1 PUSH4 0xFFFFFFFF AND JUMP JUMPDEST DUP7 PUSH1 0x0 ADD DUP2 DUP2 MSTORE POP POP PUSH1 0x0 DUP7 PUSH1 0x0 ADD MLOAD GT ISZERO PUSH2 0x42FB JUMPI DUP6 PUSH1 0x0 ADD DUP1 MLOAD DUP1 SWAP2 SWAP1 PUSH1 0x1 SWAP1 SUB DUP2 MSTORE POP POP JUMPDEST PUSH2 0x4328 DUP4 PUSH1 0x40 ADD MLOAD PUSH16 0xFFFFFFFFFFFFFFFFFFFFFFFFFFFFFFFF AND DUP8 PUSH1 0x20 ADD MLOAD PUSH2 0x242C SWAP1 SWAP2 SWAP1 PUSH4 0xFFFFFFFF AND JUMP JUMPDEST DUP7 PUSH1 0x20 ADD DUP2 DUP2 MSTORE POP POP PUSH2 0x433A DUP2 PUSH2 0x25A4 JUMP JUMPDEST DUP4 PUSH1 0x60 ADD DUP2 DUP2 MLOAD ADD SWAP2 POP SWAP1 PUSH16 0xFFFFFFFFFFFFFFFFFFFFFFFFFFFFFFFF AND SWAP1 DUP2 PUSH16 0xFFFFFFFFFFFFFFFFFFFFFFFFFFFFFFFF AND DUP2 MSTORE POP POP PUSH1 0x0 DUP4 PUSH1 0x40 ADD SWAP1 PUSH16 0xFFFFFFFFFFFFFFFFFFFFFFFFFFFFFFFF AND SWAP1 DUP2 PUSH16 0xFFFFFFFFFFFFFFFFFFFFFFFFFFFFFFFF AND DUP2 MSTORE POP POP POP JUMPDEST POP PUSH2 0x462F JUMP JUMPDEST DUP4 PUSH1 0xA0 ADD MLOAD ISZERO DUP1 ISZERO PUSH2 0x43D0 JUMPI POP PUSH1 0x0 DUP2 PUSH1 0x0 ADD MLOAD PUSH16 0xFFFFFFFFFFFFFFFFFFFFFFFFFFFFFFFF AND GT JUMPDEST ISZERO PUSH2 0x462E JUMPI DUP4 PUSH1 0x0 ADD MLOAD PUSH2 0x43FE DUP3 PUSH1 0x0 ADD MLOAD PUSH16 0xFFFFFFFFFFFFFFFFFFFFFFFFFFFFFFFF AND DUP7 PUSH1 0x60 ADD MLOAD PUSH2 0x1188 JUMP JUMPDEST LT PUSH2 0x451F JUMPI PUSH1 0x0 PUSH2 0x4417 DUP6 PUSH1 0x0 ADD MLOAD DUP7 PUSH1 0x60 ADD MLOAD PUSH2 0x1220 JUMP JUMPDEST SWAP1 POP PUSH2 0x4422 DUP2 PUSH2 0x25A4 JUMP JUMPDEST DUP3 PUSH1 0x0 ADD DUP2 DUP2 MLOAD SUB SWAP2 POP SWAP1 PUSH16 0xFFFFFFFFFFFFFFFFFFFFFFFFFFFFFFFF AND SWAP1 DUP2 PUSH16 0xFFFFFFFFFFFFFFFFFFFFFFFFFFFFFFFF AND DUP2 MSTORE POP POP PUSH1 0x0 DUP3 PUSH1 0x0 ADD MLOAD PUSH16 0xFFFFFFFFFFFFFFFFFFFFFFFFFFFFFFFF AND GT ISZERO PUSH2 0x44AC JUMPI DUP2 PUSH1 0x0 ADD DUP1 MLOAD DUP1 SWAP2 SWAP1 PUSH1 0x1 SWAP1 SUB PUSH16 0xFFFFFFFFFFFFFFFFFFFFFFFFFFFFFFFF AND PUSH16 0xFFFFFFFFFFFFFFFFFFFFFFFFFFFFFFFF AND DUP2 MSTORE POP POP JUMPDEST PUSH2 0x44B9 DUP6 PUSH1 0x0 ADD MLOAD PUSH2 0x25A4 JUMP JUMPDEST DUP3 PUSH1 0x20 ADD DUP2 DUP2 MLOAD ADD SWAP2 POP SWAP1 PUSH16 0xFFFFFFFFFFFFFFFFFFFFFFFFFFFFFFFF AND SWAP1 DUP2 PUSH16 0xFFFFFFFFFFFFFFFFFFFFFFFFFFFFFFFF AND DUP2 MSTORE POP POP PUSH1 0x0 DUP6 PUSH1 0x0 ADD DUP2 DUP2 MSTORE POP POP PUSH2 0x4510 DUP2 DUP7 PUSH1 0x20 ADD MLOAD PUSH2 0x242C SWAP1 SWAP2 SWAP1 PUSH4 0xFFFFFFFF AND JUMP JUMPDEST DUP6 PUSH1 0x20 ADD DUP2 DUP2 MSTORE POP POP POP PUSH2 0x462D JUMP JUMPDEST PUSH1 0x0 PUSH2 0x4545 DUP3 PUSH1 0x0 ADD MLOAD PUSH16 0xFFFFFFFFFFFFFFFFFFFFFFFFFFFFFFFF AND DUP7 PUSH1 0x60 ADD MLOAD PUSH2 0x1188 JUMP JUMPDEST SWAP1 POP PUSH2 0x455E DUP2 DUP7 PUSH1 0x0 ADD MLOAD PUSH2 0x3234 SWAP1 SWAP2 SWAP1 PUSH4 0xFFFFFFFF AND JUMP JUMPDEST DUP6 PUSH1 0x0 ADD DUP2 DUP2 MSTORE POP POP PUSH1 0x0 DUP6 PUSH1 0x0 ADD MLOAD GT ISZERO PUSH2 0x4586 JUMPI DUP5 PUSH1 0x0 ADD DUP1 MLOAD DUP1 SWAP2 SWAP1 PUSH1 0x1 SWAP1 SUB DUP2 MSTORE POP POP JUMPDEST PUSH2 0x45B3 DUP3 PUSH1 0x0 ADD MLOAD PUSH16 0xFFFFFFFFFFFFFFFFFFFFFFFFFFFFFFFF AND DUP7 PUSH1 0x20 ADD MLOAD PUSH2 0x242C SWAP1 SWAP2 SWAP1 PUSH4 0xFFFFFFFF AND JUMP JUMPDEST DUP6 PUSH1 0x20 ADD DUP2 DUP2 MSTORE POP POP PUSH2 0x45C5 DUP2 PUSH2 0x25A4 JUMP JUMPDEST DUP3 PUSH1 0x20 ADD DUP2 DUP2 MLOAD ADD SWAP2 POP SWAP1 PUSH16 0xFFFFFFFFFFFFFFFFFFFFFFFFFFFFFFFF AND SWAP1 DUP2 PUSH16 0xFFFFFFFFFFFFFFFFFFFFFFFFFFFFFFFF AND DUP2 MSTORE POP POP PUSH1 0x0 DUP3 PUSH1 0x0 ADD SWAP1 PUSH16 0xFFFFFFFFFFFFFFFFFFFFFFFFFFFFFFFF AND SWAP1 DUP2 PUSH16 0xFFFFFFFFFFFFFFFFFFFFFFFFFFFFFFFF AND DUP2 MSTORE POP POP POP JUMPDEST JUMPDEST JUMPDEST DUP4 DUP2 SWAP3 POP SWAP3 POP POP JUMPDEST SWAP2 POP SWAP2 JUMP JUMPDEST PUSH2 0x4644 PUSH2 0x562D JUMP JUMPDEST PUSH1 0x0 DUP3 PUSH1 0x80 ADD MLOAD PUSH1 0x2 SIGNEXTEND DUP4 PUSH1 0xC0 ADD MLOAD PUSH1 0x2 SIGNEXTEND EQ ISZERO PUSH2 0x4668 JUMPI DUP3 PUSH1 0x0 SWAP2 POP SWAP2 POP PUSH2 0x4B19 JUMP JUMPDEST PUSH1 0x0 DUP4 PUSH1 0x0 ADD MLOAD EQ ISZERO PUSH2 0x4681 JUMPI DUP3 PUSH1 0x0 SWAP2 POP SWAP2 POP PUSH2 0x4B19 JUMP JUMPDEST PUSH1 0x0 DUP1 PUSH1 0x0 PUSH2 0x4693 DUP7 PUSH1 0x80 ADD MLOAD PUSH2 0x32B7 JUMP JUMPDEST POP SWAP3 POP SWAP3 POP SWAP3 POP DUP6 PUSH1 0xA0 ADD MLOAD DUP1 ISZERO PUSH2 0x46AE JUMPI POP PUSH1 0x3F DUP3 PUSH1 0xFF AND EQ JUMPDEST DUP1 PUSH2 0x46CA JUMPI POP DUP6 PUSH1 0xA0 ADD MLOAD ISZERO DUP1 ISZERO PUSH2 0x46C9 JUMPI POP PUSH1 0x0 DUP3 PUSH1 0xFF AND EQ JUMPDEST JUMPDEST ISZERO PUSH2 0x4702 JUMPI PUSH1 0x0 PUSH1 0x1 SWAP1 POP JUMPDEST DUP1 ISZERO PUSH2 0x46F2 JUMPI PUSH2 0x46E5 DUP8 PUSH2 0x4F95 JUMP JUMPDEST DUP1 SWAP3 POP DUP2 SWAP9 POP POP POP PUSH2 0x46D6 JUMP JUMPDEST DUP7 PUSH1 0x1 SWAP6 POP SWAP6 POP POP POP POP POP PUSH2 0x4B19 JUMP JUMPDEST DUP6 PUSH1 0xA0 ADD MLOAD PUSH2 0x4714 JUMPI PUSH1 0x1 DUP3 SUB PUSH2 0x4719 JUMP JUMPDEST PUSH1 0x1 DUP3 ADD JUMPDEST SWAP2 POP DUP6 PUSH1 0xA0 ADD MLOAD PUSH2 0x472D JUMPI PUSH1 0x1 DUP2 SUB PUSH2 0x4732 JUMP JUMPDEST PUSH1 0x1 DUP2 ADD JUMPDEST SWAP1 POP PUSH1 0x0 DUP7 PUSH1 0xA0 ADD MLOAD PUSH2 0x4759 JUMPI PUSH1 0xFF PUSH2 0x4753 DUP9 PUSH1 0x80 ADD MLOAD DUP10 PUSH1 0xA0 ADD MLOAD PUSH2 0x3EC2 JUMP JUMPDEST SUB PUSH2 0x476F JUMP JUMPDEST PUSH1 0xFF PUSH2 0x476D DUP9 PUSH1 0x80 ADD MLOAD DUP10 PUSH1 0xA0 ADD MLOAD PUSH2 0x3EC2 JUMP JUMPDEST ADD JUMPDEST SWAP1 POP PUSH1 0x0 PUSH2 0x47B7 PUSH1 0x7 DUP10 PUSH1 0xA0 ADD MLOAD PUSH2 0x4788 JUMPI PUSH1 0x0 PUSH2 0x478B JUMP JUMPDEST PUSH1 0x1 JUMPDEST PUSH1 0xFF AND PUSH1 0x2 DUP2 LT PUSH2 0x4798 JUMPI INVALID JUMPDEST ADD PUSH1 0x0 DUP8 PUSH1 0x0 SIGNEXTEND PUSH1 0x0 SIGNEXTEND DUP2 MSTORE PUSH1 0x20 ADD SWAP1 DUP2 MSTORE PUSH1 0x20 ADD PUSH1 0x0 KECCAK256 SLOAD DUP6 PUSH2 0x3310 JUMP JUMPDEST PUSH2 0x47FB JUMPI PUSH1 0x10 DUP9 PUSH1 0xA0 ADD MLOAD PUSH2 0x47CD JUMPI PUSH1 0x1 PUSH2 0x47D0 JUMP JUMPDEST PUSH1 0x0 JUMPDEST PUSH1 0xFF AND PUSH1 0x2 DUP2 LT PUSH2 0x47DD JUMPI INVALID JUMPDEST ADD PUSH1 0x0 DUP5 PUSH1 0x1 SIGNEXTEND PUSH1 0x1 SIGNEXTEND DUP2 MSTORE PUSH1 0x20 ADD SWAP1 DUP2 MSTORE PUSH1 0x20 ADD PUSH1 0x0 KECCAK256 SLOAD PUSH2 0x47FE JUMP JUMPDEST PUSH1 0x0 JUMPDEST SWAP1 POP PUSH1 0x0 DUP2 PUSH16 0xFFFFFFFFFFFFFFFFFFFFFFFFFFFFFFFF AND SWAP1 POP PUSH1 0x80 DUP3 SWAP1 SHR SWAP2 POP PUSH1 0x0 DUP1 PUSH1 0x0 PUSH2 0x4886 PUSH1 0x40 MLOAD DUP1 PUSH1 0xE0 ADD PUSH1 0x40 MSTORE DUP1 DUP15 PUSH1 0x0 ADD MLOAD DUP2 MSTORE PUSH1 0x20 ADD PUSH1 0x0 DUP2 MSTORE PUSH1 0x20 ADD DUP15 PUSH1 0x60 ADD MLOAD PUSH20 0xFFFFFFFFFFFFFFFFFFFFFFFFFFFFFFFFFFFFFFFF AND DUP2 MSTORE PUSH1 0x20 ADD DUP9 PUSH1 0x2 SIGNEXTEND DUP2 MSTORE PUSH1 0x20 ADD DUP8 DUP2 MSTORE PUSH1 0x20 ADD DUP7 DUP2 MSTORE PUSH1 0x20 ADD DUP15 PUSH1 0xA0 ADD MLOAD ISZERO ISZERO DUP2 MSTORE POP PUSH2 0x335A JUMP JUMPDEST SWAP3 POP SWAP3 POP SWAP3 POP DUP3 DUP1 ISZERO PUSH2 0x48C0 JUMPI POP DUP12 PUSH1 0xA0 ADD MLOAD PUSH2 0x48B0 JUMPI DUP6 PUSH1 0x2 SIGNEXTEND DUP13 PUSH1 0xC0 ADD MLOAD PUSH1 0x2 SIGNEXTEND SGT ISZERO PUSH2 0x48BF JUMP JUMPDEST DUP6 PUSH1 0x2 SIGNEXTEND DUP13 PUSH1 0xC0 ADD MLOAD PUSH1 0x2 SIGNEXTEND SLT ISZERO JUMPDEST JUMPDEST ISZERO PUSH2 0x49A3 JUMPI PUSH2 0x4909 PUSH1 0x7 DUP14 PUSH1 0xA0 ADD MLOAD PUSH2 0x48DA JUMPI PUSH1 0x0 PUSH2 0x48DD JUMP JUMPDEST PUSH1 0x1 JUMPDEST PUSH1 0xFF AND PUSH1 0x2 DUP2 LT PUSH2 0x48EA JUMPI INVALID JUMPDEST ADD PUSH1 0x0 DUP12 PUSH1 0x0 SIGNEXTEND PUSH1 0x0 SIGNEXTEND DUP2 MSTORE PUSH1 0x20 ADD SWAP1 DUP2 MSTORE PUSH1 0x20 ADD PUSH1 0x0 KECCAK256 SLOAD DUP10 PUSH2 0x3310 JUMP JUMPDEST POP DUP1 DUP5 ADD DUP13 PUSH1 0x0 ADD DUP2 DUP2 MLOAD SUB SWAP2 POP DUP2 DUP2 MSTORE POP POP DUP2 DUP13 PUSH1 0x20 ADD DUP2 DUP2 MLOAD ADD SWAP2 POP DUP2 DUP2 MSTORE POP POP DUP4 DUP13 PUSH1 0x40 ADD DUP2 DUP2 MLOAD ADD SWAP2 POP DUP2 DUP2 MSTORE POP POP PUSH2 0x4945 DUP7 PUSH2 0x1FF1 JUMP JUMPDEST DUP13 PUSH1 0x60 ADD SWAP1 PUSH20 0xFFFFFFFFFFFFFFFFFFFFFFFFFFFFFFFFFFFFFFFF AND SWAP1 DUP2 PUSH20 0xFFFFFFFFFFFFFFFFFFFFFFFFFFFFFFFFFFFFFFFF AND DUP2 MSTORE POP POP DUP6 DUP13 PUSH1 0x80 ADD SWAP1 PUSH1 0x2 SIGNEXTEND SWAP1 DUP2 PUSH1 0x2 SIGNEXTEND DUP2 MSTORE POP POP DUP12 PUSH1 0x1 SWAP11 POP SWAP11 POP POP POP POP POP POP POP POP POP POP PUSH2 0x4B19 JUMP JUMPDEST PUSH2 0x49B5 DUP13 PUSH1 0x80 ADD MLOAD DUP14 PUSH1 0xA0 ADD MLOAD PUSH2 0x3EC2 JUMP JUMPDEST SWAP6 POP PUSH2 0x4A1C PUSH1 0x40 MLOAD DUP1 PUSH1 0xE0 ADD PUSH1 0x40 MSTORE DUP1 DUP15 PUSH1 0x0 ADD MLOAD DUP2 MSTORE PUSH1 0x20 ADD PUSH1 0x0 DUP2 MSTORE PUSH1 0x20 ADD DUP15 PUSH1 0x60 ADD MLOAD PUSH20 0xFFFFFFFFFFFFFFFFFFFFFFFFFFFFFFFFFFFFFFFF AND DUP2 MSTORE PUSH1 0x20 ADD DUP9 PUSH1 0x2 SIGNEXTEND DUP2 MSTORE PUSH1 0x20 ADD PUSH1 0x0 DUP2 MSTORE PUSH1 0x20 ADD PUSH1 0x0 DUP2 MSTORE PUSH1 0x20 ADD DUP15 PUSH1 0xA0 ADD MLOAD ISZERO ISZERO DUP2 MSTORE POP PUSH2 0x335A JUMP JUMPDEST DUP1 SWAP4 POP DUP2 SWAP5 POP DUP3 SWAP6 POP POP POP POP DUP3 DUP1 ISZERO PUSH2 0x4A35 JUMPI POP PUSH1 0x0 DUP6 GT JUMPDEST ISZERO PUSH2 0x4AC1 JUMPI DUP1 DUP13 PUSH1 0x0 ADD DUP2 DUP2 MLOAD SUB SWAP2 POP DUP2 DUP2 MSTORE POP POP DUP2 DUP13 PUSH1 0x20 ADD DUP2 DUP2 MLOAD ADD SWAP2 POP DUP2 DUP2 MSTORE POP POP PUSH2 0x4A63 DUP7 PUSH2 0x1FF1 JUMP JUMPDEST DUP13 PUSH1 0x60 ADD SWAP1 PUSH20 0xFFFFFFFFFFFFFFFFFFFFFFFFFFFFFFFFFFFFFFFF AND SWAP1 DUP2 PUSH20 0xFFFFFFFFFFFFFFFFFFFFFFFFFFFFFFFFFFFFFFFF AND DUP2 MSTORE POP POP DUP6 DUP13 PUSH1 0x80 ADD SWAP1 PUSH1 0x2 SIGNEXTEND SWAP1 DUP2 PUSH1 0x2 SIGNEXTEND DUP2 MSTORE POP POP DUP12 PUSH1 0x0 SWAP11 POP SWAP11 POP POP POP POP POP POP POP POP POP POP PUSH2 0x4B19 JUMP JUMPDEST DUP12 PUSH1 0x60 ADD MLOAD DUP13 PUSH1 0x60 ADD SWAP1 PUSH20 0xFFFFFFFFFFFFFFFFFFFFFFFFFFFFFFFFFFFFFFFF AND SWAP1 DUP2 PUSH20 0xFFFFFFFFFFFFFFFFFFFFFFFFFFFFFFFFFFFFFFFF AND DUP2 MSTORE POP POP PUSH2 0x4B06 DUP13 PUSH2 0x343E JUMP JUMPDEST SWAP12 POP DUP12 PUSH1 0x0 SWAP11 POP SWAP11 POP POP POP POP POP POP POP POP POP POP JUMPDEST SWAP2 POP SWAP2 JUMP JUMPDEST PUSH1 0x0 DUP1 PUSH1 0x0 DUP5 PUSH1 0x2 SIGNEXTEND DUP7 PUSH1 0x2 SIGNEXTEND DUP2 PUSH2 0x4B32 JUMPI INVALID JUMPDEST SDIV SWAP1 POP PUSH1 0x0 DUP7 PUSH1 0x2 SIGNEXTEND SLT DUP1 ISZERO PUSH2 0x4B5B JUMPI POP PUSH1 0x0 DUP6 PUSH1 0x2 SIGNEXTEND DUP8 PUSH1 0x2 SIGNEXTEND DUP2 PUSH2 0x4B54 JUMPI INVALID JUMPDEST SMOD PUSH1 0x2 SIGNEXTEND EQ ISZERO JUMPDEST ISZERO PUSH2 0x4B6A JUMPI DUP1 DUP1 PUSH1 0x1 SWAP1 SUB SWAP2 POP POP JUMPDEST DUP4 ISZERO PUSH2 0x4BEE JUMPI PUSH1 0x0 DUP1 PUSH2 0x4B7C DUP4 PUSH2 0x4C76 JUMP JUMPDEST SWAP2 POP SWAP2 POP PUSH1 0x0 DUP2 PUSH1 0xFF AND PUSH1 0x1 SWAP1 SHL PUSH1 0x1 DUP4 PUSH1 0xFF AND PUSH1 0x1 SWAP1 SHL SUB ADD SWAP1 POP PUSH1 0x0 DUP2 DUP12 PUSH1 0x0 DUP7 PUSH1 0x1 SIGNEXTEND PUSH1 0x1 SIGNEXTEND DUP2 MSTORE PUSH1 0x20 ADD SWAP1 DUP2 MSTORE PUSH1 0x20 ADD PUSH1 0x0 KECCAK256 SLOAD AND SWAP1 POP PUSH1 0x0 DUP2 EQ ISZERO SWAP6 POP DUP6 PUSH2 0x4BD0 JUMPI DUP9 DUP4 PUSH1 0xFF AND DUP7 SUB MUL PUSH2 0x4BE3 JUMP JUMPDEST DUP9 PUSH2 0x4BDA DUP3 PUSH2 0x53FF JUMP JUMPDEST DUP5 SUB PUSH1 0xFF AND DUP7 SUB MUL JUMPDEST SWAP7 POP POP POP POP POP PUSH2 0x4C6C JUMP JUMPDEST PUSH1 0x0 DUP1 PUSH2 0x4BFD PUSH1 0x1 DUP5 ADD PUSH2 0x4C76 JUMP JUMPDEST SWAP2 POP SWAP2 POP PUSH1 0x0 PUSH1 0x1 DUP3 PUSH1 0xFF AND PUSH1 0x1 SWAP1 SHL SUB NOT SWAP1 POP PUSH1 0x0 DUP2 DUP12 PUSH1 0x0 DUP7 PUSH1 0x1 SIGNEXTEND PUSH1 0x1 SIGNEXTEND DUP2 MSTORE PUSH1 0x20 ADD SWAP1 DUP2 MSTORE PUSH1 0x20 ADD PUSH1 0x0 KECCAK256 SLOAD AND SWAP1 POP PUSH1 0x0 DUP2 EQ ISZERO SWAP6 POP DUP6 PUSH2 0x4C4F JUMPI DUP9 DUP4 PUSH1 0xFF SUB PUSH1 0xFF AND PUSH1 0x1 DUP8 ADD ADD MUL PUSH2 0x4C65 JUMP JUMPDEST DUP9 DUP4 PUSH2 0x4C5A DUP4 PUSH2 0x54DA JUMP JUMPDEST SUB PUSH1 0xFF AND PUSH1 0x1 DUP8 ADD ADD MUL JUMPDEST SWAP7 POP POP POP POP POP JUMPDEST POP SWAP5 POP SWAP5 SWAP3 POP POP POP JUMP JUMPDEST PUSH1 0x0 DUP1 PUSH1 0x8 DUP4 PUSH1 0x2 SIGNEXTEND SWAP1 SAR SWAP2 POP PUSH2 0x100 DUP4 PUSH1 0x2 SIGNEXTEND DUP2 PUSH2 0x4C91 JUMPI INVALID JUMPDEST SMOD SWAP1 POP SWAP2 POP SWAP2 JUMP JUMPDEST PUSH1 0x0 DUP2 ISZERO PUSH2 0x4D4F JUMPI PUSH1 0x0 PUSH20 0xFFFFFFFFFFFFFFFFFFFFFFFFFFFFFFFFFFFFFFFF DUP1 AND DUP5 GT ISZERO PUSH2 0x4CF0 JUMPI PUSH2 0x4CEB DUP5 PUSH13 0x1000000000000000000000000 DUP8 PUSH16 0xFFFFFFFFFFFFFFFFFFFFFFFFFFFFFFFF AND PUSH2 0x25CC JUMP JUMPDEST PUSH2 0x4D14 JUMP JUMPDEST DUP5 PUSH16 0xFFFFFFFFFFFFFFFFFFFFFFFFFFFFFFFF AND PUSH1 0x60 PUSH1 0xFF AND DUP6 SWAP1 SHL DUP2 PUSH2 0x4D12 JUMPI INVALID JUMPDEST DIV JUMPDEST SWAP1 POP PUSH2 0x4D47 PUSH2 0x4D42 DUP3 DUP9 PUSH20 0xFFFFFFFFFFFFFFFFFFFFFFFFFFFFFFFFFFFFFFFF AND PUSH2 0x242C SWAP1 SWAP2 SWAP1 PUSH4 0xFFFFFFFF AND JUMP JUMPDEST PUSH2 0x5601 JUMP JUMPDEST SWAP2 POP POP PUSH2 0x4E03 JUMP JUMPDEST PUSH1 0x0 PUSH20 0xFFFFFFFFFFFFFFFFFFFFFFFFFFFFFFFFFFFFFFFF DUP1 AND DUP5 GT ISZERO PUSH2 0x4D9E JUMPI PUSH2 0x4D99 DUP5 PUSH13 0x1000000000000000000000000 DUP8 PUSH16 0xFFFFFFFFFFFFFFFFFFFFFFFFFFFFFFFF AND PUSH2 0x1F93 JUMP JUMPDEST PUSH2 0x4DC2 JUMP JUMPDEST PUSH2 0x4DC1 PUSH1 0x60 PUSH1 0xFF AND DUP6 SWAP1 SHL DUP7 PUSH16 0xFFFFFFFFFFFFFFFFFFFFFFFFFFFFFFFF AND PUSH2 0x3EFD JUMP JUMPDEST JUMPDEST SWAP1 POP DUP1 DUP7 PUSH20 0xFFFFFFFFFFFFFFFFFFFFFFFFFFFFFFFFFFFFFFFF AND GT PUSH2 0x4DE6 JUMPI PUSH1 0x0 DUP1 REVERT JUMPDEST DUP1 DUP7 PUSH20 0xFFFFFFFFFFFFFFFFFFFFFFFFFFFFFFFFFFFFFFFF AND SUB SWAP2 POP POP JUMPDEST SWAP5 SWAP4 POP POP POP POP JUMP JUMPDEST PUSH1 0x0 DUP1 DUP4 EQ ISZERO PUSH2 0x4E1D JUMPI DUP5 SWAP1 POP PUSH2 0x4F8D JUMP JUMPDEST PUSH1 0x0 PUSH1 0x60 PUSH1 0xFF AND DUP6 PUSH16 0xFFFFFFFFFFFFFFFFFFFFFFFFFFFFFFFF AND SWAP1 SHL SWAP1 POP DUP3 ISZERO PUSH2 0x4F04 JUMPI PUSH1 0x0 DUP7 PUSH20 0xFFFFFFFFFFFFFFFFFFFFFFFFFFFFFFFFFFFFFFFF AND DUP6 DUP9 PUSH20 0xFFFFFFFFFFFFFFFFFFFFFFFFFFFFFFFFFFFFFFFF AND DUP8 MUL SWAP3 POP DUP3 DUP2 PUSH2 0x4E7E JUMPI INVALID JUMPDEST DIV EQ ISZERO PUSH2 0x4EC0 JUMPI PUSH1 0x0 DUP2 DUP4 ADD SWAP1 POP DUP3 DUP2 LT PUSH2 0x4EBE JUMPI PUSH2 0x4EB4 DUP4 DUP10 PUSH20 0xFFFFFFFFFFFFFFFFFFFFFFFFFFFFFFFFFFFFFFFF AND DUP4 PUSH2 0x1F93 JUMP JUMPDEST SWAP4 POP POP POP POP PUSH2 0x4F8D JUMP JUMPDEST POP JUMPDEST PUSH2 0x4EFB DUP3 PUSH2 0x4EF6 DUP8 DUP11 PUSH20 0xFFFFFFFFFFFFFFFFFFFFFFFFFFFFFFFFFFFFFFFF AND DUP7 DUP2 PUSH2 0x4EE7 JUMPI INVALID JUMPDEST DIV PUSH2 0x242C SWAP1 SWAP2 SWAP1 PUSH4 0xFFFFFFFF AND JUMP JUMPDEST PUSH2 0x3EFD JUMP JUMPDEST SWAP3 POP POP POP PUSH2 0x4F8D JUMP JUMPDEST PUSH1 0x0 DUP7 PUSH20 0xFFFFFFFFFFFFFFFFFFFFFFFFFFFFFFFFFFFFFFFF AND DUP6 DUP9 PUSH20 0xFFFFFFFFFFFFFFFFFFFFFFFFFFFFFFFFFFFFFFFF AND DUP8 MUL SWAP3 POP DUP3 DUP2 PUSH2 0x4F41 JUMPI INVALID JUMPDEST DIV EQ DUP1 ISZERO PUSH2 0x4F4E JUMPI POP DUP1 DUP3 GT JUMPDEST PUSH2 0x4F57 JUMPI PUSH1 0x0 DUP1 REVERT JUMPDEST PUSH1 0x0 DUP2 DUP4 SUB SWAP1 POP PUSH2 0x4F87 PUSH2 0x4F82 DUP5 DUP11 PUSH20 0xFFFFFFFFFFFFFFFFFFFFFFFFFFFFFFFFFFFFFFFF AND DUP5 PUSH2 0x1F93 JUMP JUMPDEST PUSH2 0x5601 JUMP JUMPDEST SWAP4 POP POP POP POP JUMPDEST SWAP5 SWAP4 POP POP POP POP JUMP JUMPDEST PUSH2 0x4F9D PUSH2 0x562D JUMP JUMPDEST PUSH1 0x0 DUP3 PUSH1 0x80 ADD MLOAD PUSH1 0x2 SIGNEXTEND DUP4 PUSH1 0xC0 ADD MLOAD PUSH1 0x2 SIGNEXTEND EQ ISZERO PUSH2 0x4FC1 JUMPI DUP3 PUSH1 0x0 SWAP2 POP SWAP2 POP PUSH2 0x53FA JUMP JUMPDEST PUSH1 0x0 PUSH2 0x4FD0 DUP5 PUSH1 0x80 ADD MLOAD PUSH2 0x32B7 JUMP JUMPDEST POP POP POP SWAP1 POP PUSH1 0x3F PUSH1 0x0 SIGNEXTEND PUSH1 0x1 DUP3 ADD PUSH1 0x0 SIGNEXTEND SLT ISZERO DUP1 ISZERO PUSH2 0x4FF0 JUMPI POP DUP4 PUSH1 0xA0 ADD MLOAD JUMPDEST DUP1 PUSH2 0x5032 JUMPI POP PUSH32 0xFFFFFFFFFFFFFFFFFFFFFFFFFFFFFFFFFFFFFFFFFFFFFFFFFFFFFFFFFFFFFFC1 PUSH1 0x0 SIGNEXTEND PUSH1 0x1 DUP3 SUB PUSH1 0x0 SIGNEXTEND SGT ISZERO DUP1 ISZERO PUSH2 0x5031 JUMPI POP DUP4 PUSH1 0xA0 ADD MLOAD ISZERO JUMPDEST JUMPDEST ISZERO PUSH2 0x504F JUMPI PUSH1 0x0 DUP5 PUSH1 0x0 ADD DUP2 DUP2 MSTORE POP POP DUP4 PUSH1 0x0 SWAP3 POP SWAP3 POP POP PUSH2 0x53FA JUMP JUMPDEST PUSH1 0x0 DUP5 PUSH1 0xA0 ADD MLOAD PUSH2 0x5075 JUMPI PUSH2 0x3FFF PUSH2 0x506F DUP7 PUSH1 0x80 ADD MLOAD DUP8 PUSH1 0xA0 ADD MLOAD PUSH2 0x3E5D JUMP JUMPDEST SUB PUSH2 0x508C JUMP JUMPDEST PUSH2 0x3FFF PUSH2 0x508A DUP7 PUSH1 0x80 ADD MLOAD DUP8 PUSH1 0xA0 ADD MLOAD PUSH2 0x3E5D JUMP JUMPDEST ADD JUMPDEST SWAP1 POP PUSH1 0x0 DUP6 PUSH1 0xA0 ADD MLOAD PUSH2 0x50A2 JUMPI PUSH1 0x1 DUP4 SUB PUSH2 0x50A7 JUMP JUMPDEST PUSH1 0x1 DUP4 ADD JUMPDEST SWAP1 POP PUSH1 0x0 PUSH2 0x50E0 PUSH1 0x5 DUP9 PUSH1 0xA0 ADD MLOAD PUSH2 0x50C0 JUMPI PUSH1 0x0 PUSH2 0x50C3 JUMP JUMPDEST PUSH1 0x1 JUMPDEST PUSH1 0xFF AND PUSH1 0x2 DUP2 LT PUSH2 0x50D0 JUMPI INVALID JUMPDEST ADD SLOAD PUSH2 0x50DB DUP5 PUSH2 0x3300 JUMP JUMPDEST PUSH2 0x3310 JUMP JUMPDEST PUSH2 0x5124 JUMPI PUSH1 0xE DUP8 PUSH1 0xA0 ADD MLOAD PUSH2 0x50F6 JUMPI PUSH1 0x1 PUSH2 0x50F9 JUMP JUMPDEST PUSH1 0x0 JUMPDEST PUSH1 0xFF AND PUSH1 0x2 DUP2 LT PUSH2 0x5106 JUMPI INVALID JUMPDEST ADD PUSH1 0x0 DUP4 PUSH1 0x0 SIGNEXTEND PUSH1 0x0 SIGNEXTEND DUP2 MSTORE PUSH1 0x20 ADD SWAP1 DUP2 MSTORE PUSH1 0x20 ADD PUSH1 0x0 KECCAK256 SLOAD PUSH2 0x5127 JUMP JUMPDEST PUSH1 0x0 JUMPDEST SWAP1 POP PUSH1 0x0 DUP2 PUSH16 0xFFFFFFFFFFFFFFFFFFFFFFFFFFFFFFFF AND SWAP1 POP PUSH1 0x80 DUP3 SWAP1 SHR SWAP2 POP PUSH1 0x0 DUP1 PUSH1 0x0 PUSH2 0x51AF PUSH1 0x40 MLOAD DUP1 PUSH1 0xE0 ADD PUSH1 0x40 MSTORE DUP1 DUP14 PUSH1 0x0 ADD MLOAD DUP2 MSTORE PUSH1 0x20 ADD PUSH1 0x0 DUP2 MSTORE PUSH1 0x20 ADD DUP14 PUSH1 0x60 ADD MLOAD PUSH20 0xFFFFFFFFFFFFFFFFFFFFFFFFFFFFFFFFFFFFFFFF AND DUP2 MSTORE PUSH1 0x20 ADD DUP10 PUSH1 0x2 SIGNEXTEND DUP2 MSTORE PUSH1 0x20 ADD DUP8 DUP2 MSTORE PUSH1 0x20 ADD DUP7 DUP2 MSTORE PUSH1 0x20 ADD DUP14 PUSH1 0xA0 ADD MLOAD ISZERO ISZERO DUP2 MSTORE POP PUSH2 0x335A JUMP JUMPDEST SWAP3 POP SWAP3 POP SWAP3 POP DUP3 DUP1 ISZERO PUSH2 0x51E9 JUMPI POP DUP11 PUSH1 0xA0 ADD MLOAD PUSH2 0x51D9 JUMPI DUP7 PUSH1 0x2 SIGNEXTEND DUP12 PUSH1 0xC0 ADD MLOAD PUSH1 0x2 SIGNEXTEND SGT ISZERO PUSH2 0x51E8 JUMP JUMPDEST DUP7 PUSH1 0x2 SIGNEXTEND DUP12 PUSH1 0xC0 ADD MLOAD PUSH1 0x2 SIGNEXTEND SLT ISZERO JUMPDEST JUMPDEST ISZERO PUSH2 0x5286 JUMPI DUP1 DUP5 ADD DUP12 PUSH1 0x0 ADD DUP2 DUP2 MLOAD SUB SWAP2 POP DUP2 DUP2 MSTORE POP POP DUP2 DUP12 PUSH1 0x20 ADD DUP2 DUP2 MLOAD ADD SWAP2 POP DUP2 DUP2 MSTORE POP POP DUP4 DUP12 PUSH1 0x40 ADD DUP2 DUP2 MLOAD ADD SWAP2 POP DUP2 DUP2 MSTORE POP POP PUSH2 0x5229 DUP8 PUSH2 0x1FF1 JUMP JUMPDEST DUP12 PUSH1 0x60 ADD SWAP1 PUSH20 0xFFFFFFFFFFFFFFFFFFFFFFFFFFFFFFFFFFFFFFFF AND SWAP1 DUP2 PUSH20 0xFFFFFFFFFFFFFFFFFFFFFFFFFFFFFFFFFFFFFFFF AND DUP2 MSTORE POP POP DUP7 DUP12 PUSH1 0x80 ADD SWAP1 PUSH1 0x2 SIGNEXTEND SWAP1 DUP2 PUSH1 0x2 SIGNEXTEND DUP2 MSTORE POP POP DUP11 PUSH1 0x1 SWAP10 POP SWAP10 POP POP POP POP POP POP POP POP POP PUSH2 0x53FA JUMP JUMPDEST PUSH2 0x5298 DUP12 PUSH1 0x80 ADD MLOAD DUP13 PUSH1 0xA0 ADD MLOAD PUSH2 0x3E5D JUMP JUMPDEST SWAP7 POP PUSH2 0x52FF PUSH1 0x40 MLOAD DUP1 PUSH1 0xE0 ADD PUSH1 0x40 MSTORE DUP1 DUP14 PUSH1 0x0 ADD MLOAD DUP2 MSTORE PUSH1 0x20 ADD PUSH1 0x0 DUP2 MSTORE PUSH1 0x20 ADD DUP14 PUSH1 0x60 ADD MLOAD PUSH20 0xFFFFFFFFFFFFFFFFFFFFFFFFFFFFFFFFFFFFFFFF AND DUP2 MSTORE PUSH1 0x20 ADD DUP10 PUSH1 0x2 SIGNEXTEND DUP2 MSTORE PUSH1 0x20 ADD PUSH1 0x0 DUP2 MSTORE PUSH1 0x20 ADD PUSH1 0x0 DUP2 MSTORE PUSH1 0x20 ADD DUP14 PUSH1 0xA0 ADD MLOAD ISZERO ISZERO DUP2 MSTORE POP PUSH2 0x335A JUMP JUMPDEST DUP1 SWAP4 POP DUP2 SWAP5 POP DUP3 SWAP6 POP POP POP POP DUP3 DUP1 ISZERO PUSH2 0x5318 JUMPI POP PUSH1 0x0 DUP6 GT JUMPDEST ISZERO PUSH2 0x53A3 JUMPI DUP1 DUP12 PUSH1 0x0 ADD DUP2 DUP2 MLOAD SUB SWAP2 POP DUP2 DUP2 MSTORE POP POP DUP2 DUP12 PUSH1 0x20 ADD DUP2 DUP2 MLOAD ADD SWAP2 POP DUP2 DUP2 MSTORE POP POP PUSH2 0x5346 DUP8 PUSH2 0x1FF1 JUMP JUMPDEST DUP12 PUSH1 0x60 ADD SWAP1 PUSH20 0xFFFFFFFFFFFFFFFFFFFFFFFFFFFFFFFFFFFFFFFF AND SWAP1 DUP2 PUSH20 0xFFFFFFFFFFFFFFFFFFFFFFFFFFFFFFFFFFFFFFFF AND DUP2 MSTORE POP POP DUP7 DUP12 PUSH1 0x80 ADD SWAP1 PUSH1 0x2 SIGNEXTEND SWAP1 DUP2 PUSH1 0x2 SIGNEXTEND DUP2 MSTORE POP POP DUP11 PUSH1 0x0 SWAP10 POP SWAP10 POP POP POP POP POP POP POP POP POP PUSH2 0x53FA JUMP JUMPDEST DUP11 PUSH1 0x60 ADD MLOAD DUP12 PUSH1 0x60 ADD SWAP1 PUSH20 0xFFFFFFFFFFFFFFFFFFFFFFFFFFFFFFFFFFFFFFFF AND SWAP1 DUP2 PUSH20 0xFFFFFFFFFFFFFFFFFFFFFFFFFFFFFFFFFFFFFFFF AND DUP2 MSTORE POP POP PUSH2 0x53E8 DUP12 PUSH2 0x343E JUMP JUMPDEST SWAP11 POP DUP11 PUSH1 0x0 SWAP10 POP SWAP10 POP POP POP POP POP POP POP POP POP JUMPDEST SWAP2 POP SWAP2 JUMP JUMPDEST PUSH1 0x0 DUP1 DUP3 GT PUSH2 0x540D JUMPI PUSH1 0x0 DUP1 REVERT JUMPDEST PUSH17 0x100000000000000000000000000000000 DUP3 LT PUSH2 0x5433 JUMPI PUSH1 0x80 DUP3 SWAP1 SHR SWAP2 POP PUSH1 0x80 DUP2 ADD SWAP1 POP JUMPDEST PUSH9 0x10000000000000000 DUP3 LT PUSH2 0x5451 JUMPI PUSH1 0x40 DUP3 SWAP1 SHR SWAP2 POP PUSH1 0x40 DUP2 ADD SWAP1 POP JUMPDEST PUSH5 0x100000000 DUP3 LT PUSH2 0x546B JUMPI PUSH1 0x20 DUP3 SWAP1 SHR SWAP2 POP PUSH1 0x20 DUP2 ADD SWAP1 POP JUMPDEST PUSH3 0x10000 DUP3 LT PUSH2 0x5483 JUMPI PUSH1 0x10 DUP3 SWAP1 SHR SWAP2 POP PUSH1 0x10 DUP2 ADD SWAP1 POP JUMPDEST PUSH2 0x100 DUP3 LT PUSH2 0x549A JUMPI PUSH1 0x8 DUP3 SWAP1 SHR SWAP2 POP PUSH1 0x8 DUP2 ADD SWAP1 POP JUMPDEST PUSH1 0x10 DUP3 LT PUSH2 0x54B0 JUMPI PUSH1 0x4 DUP3 SWAP1 SHR SWAP2 POP PUSH1 0x4 DUP2 ADD SWAP1 POP JUMPDEST PUSH1 0x4 DUP3 LT PUSH2 0x54C6 JUMPI PUSH1 0x2 DUP3 SWAP1 SHR SWAP2 POP PUSH1 0x2 DUP2 ADD SWAP1 POP JUMPDEST PUSH1 0x2 DUP3 LT PUSH2 0x54D5 JUMPI PUSH1 0x1 DUP2 ADD SWAP1 POP JUMPDEST SWAP2 SWAP1 POP JUMP JUMPDEST PUSH1 0x0 DUP1 DUP3 GT PUSH2 0x54E8 JUMPI PUSH1 0x0 DUP1 REVERT JUMPDEST PUSH1 0xFF SWAP1 POP PUSH1 0x0 PUSH16 0xFFFFFFFFFFFFFFFFFFFFFFFFFFFFFFFF DUP1 AND DUP4 AND GT ISZERO PUSH2 0x5514 JUMPI PUSH1 0x80 DUP2 SUB SWAP1 POP PUSH2 0x551C JUMP JUMPDEST PUSH1 0x80 DUP3 SWAP1 SHR SWAP2 POP JUMPDEST PUSH1 0x0 PUSH8 0xFFFFFFFFFFFFFFFF DUP1 AND DUP4 AND GT ISZERO PUSH2 0x553C JUMPI PUSH1 0x40 DUP2 SUB SWAP1 POP PUSH2 0x5544 JUMP JUMPDEST PUSH1 0x40 DUP3 SWAP1 SHR SWAP2 POP JUMPDEST PUSH1 0x0 PUSH4 0xFFFFFFFF DUP1 AND DUP4 AND GT ISZERO PUSH2 0x5560 JUMPI PUSH1 0x20 DUP2 SUB SWAP1 POP PUSH2 0x5568 JUMP JUMPDEST PUSH1 0x20 DUP3 SWAP1 SHR SWAP2 POP JUMPDEST PUSH1 0x0 PUSH2 0xFFFF DUP1 AND DUP4 AND GT ISZERO PUSH2 0x5582 JUMPI PUSH1 0x10 DUP2 SUB SWAP1 POP PUSH2 0x558A JUMP JUMPDEST PUSH1 0x10 DUP3 SWAP1 SHR SWAP2 POP JUMPDEST PUSH1 0x0 PUSH1 0xFF DUP1 AND DUP4 AND GT ISZERO PUSH2 0x55A3 JUMPI PUSH1 0x8 DUP2 SUB SWAP1 POP PUSH2 0x55AB JUMP JUMPDEST PUSH1 0x8 DUP3 SWAP1 SHR SWAP2 POP JUMPDEST PUSH1 0x0 PUSH1 0xF DUP4 AND GT ISZERO PUSH2 0x55C2 JUMPI PUSH1 0x4 DUP2 SUB SWAP1 POP PUSH2 0x55CA JUMP JUMPDEST PUSH1 0x4 DUP3 SWAP1 SHR SWAP2 POP JUMPDEST PUSH1 0x0 PUSH1 0x3 DUP4 AND GT ISZERO PUSH2 0x55E1 JUMPI PUSH1 0x2 DUP2 SUB SWAP1 POP PUSH2 0x55E9 JUMP JUMPDEST PUSH1 0x2 DUP3 SWAP1 SHR SWAP2 POP JUMPDEST PUSH1 0x0 PUSH1 0x1 DUP4 AND GT ISZERO PUSH2 0x55FC JUMPI PUSH1 0x1 DUP2 SUB SWAP1 POP JUMPDEST SWAP2 SWAP1 POP JUMP JUMPDEST PUSH1 0x0 DUP2 DUP3 SWAP2 POP DUP2 PUSH20 0xFFFFFFFFFFFFFFFFFFFFFFFFFFFFFFFFFFFFFFFF AND EQ PUSH2 0x5628 JUMPI PUSH1 0x0 DUP1 REVERT JUMPDEST SWAP2 SWAP1 POP JUMP JUMPDEST PUSH1 0x40 MLOAD DUP1 PUSH1 0xE0 ADD PUSH1 0x40 MSTORE DUP1 PUSH1 0x0 DUP2 MSTORE PUSH1 0x20 ADD PUSH1 0x0 DUP2 MSTORE PUSH1 0x20 ADD PUSH1 0x0 DUP2 MSTORE PUSH1 0x20 ADD PUSH1 0x0 PUSH20 0xFFFFFFFFFFFFFFFFFFFFFFFFFFFFFFFFFFFFFFFF AND DUP2 MSTORE PUSH1 0x20 ADD PUSH1 0x0 PUSH1 0x2 SIGNEXTEND DUP2 MSTORE PUSH1 0x20 ADD PUSH1 0x0 ISZERO ISZERO DUP2 MSTORE PUSH1 0x20 ADD PUSH1 0x0 PUSH1 0x2 SIGNEXTEND DUP2 MSTORE POP SWAP1 JUMP JUMPDEST PUSH1 0x40 MLOAD DUP1 PUSH1 0x80 ADD PUSH1 0x40 MSTORE DUP1 PUSH1 0x0 PUSH16 0xFFFFFFFFFFFFFFFFFFFFFFFFFFFFFFFF AND DUP2 MSTORE PUSH1 0x20 ADD PUSH1 0x0 PUSH16 0xFFFFFFFFFFFFFFFFFFFFFFFFFFFFFFFF AND DUP2 MSTORE PUSH1 0x20 ADD PUSH1 0x0 PUSH16 0xFFFFFFFFFFFFFFFFFFFFFFFFFFFFFFFF AND DUP2 MSTORE PUSH1 0x20 ADD PUSH1 0x0 PUSH16 0xFFFFFFFFFFFFFFFFFFFFFFFFFFFFFFFF AND DUP2 MSTORE POP SWAP1 JUMP INVALID LOG2 PUSH5 0x6970667358 0x22 SLT KECCAK256 GT 0x25 PUSH15 0xECB3D7A1E5FA601EFD230E88AE3D50 0xD6 0xC7 DUP16 0xAC PUSH2 0x441F 0xB8 0xC2 0xBC JUMP ADDMOD 0x4C DUP1 PUSH5 0x736F6C6343 STOP SMOD MOD STOP CALLER "
		},
		"gasEstimates": {
			"creation": {
				"codeDepositCost": "4463600",
				"executionCost": "5190",
				"totalCost": "4468790"
			},
			"external": {
				"amount0ToAmount1(uint256,uint160)": "infinite",
				"amount1ToAmount0(uint256,uint160)": "infinite",
				"buyShare(address,int24)": "1359",
				"currentSqrtPriceX96()": "1114",
				"getLimitTokensCode(int24,uint256,bool)": "infinite",
				"isExploitedGate(int24,uint256)": "infinite",
				"liquidity()": "1073",
				"reserve0()": "2590",
				"reserve1()": "2612",
				"sellShare(address,int24)": "1313",
				"tickBitmap(int16)": "1260",
				"token0()": "1093",
				"token1()": "1069",
				"trade(uint256,bool,int24)": "infinite",
				"tradeStartGate(uint256,bool,int24)": "infinite",
				"unExploitedTick(int24,uint256)": "infinite",
				"updateDeepGate(int24,uint128,uint128,uint128,uint128,uint160,int256,int256)": "infinite"
			},
			"internal": {
				"findNextWordHigh(struct LimitswapStorage.FinderState memory)": "infinite",
				"findNextWordLow(struct LimitswapStorage.FinderState memory)": "infinite",
				"isExploited(int24,uint256)": "infinite",
				"rangeExecLimitOrder(int24,int24,uint256)": "infinite",
				"tradeAllRemainingByCurve(struct LimitswapStorage.FinderState memory)": "infinite",
				"tradeAtTick(struct LimitswapStorage.FinderState memory)": "infinite",
				"tradeInWord(struct LimitswapStorage.FinderState memory)": "infinite",
				"tradeStart(struct LimitswapStorage.FinderState memory)": "infinite",
				"tradeToTick(struct LimitswapStorage.StepState memory)": "infinite",
				"updateDeep(int24,struct LimitswapStorage.tickDeep memory,uint160,int256,int256)": "infinite",
				"wordHighMap(int8)": "42"
			}
		},
		"methodIdentifiers": {
			"amount0ToAmount1(uint256,uint160)": "bbea8f6a",
			"amount1ToAmount0(uint256,uint160)": "7a95fff4",
			"buyShare(address,int24)": "2a354ad9",
			"currentSqrtPriceX96()": "47fd03d9",
			"getLimitTokensCode(int24,uint256,bool)": "469da37e",
			"isExploitedGate(int24,uint256)": "f5d588de",
			"liquidity()": "1a686502",
			"reserve0()": "443cb4bc",
			"reserve1()": "5a76f25e",
			"sellShare(address,int24)": "ef6ae4cc",
			"tickBitmap(int16)": "5339c296",
			"token0()": "0dfe1681",
			"token1()": "d21220a7",
			"trade(uint256,bool,int24)": "571a4c72",
			"tradeStartGate(uint256,bool,int24)": "02ea5e1f",
			"unExploitedTick(int24,uint256)": "fdda7ec5",
			"updateDeepGate(int24,uint128,uint128,uint128,uint128,uint160,int256,int256)": "f46c855e"
		}
	},
	"abi": [
		{
			"inputs": [
				{
					"internalType": "uint256",
					"name": "amount0",
					"type": "uint256"
				},
				{
					"internalType": "uint160",
					"name": "sqrtPriceX96",
					"type": "uint160"
				}
			],
			"name": "amount0ToAmount1",
			"outputs": [
				{
					"internalType": "uint256",
					"name": "amount1",
					"type": "uint256"
				}
			],
			"stateMutability": "pure",
			"type": "function"
		},
		{
			"inputs": [
				{
					"internalType": "uint256",
					"name": "amount1",
					"type": "uint256"
				},
				{
					"internalType": "uint160",
					"name": "sqrtPriceX96",
					"type": "uint160"
				}
			],
			"name": "amount1ToAmount0",
			"outputs": [
				{
					"internalType": "uint256",
					"name": "amount0",
					"type": "uint256"
				}
			],
			"stateMutability": "pure",
			"type": "function"
		},
		{
			"inputs": [
				{
					"internalType": "address",
					"name": "",
					"type": "address"
				},
				{
					"internalType": "int24",
					"name": "",
					"type": "int24"
				}
			],
			"name": "buyShare",
			"outputs": [
				{
					"internalType": "uint256",
					"name": "",
					"type": "uint256"
				}
			],
			"stateMutability": "view",
			"type": "function"
		},
		{
			"inputs": [],
			"name": "currentSqrtPriceX96",
			"outputs": [
				{
					"internalType": "uint160",
					"name": "",
					"type": "uint160"
				}
			],
			"stateMutability": "view",
			"type": "function"
		},
		{
			"inputs": [
				{
					"internalType": "int24",
					"name": "tick",
					"type": "int24"
				},
				{
					"internalType": "uint256",
					"name": "share",
					"type": "uint256"
				},
				{
					"internalType": "bool",
					"name": "isSellShare",
					"type": "bool"
				}
			],
			"name": "getLimitTokensCode",
			"outputs": [
				{
					"internalType": "uint256",
					"name": "token0Out",
					"type": "uint256"
				},
				{
					"internalType": "uint256",
					"name": "token1Out",
					"type": "uint256"
				}
			],
			"stateMutability": "view",
			"type": "function"
		},
		{
			"inputs": [
				{
					"internalType": "int24",
					"name": "tick",
					"type": "int24"
				},
				{
					"internalType": "uint256",
					"name": "buyside",
					"type": "uint256"
				}
			],
			"name": "isExploitedGate",
			"outputs": [
				{
					"internalType": "bool",
					"name": "",
					"type": "bool"
				}
			],
			"stateMutability": "view",
			"type": "function"
		},
		{
			"inputs": [],
			"name": "liquidity",
			"outputs": [
				{
					"internalType": "uint256",
					"name": "",
					"type": "uint256"
				}
			],
			"stateMutability": "view",
			"type": "function"
		},
		{
			"inputs": [],
			"name": "reserve0",
			"outputs": [
				{
					"internalType": "uint256",
					"name": "",
					"type": "uint256"
				}
			],
			"stateMutability": "view",
			"type": "function"
		},
		{
			"inputs": [],
			"name": "reserve1",
			"outputs": [
				{
					"internalType": "uint256",
					"name": "",
					"type": "uint256"
				}
			],
			"stateMutability": "view",
			"type": "function"
		},
		{
			"inputs": [
				{
					"internalType": "address",
					"name": "",
					"type": "address"
				},
				{
					"internalType": "int24",
					"name": "",
					"type": "int24"
				}
			],
			"name": "sellShare",
			"outputs": [
				{
					"internalType": "uint256",
					"name": "",
					"type": "uint256"
				}
			],
			"stateMutability": "view",
			"type": "function"
		},
		{
			"inputs": [
				{
					"internalType": "int16",
					"name": "",
					"type": "int16"
				}
			],
			"name": "tickBitmap",
			"outputs": [
				{
					"internalType": "uint256",
					"name": "",
					"type": "uint256"
				}
			],
			"stateMutability": "view",
			"type": "function"
		},
		{
			"inputs": [],
			"name": "token0",
			"outputs": [
				{
					"internalType": "address",
					"name": "",
					"type": "address"
				}
			],
			"stateMutability": "view",
			"type": "function"
		},
		{
			"inputs": [],
			"name": "token1",
			"outputs": [
				{
					"internalType": "address",
					"name": "",
					"type": "address"
				}
			],
			"stateMutability": "view",
			"type": "function"
		},
		{
			"inputs": [
				{
					"internalType": "uint256",
					"name": "amountIn",
					"type": "uint256"
				},
				{
					"internalType": "bool",
					"name": "buyside",
					"type": "bool"
				},
				{
					"internalType": "int24",
					"name": "stopTick",
					"type": "int24"
				}
			],
			"name": "trade",
			"outputs": [
				{
					"internalType": "uint256",
					"name": "amountRemain",
					"type": "uint256"
				},
				{
					"internalType": "uint256",
					"name": "amountOut",
					"type": "uint256"
				},
				{
					"internalType": "uint160",
					"name": "sqrtPriceX96",
					"type": "uint160"
				}
			],
			"stateMutability": "nonpayable",
			"type": "function"
		},
		{
			"inputs": [
				{
					"internalType": "uint256",
					"name": "amountIn",
					"type": "uint256"
				},
				{
					"internalType": "bool",
					"name": "buyside",
					"type": "bool"
				},
				{
					"internalType": "int24",
					"name": "stopTick",
					"type": "int24"
				}
			],
			"name": "tradeStartGate",
			"outputs": [
				{
					"internalType": "uint256",
					"name": "amountOut",
					"type": "uint256"
				},
				{
					"internalType": "uint256",
					"name": "deepBurned",
					"type": "uint256"
				},
				{
					"internalType": "uint160",
					"name": "sqrtPriceX96",
					"type": "uint160"
				}
			],
			"stateMutability": "view",
			"type": "function"
		},
		{
			"inputs": [
				{
					"internalType": "int24",
					"name": "tick",
					"type": "int24"
				},
				{
					"internalType": "uint256",
					"name": "buyside",
					"type": "uint256"
				}
			],
			"name": "unExploitedTick",
			"outputs": [],
			"stateMutability": "nonpayable",
			"type": "function"
		},
		{
			"inputs": [
				{
					"internalType": "int24",
					"name": "tick",
					"type": "int24"
				},
				{
					"internalType": "uint128",
					"name": "buy",
					"type": "uint128"
				},
				{
					"internalType": "uint128",
					"name": "bought",
					"type": "uint128"
				},
				{
					"internalType": "uint128",
					"name": "sell",
					"type": "uint128"
				},
				{
					"internalType": "uint128",
					"name": "sold",
					"type": "uint128"
				},
				{
					"internalType": "uint160",
					"name": "sqrtPriceX96",
					"type": "uint160"
				},
				{
					"internalType": "int256",
					"name": "newDeep0",
					"type": "int256"
				},
				{
					"internalType": "int256",
					"name": "newDeep1",
					"type": "int256"
				}
			],
			"name": "updateDeepGate",
			"outputs": [],
			"stateMutability": "nonpayable",
			"type": "function"
		}
	]
}