{
	"data": {
		"bytecode": {
			"linkReferences": {},
			"object": "60a060405234801561001057600080fd5b5060405162004ac038038062004ac08339818101604052602081101561003557600080fd5b5051606081901b6001600160601b0319166080526001600160a01b0316614a47620000796000398061026f52806126e4528061398d52806143cb5250614a476000f3fe608060405234801561001057600080fd5b506004361061025e5760003560e01c8063679f05791161014657806395d89b41116100c3578063d21220a711610087578063d21220a7146108a9578063d8f9f12d146108b1578063dd62ed3e146108b9578063ef6ae4cc146108e7578063f81cfa7614610916578063fcf969521461093c5761025e565b806395d89b41146107cf578063a9059cbb146107d7578063bbea8f6a14610803578063bf62f97c1461082f578063cbfe3ab31461085d5761025e565b8063834d04af1161010a578063834d04af1461076357806388bb52ed1461076b57806389afcb44146107995780638c7987b7146107bf5780638fbd64cb146107c75761025e565b8063679f0579146106355780636a627842146106bf5780636bd97f1d146106e557806370a08231146107115780637a95fff4146107375761025e565b806325a6e322116101df57806347fd03d9116101a357806347fd03d91461056b5780634af0871b146105735780634d630907146105c85780635339c296146105d057806358ecdc35146105f05780635a76f25e1461062d5761025e565b806325a6e322146104f15780632a354ad91461050e578063313ce5671461053d5780633b8a829d1461055b578063443cb4bc146105635761025e565b806315d44a6d1161022657806315d44a6d1461044257806318160ddd146104725780631a6865021461047a5780631b69c9411461048257806323b872dd146104bb5761025e565b8063065e53601461030a57806306fdde0314610329578063095ea7b3146103a65780630c4d32ed146103e65780630dfe16811461041e575b33301461026a57600080fd5b6000807f00000000000000000000000000000000000000000000000000000000000000006001600160a01b03166000366040518083838082843760405192019450600093509091505080830381855af49150503d80600081146102e9576040519150601f19603f3d011682016040523d82523d6000602084013e6102ee565b606091505b50915091508160008114610303573d60208301f35b3d60208301fd5b610312610962565b6040805160029290920b8252519081900360200190f35b61033161097f565b6040805160208082528351818301528351919283929083019185019080838360005b8381101561036b578181015183820152602001610353565b50505050905090810190601f1680156103985780820380516001836020036101000a031916815260200191505b509250505060405180910390f35b6103d2600480360360408110156103bc57600080fd5b506001600160a01b038135169060200135610cbe565b604080519115158252519081900360200190f35b61040c600480360360208110156103fc57600080fd5b50356001600160a01b0316610d25565b60408051918252519081900360200190f35b610426610d37565b604080516001600160a01b039092168252519081900360200190f35b6104706004803603604081101561045857600080fd5b506001600160a01b0381358116916020013516610d46565b005b61040c610d97565b61040c610d9d565b6104a26004803603602081101561049857600080fd5b503560020b610da3565b6040805192835260208301919091528051918290030190f35b6103d2600480360360608110156104d157600080fd5b506001600160a01b03813581169160208101359091169060400135610e0f565b6104a26004803603602081101561050757600080fd5b5035610ea4565b61040c6004803603604081101561052457600080fd5b506001600160a01b03813516906020013560020b610f2c565b610545610f62565b6040805160ff9092168252519081900360200190f35b61040c610f67565b61040c610f6d565b610426610f8e565b6105a76004803603606081101561058957600080fd5b508035906020810135151590604001356001600160a01b0316610f9d565b604080519283526001600160a01b0390911660208301528051918290030190f35b61040c6111a9565b61040c600480360360208110156105e657600080fd5b503560010b6111af565b6104a26004803603608081101561060657600080fd5b50803560020b906001600160a01b03602082013516906040810135906060013515156111c1565b61040c6112ea565b6104706004803603608081101561064b57600080fd5b6001600160a01b038235169160208101359160408201359190810190608081016060820135600160201b81111561068157600080fd5b82018360208201111561069357600080fd5b803590602001918460018302840111600160201b831117156106b457600080fd5b50909250905061130a565b61040c600480360360208110156106d557600080fd5b50356001600160a01b031661167f565b6104a2600480360360408110156106fb57600080fd5b506001600160a01b0381351690602001356118d0565b61040c6004803603602081101561072757600080fd5b50356001600160a01b0316611940565b61040c6004803603604081101561074d57600080fd5b50803590602001356001600160a01b0316611952565b61040c6119a4565b61040c6004803603606081101561078157600080fd5b50803560020b906020810135906040013515156119aa565b6104a2600480360360208110156107af57600080fd5b50356001600160a01b0316612529565b6104266126e2565b61040c612706565b61033161270c565b6103d2600480360360408110156107ed57600080fd5b506001600160a01b0381351690602001356129ae565b61040c6004803603604081101561081957600080fd5b50803590602001356001600160a01b03166129ce565b6104a26004803603606081101561084557600080fd5b50803560020b90602081013590604001351515612a27565b6108826004803603604081101561087357600080fd5b50803590602001351515612f57565b6040805193845260208401929092526001600160a01b031682820152519081900360600190f35b61042661305b565b6104a261306a565b61040c600480360360408110156108cf57600080fd5b506001600160a01b0381358116916020013516613081565b61040c600480360360408110156108fd57600080fd5b506001600160a01b03813516906020013560020b61309e565b6103d26004803603604081101561092c57600080fd5b50803560020b90602001356130a9565b61040c6004803603602081101561095257600080fd5b50356001600160a01b031661317a565b60025460009061097a906001600160a01b031661318c565b905090565b601154604080516306fdde0360e01b815290516060926001600160a01b0316916306fdde03916004808301926000929190829003018186803b1580156109c457600080fd5b505afa1580156109d8573d6000803e3d6000fd5b505050506040513d6000823e601f3d908101601f191682016040526020811015610a0157600080fd5b8101908080516040519392919084600160201b821115610a2057600080fd5b908301906020820185811115610a3557600080fd5b8251600160201b811182820188101715610a4e57600080fd5b82525081516020918201929091019080838360005b83811015610a7b578181015183820152602001610a63565b50505050905090810190601f168015610aa85780820380516001836020036101000a031916815260200191505b5060408181526012546306fdde0360e01b835290516001600160a01b0390911694506306fdde03935060048083019350600092829003018186803b158015610aef57600080fd5b505afa158015610b03573d6000803e3d6000fd5b505050506040513d6000823e601f3d908101601f191682016040526020811015610b2c57600080fd5b8101908080516040519392919084600160201b821115610b4b57600080fd5b908301906020820185811115610b6057600080fd5b8251600160201b811182820188101715610b7957600080fd5b82525081516020918201929091019080838360005b83811015610ba6578181015183820152602001610b8e565b50505050905090810190601f168015610bd35780820380516001836020036101000a031916815260200191505b5060405250505060405160200180807302634b6b4ba29bbb0b8102628102a37b5b2b71d160651b81525060140183805190602001908083835b60208310610c2b5780518252601f199092019160209182019101610c0c565b6001836020036101000a03801982511681845116808217855250505050505090500180602f60f81b81525060010182805190602001908083835b60208310610c845780518252601f199092019160209182019101610c65565b6001836020036101000a03801982511681845116808217855250505050505090500192505050604051602081830303815290604052905090565b3360008181526019602090815260408083206001600160a01b038716808552908352818420869055815186815291519394909390927f8c5be1e5ebec7d5bd14f71427d1e84f3dd0314c0f7b2291e5b200ac8c7c3b925928290030190a35060015b92915050565b601a6020526000908152604090205481565b6011546001600160a01b031681565b6011546001600160a01b031615610d5c57600080fd5b601180546001600160a01b039384166001600160a01b03199182161790915560128054929093169116179055601e805460ff19166001179055565b60175481565b60035481565b600080610db18360006130a9565b610dda57600283810b900b6000908152600b60205260409020600101546001600160801b031691505b610de58360016130a9565b610e0a5750600282810b900b6000908152600b60205260409020546001600160801b03165b915091565b6001600160a01b038316600090815260196020908152604080832033845290915281205460001914610e8e576001600160a01b0384166000908152601960209081526040808320338452909152902054610e6990836134ab565b6001600160a01b03851660009081526019602090815260408083203384529091529020555b610e998484846134fb565b5060015b9392505050565b600080610eb36017548461362a565b925060175460001415610ecb57506000905080610e0a565b6000610ed5610f6d565b9050610ee48482601754613640565b925082811415610ef657600019909201915b600254610f0d9084906001600160a01b03166129ce565b915081610f186112ea565b1415610f2657600019909101905b50915091565b60006013815b6001600160a01b039094166000908152930160209081526040808520600294850b90940b85529290525090205490565b601281565b601d5481565b60035460025460009161097a91600160601b906001600160a01b03166136ef565b6002546001600160a01b031681565b601e54600090819060ff16610fdf576040805162461bcd60e51b81526020600482015260036024820152624c4f4b60e81b604482015290519081900360640190fd5b601e805460ff191690556002546001600160a01b0316610ffe57600080fd5b61100785613729565b50831561103357611016613744565b602054611023908761385f565b111561102e57600080fd5b611053565b61103b6138ae565b601f54611048908761385f565b111561105357600080fd5b61107185858661106757627ffffe1961106c565b627fffff5b613928565b90935091506000905084611086576000611088565b825b9050600085611097578361109a565b60005b90506000806110ac8785856001613aff565b915091506110ba8282613ba5565b337ff387028d07d8f15c52617b2a0c42ef249b749ed1a07f91b5a79560c3327a701e896110ef576110ea8b613729565b6110f2565b60005b8a6110fe576000611107565b6111078c613729565b611112868903613729565b61111d868903613729565b600254604080516001600160801b039687168152948616602086015292851684840152931660608301526001600160a01b03909216608082015290519081900360a00190a26000821161117257808603611176565b8186035b95506111806138ae565b601f5561118b613744565b6020555050601e805460ff1916600117905550919590945092505050565b601f5481565b60106020526000908152604090205481565b60408051600286900b60248201526001600160a01b0385166044820152606481018490528215156084808301919091528251808303909101815260a490910182526020810180516001600160e01b03166361d6569b60e11b17815291518151600093849384933093919290918291908083835b602083106112535780518252601f199092019160209182019101611234565b6001836020036101000a038019825116818451168082178552505050505050905001915050600060405180830381855afa9150503d80600081146112b3576040519150601f19603f3d011682016040523d82523d6000602084013e6112b8565b606091505b509150508080602001905160408110156112d157600080fd5b5080516020909101519093509150505b94509492505050565b60035460025460009161097a916001600160a01b0316600160601b6136ef565b601e5460ff16611347576040805162461bcd60e51b81526020600482015260036024820152624c4f4b60e81b604482015290519081900360640190fd5b601e805460ff1916905560006113618560036103e86136ef565b905060006113738560036103e86136ef565b9050600061137f6138ae565b9050600061138b613744565b6001546040805163931a322760e01b815233600482015290519293506001600160a01b039091169163931a322791602480820192602092909190829003018186803b1580156113d957600080fd5b505afa1580156113ed573d6000803e3d6000fd5b505050506040513d602081101561140357600080fd5b50511561140f57600080fd5b87156114b25760015460115460408051633c4d60eb60e11b81526001600160a01b0392831660048201529051919092169163789ac1d6916024808301926020929190829003018186803b15801561146557600080fd5b505afa158015611479573d6000803e3d6000fd5b505050506040513d602081101561148f57600080fd5b50511561149b57600080fd5b6011546114b2906001600160a01b03168a8a613cc4565b86156115555760015460125460408051633c4d60eb60e11b81526001600160a01b0392831660048201529051919092169163789ac1d6916024808301926020929190829003018186803b15801561150857600080fd5b505afa15801561151c573d6000803e3d6000fd5b505050506040513d602081101561153257600080fd5b50511561153e57600080fd5b601254611555906001600160a01b03168a89613cc4565b336001600160a01b031663097b90fb858589896040518563ffffffff1660e01b815260040180858152602001848152602001806020018281038252848482818152602001925080828437600081840152601f19601f82011690508083019250505095505050505050600060405180830381600087803b1580156115d757600080fd5b505af11580156115eb573d6000803e3d6000fd5b5050505060006115f96138ae565b90506000611605613744565b905081611612858861385f565b111561161d57600080fd5b80611628848761385f565b111561163357600080fd5b61164f61164083866134ab565b61164a83866134ab565b613ba5565b6116576138ae565b601f55611662613744565b6020555050601e805460ff19166001179055505050505050505050565b601e5460009060ff166116bf576040805162461bcd60e51b81526020600482015260036024820152624c4f4b60e81b604482015290519081900360640190fd5b601e805460ff19169055601f546000906116e1906116db6138ae565b906134ab565b905060006116f36020546116db613744565b90506116fe82613729565b5061170881613729565b506002546000906001600160a01b03166117705761172e6117298385613e2d565b613e90565b600381905561174b9061174690600160601b86613640565b613ee1565b600280546001600160a01b0319166001600160a01b0392909216919091179055611807565b60025460009061178a9085906001600160a01b03166129ce565b9050808310156117c0576002546000906117ae9083906001600160a01b0316611952565b90506117bd8186036000613ba5565b93505b808311156117d5576117d56000828503613ba5565b6117dd610f6d565b91506118026117ec838661385f565b6002546001600160a01b0316600160601b613640565b600355505b6017546118315760025461182a9084906001600160a01b0316600160601b613640565b9350611841565b61183e8360175483613640565b93505b61184b8585613ef7565b600254600354604080518681526001600160a01b0393841660208201529288168382015260608301919091525133917ff9c32fbc56ff04f32a233ebc26e388564223745e28abd8d0781dd906537f563e919081900360800190a26118ad6138ae565b601f556118b8613744565b6020555050601e805460ff1916600117905550919050565b6001600160a01b0382166000908152601a6020526040812054601c5482916119089185916118fe91906134ab565b600160601b613640565b6001600160a01b0385166000908152601a6020526040902054601c549193506119379185916118fe91906134ab565b90509250929050565b60186020526000908152604090205481565b60006001600160a01b0382161580611968575082155b1561197557506000610d1f565b610e9d61199084600160601b856001600160a01b0316613640565b600160601b846001600160a01b0316613640565b601c5481565b601e5460009060ff166119ea576040805162461bcd60e51b81526020600482015260036024820152624c4f4b60e81b604482015290519081900360640190fd5b601e805460ff191690556002546001600160a01b0316611a0957600080fd5b6000611a1485613ffc565b600286810b900b6000908152600b60209081526040808320815160808101835281546001600160801b038082168352600160801b918290048116958301959095526001909201548085169382019390935291049091166060820152919250611a8091879184908061432d565b611a8984613729565b508215611ac857611a986138ae565b601f54611aa5908661385f565b1115611ac357601154611ac3906001600160a01b03163330876144d6565b611afb565b611ad0613744565b602054611add908661385f565b1115611afb57601254611afb906001600160a01b03163330876144d6565b33803b8015611b6e57816001600160a01b03166367e404ce6040518163ffffffff1660e01b8152600401602060405180830381600087803b158015611b3f57600080fd5b505af1158015611b53573d6000803e3d6000fd5b505050506040513d6020811015611b6957600080fd5b505191505b50600085858015611b8b5750611b82610962565b60020b8860020b125b80611bab575085158015611bab5750611ba2610962565b60020b8860020b135b15611bc357611bbc8787158a613928565b5090975091505b861561233957600288810b900b6000908152600b60209081526040808320815160808101835281546001600160801b038082168352600160801b91829004811695830195909552600190920154808516938201939093529104909116606082015281908815611d1d57611c378b60016130a9565b158015611c4d575080516001600160801b031615155b15611cda578051611c70906001600160801b0316611c6b8c8a6129ce565b61362a565b9250611c7c8388611952565b9150611c8783613729565b8151036001600160801b03168152611c9e82613729565b602082018051919091016001600160801b03169052611cbd8a846134ab565b99508915611ccd57600019909901985b611cd7858461385f565b94505b611ce38a613729565b604082018051919091016001600160801b03169052611d188b8289611d078e614632565b611d1088614632565b60000361432d565b611e0a565b611d288b60006130a9565b158015611d425750600081604001516001600160801b0316115b15611dd357611d6281604001516001600160801b0316611c6b8c8a611952565b9250611d6e83886129ce565b9150611d7983613729565b604082018051919091036001600160801b03169052611d9782613729565b606082018051919091016001600160801b03169052611db68a846134ab565b99508915611dc657600019909901985b611dd0858461385f565b94505b611ddc8a613729565b8151016001600160801b03168152611e0a8b8289611df987614632565b600003611e058f614632565b61432d565b601589611e18576000611e1b565b60015b60ff1660028110611e2857fe5b60028d810b900b600090815291016020526040902054611e4e57633b9aca009750611ef4565b8981604001516001600160801b03161415611e9b576040805162461bcd60e51b81526020600482015260086024820152672224ab22a92927a960c11b604482015290519081900360640190fd5b611ef18a60158b611ead576000611eb0565b60015b60ff1660028110611ebd57fe5b60028f810b900b600090815291016020526040908190205490840151611eec906001600160801b03168e6134ab565b613640565b97505b611f328860158b611f06576000611f09565b60015b60ff1660028110611f1657fe5b60028f810b900b6000908152910160205260409020549061385f565b60158a611f40576000611f43565b60015b60ff1660028110611f5057fe5b60028e810b900b600090815291016020526040902055601389611f74576000611f77565b60015b60ff1660028110611f8457fe5b6001600160a01b038816600090815291016020908152604080832060028f810b900b845290915290206003015460158a611fbf576000611fc2565b60015b60ff1660028110611fcf57fe5b0160008d60020b60020b815260200190815260200160002060020154111561205857611ffd868c8b33614648565b60138961200b57600061200e565b60015b60ff166002811061201b57fe5b6001600160a01b038816600090815291016020908152604080832060028f810b810b85529252822082815560018101839055908101829055600301555b6120c78860138b61206a57600061206d565b60015b60ff166002811061207a57fe5b016000896001600160a01b03166001600160a01b0316815260200190815260200160002060008e60020b60020b81526020019081526020016000206000015461385f90919063ffffffff16565b60138a6120d55760006120d8565b60015b60ff16600281106120e557fe5b016000886001600160a01b03166001600160a01b0316815260200190815260200160002060008d60020b60020b81526020019081526020016000206000018190555061216c60158a61213857600061213b565b60015b60ff166002811061214857fe5b60028e810b900b6000908152910160205260409020600101548b600160601b613640565b60138a61217a57600061217d565b60015b60ff166002811061218a57fe5b016000886001600160a01b03166001600160a01b0316815260200190815260200160002060008d60020b60020b81526020019081526020016000206001018190555061223b8a60138b6121de5760006121e1565b60015b60ff16600281106121ee57fe5b016000896001600160a01b03166001600160a01b0316815260200190815260200160002060008e60020b60020b81526020019081526020016000206002015461385f90919063ffffffff16565b60138a61224957600061224c565b60015b60ff166002811061225957fe5b016000886001600160a01b03166001600160a01b0316815260200190815260200160002060008d60020b60020b8152602001908152602001600020600201819055506015896122a95760006122ac565b60015b60ff16600281106122b957fe5b0160008c60020b60020b81526020019081526020016000206002015460138a6122e35760006122e6565b60015b60ff16600281106122f357fe5b016000886001600160a01b03166001600160a01b0316815260200190815260200160002060008d60020b60020b8152602001908152602001600020600301819055505050505b811561243b5760008661234c578261234f565b60005b905060008761235f576000612361565b835b90506000806123733385856001613aff565b915091506123818282613ba5565b866001600160a01b03167ff387028d07d8f15c52617b2a0c42ef249b749ed1a07f91b5a79560c3327a701e8b6123b85760006123c3565b6123c38d8803613729565b8c6123d8576123d38e8903613729565b6123db565b60005b6123e6868903613729565b6123f1868903613729565b600254604080516001600160801b039687168152948616602086015292851684840152931660608301526001600160a01b03909216608082015290519081900360a00190a2505050505b826001600160a01b03167ff1a73c4ba2a463dd1bd57bbae8bf5385904b0e25b6eb91b82276a57481b9fc68898861247a5761247588613729565b61247d565b60005b89612489576000612492565b61249289613729565b8a61249e5760006124a7565b6124a78c613729565b8b6124ba576124b58d613729565b6124bd565b60005b6040805160029690960b86526001600160801b0394851660208701529284168584015290831660608501529091166080830152519081900360a00190a26125026138ae565b601f5561250d613744565b6020555050601e805460ff191660011790555090949350505050565b601e54600090819060ff1661256b576040805162461bcd60e51b81526020600482015260036024820152624c4f4b60e81b604482015290519081900360640190fd5b601e805460ff191690553060009081526018602052604090205461258e81610ea4565b90935091506125a26117ec846116db610f6d565b60038190556125b15760016003555b306000908152601a6020526040902054601c546125df916125d89184916118fe91906134ab565b849061385f565b306000908152601b6020526040902054601d5491945061260f916126089184916118fe916134ab565b839061385f565b601154909250612634906001600160a01b03168561262f86611c6b6138ae565b613cc4565b601254612651906001600160a01b03168561262f85611c6b613744565b61265b308261486c565b5050600254600354604080518681526001600160a01b0393841660208201529287168382015260608301919091525133917fa476cebfbe7485684f5578d84d8a64a8afe93a0a2a3047bd6f3e681e108b8f11919081900360800190a26126bf6138ae565b601f556126ca613744565b60205550601e805460ff191660011790559092909150565b7f000000000000000000000000000000000000000000000000000000000000000081565b60205481565b601154604080516395d89b4160e01b815290516060926001600160a01b0316916395d89b41916004808301926000929190829003018186803b15801561275157600080fd5b505afa158015612765573d6000803e3d6000fd5b505050506040513d6000823e601f3d908101601f19168201604052602081101561278e57600080fd5b8101908080516040519392919084600160201b8211156127ad57600080fd5b9083019060208201858111156127c257600080fd5b8251600160201b8111828201881017156127db57600080fd5b82525081516020918201929091019080838360005b838110156128085781810151838201526020016127f0565b50505050905090810190601f1680156128355780820380516001836020036101000a031916815260200191505b5060408181526012546395d89b4160e01b835290516001600160a01b0390911694506395d89b41935060048083019350600092829003018186803b15801561287c57600080fd5b505afa158015612890573d6000803e3d6000fd5b505050506040513d6000823e601f3d908101601f1916820160405260208110156128b957600080fd5b8101908080516040519392919084600160201b8211156128d857600080fd5b9083019060208201858111156128ed57600080fd5b8251600160201b81118282018810171561290657600080fd5b82525081516020918201929091019080838360005b8381101561293357818101518382015260200161291b565b50505050905090810190601f1680156129605780820380516001836020036101000a031916815260200191505b5060405250505060405160200180806a02634b6b4ba29bbb0b81d160ad1b815250600b01838051906020019080838360208310610c2b5780518252601f199092019160209182019101610c0c565b60006129b982613729565b506129c53384846134fb565b50600192915050565b60006001600160a01b03821615806129e4575082155b156129f157506000610d1f565b6060612a136001600160a01b03841682612a0b8783613e2d565b901c90613e2d565b901c90508015610d1f576000190192915050565b601e54600090819060ff16612a69576040805162461bcd60e51b81526020600482015260036024820152624c4f4b60e81b604482015290519081900360640190fd5b601e805460ff191690556000612a7e86613ffc565b600287810b900b6000908152600b60209081526040808320815160808101835281546001600160801b038082168352600160801b918290048116958301959095526001909201548085169382019390935291049091166060820152919250612aea91889184908061432d565b600286810b900b6000908152600b6020908152604091829020825160808101845281546001600160801b038082168352600160801b9182900481169483019490945260019092015480841694820194909452920416606082015233803b8015612bb757816001600160a01b03166367e404ce6040518163ffffffff1660e01b8152600401602060405180830381600087803b158015612b8857600080fd5b505af1158015612b9c573d6000803e3d6000fd5b505050506040513d6020811015612bb257600080fd5b505191505b612bc389838a8a6111c1565b90965094506000601388612bd8576000612bdb565b60015b60ff1660028110612be857fe5b6001600160a01b038516600090815291016020908152604080832060028e810b810b855290835292819020815160808101835281548082526001830154948201949094529381015491840191909152600301546060830152909150612c4e908a9061362a565b8151909950612c6857600080965096505050505050612f40565b8051600090612c77908b6134ab565b9050612c8c8183604001518460000151613640565b604083015260208201518251612ca3918391613640565b60208301528082528160138a612cba576000612cbd565b60015b60ff1660028110612cca57fe5b016000866001600160a01b03166001600160a01b0316815260200190815260200160002060008d60020b60020b8152602001908152602001600020600082015181600001556020820151816001015560408201518160020155606082015181600301559050508815612d9057612d3f88613729565b604086018051919091036001600160801b03169052612d5d87613729565b606086018051919091036001600160801b03169052612d8b8b8688612d818c614632565b600003600061432d565b612dd6565b612d9988613729565b602086018051919091036001600160801b03169052612db787613729565b8551036001600160801b03168552612dd68b86886000611d108c614632565b888015612de35750600087115b15612e2257612e04600061164a6103e8612dfe8b6003613e2d565b90614970565b612e1f612e186103e8612dfe8a6003613e2d565b88906134ab565b96505b88158015612e305750600088115b15612e6e57612e50612e496103e8612dfe8b6003613e2d565b6000613ba5565b612e6b612e646103e8612dfe8b6003613e2d565b89906134ab565b97505b612e7b3389896000613aff565b5050836001600160a01b03167f884e468729443f48e19c8f9ae60f027026340405904d8aca6016de907f6715388c8b612ebc57612eb78d613729565b612ebf565b60005b8c612ecb576000612ed4565b612ed48e613729565b612edd8d613729565b612ee68d613729565b6040805160029690960b86526001600160801b0394851660208701529284168584015290831660608501529091166080830152519081900360a00190a2612f2b6138ae565b601f55612f36613744565b6020555050505050505b601e805460ff191660011790559094909350915050565b600080808080306302ea5e1f60e01b888880612f7757627ffffe19612f7c565b627fffff5b604080516024810194909452911515604484015260020b60648084019190915281518084039091018152608490920181526020820180516001600160e01b03166001600160e01b0319909416939093178352518151919290918291908083835b60208310612ffb5780518252601f199092019160209182019101612fdc565b6001836020036101000a038019825116818451168082178552505050505050905001915050600060405180830381855afa9150503d80600081146102e9576040519150601f19603f3d011682016040523d82523d6000602084013e6102ee565b6012546001600160a01b031681565b600454608081901c916001600160801b0390911690565b601960209081526000928352604080842090915290825290205481565b600060136001610f32565b60008060008060006130ba87614983565b93509350935093506130e2600587600281106130d257fe5b01546130dd866149a1565b6149aa565b156130f4576001945050505050610d1f565b61311d6007876002811061310457fe5b600087810b810b815291016020526040902054846149aa565b1561312f576001945050505050610d1f565b61315b6009876002811061313f57fe5b600185810b900b600090815291016020526040902054826149aa565b1561316d576001945050505050610d1f565b6000945050505050610d1f565b601b6020526000908152604090205481565b60006401000276a36001600160a01b038316108015906131c8575073fffd8963efd1fc6a506488495d951d5263988d266001600160a01b038316105b6131fd576040805162461bcd60e51b81526020600482015260016024820152602960f91b604482015290519081900360640190fd5b640100000000600160c01b03602083901b166001600160801b03811160071b81811c67ffffffffffffffff811160061b90811c63ffffffff811160051b90811c61ffff811160041b90811c60ff8111600390811b91821c600f811160021b90811c918211600190811b92831c9790881196179094179092171790911717176080811061329157607f810383901c915061329b565b80607f0383901b91505b908002607f81811c60ff83811c9190911c800280831c81831c1c800280841c81841c1c800280851c81851c1c800280861c81861c1c800280871c81871c1c800280881c81881c1c800280891c81891c1c8002808a1c818a1c1c8002808b1c818b1c1c8002808c1c818c1c1c8002808d1c818d1c1c8002808e1c9c81901c9c909c1c80029c8d901c9e9d607f198f0160401b60c09190911c678000000000000000161760c19b909b1c674000000000000000169a909a1760c29990991c672000000000000000169890981760c39790971c671000000000000000169690961760c49590951c670800000000000000169490941760c59390931c670400000000000000169290921760c69190911c670200000000000000161760c79190911c670100000000000000161760c89190911c6680000000000000161760c99190911c6640000000000000161760ca9190911c6620000000000000161760cb9190911c6610000000000000161760cc9190911c6608000000000000161760cd9190911c66040000000000001617693627a301d71055774c8581026f028f6481ab7f045a5af012a19d003aa9198101608090811d906fdb2df09e81959a81455e260799a0632f8301901d600281810b9083900b1461349c57886001600160a01b031661348082613ffc565b6001600160a01b031611156134955781613497565b805b61349e565b815b9998505050505050505050565b80820382811115610d1f576040805162461bcd60e51b815260206004820152601560248201527464732d6d6174682d7375622d756e646572666c6f7760581b604482015290519081900360640190fd5b6001600160a01b0380831660009081526018602052604080822054928616825290205461352890836134ab565b6001600160a01b03851660009081526018602052604090205561354b818361385f565b6001600160a01b038085166000818152601860209081526040808320959095559288168152601a909252828220549082529190205461358c919083856149b8565b6001600160a01b038085166000818152601a60209081526040808320959095559288168152601b90925282822054908252919020546135cd919083856149b8565b6001600160a01b038085166000818152601b602090815260409182902094909455805186815290519193928816927fddf252ad1be2c89b69c2b068fc378daa952ba7f163c4a11628f55a4df523b3ef92918290030190a350505050565b60008183106136395781610e9d565b5090919050565b6000808060001985870986860292508281109083900303905080613676576000841161366b57600080fd5b508290049050610e9d565b80841161368257600080fd5b6000848688096000868103871696879004966002600389028118808a02820302808a02820302808a02820302808a02820302808a02820302808a02909103029181900381900460010186841190950394909402919094039290920491909117919091029150509392505050565b60006136fc848484613640565b90506000828061370857fe5b8486091115610e9d57600019811061371f57600080fd5b6001019392505050565b806001600160801b038116811461373f57600080fd5b919050565b601254604080513060248083019190915282518083039091018152604490910182526020810180516001600160e01b03166370a0823160e01b17815291518151600094859485946001600160a01b039092169391928291908083835b602083106137bf5780518252601f1990920191602091820191016137a0565b6001836020036101000a038019825116818451168082178552505050505050905001915050600060405180830381855afa9150503d806000811461381f576040519150601f19603f3d011682016040523d82523d6000602084013e613824565b606091505b509150915081801561383857506020815110155b61384157600080fd5b80806020019051602081101561385657600080fd5b50519250505090565b80820182811015610d1f576040805162461bcd60e51b815260206004820152601460248201527364732d6d6174682d6164642d6f766572666c6f7760601b604482015290519081900360640190fd5b601154604080513060248083019190915282518083039091018152604490910182526020810180516001600160e01b03166370a0823160e01b17815291518151600094859485946001600160a01b03909216939192829190808383602083106137bf5780518252601f1990920191602091820191016137a0565b60408051602481018590528315156044820152600283900b60648083019190915282518083039091018152608490910182526020810180516001600160e01b0316632b8d263960e11b1781529151815160009384938493849384936001600160a01b037f0000000000000000000000000000000000000000000000000000000000000000169392918291908083835b602083106139d65780518252601f1990920191602091820191016139b7565b6001836020036101000a038019825116818451168082178552505050505050905001915050600060405180830381855af49150503d8060008114613a36576040519150601f19603f3d011682016040523d82523d6000602084013e613a3b565b606091505b5091509150818190613acb5760405162461bcd60e51b81526004018080602001828103825283818151815260200191508051906020019080838360005b83811015613a90578181015183820152602001613a78565b50505050905090810190601f168015613abd5780820380516001836020036101000a031916815260200191505b509250505060405180910390fd5b50808060200190516060811015613ae157600080fd5b5080516020820151604090920151909a919950975095505050505050565b6000808215613b5f5760008515613b2757613b226103e8612dfe886103e5613e2d565b613b2a565b60005b905060008515613b4b57613b466103e8612dfe886103e5613e2d565b613b4e565b60005b919691959187900393505084900390505b8415613b8257601154613b82906001600160a01b03168761262f88611c6b6138ae565b83156112e1576012546112e1906001600160a01b03168761262f87611c6b613744565b600154604080516331056e5760e21b815290516000926001600160a01b03169163c415b95c916004808301926020929190829003018186803b158015613bea57600080fd5b505afa158015613bfe573d6000803e3d6000fd5b505050506040513d6020811015613c1457600080fd5b505190506001600160a01b038116613c915760175415613c8c578215613c5d57613c59613c50601754606086901b61497090919063ffffffff16565b601c549061385f565b601c555b8115613c8c57613c88613c7f601754606085901b61497090919063ffffffff16565b601d549061385f565b601d555b613cbf565b601154613ca8906001600160a01b03168285613cc4565b601254613cbf906001600160a01b03168284613cc4565b505050565b604080516001600160a01b038481166024830152604480830185905283518084039091018152606490920183526020820180516001600160e01b031663a9059cbb60e01b1781529251825160009485949389169392918291908083835b60208310613d405780518252601f199092019160209182019101613d21565b6001836020036101000a0380198251168184511680821785525050505050509050019150506000604051808303816000865af19150503d8060008114613da2576040519150601f19603f3d011682016040523d82523d6000602084013e613da7565b606091505b5091509150818015613dd5575080511580613dd55750808060200190516020811015613dd257600080fd5b50515b613e26576040805162461bcd60e51b815260206004820152601f60248201527f5472616e7366657248656c7065723a205452414e534645525f4641494c454400604482015290519081900360640190fd5b5050505050565b6000811580613e4857505080820282828281613e4557fe5b04145b610d1f576040805162461bcd60e51b815260206004820152601460248201527364732d6d6174682d6d756c2d6f766572666c6f7760601b604482015290519081900360640190fd5b60006003821115613ed3575080600160028204015b81811015613ecd57809150600281828581613ebc57fe5b040181613ec557fe5b049050613ea5565b5061373f565b811561373f57506001919050565b806001600160a01b038116811461373f57600080fd5b80613f0157613ff8565b601754613f0e908261385f565b6017556001600160a01b038216600090815260186020526040902054613f34818361385f565b6001600160a01b038416600090815260186020908152604080832093909355601c54601a90915291902054613f6b919083856149b8565b6001600160a01b0384166000908152601a6020908152604080832093909355601d54601b90915291902054613fa2919083856149b8565b6001600160a01b0384166000818152601b602090815260408083209490945583518681529351929391927fddf252ad1be2c89b69c2b068fc378daa952ba7f163c4a11628f55a4df523b3ef9281900390910190a3505b5050565b60008060008360020b12614013578260020b61401b565b8260020b6000035b9050620d89e8811115614059576040805162461bcd60e51b81526020600482015260016024820152601560fa1b604482015290519081900360640190fd5b60006001821661406d57600160801b61407f565b6ffffcb933bd6fad37aa2d162d1a5940015b70ffffffffffffffffffffffffffffffffff16905060028216156140b3576ffff97272373d413259a46990580e213a0260801c5b60048216156140d2576ffff2e50f5f656932ef12357cf3c7fdcc0260801c5b60088216156140f1576fffe5caca7e10e4e61c3624eaa0941cd00260801c5b6010821615614110576fffcb9843d60f6159c9db58835c9266440260801c5b602082161561412f576fff973b41fa98c081472e6896dfb254c00260801c5b604082161561414e576fff2ea16466c96a3843ec78b326b528610260801c5b608082161561416d576ffe5dee046a99a2a811c461f1969c30530260801c5b61010082161561418d576ffcbe86c7900a88aedcffc83b479aa3a40260801c5b6102008216156141ad576ff987a7253ac413176f2b074cf7815e540260801c5b6104008216156141cd576ff3392b0822b70005940c7a398e4b70f30260801c5b6108008216156141ed576fe7159475a2c29b7443b29c7fa6e889d90260801c5b61100082161561420d576fd097f3bdfd2022b8845ad8f792aa58250260801c5b61200082161561422d576fa9f746462d870fdf8a65dc1f90e061e50260801c5b61400082161561424d576f70d869a156d2a1b890bb3df62baf32f70260801c5b61800082161561426d576f31be135f97d08fd981231505542fcfa60260801c5b6201000082161561428e576f09aa508b5b7a84e1c677de54f3e99bc90260801c5b620200008216156142ae576e5d6af8dedb81196699c329225ee6040260801c5b620400008216156142cd576d2216e584f5fa1ea926041bedfe980260801c5b620800008216156142ea576b048a170391f7dc42444e8fa20260801c5b60008460020b131561430557806000198161430157fe5b0490505b600160201b81061561431857600161431b565b60005b60ff16602082901c0192505050919050565b83516020808601516040808801516060890151825160028c900b60248201526001600160801b039687166044820152938616606485015290851660848401529390931660a48201526001600160a01b0386811660c483015260e4820186905261010480830186905284518084039091018152610124909201845291810180516001600160e01b0316637a3642af60e11b1781529251815160009485947f0000000000000000000000000000000000000000000000000000000000000000169392918291908083835b602083106144145780518252601f1990920191602091820191016143f5565b6001836020036101000a038019825116818451168082178552505050505050905001915050600060405180830381855af49150503d8060008114614474576040519150601f19603f3d011682016040523d82523d6000602084013e614479565b606091505b50915091508181906144cc5760405162461bcd60e51b8152602060048201818152835160248401528351909283926044909101919085019080838360008315613a90578181015183820152602001613a78565b5050505050505050565b604080516001600160a01b0385811660248301528481166044830152606480830185905283518084039091018152608490920183526020820180516001600160e01b03166323b872dd60e01b178152925182516000948594938a169392918291908083835b6020831061455a5780518252601f19909201916020918201910161453b565b6001836020036101000a0380198251168184511680821785525050505050509050019150506000604051808303816000865af19150503d80600081146145bc576040519150601f19603f3d011682016040523d82523d6000602084013e6145c1565b606091505b50915091508180156145ef5750805115806145ef57508080602001905160208110156145ec57600080fd5b50515b61462a5760405162461bcd60e51b81526004018080602001828103825260248152602001806149ee6024913960400191505060405180910390fd5b505050505050565b6000600160ff1b821061464457600080fd5b5090565b600060138361465857600061465b565b60015b60ff166002811061466857fe5b6001600160a01b0387166000908152910160209081526040808320600288810b810b8552908352818420825160808101845281548152600182015494810194909452908101549183019190915260030154606082015291506146c985613ffc565b60408301519091501561462a57836147745760006146eb836040015183611952565b600287810b900b6000908152600b60205260409020549091506147279061472290600160801b90046001600160801b0316836134ab565b613729565b600287810b900b6000908152600b6020526040902080546001600160801b03928316600160801b02921691909117905560115461476e906001600160a01b03168583613cc4565b5061480a565b60006147848360400151836129ce565b600287810b900b6000908152600b60205260409020600101549091506147be9061472290600160801b90046001600160801b0316836134ab565b600287810b900b6000908152600b6020526040902060010180546001600160801b03928316600160801b029216919091179055601254614808906001600160a01b03168583613cc4565b505b60138461481857600061481b565b60015b60ff166002811061482857fe5b6001600160a01b0388166000908152910160209081526040808320600289810b810b8552925282208281556001810183905590810182905560030155505050505050565b6001600160a01b038216600090815260186020526040812054819061489190846134ab565b6001600160a01b0385166000908152601860205260409020556017546148b790846134ab565b6017556040805184815290516000916001600160a01b038716917fddf252ad1be2c89b69c2b068fc378daa952ba7f163c4a11628f55a4df523b3ef9181900360200190a36001600160a01b0384166000908152601a6020526040902054601c5460609161493091869161492a91906134ab565b90613e2d565b6001600160a01b0386166000908152601b6020526040902054601d549190921c935060609161496591869161492a91906134ab565b901c90509250929050565b600081838161497b57fe5b049392505050565b60020b600e81901d91600882901d603f811692909161010090910790565b60000b607f0190565b600160ff9091161b16151590565b60006149e46149c7848461385f565b612dfe6149d48886613e2d565b6149de8888613e2d565b9061385f565b9594505050505056fe5472616e7366657248656c7065723a205452414e534645525f46524f4d5f4641494c4544a26469706673582212205d644dc5136709516d5e687183e0ce644c72a6a53c558a82fec56e3a9bb885fe64736f6c63430007060033",
			"opcodes": "PUSH1 0xA0 PUSH1 0x40 MSTORE CALLVALUE DUP1 ISZERO PUSH2 0x10 JUMPI PUSH1 0x0 DUP1 REVERT JUMPDEST POP PUSH1 0x40 MLOAD PUSH3 0x4AC0 CODESIZE SUB DUP1 PUSH3 0x4AC0 DUP4 CODECOPY DUP2 DUP2 ADD PUSH1 0x40 MSTORE PUSH1 0x20 DUP2 LT ISZERO PUSH2 0x35 JUMPI PUSH1 0x0 DUP1 REVERT JUMPDEST POP MLOAD PUSH1 0x60 DUP2 SWAP1 SHL PUSH1 0x1 PUSH1 0x1 PUSH1 0x60 SHL SUB NOT AND PUSH1 0x80 MSTORE PUSH1 0x1 PUSH1 0x1 PUSH1 0xA0 SHL SUB AND PUSH2 0x4A47 PUSH3 0x79 PUSH1 0x0 CODECOPY DUP1 PUSH2 0x26F MSTORE DUP1 PUSH2 0x26E4 MSTORE DUP1 PUSH2 0x398D MSTORE DUP1 PUSH2 0x43CB MSTORE POP PUSH2 0x4A47 PUSH1 0x0 RETURN INVALID PUSH1 0x80 PUSH1 0x40 MSTORE CALLVALUE DUP1 ISZERO PUSH2 0x10 JUMPI PUSH1 0x0 DUP1 REVERT JUMPDEST POP PUSH1 0x4 CALLDATASIZE LT PUSH2 0x25E JUMPI PUSH1 0x0 CALLDATALOAD PUSH1 0xE0 SHR DUP1 PUSH4 0x679F0579 GT PUSH2 0x146 JUMPI DUP1 PUSH4 0x95D89B41 GT PUSH2 0xC3 JUMPI DUP1 PUSH4 0xD21220A7 GT PUSH2 0x87 JUMPI DUP1 PUSH4 0xD21220A7 EQ PUSH2 0x8A9 JUMPI DUP1 PUSH4 0xD8F9F12D EQ PUSH2 0x8B1 JUMPI DUP1 PUSH4 0xDD62ED3E EQ PUSH2 0x8B9 JUMPI DUP1 PUSH4 0xEF6AE4CC EQ PUSH2 0x8E7 JUMPI DUP1 PUSH4 0xF81CFA76 EQ PUSH2 0x916 JUMPI DUP1 PUSH4 0xFCF96952 EQ PUSH2 0x93C JUMPI PUSH2 0x25E JUMP JUMPDEST DUP1 PUSH4 0x95D89B41 EQ PUSH2 0x7CF JUMPI DUP1 PUSH4 0xA9059CBB EQ PUSH2 0x7D7 JUMPI DUP1 PUSH4 0xBBEA8F6A EQ PUSH2 0x803 JUMPI DUP1 PUSH4 0xBF62F97C EQ PUSH2 0x82F JUMPI DUP1 PUSH4 0xCBFE3AB3 EQ PUSH2 0x85D JUMPI PUSH2 0x25E JUMP JUMPDEST DUP1 PUSH4 0x834D04AF GT PUSH2 0x10A JUMPI DUP1 PUSH4 0x834D04AF EQ PUSH2 0x763 JUMPI DUP1 PUSH4 0x88BB52ED EQ PUSH2 0x76B JUMPI DUP1 PUSH4 0x89AFCB44 EQ PUSH2 0x799 JUMPI DUP1 PUSH4 0x8C7987B7 EQ PUSH2 0x7BF JUMPI DUP1 PUSH4 0x8FBD64CB EQ PUSH2 0x7C7 JUMPI PUSH2 0x25E JUMP JUMPDEST DUP1 PUSH4 0x679F0579 EQ PUSH2 0x635 JUMPI DUP1 PUSH4 0x6A627842 EQ PUSH2 0x6BF JUMPI DUP1 PUSH4 0x6BD97F1D EQ PUSH2 0x6E5 JUMPI DUP1 PUSH4 0x70A08231 EQ PUSH2 0x711 JUMPI DUP1 PUSH4 0x7A95FFF4 EQ PUSH2 0x737 JUMPI PUSH2 0x25E JUMP JUMPDEST DUP1 PUSH4 0x25A6E322 GT PUSH2 0x1DF JUMPI DUP1 PUSH4 0x47FD03D9 GT PUSH2 0x1A3 JUMPI DUP1 PUSH4 0x47FD03D9 EQ PUSH2 0x56B JUMPI DUP1 PUSH4 0x4AF0871B EQ PUSH2 0x573 JUMPI DUP1 PUSH4 0x4D630907 EQ PUSH2 0x5C8 JUMPI DUP1 PUSH4 0x5339C296 EQ PUSH2 0x5D0 JUMPI DUP1 PUSH4 0x58ECDC35 EQ PUSH2 0x5F0 JUMPI DUP1 PUSH4 0x5A76F25E EQ PUSH2 0x62D JUMPI PUSH2 0x25E JUMP JUMPDEST DUP1 PUSH4 0x25A6E322 EQ PUSH2 0x4F1 JUMPI DUP1 PUSH4 0x2A354AD9 EQ PUSH2 0x50E JUMPI DUP1 PUSH4 0x313CE567 EQ PUSH2 0x53D JUMPI DUP1 PUSH4 0x3B8A829D EQ PUSH2 0x55B JUMPI DUP1 PUSH4 0x443CB4BC EQ PUSH2 0x563 JUMPI PUSH2 0x25E JUMP JUMPDEST DUP1 PUSH4 0x15D44A6D GT PUSH2 0x226 JUMPI DUP1 PUSH4 0x15D44A6D EQ PUSH2 0x442 JUMPI DUP1 PUSH4 0x18160DDD EQ PUSH2 0x472 JUMPI DUP1 PUSH4 0x1A686502 EQ PUSH2 0x47A JUMPI DUP1 PUSH4 0x1B69C941 EQ PUSH2 0x482 JUMPI DUP1 PUSH4 0x23B872DD EQ PUSH2 0x4BB JUMPI PUSH2 0x25E JUMP JUMPDEST DUP1 PUSH4 0x65E5360 EQ PUSH2 0x30A JUMPI DUP1 PUSH4 0x6FDDE03 EQ PUSH2 0x329 JUMPI DUP1 PUSH4 0x95EA7B3 EQ PUSH2 0x3A6 JUMPI DUP1 PUSH4 0xC4D32ED EQ PUSH2 0x3E6 JUMPI DUP1 PUSH4 0xDFE1681 EQ PUSH2 0x41E JUMPI JUMPDEST CALLER ADDRESS EQ PUSH2 0x26A JUMPI PUSH1 0x0 DUP1 REVERT JUMPDEST PUSH1 0x0 DUP1 PUSH32 0x0 PUSH1 0x1 PUSH1 0x1 PUSH1 0xA0 SHL SUB AND PUSH1 0x0 CALLDATASIZE PUSH1 0x40 MLOAD DUP1 DUP4 DUP4 DUP1 DUP3 DUP5 CALLDATACOPY PUSH1 0x40 MLOAD SWAP3 ADD SWAP5 POP PUSH1 0x0 SWAP4 POP SWAP1 SWAP2 POP POP DUP1 DUP4 SUB DUP2 DUP6 GAS DELEGATECALL SWAP2 POP POP RETURNDATASIZE DUP1 PUSH1 0x0 DUP2 EQ PUSH2 0x2E9 JUMPI PUSH1 0x40 MLOAD SWAP2 POP PUSH1 0x1F NOT PUSH1 0x3F RETURNDATASIZE ADD AND DUP3 ADD PUSH1 0x40 MSTORE RETURNDATASIZE DUP3 MSTORE RETURNDATASIZE PUSH1 0x0 PUSH1 0x20 DUP5 ADD RETURNDATACOPY PUSH2 0x2EE JUMP JUMPDEST PUSH1 0x60 SWAP2 POP JUMPDEST POP SWAP2 POP SWAP2 POP DUP2 PUSH1 0x0 DUP2 EQ PUSH2 0x303 JUMPI RETURNDATASIZE PUSH1 0x20 DUP4 ADD RETURN JUMPDEST RETURNDATASIZE PUSH1 0x20 DUP4 ADD REVERT JUMPDEST PUSH2 0x312 PUSH2 0x962 JUMP JUMPDEST PUSH1 0x40 DUP1 MLOAD PUSH1 0x2 SWAP3 SWAP1 SWAP3 SIGNEXTEND DUP3 MSTORE MLOAD SWAP1 DUP2 SWAP1 SUB PUSH1 0x20 ADD SWAP1 RETURN JUMPDEST PUSH2 0x331 PUSH2 0x97F JUMP JUMPDEST PUSH1 0x40 DUP1 MLOAD PUSH1 0x20 DUP1 DUP3 MSTORE DUP4 MLOAD DUP2 DUP4 ADD MSTORE DUP4 MLOAD SWAP2 SWAP3 DUP4 SWAP3 SWAP1 DUP4 ADD SWAP2 DUP6 ADD SWAP1 DUP1 DUP4 DUP4 PUSH1 0x0 JUMPDEST DUP4 DUP2 LT ISZERO PUSH2 0x36B JUMPI DUP2 DUP2 ADD MLOAD DUP4 DUP3 ADD MSTORE PUSH1 0x20 ADD PUSH2 0x353 JUMP JUMPDEST POP POP POP POP SWAP1 POP SWAP1 DUP2 ADD SWAP1 PUSH1 0x1F AND DUP1 ISZERO PUSH2 0x398 JUMPI DUP1 DUP3 SUB DUP1 MLOAD PUSH1 0x1 DUP4 PUSH1 0x20 SUB PUSH2 0x100 EXP SUB NOT AND DUP2 MSTORE PUSH1 0x20 ADD SWAP2 POP JUMPDEST POP SWAP3 POP POP POP PUSH1 0x40 MLOAD DUP1 SWAP2 SUB SWAP1 RETURN JUMPDEST PUSH2 0x3D2 PUSH1 0x4 DUP1 CALLDATASIZE SUB PUSH1 0x40 DUP2 LT ISZERO PUSH2 0x3BC JUMPI PUSH1 0x0 DUP1 REVERT JUMPDEST POP PUSH1 0x1 PUSH1 0x1 PUSH1 0xA0 SHL SUB DUP2 CALLDATALOAD AND SWAP1 PUSH1 0x20 ADD CALLDATALOAD PUSH2 0xCBE JUMP JUMPDEST PUSH1 0x40 DUP1 MLOAD SWAP2 ISZERO ISZERO DUP3 MSTORE MLOAD SWAP1 DUP2 SWAP1 SUB PUSH1 0x20 ADD SWAP1 RETURN JUMPDEST PUSH2 0x40C PUSH1 0x4 DUP1 CALLDATASIZE SUB PUSH1 0x20 DUP2 LT ISZERO PUSH2 0x3FC JUMPI PUSH1 0x0 DUP1 REVERT JUMPDEST POP CALLDATALOAD PUSH1 0x1 PUSH1 0x1 PUSH1 0xA0 SHL SUB AND PUSH2 0xD25 JUMP JUMPDEST PUSH1 0x40 DUP1 MLOAD SWAP2 DUP3 MSTORE MLOAD SWAP1 DUP2 SWAP1 SUB PUSH1 0x20 ADD SWAP1 RETURN JUMPDEST PUSH2 0x426 PUSH2 0xD37 JUMP JUMPDEST PUSH1 0x40 DUP1 MLOAD PUSH1 0x1 PUSH1 0x1 PUSH1 0xA0 SHL SUB SWAP1 SWAP3 AND DUP3 MSTORE MLOAD SWAP1 DUP2 SWAP1 SUB PUSH1 0x20 ADD SWAP1 RETURN JUMPDEST PUSH2 0x470 PUSH1 0x4 DUP1 CALLDATASIZE SUB PUSH1 0x40 DUP2 LT ISZERO PUSH2 0x458 JUMPI PUSH1 0x0 DUP1 REVERT JUMPDEST POP PUSH1 0x1 PUSH1 0x1 PUSH1 0xA0 SHL SUB DUP2 CALLDATALOAD DUP2 AND SWAP2 PUSH1 0x20 ADD CALLDATALOAD AND PUSH2 0xD46 JUMP JUMPDEST STOP JUMPDEST PUSH2 0x40C PUSH2 0xD97 JUMP JUMPDEST PUSH2 0x40C PUSH2 0xD9D JUMP JUMPDEST PUSH2 0x4A2 PUSH1 0x4 DUP1 CALLDATASIZE SUB PUSH1 0x20 DUP2 LT ISZERO PUSH2 0x498 JUMPI PUSH1 0x0 DUP1 REVERT JUMPDEST POP CALLDATALOAD PUSH1 0x2 SIGNEXTEND PUSH2 0xDA3 JUMP JUMPDEST PUSH1 0x40 DUP1 MLOAD SWAP3 DUP4 MSTORE PUSH1 0x20 DUP4 ADD SWAP2 SWAP1 SWAP2 MSTORE DUP1 MLOAD SWAP2 DUP3 SWAP1 SUB ADD SWAP1 RETURN JUMPDEST PUSH2 0x3D2 PUSH1 0x4 DUP1 CALLDATASIZE SUB PUSH1 0x60 DUP2 LT ISZERO PUSH2 0x4D1 JUMPI PUSH1 0x0 DUP1 REVERT JUMPDEST POP PUSH1 0x1 PUSH1 0x1 PUSH1 0xA0 SHL SUB DUP2 CALLDATALOAD DUP2 AND SWAP2 PUSH1 0x20 DUP2 ADD CALLDATALOAD SWAP1 SWAP2 AND SWAP1 PUSH1 0x40 ADD CALLDATALOAD PUSH2 0xE0F JUMP JUMPDEST PUSH2 0x4A2 PUSH1 0x4 DUP1 CALLDATASIZE SUB PUSH1 0x20 DUP2 LT ISZERO PUSH2 0x507 JUMPI PUSH1 0x0 DUP1 REVERT JUMPDEST POP CALLDATALOAD PUSH2 0xEA4 JUMP JUMPDEST PUSH2 0x40C PUSH1 0x4 DUP1 CALLDATASIZE SUB PUSH1 0x40 DUP2 LT ISZERO PUSH2 0x524 JUMPI PUSH1 0x0 DUP1 REVERT JUMPDEST POP PUSH1 0x1 PUSH1 0x1 PUSH1 0xA0 SHL SUB DUP2 CALLDATALOAD AND SWAP1 PUSH1 0x20 ADD CALLDATALOAD PUSH1 0x2 SIGNEXTEND PUSH2 0xF2C JUMP JUMPDEST PUSH2 0x545 PUSH2 0xF62 JUMP JUMPDEST PUSH1 0x40 DUP1 MLOAD PUSH1 0xFF SWAP1 SWAP3 AND DUP3 MSTORE MLOAD SWAP1 DUP2 SWAP1 SUB PUSH1 0x20 ADD SWAP1 RETURN JUMPDEST PUSH2 0x40C PUSH2 0xF67 JUMP JUMPDEST PUSH2 0x40C PUSH2 0xF6D JUMP JUMPDEST PUSH2 0x426 PUSH2 0xF8E JUMP JUMPDEST PUSH2 0x5A7 PUSH1 0x4 DUP1 CALLDATASIZE SUB PUSH1 0x60 DUP2 LT ISZERO PUSH2 0x589 JUMPI PUSH1 0x0 DUP1 REVERT JUMPDEST POP DUP1 CALLDATALOAD SWAP1 PUSH1 0x20 DUP2 ADD CALLDATALOAD ISZERO ISZERO SWAP1 PUSH1 0x40 ADD CALLDATALOAD PUSH1 0x1 PUSH1 0x1 PUSH1 0xA0 SHL SUB AND PUSH2 0xF9D JUMP JUMPDEST PUSH1 0x40 DUP1 MLOAD SWAP3 DUP4 MSTORE PUSH1 0x1 PUSH1 0x1 PUSH1 0xA0 SHL SUB SWAP1 SWAP2 AND PUSH1 0x20 DUP4 ADD MSTORE DUP1 MLOAD SWAP2 DUP3 SWAP1 SUB ADD SWAP1 RETURN JUMPDEST PUSH2 0x40C PUSH2 0x11A9 JUMP JUMPDEST PUSH2 0x40C PUSH1 0x4 DUP1 CALLDATASIZE SUB PUSH1 0x20 DUP2 LT ISZERO PUSH2 0x5E6 JUMPI PUSH1 0x0 DUP1 REVERT JUMPDEST POP CALLDATALOAD PUSH1 0x1 SIGNEXTEND PUSH2 0x11AF JUMP JUMPDEST PUSH2 0x4A2 PUSH1 0x4 DUP1 CALLDATASIZE SUB PUSH1 0x80 DUP2 LT ISZERO PUSH2 0x606 JUMPI PUSH1 0x0 DUP1 REVERT JUMPDEST POP DUP1 CALLDATALOAD PUSH1 0x2 SIGNEXTEND SWAP1 PUSH1 0x1 PUSH1 0x1 PUSH1 0xA0 SHL SUB PUSH1 0x20 DUP3 ADD CALLDATALOAD AND SWAP1 PUSH1 0x40 DUP2 ADD CALLDATALOAD SWAP1 PUSH1 0x60 ADD CALLDATALOAD ISZERO ISZERO PUSH2 0x11C1 JUMP JUMPDEST PUSH2 0x40C PUSH2 0x12EA JUMP JUMPDEST PUSH2 0x470 PUSH1 0x4 DUP1 CALLDATASIZE SUB PUSH1 0x80 DUP2 LT ISZERO PUSH2 0x64B JUMPI PUSH1 0x0 DUP1 REVERT JUMPDEST PUSH1 0x1 PUSH1 0x1 PUSH1 0xA0 SHL SUB DUP3 CALLDATALOAD AND SWAP2 PUSH1 0x20 DUP2 ADD CALLDATALOAD SWAP2 PUSH1 0x40 DUP3 ADD CALLDATALOAD SWAP2 SWAP1 DUP2 ADD SWAP1 PUSH1 0x80 DUP2 ADD PUSH1 0x60 DUP3 ADD CALLDATALOAD PUSH1 0x1 PUSH1 0x20 SHL DUP2 GT ISZERO PUSH2 0x681 JUMPI PUSH1 0x0 DUP1 REVERT JUMPDEST DUP3 ADD DUP4 PUSH1 0x20 DUP3 ADD GT ISZERO PUSH2 0x693 JUMPI PUSH1 0x0 DUP1 REVERT JUMPDEST DUP1 CALLDATALOAD SWAP1 PUSH1 0x20 ADD SWAP2 DUP5 PUSH1 0x1 DUP4 MUL DUP5 ADD GT PUSH1 0x1 PUSH1 0x20 SHL DUP4 GT OR ISZERO PUSH2 0x6B4 JUMPI PUSH1 0x0 DUP1 REVERT JUMPDEST POP SWAP1 SWAP3 POP SWAP1 POP PUSH2 0x130A JUMP JUMPDEST PUSH2 0x40C PUSH1 0x4 DUP1 CALLDATASIZE SUB PUSH1 0x20 DUP2 LT ISZERO PUSH2 0x6D5 JUMPI PUSH1 0x0 DUP1 REVERT JUMPDEST POP CALLDATALOAD PUSH1 0x1 PUSH1 0x1 PUSH1 0xA0 SHL SUB AND PUSH2 0x167F JUMP JUMPDEST PUSH2 0x4A2 PUSH1 0x4 DUP1 CALLDATASIZE SUB PUSH1 0x40 DUP2 LT ISZERO PUSH2 0x6FB JUMPI PUSH1 0x0 DUP1 REVERT JUMPDEST POP PUSH1 0x1 PUSH1 0x1 PUSH1 0xA0 SHL SUB DUP2 CALLDATALOAD AND SWAP1 PUSH1 0x20 ADD CALLDATALOAD PUSH2 0x18D0 JUMP JUMPDEST PUSH2 0x40C PUSH1 0x4 DUP1 CALLDATASIZE SUB PUSH1 0x20 DUP2 LT ISZERO PUSH2 0x727 JUMPI PUSH1 0x0 DUP1 REVERT JUMPDEST POP CALLDATALOAD PUSH1 0x1 PUSH1 0x1 PUSH1 0xA0 SHL SUB AND PUSH2 0x1940 JUMP JUMPDEST PUSH2 0x40C PUSH1 0x4 DUP1 CALLDATASIZE SUB PUSH1 0x40 DUP2 LT ISZERO PUSH2 0x74D JUMPI PUSH1 0x0 DUP1 REVERT JUMPDEST POP DUP1 CALLDATALOAD SWAP1 PUSH1 0x20 ADD CALLDATALOAD PUSH1 0x1 PUSH1 0x1 PUSH1 0xA0 SHL SUB AND PUSH2 0x1952 JUMP JUMPDEST PUSH2 0x40C PUSH2 0x19A4 JUMP JUMPDEST PUSH2 0x40C PUSH1 0x4 DUP1 CALLDATASIZE SUB PUSH1 0x60 DUP2 LT ISZERO PUSH2 0x781 JUMPI PUSH1 0x0 DUP1 REVERT JUMPDEST POP DUP1 CALLDATALOAD PUSH1 0x2 SIGNEXTEND SWAP1 PUSH1 0x20 DUP2 ADD CALLDATALOAD SWAP1 PUSH1 0x40 ADD CALLDATALOAD ISZERO ISZERO PUSH2 0x19AA JUMP JUMPDEST PUSH2 0x4A2 PUSH1 0x4 DUP1 CALLDATASIZE SUB PUSH1 0x20 DUP2 LT ISZERO PUSH2 0x7AF JUMPI PUSH1 0x0 DUP1 REVERT JUMPDEST POP CALLDATALOAD PUSH1 0x1 PUSH1 0x1 PUSH1 0xA0 SHL SUB AND PUSH2 0x2529 JUMP JUMPDEST PUSH2 0x426 PUSH2 0x26E2 JUMP JUMPDEST PUSH2 0x40C PUSH2 0x2706 JUMP JUMPDEST PUSH2 0x331 PUSH2 0x270C JUMP JUMPDEST PUSH2 0x3D2 PUSH1 0x4 DUP1 CALLDATASIZE SUB PUSH1 0x40 DUP2 LT ISZERO PUSH2 0x7ED JUMPI PUSH1 0x0 DUP1 REVERT JUMPDEST POP PUSH1 0x1 PUSH1 0x1 PUSH1 0xA0 SHL SUB DUP2 CALLDATALOAD AND SWAP1 PUSH1 0x20 ADD CALLDATALOAD PUSH2 0x29AE JUMP JUMPDEST PUSH2 0x40C PUSH1 0x4 DUP1 CALLDATASIZE SUB PUSH1 0x40 DUP2 LT ISZERO PUSH2 0x819 JUMPI PUSH1 0x0 DUP1 REVERT JUMPDEST POP DUP1 CALLDATALOAD SWAP1 PUSH1 0x20 ADD CALLDATALOAD PUSH1 0x1 PUSH1 0x1 PUSH1 0xA0 SHL SUB AND PUSH2 0x29CE JUMP JUMPDEST PUSH2 0x4A2 PUSH1 0x4 DUP1 CALLDATASIZE SUB PUSH1 0x60 DUP2 LT ISZERO PUSH2 0x845 JUMPI PUSH1 0x0 DUP1 REVERT JUMPDEST POP DUP1 CALLDATALOAD PUSH1 0x2 SIGNEXTEND SWAP1 PUSH1 0x20 DUP2 ADD CALLDATALOAD SWAP1 PUSH1 0x40 ADD CALLDATALOAD ISZERO ISZERO PUSH2 0x2A27 JUMP JUMPDEST PUSH2 0x882 PUSH1 0x4 DUP1 CALLDATASIZE SUB PUSH1 0x40 DUP2 LT ISZERO PUSH2 0x873 JUMPI PUSH1 0x0 DUP1 REVERT JUMPDEST POP DUP1 CALLDATALOAD SWAP1 PUSH1 0x20 ADD CALLDATALOAD ISZERO ISZERO PUSH2 0x2F57 JUMP JUMPDEST PUSH1 0x40 DUP1 MLOAD SWAP4 DUP5 MSTORE PUSH1 0x20 DUP5 ADD SWAP3 SWAP1 SWAP3 MSTORE PUSH1 0x1 PUSH1 0x1 PUSH1 0xA0 SHL SUB AND DUP3 DUP3 ADD MSTORE MLOAD SWAP1 DUP2 SWAP1 SUB PUSH1 0x60 ADD SWAP1 RETURN JUMPDEST PUSH2 0x426 PUSH2 0x305B JUMP JUMPDEST PUSH2 0x4A2 PUSH2 0x306A JUMP JUMPDEST PUSH2 0x40C PUSH1 0x4 DUP1 CALLDATASIZE SUB PUSH1 0x40 DUP2 LT ISZERO PUSH2 0x8CF JUMPI PUSH1 0x0 DUP1 REVERT JUMPDEST POP PUSH1 0x1 PUSH1 0x1 PUSH1 0xA0 SHL SUB DUP2 CALLDATALOAD DUP2 AND SWAP2 PUSH1 0x20 ADD CALLDATALOAD AND PUSH2 0x3081 JUMP JUMPDEST PUSH2 0x40C PUSH1 0x4 DUP1 CALLDATASIZE SUB PUSH1 0x40 DUP2 LT ISZERO PUSH2 0x8FD JUMPI PUSH1 0x0 DUP1 REVERT JUMPDEST POP PUSH1 0x1 PUSH1 0x1 PUSH1 0xA0 SHL SUB DUP2 CALLDATALOAD AND SWAP1 PUSH1 0x20 ADD CALLDATALOAD PUSH1 0x2 SIGNEXTEND PUSH2 0x309E JUMP JUMPDEST PUSH2 0x3D2 PUSH1 0x4 DUP1 CALLDATASIZE SUB PUSH1 0x40 DUP2 LT ISZERO PUSH2 0x92C JUMPI PUSH1 0x0 DUP1 REVERT JUMPDEST POP DUP1 CALLDATALOAD PUSH1 0x2 SIGNEXTEND SWAP1 PUSH1 0x20 ADD CALLDATALOAD PUSH2 0x30A9 JUMP JUMPDEST PUSH2 0x40C PUSH1 0x4 DUP1 CALLDATASIZE SUB PUSH1 0x20 DUP2 LT ISZERO PUSH2 0x952 JUMPI PUSH1 0x0 DUP1 REVERT JUMPDEST POP CALLDATALOAD PUSH1 0x1 PUSH1 0x1 PUSH1 0xA0 SHL SUB AND PUSH2 0x317A JUMP JUMPDEST PUSH1 0x2 SLOAD PUSH1 0x0 SWAP1 PUSH2 0x97A SWAP1 PUSH1 0x1 PUSH1 0x1 PUSH1 0xA0 SHL SUB AND PUSH2 0x318C JUMP JUMPDEST SWAP1 POP SWAP1 JUMP JUMPDEST PUSH1 0x11 SLOAD PUSH1 0x40 DUP1 MLOAD PUSH4 0x6FDDE03 PUSH1 0xE0 SHL DUP2 MSTORE SWAP1 MLOAD PUSH1 0x60 SWAP3 PUSH1 0x1 PUSH1 0x1 PUSH1 0xA0 SHL SUB AND SWAP2 PUSH4 0x6FDDE03 SWAP2 PUSH1 0x4 DUP1 DUP4 ADD SWAP3 PUSH1 0x0 SWAP3 SWAP2 SWAP1 DUP3 SWAP1 SUB ADD DUP2 DUP7 DUP1 EXTCODESIZE ISZERO DUP1 ISZERO PUSH2 0x9C4 JUMPI PUSH1 0x0 DUP1 REVERT JUMPDEST POP GAS STATICCALL ISZERO DUP1 ISZERO PUSH2 0x9D8 JUMPI RETURNDATASIZE PUSH1 0x0 DUP1 RETURNDATACOPY RETURNDATASIZE PUSH1 0x0 REVERT JUMPDEST POP POP POP POP PUSH1 0x40 MLOAD RETURNDATASIZE PUSH1 0x0 DUP3 RETURNDATACOPY PUSH1 0x1F RETURNDATASIZE SWAP1 DUP2 ADD PUSH1 0x1F NOT AND DUP3 ADD PUSH1 0x40 MSTORE PUSH1 0x20 DUP2 LT ISZERO PUSH2 0xA01 JUMPI PUSH1 0x0 DUP1 REVERT JUMPDEST DUP2 ADD SWAP1 DUP1 DUP1 MLOAD PUSH1 0x40 MLOAD SWAP4 SWAP3 SWAP2 SWAP1 DUP5 PUSH1 0x1 PUSH1 0x20 SHL DUP3 GT ISZERO PUSH2 0xA20 JUMPI PUSH1 0x0 DUP1 REVERT JUMPDEST SWAP1 DUP4 ADD SWAP1 PUSH1 0x20 DUP3 ADD DUP6 DUP2 GT ISZERO PUSH2 0xA35 JUMPI PUSH1 0x0 DUP1 REVERT JUMPDEST DUP3 MLOAD PUSH1 0x1 PUSH1 0x20 SHL DUP2 GT DUP3 DUP3 ADD DUP9 LT OR ISZERO PUSH2 0xA4E JUMPI PUSH1 0x0 DUP1 REVERT JUMPDEST DUP3 MSTORE POP DUP2 MLOAD PUSH1 0x20 SWAP2 DUP3 ADD SWAP3 SWAP1 SWAP2 ADD SWAP1 DUP1 DUP4 DUP4 PUSH1 0x0 JUMPDEST DUP4 DUP2 LT ISZERO PUSH2 0xA7B JUMPI DUP2 DUP2 ADD MLOAD DUP4 DUP3 ADD MSTORE PUSH1 0x20 ADD PUSH2 0xA63 JUMP JUMPDEST POP POP POP POP SWAP1 POP SWAP1 DUP2 ADD SWAP1 PUSH1 0x1F AND DUP1 ISZERO PUSH2 0xAA8 JUMPI DUP1 DUP3 SUB DUP1 MLOAD PUSH1 0x1 DUP4 PUSH1 0x20 SUB PUSH2 0x100 EXP SUB NOT AND DUP2 MSTORE PUSH1 0x20 ADD SWAP2 POP JUMPDEST POP PUSH1 0x40 DUP2 DUP2 MSTORE PUSH1 0x12 SLOAD PUSH4 0x6FDDE03 PUSH1 0xE0 SHL DUP4 MSTORE SWAP1 MLOAD PUSH1 0x1 PUSH1 0x1 PUSH1 0xA0 SHL SUB SWAP1 SWAP2 AND SWAP5 POP PUSH4 0x6FDDE03 SWAP4 POP PUSH1 0x4 DUP1 DUP4 ADD SWAP4 POP PUSH1 0x0 SWAP3 DUP3 SWAP1 SUB ADD DUP2 DUP7 DUP1 EXTCODESIZE ISZERO DUP1 ISZERO PUSH2 0xAEF JUMPI PUSH1 0x0 DUP1 REVERT JUMPDEST POP GAS STATICCALL ISZERO DUP1 ISZERO PUSH2 0xB03 JUMPI RETURNDATASIZE PUSH1 0x0 DUP1 RETURNDATACOPY RETURNDATASIZE PUSH1 0x0 REVERT JUMPDEST POP POP POP POP PUSH1 0x40 MLOAD RETURNDATASIZE PUSH1 0x0 DUP3 RETURNDATACOPY PUSH1 0x1F RETURNDATASIZE SWAP1 DUP2 ADD PUSH1 0x1F NOT AND DUP3 ADD PUSH1 0x40 MSTORE PUSH1 0x20 DUP2 LT ISZERO PUSH2 0xB2C JUMPI PUSH1 0x0 DUP1 REVERT JUMPDEST DUP2 ADD SWAP1 DUP1 DUP1 MLOAD PUSH1 0x40 MLOAD SWAP4 SWAP3 SWAP2 SWAP1 DUP5 PUSH1 0x1 PUSH1 0x20 SHL DUP3 GT ISZERO PUSH2 0xB4B JUMPI PUSH1 0x0 DUP1 REVERT JUMPDEST SWAP1 DUP4 ADD SWAP1 PUSH1 0x20 DUP3 ADD DUP6 DUP2 GT ISZERO PUSH2 0xB60 JUMPI PUSH1 0x0 DUP1 REVERT JUMPDEST DUP3 MLOAD PUSH1 0x1 PUSH1 0x20 SHL DUP2 GT DUP3 DUP3 ADD DUP9 LT OR ISZERO PUSH2 0xB79 JUMPI PUSH1 0x0 DUP1 REVERT JUMPDEST DUP3 MSTORE POP DUP2 MLOAD PUSH1 0x20 SWAP2 DUP3 ADD SWAP3 SWAP1 SWAP2 ADD SWAP1 DUP1 DUP4 DUP4 PUSH1 0x0 JUMPDEST DUP4 DUP2 LT ISZERO PUSH2 0xBA6 JUMPI DUP2 DUP2 ADD MLOAD DUP4 DUP3 ADD MSTORE PUSH1 0x20 ADD PUSH2 0xB8E JUMP JUMPDEST POP POP POP POP SWAP1 POP SWAP1 DUP2 ADD SWAP1 PUSH1 0x1F AND DUP1 ISZERO PUSH2 0xBD3 JUMPI DUP1 DUP3 SUB DUP1 MLOAD PUSH1 0x1 DUP4 PUSH1 0x20 SUB PUSH2 0x100 EXP SUB NOT AND DUP2 MSTORE PUSH1 0x20 ADD SWAP2 POP JUMPDEST POP PUSH1 0x40 MSTORE POP POP POP PUSH1 0x40 MLOAD PUSH1 0x20 ADD DUP1 DUP1 PUSH20 0x2634B6B4BA29BBB0B8102628102A37B5B2B71D1 PUSH1 0x65 SHL DUP2 MSTORE POP PUSH1 0x14 ADD DUP4 DUP1 MLOAD SWAP1 PUSH1 0x20 ADD SWAP1 DUP1 DUP4 DUP4 JUMPDEST PUSH1 0x20 DUP4 LT PUSH2 0xC2B JUMPI DUP1 MLOAD DUP3 MSTORE PUSH1 0x1F NOT SWAP1 SWAP3 ADD SWAP2 PUSH1 0x20 SWAP2 DUP3 ADD SWAP2 ADD PUSH2 0xC0C JUMP JUMPDEST PUSH1 0x1 DUP4 PUSH1 0x20 SUB PUSH2 0x100 EXP SUB DUP1 NOT DUP3 MLOAD AND DUP2 DUP5 MLOAD AND DUP1 DUP3 OR DUP6 MSTORE POP POP POP POP POP POP SWAP1 POP ADD DUP1 PUSH1 0x2F PUSH1 0xF8 SHL DUP2 MSTORE POP PUSH1 0x1 ADD DUP3 DUP1 MLOAD SWAP1 PUSH1 0x20 ADD SWAP1 DUP1 DUP4 DUP4 JUMPDEST PUSH1 0x20 DUP4 LT PUSH2 0xC84 JUMPI DUP1 MLOAD DUP3 MSTORE PUSH1 0x1F NOT SWAP1 SWAP3 ADD SWAP2 PUSH1 0x20 SWAP2 DUP3 ADD SWAP2 ADD PUSH2 0xC65 JUMP JUMPDEST PUSH1 0x1 DUP4 PUSH1 0x20 SUB PUSH2 0x100 EXP SUB DUP1 NOT DUP3 MLOAD AND DUP2 DUP5 MLOAD AND DUP1 DUP3 OR DUP6 MSTORE POP POP POP POP POP POP SWAP1 POP ADD SWAP3 POP POP POP PUSH1 0x40 MLOAD PUSH1 0x20 DUP2 DUP4 SUB SUB DUP2 MSTORE SWAP1 PUSH1 0x40 MSTORE SWAP1 POP SWAP1 JUMP JUMPDEST CALLER PUSH1 0x0 DUP2 DUP2 MSTORE PUSH1 0x19 PUSH1 0x20 SWAP1 DUP2 MSTORE PUSH1 0x40 DUP1 DUP4 KECCAK256 PUSH1 0x1 PUSH1 0x1 PUSH1 0xA0 SHL SUB DUP8 AND DUP1 DUP6 MSTORE SWAP1 DUP4 MSTORE DUP2 DUP5 KECCAK256 DUP7 SWAP1 SSTORE DUP2 MLOAD DUP7 DUP2 MSTORE SWAP2 MLOAD SWAP4 SWAP5 SWAP1 SWAP4 SWAP1 SWAP3 PUSH32 0x8C5BE1E5EBEC7D5BD14F71427D1E84F3DD0314C0F7B2291E5B200AC8C7C3B925 SWAP3 DUP3 SWAP1 SUB ADD SWAP1 LOG3 POP PUSH1 0x1 JUMPDEST SWAP3 SWAP2 POP POP JUMP JUMPDEST PUSH1 0x1A PUSH1 0x20 MSTORE PUSH1 0x0 SWAP1 DUP2 MSTORE PUSH1 0x40 SWAP1 KECCAK256 SLOAD DUP2 JUMP JUMPDEST PUSH1 0x11 SLOAD PUSH1 0x1 PUSH1 0x1 PUSH1 0xA0 SHL SUB AND DUP2 JUMP JUMPDEST PUSH1 0x11 SLOAD PUSH1 0x1 PUSH1 0x1 PUSH1 0xA0 SHL SUB AND ISZERO PUSH2 0xD5C JUMPI PUSH1 0x0 DUP1 REVERT JUMPDEST PUSH1 0x11 DUP1 SLOAD PUSH1 0x1 PUSH1 0x1 PUSH1 0xA0 SHL SUB SWAP4 DUP5 AND PUSH1 0x1 PUSH1 0x1 PUSH1 0xA0 SHL SUB NOT SWAP2 DUP3 AND OR SWAP1 SWAP2 SSTORE PUSH1 0x12 DUP1 SLOAD SWAP3 SWAP1 SWAP4 AND SWAP2 AND OR SWAP1 SSTORE PUSH1 0x1E DUP1 SLOAD PUSH1 0xFF NOT AND PUSH1 0x1 OR SWAP1 SSTORE JUMP JUMPDEST PUSH1 0x17 SLOAD DUP2 JUMP JUMPDEST PUSH1 0x3 SLOAD DUP2 JUMP JUMPDEST PUSH1 0x0 DUP1 PUSH2 0xDB1 DUP4 PUSH1 0x0 PUSH2 0x30A9 JUMP JUMPDEST PUSH2 0xDDA JUMPI PUSH1 0x2 DUP4 DUP2 SIGNEXTEND SWAP1 SIGNEXTEND PUSH1 0x0 SWAP1 DUP2 MSTORE PUSH1 0xB PUSH1 0x20 MSTORE PUSH1 0x40 SWAP1 KECCAK256 PUSH1 0x1 ADD SLOAD PUSH1 0x1 PUSH1 0x1 PUSH1 0x80 SHL SUB AND SWAP2 POP JUMPDEST PUSH2 0xDE5 DUP4 PUSH1 0x1 PUSH2 0x30A9 JUMP JUMPDEST PUSH2 0xE0A JUMPI POP PUSH1 0x2 DUP3 DUP2 SIGNEXTEND SWAP1 SIGNEXTEND PUSH1 0x0 SWAP1 DUP2 MSTORE PUSH1 0xB PUSH1 0x20 MSTORE PUSH1 0x40 SWAP1 KECCAK256 SLOAD PUSH1 0x1 PUSH1 0x1 PUSH1 0x80 SHL SUB AND JUMPDEST SWAP2 POP SWAP2 JUMP JUMPDEST PUSH1 0x1 PUSH1 0x1 PUSH1 0xA0 SHL SUB DUP4 AND PUSH1 0x0 SWAP1 DUP2 MSTORE PUSH1 0x19 PUSH1 0x20 SWAP1 DUP2 MSTORE PUSH1 0x40 DUP1 DUP4 KECCAK256 CALLER DUP5 MSTORE SWAP1 SWAP2 MSTORE DUP2 KECCAK256 SLOAD PUSH1 0x0 NOT EQ PUSH2 0xE8E JUMPI PUSH1 0x1 PUSH1 0x1 PUSH1 0xA0 SHL SUB DUP5 AND PUSH1 0x0 SWAP1 DUP2 MSTORE PUSH1 0x19 PUSH1 0x20 SWAP1 DUP2 MSTORE PUSH1 0x40 DUP1 DUP4 KECCAK256 CALLER DUP5 MSTORE SWAP1 SWAP2 MSTORE SWAP1 KECCAK256 SLOAD PUSH2 0xE69 SWAP1 DUP4 PUSH2 0x34AB JUMP JUMPDEST PUSH1 0x1 PUSH1 0x1 PUSH1 0xA0 SHL SUB DUP6 AND PUSH1 0x0 SWAP1 DUP2 MSTORE PUSH1 0x19 PUSH1 0x20 SWAP1 DUP2 MSTORE PUSH1 0x40 DUP1 DUP4 KECCAK256 CALLER DUP5 MSTORE SWAP1 SWAP2 MSTORE SWAP1 KECCAK256 SSTORE JUMPDEST PUSH2 0xE99 DUP5 DUP5 DUP5 PUSH2 0x34FB JUMP JUMPDEST POP PUSH1 0x1 JUMPDEST SWAP4 SWAP3 POP POP POP JUMP JUMPDEST PUSH1 0x0 DUP1 PUSH2 0xEB3 PUSH1 0x17 SLOAD DUP5 PUSH2 0x362A JUMP JUMPDEST SWAP3 POP PUSH1 0x17 SLOAD PUSH1 0x0 EQ ISZERO PUSH2 0xECB JUMPI POP PUSH1 0x0 SWAP1 POP DUP1 PUSH2 0xE0A JUMP JUMPDEST PUSH1 0x0 PUSH2 0xED5 PUSH2 0xF6D JUMP JUMPDEST SWAP1 POP PUSH2 0xEE4 DUP5 DUP3 PUSH1 0x17 SLOAD PUSH2 0x3640 JUMP JUMPDEST SWAP3 POP DUP3 DUP2 EQ ISZERO PUSH2 0xEF6 JUMPI PUSH1 0x0 NOT SWAP1 SWAP3 ADD SWAP2 JUMPDEST PUSH1 0x2 SLOAD PUSH2 0xF0D SWAP1 DUP5 SWAP1 PUSH1 0x1 PUSH1 0x1 PUSH1 0xA0 SHL SUB AND PUSH2 0x29CE JUMP JUMPDEST SWAP2 POP DUP2 PUSH2 0xF18 PUSH2 0x12EA JUMP JUMPDEST EQ ISZERO PUSH2 0xF26 JUMPI PUSH1 0x0 NOT SWAP1 SWAP2 ADD SWAP1 JUMPDEST POP SWAP2 POP SWAP2 JUMP JUMPDEST PUSH1 0x0 PUSH1 0x13 DUP2 JUMPDEST PUSH1 0x1 PUSH1 0x1 PUSH1 0xA0 SHL SUB SWAP1 SWAP5 AND PUSH1 0x0 SWAP1 DUP2 MSTORE SWAP4 ADD PUSH1 0x20 SWAP1 DUP2 MSTORE PUSH1 0x40 DUP1 DUP6 KECCAK256 PUSH1 0x2 SWAP5 DUP6 SIGNEXTEND SWAP1 SWAP5 SIGNEXTEND DUP6 MSTORE SWAP3 SWAP1 MSTORE POP SWAP1 KECCAK256 SLOAD SWAP1 JUMP JUMPDEST PUSH1 0x12 DUP2 JUMP JUMPDEST PUSH1 0x1D SLOAD DUP2 JUMP JUMPDEST PUSH1 0x3 SLOAD PUSH1 0x2 SLOAD PUSH1 0x0 SWAP2 PUSH2 0x97A SWAP2 PUSH1 0x1 PUSH1 0x60 SHL SWAP1 PUSH1 0x1 PUSH1 0x1 PUSH1 0xA0 SHL SUB AND PUSH2 0x36EF JUMP JUMPDEST PUSH1 0x2 SLOAD PUSH1 0x1 PUSH1 0x1 PUSH1 0xA0 SHL SUB AND DUP2 JUMP JUMPDEST PUSH1 0x1E SLOAD PUSH1 0x0 SWAP1 DUP2 SWAP1 PUSH1 0xFF AND PUSH2 0xFDF JUMPI PUSH1 0x40 DUP1 MLOAD PUSH3 0x461BCD PUSH1 0xE5 SHL DUP2 MSTORE PUSH1 0x20 PUSH1 0x4 DUP3 ADD MSTORE PUSH1 0x3 PUSH1 0x24 DUP3 ADD MSTORE PUSH3 0x4C4F4B PUSH1 0xE8 SHL PUSH1 0x44 DUP3 ADD MSTORE SWAP1 MLOAD SWAP1 DUP2 SWAP1 SUB PUSH1 0x64 ADD SWAP1 REVERT JUMPDEST PUSH1 0x1E DUP1 SLOAD PUSH1 0xFF NOT AND SWAP1 SSTORE PUSH1 0x2 SLOAD PUSH1 0x1 PUSH1 0x1 PUSH1 0xA0 SHL SUB AND PUSH2 0xFFE JUMPI PUSH1 0x0 DUP1 REVERT JUMPDEST PUSH2 0x1007 DUP6 PUSH2 0x3729 JUMP JUMPDEST POP DUP4 ISZERO PUSH2 0x1033 JUMPI PUSH2 0x1016 PUSH2 0x3744 JUMP JUMPDEST PUSH1 0x20 SLOAD PUSH2 0x1023 SWAP1 DUP8 PUSH2 0x385F JUMP JUMPDEST GT ISZERO PUSH2 0x102E JUMPI PUSH1 0x0 DUP1 REVERT JUMPDEST PUSH2 0x1053 JUMP JUMPDEST PUSH2 0x103B PUSH2 0x38AE JUMP JUMPDEST PUSH1 0x1F SLOAD PUSH2 0x1048 SWAP1 DUP8 PUSH2 0x385F JUMP JUMPDEST GT ISZERO PUSH2 0x1053 JUMPI PUSH1 0x0 DUP1 REVERT JUMPDEST PUSH2 0x1071 DUP6 DUP6 DUP7 PUSH2 0x1067 JUMPI PUSH3 0x7FFFFE NOT PUSH2 0x106C JUMP JUMPDEST PUSH3 0x7FFFFF JUMPDEST PUSH2 0x3928 JUMP JUMPDEST SWAP1 SWAP4 POP SWAP2 POP PUSH1 0x0 SWAP1 POP DUP5 PUSH2 0x1086 JUMPI PUSH1 0x0 PUSH2 0x1088 JUMP JUMPDEST DUP3 JUMPDEST SWAP1 POP PUSH1 0x0 DUP6 PUSH2 0x1097 JUMPI DUP4 PUSH2 0x109A JUMP JUMPDEST PUSH1 0x0 JUMPDEST SWAP1 POP PUSH1 0x0 DUP1 PUSH2 0x10AC DUP8 DUP6 DUP6 PUSH1 0x1 PUSH2 0x3AFF JUMP JUMPDEST SWAP2 POP SWAP2 POP PUSH2 0x10BA DUP3 DUP3 PUSH2 0x3BA5 JUMP JUMPDEST CALLER PUSH32 0xF387028D07D8F15C52617B2A0C42EF249B749ED1A07F91B5A79560C3327A701E DUP10 PUSH2 0x10EF JUMPI PUSH2 0x10EA DUP12 PUSH2 0x3729 JUMP JUMPDEST PUSH2 0x10F2 JUMP JUMPDEST PUSH1 0x0 JUMPDEST DUP11 PUSH2 0x10FE JUMPI PUSH1 0x0 PUSH2 0x1107 JUMP JUMPDEST PUSH2 0x1107 DUP13 PUSH2 0x3729 JUMP JUMPDEST PUSH2 0x1112 DUP7 DUP10 SUB PUSH2 0x3729 JUMP JUMPDEST PUSH2 0x111D DUP7 DUP10 SUB PUSH2 0x3729 JUMP JUMPDEST PUSH1 0x2 SLOAD PUSH1 0x40 DUP1 MLOAD PUSH1 0x1 PUSH1 0x1 PUSH1 0x80 SHL SUB SWAP7 DUP8 AND DUP2 MSTORE SWAP5 DUP7 AND PUSH1 0x20 DUP7 ADD MSTORE SWAP3 DUP6 AND DUP5 DUP5 ADD MSTORE SWAP4 AND PUSH1 0x60 DUP4 ADD MSTORE PUSH1 0x1 PUSH1 0x1 PUSH1 0xA0 SHL SUB SWAP1 SWAP3 AND PUSH1 0x80 DUP3 ADD MSTORE SWAP1 MLOAD SWAP1 DUP2 SWAP1 SUB PUSH1 0xA0 ADD SWAP1 LOG2 PUSH1 0x0 DUP3 GT PUSH2 0x1172 JUMPI DUP1 DUP7 SUB PUSH2 0x1176 JUMP JUMPDEST DUP2 DUP7 SUB JUMPDEST SWAP6 POP PUSH2 0x1180 PUSH2 0x38AE JUMP JUMPDEST PUSH1 0x1F SSTORE PUSH2 0x118B PUSH2 0x3744 JUMP JUMPDEST PUSH1 0x20 SSTORE POP POP PUSH1 0x1E DUP1 SLOAD PUSH1 0xFF NOT AND PUSH1 0x1 OR SWAP1 SSTORE POP SWAP2 SWAP6 SWAP1 SWAP5 POP SWAP3 POP POP POP JUMP JUMPDEST PUSH1 0x1F SLOAD DUP2 JUMP JUMPDEST PUSH1 0x10 PUSH1 0x20 MSTORE PUSH1 0x0 SWAP1 DUP2 MSTORE PUSH1 0x40 SWAP1 KECCAK256 SLOAD DUP2 JUMP JUMPDEST PUSH1 0x40 DUP1 MLOAD PUSH1 0x2 DUP7 SWAP1 SIGNEXTEND PUSH1 0x24 DUP3 ADD MSTORE PUSH1 0x1 PUSH1 0x1 PUSH1 0xA0 SHL SUB DUP6 AND PUSH1 0x44 DUP3 ADD MSTORE PUSH1 0x64 DUP2 ADD DUP5 SWAP1 MSTORE DUP3 ISZERO ISZERO PUSH1 0x84 DUP1 DUP4 ADD SWAP2 SWAP1 SWAP2 MSTORE DUP3 MLOAD DUP1 DUP4 SUB SWAP1 SWAP2 ADD DUP2 MSTORE PUSH1 0xA4 SWAP1 SWAP2 ADD DUP3 MSTORE PUSH1 0x20 DUP2 ADD DUP1 MLOAD PUSH1 0x1 PUSH1 0x1 PUSH1 0xE0 SHL SUB AND PUSH4 0x61D6569B PUSH1 0xE1 SHL OR DUP2 MSTORE SWAP2 MLOAD DUP2 MLOAD PUSH1 0x0 SWAP4 DUP5 SWAP4 DUP5 SWAP4 ADDRESS SWAP4 SWAP2 SWAP3 SWAP1 SWAP2 DUP3 SWAP2 SWAP1 DUP1 DUP4 DUP4 JUMPDEST PUSH1 0x20 DUP4 LT PUSH2 0x1253 JUMPI DUP1 MLOAD DUP3 MSTORE PUSH1 0x1F NOT SWAP1 SWAP3 ADD SWAP2 PUSH1 0x20 SWAP2 DUP3 ADD SWAP2 ADD PUSH2 0x1234 JUMP JUMPDEST PUSH1 0x1 DUP4 PUSH1 0x20 SUB PUSH2 0x100 EXP SUB DUP1 NOT DUP3 MLOAD AND DUP2 DUP5 MLOAD AND DUP1 DUP3 OR DUP6 MSTORE POP POP POP POP POP POP SWAP1 POP ADD SWAP2 POP POP PUSH1 0x0 PUSH1 0x40 MLOAD DUP1 DUP4 SUB DUP2 DUP6 GAS STATICCALL SWAP2 POP POP RETURNDATASIZE DUP1 PUSH1 0x0 DUP2 EQ PUSH2 0x12B3 JUMPI PUSH1 0x40 MLOAD SWAP2 POP PUSH1 0x1F NOT PUSH1 0x3F RETURNDATASIZE ADD AND DUP3 ADD PUSH1 0x40 MSTORE RETURNDATASIZE DUP3 MSTORE RETURNDATASIZE PUSH1 0x0 PUSH1 0x20 DUP5 ADD RETURNDATACOPY PUSH2 0x12B8 JUMP JUMPDEST PUSH1 0x60 SWAP2 POP JUMPDEST POP SWAP2 POP POP DUP1 DUP1 PUSH1 0x20 ADD SWAP1 MLOAD PUSH1 0x40 DUP2 LT ISZERO PUSH2 0x12D1 JUMPI PUSH1 0x0 DUP1 REVERT JUMPDEST POP DUP1 MLOAD PUSH1 0x20 SWAP1 SWAP2 ADD MLOAD SWAP1 SWAP4 POP SWAP2 POP POP JUMPDEST SWAP5 POP SWAP5 SWAP3 POP POP POP JUMP JUMPDEST PUSH1 0x3 SLOAD PUSH1 0x2 SLOAD PUSH1 0x0 SWAP2 PUSH2 0x97A SWAP2 PUSH1 0x1 PUSH1 0x1 PUSH1 0xA0 SHL SUB AND PUSH1 0x1 PUSH1 0x60 SHL PUSH2 0x36EF JUMP JUMPDEST PUSH1 0x1E SLOAD PUSH1 0xFF AND PUSH2 0x1347 JUMPI PUSH1 0x40 DUP1 MLOAD PUSH3 0x461BCD PUSH1 0xE5 SHL DUP2 MSTORE PUSH1 0x20 PUSH1 0x4 DUP3 ADD MSTORE PUSH1 0x3 PUSH1 0x24 DUP3 ADD MSTORE PUSH3 0x4C4F4B PUSH1 0xE8 SHL PUSH1 0x44 DUP3 ADD MSTORE SWAP1 MLOAD SWAP1 DUP2 SWAP1 SUB PUSH1 0x64 ADD SWAP1 REVERT JUMPDEST PUSH1 0x1E DUP1 SLOAD PUSH1 0xFF NOT AND SWAP1 SSTORE PUSH1 0x0 PUSH2 0x1361 DUP6 PUSH1 0x3 PUSH2 0x3E8 PUSH2 0x36EF JUMP JUMPDEST SWAP1 POP PUSH1 0x0 PUSH2 0x1373 DUP6 PUSH1 0x3 PUSH2 0x3E8 PUSH2 0x36EF JUMP JUMPDEST SWAP1 POP PUSH1 0x0 PUSH2 0x137F PUSH2 0x38AE JUMP JUMPDEST SWAP1 POP PUSH1 0x0 PUSH2 0x138B PUSH2 0x3744 JUMP JUMPDEST PUSH1 0x1 SLOAD PUSH1 0x40 DUP1 MLOAD PUSH4 0x931A3227 PUSH1 0xE0 SHL DUP2 MSTORE CALLER PUSH1 0x4 DUP3 ADD MSTORE SWAP1 MLOAD SWAP3 SWAP4 POP PUSH1 0x1 PUSH1 0x1 PUSH1 0xA0 SHL SUB SWAP1 SWAP2 AND SWAP2 PUSH4 0x931A3227 SWAP2 PUSH1 0x24 DUP1 DUP3 ADD SWAP3 PUSH1 0x20 SWAP3 SWAP1 SWAP2 SWAP1 DUP3 SWAP1 SUB ADD DUP2 DUP7 DUP1 EXTCODESIZE ISZERO DUP1 ISZERO PUSH2 0x13D9 JUMPI PUSH1 0x0 DUP1 REVERT JUMPDEST POP GAS STATICCALL ISZERO DUP1 ISZERO PUSH2 0x13ED JUMPI RETURNDATASIZE PUSH1 0x0 DUP1 RETURNDATACOPY RETURNDATASIZE PUSH1 0x0 REVERT JUMPDEST POP POP POP POP PUSH1 0x40 MLOAD RETURNDATASIZE PUSH1 0x20 DUP2 LT ISZERO PUSH2 0x1403 JUMPI PUSH1 0x0 DUP1 REVERT JUMPDEST POP MLOAD ISZERO PUSH2 0x140F JUMPI PUSH1 0x0 DUP1 REVERT JUMPDEST DUP8 ISZERO PUSH2 0x14B2 JUMPI PUSH1 0x1 SLOAD PUSH1 0x11 SLOAD PUSH1 0x40 DUP1 MLOAD PUSH4 0x3C4D60EB PUSH1 0xE1 SHL DUP2 MSTORE PUSH1 0x1 PUSH1 0x1 PUSH1 0xA0 SHL SUB SWAP3 DUP4 AND PUSH1 0x4 DUP3 ADD MSTORE SWAP1 MLOAD SWAP2 SWAP1 SWAP3 AND SWAP2 PUSH4 0x789AC1D6 SWAP2 PUSH1 0x24 DUP1 DUP4 ADD SWAP3 PUSH1 0x20 SWAP3 SWAP2 SWAP1 DUP3 SWAP1 SUB ADD DUP2 DUP7 DUP1 EXTCODESIZE ISZERO DUP1 ISZERO PUSH2 0x1465 JUMPI PUSH1 0x0 DUP1 REVERT JUMPDEST POP GAS STATICCALL ISZERO DUP1 ISZERO PUSH2 0x1479 JUMPI RETURNDATASIZE PUSH1 0x0 DUP1 RETURNDATACOPY RETURNDATASIZE PUSH1 0x0 REVERT JUMPDEST POP POP POP POP PUSH1 0x40 MLOAD RETURNDATASIZE PUSH1 0x20 DUP2 LT ISZERO PUSH2 0x148F JUMPI PUSH1 0x0 DUP1 REVERT JUMPDEST POP MLOAD ISZERO PUSH2 0x149B JUMPI PUSH1 0x0 DUP1 REVERT JUMPDEST PUSH1 0x11 SLOAD PUSH2 0x14B2 SWAP1 PUSH1 0x1 PUSH1 0x1 PUSH1 0xA0 SHL SUB AND DUP11 DUP11 PUSH2 0x3CC4 JUMP JUMPDEST DUP7 ISZERO PUSH2 0x1555 JUMPI PUSH1 0x1 SLOAD PUSH1 0x12 SLOAD PUSH1 0x40 DUP1 MLOAD PUSH4 0x3C4D60EB PUSH1 0xE1 SHL DUP2 MSTORE PUSH1 0x1 PUSH1 0x1 PUSH1 0xA0 SHL SUB SWAP3 DUP4 AND PUSH1 0x4 DUP3 ADD MSTORE SWAP1 MLOAD SWAP2 SWAP1 SWAP3 AND SWAP2 PUSH4 0x789AC1D6 SWAP2 PUSH1 0x24 DUP1 DUP4 ADD SWAP3 PUSH1 0x20 SWAP3 SWAP2 SWAP1 DUP3 SWAP1 SUB ADD DUP2 DUP7 DUP1 EXTCODESIZE ISZERO DUP1 ISZERO PUSH2 0x1508 JUMPI PUSH1 0x0 DUP1 REVERT JUMPDEST POP GAS STATICCALL ISZERO DUP1 ISZERO PUSH2 0x151C JUMPI RETURNDATASIZE PUSH1 0x0 DUP1 RETURNDATACOPY RETURNDATASIZE PUSH1 0x0 REVERT JUMPDEST POP POP POP POP PUSH1 0x40 MLOAD RETURNDATASIZE PUSH1 0x20 DUP2 LT ISZERO PUSH2 0x1532 JUMPI PUSH1 0x0 DUP1 REVERT JUMPDEST POP MLOAD ISZERO PUSH2 0x153E JUMPI PUSH1 0x0 DUP1 REVERT JUMPDEST PUSH1 0x12 SLOAD PUSH2 0x1555 SWAP1 PUSH1 0x1 PUSH1 0x1 PUSH1 0xA0 SHL SUB AND DUP11 DUP10 PUSH2 0x3CC4 JUMP JUMPDEST CALLER PUSH1 0x1 PUSH1 0x1 PUSH1 0xA0 SHL SUB AND PUSH4 0x97B90FB DUP6 DUP6 DUP10 DUP10 PUSH1 0x40 MLOAD DUP6 PUSH4 0xFFFFFFFF AND PUSH1 0xE0 SHL DUP2 MSTORE PUSH1 0x4 ADD DUP1 DUP6 DUP2 MSTORE PUSH1 0x20 ADD DUP5 DUP2 MSTORE PUSH1 0x20 ADD DUP1 PUSH1 0x20 ADD DUP3 DUP2 SUB DUP3 MSTORE DUP5 DUP5 DUP3 DUP2 DUP2 MSTORE PUSH1 0x20 ADD SWAP3 POP DUP1 DUP3 DUP5 CALLDATACOPY PUSH1 0x0 DUP2 DUP5 ADD MSTORE PUSH1 0x1F NOT PUSH1 0x1F DUP3 ADD AND SWAP1 POP DUP1 DUP4 ADD SWAP3 POP POP POP SWAP6 POP POP POP POP POP POP PUSH1 0x0 PUSH1 0x40 MLOAD DUP1 DUP4 SUB DUP2 PUSH1 0x0 DUP8 DUP1 EXTCODESIZE ISZERO DUP1 ISZERO PUSH2 0x15D7 JUMPI PUSH1 0x0 DUP1 REVERT JUMPDEST POP GAS CALL ISZERO DUP1 ISZERO PUSH2 0x15EB JUMPI RETURNDATASIZE PUSH1 0x0 DUP1 RETURNDATACOPY RETURNDATASIZE PUSH1 0x0 REVERT JUMPDEST POP POP POP POP PUSH1 0x0 PUSH2 0x15F9 PUSH2 0x38AE JUMP JUMPDEST SWAP1 POP PUSH1 0x0 PUSH2 0x1605 PUSH2 0x3744 JUMP JUMPDEST SWAP1 POP DUP2 PUSH2 0x1612 DUP6 DUP9 PUSH2 0x385F JUMP JUMPDEST GT ISZERO PUSH2 0x161D JUMPI PUSH1 0x0 DUP1 REVERT JUMPDEST DUP1 PUSH2 0x1628 DUP5 DUP8 PUSH2 0x385F JUMP JUMPDEST GT ISZERO PUSH2 0x1633 JUMPI PUSH1 0x0 DUP1 REVERT JUMPDEST PUSH2 0x164F PUSH2 0x1640 DUP4 DUP7 PUSH2 0x34AB JUMP JUMPDEST PUSH2 0x164A DUP4 DUP7 PUSH2 0x34AB JUMP JUMPDEST PUSH2 0x3BA5 JUMP JUMPDEST PUSH2 0x1657 PUSH2 0x38AE JUMP JUMPDEST PUSH1 0x1F SSTORE PUSH2 0x1662 PUSH2 0x3744 JUMP JUMPDEST PUSH1 0x20 SSTORE POP POP PUSH1 0x1E DUP1 SLOAD PUSH1 0xFF NOT AND PUSH1 0x1 OR SWAP1 SSTORE POP POP POP POP POP POP POP POP POP JUMP JUMPDEST PUSH1 0x1E SLOAD PUSH1 0x0 SWAP1 PUSH1 0xFF AND PUSH2 0x16BF JUMPI PUSH1 0x40 DUP1 MLOAD PUSH3 0x461BCD PUSH1 0xE5 SHL DUP2 MSTORE PUSH1 0x20 PUSH1 0x4 DUP3 ADD MSTORE PUSH1 0x3 PUSH1 0x24 DUP3 ADD MSTORE PUSH3 0x4C4F4B PUSH1 0xE8 SHL PUSH1 0x44 DUP3 ADD MSTORE SWAP1 MLOAD SWAP1 DUP2 SWAP1 SUB PUSH1 0x64 ADD SWAP1 REVERT JUMPDEST PUSH1 0x1E DUP1 SLOAD PUSH1 0xFF NOT AND SWAP1 SSTORE PUSH1 0x1F SLOAD PUSH1 0x0 SWAP1 PUSH2 0x16E1 SWAP1 PUSH2 0x16DB PUSH2 0x38AE JUMP JUMPDEST SWAP1 PUSH2 0x34AB JUMP JUMPDEST SWAP1 POP PUSH1 0x0 PUSH2 0x16F3 PUSH1 0x20 SLOAD PUSH2 0x16DB PUSH2 0x3744 JUMP JUMPDEST SWAP1 POP PUSH2 0x16FE DUP3 PUSH2 0x3729 JUMP JUMPDEST POP PUSH2 0x1708 DUP2 PUSH2 0x3729 JUMP JUMPDEST POP PUSH1 0x2 SLOAD PUSH1 0x0 SWAP1 PUSH1 0x1 PUSH1 0x1 PUSH1 0xA0 SHL SUB AND PUSH2 0x1770 JUMPI PUSH2 0x172E PUSH2 0x1729 DUP4 DUP6 PUSH2 0x3E2D JUMP JUMPDEST PUSH2 0x3E90 JUMP JUMPDEST PUSH1 0x3 DUP2 SWAP1 SSTORE PUSH2 0x174B SWAP1 PUSH2 0x1746 SWAP1 PUSH1 0x1 PUSH1 0x60 SHL DUP7 PUSH2 0x3640 JUMP JUMPDEST PUSH2 0x3EE1 JUMP JUMPDEST PUSH1 0x2 DUP1 SLOAD PUSH1 0x1 PUSH1 0x1 PUSH1 0xA0 SHL SUB NOT AND PUSH1 0x1 PUSH1 0x1 PUSH1 0xA0 SHL SUB SWAP3 SWAP1 SWAP3 AND SWAP2 SWAP1 SWAP2 OR SWAP1 SSTORE PUSH2 0x1807 JUMP JUMPDEST PUSH1 0x2 SLOAD PUSH1 0x0 SWAP1 PUSH2 0x178A SWAP1 DUP6 SWAP1 PUSH1 0x1 PUSH1 0x1 PUSH1 0xA0 SHL SUB AND PUSH2 0x29CE JUMP JUMPDEST SWAP1 POP DUP1 DUP4 LT ISZERO PUSH2 0x17C0 JUMPI PUSH1 0x2 SLOAD PUSH1 0x0 SWAP1 PUSH2 0x17AE SWAP1 DUP4 SWAP1 PUSH1 0x1 PUSH1 0x1 PUSH1 0xA0 SHL SUB AND PUSH2 0x1952 JUMP JUMPDEST SWAP1 POP PUSH2 0x17BD DUP2 DUP7 SUB PUSH1 0x0 PUSH2 0x3BA5 JUMP JUMPDEST SWAP4 POP JUMPDEST DUP1 DUP4 GT ISZERO PUSH2 0x17D5 JUMPI PUSH2 0x17D5 PUSH1 0x0 DUP3 DUP6 SUB PUSH2 0x3BA5 JUMP JUMPDEST PUSH2 0x17DD PUSH2 0xF6D JUMP JUMPDEST SWAP2 POP PUSH2 0x1802 PUSH2 0x17EC DUP4 DUP7 PUSH2 0x385F JUMP JUMPDEST PUSH1 0x2 SLOAD PUSH1 0x1 PUSH1 0x1 PUSH1 0xA0 SHL SUB AND PUSH1 0x1 PUSH1 0x60 SHL PUSH2 0x3640 JUMP JUMPDEST PUSH1 0x3 SSTORE POP JUMPDEST PUSH1 0x17 SLOAD PUSH2 0x1831 JUMPI PUSH1 0x2 SLOAD PUSH2 0x182A SWAP1 DUP5 SWAP1 PUSH1 0x1 PUSH1 0x1 PUSH1 0xA0 SHL SUB AND PUSH1 0x1 PUSH1 0x60 SHL PUSH2 0x3640 JUMP JUMPDEST SWAP4 POP PUSH2 0x1841 JUMP JUMPDEST PUSH2 0x183E DUP4 PUSH1 0x17 SLOAD DUP4 PUSH2 0x3640 JUMP JUMPDEST SWAP4 POP JUMPDEST PUSH2 0x184B DUP6 DUP6 PUSH2 0x3EF7 JUMP JUMPDEST PUSH1 0x2 SLOAD PUSH1 0x3 SLOAD PUSH1 0x40 DUP1 MLOAD DUP7 DUP2 MSTORE PUSH1 0x1 PUSH1 0x1 PUSH1 0xA0 SHL SUB SWAP4 DUP5 AND PUSH1 0x20 DUP3 ADD MSTORE SWAP3 DUP9 AND DUP4 DUP3 ADD MSTORE PUSH1 0x60 DUP4 ADD SWAP2 SWAP1 SWAP2 MSTORE MLOAD CALLER SWAP2 PUSH32 0xF9C32FBC56FF04F32A233EBC26E388564223745E28ABD8D0781DD906537F563E SWAP2 SWAP1 DUP2 SWAP1 SUB PUSH1 0x80 ADD SWAP1 LOG2 PUSH2 0x18AD PUSH2 0x38AE JUMP JUMPDEST PUSH1 0x1F SSTORE PUSH2 0x18B8 PUSH2 0x3744 JUMP JUMPDEST PUSH1 0x20 SSTORE POP POP PUSH1 0x1E DUP1 SLOAD PUSH1 0xFF NOT AND PUSH1 0x1 OR SWAP1 SSTORE POP SWAP2 SWAP1 POP JUMP JUMPDEST PUSH1 0x1 PUSH1 0x1 PUSH1 0xA0 SHL SUB DUP3 AND PUSH1 0x0 SWAP1 DUP2 MSTORE PUSH1 0x1A PUSH1 0x20 MSTORE PUSH1 0x40 DUP2 KECCAK256 SLOAD PUSH1 0x1C SLOAD DUP3 SWAP2 PUSH2 0x1908 SWAP2 DUP6 SWAP2 PUSH2 0x18FE SWAP2 SWAP1 PUSH2 0x34AB JUMP JUMPDEST PUSH1 0x1 PUSH1 0x60 SHL PUSH2 0x3640 JUMP JUMPDEST PUSH1 0x1 PUSH1 0x1 PUSH1 0xA0 SHL SUB DUP6 AND PUSH1 0x0 SWAP1 DUP2 MSTORE PUSH1 0x1A PUSH1 0x20 MSTORE PUSH1 0x40 SWAP1 KECCAK256 SLOAD PUSH1 0x1C SLOAD SWAP2 SWAP4 POP PUSH2 0x1937 SWAP2 DUP6 SWAP2 PUSH2 0x18FE SWAP2 SWAP1 PUSH2 0x34AB JUMP JUMPDEST SWAP1 POP SWAP3 POP SWAP3 SWAP1 POP JUMP JUMPDEST PUSH1 0x18 PUSH1 0x20 MSTORE PUSH1 0x0 SWAP1 DUP2 MSTORE PUSH1 0x40 SWAP1 KECCAK256 SLOAD DUP2 JUMP JUMPDEST PUSH1 0x0 PUSH1 0x1 PUSH1 0x1 PUSH1 0xA0 SHL SUB DUP3 AND ISZERO DUP1 PUSH2 0x1968 JUMPI POP DUP3 ISZERO JUMPDEST ISZERO PUSH2 0x1975 JUMPI POP PUSH1 0x0 PUSH2 0xD1F JUMP JUMPDEST PUSH2 0xE9D PUSH2 0x1990 DUP5 PUSH1 0x1 PUSH1 0x60 SHL DUP6 PUSH1 0x1 PUSH1 0x1 PUSH1 0xA0 SHL SUB AND PUSH2 0x3640 JUMP JUMPDEST PUSH1 0x1 PUSH1 0x60 SHL DUP5 PUSH1 0x1 PUSH1 0x1 PUSH1 0xA0 SHL SUB AND PUSH2 0x3640 JUMP JUMPDEST PUSH1 0x1C SLOAD DUP2 JUMP JUMPDEST PUSH1 0x1E SLOAD PUSH1 0x0 SWAP1 PUSH1 0xFF AND PUSH2 0x19EA JUMPI PUSH1 0x40 DUP1 MLOAD PUSH3 0x461BCD PUSH1 0xE5 SHL DUP2 MSTORE PUSH1 0x20 PUSH1 0x4 DUP3 ADD MSTORE PUSH1 0x3 PUSH1 0x24 DUP3 ADD MSTORE PUSH3 0x4C4F4B PUSH1 0xE8 SHL PUSH1 0x44 DUP3 ADD MSTORE SWAP1 MLOAD SWAP1 DUP2 SWAP1 SUB PUSH1 0x64 ADD SWAP1 REVERT JUMPDEST PUSH1 0x1E DUP1 SLOAD PUSH1 0xFF NOT AND SWAP1 SSTORE PUSH1 0x2 SLOAD PUSH1 0x1 PUSH1 0x1 PUSH1 0xA0 SHL SUB AND PUSH2 0x1A09 JUMPI PUSH1 0x0 DUP1 REVERT JUMPDEST PUSH1 0x0 PUSH2 0x1A14 DUP6 PUSH2 0x3FFC JUMP JUMPDEST PUSH1 0x2 DUP7 DUP2 SIGNEXTEND SWAP1 SIGNEXTEND PUSH1 0x0 SWAP1 DUP2 MSTORE PUSH1 0xB PUSH1 0x20 SWAP1 DUP2 MSTORE PUSH1 0x40 DUP1 DUP4 KECCAK256 DUP2 MLOAD PUSH1 0x80 DUP2 ADD DUP4 MSTORE DUP2 SLOAD PUSH1 0x1 PUSH1 0x1 PUSH1 0x80 SHL SUB DUP1 DUP3 AND DUP4 MSTORE PUSH1 0x1 PUSH1 0x80 SHL SWAP2 DUP3 SWAP1 DIV DUP2 AND SWAP6 DUP4 ADD SWAP6 SWAP1 SWAP6 MSTORE PUSH1 0x1 SWAP1 SWAP3 ADD SLOAD DUP1 DUP6 AND SWAP4 DUP3 ADD SWAP4 SWAP1 SWAP4 MSTORE SWAP2 DIV SWAP1 SWAP2 AND PUSH1 0x60 DUP3 ADD MSTORE SWAP2 SWAP3 POP PUSH2 0x1A80 SWAP2 DUP8 SWAP2 DUP5 SWAP1 DUP1 PUSH2 0x432D JUMP JUMPDEST PUSH2 0x1A89 DUP5 PUSH2 0x3729 JUMP JUMPDEST POP DUP3 ISZERO PUSH2 0x1AC8 JUMPI PUSH2 0x1A98 PUSH2 0x38AE JUMP JUMPDEST PUSH1 0x1F SLOAD PUSH2 0x1AA5 SWAP1 DUP7 PUSH2 0x385F JUMP JUMPDEST GT ISZERO PUSH2 0x1AC3 JUMPI PUSH1 0x11 SLOAD PUSH2 0x1AC3 SWAP1 PUSH1 0x1 PUSH1 0x1 PUSH1 0xA0 SHL SUB AND CALLER ADDRESS DUP8 PUSH2 0x44D6 JUMP JUMPDEST PUSH2 0x1AFB JUMP JUMPDEST PUSH2 0x1AD0 PUSH2 0x3744 JUMP JUMPDEST PUSH1 0x20 SLOAD PUSH2 0x1ADD SWAP1 DUP7 PUSH2 0x385F JUMP JUMPDEST GT ISZERO PUSH2 0x1AFB JUMPI PUSH1 0x12 SLOAD PUSH2 0x1AFB SWAP1 PUSH1 0x1 PUSH1 0x1 PUSH1 0xA0 SHL SUB AND CALLER ADDRESS DUP8 PUSH2 0x44D6 JUMP JUMPDEST CALLER DUP1 EXTCODESIZE DUP1 ISZERO PUSH2 0x1B6E JUMPI DUP2 PUSH1 0x1 PUSH1 0x1 PUSH1 0xA0 SHL SUB AND PUSH4 0x67E404CE PUSH1 0x40 MLOAD DUP2 PUSH4 0xFFFFFFFF AND PUSH1 0xE0 SHL DUP2 MSTORE PUSH1 0x4 ADD PUSH1 0x20 PUSH1 0x40 MLOAD DUP1 DUP4 SUB DUP2 PUSH1 0x0 DUP8 DUP1 EXTCODESIZE ISZERO DUP1 ISZERO PUSH2 0x1B3F JUMPI PUSH1 0x0 DUP1 REVERT JUMPDEST POP GAS CALL ISZERO DUP1 ISZERO PUSH2 0x1B53 JUMPI RETURNDATASIZE PUSH1 0x0 DUP1 RETURNDATACOPY RETURNDATASIZE PUSH1 0x0 REVERT JUMPDEST POP POP POP POP PUSH1 0x40 MLOAD RETURNDATASIZE PUSH1 0x20 DUP2 LT ISZERO PUSH2 0x1B69 JUMPI PUSH1 0x0 DUP1 REVERT JUMPDEST POP MLOAD SWAP2 POP JUMPDEST POP PUSH1 0x0 DUP6 DUP6 DUP1 ISZERO PUSH2 0x1B8B JUMPI POP PUSH2 0x1B82 PUSH2 0x962 JUMP JUMPDEST PUSH1 0x2 SIGNEXTEND DUP9 PUSH1 0x2 SIGNEXTEND SLT JUMPDEST DUP1 PUSH2 0x1BAB JUMPI POP DUP6 ISZERO DUP1 ISZERO PUSH2 0x1BAB JUMPI POP PUSH2 0x1BA2 PUSH2 0x962 JUMP JUMPDEST PUSH1 0x2 SIGNEXTEND DUP9 PUSH1 0x2 SIGNEXTEND SGT JUMPDEST ISZERO PUSH2 0x1BC3 JUMPI PUSH2 0x1BBC DUP8 DUP8 ISZERO DUP11 PUSH2 0x3928 JUMP JUMPDEST POP SWAP1 SWAP8 POP SWAP2 POP JUMPDEST DUP7 ISZERO PUSH2 0x2339 JUMPI PUSH1 0x2 DUP9 DUP2 SIGNEXTEND SWAP1 SIGNEXTEND PUSH1 0x0 SWAP1 DUP2 MSTORE PUSH1 0xB PUSH1 0x20 SWAP1 DUP2 MSTORE PUSH1 0x40 DUP1 DUP4 KECCAK256 DUP2 MLOAD PUSH1 0x80 DUP2 ADD DUP4 MSTORE DUP2 SLOAD PUSH1 0x1 PUSH1 0x1 PUSH1 0x80 SHL SUB DUP1 DUP3 AND DUP4 MSTORE PUSH1 0x1 PUSH1 0x80 SHL SWAP2 DUP3 SWAP1 DIV DUP2 AND SWAP6 DUP4 ADD SWAP6 SWAP1 SWAP6 MSTORE PUSH1 0x1 SWAP1 SWAP3 ADD SLOAD DUP1 DUP6 AND SWAP4 DUP3 ADD SWAP4 SWAP1 SWAP4 MSTORE SWAP2 DIV SWAP1 SWAP2 AND PUSH1 0x60 DUP3 ADD MSTORE DUP2 SWAP1 DUP9 ISZERO PUSH2 0x1D1D JUMPI PUSH2 0x1C37 DUP12 PUSH1 0x1 PUSH2 0x30A9 JUMP JUMPDEST ISZERO DUP1 ISZERO PUSH2 0x1C4D JUMPI POP DUP1 MLOAD PUSH1 0x1 PUSH1 0x1 PUSH1 0x80 SHL SUB AND ISZERO ISZERO JUMPDEST ISZERO PUSH2 0x1CDA JUMPI DUP1 MLOAD PUSH2 0x1C70 SWAP1 PUSH1 0x1 PUSH1 0x1 PUSH1 0x80 SHL SUB AND PUSH2 0x1C6B DUP13 DUP11 PUSH2 0x29CE JUMP JUMPDEST PUSH2 0x362A JUMP JUMPDEST SWAP3 POP PUSH2 0x1C7C DUP4 DUP9 PUSH2 0x1952 JUMP JUMPDEST SWAP2 POP PUSH2 0x1C87 DUP4 PUSH2 0x3729 JUMP JUMPDEST DUP2 MLOAD SUB PUSH1 0x1 PUSH1 0x1 PUSH1 0x80 SHL SUB AND DUP2 MSTORE PUSH2 0x1C9E DUP3 PUSH2 0x3729 JUMP JUMPDEST PUSH1 0x20 DUP3 ADD DUP1 MLOAD SWAP2 SWAP1 SWAP2 ADD PUSH1 0x1 PUSH1 0x1 PUSH1 0x80 SHL SUB AND SWAP1 MSTORE PUSH2 0x1CBD DUP11 DUP5 PUSH2 0x34AB JUMP JUMPDEST SWAP10 POP DUP10 ISZERO PUSH2 0x1CCD JUMPI PUSH1 0x0 NOT SWAP1 SWAP10 ADD SWAP9 JUMPDEST PUSH2 0x1CD7 DUP6 DUP5 PUSH2 0x385F JUMP JUMPDEST SWAP5 POP JUMPDEST PUSH2 0x1CE3 DUP11 PUSH2 0x3729 JUMP JUMPDEST PUSH1 0x40 DUP3 ADD DUP1 MLOAD SWAP2 SWAP1 SWAP2 ADD PUSH1 0x1 PUSH1 0x1 PUSH1 0x80 SHL SUB AND SWAP1 MSTORE PUSH2 0x1D18 DUP12 DUP3 DUP10 PUSH2 0x1D07 DUP15 PUSH2 0x4632 JUMP JUMPDEST PUSH2 0x1D10 DUP9 PUSH2 0x4632 JUMP JUMPDEST PUSH1 0x0 SUB PUSH2 0x432D JUMP JUMPDEST PUSH2 0x1E0A JUMP JUMPDEST PUSH2 0x1D28 DUP12 PUSH1 0x0 PUSH2 0x30A9 JUMP JUMPDEST ISZERO DUP1 ISZERO PUSH2 0x1D42 JUMPI POP PUSH1 0x0 DUP2 PUSH1 0x40 ADD MLOAD PUSH1 0x1 PUSH1 0x1 PUSH1 0x80 SHL SUB AND GT JUMPDEST ISZERO PUSH2 0x1DD3 JUMPI PUSH2 0x1D62 DUP2 PUSH1 0x40 ADD MLOAD PUSH1 0x1 PUSH1 0x1 PUSH1 0x80 SHL SUB AND PUSH2 0x1C6B DUP13 DUP11 PUSH2 0x1952 JUMP JUMPDEST SWAP3 POP PUSH2 0x1D6E DUP4 DUP9 PUSH2 0x29CE JUMP JUMPDEST SWAP2 POP PUSH2 0x1D79 DUP4 PUSH2 0x3729 JUMP JUMPDEST PUSH1 0x40 DUP3 ADD DUP1 MLOAD SWAP2 SWAP1 SWAP2 SUB PUSH1 0x1 PUSH1 0x1 PUSH1 0x80 SHL SUB AND SWAP1 MSTORE PUSH2 0x1D97 DUP3 PUSH2 0x3729 JUMP JUMPDEST PUSH1 0x60 DUP3 ADD DUP1 MLOAD SWAP2 SWAP1 SWAP2 ADD PUSH1 0x1 PUSH1 0x1 PUSH1 0x80 SHL SUB AND SWAP1 MSTORE PUSH2 0x1DB6 DUP11 DUP5 PUSH2 0x34AB JUMP JUMPDEST SWAP10 POP DUP10 ISZERO PUSH2 0x1DC6 JUMPI PUSH1 0x0 NOT SWAP1 SWAP10 ADD SWAP9 JUMPDEST PUSH2 0x1DD0 DUP6 DUP5 PUSH2 0x385F JUMP JUMPDEST SWAP5 POP JUMPDEST PUSH2 0x1DDC DUP11 PUSH2 0x3729 JUMP JUMPDEST DUP2 MLOAD ADD PUSH1 0x1 PUSH1 0x1 PUSH1 0x80 SHL SUB AND DUP2 MSTORE PUSH2 0x1E0A DUP12 DUP3 DUP10 PUSH2 0x1DF9 DUP8 PUSH2 0x4632 JUMP JUMPDEST PUSH1 0x0 SUB PUSH2 0x1E05 DUP16 PUSH2 0x4632 JUMP JUMPDEST PUSH2 0x432D JUMP JUMPDEST PUSH1 0x15 DUP10 PUSH2 0x1E18 JUMPI PUSH1 0x0 PUSH2 0x1E1B JUMP JUMPDEST PUSH1 0x1 JUMPDEST PUSH1 0xFF AND PUSH1 0x2 DUP2 LT PUSH2 0x1E28 JUMPI INVALID JUMPDEST PUSH1 0x2 DUP14 DUP2 SIGNEXTEND SWAP1 SIGNEXTEND PUSH1 0x0 SWAP1 DUP2 MSTORE SWAP2 ADD PUSH1 0x20 MSTORE PUSH1 0x40 SWAP1 KECCAK256 SLOAD PUSH2 0x1E4E JUMPI PUSH4 0x3B9ACA00 SWAP8 POP PUSH2 0x1EF4 JUMP JUMPDEST DUP10 DUP2 PUSH1 0x40 ADD MLOAD PUSH1 0x1 PUSH1 0x1 PUSH1 0x80 SHL SUB AND EQ ISZERO PUSH2 0x1E9B JUMPI PUSH1 0x40 DUP1 MLOAD PUSH3 0x461BCD PUSH1 0xE5 SHL DUP2 MSTORE PUSH1 0x20 PUSH1 0x4 DUP3 ADD MSTORE PUSH1 0x8 PUSH1 0x24 DUP3 ADD MSTORE PUSH8 0x2224AB22A92927A9 PUSH1 0xC1 SHL PUSH1 0x44 DUP3 ADD MSTORE SWAP1 MLOAD SWAP1 DUP2 SWAP1 SUB PUSH1 0x64 ADD SWAP1 REVERT JUMPDEST PUSH2 0x1EF1 DUP11 PUSH1 0x15 DUP12 PUSH2 0x1EAD JUMPI PUSH1 0x0 PUSH2 0x1EB0 JUMP JUMPDEST PUSH1 0x1 JUMPDEST PUSH1 0xFF AND PUSH1 0x2 DUP2 LT PUSH2 0x1EBD JUMPI INVALID JUMPDEST PUSH1 0x2 DUP16 DUP2 SIGNEXTEND SWAP1 SIGNEXTEND PUSH1 0x0 SWAP1 DUP2 MSTORE SWAP2 ADD PUSH1 0x20 MSTORE PUSH1 0x40 SWAP1 DUP2 SWAP1 KECCAK256 SLOAD SWAP1 DUP5 ADD MLOAD PUSH2 0x1EEC SWAP1 PUSH1 0x1 PUSH1 0x1 PUSH1 0x80 SHL SUB AND DUP15 PUSH2 0x34AB JUMP JUMPDEST PUSH2 0x3640 JUMP JUMPDEST SWAP8 POP JUMPDEST PUSH2 0x1F32 DUP9 PUSH1 0x15 DUP12 PUSH2 0x1F06 JUMPI PUSH1 0x0 PUSH2 0x1F09 JUMP JUMPDEST PUSH1 0x1 JUMPDEST PUSH1 0xFF AND PUSH1 0x2 DUP2 LT PUSH2 0x1F16 JUMPI INVALID JUMPDEST PUSH1 0x2 DUP16 DUP2 SIGNEXTEND SWAP1 SIGNEXTEND PUSH1 0x0 SWAP1 DUP2 MSTORE SWAP2 ADD PUSH1 0x20 MSTORE PUSH1 0x40 SWAP1 KECCAK256 SLOAD SWAP1 PUSH2 0x385F JUMP JUMPDEST PUSH1 0x15 DUP11 PUSH2 0x1F40 JUMPI PUSH1 0x0 PUSH2 0x1F43 JUMP JUMPDEST PUSH1 0x1 JUMPDEST PUSH1 0xFF AND PUSH1 0x2 DUP2 LT PUSH2 0x1F50 JUMPI INVALID JUMPDEST PUSH1 0x2 DUP15 DUP2 SIGNEXTEND SWAP1 SIGNEXTEND PUSH1 0x0 SWAP1 DUP2 MSTORE SWAP2 ADD PUSH1 0x20 MSTORE PUSH1 0x40 SWAP1 KECCAK256 SSTORE PUSH1 0x13 DUP10 PUSH2 0x1F74 JUMPI PUSH1 0x0 PUSH2 0x1F77 JUMP JUMPDEST PUSH1 0x1 JUMPDEST PUSH1 0xFF AND PUSH1 0x2 DUP2 LT PUSH2 0x1F84 JUMPI INVALID JUMPDEST PUSH1 0x1 PUSH1 0x1 PUSH1 0xA0 SHL SUB DUP9 AND PUSH1 0x0 SWAP1 DUP2 MSTORE SWAP2 ADD PUSH1 0x20 SWAP1 DUP2 MSTORE PUSH1 0x40 DUP1 DUP4 KECCAK256 PUSH1 0x2 DUP16 DUP2 SIGNEXTEND SWAP1 SIGNEXTEND DUP5 MSTORE SWAP1 SWAP2 MSTORE SWAP1 KECCAK256 PUSH1 0x3 ADD SLOAD PUSH1 0x15 DUP11 PUSH2 0x1FBF JUMPI PUSH1 0x0 PUSH2 0x1FC2 JUMP JUMPDEST PUSH1 0x1 JUMPDEST PUSH1 0xFF AND PUSH1 0x2 DUP2 LT PUSH2 0x1FCF JUMPI INVALID JUMPDEST ADD PUSH1 0x0 DUP14 PUSH1 0x2 SIGNEXTEND PUSH1 0x2 SIGNEXTEND DUP2 MSTORE PUSH1 0x20 ADD SWAP1 DUP2 MSTORE PUSH1 0x20 ADD PUSH1 0x0 KECCAK256 PUSH1 0x2 ADD SLOAD GT ISZERO PUSH2 0x2058 JUMPI PUSH2 0x1FFD DUP7 DUP13 DUP12 CALLER PUSH2 0x4648 JUMP JUMPDEST PUSH1 0x13 DUP10 PUSH2 0x200B JUMPI PUSH1 0x0 PUSH2 0x200E JUMP JUMPDEST PUSH1 0x1 JUMPDEST PUSH1 0xFF AND PUSH1 0x2 DUP2 LT PUSH2 0x201B JUMPI INVALID JUMPDEST PUSH1 0x1 PUSH1 0x1 PUSH1 0xA0 SHL SUB DUP9 AND PUSH1 0x0 SWAP1 DUP2 MSTORE SWAP2 ADD PUSH1 0x20 SWAP1 DUP2 MSTORE PUSH1 0x40 DUP1 DUP4 KECCAK256 PUSH1 0x2 DUP16 DUP2 SIGNEXTEND DUP2 SIGNEXTEND DUP6 MSTORE SWAP3 MSTORE DUP3 KECCAK256 DUP3 DUP2 SSTORE PUSH1 0x1 DUP2 ADD DUP4 SWAP1 SSTORE SWAP1 DUP2 ADD DUP3 SWAP1 SSTORE PUSH1 0x3 ADD SSTORE JUMPDEST PUSH2 0x20C7 DUP9 PUSH1 0x13 DUP12 PUSH2 0x206A JUMPI PUSH1 0x0 PUSH2 0x206D JUMP JUMPDEST PUSH1 0x1 JUMPDEST PUSH1 0xFF AND PUSH1 0x2 DUP2 LT PUSH2 0x207A JUMPI INVALID JUMPDEST ADD PUSH1 0x0 DUP10 PUSH1 0x1 PUSH1 0x1 PUSH1 0xA0 SHL SUB AND PUSH1 0x1 PUSH1 0x1 PUSH1 0xA0 SHL SUB AND DUP2 MSTORE PUSH1 0x20 ADD SWAP1 DUP2 MSTORE PUSH1 0x20 ADD PUSH1 0x0 KECCAK256 PUSH1 0x0 DUP15 PUSH1 0x2 SIGNEXTEND PUSH1 0x2 SIGNEXTEND DUP2 MSTORE PUSH1 0x20 ADD SWAP1 DUP2 MSTORE PUSH1 0x20 ADD PUSH1 0x0 KECCAK256 PUSH1 0x0 ADD SLOAD PUSH2 0x385F SWAP1 SWAP2 SWAP1 PUSH4 0xFFFFFFFF AND JUMP JUMPDEST PUSH1 0x13 DUP11 PUSH2 0x20D5 JUMPI PUSH1 0x0 PUSH2 0x20D8 JUMP JUMPDEST PUSH1 0x1 JUMPDEST PUSH1 0xFF AND PUSH1 0x2 DUP2 LT PUSH2 0x20E5 JUMPI INVALID JUMPDEST ADD PUSH1 0x0 DUP9 PUSH1 0x1 PUSH1 0x1 PUSH1 0xA0 SHL SUB AND PUSH1 0x1 PUSH1 0x1 PUSH1 0xA0 SHL SUB AND DUP2 MSTORE PUSH1 0x20 ADD SWAP1 DUP2 MSTORE PUSH1 0x20 ADD PUSH1 0x0 KECCAK256 PUSH1 0x0 DUP14 PUSH1 0x2 SIGNEXTEND PUSH1 0x2 SIGNEXTEND DUP2 MSTORE PUSH1 0x20 ADD SWAP1 DUP2 MSTORE PUSH1 0x20 ADD PUSH1 0x0 KECCAK256 PUSH1 0x0 ADD DUP2 SWAP1 SSTORE POP PUSH2 0x216C PUSH1 0x15 DUP11 PUSH2 0x2138 JUMPI PUSH1 0x0 PUSH2 0x213B JUMP JUMPDEST PUSH1 0x1 JUMPDEST PUSH1 0xFF AND PUSH1 0x2 DUP2 LT PUSH2 0x2148 JUMPI INVALID JUMPDEST PUSH1 0x2 DUP15 DUP2 SIGNEXTEND SWAP1 SIGNEXTEND PUSH1 0x0 SWAP1 DUP2 MSTORE SWAP2 ADD PUSH1 0x20 MSTORE PUSH1 0x40 SWAP1 KECCAK256 PUSH1 0x1 ADD SLOAD DUP12 PUSH1 0x1 PUSH1 0x60 SHL PUSH2 0x3640 JUMP JUMPDEST PUSH1 0x13 DUP11 PUSH2 0x217A JUMPI PUSH1 0x0 PUSH2 0x217D JUMP JUMPDEST PUSH1 0x1 JUMPDEST PUSH1 0xFF AND PUSH1 0x2 DUP2 LT PUSH2 0x218A JUMPI INVALID JUMPDEST ADD PUSH1 0x0 DUP9 PUSH1 0x1 PUSH1 0x1 PUSH1 0xA0 SHL SUB AND PUSH1 0x1 PUSH1 0x1 PUSH1 0xA0 SHL SUB AND DUP2 MSTORE PUSH1 0x20 ADD SWAP1 DUP2 MSTORE PUSH1 0x20 ADD PUSH1 0x0 KECCAK256 PUSH1 0x0 DUP14 PUSH1 0x2 SIGNEXTEND PUSH1 0x2 SIGNEXTEND DUP2 MSTORE PUSH1 0x20 ADD SWAP1 DUP2 MSTORE PUSH1 0x20 ADD PUSH1 0x0 KECCAK256 PUSH1 0x1 ADD DUP2 SWAP1 SSTORE POP PUSH2 0x223B DUP11 PUSH1 0x13 DUP12 PUSH2 0x21DE JUMPI PUSH1 0x0 PUSH2 0x21E1 JUMP JUMPDEST PUSH1 0x1 JUMPDEST PUSH1 0xFF AND PUSH1 0x2 DUP2 LT PUSH2 0x21EE JUMPI INVALID JUMPDEST ADD PUSH1 0x0 DUP10 PUSH1 0x1 PUSH1 0x1 PUSH1 0xA0 SHL SUB AND PUSH1 0x1 PUSH1 0x1 PUSH1 0xA0 SHL SUB AND DUP2 MSTORE PUSH1 0x20 ADD SWAP1 DUP2 MSTORE PUSH1 0x20 ADD PUSH1 0x0 KECCAK256 PUSH1 0x0 DUP15 PUSH1 0x2 SIGNEXTEND PUSH1 0x2 SIGNEXTEND DUP2 MSTORE PUSH1 0x20 ADD SWAP1 DUP2 MSTORE PUSH1 0x20 ADD PUSH1 0x0 KECCAK256 PUSH1 0x2 ADD SLOAD PUSH2 0x385F SWAP1 SWAP2 SWAP1 PUSH4 0xFFFFFFFF AND JUMP JUMPDEST PUSH1 0x13 DUP11 PUSH2 0x2249 JUMPI PUSH1 0x0 PUSH2 0x224C JUMP JUMPDEST PUSH1 0x1 JUMPDEST PUSH1 0xFF AND PUSH1 0x2 DUP2 LT PUSH2 0x2259 JUMPI INVALID JUMPDEST ADD PUSH1 0x0 DUP9 PUSH1 0x1 PUSH1 0x1 PUSH1 0xA0 SHL SUB AND PUSH1 0x1 PUSH1 0x1 PUSH1 0xA0 SHL SUB AND DUP2 MSTORE PUSH1 0x20 ADD SWAP1 DUP2 MSTORE PUSH1 0x20 ADD PUSH1 0x0 KECCAK256 PUSH1 0x0 DUP14 PUSH1 0x2 SIGNEXTEND PUSH1 0x2 SIGNEXTEND DUP2 MSTORE PUSH1 0x20 ADD SWAP1 DUP2 MSTORE PUSH1 0x20 ADD PUSH1 0x0 KECCAK256 PUSH1 0x2 ADD DUP2 SWAP1 SSTORE POP PUSH1 0x15 DUP10 PUSH2 0x22A9 JUMPI PUSH1 0x0 PUSH2 0x22AC JUMP JUMPDEST PUSH1 0x1 JUMPDEST PUSH1 0xFF AND PUSH1 0x2 DUP2 LT PUSH2 0x22B9 JUMPI INVALID JUMPDEST ADD PUSH1 0x0 DUP13 PUSH1 0x2 SIGNEXTEND PUSH1 0x2 SIGNEXTEND DUP2 MSTORE PUSH1 0x20 ADD SWAP1 DUP2 MSTORE PUSH1 0x20 ADD PUSH1 0x0 KECCAK256 PUSH1 0x2 ADD SLOAD PUSH1 0x13 DUP11 PUSH2 0x22E3 JUMPI PUSH1 0x0 PUSH2 0x22E6 JUMP JUMPDEST PUSH1 0x1 JUMPDEST PUSH1 0xFF AND PUSH1 0x2 DUP2 LT PUSH2 0x22F3 JUMPI INVALID JUMPDEST ADD PUSH1 0x0 DUP9 PUSH1 0x1 PUSH1 0x1 PUSH1 0xA0 SHL SUB AND PUSH1 0x1 PUSH1 0x1 PUSH1 0xA0 SHL SUB AND DUP2 MSTORE PUSH1 0x20 ADD SWAP1 DUP2 MSTORE PUSH1 0x20 ADD PUSH1 0x0 KECCAK256 PUSH1 0x0 DUP14 PUSH1 0x2 SIGNEXTEND PUSH1 0x2 SIGNEXTEND DUP2 MSTORE PUSH1 0x20 ADD SWAP1 DUP2 MSTORE PUSH1 0x20 ADD PUSH1 0x0 KECCAK256 PUSH1 0x3 ADD DUP2 SWAP1 SSTORE POP POP POP POP JUMPDEST DUP2 ISZERO PUSH2 0x243B JUMPI PUSH1 0x0 DUP7 PUSH2 0x234C JUMPI DUP3 PUSH2 0x234F JUMP JUMPDEST PUSH1 0x0 JUMPDEST SWAP1 POP PUSH1 0x0 DUP8 PUSH2 0x235F JUMPI PUSH1 0x0 PUSH2 0x2361 JUMP JUMPDEST DUP4 JUMPDEST SWAP1 POP PUSH1 0x0 DUP1 PUSH2 0x2373 CALLER DUP6 DUP6 PUSH1 0x1 PUSH2 0x3AFF JUMP JUMPDEST SWAP2 POP SWAP2 POP PUSH2 0x2381 DUP3 DUP3 PUSH2 0x3BA5 JUMP JUMPDEST DUP7 PUSH1 0x1 PUSH1 0x1 PUSH1 0xA0 SHL SUB AND PUSH32 0xF387028D07D8F15C52617B2A0C42EF249B749ED1A07F91B5A79560C3327A701E DUP12 PUSH2 0x23B8 JUMPI PUSH1 0x0 PUSH2 0x23C3 JUMP JUMPDEST PUSH2 0x23C3 DUP14 DUP9 SUB PUSH2 0x3729 JUMP JUMPDEST DUP13 PUSH2 0x23D8 JUMPI PUSH2 0x23D3 DUP15 DUP10 SUB PUSH2 0x3729 JUMP JUMPDEST PUSH2 0x23DB JUMP JUMPDEST PUSH1 0x0 JUMPDEST PUSH2 0x23E6 DUP7 DUP10 SUB PUSH2 0x3729 JUMP JUMPDEST PUSH2 0x23F1 DUP7 DUP10 SUB PUSH2 0x3729 JUMP JUMPDEST PUSH1 0x2 SLOAD PUSH1 0x40 DUP1 MLOAD PUSH1 0x1 PUSH1 0x1 PUSH1 0x80 SHL SUB SWAP7 DUP8 AND DUP2 MSTORE SWAP5 DUP7 AND PUSH1 0x20 DUP7 ADD MSTORE SWAP3 DUP6 AND DUP5 DUP5 ADD MSTORE SWAP4 AND PUSH1 0x60 DUP4 ADD MSTORE PUSH1 0x1 PUSH1 0x1 PUSH1 0xA0 SHL SUB SWAP1 SWAP3 AND PUSH1 0x80 DUP3 ADD MSTORE SWAP1 MLOAD SWAP1 DUP2 SWAP1 SUB PUSH1 0xA0 ADD SWAP1 LOG2 POP POP POP POP JUMPDEST DUP3 PUSH1 0x1 PUSH1 0x1 PUSH1 0xA0 SHL SUB AND PUSH32 0xF1A73C4BA2A463DD1BD57BBAE8BF5385904B0E25B6EB91B82276A57481B9FC68 DUP10 DUP9 PUSH2 0x247A JUMPI PUSH2 0x2475 DUP9 PUSH2 0x3729 JUMP JUMPDEST PUSH2 0x247D JUMP JUMPDEST PUSH1 0x0 JUMPDEST DUP10 PUSH2 0x2489 JUMPI PUSH1 0x0 PUSH2 0x2492 JUMP JUMPDEST PUSH2 0x2492 DUP10 PUSH2 0x3729 JUMP JUMPDEST DUP11 PUSH2 0x249E JUMPI PUSH1 0x0 PUSH2 0x24A7 JUMP JUMPDEST PUSH2 0x24A7 DUP13 PUSH2 0x3729 JUMP JUMPDEST DUP12 PUSH2 0x24BA JUMPI PUSH2 0x24B5 DUP14 PUSH2 0x3729 JUMP JUMPDEST PUSH2 0x24BD JUMP JUMPDEST PUSH1 0x0 JUMPDEST PUSH1 0x40 DUP1 MLOAD PUSH1 0x2 SWAP7 SWAP1 SWAP7 SIGNEXTEND DUP7 MSTORE PUSH1 0x1 PUSH1 0x1 PUSH1 0x80 SHL SUB SWAP5 DUP6 AND PUSH1 0x20 DUP8 ADD MSTORE SWAP3 DUP5 AND DUP6 DUP5 ADD MSTORE SWAP1 DUP4 AND PUSH1 0x60 DUP6 ADD MSTORE SWAP1 SWAP2 AND PUSH1 0x80 DUP4 ADD MSTORE MLOAD SWAP1 DUP2 SWAP1 SUB PUSH1 0xA0 ADD SWAP1 LOG2 PUSH2 0x2502 PUSH2 0x38AE JUMP JUMPDEST PUSH1 0x1F SSTORE PUSH2 0x250D PUSH2 0x3744 JUMP JUMPDEST PUSH1 0x20 SSTORE POP POP PUSH1 0x1E DUP1 SLOAD PUSH1 0xFF NOT AND PUSH1 0x1 OR SWAP1 SSTORE POP SWAP1 SWAP5 SWAP4 POP POP POP POP JUMP JUMPDEST PUSH1 0x1E SLOAD PUSH1 0x0 SWAP1 DUP2 SWAP1 PUSH1 0xFF AND PUSH2 0x256B JUMPI PUSH1 0x40 DUP1 MLOAD PUSH3 0x461BCD PUSH1 0xE5 SHL DUP2 MSTORE PUSH1 0x20 PUSH1 0x4 DUP3 ADD MSTORE PUSH1 0x3 PUSH1 0x24 DUP3 ADD MSTORE PUSH3 0x4C4F4B PUSH1 0xE8 SHL PUSH1 0x44 DUP3 ADD MSTORE SWAP1 MLOAD SWAP1 DUP2 SWAP1 SUB PUSH1 0x64 ADD SWAP1 REVERT JUMPDEST PUSH1 0x1E DUP1 SLOAD PUSH1 0xFF NOT AND SWAP1 SSTORE ADDRESS PUSH1 0x0 SWAP1 DUP2 MSTORE PUSH1 0x18 PUSH1 0x20 MSTORE PUSH1 0x40 SWAP1 KECCAK256 SLOAD PUSH2 0x258E DUP2 PUSH2 0xEA4 JUMP JUMPDEST SWAP1 SWAP4 POP SWAP2 POP PUSH2 0x25A2 PUSH2 0x17EC DUP5 PUSH2 0x16DB PUSH2 0xF6D JUMP JUMPDEST PUSH1 0x3 DUP2 SWAP1 SSTORE PUSH2 0x25B1 JUMPI PUSH1 0x1 PUSH1 0x3 SSTORE JUMPDEST ADDRESS PUSH1 0x0 SWAP1 DUP2 MSTORE PUSH1 0x1A PUSH1 0x20 MSTORE PUSH1 0x40 SWAP1 KECCAK256 SLOAD PUSH1 0x1C SLOAD PUSH2 0x25DF SWAP2 PUSH2 0x25D8 SWAP2 DUP5 SWAP2 PUSH2 0x18FE SWAP2 SWAP1 PUSH2 0x34AB JUMP JUMPDEST DUP5 SWAP1 PUSH2 0x385F JUMP JUMPDEST ADDRESS PUSH1 0x0 SWAP1 DUP2 MSTORE PUSH1 0x1B PUSH1 0x20 MSTORE PUSH1 0x40 SWAP1 KECCAK256 SLOAD PUSH1 0x1D SLOAD SWAP2 SWAP5 POP PUSH2 0x260F SWAP2 PUSH2 0x2608 SWAP2 DUP5 SWAP2 PUSH2 0x18FE SWAP2 PUSH2 0x34AB JUMP JUMPDEST DUP4 SWAP1 PUSH2 0x385F JUMP JUMPDEST PUSH1 0x11 SLOAD SWAP1 SWAP3 POP PUSH2 0x2634 SWAP1 PUSH1 0x1 PUSH1 0x1 PUSH1 0xA0 SHL SUB AND DUP6 PUSH2 0x262F DUP7 PUSH2 0x1C6B PUSH2 0x38AE JUMP JUMPDEST PUSH2 0x3CC4 JUMP JUMPDEST PUSH1 0x12 SLOAD PUSH2 0x2651 SWAP1 PUSH1 0x1 PUSH1 0x1 PUSH1 0xA0 SHL SUB AND DUP6 PUSH2 0x262F DUP6 PUSH2 0x1C6B PUSH2 0x3744 JUMP JUMPDEST PUSH2 0x265B ADDRESS DUP3 PUSH2 0x486C JUMP JUMPDEST POP POP PUSH1 0x2 SLOAD PUSH1 0x3 SLOAD PUSH1 0x40 DUP1 MLOAD DUP7 DUP2 MSTORE PUSH1 0x1 PUSH1 0x1 PUSH1 0xA0 SHL SUB SWAP4 DUP5 AND PUSH1 0x20 DUP3 ADD MSTORE SWAP3 DUP8 AND DUP4 DUP3 ADD MSTORE PUSH1 0x60 DUP4 ADD SWAP2 SWAP1 SWAP2 MSTORE MLOAD CALLER SWAP2 PUSH32 0xA476CEBFBE7485684F5578D84D8A64A8AFE93A0A2A3047BD6F3E681E108B8F11 SWAP2 SWAP1 DUP2 SWAP1 SUB PUSH1 0x80 ADD SWAP1 LOG2 PUSH2 0x26BF PUSH2 0x38AE JUMP JUMPDEST PUSH1 0x1F SSTORE PUSH2 0x26CA PUSH2 0x3744 JUMP JUMPDEST PUSH1 0x20 SSTORE POP PUSH1 0x1E DUP1 SLOAD PUSH1 0xFF NOT AND PUSH1 0x1 OR SWAP1 SSTORE SWAP1 SWAP3 SWAP1 SWAP2 POP JUMP JUMPDEST PUSH32 0x0 DUP2 JUMP JUMPDEST PUSH1 0x20 SLOAD DUP2 JUMP JUMPDEST PUSH1 0x11 SLOAD PUSH1 0x40 DUP1 MLOAD PUSH4 0x95D89B41 PUSH1 0xE0 SHL DUP2 MSTORE SWAP1 MLOAD PUSH1 0x60 SWAP3 PUSH1 0x1 PUSH1 0x1 PUSH1 0xA0 SHL SUB AND SWAP2 PUSH4 0x95D89B41 SWAP2 PUSH1 0x4 DUP1 DUP4 ADD SWAP3 PUSH1 0x0 SWAP3 SWAP2 SWAP1 DUP3 SWAP1 SUB ADD DUP2 DUP7 DUP1 EXTCODESIZE ISZERO DUP1 ISZERO PUSH2 0x2751 JUMPI PUSH1 0x0 DUP1 REVERT JUMPDEST POP GAS STATICCALL ISZERO DUP1 ISZERO PUSH2 0x2765 JUMPI RETURNDATASIZE PUSH1 0x0 DUP1 RETURNDATACOPY RETURNDATASIZE PUSH1 0x0 REVERT JUMPDEST POP POP POP POP PUSH1 0x40 MLOAD RETURNDATASIZE PUSH1 0x0 DUP3 RETURNDATACOPY PUSH1 0x1F RETURNDATASIZE SWAP1 DUP2 ADD PUSH1 0x1F NOT AND DUP3 ADD PUSH1 0x40 MSTORE PUSH1 0x20 DUP2 LT ISZERO PUSH2 0x278E JUMPI PUSH1 0x0 DUP1 REVERT JUMPDEST DUP2 ADD SWAP1 DUP1 DUP1 MLOAD PUSH1 0x40 MLOAD SWAP4 SWAP3 SWAP2 SWAP1 DUP5 PUSH1 0x1 PUSH1 0x20 SHL DUP3 GT ISZERO PUSH2 0x27AD JUMPI PUSH1 0x0 DUP1 REVERT JUMPDEST SWAP1 DUP4 ADD SWAP1 PUSH1 0x20 DUP3 ADD DUP6 DUP2 GT ISZERO PUSH2 0x27C2 JUMPI PUSH1 0x0 DUP1 REVERT JUMPDEST DUP3 MLOAD PUSH1 0x1 PUSH1 0x20 SHL DUP2 GT DUP3 DUP3 ADD DUP9 LT OR ISZERO PUSH2 0x27DB JUMPI PUSH1 0x0 DUP1 REVERT JUMPDEST DUP3 MSTORE POP DUP2 MLOAD PUSH1 0x20 SWAP2 DUP3 ADD SWAP3 SWAP1 SWAP2 ADD SWAP1 DUP1 DUP4 DUP4 PUSH1 0x0 JUMPDEST DUP4 DUP2 LT ISZERO PUSH2 0x2808 JUMPI DUP2 DUP2 ADD MLOAD DUP4 DUP3 ADD MSTORE PUSH1 0x20 ADD PUSH2 0x27F0 JUMP JUMPDEST POP POP POP POP SWAP1 POP SWAP1 DUP2 ADD SWAP1 PUSH1 0x1F AND DUP1 ISZERO PUSH2 0x2835 JUMPI DUP1 DUP3 SUB DUP1 MLOAD PUSH1 0x1 DUP4 PUSH1 0x20 SUB PUSH2 0x100 EXP SUB NOT AND DUP2 MSTORE PUSH1 0x20 ADD SWAP2 POP JUMPDEST POP PUSH1 0x40 DUP2 DUP2 MSTORE PUSH1 0x12 SLOAD PUSH4 0x95D89B41 PUSH1 0xE0 SHL DUP4 MSTORE SWAP1 MLOAD PUSH1 0x1 PUSH1 0x1 PUSH1 0xA0 SHL SUB SWAP1 SWAP2 AND SWAP5 POP PUSH4 0x95D89B41 SWAP4 POP PUSH1 0x4 DUP1 DUP4 ADD SWAP4 POP PUSH1 0x0 SWAP3 DUP3 SWAP1 SUB ADD DUP2 DUP7 DUP1 EXTCODESIZE ISZERO DUP1 ISZERO PUSH2 0x287C JUMPI PUSH1 0x0 DUP1 REVERT JUMPDEST POP GAS STATICCALL ISZERO DUP1 ISZERO PUSH2 0x2890 JUMPI RETURNDATASIZE PUSH1 0x0 DUP1 RETURNDATACOPY RETURNDATASIZE PUSH1 0x0 REVERT JUMPDEST POP POP POP POP PUSH1 0x40 MLOAD RETURNDATASIZE PUSH1 0x0 DUP3 RETURNDATACOPY PUSH1 0x1F RETURNDATASIZE SWAP1 DUP2 ADD PUSH1 0x1F NOT AND DUP3 ADD PUSH1 0x40 MSTORE PUSH1 0x20 DUP2 LT ISZERO PUSH2 0x28B9 JUMPI PUSH1 0x0 DUP1 REVERT JUMPDEST DUP2 ADD SWAP1 DUP1 DUP1 MLOAD PUSH1 0x40 MLOAD SWAP4 SWAP3 SWAP2 SWAP1 DUP5 PUSH1 0x1 PUSH1 0x20 SHL DUP3 GT ISZERO PUSH2 0x28D8 JUMPI PUSH1 0x0 DUP1 REVERT JUMPDEST SWAP1 DUP4 ADD SWAP1 PUSH1 0x20 DUP3 ADD DUP6 DUP2 GT ISZERO PUSH2 0x28ED JUMPI PUSH1 0x0 DUP1 REVERT JUMPDEST DUP3 MLOAD PUSH1 0x1 PUSH1 0x20 SHL DUP2 GT DUP3 DUP3 ADD DUP9 LT OR ISZERO PUSH2 0x2906 JUMPI PUSH1 0x0 DUP1 REVERT JUMPDEST DUP3 MSTORE POP DUP2 MLOAD PUSH1 0x20 SWAP2 DUP3 ADD SWAP3 SWAP1 SWAP2 ADD SWAP1 DUP1 DUP4 DUP4 PUSH1 0x0 JUMPDEST DUP4 DUP2 LT ISZERO PUSH2 0x2933 JUMPI DUP2 DUP2 ADD MLOAD DUP4 DUP3 ADD MSTORE PUSH1 0x20 ADD PUSH2 0x291B JUMP JUMPDEST POP POP POP POP SWAP1 POP SWAP1 DUP2 ADD SWAP1 PUSH1 0x1F AND DUP1 ISZERO PUSH2 0x2960 JUMPI DUP1 DUP3 SUB DUP1 MLOAD PUSH1 0x1 DUP4 PUSH1 0x20 SUB PUSH2 0x100 EXP SUB NOT AND DUP2 MSTORE PUSH1 0x20 ADD SWAP2 POP JUMPDEST POP PUSH1 0x40 MSTORE POP POP POP PUSH1 0x40 MLOAD PUSH1 0x20 ADD DUP1 DUP1 PUSH11 0x2634B6B4BA29BBB0B81D1 PUSH1 0xAD SHL DUP2 MSTORE POP PUSH1 0xB ADD DUP4 DUP1 MLOAD SWAP1 PUSH1 0x20 ADD SWAP1 DUP1 DUP4 DUP4 PUSH1 0x20 DUP4 LT PUSH2 0xC2B JUMPI DUP1 MLOAD DUP3 MSTORE PUSH1 0x1F NOT SWAP1 SWAP3 ADD SWAP2 PUSH1 0x20 SWAP2 DUP3 ADD SWAP2 ADD PUSH2 0xC0C JUMP JUMPDEST PUSH1 0x0 PUSH2 0x29B9 DUP3 PUSH2 0x3729 JUMP JUMPDEST POP PUSH2 0x29C5 CALLER DUP5 DUP5 PUSH2 0x34FB JUMP JUMPDEST POP PUSH1 0x1 SWAP3 SWAP2 POP POP JUMP JUMPDEST PUSH1 0x0 PUSH1 0x1 PUSH1 0x1 PUSH1 0xA0 SHL SUB DUP3 AND ISZERO DUP1 PUSH2 0x29E4 JUMPI POP DUP3 ISZERO JUMPDEST ISZERO PUSH2 0x29F1 JUMPI POP PUSH1 0x0 PUSH2 0xD1F JUMP JUMPDEST PUSH1 0x60 PUSH2 0x2A13 PUSH1 0x1 PUSH1 0x1 PUSH1 0xA0 SHL SUB DUP5 AND DUP3 PUSH2 0x2A0B DUP8 DUP4 PUSH2 0x3E2D JUMP JUMPDEST SWAP1 SHR SWAP1 PUSH2 0x3E2D JUMP JUMPDEST SWAP1 SHR SWAP1 POP DUP1 ISZERO PUSH2 0xD1F JUMPI PUSH1 0x0 NOT ADD SWAP3 SWAP2 POP POP JUMP JUMPDEST PUSH1 0x1E SLOAD PUSH1 0x0 SWAP1 DUP2 SWAP1 PUSH1 0xFF AND PUSH2 0x2A69 JUMPI PUSH1 0x40 DUP1 MLOAD PUSH3 0x461BCD PUSH1 0xE5 SHL DUP2 MSTORE PUSH1 0x20 PUSH1 0x4 DUP3 ADD MSTORE PUSH1 0x3 PUSH1 0x24 DUP3 ADD MSTORE PUSH3 0x4C4F4B PUSH1 0xE8 SHL PUSH1 0x44 DUP3 ADD MSTORE SWAP1 MLOAD SWAP1 DUP2 SWAP1 SUB PUSH1 0x64 ADD SWAP1 REVERT JUMPDEST PUSH1 0x1E DUP1 SLOAD PUSH1 0xFF NOT AND SWAP1 SSTORE PUSH1 0x0 PUSH2 0x2A7E DUP7 PUSH2 0x3FFC JUMP JUMPDEST PUSH1 0x2 DUP8 DUP2 SIGNEXTEND SWAP1 SIGNEXTEND PUSH1 0x0 SWAP1 DUP2 MSTORE PUSH1 0xB PUSH1 0x20 SWAP1 DUP2 MSTORE PUSH1 0x40 DUP1 DUP4 KECCAK256 DUP2 MLOAD PUSH1 0x80 DUP2 ADD DUP4 MSTORE DUP2 SLOAD PUSH1 0x1 PUSH1 0x1 PUSH1 0x80 SHL SUB DUP1 DUP3 AND DUP4 MSTORE PUSH1 0x1 PUSH1 0x80 SHL SWAP2 DUP3 SWAP1 DIV DUP2 AND SWAP6 DUP4 ADD SWAP6 SWAP1 SWAP6 MSTORE PUSH1 0x1 SWAP1 SWAP3 ADD SLOAD DUP1 DUP6 AND SWAP4 DUP3 ADD SWAP4 SWAP1 SWAP4 MSTORE SWAP2 DIV SWAP1 SWAP2 AND PUSH1 0x60 DUP3 ADD MSTORE SWAP2 SWAP3 POP PUSH2 0x2AEA SWAP2 DUP9 SWAP2 DUP5 SWAP1 DUP1 PUSH2 0x432D JUMP JUMPDEST PUSH1 0x2 DUP7 DUP2 SIGNEXTEND SWAP1 SIGNEXTEND PUSH1 0x0 SWAP1 DUP2 MSTORE PUSH1 0xB PUSH1 0x20 SWAP1 DUP2 MSTORE PUSH1 0x40 SWAP2 DUP3 SWAP1 KECCAK256 DUP3 MLOAD PUSH1 0x80 DUP2 ADD DUP5 MSTORE DUP2 SLOAD PUSH1 0x1 PUSH1 0x1 PUSH1 0x80 SHL SUB DUP1 DUP3 AND DUP4 MSTORE PUSH1 0x1 PUSH1 0x80 SHL SWAP2 DUP3 SWAP1 DIV DUP2 AND SWAP5 DUP4 ADD SWAP5 SWAP1 SWAP5 MSTORE PUSH1 0x1 SWAP1 SWAP3 ADD SLOAD DUP1 DUP5 AND SWAP5 DUP3 ADD SWAP5 SWAP1 SWAP5 MSTORE SWAP3 DIV AND PUSH1 0x60 DUP3 ADD MSTORE CALLER DUP1 EXTCODESIZE DUP1 ISZERO PUSH2 0x2BB7 JUMPI DUP2 PUSH1 0x1 PUSH1 0x1 PUSH1 0xA0 SHL SUB AND PUSH4 0x67E404CE PUSH1 0x40 MLOAD DUP2 PUSH4 0xFFFFFFFF AND PUSH1 0xE0 SHL DUP2 MSTORE PUSH1 0x4 ADD PUSH1 0x20 PUSH1 0x40 MLOAD DUP1 DUP4 SUB DUP2 PUSH1 0x0 DUP8 DUP1 EXTCODESIZE ISZERO DUP1 ISZERO PUSH2 0x2B88 JUMPI PUSH1 0x0 DUP1 REVERT JUMPDEST POP GAS CALL ISZERO DUP1 ISZERO PUSH2 0x2B9C JUMPI RETURNDATASIZE PUSH1 0x0 DUP1 RETURNDATACOPY RETURNDATASIZE PUSH1 0x0 REVERT JUMPDEST POP POP POP POP PUSH1 0x40 MLOAD RETURNDATASIZE PUSH1 0x20 DUP2 LT ISZERO PUSH2 0x2BB2 JUMPI PUSH1 0x0 DUP1 REVERT JUMPDEST POP MLOAD SWAP2 POP JUMPDEST PUSH2 0x2BC3 DUP10 DUP4 DUP11 DUP11 PUSH2 0x11C1 JUMP JUMPDEST SWAP1 SWAP7 POP SWAP5 POP PUSH1 0x0 PUSH1 0x13 DUP9 PUSH2 0x2BD8 JUMPI PUSH1 0x0 PUSH2 0x2BDB JUMP JUMPDEST PUSH1 0x1 JUMPDEST PUSH1 0xFF AND PUSH1 0x2 DUP2 LT PUSH2 0x2BE8 JUMPI INVALID JUMPDEST PUSH1 0x1 PUSH1 0x1 PUSH1 0xA0 SHL SUB DUP6 AND PUSH1 0x0 SWAP1 DUP2 MSTORE SWAP2 ADD PUSH1 0x20 SWAP1 DUP2 MSTORE PUSH1 0x40 DUP1 DUP4 KECCAK256 PUSH1 0x2 DUP15 DUP2 SIGNEXTEND DUP2 SIGNEXTEND DUP6 MSTORE SWAP1 DUP4 MSTORE SWAP3 DUP2 SWAP1 KECCAK256 DUP2 MLOAD PUSH1 0x80 DUP2 ADD DUP4 MSTORE DUP2 SLOAD DUP1 DUP3 MSTORE PUSH1 0x1 DUP4 ADD SLOAD SWAP5 DUP3 ADD SWAP5 SWAP1 SWAP5 MSTORE SWAP4 DUP2 ADD SLOAD SWAP2 DUP5 ADD SWAP2 SWAP1 SWAP2 MSTORE PUSH1 0x3 ADD SLOAD PUSH1 0x60 DUP4 ADD MSTORE SWAP1 SWAP2 POP PUSH2 0x2C4E SWAP1 DUP11 SWAP1 PUSH2 0x362A JUMP JUMPDEST DUP2 MLOAD SWAP1 SWAP10 POP PUSH2 0x2C68 JUMPI PUSH1 0x0 DUP1 SWAP7 POP SWAP7 POP POP POP POP POP POP PUSH2 0x2F40 JUMP JUMPDEST DUP1 MLOAD PUSH1 0x0 SWAP1 PUSH2 0x2C77 SWAP1 DUP12 PUSH2 0x34AB JUMP JUMPDEST SWAP1 POP PUSH2 0x2C8C DUP2 DUP4 PUSH1 0x40 ADD MLOAD DUP5 PUSH1 0x0 ADD MLOAD PUSH2 0x3640 JUMP JUMPDEST PUSH1 0x40 DUP4 ADD MSTORE PUSH1 0x20 DUP3 ADD MLOAD DUP3 MLOAD PUSH2 0x2CA3 SWAP2 DUP4 SWAP2 PUSH2 0x3640 JUMP JUMPDEST PUSH1 0x20 DUP4 ADD MSTORE DUP1 DUP3 MSTORE DUP2 PUSH1 0x13 DUP11 PUSH2 0x2CBA JUMPI PUSH1 0x0 PUSH2 0x2CBD JUMP JUMPDEST PUSH1 0x1 JUMPDEST PUSH1 0xFF AND PUSH1 0x2 DUP2 LT PUSH2 0x2CCA JUMPI INVALID JUMPDEST ADD PUSH1 0x0 DUP7 PUSH1 0x1 PUSH1 0x1 PUSH1 0xA0 SHL SUB AND PUSH1 0x1 PUSH1 0x1 PUSH1 0xA0 SHL SUB AND DUP2 MSTORE PUSH1 0x20 ADD SWAP1 DUP2 MSTORE PUSH1 0x20 ADD PUSH1 0x0 KECCAK256 PUSH1 0x0 DUP14 PUSH1 0x2 SIGNEXTEND PUSH1 0x2 SIGNEXTEND DUP2 MSTORE PUSH1 0x20 ADD SWAP1 DUP2 MSTORE PUSH1 0x20 ADD PUSH1 0x0 KECCAK256 PUSH1 0x0 DUP3 ADD MLOAD DUP2 PUSH1 0x0 ADD SSTORE PUSH1 0x20 DUP3 ADD MLOAD DUP2 PUSH1 0x1 ADD SSTORE PUSH1 0x40 DUP3 ADD MLOAD DUP2 PUSH1 0x2 ADD SSTORE PUSH1 0x60 DUP3 ADD MLOAD DUP2 PUSH1 0x3 ADD SSTORE SWAP1 POP POP DUP9 ISZERO PUSH2 0x2D90 JUMPI PUSH2 0x2D3F DUP9 PUSH2 0x3729 JUMP JUMPDEST PUSH1 0x40 DUP7 ADD DUP1 MLOAD SWAP2 SWAP1 SWAP2 SUB PUSH1 0x1 PUSH1 0x1 PUSH1 0x80 SHL SUB AND SWAP1 MSTORE PUSH2 0x2D5D DUP8 PUSH2 0x3729 JUMP JUMPDEST PUSH1 0x60 DUP7 ADD DUP1 MLOAD SWAP2 SWAP1 SWAP2 SUB PUSH1 0x1 PUSH1 0x1 PUSH1 0x80 SHL SUB AND SWAP1 MSTORE PUSH2 0x2D8B DUP12 DUP7 DUP9 PUSH2 0x2D81 DUP13 PUSH2 0x4632 JUMP JUMPDEST PUSH1 0x0 SUB PUSH1 0x0 PUSH2 0x432D JUMP JUMPDEST PUSH2 0x2DD6 JUMP JUMPDEST PUSH2 0x2D99 DUP9 PUSH2 0x3729 JUMP JUMPDEST PUSH1 0x20 DUP7 ADD DUP1 MLOAD SWAP2 SWAP1 SWAP2 SUB PUSH1 0x1 PUSH1 0x1 PUSH1 0x80 SHL SUB AND SWAP1 MSTORE PUSH2 0x2DB7 DUP8 PUSH2 0x3729 JUMP JUMPDEST DUP6 MLOAD SUB PUSH1 0x1 PUSH1 0x1 PUSH1 0x80 SHL SUB AND DUP6 MSTORE PUSH2 0x2DD6 DUP12 DUP7 DUP9 PUSH1 0x0 PUSH2 0x1D10 DUP13 PUSH2 0x4632 JUMP JUMPDEST DUP9 DUP1 ISZERO PUSH2 0x2DE3 JUMPI POP PUSH1 0x0 DUP8 GT JUMPDEST ISZERO PUSH2 0x2E22 JUMPI PUSH2 0x2E04 PUSH1 0x0 PUSH2 0x164A PUSH2 0x3E8 PUSH2 0x2DFE DUP12 PUSH1 0x3 PUSH2 0x3E2D JUMP JUMPDEST SWAP1 PUSH2 0x4970 JUMP JUMPDEST PUSH2 0x2E1F PUSH2 0x2E18 PUSH2 0x3E8 PUSH2 0x2DFE DUP11 PUSH1 0x3 PUSH2 0x3E2D JUMP JUMPDEST DUP9 SWAP1 PUSH2 0x34AB JUMP JUMPDEST SWAP7 POP JUMPDEST DUP9 ISZERO DUP1 ISZERO PUSH2 0x2E30 JUMPI POP PUSH1 0x0 DUP9 GT JUMPDEST ISZERO PUSH2 0x2E6E JUMPI PUSH2 0x2E50 PUSH2 0x2E49 PUSH2 0x3E8 PUSH2 0x2DFE DUP12 PUSH1 0x3 PUSH2 0x3E2D JUMP JUMPDEST PUSH1 0x0 PUSH2 0x3BA5 JUMP JUMPDEST PUSH2 0x2E6B PUSH2 0x2E64 PUSH2 0x3E8 PUSH2 0x2DFE DUP12 PUSH1 0x3 PUSH2 0x3E2D JUMP JUMPDEST DUP10 SWAP1 PUSH2 0x34AB JUMP JUMPDEST SWAP8 POP JUMPDEST PUSH2 0x2E7B CALLER DUP10 DUP10 PUSH1 0x0 PUSH2 0x3AFF JUMP JUMPDEST POP POP DUP4 PUSH1 0x1 PUSH1 0x1 PUSH1 0xA0 SHL SUB AND PUSH32 0x884E468729443F48E19C8F9AE60F027026340405904D8ACA6016DE907F671538 DUP13 DUP12 PUSH2 0x2EBC JUMPI PUSH2 0x2EB7 DUP14 PUSH2 0x3729 JUMP JUMPDEST PUSH2 0x2EBF JUMP JUMPDEST PUSH1 0x0 JUMPDEST DUP13 PUSH2 0x2ECB JUMPI PUSH1 0x0 PUSH2 0x2ED4 JUMP JUMPDEST PUSH2 0x2ED4 DUP15 PUSH2 0x3729 JUMP JUMPDEST PUSH2 0x2EDD DUP14 PUSH2 0x3729 JUMP JUMPDEST PUSH2 0x2EE6 DUP14 PUSH2 0x3729 JUMP JUMPDEST PUSH1 0x40 DUP1 MLOAD PUSH1 0x2 SWAP7 SWAP1 SWAP7 SIGNEXTEND DUP7 MSTORE PUSH1 0x1 PUSH1 0x1 PUSH1 0x80 SHL SUB SWAP5 DUP6 AND PUSH1 0x20 DUP8 ADD MSTORE SWAP3 DUP5 AND DUP6 DUP5 ADD MSTORE SWAP1 DUP4 AND PUSH1 0x60 DUP6 ADD MSTORE SWAP1 SWAP2 AND PUSH1 0x80 DUP4 ADD MSTORE MLOAD SWAP1 DUP2 SWAP1 SUB PUSH1 0xA0 ADD SWAP1 LOG2 PUSH2 0x2F2B PUSH2 0x38AE JUMP JUMPDEST PUSH1 0x1F SSTORE PUSH2 0x2F36 PUSH2 0x3744 JUMP JUMPDEST PUSH1 0x20 SSTORE POP POP POP POP POP POP JUMPDEST PUSH1 0x1E DUP1 SLOAD PUSH1 0xFF NOT AND PUSH1 0x1 OR SWAP1 SSTORE SWAP1 SWAP5 SWAP1 SWAP4 POP SWAP2 POP POP JUMP JUMPDEST PUSH1 0x0 DUP1 DUP1 DUP1 DUP1 ADDRESS PUSH4 0x2EA5E1F PUSH1 0xE0 SHL DUP9 DUP9 DUP1 PUSH2 0x2F77 JUMPI PUSH3 0x7FFFFE NOT PUSH2 0x2F7C JUMP JUMPDEST PUSH3 0x7FFFFF JUMPDEST PUSH1 0x40 DUP1 MLOAD PUSH1 0x24 DUP2 ADD SWAP5 SWAP1 SWAP5 MSTORE SWAP2 ISZERO ISZERO PUSH1 0x44 DUP5 ADD MSTORE PUSH1 0x2 SIGNEXTEND PUSH1 0x64 DUP1 DUP5 ADD SWAP2 SWAP1 SWAP2 MSTORE DUP2 MLOAD DUP1 DUP5 SUB SWAP1 SWAP2 ADD DUP2 MSTORE PUSH1 0x84 SWAP1 SWAP3 ADD DUP2 MSTORE PUSH1 0x20 DUP3 ADD DUP1 MLOAD PUSH1 0x1 PUSH1 0x1 PUSH1 0xE0 SHL SUB AND PUSH1 0x1 PUSH1 0x1 PUSH1 0xE0 SHL SUB NOT SWAP1 SWAP5 AND SWAP4 SWAP1 SWAP4 OR DUP4 MSTORE MLOAD DUP2 MLOAD SWAP2 SWAP3 SWAP1 SWAP2 DUP3 SWAP2 SWAP1 DUP1 DUP4 DUP4 JUMPDEST PUSH1 0x20 DUP4 LT PUSH2 0x2FFB JUMPI DUP1 MLOAD DUP3 MSTORE PUSH1 0x1F NOT SWAP1 SWAP3 ADD SWAP2 PUSH1 0x20 SWAP2 DUP3 ADD SWAP2 ADD PUSH2 0x2FDC JUMP JUMPDEST PUSH1 0x1 DUP4 PUSH1 0x20 SUB PUSH2 0x100 EXP SUB DUP1 NOT DUP3 MLOAD AND DUP2 DUP5 MLOAD AND DUP1 DUP3 OR DUP6 MSTORE POP POP POP POP POP POP SWAP1 POP ADD SWAP2 POP POP PUSH1 0x0 PUSH1 0x40 MLOAD DUP1 DUP4 SUB DUP2 DUP6 GAS STATICCALL SWAP2 POP POP RETURNDATASIZE DUP1 PUSH1 0x0 DUP2 EQ PUSH2 0x2E9 JUMPI PUSH1 0x40 MLOAD SWAP2 POP PUSH1 0x1F NOT PUSH1 0x3F RETURNDATASIZE ADD AND DUP3 ADD PUSH1 0x40 MSTORE RETURNDATASIZE DUP3 MSTORE RETURNDATASIZE PUSH1 0x0 PUSH1 0x20 DUP5 ADD RETURNDATACOPY PUSH2 0x2EE JUMP JUMPDEST PUSH1 0x12 SLOAD PUSH1 0x1 PUSH1 0x1 PUSH1 0xA0 SHL SUB AND DUP2 JUMP JUMPDEST PUSH1 0x4 SLOAD PUSH1 0x80 DUP2 SWAP1 SHR SWAP2 PUSH1 0x1 PUSH1 0x1 PUSH1 0x80 SHL SUB SWAP1 SWAP2 AND SWAP1 JUMP JUMPDEST PUSH1 0x19 PUSH1 0x20 SWAP1 DUP2 MSTORE PUSH1 0x0 SWAP3 DUP4 MSTORE PUSH1 0x40 DUP1 DUP5 KECCAK256 SWAP1 SWAP2 MSTORE SWAP1 DUP3 MSTORE SWAP1 KECCAK256 SLOAD DUP2 JUMP JUMPDEST PUSH1 0x0 PUSH1 0x13 PUSH1 0x1 PUSH2 0xF32 JUMP JUMPDEST PUSH1 0x0 DUP1 PUSH1 0x0 DUP1 PUSH1 0x0 PUSH2 0x30BA DUP8 PUSH2 0x4983 JUMP JUMPDEST SWAP4 POP SWAP4 POP SWAP4 POP SWAP4 POP PUSH2 0x30E2 PUSH1 0x5 DUP8 PUSH1 0x2 DUP2 LT PUSH2 0x30D2 JUMPI INVALID JUMPDEST ADD SLOAD PUSH2 0x30DD DUP7 PUSH2 0x49A1 JUMP JUMPDEST PUSH2 0x49AA JUMP JUMPDEST ISZERO PUSH2 0x30F4 JUMPI PUSH1 0x1 SWAP5 POP POP POP POP POP PUSH2 0xD1F JUMP JUMPDEST PUSH2 0x311D PUSH1 0x7 DUP8 PUSH1 0x2 DUP2 LT PUSH2 0x3104 JUMPI INVALID JUMPDEST PUSH1 0x0 DUP8 DUP2 SIGNEXTEND DUP2 SIGNEXTEND DUP2 MSTORE SWAP2 ADD PUSH1 0x20 MSTORE PUSH1 0x40 SWAP1 KECCAK256 SLOAD DUP5 PUSH2 0x49AA JUMP JUMPDEST ISZERO PUSH2 0x312F JUMPI PUSH1 0x1 SWAP5 POP POP POP POP POP PUSH2 0xD1F JUMP JUMPDEST PUSH2 0x315B PUSH1 0x9 DUP8 PUSH1 0x2 DUP2 LT PUSH2 0x313F JUMPI INVALID JUMPDEST PUSH1 0x1 DUP6 DUP2 SIGNEXTEND SWAP1 SIGNEXTEND PUSH1 0x0 SWAP1 DUP2 MSTORE SWAP2 ADD PUSH1 0x20 MSTORE PUSH1 0x40 SWAP1 KECCAK256 SLOAD DUP3 PUSH2 0x49AA JUMP JUMPDEST ISZERO PUSH2 0x316D JUMPI PUSH1 0x1 SWAP5 POP POP POP POP POP PUSH2 0xD1F JUMP JUMPDEST PUSH1 0x0 SWAP5 POP POP POP POP POP PUSH2 0xD1F JUMP JUMPDEST PUSH1 0x1B PUSH1 0x20 MSTORE PUSH1 0x0 SWAP1 DUP2 MSTORE PUSH1 0x40 SWAP1 KECCAK256 SLOAD DUP2 JUMP JUMPDEST PUSH1 0x0 PUSH5 0x1000276A3 PUSH1 0x1 PUSH1 0x1 PUSH1 0xA0 SHL SUB DUP4 AND LT DUP1 ISZERO SWAP1 PUSH2 0x31C8 JUMPI POP PUSH20 0xFFFD8963EFD1FC6A506488495D951D5263988D26 PUSH1 0x1 PUSH1 0x1 PUSH1 0xA0 SHL SUB DUP4 AND LT JUMPDEST PUSH2 0x31FD JUMPI PUSH1 0x40 DUP1 MLOAD PUSH3 0x461BCD PUSH1 0xE5 SHL DUP2 MSTORE PUSH1 0x20 PUSH1 0x4 DUP3 ADD MSTORE PUSH1 0x1 PUSH1 0x24 DUP3 ADD MSTORE PUSH1 0x29 PUSH1 0xF9 SHL PUSH1 0x44 DUP3 ADD MSTORE SWAP1 MLOAD SWAP1 DUP2 SWAP1 SUB PUSH1 0x64 ADD SWAP1 REVERT JUMPDEST PUSH5 0x100000000 PUSH1 0x1 PUSH1 0xC0 SHL SUB PUSH1 0x20 DUP4 SWAP1 SHL AND PUSH1 0x1 PUSH1 0x1 PUSH1 0x80 SHL SUB DUP2 GT PUSH1 0x7 SHL DUP2 DUP2 SHR PUSH8 0xFFFFFFFFFFFFFFFF DUP2 GT PUSH1 0x6 SHL SWAP1 DUP2 SHR PUSH4 0xFFFFFFFF DUP2 GT PUSH1 0x5 SHL SWAP1 DUP2 SHR PUSH2 0xFFFF DUP2 GT PUSH1 0x4 SHL SWAP1 DUP2 SHR PUSH1 0xFF DUP2 GT PUSH1 0x3 SWAP1 DUP2 SHL SWAP2 DUP3 SHR PUSH1 0xF DUP2 GT PUSH1 0x2 SHL SWAP1 DUP2 SHR SWAP2 DUP3 GT PUSH1 0x1 SWAP1 DUP2 SHL SWAP3 DUP4 SHR SWAP8 SWAP1 DUP9 GT SWAP7 OR SWAP1 SWAP5 OR SWAP1 SWAP3 OR OR SWAP1 SWAP2 OR OR OR PUSH1 0x80 DUP2 LT PUSH2 0x3291 JUMPI PUSH1 0x7F DUP2 SUB DUP4 SWAP1 SHR SWAP2 POP PUSH2 0x329B JUMP JUMPDEST DUP1 PUSH1 0x7F SUB DUP4 SWAP1 SHL SWAP2 POP JUMPDEST SWAP1 DUP1 MUL PUSH1 0x7F DUP2 DUP2 SHR PUSH1 0xFF DUP4 DUP2 SHR SWAP2 SWAP1 SWAP2 SHR DUP1 MUL DUP1 DUP4 SHR DUP2 DUP4 SHR SHR DUP1 MUL DUP1 DUP5 SHR DUP2 DUP5 SHR SHR DUP1 MUL DUP1 DUP6 SHR DUP2 DUP6 SHR SHR DUP1 MUL DUP1 DUP7 SHR DUP2 DUP7 SHR SHR DUP1 MUL DUP1 DUP8 SHR DUP2 DUP8 SHR SHR DUP1 MUL DUP1 DUP9 SHR DUP2 DUP9 SHR SHR DUP1 MUL DUP1 DUP10 SHR DUP2 DUP10 SHR SHR DUP1 MUL DUP1 DUP11 SHR DUP2 DUP11 SHR SHR DUP1 MUL DUP1 DUP12 SHR DUP2 DUP12 SHR SHR DUP1 MUL DUP1 DUP13 SHR DUP2 DUP13 SHR SHR DUP1 MUL DUP1 DUP14 SHR DUP2 DUP14 SHR SHR DUP1 MUL DUP1 DUP15 SHR SWAP13 DUP2 SWAP1 SHR SWAP13 SWAP1 SWAP13 SHR DUP1 MUL SWAP13 DUP14 SWAP1 SHR SWAP15 SWAP14 PUSH1 0x7F NOT DUP16 ADD PUSH1 0x40 SHL PUSH1 0xC0 SWAP2 SWAP1 SWAP2 SHR PUSH8 0x8000000000000000 AND OR PUSH1 0xC1 SWAP12 SWAP1 SWAP12 SHR PUSH8 0x4000000000000000 AND SWAP11 SWAP1 SWAP11 OR PUSH1 0xC2 SWAP10 SWAP1 SWAP10 SHR PUSH8 0x2000000000000000 AND SWAP9 SWAP1 SWAP9 OR PUSH1 0xC3 SWAP8 SWAP1 SWAP8 SHR PUSH8 0x1000000000000000 AND SWAP7 SWAP1 SWAP7 OR PUSH1 0xC4 SWAP6 SWAP1 SWAP6 SHR PUSH8 0x800000000000000 AND SWAP5 SWAP1 SWAP5 OR PUSH1 0xC5 SWAP4 SWAP1 SWAP4 SHR PUSH8 0x400000000000000 AND SWAP3 SWAP1 SWAP3 OR PUSH1 0xC6 SWAP2 SWAP1 SWAP2 SHR PUSH8 0x200000000000000 AND OR PUSH1 0xC7 SWAP2 SWAP1 SWAP2 SHR PUSH8 0x100000000000000 AND OR PUSH1 0xC8 SWAP2 SWAP1 SWAP2 SHR PUSH7 0x80000000000000 AND OR PUSH1 0xC9 SWAP2 SWAP1 SWAP2 SHR PUSH7 0x40000000000000 AND OR PUSH1 0xCA SWAP2 SWAP1 SWAP2 SHR PUSH7 0x20000000000000 AND OR PUSH1 0xCB SWAP2 SWAP1 SWAP2 SHR PUSH7 0x10000000000000 AND OR PUSH1 0xCC SWAP2 SWAP1 SWAP2 SHR PUSH7 0x8000000000000 AND OR PUSH1 0xCD SWAP2 SWAP1 SWAP2 SHR PUSH7 0x4000000000000 AND OR PUSH10 0x3627A301D71055774C85 DUP2 MUL PUSH16 0x28F6481AB7F045A5AF012A19D003AA9 NOT DUP2 ADD PUSH1 0x80 SWAP1 DUP2 SAR SWAP1 PUSH16 0xDB2DF09E81959A81455E260799A0632F DUP4 ADD SWAP1 SAR PUSH1 0x2 DUP2 DUP2 SIGNEXTEND SWAP1 DUP4 SWAP1 SIGNEXTEND EQ PUSH2 0x349C JUMPI DUP9 PUSH1 0x1 PUSH1 0x1 PUSH1 0xA0 SHL SUB AND PUSH2 0x3480 DUP3 PUSH2 0x3FFC JUMP JUMPDEST PUSH1 0x1 PUSH1 0x1 PUSH1 0xA0 SHL SUB AND GT ISZERO PUSH2 0x3495 JUMPI DUP2 PUSH2 0x3497 JUMP JUMPDEST DUP1 JUMPDEST PUSH2 0x349E JUMP JUMPDEST DUP2 JUMPDEST SWAP10 SWAP9 POP POP POP POP POP POP POP POP POP JUMP JUMPDEST DUP1 DUP3 SUB DUP3 DUP2 GT ISZERO PUSH2 0xD1F JUMPI PUSH1 0x40 DUP1 MLOAD PUSH3 0x461BCD PUSH1 0xE5 SHL DUP2 MSTORE PUSH1 0x20 PUSH1 0x4 DUP3 ADD MSTORE PUSH1 0x15 PUSH1 0x24 DUP3 ADD MSTORE PUSH21 0x64732D6D6174682D7375622D756E646572666C6F77 PUSH1 0x58 SHL PUSH1 0x44 DUP3 ADD MSTORE SWAP1 MLOAD SWAP1 DUP2 SWAP1 SUB PUSH1 0x64 ADD SWAP1 REVERT JUMPDEST PUSH1 0x1 PUSH1 0x1 PUSH1 0xA0 SHL SUB DUP1 DUP4 AND PUSH1 0x0 SWAP1 DUP2 MSTORE PUSH1 0x18 PUSH1 0x20 MSTORE PUSH1 0x40 DUP1 DUP3 KECCAK256 SLOAD SWAP3 DUP7 AND DUP3 MSTORE SWAP1 KECCAK256 SLOAD PUSH2 0x3528 SWAP1 DUP4 PUSH2 0x34AB JUMP JUMPDEST PUSH1 0x1 PUSH1 0x1 PUSH1 0xA0 SHL SUB DUP6 AND PUSH1 0x0 SWAP1 DUP2 MSTORE PUSH1 0x18 PUSH1 0x20 MSTORE PUSH1 0x40 SWAP1 KECCAK256 SSTORE PUSH2 0x354B DUP2 DUP4 PUSH2 0x385F JUMP JUMPDEST PUSH1 0x1 PUSH1 0x1 PUSH1 0xA0 SHL SUB DUP1 DUP6 AND PUSH1 0x0 DUP2 DUP2 MSTORE PUSH1 0x18 PUSH1 0x20 SWAP1 DUP2 MSTORE PUSH1 0x40 DUP1 DUP4 KECCAK256 SWAP6 SWAP1 SWAP6 SSTORE SWAP3 DUP9 AND DUP2 MSTORE PUSH1 0x1A SWAP1 SWAP3 MSTORE DUP3 DUP3 KECCAK256 SLOAD SWAP1 DUP3 MSTORE SWAP2 SWAP1 KECCAK256 SLOAD PUSH2 0x358C SWAP2 SWAP1 DUP4 DUP6 PUSH2 0x49B8 JUMP JUMPDEST PUSH1 0x1 PUSH1 0x1 PUSH1 0xA0 SHL SUB DUP1 DUP6 AND PUSH1 0x0 DUP2 DUP2 MSTORE PUSH1 0x1A PUSH1 0x20 SWAP1 DUP2 MSTORE PUSH1 0x40 DUP1 DUP4 KECCAK256 SWAP6 SWAP1 SWAP6 SSTORE SWAP3 DUP9 AND DUP2 MSTORE PUSH1 0x1B SWAP1 SWAP3 MSTORE DUP3 DUP3 KECCAK256 SLOAD SWAP1 DUP3 MSTORE SWAP2 SWAP1 KECCAK256 SLOAD PUSH2 0x35CD SWAP2 SWAP1 DUP4 DUP6 PUSH2 0x49B8 JUMP JUMPDEST PUSH1 0x1 PUSH1 0x1 PUSH1 0xA0 SHL SUB DUP1 DUP6 AND PUSH1 0x0 DUP2 DUP2 MSTORE PUSH1 0x1B PUSH1 0x20 SWAP1 DUP2 MSTORE PUSH1 0x40 SWAP2 DUP3 SWAP1 KECCAK256 SWAP5 SWAP1 SWAP5 SSTORE DUP1 MLOAD DUP7 DUP2 MSTORE SWAP1 MLOAD SWAP2 SWAP4 SWAP3 DUP9 AND SWAP3 PUSH32 0xDDF252AD1BE2C89B69C2B068FC378DAA952BA7F163C4A11628F55A4DF523B3EF SWAP3 SWAP2 DUP3 SWAP1 SUB ADD SWAP1 LOG3 POP POP POP POP JUMP JUMPDEST PUSH1 0x0 DUP2 DUP4 LT PUSH2 0x3639 JUMPI DUP2 PUSH2 0xE9D JUMP JUMPDEST POP SWAP1 SWAP2 SWAP1 POP JUMP JUMPDEST PUSH1 0x0 DUP1 DUP1 PUSH1 0x0 NOT DUP6 DUP8 MULMOD DUP7 DUP7 MUL SWAP3 POP DUP3 DUP2 LT SWAP1 DUP4 SWAP1 SUB SUB SWAP1 POP DUP1 PUSH2 0x3676 JUMPI PUSH1 0x0 DUP5 GT PUSH2 0x366B JUMPI PUSH1 0x0 DUP1 REVERT JUMPDEST POP DUP3 SWAP1 DIV SWAP1 POP PUSH2 0xE9D JUMP JUMPDEST DUP1 DUP5 GT PUSH2 0x3682 JUMPI PUSH1 0x0 DUP1 REVERT JUMPDEST PUSH1 0x0 DUP5 DUP7 DUP9 MULMOD PUSH1 0x0 DUP7 DUP2 SUB DUP8 AND SWAP7 DUP8 SWAP1 DIV SWAP7 PUSH1 0x2 PUSH1 0x3 DUP10 MUL DUP2 XOR DUP1 DUP11 MUL DUP3 SUB MUL DUP1 DUP11 MUL DUP3 SUB MUL DUP1 DUP11 MUL DUP3 SUB MUL DUP1 DUP11 MUL DUP3 SUB MUL DUP1 DUP11 MUL DUP3 SUB MUL DUP1 DUP11 MUL SWAP1 SWAP2 SUB MUL SWAP2 DUP2 SWAP1 SUB DUP2 SWAP1 DIV PUSH1 0x1 ADD DUP7 DUP5 GT SWAP1 SWAP6 SUB SWAP5 SWAP1 SWAP5 MUL SWAP2 SWAP1 SWAP5 SUB SWAP3 SWAP1 SWAP3 DIV SWAP2 SWAP1 SWAP2 OR SWAP2 SWAP1 SWAP2 MUL SWAP2 POP POP SWAP4 SWAP3 POP POP POP JUMP JUMPDEST PUSH1 0x0 PUSH2 0x36FC DUP5 DUP5 DUP5 PUSH2 0x3640 JUMP JUMPDEST SWAP1 POP PUSH1 0x0 DUP3 DUP1 PUSH2 0x3708 JUMPI INVALID JUMPDEST DUP5 DUP7 MULMOD GT ISZERO PUSH2 0xE9D JUMPI PUSH1 0x0 NOT DUP2 LT PUSH2 0x371F JUMPI PUSH1 0x0 DUP1 REVERT JUMPDEST PUSH1 0x1 ADD SWAP4 SWAP3 POP POP POP JUMP JUMPDEST DUP1 PUSH1 0x1 PUSH1 0x1 PUSH1 0x80 SHL SUB DUP2 AND DUP2 EQ PUSH2 0x373F JUMPI PUSH1 0x0 DUP1 REVERT JUMPDEST SWAP2 SWAP1 POP JUMP JUMPDEST PUSH1 0x12 SLOAD PUSH1 0x40 DUP1 MLOAD ADDRESS PUSH1 0x24 DUP1 DUP4 ADD SWAP2 SWAP1 SWAP2 MSTORE DUP3 MLOAD DUP1 DUP4 SUB SWAP1 SWAP2 ADD DUP2 MSTORE PUSH1 0x44 SWAP1 SWAP2 ADD DUP3 MSTORE PUSH1 0x20 DUP2 ADD DUP1 MLOAD PUSH1 0x1 PUSH1 0x1 PUSH1 0xE0 SHL SUB AND PUSH4 0x70A08231 PUSH1 0xE0 SHL OR DUP2 MSTORE SWAP2 MLOAD DUP2 MLOAD PUSH1 0x0 SWAP5 DUP6 SWAP5 DUP6 SWAP5 PUSH1 0x1 PUSH1 0x1 PUSH1 0xA0 SHL SUB SWAP1 SWAP3 AND SWAP4 SWAP2 SWAP3 DUP3 SWAP2 SWAP1 DUP1 DUP4 DUP4 JUMPDEST PUSH1 0x20 DUP4 LT PUSH2 0x37BF JUMPI DUP1 MLOAD DUP3 MSTORE PUSH1 0x1F NOT SWAP1 SWAP3 ADD SWAP2 PUSH1 0x20 SWAP2 DUP3 ADD SWAP2 ADD PUSH2 0x37A0 JUMP JUMPDEST PUSH1 0x1 DUP4 PUSH1 0x20 SUB PUSH2 0x100 EXP SUB DUP1 NOT DUP3 MLOAD AND DUP2 DUP5 MLOAD AND DUP1 DUP3 OR DUP6 MSTORE POP POP POP POP POP POP SWAP1 POP ADD SWAP2 POP POP PUSH1 0x0 PUSH1 0x40 MLOAD DUP1 DUP4 SUB DUP2 DUP6 GAS STATICCALL SWAP2 POP POP RETURNDATASIZE DUP1 PUSH1 0x0 DUP2 EQ PUSH2 0x381F JUMPI PUSH1 0x40 MLOAD SWAP2 POP PUSH1 0x1F NOT PUSH1 0x3F RETURNDATASIZE ADD AND DUP3 ADD PUSH1 0x40 MSTORE RETURNDATASIZE DUP3 MSTORE RETURNDATASIZE PUSH1 0x0 PUSH1 0x20 DUP5 ADD RETURNDATACOPY PUSH2 0x3824 JUMP JUMPDEST PUSH1 0x60 SWAP2 POP JUMPDEST POP SWAP2 POP SWAP2 POP DUP2 DUP1 ISZERO PUSH2 0x3838 JUMPI POP PUSH1 0x20 DUP2 MLOAD LT ISZERO JUMPDEST PUSH2 0x3841 JUMPI PUSH1 0x0 DUP1 REVERT JUMPDEST DUP1 DUP1 PUSH1 0x20 ADD SWAP1 MLOAD PUSH1 0x20 DUP2 LT ISZERO PUSH2 0x3856 JUMPI PUSH1 0x0 DUP1 REVERT JUMPDEST POP MLOAD SWAP3 POP POP POP SWAP1 JUMP JUMPDEST DUP1 DUP3 ADD DUP3 DUP2 LT ISZERO PUSH2 0xD1F JUMPI PUSH1 0x40 DUP1 MLOAD PUSH3 0x461BCD PUSH1 0xE5 SHL DUP2 MSTORE PUSH1 0x20 PUSH1 0x4 DUP3 ADD MSTORE PUSH1 0x14 PUSH1 0x24 DUP3 ADD MSTORE PUSH20 0x64732D6D6174682D6164642D6F766572666C6F77 PUSH1 0x60 SHL PUSH1 0x44 DUP3 ADD MSTORE SWAP1 MLOAD SWAP1 DUP2 SWAP1 SUB PUSH1 0x64 ADD SWAP1 REVERT JUMPDEST PUSH1 0x11 SLOAD PUSH1 0x40 DUP1 MLOAD ADDRESS PUSH1 0x24 DUP1 DUP4 ADD SWAP2 SWAP1 SWAP2 MSTORE DUP3 MLOAD DUP1 DUP4 SUB SWAP1 SWAP2 ADD DUP2 MSTORE PUSH1 0x44 SWAP1 SWAP2 ADD DUP3 MSTORE PUSH1 0x20 DUP2 ADD DUP1 MLOAD PUSH1 0x1 PUSH1 0x1 PUSH1 0xE0 SHL SUB AND PUSH4 0x70A08231 PUSH1 0xE0 SHL OR DUP2 MSTORE SWAP2 MLOAD DUP2 MLOAD PUSH1 0x0 SWAP5 DUP6 SWAP5 DUP6 SWAP5 PUSH1 0x1 PUSH1 0x1 PUSH1 0xA0 SHL SUB SWAP1 SWAP3 AND SWAP4 SWAP2 SWAP3 DUP3 SWAP2 SWAP1 DUP1 DUP4 DUP4 PUSH1 0x20 DUP4 LT PUSH2 0x37BF JUMPI DUP1 MLOAD DUP3 MSTORE PUSH1 0x1F NOT SWAP1 SWAP3 ADD SWAP2 PUSH1 0x20 SWAP2 DUP3 ADD SWAP2 ADD PUSH2 0x37A0 JUMP JUMPDEST PUSH1 0x40 DUP1 MLOAD PUSH1 0x24 DUP2 ADD DUP6 SWAP1 MSTORE DUP4 ISZERO ISZERO PUSH1 0x44 DUP3 ADD MSTORE PUSH1 0x2 DUP4 SWAP1 SIGNEXTEND PUSH1 0x64 DUP1 DUP4 ADD SWAP2 SWAP1 SWAP2 MSTORE DUP3 MLOAD DUP1 DUP4 SUB SWAP1 SWAP2 ADD DUP2 MSTORE PUSH1 0x84 SWAP1 SWAP2 ADD DUP3 MSTORE PUSH1 0x20 DUP2 ADD DUP1 MLOAD PUSH1 0x1 PUSH1 0x1 PUSH1 0xE0 SHL SUB AND PUSH4 0x2B8D2639 PUSH1 0xE1 SHL OR DUP2 MSTORE SWAP2 MLOAD DUP2 MLOAD PUSH1 0x0 SWAP4 DUP5 SWAP4 DUP5 SWAP4 DUP5 SWAP4 DUP5 SWAP4 PUSH1 0x1 PUSH1 0x1 PUSH1 0xA0 SHL SUB PUSH32 0x0 AND SWAP4 SWAP3 SWAP2 DUP3 SWAP2 SWAP1 DUP1 DUP4 DUP4 JUMPDEST PUSH1 0x20 DUP4 LT PUSH2 0x39D6 JUMPI DUP1 MLOAD DUP3 MSTORE PUSH1 0x1F NOT SWAP1 SWAP3 ADD SWAP2 PUSH1 0x20 SWAP2 DUP3 ADD SWAP2 ADD PUSH2 0x39B7 JUMP JUMPDEST PUSH1 0x1 DUP4 PUSH1 0x20 SUB PUSH2 0x100 EXP SUB DUP1 NOT DUP3 MLOAD AND DUP2 DUP5 MLOAD AND DUP1 DUP3 OR DUP6 MSTORE POP POP POP POP POP POP SWAP1 POP ADD SWAP2 POP POP PUSH1 0x0 PUSH1 0x40 MLOAD DUP1 DUP4 SUB DUP2 DUP6 GAS DELEGATECALL SWAP2 POP POP RETURNDATASIZE DUP1 PUSH1 0x0 DUP2 EQ PUSH2 0x3A36 JUMPI PUSH1 0x40 MLOAD SWAP2 POP PUSH1 0x1F NOT PUSH1 0x3F RETURNDATASIZE ADD AND DUP3 ADD PUSH1 0x40 MSTORE RETURNDATASIZE DUP3 MSTORE RETURNDATASIZE PUSH1 0x0 PUSH1 0x20 DUP5 ADD RETURNDATACOPY PUSH2 0x3A3B JUMP JUMPDEST PUSH1 0x60 SWAP2 POP JUMPDEST POP SWAP2 POP SWAP2 POP DUP2 DUP2 SWAP1 PUSH2 0x3ACB JUMPI PUSH1 0x40 MLOAD PUSH3 0x461BCD PUSH1 0xE5 SHL DUP2 MSTORE PUSH1 0x4 ADD DUP1 DUP1 PUSH1 0x20 ADD DUP3 DUP2 SUB DUP3 MSTORE DUP4 DUP2 DUP2 MLOAD DUP2 MSTORE PUSH1 0x20 ADD SWAP2 POP DUP1 MLOAD SWAP1 PUSH1 0x20 ADD SWAP1 DUP1 DUP4 DUP4 PUSH1 0x0 JUMPDEST DUP4 DUP2 LT ISZERO PUSH2 0x3A90 JUMPI DUP2 DUP2 ADD MLOAD DUP4 DUP3 ADD MSTORE PUSH1 0x20 ADD PUSH2 0x3A78 JUMP JUMPDEST POP POP POP POP SWAP1 POP SWAP1 DUP2 ADD SWAP1 PUSH1 0x1F AND DUP1 ISZERO PUSH2 0x3ABD JUMPI DUP1 DUP3 SUB DUP1 MLOAD PUSH1 0x1 DUP4 PUSH1 0x20 SUB PUSH2 0x100 EXP SUB NOT AND DUP2 MSTORE PUSH1 0x20 ADD SWAP2 POP JUMPDEST POP SWAP3 POP POP POP PUSH1 0x40 MLOAD DUP1 SWAP2 SUB SWAP1 REVERT JUMPDEST POP DUP1 DUP1 PUSH1 0x20 ADD SWAP1 MLOAD PUSH1 0x60 DUP2 LT ISZERO PUSH2 0x3AE1 JUMPI PUSH1 0x0 DUP1 REVERT JUMPDEST POP DUP1 MLOAD PUSH1 0x20 DUP3 ADD MLOAD PUSH1 0x40 SWAP1 SWAP3 ADD MLOAD SWAP1 SWAP11 SWAP2 SWAP10 POP SWAP8 POP SWAP6 POP POP POP POP POP POP JUMP JUMPDEST PUSH1 0x0 DUP1 DUP3 ISZERO PUSH2 0x3B5F JUMPI PUSH1 0x0 DUP6 ISZERO PUSH2 0x3B27 JUMPI PUSH2 0x3B22 PUSH2 0x3E8 PUSH2 0x2DFE DUP9 PUSH2 0x3E5 PUSH2 0x3E2D JUMP JUMPDEST PUSH2 0x3B2A JUMP JUMPDEST PUSH1 0x0 JUMPDEST SWAP1 POP PUSH1 0x0 DUP6 ISZERO PUSH2 0x3B4B JUMPI PUSH2 0x3B46 PUSH2 0x3E8 PUSH2 0x2DFE DUP9 PUSH2 0x3E5 PUSH2 0x3E2D JUMP JUMPDEST PUSH2 0x3B4E JUMP JUMPDEST PUSH1 0x0 JUMPDEST SWAP2 SWAP7 SWAP2 SWAP6 SWAP2 DUP8 SWAP1 SUB SWAP4 POP POP DUP5 SWAP1 SUB SWAP1 POP JUMPDEST DUP5 ISZERO PUSH2 0x3B82 JUMPI PUSH1 0x11 SLOAD PUSH2 0x3B82 SWAP1 PUSH1 0x1 PUSH1 0x1 PUSH1 0xA0 SHL SUB AND DUP8 PUSH2 0x262F DUP9 PUSH2 0x1C6B PUSH2 0x38AE JUMP JUMPDEST DUP4 ISZERO PUSH2 0x12E1 JUMPI PUSH1 0x12 SLOAD PUSH2 0x12E1 SWAP1 PUSH1 0x1 PUSH1 0x1 PUSH1 0xA0 SHL SUB AND DUP8 PUSH2 0x262F DUP8 PUSH2 0x1C6B PUSH2 0x3744 JUMP JUMPDEST PUSH1 0x1 SLOAD PUSH1 0x40 DUP1 MLOAD PUSH4 0x31056E57 PUSH1 0xE2 SHL DUP2 MSTORE SWAP1 MLOAD PUSH1 0x0 SWAP3 PUSH1 0x1 PUSH1 0x1 PUSH1 0xA0 SHL SUB AND SWAP2 PUSH4 0xC415B95C SWAP2 PUSH1 0x4 DUP1 DUP4 ADD SWAP3 PUSH1 0x20 SWAP3 SWAP2 SWAP1 DUP3 SWAP1 SUB ADD DUP2 DUP7 DUP1 EXTCODESIZE ISZERO DUP1 ISZERO PUSH2 0x3BEA JUMPI PUSH1 0x0 DUP1 REVERT JUMPDEST POP GAS STATICCALL ISZERO DUP1 ISZERO PUSH2 0x3BFE JUMPI RETURNDATASIZE PUSH1 0x0 DUP1 RETURNDATACOPY RETURNDATASIZE PUSH1 0x0 REVERT JUMPDEST POP POP POP POP PUSH1 0x40 MLOAD RETURNDATASIZE PUSH1 0x20 DUP2 LT ISZERO PUSH2 0x3C14 JUMPI PUSH1 0x0 DUP1 REVERT JUMPDEST POP MLOAD SWAP1 POP PUSH1 0x1 PUSH1 0x1 PUSH1 0xA0 SHL SUB DUP2 AND PUSH2 0x3C91 JUMPI PUSH1 0x17 SLOAD ISZERO PUSH2 0x3C8C JUMPI DUP3 ISZERO PUSH2 0x3C5D JUMPI PUSH2 0x3C59 PUSH2 0x3C50 PUSH1 0x17 SLOAD PUSH1 0x60 DUP7 SWAP1 SHL PUSH2 0x4970 SWAP1 SWAP2 SWAP1 PUSH4 0xFFFFFFFF AND JUMP JUMPDEST PUSH1 0x1C SLOAD SWAP1 PUSH2 0x385F JUMP JUMPDEST PUSH1 0x1C SSTORE JUMPDEST DUP2 ISZERO PUSH2 0x3C8C JUMPI PUSH2 0x3C88 PUSH2 0x3C7F PUSH1 0x17 SLOAD PUSH1 0x60 DUP6 SWAP1 SHL PUSH2 0x4970 SWAP1 SWAP2 SWAP1 PUSH4 0xFFFFFFFF AND JUMP JUMPDEST PUSH1 0x1D SLOAD SWAP1 PUSH2 0x385F JUMP JUMPDEST PUSH1 0x1D SSTORE JUMPDEST PUSH2 0x3CBF JUMP JUMPDEST PUSH1 0x11 SLOAD PUSH2 0x3CA8 SWAP1 PUSH1 0x1 PUSH1 0x1 PUSH1 0xA0 SHL SUB AND DUP3 DUP6 PUSH2 0x3CC4 JUMP JUMPDEST PUSH1 0x12 SLOAD PUSH2 0x3CBF SWAP1 PUSH1 0x1 PUSH1 0x1 PUSH1 0xA0 SHL SUB AND DUP3 DUP5 PUSH2 0x3CC4 JUMP JUMPDEST POP POP POP JUMP JUMPDEST PUSH1 0x40 DUP1 MLOAD PUSH1 0x1 PUSH1 0x1 PUSH1 0xA0 SHL SUB DUP5 DUP2 AND PUSH1 0x24 DUP4 ADD MSTORE PUSH1 0x44 DUP1 DUP4 ADD DUP6 SWAP1 MSTORE DUP4 MLOAD DUP1 DUP5 SUB SWAP1 SWAP2 ADD DUP2 MSTORE PUSH1 0x64 SWAP1 SWAP3 ADD DUP4 MSTORE PUSH1 0x20 DUP3 ADD DUP1 MLOAD PUSH1 0x1 PUSH1 0x1 PUSH1 0xE0 SHL SUB AND PUSH4 0xA9059CBB PUSH1 0xE0 SHL OR DUP2 MSTORE SWAP3 MLOAD DUP3 MLOAD PUSH1 0x0 SWAP5 DUP6 SWAP5 SWAP4 DUP10 AND SWAP4 SWAP3 SWAP2 DUP3 SWAP2 SWAP1 DUP1 DUP4 DUP4 JUMPDEST PUSH1 0x20 DUP4 LT PUSH2 0x3D40 JUMPI DUP1 MLOAD DUP3 MSTORE PUSH1 0x1F NOT SWAP1 SWAP3 ADD SWAP2 PUSH1 0x20 SWAP2 DUP3 ADD SWAP2 ADD PUSH2 0x3D21 JUMP JUMPDEST PUSH1 0x1 DUP4 PUSH1 0x20 SUB PUSH2 0x100 EXP SUB DUP1 NOT DUP3 MLOAD AND DUP2 DUP5 MLOAD AND DUP1 DUP3 OR DUP6 MSTORE POP POP POP POP POP POP SWAP1 POP ADD SWAP2 POP POP PUSH1 0x0 PUSH1 0x40 MLOAD DUP1 DUP4 SUB DUP2 PUSH1 0x0 DUP7 GAS CALL SWAP2 POP POP RETURNDATASIZE DUP1 PUSH1 0x0 DUP2 EQ PUSH2 0x3DA2 JUMPI PUSH1 0x40 MLOAD SWAP2 POP PUSH1 0x1F NOT PUSH1 0x3F RETURNDATASIZE ADD AND DUP3 ADD PUSH1 0x40 MSTORE RETURNDATASIZE DUP3 MSTORE RETURNDATASIZE PUSH1 0x0 PUSH1 0x20 DUP5 ADD RETURNDATACOPY PUSH2 0x3DA7 JUMP JUMPDEST PUSH1 0x60 SWAP2 POP JUMPDEST POP SWAP2 POP SWAP2 POP DUP2 DUP1 ISZERO PUSH2 0x3DD5 JUMPI POP DUP1 MLOAD ISZERO DUP1 PUSH2 0x3DD5 JUMPI POP DUP1 DUP1 PUSH1 0x20 ADD SWAP1 MLOAD PUSH1 0x20 DUP2 LT ISZERO PUSH2 0x3DD2 JUMPI PUSH1 0x0 DUP1 REVERT JUMPDEST POP MLOAD JUMPDEST PUSH2 0x3E26 JUMPI PUSH1 0x40 DUP1 MLOAD PUSH3 0x461BCD PUSH1 0xE5 SHL DUP2 MSTORE PUSH1 0x20 PUSH1 0x4 DUP3 ADD MSTORE PUSH1 0x1F PUSH1 0x24 DUP3 ADD MSTORE PUSH32 0x5472616E7366657248656C7065723A205452414E534645525F4641494C454400 PUSH1 0x44 DUP3 ADD MSTORE SWAP1 MLOAD SWAP1 DUP2 SWAP1 SUB PUSH1 0x64 ADD SWAP1 REVERT JUMPDEST POP POP POP POP POP JUMP JUMPDEST PUSH1 0x0 DUP2 ISZERO DUP1 PUSH2 0x3E48 JUMPI POP POP DUP1 DUP3 MUL DUP3 DUP3 DUP3 DUP2 PUSH2 0x3E45 JUMPI INVALID JUMPDEST DIV EQ JUMPDEST PUSH2 0xD1F JUMPI PUSH1 0x40 DUP1 MLOAD PUSH3 0x461BCD PUSH1 0xE5 SHL DUP2 MSTORE PUSH1 0x20 PUSH1 0x4 DUP3 ADD MSTORE PUSH1 0x14 PUSH1 0x24 DUP3 ADD MSTORE PUSH20 0x64732D6D6174682D6D756C2D6F766572666C6F77 PUSH1 0x60 SHL PUSH1 0x44 DUP3 ADD MSTORE SWAP1 MLOAD SWAP1 DUP2 SWAP1 SUB PUSH1 0x64 ADD SWAP1 REVERT JUMPDEST PUSH1 0x0 PUSH1 0x3 DUP3 GT ISZERO PUSH2 0x3ED3 JUMPI POP DUP1 PUSH1 0x1 PUSH1 0x2 DUP3 DIV ADD JUMPDEST DUP2 DUP2 LT ISZERO PUSH2 0x3ECD JUMPI DUP1 SWAP2 POP PUSH1 0x2 DUP2 DUP3 DUP6 DUP2 PUSH2 0x3EBC JUMPI INVALID JUMPDEST DIV ADD DUP2 PUSH2 0x3EC5 JUMPI INVALID JUMPDEST DIV SWAP1 POP PUSH2 0x3EA5 JUMP JUMPDEST POP PUSH2 0x373F JUMP JUMPDEST DUP2 ISZERO PUSH2 0x373F JUMPI POP PUSH1 0x1 SWAP2 SWAP1 POP JUMP JUMPDEST DUP1 PUSH1 0x1 PUSH1 0x1 PUSH1 0xA0 SHL SUB DUP2 AND DUP2 EQ PUSH2 0x373F JUMPI PUSH1 0x0 DUP1 REVERT JUMPDEST DUP1 PUSH2 0x3F01 JUMPI PUSH2 0x3FF8 JUMP JUMPDEST PUSH1 0x17 SLOAD PUSH2 0x3F0E SWAP1 DUP3 PUSH2 0x385F JUMP JUMPDEST PUSH1 0x17 SSTORE PUSH1 0x1 PUSH1 0x1 PUSH1 0xA0 SHL SUB DUP3 AND PUSH1 0x0 SWAP1 DUP2 MSTORE PUSH1 0x18 PUSH1 0x20 MSTORE PUSH1 0x40 SWAP1 KECCAK256 SLOAD PUSH2 0x3F34 DUP2 DUP4 PUSH2 0x385F JUMP JUMPDEST PUSH1 0x1 PUSH1 0x1 PUSH1 0xA0 SHL SUB DUP5 AND PUSH1 0x0 SWAP1 DUP2 MSTORE PUSH1 0x18 PUSH1 0x20 SWAP1 DUP2 MSTORE PUSH1 0x40 DUP1 DUP4 KECCAK256 SWAP4 SWAP1 SWAP4 SSTORE PUSH1 0x1C SLOAD PUSH1 0x1A SWAP1 SWAP2 MSTORE SWAP2 SWAP1 KECCAK256 SLOAD PUSH2 0x3F6B SWAP2 SWAP1 DUP4 DUP6 PUSH2 0x49B8 JUMP JUMPDEST PUSH1 0x1 PUSH1 0x1 PUSH1 0xA0 SHL SUB DUP5 AND PUSH1 0x0 SWAP1 DUP2 MSTORE PUSH1 0x1A PUSH1 0x20 SWAP1 DUP2 MSTORE PUSH1 0x40 DUP1 DUP4 KECCAK256 SWAP4 SWAP1 SWAP4 SSTORE PUSH1 0x1D SLOAD PUSH1 0x1B SWAP1 SWAP2 MSTORE SWAP2 SWAP1 KECCAK256 SLOAD PUSH2 0x3FA2 SWAP2 SWAP1 DUP4 DUP6 PUSH2 0x49B8 JUMP JUMPDEST PUSH1 0x1 PUSH1 0x1 PUSH1 0xA0 SHL SUB DUP5 AND PUSH1 0x0 DUP2 DUP2 MSTORE PUSH1 0x1B PUSH1 0x20 SWAP1 DUP2 MSTORE PUSH1 0x40 DUP1 DUP4 KECCAK256 SWAP5 SWAP1 SWAP5 SSTORE DUP4 MLOAD DUP7 DUP2 MSTORE SWAP4 MLOAD SWAP3 SWAP4 SWAP2 SWAP3 PUSH32 0xDDF252AD1BE2C89B69C2B068FC378DAA952BA7F163C4A11628F55A4DF523B3EF SWAP3 DUP2 SWAP1 SUB SWAP1 SWAP2 ADD SWAP1 LOG3 POP JUMPDEST POP POP JUMP JUMPDEST PUSH1 0x0 DUP1 PUSH1 0x0 DUP4 PUSH1 0x2 SIGNEXTEND SLT PUSH2 0x4013 JUMPI DUP3 PUSH1 0x2 SIGNEXTEND PUSH2 0x401B JUMP JUMPDEST DUP3 PUSH1 0x2 SIGNEXTEND PUSH1 0x0 SUB JUMPDEST SWAP1 POP PUSH3 0xD89E8 DUP2 GT ISZERO PUSH2 0x4059 JUMPI PUSH1 0x40 DUP1 MLOAD PUSH3 0x461BCD PUSH1 0xE5 SHL DUP2 MSTORE PUSH1 0x20 PUSH1 0x4 DUP3 ADD MSTORE PUSH1 0x1 PUSH1 0x24 DUP3 ADD MSTORE PUSH1 0x15 PUSH1 0xFA SHL PUSH1 0x44 DUP3 ADD MSTORE SWAP1 MLOAD SWAP1 DUP2 SWAP1 SUB PUSH1 0x64 ADD SWAP1 REVERT JUMPDEST PUSH1 0x0 PUSH1 0x1 DUP3 AND PUSH2 0x406D JUMPI PUSH1 0x1 PUSH1 0x80 SHL PUSH2 0x407F JUMP JUMPDEST PUSH16 0xFFFCB933BD6FAD37AA2D162D1A594001 JUMPDEST PUSH17 0xFFFFFFFFFFFFFFFFFFFFFFFFFFFFFFFFFF AND SWAP1 POP PUSH1 0x2 DUP3 AND ISZERO PUSH2 0x40B3 JUMPI PUSH16 0xFFF97272373D413259A46990580E213A MUL PUSH1 0x80 SHR JUMPDEST PUSH1 0x4 DUP3 AND ISZERO PUSH2 0x40D2 JUMPI PUSH16 0xFFF2E50F5F656932EF12357CF3C7FDCC MUL PUSH1 0x80 SHR JUMPDEST PUSH1 0x8 DUP3 AND ISZERO PUSH2 0x40F1 JUMPI PUSH16 0xFFE5CACA7E10E4E61C3624EAA0941CD0 MUL PUSH1 0x80 SHR JUMPDEST PUSH1 0x10 DUP3 AND ISZERO PUSH2 0x4110 JUMPI PUSH16 0xFFCB9843D60F6159C9DB58835C926644 MUL PUSH1 0x80 SHR JUMPDEST PUSH1 0x20 DUP3 AND ISZERO PUSH2 0x412F JUMPI PUSH16 0xFF973B41FA98C081472E6896DFB254C0 MUL PUSH1 0x80 SHR JUMPDEST PUSH1 0x40 DUP3 AND ISZERO PUSH2 0x414E JUMPI PUSH16 0xFF2EA16466C96A3843EC78B326B52861 MUL PUSH1 0x80 SHR JUMPDEST PUSH1 0x80 DUP3 AND ISZERO PUSH2 0x416D JUMPI PUSH16 0xFE5DEE046A99A2A811C461F1969C3053 MUL PUSH1 0x80 SHR JUMPDEST PUSH2 0x100 DUP3 AND ISZERO PUSH2 0x418D JUMPI PUSH16 0xFCBE86C7900A88AEDCFFC83B479AA3A4 MUL PUSH1 0x80 SHR JUMPDEST PUSH2 0x200 DUP3 AND ISZERO PUSH2 0x41AD JUMPI PUSH16 0xF987A7253AC413176F2B074CF7815E54 MUL PUSH1 0x80 SHR JUMPDEST PUSH2 0x400 DUP3 AND ISZERO PUSH2 0x41CD JUMPI PUSH16 0xF3392B0822B70005940C7A398E4B70F3 MUL PUSH1 0x80 SHR JUMPDEST PUSH2 0x800 DUP3 AND ISZERO PUSH2 0x41ED JUMPI PUSH16 0xE7159475A2C29B7443B29C7FA6E889D9 MUL PUSH1 0x80 SHR JUMPDEST PUSH2 0x1000 DUP3 AND ISZERO PUSH2 0x420D JUMPI PUSH16 0xD097F3BDFD2022B8845AD8F792AA5825 MUL PUSH1 0x80 SHR JUMPDEST PUSH2 0x2000 DUP3 AND ISZERO PUSH2 0x422D JUMPI PUSH16 0xA9F746462D870FDF8A65DC1F90E061E5 MUL PUSH1 0x80 SHR JUMPDEST PUSH2 0x4000 DUP3 AND ISZERO PUSH2 0x424D JUMPI PUSH16 0x70D869A156D2A1B890BB3DF62BAF32F7 MUL PUSH1 0x80 SHR JUMPDEST PUSH2 0x8000 DUP3 AND ISZERO PUSH2 0x426D JUMPI PUSH16 0x31BE135F97D08FD981231505542FCFA6 MUL PUSH1 0x80 SHR JUMPDEST PUSH3 0x10000 DUP3 AND ISZERO PUSH2 0x428E JUMPI PUSH16 0x9AA508B5B7A84E1C677DE54F3E99BC9 MUL PUSH1 0x80 SHR JUMPDEST PUSH3 0x20000 DUP3 AND ISZERO PUSH2 0x42AE JUMPI PUSH15 0x5D6AF8DEDB81196699C329225EE604 MUL PUSH1 0x80 SHR JUMPDEST PUSH3 0x40000 DUP3 AND ISZERO PUSH2 0x42CD JUMPI PUSH14 0x2216E584F5FA1EA926041BEDFE98 MUL PUSH1 0x80 SHR JUMPDEST PUSH3 0x80000 DUP3 AND ISZERO PUSH2 0x42EA JUMPI PUSH12 0x48A170391F7DC42444E8FA2 MUL PUSH1 0x80 SHR JUMPDEST PUSH1 0x0 DUP5 PUSH1 0x2 SIGNEXTEND SGT ISZERO PUSH2 0x4305 JUMPI DUP1 PUSH1 0x0 NOT DUP2 PUSH2 0x4301 JUMPI INVALID JUMPDEST DIV SWAP1 POP JUMPDEST PUSH1 0x1 PUSH1 0x20 SHL DUP2 MOD ISZERO PUSH2 0x4318 JUMPI PUSH1 0x1 PUSH2 0x431B JUMP JUMPDEST PUSH1 0x0 JUMPDEST PUSH1 0xFF AND PUSH1 0x20 DUP3 SWAP1 SHR ADD SWAP3 POP POP POP SWAP2 SWAP1 POP JUMP JUMPDEST DUP4 MLOAD PUSH1 0x20 DUP1 DUP7 ADD MLOAD PUSH1 0x40 DUP1 DUP9 ADD MLOAD PUSH1 0x60 DUP10 ADD MLOAD DUP3 MLOAD PUSH1 0x2 DUP13 SWAP1 SIGNEXTEND PUSH1 0x24 DUP3 ADD MSTORE PUSH1 0x1 PUSH1 0x1 PUSH1 0x80 SHL SUB SWAP7 DUP8 AND PUSH1 0x44 DUP3 ADD MSTORE SWAP4 DUP7 AND PUSH1 0x64 DUP6 ADD MSTORE SWAP1 DUP6 AND PUSH1 0x84 DUP5 ADD MSTORE SWAP4 SWAP1 SWAP4 AND PUSH1 0xA4 DUP3 ADD MSTORE PUSH1 0x1 PUSH1 0x1 PUSH1 0xA0 SHL SUB DUP7 DUP2 AND PUSH1 0xC4 DUP4 ADD MSTORE PUSH1 0xE4 DUP3 ADD DUP7 SWAP1 MSTORE PUSH2 0x104 DUP1 DUP4 ADD DUP7 SWAP1 MSTORE DUP5 MLOAD DUP1 DUP5 SUB SWAP1 SWAP2 ADD DUP2 MSTORE PUSH2 0x124 SWAP1 SWAP3 ADD DUP5 MSTORE SWAP2 DUP2 ADD DUP1 MLOAD PUSH1 0x1 PUSH1 0x1 PUSH1 0xE0 SHL SUB AND PUSH4 0x7A3642AF PUSH1 0xE1 SHL OR DUP2 MSTORE SWAP3 MLOAD DUP2 MLOAD PUSH1 0x0 SWAP5 DUP6 SWAP5 PUSH32 0x0 AND SWAP4 SWAP3 SWAP2 DUP3 SWAP2 SWAP1 DUP1 DUP4 DUP4 JUMPDEST PUSH1 0x20 DUP4 LT PUSH2 0x4414 JUMPI DUP1 MLOAD DUP3 MSTORE PUSH1 0x1F NOT SWAP1 SWAP3 ADD SWAP2 PUSH1 0x20 SWAP2 DUP3 ADD SWAP2 ADD PUSH2 0x43F5 JUMP JUMPDEST PUSH1 0x1 DUP4 PUSH1 0x20 SUB PUSH2 0x100 EXP SUB DUP1 NOT DUP3 MLOAD AND DUP2 DUP5 MLOAD AND DUP1 DUP3 OR DUP6 MSTORE POP POP POP POP POP POP SWAP1 POP ADD SWAP2 POP POP PUSH1 0x0 PUSH1 0x40 MLOAD DUP1 DUP4 SUB DUP2 DUP6 GAS DELEGATECALL SWAP2 POP POP RETURNDATASIZE DUP1 PUSH1 0x0 DUP2 EQ PUSH2 0x4474 JUMPI PUSH1 0x40 MLOAD SWAP2 POP PUSH1 0x1F NOT PUSH1 0x3F RETURNDATASIZE ADD AND DUP3 ADD PUSH1 0x40 MSTORE RETURNDATASIZE DUP3 MSTORE RETURNDATASIZE PUSH1 0x0 PUSH1 0x20 DUP5 ADD RETURNDATACOPY PUSH2 0x4479 JUMP JUMPDEST PUSH1 0x60 SWAP2 POP JUMPDEST POP SWAP2 POP SWAP2 POP DUP2 DUP2 SWAP1 PUSH2 0x44CC JUMPI PUSH1 0x40 MLOAD PUSH3 0x461BCD PUSH1 0xE5 SHL DUP2 MSTORE PUSH1 0x20 PUSH1 0x4 DUP3 ADD DUP2 DUP2 MSTORE DUP4 MLOAD PUSH1 0x24 DUP5 ADD MSTORE DUP4 MLOAD SWAP1 SWAP3 DUP4 SWAP3 PUSH1 0x44 SWAP1 SWAP2 ADD SWAP2 SWAP1 DUP6 ADD SWAP1 DUP1 DUP4 DUP4 PUSH1 0x0 DUP4 ISZERO PUSH2 0x3A90 JUMPI DUP2 DUP2 ADD MLOAD DUP4 DUP3 ADD MSTORE PUSH1 0x20 ADD PUSH2 0x3A78 JUMP JUMPDEST POP POP POP POP POP POP POP POP JUMP JUMPDEST PUSH1 0x40 DUP1 MLOAD PUSH1 0x1 PUSH1 0x1 PUSH1 0xA0 SHL SUB DUP6 DUP2 AND PUSH1 0x24 DUP4 ADD MSTORE DUP5 DUP2 AND PUSH1 0x44 DUP4 ADD MSTORE PUSH1 0x64 DUP1 DUP4 ADD DUP6 SWAP1 MSTORE DUP4 MLOAD DUP1 DUP5 SUB SWAP1 SWAP2 ADD DUP2 MSTORE PUSH1 0x84 SWAP1 SWAP3 ADD DUP4 MSTORE PUSH1 0x20 DUP3 ADD DUP1 MLOAD PUSH1 0x1 PUSH1 0x1 PUSH1 0xE0 SHL SUB AND PUSH4 0x23B872DD PUSH1 0xE0 SHL OR DUP2 MSTORE SWAP3 MLOAD DUP3 MLOAD PUSH1 0x0 SWAP5 DUP6 SWAP5 SWAP4 DUP11 AND SWAP4 SWAP3 SWAP2 DUP3 SWAP2 SWAP1 DUP1 DUP4 DUP4 JUMPDEST PUSH1 0x20 DUP4 LT PUSH2 0x455A JUMPI DUP1 MLOAD DUP3 MSTORE PUSH1 0x1F NOT SWAP1 SWAP3 ADD SWAP2 PUSH1 0x20 SWAP2 DUP3 ADD SWAP2 ADD PUSH2 0x453B JUMP JUMPDEST PUSH1 0x1 DUP4 PUSH1 0x20 SUB PUSH2 0x100 EXP SUB DUP1 NOT DUP3 MLOAD AND DUP2 DUP5 MLOAD AND DUP1 DUP3 OR DUP6 MSTORE POP POP POP POP POP POP SWAP1 POP ADD SWAP2 POP POP PUSH1 0x0 PUSH1 0x40 MLOAD DUP1 DUP4 SUB DUP2 PUSH1 0x0 DUP7 GAS CALL SWAP2 POP POP RETURNDATASIZE DUP1 PUSH1 0x0 DUP2 EQ PUSH2 0x45BC JUMPI PUSH1 0x40 MLOAD SWAP2 POP PUSH1 0x1F NOT PUSH1 0x3F RETURNDATASIZE ADD AND DUP3 ADD PUSH1 0x40 MSTORE RETURNDATASIZE DUP3 MSTORE RETURNDATASIZE PUSH1 0x0 PUSH1 0x20 DUP5 ADD RETURNDATACOPY PUSH2 0x45C1 JUMP JUMPDEST PUSH1 0x60 SWAP2 POP JUMPDEST POP SWAP2 POP SWAP2 POP DUP2 DUP1 ISZERO PUSH2 0x45EF JUMPI POP DUP1 MLOAD ISZERO DUP1 PUSH2 0x45EF JUMPI POP DUP1 DUP1 PUSH1 0x20 ADD SWAP1 MLOAD PUSH1 0x20 DUP2 LT ISZERO PUSH2 0x45EC JUMPI PUSH1 0x0 DUP1 REVERT JUMPDEST POP MLOAD JUMPDEST PUSH2 0x462A JUMPI PUSH1 0x40 MLOAD PUSH3 0x461BCD PUSH1 0xE5 SHL DUP2 MSTORE PUSH1 0x4 ADD DUP1 DUP1 PUSH1 0x20 ADD DUP3 DUP2 SUB DUP3 MSTORE PUSH1 0x24 DUP2 MSTORE PUSH1 0x20 ADD DUP1 PUSH2 0x49EE PUSH1 0x24 SWAP2 CODECOPY PUSH1 0x40 ADD SWAP2 POP POP PUSH1 0x40 MLOAD DUP1 SWAP2 SUB SWAP1 REVERT JUMPDEST POP POP POP POP POP POP JUMP JUMPDEST PUSH1 0x0 PUSH1 0x1 PUSH1 0xFF SHL DUP3 LT PUSH2 0x4644 JUMPI PUSH1 0x0 DUP1 REVERT JUMPDEST POP SWAP1 JUMP JUMPDEST PUSH1 0x0 PUSH1 0x13 DUP4 PUSH2 0x4658 JUMPI PUSH1 0x0 PUSH2 0x465B JUMP JUMPDEST PUSH1 0x1 JUMPDEST PUSH1 0xFF AND PUSH1 0x2 DUP2 LT PUSH2 0x4668 JUMPI INVALID JUMPDEST PUSH1 0x1 PUSH1 0x1 PUSH1 0xA0 SHL SUB DUP8 AND PUSH1 0x0 SWAP1 DUP2 MSTORE SWAP2 ADD PUSH1 0x20 SWAP1 DUP2 MSTORE PUSH1 0x40 DUP1 DUP4 KECCAK256 PUSH1 0x2 DUP9 DUP2 SIGNEXTEND DUP2 SIGNEXTEND DUP6 MSTORE SWAP1 DUP4 MSTORE DUP2 DUP5 KECCAK256 DUP3 MLOAD PUSH1 0x80 DUP2 ADD DUP5 MSTORE DUP2 SLOAD DUP2 MSTORE PUSH1 0x1 DUP3 ADD SLOAD SWAP5 DUP2 ADD SWAP5 SWAP1 SWAP5 MSTORE SWAP1 DUP2 ADD SLOAD SWAP2 DUP4 ADD SWAP2 SWAP1 SWAP2 MSTORE PUSH1 0x3 ADD SLOAD PUSH1 0x60 DUP3 ADD MSTORE SWAP2 POP PUSH2 0x46C9 DUP6 PUSH2 0x3FFC JUMP JUMPDEST PUSH1 0x40 DUP4 ADD MLOAD SWAP1 SWAP2 POP ISZERO PUSH2 0x462A JUMPI DUP4 PUSH2 0x4774 JUMPI PUSH1 0x0 PUSH2 0x46EB DUP4 PUSH1 0x40 ADD MLOAD DUP4 PUSH2 0x1952 JUMP JUMPDEST PUSH1 0x2 DUP8 DUP2 SIGNEXTEND SWAP1 SIGNEXTEND PUSH1 0x0 SWAP1 DUP2 MSTORE PUSH1 0xB PUSH1 0x20 MSTORE PUSH1 0x40 SWAP1 KECCAK256 SLOAD SWAP1 SWAP2 POP PUSH2 0x4727 SWAP1 PUSH2 0x4722 SWAP1 PUSH1 0x1 PUSH1 0x80 SHL SWAP1 DIV PUSH1 0x1 PUSH1 0x1 PUSH1 0x80 SHL SUB AND DUP4 PUSH2 0x34AB JUMP JUMPDEST PUSH2 0x3729 JUMP JUMPDEST PUSH1 0x2 DUP8 DUP2 SIGNEXTEND SWAP1 SIGNEXTEND PUSH1 0x0 SWAP1 DUP2 MSTORE PUSH1 0xB PUSH1 0x20 MSTORE PUSH1 0x40 SWAP1 KECCAK256 DUP1 SLOAD PUSH1 0x1 PUSH1 0x1 PUSH1 0x80 SHL SUB SWAP3 DUP4 AND PUSH1 0x1 PUSH1 0x80 SHL MUL SWAP3 AND SWAP2 SWAP1 SWAP2 OR SWAP1 SSTORE PUSH1 0x11 SLOAD PUSH2 0x476E SWAP1 PUSH1 0x1 PUSH1 0x1 PUSH1 0xA0 SHL SUB AND DUP6 DUP4 PUSH2 0x3CC4 JUMP JUMPDEST POP PUSH2 0x480A JUMP JUMPDEST PUSH1 0x0 PUSH2 0x4784 DUP4 PUSH1 0x40 ADD MLOAD DUP4 PUSH2 0x29CE JUMP JUMPDEST PUSH1 0x2 DUP8 DUP2 SIGNEXTEND SWAP1 SIGNEXTEND PUSH1 0x0 SWAP1 DUP2 MSTORE PUSH1 0xB PUSH1 0x20 MSTORE PUSH1 0x40 SWAP1 KECCAK256 PUSH1 0x1 ADD SLOAD SWAP1 SWAP2 POP PUSH2 0x47BE SWAP1 PUSH2 0x4722 SWAP1 PUSH1 0x1 PUSH1 0x80 SHL SWAP1 DIV PUSH1 0x1 PUSH1 0x1 PUSH1 0x80 SHL SUB AND DUP4 PUSH2 0x34AB JUMP JUMPDEST PUSH1 0x2 DUP8 DUP2 SIGNEXTEND SWAP1 SIGNEXTEND PUSH1 0x0 SWAP1 DUP2 MSTORE PUSH1 0xB PUSH1 0x20 MSTORE PUSH1 0x40 SWAP1 KECCAK256 PUSH1 0x1 ADD DUP1 SLOAD PUSH1 0x1 PUSH1 0x1 PUSH1 0x80 SHL SUB SWAP3 DUP4 AND PUSH1 0x1 PUSH1 0x80 SHL MUL SWAP3 AND SWAP2 SWAP1 SWAP2 OR SWAP1 SSTORE PUSH1 0x12 SLOAD PUSH2 0x4808 SWAP1 PUSH1 0x1 PUSH1 0x1 PUSH1 0xA0 SHL SUB AND DUP6 DUP4 PUSH2 0x3CC4 JUMP JUMPDEST POP JUMPDEST PUSH1 0x13 DUP5 PUSH2 0x4818 JUMPI PUSH1 0x0 PUSH2 0x481B JUMP JUMPDEST PUSH1 0x1 JUMPDEST PUSH1 0xFF AND PUSH1 0x2 DUP2 LT PUSH2 0x4828 JUMPI INVALID JUMPDEST PUSH1 0x1 PUSH1 0x1 PUSH1 0xA0 SHL SUB DUP9 AND PUSH1 0x0 SWAP1 DUP2 MSTORE SWAP2 ADD PUSH1 0x20 SWAP1 DUP2 MSTORE PUSH1 0x40 DUP1 DUP4 KECCAK256 PUSH1 0x2 DUP10 DUP2 SIGNEXTEND DUP2 SIGNEXTEND DUP6 MSTORE SWAP3 MSTORE DUP3 KECCAK256 DUP3 DUP2 SSTORE PUSH1 0x1 DUP2 ADD DUP4 SWAP1 SSTORE SWAP1 DUP2 ADD DUP3 SWAP1 SSTORE PUSH1 0x3 ADD SSTORE POP POP POP POP POP POP JUMP JUMPDEST PUSH1 0x1 PUSH1 0x1 PUSH1 0xA0 SHL SUB DUP3 AND PUSH1 0x0 SWAP1 DUP2 MSTORE PUSH1 0x18 PUSH1 0x20 MSTORE PUSH1 0x40 DUP2 KECCAK256 SLOAD DUP2 SWAP1 PUSH2 0x4891 SWAP1 DUP5 PUSH2 0x34AB JUMP JUMPDEST PUSH1 0x1 PUSH1 0x1 PUSH1 0xA0 SHL SUB DUP6 AND PUSH1 0x0 SWAP1 DUP2 MSTORE PUSH1 0x18 PUSH1 0x20 MSTORE PUSH1 0x40 SWAP1 KECCAK256 SSTORE PUSH1 0x17 SLOAD PUSH2 0x48B7 SWAP1 DUP5 PUSH2 0x34AB JUMP JUMPDEST PUSH1 0x17 SSTORE PUSH1 0x40 DUP1 MLOAD DUP5 DUP2 MSTORE SWAP1 MLOAD PUSH1 0x0 SWAP2 PUSH1 0x1 PUSH1 0x1 PUSH1 0xA0 SHL SUB DUP8 AND SWAP2 PUSH32 0xDDF252AD1BE2C89B69C2B068FC378DAA952BA7F163C4A11628F55A4DF523B3EF SWAP2 DUP2 SWAP1 SUB PUSH1 0x20 ADD SWAP1 LOG3 PUSH1 0x1 PUSH1 0x1 PUSH1 0xA0 SHL SUB DUP5 AND PUSH1 0x0 SWAP1 DUP2 MSTORE PUSH1 0x1A PUSH1 0x20 MSTORE PUSH1 0x40 SWAP1 KECCAK256 SLOAD PUSH1 0x1C SLOAD PUSH1 0x60 SWAP2 PUSH2 0x4930 SWAP2 DUP7 SWAP2 PUSH2 0x492A SWAP2 SWAP1 PUSH2 0x34AB JUMP JUMPDEST SWAP1 PUSH2 0x3E2D JUMP JUMPDEST PUSH1 0x1 PUSH1 0x1 PUSH1 0xA0 SHL SUB DUP7 AND PUSH1 0x0 SWAP1 DUP2 MSTORE PUSH1 0x1B PUSH1 0x20 MSTORE PUSH1 0x40 SWAP1 KECCAK256 SLOAD PUSH1 0x1D SLOAD SWAP2 SWAP1 SWAP3 SHR SWAP4 POP PUSH1 0x60 SWAP2 PUSH2 0x4965 SWAP2 DUP7 SWAP2 PUSH2 0x492A SWAP2 SWAP1 PUSH2 0x34AB JUMP JUMPDEST SWAP1 SHR SWAP1 POP SWAP3 POP SWAP3 SWAP1 POP JUMP JUMPDEST PUSH1 0x0 DUP2 DUP4 DUP2 PUSH2 0x497B JUMPI INVALID JUMPDEST DIV SWAP4 SWAP3 POP POP POP JUMP JUMPDEST PUSH1 0x2 SIGNEXTEND PUSH1 0xE DUP2 SWAP1 SAR SWAP2 PUSH1 0x8 DUP3 SWAP1 SAR PUSH1 0x3F DUP2 AND SWAP3 SWAP1 SWAP2 PUSH2 0x100 SWAP1 SWAP2 SMOD SWAP1 JUMP JUMPDEST PUSH1 0x0 SIGNEXTEND PUSH1 0x7F ADD SWAP1 JUMP JUMPDEST PUSH1 0x1 PUSH1 0xFF SWAP1 SWAP2 AND SHL AND ISZERO ISZERO SWAP1 JUMP JUMPDEST PUSH1 0x0 PUSH2 0x49E4 PUSH2 0x49C7 DUP5 DUP5 PUSH2 0x385F JUMP JUMPDEST PUSH2 0x2DFE PUSH2 0x49D4 DUP9 DUP7 PUSH2 0x3E2D JUMP JUMPDEST PUSH2 0x49DE DUP9 DUP9 PUSH2 0x3E2D JUMP JUMPDEST SWAP1 PUSH2 0x385F JUMP JUMPDEST SWAP6 SWAP5 POP POP POP POP POP JUMP INVALID SLOAD PUSH19 0x616E7366657248656C7065723A205452414E53 CHAINID GASLIMIT MSTORE 0x5F CHAINID MSTORE 0x4F 0x4D 0x5F CHAINID COINBASE 0x49 0x4C GASLIMIT DIFFICULTY LOG2 PUSH5 0x6970667358 0x22 SLT KECCAK256 0x5D PUSH5 0x4DC5136709 MLOAD PUSH14 0x5E687183E0CE644C72A6A53C558A DUP3 INVALID 0xC5 PUSH15 0x3A9BB885FE64736F6C634300070600 CALLER "
		},
		"gasEstimates": {
			"creation": {
				"codeDepositCost": "3803000",
				"executionCost": "infinite",
				"totalCost": "infinite"
			},
			"external": {
				"": "infinite",
				"LP2Tokens(uint256)": "infinite",
				"allowance(address,address)": "1305",
				"amount0ToAmount1(uint256,uint160)": "infinite",
				"amount1ToAmount0(uint256,uint160)": "infinite",
				"approve(address,uint256)": "22369",
				"balanceOf(address)": "1236",
				"burn(address)": "infinite",
				"buyShare(address,int24)": "1348",
				"cancelLimitOrder(int24,uint256,bool)": "infinite",
				"claimableReward(address,uint256)": "infinite",
				"currentSqrtPriceX96()": "1082",
				"currentTick()": "3672",
				"decimals()": "297",
				"estOutput(uint256,bool)": "infinite",
				"flashLoan(address,uint256,uint256,bytes)": "infinite",
				"getDeep(int24)": "infinite",
				"getLimitTokens(int24,address,uint256,bool)": "infinite",
				"getTotalLimit()": "1127",
				"initTokenAddress(address,address)": "63629",
				"isExploited(int24,uint256)": "infinite",
				"lastBalance0()": "1087",
				"lastBalance1()": "1131",
				"liquidity()": "1088",
				"mint(address)": "infinite",
				"name()": "infinite",
				"putLimitOrder(int24,uint256,bool)": "infinite",
				"reserve0()": "2600",
				"reserve1()": "2618",
				"reward0PerTokenX96()": "1043",
				"reward1PerTokenX96()": "1110",
				"sellShare(address,int24)": "1401",
				"swap(uint256,bool,address)": "infinite",
				"symbol()": "infinite",
				"tickBitmap(int16)": "1225",
				"token0()": "1172",
				"token1()": "1081",
				"totalSupply()": "1066",
				"tradeCore()": "infinite",
				"transfer(address,uint256)": "infinite",
				"transferFrom(address,address,uint256)": "infinite",
				"writeOffReward0PerTokenX96(address)": "1237",
				"writeOffReward1PerTokenX96(address)": "1278"
			},
			"internal": {
				"balance0()": "infinite",
				"balance1()": "infinite",
				"claimDealtLimitPosition(address,int24,bool,address)": "infinite",
				"trade(uint256,bool,int24)": "infinite",
				"transferTokens(address,uint256,uint256,bool)": "infinite",
				"updateDeep(int24,struct LimitswapStorage.tickDeep memory,uint160,int256,int256)": "infinite",
				"wordHighMap(int8)": "26"
			}
		},
		"methodIdentifiers": {
			"LP2Tokens(uint256)": "25a6e322",
			"allowance(address,address)": "dd62ed3e",
			"amount0ToAmount1(uint256,uint160)": "bbea8f6a",
			"amount1ToAmount0(uint256,uint160)": "7a95fff4",
			"approve(address,uint256)": "095ea7b3",
			"balanceOf(address)": "70a08231",
			"burn(address)": "89afcb44",
			"buyShare(address,int24)": "2a354ad9",
			"cancelLimitOrder(int24,uint256,bool)": "bf62f97c",
			"claimableReward(address,uint256)": "6bd97f1d",
			"currentSqrtPriceX96()": "47fd03d9",
			"currentTick()": "065e5360",
			"decimals()": "313ce567",
			"estOutput(uint256,bool)": "cbfe3ab3",
			"flashLoan(address,uint256,uint256,bytes)": "679f0579",
			"getDeep(int24)": "1b69c941",
			"getLimitTokens(int24,address,uint256,bool)": "58ecdc35",
			"getTotalLimit()": "d8f9f12d",
			"initTokenAddress(address,address)": "15d44a6d",
			"isExploited(int24,uint256)": "f81cfa76",
			"lastBalance0()": "4d630907",
			"lastBalance1()": "8fbd64cb",
			"liquidity()": "1a686502",
			"mint(address)": "6a627842",
			"name()": "06fdde03",
			"putLimitOrder(int24,uint256,bool)": "88bb52ed",
			"reserve0()": "443cb4bc",
			"reserve1()": "5a76f25e",
			"reward0PerTokenX96()": "834d04af",
			"reward1PerTokenX96()": "3b8a829d",
			"sellShare(address,int24)": "ef6ae4cc",
			"swap(uint256,bool,address)": "4af0871b",
			"symbol()": "95d89b41",
			"tickBitmap(int16)": "5339c296",
			"token0()": "0dfe1681",
			"token1()": "d21220a7",
			"totalSupply()": "18160ddd",
			"tradeCore()": "8c7987b7",
			"transfer(address,uint256)": "a9059cbb",
			"transferFrom(address,address,uint256)": "23b872dd",
			"writeOffReward0PerTokenX96(address)": "0c4d32ed",
			"writeOffReward1PerTokenX96(address)": "fcf96952"
		}
	},
	"abi": [
		{
			"inputs": [
				{
					"internalType": "address",
					"name": "_tradeCore",
					"type": "address"
				}
			],
			"stateMutability": "nonpayable",
			"type": "constructor"
		},
		{
			"anonymous": false,
			"inputs": [
				{
					"indexed": true,
					"internalType": "address",
					"name": "owner",
					"type": "address"
				},
				{
					"indexed": true,
					"internalType": "address",
					"name": "spender",
					"type": "address"
				},
				{
					"indexed": false,
					"internalType": "uint256",
					"name": "value",
					"type": "uint256"
				}
			],
			"name": "Approval",
			"type": "event"
		},
		{
			"anonymous": false,
			"inputs": [
				{
					"indexed": true,
					"internalType": "address",
					"name": "miner",
					"type": "address"
				},
				{
					"indexed": false,
					"internalType": "uint256",
					"name": "amount0In",
					"type": "uint256"
				},
				{
					"indexed": false,
					"internalType": "uint256",
					"name": "sqrtPriceX96",
					"type": "uint256"
				},
				{
					"indexed": false,
					"internalType": "address",
					"name": "to",
					"type": "address"
				},
				{
					"indexed": false,
					"internalType": "uint256",
					"name": "liquidity",
					"type": "uint256"
				}
			],
			"name": "Burn",
			"type": "event"
		},
		{
			"anonymous": false,
			"inputs": [
				{
					"indexed": true,
					"internalType": "address",
					"name": "from",
					"type": "address"
				},
				{
					"indexed": false,
					"internalType": "int24",
					"name": "tick",
					"type": "int24"
				},
				{
					"indexed": false,
					"internalType": "uint128",
					"name": "buyShare",
					"type": "uint128"
				},
				{
					"indexed": false,
					"internalType": "uint128",
					"name": "sellShare",
					"type": "uint128"
				},
				{
					"indexed": false,
					"internalType": "uint128",
					"name": "token0Out",
					"type": "uint128"
				},
				{
					"indexed": false,
					"internalType": "uint128",
					"name": "token1Out",
					"type": "uint128"
				}
			],
			"name": "CancelLimit",
			"type": "event"
		},
		{
			"anonymous": false,
			"inputs": [
				{
					"indexed": true,
					"internalType": "address",
					"name": "miner",
					"type": "address"
				},
				{
					"indexed": false,
					"internalType": "uint256",
					"name": "amount0In",
					"type": "uint256"
				},
				{
					"indexed": false,
					"internalType": "uint256",
					"name": "sqrtPriceX96",
					"type": "uint256"
				},
				{
					"indexed": false,
					"internalType": "address",
					"name": "to",
					"type": "address"
				},
				{
					"indexed": false,
					"internalType": "uint256",
					"name": "liquidity",
					"type": "uint256"
				}
			],
			"name": "Mint",
			"type": "event"
		},
		{
			"anonymous": false,
			"inputs": [
				{
					"indexed": true,
					"internalType": "address",
					"name": "from",
					"type": "address"
				},
				{
					"indexed": false,
					"internalType": "int24",
					"name": "tick",
					"type": "int24"
				},
				{
					"indexed": false,
					"internalType": "uint128",
					"name": "buyShare",
					"type": "uint128"
				},
				{
					"indexed": false,
					"internalType": "uint128",
					"name": "sellShare",
					"type": "uint128"
				},
				{
					"indexed": false,
					"internalType": "uint128",
					"name": "token0In",
					"type": "uint128"
				},
				{
					"indexed": false,
					"internalType": "uint128",
					"name": "token1In",
					"type": "uint128"
				}
			],
			"name": "PutLimit",
			"type": "event"
		},
		{
			"anonymous": false,
			"inputs": [
				{
					"indexed": true,
					"internalType": "address",
					"name": "from",
					"type": "address"
				},
				{
					"indexed": false,
					"internalType": "uint128",
					"name": "token0In",
					"type": "uint128"
				},
				{
					"indexed": false,
					"internalType": "uint128",
					"name": "token1In",
					"type": "uint128"
				},
				{
					"indexed": false,
					"internalType": "uint128",
					"name": "token0Out",
					"type": "uint128"
				},
				{
					"indexed": false,
					"internalType": "uint128",
					"name": "token1Out",
					"type": "uint128"
				},
				{
					"indexed": false,
					"internalType": "uint160",
					"name": "newPriceX96",
					"type": "uint160"
				}
			],
			"name": "Swap",
			"type": "event"
		},
		{
			"anonymous": false,
			"inputs": [
				{
					"indexed": true,
					"internalType": "address",
					"name": "from",
					"type": "address"
				},
				{
					"indexed": true,
					"internalType": "address",
					"name": "to",
					"type": "address"
				},
				{
					"indexed": false,
					"internalType": "uint256",
					"name": "value",
					"type": "uint256"
				}
			],
			"name": "Transfer",
			"type": "event"
		},
		{
			"stateMutability": "nonpayable",
			"type": "fallback"
		},
		{
			"inputs": [
				{
					"internalType": "uint256",
					"name": "LPamount",
					"type": "uint256"
				}
			],
			"name": "LP2Tokens",
			"outputs": [
				{
					"internalType": "uint256",
					"name": "amount0",
					"type": "uint256"
				},
				{
					"internalType": "uint256",
					"name": "amount1",
					"type": "uint256"
				}
			],
			"stateMutability": "view",
			"type": "function"
		},
		{
			"inputs": [
				{
					"internalType": "address",
					"name": "",
					"type": "address"
				},
				{
					"internalType": "address",
					"name": "",
					"type": "address"
				}
			],
			"name": "allowance",
			"outputs": [
				{
					"internalType": "uint256",
					"name": "",
					"type": "uint256"
				}
			],
			"stateMutability": "view",
			"type": "function"
		},
		{
			"inputs": [
				{
					"internalType": "uint256",
					"name": "amount0",
					"type": "uint256"
				},
				{
					"internalType": "uint160",
					"name": "sqrtPriceX96",
					"type": "uint160"
				}
			],
			"name": "amount0ToAmount1",
			"outputs": [
				{
					"internalType": "uint256",
					"name": "amount1",
					"type": "uint256"
				}
			],
			"stateMutability": "pure",
			"type": "function"
		},
		{
			"inputs": [
				{
					"internalType": "uint256",
					"name": "amount1",
					"type": "uint256"
				},
				{
					"internalType": "uint160",
					"name": "sqrtPriceX96",
					"type": "uint160"
				}
			],
			"name": "amount1ToAmount0",
			"outputs": [
				{
					"internalType": "uint256",
					"name": "amount0",
					"type": "uint256"
				}
			],
			"stateMutability": "pure",
			"type": "function"
		},
		{
			"inputs": [
				{
					"internalType": "address",
					"name": "spender",
					"type": "address"
				},
				{
					"internalType": "uint256",
					"name": "value",
					"type": "uint256"
				}
			],
			"name": "approve",
			"outputs": [
				{
					"internalType": "bool",
					"name": "",
					"type": "bool"
				}
			],
			"stateMutability": "nonpayable",
			"type": "function"
		},
		{
			"inputs": [
				{
					"internalType": "address",
					"name": "",
					"type": "address"
				}
			],
			"name": "balanceOf",
			"outputs": [
				{
					"internalType": "uint256",
					"name": "",
					"type": "uint256"
				}
			],
			"stateMutability": "view",
			"type": "function"
		},
		{
			"inputs": [
				{
					"internalType": "address",
					"name": "to",
					"type": "address"
				}
			],
			"name": "burn",
			"outputs": [
				{
					"internalType": "uint256",
					"name": "amount0",
					"type": "uint256"
				},
				{
					"internalType": "uint256",
					"name": "amount1",
					"type": "uint256"
				}
			],
			"stateMutability": "nonpayable",
			"type": "function"
		},
		{
			"inputs": [
				{
					"internalType": "address",
					"name": "user",
					"type": "address"
				},
				{
					"internalType": "int24",
					"name": "tick",
					"type": "int24"
				}
			],
			"name": "buyShare",
			"outputs": [
				{
					"internalType": "uint256",
					"name": "share",
					"type": "uint256"
				}
			],
			"stateMutability": "view",
			"type": "function"
		},
		{
			"inputs": [
				{
					"internalType": "int24",
					"name": "tick",
					"type": "int24"
				},
				{
					"internalType": "uint256",
					"name": "share",
					"type": "uint256"
				},
				{
					"internalType": "bool",
					"name": "isSellShare",
					"type": "bool"
				}
			],
			"name": "cancelLimitOrder",
			"outputs": [
				{
					"internalType": "uint256",
					"name": "token0Out",
					"type": "uint256"
				},
				{
					"internalType": "uint256",
					"name": "token1Out",
					"type": "uint256"
				}
			],
			"stateMutability": "nonpayable",
			"type": "function"
		},
		{
			"inputs": [
				{
					"internalType": "address",
					"name": "from",
					"type": "address"
				},
				{
					"internalType": "uint256",
					"name": "share",
					"type": "uint256"
				}
			],
			"name": "claimableReward",
			"outputs": [
				{
					"internalType": "uint256",
					"name": "reward0",
					"type": "uint256"
				},
				{
					"internalType": "uint256",
					"name": "reward1",
					"type": "uint256"
				}
			],
			"stateMutability": "view",
			"type": "function"
		},
		{
			"inputs": [],
			"name": "currentSqrtPriceX96",
			"outputs": [
				{
					"internalType": "uint160",
					"name": "",
					"type": "uint160"
				}
			],
			"stateMutability": "view",
			"type": "function"
		},
		{
			"inputs": [],
			"name": "currentTick",
			"outputs": [
				{
					"internalType": "int24",
					"name": "tick",
					"type": "int24"
				}
			],
			"stateMutability": "view",
			"type": "function"
		},
		{
			"inputs": [],
			"name": "decimals",
			"outputs": [
				{
					"internalType": "uint8",
					"name": "",
					"type": "uint8"
				}
			],
			"stateMutability": "view",
			"type": "function"
		},
		{
			"inputs": [
				{
					"internalType": "uint256",
					"name": "amountIn",
					"type": "uint256"
				},
				{
					"internalType": "bool",
					"name": "zeroForToken0",
					"type": "bool"
				}
			],
			"name": "estOutput",
			"outputs": [
				{
					"internalType": "uint256",
					"name": "",
					"type": "uint256"
				},
				{
					"internalType": "uint256",
					"name": "",
					"type": "uint256"
				},
				{
					"internalType": "uint160",
					"name": "",
					"type": "uint160"
				}
			],
			"stateMutability": "view",
			"type": "function"
		},
		{
			"inputs": [
				{
					"internalType": "address",
					"name": "recipient",
					"type": "address"
				},
				{
					"internalType": "uint256",
					"name": "amount0",
					"type": "uint256"
				},
				{
					"internalType": "uint256",
					"name": "amount1",
					"type": "uint256"
				},
				{
					"internalType": "bytes",
					"name": "data",
					"type": "bytes"
				}
			],
			"name": "flashLoan",
			"outputs": [],
			"stateMutability": "nonpayable",
			"type": "function"
		},
		{
			"inputs": [
				{
					"internalType": "int24",
					"name": "tick",
					"type": "int24"
				}
			],
			"name": "getDeep",
			"outputs": [
				{
					"internalType": "uint256",
					"name": "token0Deep",
					"type": "uint256"
				},
				{
					"internalType": "uint256",
					"name": "token1Deep",
					"type": "uint256"
				}
			],
			"stateMutability": "view",
			"type": "function"
		},
		{
			"inputs": [
				{
					"internalType": "int24",
					"name": "tick",
					"type": "int24"
				},
				{
					"internalType": "address",
					"name": "user",
					"type": "address"
				},
				{
					"internalType": "uint256",
					"name": "share",
					"type": "uint256"
				},
				{
					"internalType": "bool",
					"name": "isSellShare",
					"type": "bool"
				}
			],
			"name": "getLimitTokens",
			"outputs": [
				{
					"internalType": "uint256",
					"name": "",
					"type": "uint256"
				},
				{
					"internalType": "uint256",
					"name": "",
					"type": "uint256"
				}
			],
			"stateMutability": "view",
			"type": "function"
		},
		{
			"inputs": [],
			"name": "getTotalLimit",
			"outputs": [
				{
					"internalType": "uint256",
					"name": "totalLimit0",
					"type": "uint256"
				},
				{
					"internalType": "uint256",
					"name": "totalLimit1",
					"type": "uint256"
				}
			],
			"stateMutability": "view",
			"type": "function"
		},
		{
			"inputs": [
				{
					"internalType": "address",
					"name": "_token0",
					"type": "address"
				},
				{
					"internalType": "address",
					"name": "_token1",
					"type": "address"
				}
			],
			"name": "initTokenAddress",
			"outputs": [],
			"stateMutability": "nonpayable",
			"type": "function"
		},
		{
			"inputs": [
				{
					"internalType": "int24",
					"name": "tick",
					"type": "int24"
				},
				{
					"internalType": "uint256",
					"name": "buyside",
					"type": "uint256"
				}
			],
			"name": "isExploited",
			"outputs": [
				{
					"internalType": "bool",
					"name": "",
					"type": "bool"
				}
			],
			"stateMutability": "view",
			"type": "function"
		},
		{
			"inputs": [],
			"name": "lastBalance0",
			"outputs": [
				{
					"internalType": "uint256",
					"name": "",
					"type": "uint256"
				}
			],
			"stateMutability": "view",
			"type": "function"
		},
		{
			"inputs": [],
			"name": "lastBalance1",
			"outputs": [
				{
					"internalType": "uint256",
					"name": "",
					"type": "uint256"
				}
			],
			"stateMutability": "view",
			"type": "function"
		},
		{
			"inputs": [],
			"name": "liquidity",
			"outputs": [
				{
					"internalType": "uint256",
					"name": "",
					"type": "uint256"
				}
			],
			"stateMutability": "view",
			"type": "function"
		},
		{
			"inputs": [
				{
					"internalType": "address",
					"name": "to",
					"type": "address"
				}
			],
			"name": "mint",
			"outputs": [
				{
					"internalType": "uint256",
					"name": "share",
					"type": "uint256"
				}
			],
			"stateMutability": "nonpayable",
			"type": "function"
		},
		{
			"inputs": [],
			"name": "name",
			"outputs": [
				{
					"internalType": "string",
					"name": "",
					"type": "string"
				}
			],
			"stateMutability": "view",
			"type": "function"
		},
		{
			"inputs": [
				{
					"internalType": "int24",
					"name": "tick",
					"type": "int24"
				},
				{
					"internalType": "uint256",
					"name": "amount",
					"type": "uint256"
				},
				{
					"internalType": "bool",
					"name": "zeroForToken1",
					"type": "bool"
				}
			],
			"name": "putLimitOrder",
			"outputs": [
				{
					"internalType": "uint256",
					"name": "share",
					"type": "uint256"
				}
			],
			"stateMutability": "nonpayable",
			"type": "function"
		},
		{
			"inputs": [],
			"name": "reserve0",
			"outputs": [
				{
					"internalType": "uint256",
					"name": "",
					"type": "uint256"
				}
			],
			"stateMutability": "view",
			"type": "function"
		},
		{
			"inputs": [],
			"name": "reserve1",
			"outputs": [
				{
					"internalType": "uint256",
					"name": "",
					"type": "uint256"
				}
			],
			"stateMutability": "view",
			"type": "function"
		},
		{
			"inputs": [],
			"name": "reward0PerTokenX96",
			"outputs": [
				{
					"internalType": "uint256",
					"name": "",
					"type": "uint256"
				}
			],
			"stateMutability": "view",
			"type": "function"
		},
		{
			"inputs": [],
			"name": "reward1PerTokenX96",
			"outputs": [
				{
					"internalType": "uint256",
					"name": "",
					"type": "uint256"
				}
			],
			"stateMutability": "view",
			"type": "function"
		},
		{
			"inputs": [
				{
					"internalType": "address",
					"name": "user",
					"type": "address"
				},
				{
					"internalType": "int24",
					"name": "tick",
					"type": "int24"
				}
			],
			"name": "sellShare",
			"outputs": [
				{
					"internalType": "uint256",
					"name": "share",
					"type": "uint256"
				}
			],
			"stateMutability": "view",
			"type": "function"
		},
		{
			"inputs": [
				{
					"internalType": "uint256",
					"name": "amountIn",
					"type": "uint256"
				},
				{
					"internalType": "bool",
					"name": "zeroForToken0",
					"type": "bool"
				},
				{
					"internalType": "address",
					"name": "to",
					"type": "address"
				}
			],
			"name": "swap",
			"outputs": [
				{
					"internalType": "uint256",
					"name": "amountOut",
					"type": "uint256"
				},
				{
					"internalType": "uint160",
					"name": "toSqrtPriceX96",
					"type": "uint160"
				}
			],
			"stateMutability": "nonpayable",
			"type": "function"
		},
		{
			"inputs": [],
			"name": "symbol",
			"outputs": [
				{
					"internalType": "string",
					"name": "",
					"type": "string"
				}
			],
			"stateMutability": "view",
			"type": "function"
		},
		{
			"inputs": [
				{
					"internalType": "int16",
					"name": "",
					"type": "int16"
				}
			],
			"name": "tickBitmap",
			"outputs": [
				{
					"internalType": "uint256",
					"name": "",
					"type": "uint256"
				}
			],
			"stateMutability": "view",
			"type": "function"
		},
		{
			"inputs": [],
			"name": "token0",
			"outputs": [
				{
					"internalType": "address",
					"name": "",
					"type": "address"
				}
			],
			"stateMutability": "view",
			"type": "function"
		},
		{
			"inputs": [],
			"name": "token1",
			"outputs": [
				{
					"internalType": "address",
					"name": "",
					"type": "address"
				}
			],
			"stateMutability": "view",
			"type": "function"
		},
		{
			"inputs": [],
			"name": "totalSupply",
			"outputs": [
				{
					"internalType": "uint256",
					"name": "",
					"type": "uint256"
				}
			],
			"stateMutability": "view",
			"type": "function"
		},
		{
			"inputs": [],
			"name": "tradeCore",
			"outputs": [
				{
					"internalType": "address",
					"name": "",
					"type": "address"
				}
			],
			"stateMutability": "view",
			"type": "function"
		},
		{
			"inputs": [
				{
					"internalType": "address",
					"name": "to",
					"type": "address"
				},
				{
					"internalType": "uint256",
					"name": "value",
					"type": "uint256"
				}
			],
			"name": "transfer",
			"outputs": [
				{
					"internalType": "bool",
					"name": "",
					"type": "bool"
				}
			],
			"stateMutability": "nonpayable",
			"type": "function"
		},
		{
			"inputs": [
				{
					"internalType": "address",
					"name": "from",
					"type": "address"
				},
				{
					"internalType": "address",
					"name": "to",
					"type": "address"
				},
				{
					"internalType": "uint256",
					"name": "value",
					"type": "uint256"
				}
			],
			"name": "transferFrom",
			"outputs": [
				{
					"internalType": "bool",
					"name": "",
					"type": "bool"
				}
			],
			"stateMutability": "nonpayable",
			"type": "function"
		},
		{
			"inputs": [
				{
					"internalType": "address",
					"name": "",
					"type": "address"
				}
			],
			"name": "writeOffReward0PerTokenX96",
			"outputs": [
				{
					"internalType": "uint256",
					"name": "",
					"type": "uint256"
				}
			],
			"stateMutability": "view",
			"type": "function"
		},
		{
			"inputs": [
				{
					"internalType": "address",
					"name": "",
					"type": "address"
				}
			],
			"name": "writeOffReward1PerTokenX96",
			"outputs": [
				{
					"internalType": "uint256",
					"name": "",
					"type": "uint256"
				}
			],
			"stateMutability": "view",
			"type": "function"
		}
	]
}