{
	"data": {
		"bytecode": {
			"linkReferences": {},
			"object": "60a060405234801561001057600080fd5b506040516140313803806140318339818101604052602081101561003357600080fd5b5051606081901b6001600160601b0319166080526001600160a01b0316613fbb61007660003980610264528061209f52806130a05280613d1c5250613fbb6000f3fe608060405234801561001057600080fd5b50600436106102535760003560e01c80636a6278421161014657806395d89b41116100c3578063d21220a711610087578063d21220a714610872578063d8f9f12d1461087a578063dd62ed3e14610882578063ef6ae4cc146108b0578063f81cfa76146108df578063fcf969521461090557610253565b806395d89b4114610798578063a9059cbb146107a0578063bbea8f6a146107cc578063bf62f97c146107f8578063cbfe3ab31461082657610253565b806388bb52ed1161010a57806388bb52ed1461070657806389afcb44146107345780638c7987b71461075a5780638fbd64cb146107625780639371b0121461076a57610253565b80636a6278421461065a5780636bd97f1d1461068057806370a08231146106ac5780637a95fff4146106d2578063834d04af146106fe57610253565b80632a354ad9116101d45780634af0871b116101985780634af0871b1461054b5780634d630907146105a05780635339c296146105a85780635a76f25e146105c8578063679f0579146105d057610253565b80632a354ad9146104e6578063313ce567146105155780633b8a829d14610533578063443cb4bc1461053b57806347fd03d91461054357610253565b806315d44a6d1161021b57806315d44a6d1461043757806318160ddd146104675780631a6865021461046f5780631b69c9411461047757806323b872dd146104b057610253565b8063065e5360146102ff57806306fdde031461031e578063095ea7b31461039b5780630c4d32ed146103db5780630dfe168114610413575b33301461025f57600080fd5b6000807f00000000000000000000000000000000000000000000000000000000000000006001600160a01b03166000366040518083838082843760405192019450600093509091505080830381855af49150503d80600081146102de576040519150601f19603f3d011682016040523d82523d6000602084013e6102e3565b606091505b509150915081600081146102f8573d60208301f35b3d60208301fd5b61030761092b565b6040805160029290920b8252519081900360200190f35b610326610948565b6040805160208082528351818301528351919283929083019185019080838360005b83811015610360578181015183820152602001610348565b50505050905090810190601f16801561038d5780820380516001836020036101000a031916815260200191505b509250505060405180910390f35b6103c7600480360360408110156103b157600080fd5b506001600160a01b038135169060200135610c87565b604080519115158252519081900360200190f35b610401600480360360208110156103f157600080fd5b50356001600160a01b0316610cee565b60408051918252519081900360200190f35b61041b610d00565b604080516001600160a01b039092168252519081900360200190f35b6104656004803603604081101561044d57600080fd5b506001600160a01b0381358116916020013516610d0f565b005b610401610d60565b610401610d66565b6104976004803603602081101561048d57600080fd5b503560020b610d6c565b6040805192835260208301919091528051918290030190f35b6103c7600480360360608110156104c657600080fd5b506001600160a01b03813581169160208101359091169060400135610dd8565b610401600480360360408110156104fc57600080fd5b506001600160a01b03813516906020013560020b610e6d565b61051d610e8a565b6040805160ff9092168252519081900360200190f35b610401610e8f565b610401610e95565b61041b610eb6565b61057f6004803603606081101561056157600080fd5b508035906020810135151590604001356001600160a01b0316610ec5565b604080519283526001600160a01b0390911660208301528051918290030190f35b6104016110bf565b610401600480360360208110156105be57600080fd5b503560010b6110c5565b6104016110d7565b610465600480360360808110156105e657600080fd5b6001600160a01b038235169160208101359160408201359190810190608081016060820135600160201b81111561061c57600080fd5b82018360208201111561062e57600080fd5b803590602001918460018302840111600160201b8311171561064f57600080fd5b5090925090506110f7565b6104016004803603602081101561067057600080fd5b50356001600160a01b031661146c565b6104976004803603604081101561069657600080fd5b506001600160a01b0381351690602001356116be565b610401600480360360208110156106c257600080fd5b50356001600160a01b031661172e565b610401600480360360408110156106e857600080fd5b50803590602001356001600160a01b0316611740565b610401611792565b6104016004803603606081101561071c57600080fd5b50803560020b90602081013590604001351515611798565b6104976004803603602081101561074a57600080fd5b50356001600160a01b0316611ea7565b61041b61209d565b6104016120c1565b6104976004803603606081101561078057600080fd5b50803560020b906020810135906040013515156120c7565b6103266121de565b6103c7600480360360408110156107b657600080fd5b506001600160a01b0381351690602001356121e8565b610401600480360360408110156107e257600080fd5b50803590602001356001600160a01b0316612208565b6104976004803603606081101561080e57600080fd5b50803560020b90602081013590604001351515612261565b61084b6004803603604081101561083c57600080fd5b5080359060200135151561271d565b6040805193845260208401929092526001600160a01b031682820152519081900360600190f35b61041b612821565b610497612830565b6104016004803603604081101561089857600080fd5b506001600160a01b0381358116916020013516612847565b610401600480360360408110156108c657600080fd5b506001600160a01b03813516906020013560020b612864565b6103c7600480360360408110156108f557600080fd5b50803560020b9060200135612881565b6104016004803603602081101561091b57600080fd5b50356001600160a01b0316612952565b600254600090610943906001600160a01b0316612964565b905090565b601354604080516306fdde0360e01b815290516060926001600160a01b0316916306fdde03916004808301926000929190829003018186803b15801561098d57600080fd5b505afa1580156109a1573d6000803e3d6000fd5b505050506040513d6000823e601f3d908101601f1916820160405260208110156109ca57600080fd5b8101908080516040519392919084600160201b8211156109e957600080fd5b9083019060208201858111156109fe57600080fd5b8251600160201b811182820188101715610a1757600080fd5b82525081516020918201929091019080838360005b83811015610a44578181015183820152602001610a2c565b50505050905090810190601f168015610a715780820380516001836020036101000a031916815260200191505b5060408181526014546306fdde0360e01b835290516001600160a01b0390911694506306fdde03935060048083019350600092829003018186803b158015610ab857600080fd5b505afa158015610acc573d6000803e3d6000fd5b505050506040513d6000823e601f3d908101601f191682016040526020811015610af557600080fd5b8101908080516040519392919084600160201b821115610b1457600080fd5b908301906020820185811115610b2957600080fd5b8251600160201b811182820188101715610b4257600080fd5b82525081516020918201929091019080838360005b83811015610b6f578181015183820152602001610b57565b50505050905090810190601f168015610b9c5780820380516001836020036101000a031916815260200191505b5060405250505060405160200180807302634b6b4ba29bbb0b8102628102a37b5b2b71d160651b81525060140183805190602001908083835b60208310610bf45780518252601f199092019160209182019101610bd5565b6001836020036101000a03801982511681845116808217855250505050505090500180602f60f81b81525060010182805190602001908083835b60208310610c4d5780518252601f199092019160209182019101610c2e565b6001836020036101000a03801982511681845116808217855250505050505090500192505050604051602081830303815290604052905090565b3360008181526017602090815260408083206001600160a01b038716808552908352818420869055815186815291519394909390927f8c5be1e5ebec7d5bd14f71427d1e84f3dd0314c0f7b2291e5b200ac8c7c3b925928290030190a35060015b92915050565b60186020526000908152604090205481565b6013546001600160a01b031681565b6013546001600160a01b031615610d2557600080fd5b601380546001600160a01b039384166001600160a01b03199182161790915560148054929093169116179055601c805460ff19166001179055565b60155481565b60035481565b600080610d7a836000612881565b610da357600283810b900b6000908152600b60205260409020600101546001600160801b031691505b610dae836001612881565b610dd35750600282810b900b6000908152600b60205260409020546001600160801b03165b915091565b6001600160a01b038316600090815260176020908152604080832033845290915281205460001914610e57576001600160a01b0384166000908152601760209081526040808320338452909152902054610e329083612c83565b6001600160a01b03851660009081526017602090815260408083203384529091529020555b610e62848484612cd3565b5060015b9392505050565b600c60209081526000928352604080842090915290825290205481565b601281565b601b5481565b60035460025460009161094391600160601b906001600160a01b0316612e02565b6002546001600160a01b031681565b601c54600090819060ff16610f07576040805162461bcd60e51b81526020600482015260036024820152624c4f4b60e81b604482015290519081900360640190fd5b601c805460ff191690556002546001600160a01b0316610f2657600080fd5b610f2f85612e3c565b508315610f5b57610f3e612e57565b601e54610f4b9087612f72565b1115610f5657600080fd5b610f7b565b610f63612fc1565b601d54610f709087612f72565b1115610f7b57600080fd5b610f99858586610f8f57627ffffe19610f94565b627fffff5b61303b565b90935091506000905084610fae576000610fb0565b825b9050600085610fbf5783610fc2565b60005b9050600080610fd48785856001613212565b91509150610fe282826132c1565b337fb029ec0911dfd170dbc1992b48561b88a491ee3e92f0d20dc4fed6851e5125af89611017576110128b612e3c565b61101a565b60005b8a61102657600061102f565b61102f8c612e3c565b61103a868903612e3c565b611045868903612e3c565b604080516001600160801b039586168152938516602085015291841683830152909216606082015290519081900360800190a2600082116110885780860361108c565b8186035b9550611096612fc1565b601d556110a1612e57565b601e555050601c805460ff1916600117905550919590945092505050565b601d5481565b60126020526000908152604090205481565b600354600254600091610943916001600160a01b0316600160601b612e02565b601c5460ff16611134576040805162461bcd60e51b81526020600482015260036024820152624c4f4b60e81b604482015290519081900360640190fd5b601c805460ff19169055600061114e8560036103e8612e02565b905060006111608560036103e8612e02565b9050600061116c612fc1565b90506000611178612e57565b6001546040805163931a322760e01b815233600482015290519293506001600160a01b039091169163931a322791602480820192602092909190829003018186803b1580156111c657600080fd5b505afa1580156111da573d6000803e3d6000fd5b505050506040513d60208110156111f057600080fd5b5051156111fc57600080fd5b871561129f5760015460135460408051633c4d60eb60e11b81526001600160a01b0392831660048201529051919092169163789ac1d6916024808301926020929190829003018186803b15801561125257600080fd5b505afa158015611266573d6000803e3d6000fd5b505050506040513d602081101561127c57600080fd5b50511561128857600080fd5b60135461129f906001600160a01b03168a8a6133d8565b86156113425760015460145460408051633c4d60eb60e11b81526001600160a01b0392831660048201529051919092169163789ac1d6916024808301926020929190829003018186803b1580156112f557600080fd5b505afa158015611309573d6000803e3d6000fd5b505050506040513d602081101561131f57600080fd5b50511561132b57600080fd5b601454611342906001600160a01b03168a896133d8565b336001600160a01b031663097b90fb858589896040518563ffffffff1660e01b815260040180858152602001848152602001806020018281038252848482818152602001925080828437600081840152601f19601f82011690508083019250505095505050505050600060405180830381600087803b1580156113c457600080fd5b505af11580156113d8573d6000803e3d6000fd5b5050505060006113e6612fc1565b905060006113f2612e57565b9050816113ff8588612f72565b111561140a57600080fd5b806114158487612f72565b111561142057600080fd5b61143c61142d8386612c83565b6114378386612c83565b6132c1565b611444612fc1565b601d5561144f612e57565b601e555050601c805460ff19166001179055505050505050505050565b601c5460009060ff166114ac576040805162461bcd60e51b81526020600482015260036024820152624c4f4b60e81b604482015290519081900360640190fd5b601c805460ff19169055601d546000906114ce906114c8612fc1565b90612c83565b905060006114e0601e546114c8612e57565b90506114eb82612e3c565b506114f581612e3c565b506002546001600160a01b031661155a576115186115138284613541565b6135a4565b60038190556115359061153090600160601b856135f5565b6136a4565b600280546001600160a01b0319166001600160a01b03929092169190911790556115ef565b6002546000906115749084906001600160a01b0316612208565b9050808210156115aa576002546000906115989083906001600160a01b0316611740565b90506115a781850360006132c1565b92505b808211156115bf576115bf60008284036132c1565b6115ea6115d4846115ce610e95565b90612f72565b6002546001600160a01b0316600160601b6135f5565b600355505b601554611619576002546060906116109084906001600160a01b0316613541565b901c925061163b565b611638611624610e95565b601554611632908590613541565b906136ba565b92505b61164584846136cd565b600254604080518481526001600160a01b039283166020820152918616828201525133917fdbba30eb0402b389513e87f51f4db2db80bed454384ec6925a24097c3548a02a919081900360600190a261169c612fc1565b601d556116a7612e57565b601e555050601c805460ff19166001179055919050565b6001600160a01b038216600090815260186020526040812054601a5482916116f69185916116ec9190612c83565b600160601b6135f5565b6001600160a01b038516600090815260186020526040902054601a549193506117259185916116ec9190612c83565b90509250929050565b60166020526000908152604090205481565b60006001600160a01b0382161580611756575082155b1561176357506000610ce8565b610e6661177e84600160601b856001600160a01b03166135f5565b600160601b846001600160a01b03166135f5565b601a5481565b601c5460009060ff166117d8576040805162461bcd60e51b81526020600482015260036024820152624c4f4b60e81b604482015290519081900360640190fd5b601c805460ff191690556002546001600160a01b03166117f757600080fd5b61180083612e3c565b50811561183f5761180f612fc1565b601d5461181c9085612f72565b111561183a5760135461183a906001600160a01b03163330866137c7565b611872565b611847612e57565b601e546118549085612f72565b111561187257601454611872906001600160a01b03163330866137c7565b33803b80156118e557816001600160a01b03166367e404ce6040518163ffffffff1660e01b8152600401602060405180830381600087803b1580156118b657600080fd5b505af11580156118ca573d6000803e3d6000fd5b505050506040513d60208110156118e057600080fd5b505191505b5060008484801561190257506118f961092b565b60020b8760020b125b80611922575084158015611922575061191961092b565b60020b8760020b135b1561193a576119338686158961303b565b5090965091505b8515611ccb57600080600061194e8a613923565b60028b810b900b6000908152600b6020908152604091829020825160808101845281546001600160801b038082168352600160801b918290048116948301949094526001909201548084169482019490945292041660608201529091508815611b3d576119bc8b6000612881565b1580156119d2575080516001600160801b031615155b15611a5f5780516119f5906001600160801b03166119f08c85612208565b613c54565b9350611a018483611740565b9250611a0c84612e3c565b8151036001600160801b03168152611a2383612e3c565b602082018051919091016001600160801b03169052611a428a85612c83565b99508915611a5257600019909901985b611a5c8685612f72565b95505b611a688a612e3c565b604082018051919091016001600160801b03169052611a9d8b8284611a8c8e613c6a565b611a9589613c6a565b600003613c80565b611aa78a83612208565b9750611af888600d60008a6001600160a01b03166001600160a01b0316815260200190815260200160002060008e60020b60020b815260200190815260200160002054612f7290919063ffffffff16565b600d6000896001600160a01b03166001600160a01b0316815260200190815260200160002060008d60020b60020b815260200190815260200160002081905550611cc6565b611b488b6001612881565b158015611b625750600081604001516001600160801b0316115b15611bf357611b8281604001516001600160801b03166119f08c85611740565b9350611b8e8483612208565b9250611b9984612e3c565b604082018051919091036001600160801b03169052611bb783612e3c565b606082018051919091016001600160801b03169052611bd68a85612c83565b99508915611be657600019909901985b611bf08685612f72565b95505b611bfc8a612e3c565b8151016001600160801b03168152611c2a8b8284611c1988613c6a565b600003611c258f613c6a565b613c80565b611c348a83611740565b9750611c8588600c60008a6001600160a01b03166001600160a01b0316815260200190815260200160002060008e60020b60020b815260200190815260200160002054612f7290919063ffffffff16565b600c6000896001600160a01b03166001600160a01b0316815260200190815260200160002060008d60020b60020b8152602001908152602001600020819055505b505050505b8115611dbb57600085611cde5782611ce1565b60005b9050600086611cf1576000611cf3565b835b9050600080611d058785856001613212565b91509150611d1382826132c1565b866001600160a01b03167fb029ec0911dfd170dbc1992b48561b88a491ee3e92f0d20dc4fed6851e5125af8a611d4a576000611d55565b611d558c8803612e3c565b8b611d6a57611d658d8903612e3c565b611d6d565b60005b611d78868903612e3c565b611d83868903612e3c565b604080516001600160801b039586168152938516602085015291841683830152909216606082015290519081900360800190a2505050505b826001600160a01b03167ff1a73c4ba2a463dd1bd57bbae8bf5385904b0e25b6eb91b82276a57481b9fc688887611dfa57611df587612e3c565b611dfd565b60005b88611e09576000611e12565b611e1288612e3c565b89611e1e576000611e27565b611e278b612e3c565b8a611e3a57611e358c612e3c565b611e3d565b60005b6040805160029690960b86526001600160801b0394851660208701529284168584015290831660608501529091166080830152519081900360a00190a2611e82612fc1565b601d55611e8d612e57565b601e555050601c805460ff19166001179055509392505050565b601c54600090819060ff16611ee9576040805162461bcd60e51b81526020600482015260036024820152624c4f4b60e81b604482015290519081900360640190fd5b601c805460ff191690553060009081526016602052604081205490611f0c610e95565b601554909150611f20906116328484613541565b600254909450611f3a9085906001600160a01b0316612208565b92508315611f4a57600019909301925b83811415611f5a57600019909301925b611f676115d48286612c83565b6003819055611f765760016003555b30600090815260186020526040902054601a54611fa491611f9d9185916116ec9190612c83565b8590612f72565b30600090815260196020526040902054601b54919550611fd491611fcd9185916116ec91612c83565b8490612f72565b601354909350611ff9906001600160a01b031686611ff4876119f0612fc1565b6133d8565b601454612016906001600160a01b031686611ff4866119f0612e57565b6120203083613dd8565b5050600254604080518681526001600160a01b039283166020820152918716828201525133917fdccd412f0b1252819cb1fd330b93224ca42612892bb3f4f789976e6d81936496919081900360600190a2612079612fc1565b601d55612084612e57565b601e555050601c805460ff191660011790559092909150565b7f000000000000000000000000000000000000000000000000000000000000000081565b601e5481565b60408051600285900b60248201526044810184905282151560648083019190915282518083039091018152608490910182526020810180516001600160e01b031663234ed1bf60e11b17815291518151600093849384933093919290918291908083835b6020831061214a5780518252601f19909201916020918201910161212b565b6001836020036101000a038019825116818451168082178552505050505050905001915050600060405180830381855afa9150503d80600081146121aa576040519150601f19603f3d011682016040523d82523d6000602084013e6121af565b606091505b509150508080602001905160408110156121c857600080fd5b5080516020909101519097909650945050505050565b6060610943610948565b60006121f382612e3c565b506121ff338484612cd3565b50600192915050565b60006001600160a01b038216158061221e575082155b1561222b57506000610ce8565b606061224d6001600160a01b038416826122458783613541565b901c90613541565b901c90508015610ce8576000190192915050565b601c54600090819060ff166122a3576040805162461bcd60e51b81526020600482015260036024820152624c4f4b60e81b604482015290519081900360640190fd5b601c805460ff1916905560006122b886613923565b600287810b900b6000908152600b60209081526040808320815160808101835281546001600160801b038082168352600160801b918290048116958301959095526001909201548085169382019390935291049091166060820152919250612324918891849080613c80565b600286810b900b6000908152600b6020908152604091829020825160808101845281546001600160801b038082168352600160801b918290048116948301949094526001909201548084169482019490945292041660608201526123898787876120c7565b909450925033803b801561240157816001600160a01b03166367e404ce6040518163ffffffff1660e01b8152600401602060405180830381600087803b1580156123d257600080fd5b505af11580156123e6573d6000803e3d6000fd5b505050506040513d60208110156123fc57600080fd5b505191505b86156124f6576001600160a01b0382166000908152600d6020908152604080832060028d810b900b845290915290205488111561243d57600080fd5b6001600160a01b0382166000908152600d6020908152604080832060028d810b900b8452909152902054612471818a612c83565b6001600160a01b0384166000908152600d6020908152604080832060028f810b900b84529091529020556124a487612e3c565b604085018051919091036001600160801b031690526124c286612e3c565b606085018051919091036001600160801b031690526124f08a85876124e68b613c6a565b6000036000613c80565b506125d2565b6001600160a01b0382166000908152600c6020908152604080832060028d810b900b845290915290205488111561252c57600080fd5b6001600160a01b0382166000908152600c6020908152604080832060028d810b900b8452909152902054612560818a612c83565b6001600160a01b0384166000908152600c6020908152604080832060028f810b900b845290915290205561259387612e3c565b602085018051919091036001600160801b031690526125b186612e3c565b8451036001600160801b031684526125d08a85876000611a958b613c6a565b505b8680156125df5750600085115b15612616576125f960006114376064611632896003613541565b61261361260c6064611632886003613541565b8690612c83565b94505b861580156126245750600086115b156126605761264361263c6064611632896003613541565b60006132c1565b61265d6126566064611632886003613541565b8790612c83565b95505b61266d8287876000613212565b5050816001600160a01b03167f884e468729443f48e19c8f9ae60f027026340405904d8aca6016de907f6715388a896126ae576126a98b612e3c565b6126b1565b60005b8a6126bd5760006126c6565b6126c68c612e3c565b6126cf8b612e3c565b6126d88b612e3c565b6040805160029690960b86526001600160801b0394851660208701529284168584015290831660608501529091166080830152519081900360a00190a2611096612fc1565b600080808080306302ea5e1f60e01b88888061273d57627ffffe19612742565b627fffff5b604080516024810194909452911515604484015260020b60648084019190915281518084039091018152608490920181526020820180516001600160e01b03166001600160e01b0319909416939093178352518151919290918291908083835b602083106127c15780518252601f1990920191602091820191016127a2565b6001836020036101000a038019825116818451168082178552505050505050905001915050600060405180830381855afa9150503d80600081146102de576040519150601f19603f3d011682016040523d82523d6000602084013e6102e3565b6014546001600160a01b031681565b600454608081901c916001600160801b0390911690565b601760209081526000928352604080842090915290825290205481565b600d60209081526000928352604080842090915290825290205481565b600080600080600061289287613edc565b93509350935093506128ba600587600281106128aa57fe5b01546128b586613f1b565b613f24565b156128cc576001945050505050610ce8565b6128f5600787600281106128dc57fe5b600087810b810b81529101602052604090205484613f24565b15612907576001945050505050610ce8565b6129336009876002811061291757fe5b600185810b900b60009081529101602052604090205482613f24565b15612945576001945050505050610ce8565b6000945050505050610ce8565b60196020526000908152604090205481565b60006401000276a36001600160a01b038316108015906129a0575073fffd8963efd1fc6a506488495d951d5263988d266001600160a01b038316105b6129d5576040805162461bcd60e51b81526020600482015260016024820152602960f91b604482015290519081900360640190fd5b640100000000600160c01b03602083901b166001600160801b03811160071b81811c67ffffffffffffffff811160061b90811c63ffffffff811160051b90811c61ffff811160041b90811c60ff8111600390811b91821c600f811160021b90811c918211600190811b92831c97908811961790941790921717909117171760808110612a6957607f810383901c9150612a73565b80607f0383901b91505b908002607f81811c60ff83811c9190911c800280831c81831c1c800280841c81841c1c800280851c81851c1c800280861c81861c1c800280871c81871c1c800280881c81881c1c800280891c81891c1c8002808a1c818a1c1c8002808b1c818b1c1c8002808c1c818c1c1c8002808d1c818d1c1c8002808e1c9c81901c9c909c1c80029c8d901c9e9d607f198f0160401b60c09190911c678000000000000000161760c19b909b1c674000000000000000169a909a1760c29990991c672000000000000000169890981760c39790971c671000000000000000169690961760c49590951c670800000000000000169490941760c59390931c670400000000000000169290921760c69190911c670200000000000000161760c79190911c670100000000000000161760c89190911c6680000000000000161760c99190911c6640000000000000161760ca9190911c6620000000000000161760cb9190911c6610000000000000161760cc9190911c6608000000000000161760cd9190911c66040000000000001617693627a301d71055774c8581026f028f6481ab7f045a5af012a19d003aa9198101608090811d906fdb2df09e81959a81455e260799a0632f8301901d600281810b9083900b14612c7457886001600160a01b0316612c5882613923565b6001600160a01b03161115612c6d5781612c6f565b805b612c76565b815b9998505050505050505050565b80820382811115610ce8576040805162461bcd60e51b815260206004820152601560248201527464732d6d6174682d7375622d756e646572666c6f7760581b604482015290519081900360640190fd5b6001600160a01b03808316600090815260166020526040808220549286168252902054612d009083612c83565b6001600160a01b038516600090815260166020526040902055612d238183612f72565b6001600160a01b03808516600081815260166020908152604080832095909555928816815260189092528282205490825291902054612d6491908385613f32565b6001600160a01b03808516600081815260186020908152604080832095909555928816815260199092528282205490825291902054612da591908385613f32565b6001600160a01b0380851660008181526019602090815260409182902094909455805186815290519193928816927fddf252ad1be2c89b69c2b068fc378daa952ba7f163c4a11628f55a4df523b3ef92918290030190a350505050565b6000612e0f8484846135f5565b905060008280612e1b57fe5b8486091115610e66576000198110612e3257600080fd5b6001019392505050565b806001600160801b0381168114612e5257600080fd5b919050565b601454604080513060248083019190915282518083039091018152604490910182526020810180516001600160e01b03166370a0823160e01b17815291518151600094859485946001600160a01b039092169391928291908083835b60208310612ed25780518252601f199092019160209182019101612eb3565b6001836020036101000a038019825116818451168082178552505050505050905001915050600060405180830381855afa9150503d8060008114612f32576040519150601f19603f3d011682016040523d82523d6000602084013e612f37565b606091505b5091509150818015612f4b57506020815110155b612f5457600080fd5b808060200190516020811015612f6957600080fd5b50519250505090565b80820182811015610ce8576040805162461bcd60e51b815260206004820152601460248201527364732d6d6174682d6164642d6f766572666c6f7760601b604482015290519081900360640190fd5b601354604080513060248083019190915282518083039091018152604490910182526020810180516001600160e01b03166370a0823160e01b17815291518151600094859485946001600160a01b0390921693919282919080838360208310612ed25780518252601f199092019160209182019101612eb3565b60408051602481018590528315156044820152600283900b60648083019190915282518083039091018152608490910182526020810180516001600160e01b0316632b8d263960e11b1781529151815160009384938493849384936001600160a01b037f0000000000000000000000000000000000000000000000000000000000000000169392918291908083835b602083106130e95780518252601f1990920191602091820191016130ca565b6001836020036101000a038019825116818451168082178552505050505050905001915050600060405180830381855af49150503d8060008114613149576040519150601f19603f3d011682016040523d82523d6000602084013e61314e565b606091505b50915091508181906131de5760405162461bcd60e51b81526004018080602001828103825283818151815260200191508051906020019080838360005b838110156131a357818101518382015260200161318b565b50505050905090810190601f1680156131d05780820380516001836020036101000a031916815260200191505b509250505060405180910390fd5b508080602001905160608110156131f457600080fd5b5080516020820151604090920151909a919950975095505050505050565b6000808215613272576000851561323a576132356103e8611632886103e5613541565b61323d565b60005b90506000851561325e576132596103e8611632886103e5613541565b613261565b60005b919691959187900393505084900390505b841561329557601354613295906001600160a01b031687611ff4886119f0612fc1565b83156132b8576014546132b8906001600160a01b031687611ff4876119f0612e57565b94509492505050565b600154604080516331056e5760e21b815290516000926001600160a01b03169163c415b95c916004808301926020929190829003018186803b15801561330657600080fd5b505afa15801561331a573d6000803e3d6000fd5b505050506040513d602081101561333057600080fd5b505190506001600160a01b0381166133a55782156133715761336d613364601554606086901b6136ba90919063ffffffff16565b601a5490612f72565b601a555b81156133a05761339c613393601554606085901b6136ba90919063ffffffff16565b601b5490612f72565b601b555b6133d3565b6013546133bc906001600160a01b031682856133d8565b6014546133d3906001600160a01b031682846133d8565b505050565b604080516001600160a01b038481166024830152604480830185905283518084039091018152606490920183526020820180516001600160e01b031663a9059cbb60e01b1781529251825160009485949389169392918291908083835b602083106134545780518252601f199092019160209182019101613435565b6001836020036101000a0380198251168184511680821785525050505050509050019150506000604051808303816000865af19150503d80600081146134b6576040519150601f19603f3d011682016040523d82523d6000602084013e6134bb565b606091505b50915091508180156134e95750805115806134e957508080602001905160208110156134e657600080fd5b50515b61353a576040805162461bcd60e51b815260206004820152601f60248201527f5472616e7366657248656c7065723a205452414e534645525f4641494c454400604482015290519081900360640190fd5b5050505050565b600081158061355c5750508082028282828161355957fe5b04145b610ce8576040805162461bcd60e51b815260206004820152601460248201527364732d6d6174682d6d756c2d6f766572666c6f7760601b604482015290519081900360640190fd5b600060038211156135e7575080600160028204015b818110156135e1578091506002818285816135d057fe5b0401816135d957fe5b0490506135b9565b50612e52565b8115612e5257506001919050565b600080806000198587098686029250828110908390030390508061362b576000841161362057600080fd5b508290049050610e66565b80841161363757600080fd5b6000848688096000868103871696879004966002600389028118808a02820302808a02820302808a02820302808a02820302808a02820302808a02909103029181900381900460010186841190950394909402919094039290920491909117919091029150509392505050565b806001600160a01b0381168114612e5257600080fd5b60008183816136c557fe5b049392505050565b6015546136da9082612f72565b6015556001600160a01b0382166000908152601660205260409020546137008183612f72565b6001600160a01b038416600090815260166020908152604080832093909355601a5460189091529190205461373791908385613f32565b6001600160a01b038416600090815260186020908152604080832093909355601b5460199091529190205461376e91908385613f32565b6001600160a01b03841660008181526019602090815260408083209490945583518681529351929391927fddf252ad1be2c89b69c2b068fc378daa952ba7f163c4a11628f55a4df523b3ef9281900390910190a3505050565b604080516001600160a01b0385811660248301528481166044830152606480830185905283518084039091018152608490920183526020820180516001600160e01b03166323b872dd60e01b178152925182516000948594938a169392918291908083835b6020831061384b5780518252601f19909201916020918201910161382c565b6001836020036101000a0380198251168184511680821785525050505050509050019150506000604051808303816000865af19150503d80600081146138ad576040519150601f19603f3d011682016040523d82523d6000602084013e6138b2565b606091505b50915091508180156138e05750805115806138e057508080602001905160208110156138dd57600080fd5b50515b61391b5760405162461bcd60e51b8152600401808060200182810382526024815260200180613f626024913960400191505060405180910390fd5b505050505050565b60008060008360020b1261393a578260020b613942565b8260020b6000035b9050620d89e8811115613980576040805162461bcd60e51b81526020600482015260016024820152601560fa1b604482015290519081900360640190fd5b60006001821661399457600160801b6139a6565b6ffffcb933bd6fad37aa2d162d1a5940015b70ffffffffffffffffffffffffffffffffff16905060028216156139da576ffff97272373d413259a46990580e213a0260801c5b60048216156139f9576ffff2e50f5f656932ef12357cf3c7fdcc0260801c5b6008821615613a18576fffe5caca7e10e4e61c3624eaa0941cd00260801c5b6010821615613a37576fffcb9843d60f6159c9db58835c9266440260801c5b6020821615613a56576fff973b41fa98c081472e6896dfb254c00260801c5b6040821615613a75576fff2ea16466c96a3843ec78b326b528610260801c5b6080821615613a94576ffe5dee046a99a2a811c461f1969c30530260801c5b610100821615613ab4576ffcbe86c7900a88aedcffc83b479aa3a40260801c5b610200821615613ad4576ff987a7253ac413176f2b074cf7815e540260801c5b610400821615613af4576ff3392b0822b70005940c7a398e4b70f30260801c5b610800821615613b14576fe7159475a2c29b7443b29c7fa6e889d90260801c5b611000821615613b34576fd097f3bdfd2022b8845ad8f792aa58250260801c5b612000821615613b54576fa9f746462d870fdf8a65dc1f90e061e50260801c5b614000821615613b74576f70d869a156d2a1b890bb3df62baf32f70260801c5b618000821615613b94576f31be135f97d08fd981231505542fcfa60260801c5b62010000821615613bb5576f09aa508b5b7a84e1c677de54f3e99bc90260801c5b62020000821615613bd5576e5d6af8dedb81196699c329225ee6040260801c5b62040000821615613bf4576d2216e584f5fa1ea926041bedfe980260801c5b62080000821615613c11576b048a170391f7dc42444e8fa20260801c5b60008460020b1315613c2c578060001981613c2857fe5b0490505b600160201b810615613c3f576001613c42565b60005b60ff16602082901c0192505050919050565b6000818310613c635781610e66565b5090919050565b6000600160ff1b8210613c7c57600080fd5b5090565b83516020808601516040808801516060890151825160028c900b60248201526001600160801b039687166044820152938616606485015290851660848401529390931660a48201526001600160a01b0386811660c483015260e4820186905261010480830186905284518084039091018152610124909201845291810180516001600160e01b0316637a3642af60e11b178152925181516000947f0000000000000000000000000000000000000000000000000000000000000000949094169382918083835b60208310613d655780518252601f199092019160209182019101613d46565b6001836020036101000a038019825116818451168082178552505050505050905001915050600060405180830381855af49150503d8060008114613dc5576040519150601f19603f3d011682016040523d82523d6000602084013e613dca565b606091505b505090508061391b57600080fd5b6001600160a01b0382166000908152601660205260408120548190613dfd9084612c83565b6001600160a01b038516600090815260166020526040902055601554613e239084612c83565b6015556040805184815290516000916001600160a01b038716917fddf252ad1be2c89b69c2b068fc378daa952ba7f163c4a11628f55a4df523b3ef9181900360200190a36001600160a01b038416600090815260186020526040902054601a54606091613e9c918691613e969190612c83565b90613541565b6001600160a01b038616600090815260196020526040902054601b549190921c9350606091613ed1918691613e969190612c83565b901c90509250929050565b600080600080600e8560020b901d9350604060088660020b901d60020b81613f0057fe5b949694079460020b600881901d946101009091079350915050565b60000b607f0190565b600160ff9091161b16151590565b6000613f58613f418484612f72565b611632613f4e8886613541565b6115ce8888613541565b9594505050505056fe5472616e7366657248656c7065723a205452414e534645525f46524f4d5f4641494c4544a264697066735822122015626ada4d5b288debd959931a9455e910970784ca46abc78f67264b507f620c64736f6c63430007060033",
			"opcodes": "PUSH1 0xA0 PUSH1 0x40 MSTORE CALLVALUE DUP1 ISZERO PUSH2 0x10 JUMPI PUSH1 0x0 DUP1 REVERT JUMPDEST POP PUSH1 0x40 MLOAD PUSH2 0x4031 CODESIZE SUB DUP1 PUSH2 0x4031 DUP4 CODECOPY DUP2 DUP2 ADD PUSH1 0x40 MSTORE PUSH1 0x20 DUP2 LT ISZERO PUSH2 0x33 JUMPI PUSH1 0x0 DUP1 REVERT JUMPDEST POP MLOAD PUSH1 0x60 DUP2 SWAP1 SHL PUSH1 0x1 PUSH1 0x1 PUSH1 0x60 SHL SUB NOT AND PUSH1 0x80 MSTORE PUSH1 0x1 PUSH1 0x1 PUSH1 0xA0 SHL SUB AND PUSH2 0x3FBB PUSH2 0x76 PUSH1 0x0 CODECOPY DUP1 PUSH2 0x264 MSTORE DUP1 PUSH2 0x209F MSTORE DUP1 PUSH2 0x30A0 MSTORE DUP1 PUSH2 0x3D1C MSTORE POP PUSH2 0x3FBB PUSH1 0x0 RETURN INVALID PUSH1 0x80 PUSH1 0x40 MSTORE CALLVALUE DUP1 ISZERO PUSH2 0x10 JUMPI PUSH1 0x0 DUP1 REVERT JUMPDEST POP PUSH1 0x4 CALLDATASIZE LT PUSH2 0x253 JUMPI PUSH1 0x0 CALLDATALOAD PUSH1 0xE0 SHR DUP1 PUSH4 0x6A627842 GT PUSH2 0x146 JUMPI DUP1 PUSH4 0x95D89B41 GT PUSH2 0xC3 JUMPI DUP1 PUSH4 0xD21220A7 GT PUSH2 0x87 JUMPI DUP1 PUSH4 0xD21220A7 EQ PUSH2 0x872 JUMPI DUP1 PUSH4 0xD8F9F12D EQ PUSH2 0x87A JUMPI DUP1 PUSH4 0xDD62ED3E EQ PUSH2 0x882 JUMPI DUP1 PUSH4 0xEF6AE4CC EQ PUSH2 0x8B0 JUMPI DUP1 PUSH4 0xF81CFA76 EQ PUSH2 0x8DF JUMPI DUP1 PUSH4 0xFCF96952 EQ PUSH2 0x905 JUMPI PUSH2 0x253 JUMP JUMPDEST DUP1 PUSH4 0x95D89B41 EQ PUSH2 0x798 JUMPI DUP1 PUSH4 0xA9059CBB EQ PUSH2 0x7A0 JUMPI DUP1 PUSH4 0xBBEA8F6A EQ PUSH2 0x7CC JUMPI DUP1 PUSH4 0xBF62F97C EQ PUSH2 0x7F8 JUMPI DUP1 PUSH4 0xCBFE3AB3 EQ PUSH2 0x826 JUMPI PUSH2 0x253 JUMP JUMPDEST DUP1 PUSH4 0x88BB52ED GT PUSH2 0x10A JUMPI DUP1 PUSH4 0x88BB52ED EQ PUSH2 0x706 JUMPI DUP1 PUSH4 0x89AFCB44 EQ PUSH2 0x734 JUMPI DUP1 PUSH4 0x8C7987B7 EQ PUSH2 0x75A JUMPI DUP1 PUSH4 0x8FBD64CB EQ PUSH2 0x762 JUMPI DUP1 PUSH4 0x9371B012 EQ PUSH2 0x76A JUMPI PUSH2 0x253 JUMP JUMPDEST DUP1 PUSH4 0x6A627842 EQ PUSH2 0x65A JUMPI DUP1 PUSH4 0x6BD97F1D EQ PUSH2 0x680 JUMPI DUP1 PUSH4 0x70A08231 EQ PUSH2 0x6AC JUMPI DUP1 PUSH4 0x7A95FFF4 EQ PUSH2 0x6D2 JUMPI DUP1 PUSH4 0x834D04AF EQ PUSH2 0x6FE JUMPI PUSH2 0x253 JUMP JUMPDEST DUP1 PUSH4 0x2A354AD9 GT PUSH2 0x1D4 JUMPI DUP1 PUSH4 0x4AF0871B GT PUSH2 0x198 JUMPI DUP1 PUSH4 0x4AF0871B EQ PUSH2 0x54B JUMPI DUP1 PUSH4 0x4D630907 EQ PUSH2 0x5A0 JUMPI DUP1 PUSH4 0x5339C296 EQ PUSH2 0x5A8 JUMPI DUP1 PUSH4 0x5A76F25E EQ PUSH2 0x5C8 JUMPI DUP1 PUSH4 0x679F0579 EQ PUSH2 0x5D0 JUMPI PUSH2 0x253 JUMP JUMPDEST DUP1 PUSH4 0x2A354AD9 EQ PUSH2 0x4E6 JUMPI DUP1 PUSH4 0x313CE567 EQ PUSH2 0x515 JUMPI DUP1 PUSH4 0x3B8A829D EQ PUSH2 0x533 JUMPI DUP1 PUSH4 0x443CB4BC EQ PUSH2 0x53B JUMPI DUP1 PUSH4 0x47FD03D9 EQ PUSH2 0x543 JUMPI PUSH2 0x253 JUMP JUMPDEST DUP1 PUSH4 0x15D44A6D GT PUSH2 0x21B JUMPI DUP1 PUSH4 0x15D44A6D EQ PUSH2 0x437 JUMPI DUP1 PUSH4 0x18160DDD EQ PUSH2 0x467 JUMPI DUP1 PUSH4 0x1A686502 EQ PUSH2 0x46F JUMPI DUP1 PUSH4 0x1B69C941 EQ PUSH2 0x477 JUMPI DUP1 PUSH4 0x23B872DD EQ PUSH2 0x4B0 JUMPI PUSH2 0x253 JUMP JUMPDEST DUP1 PUSH4 0x65E5360 EQ PUSH2 0x2FF JUMPI DUP1 PUSH4 0x6FDDE03 EQ PUSH2 0x31E JUMPI DUP1 PUSH4 0x95EA7B3 EQ PUSH2 0x39B JUMPI DUP1 PUSH4 0xC4D32ED EQ PUSH2 0x3DB JUMPI DUP1 PUSH4 0xDFE1681 EQ PUSH2 0x413 JUMPI JUMPDEST CALLER ADDRESS EQ PUSH2 0x25F JUMPI PUSH1 0x0 DUP1 REVERT JUMPDEST PUSH1 0x0 DUP1 PUSH32 0x0 PUSH1 0x1 PUSH1 0x1 PUSH1 0xA0 SHL SUB AND PUSH1 0x0 CALLDATASIZE PUSH1 0x40 MLOAD DUP1 DUP4 DUP4 DUP1 DUP3 DUP5 CALLDATACOPY PUSH1 0x40 MLOAD SWAP3 ADD SWAP5 POP PUSH1 0x0 SWAP4 POP SWAP1 SWAP2 POP POP DUP1 DUP4 SUB DUP2 DUP6 GAS DELEGATECALL SWAP2 POP POP RETURNDATASIZE DUP1 PUSH1 0x0 DUP2 EQ PUSH2 0x2DE JUMPI PUSH1 0x40 MLOAD SWAP2 POP PUSH1 0x1F NOT PUSH1 0x3F RETURNDATASIZE ADD AND DUP3 ADD PUSH1 0x40 MSTORE RETURNDATASIZE DUP3 MSTORE RETURNDATASIZE PUSH1 0x0 PUSH1 0x20 DUP5 ADD RETURNDATACOPY PUSH2 0x2E3 JUMP JUMPDEST PUSH1 0x60 SWAP2 POP JUMPDEST POP SWAP2 POP SWAP2 POP DUP2 PUSH1 0x0 DUP2 EQ PUSH2 0x2F8 JUMPI RETURNDATASIZE PUSH1 0x20 DUP4 ADD RETURN JUMPDEST RETURNDATASIZE PUSH1 0x20 DUP4 ADD REVERT JUMPDEST PUSH2 0x307 PUSH2 0x92B JUMP JUMPDEST PUSH1 0x40 DUP1 MLOAD PUSH1 0x2 SWAP3 SWAP1 SWAP3 SIGNEXTEND DUP3 MSTORE MLOAD SWAP1 DUP2 SWAP1 SUB PUSH1 0x20 ADD SWAP1 RETURN JUMPDEST PUSH2 0x326 PUSH2 0x948 JUMP JUMPDEST PUSH1 0x40 DUP1 MLOAD PUSH1 0x20 DUP1 DUP3 MSTORE DUP4 MLOAD DUP2 DUP4 ADD MSTORE DUP4 MLOAD SWAP2 SWAP3 DUP4 SWAP3 SWAP1 DUP4 ADD SWAP2 DUP6 ADD SWAP1 DUP1 DUP4 DUP4 PUSH1 0x0 JUMPDEST DUP4 DUP2 LT ISZERO PUSH2 0x360 JUMPI DUP2 DUP2 ADD MLOAD DUP4 DUP3 ADD MSTORE PUSH1 0x20 ADD PUSH2 0x348 JUMP JUMPDEST POP POP POP POP SWAP1 POP SWAP1 DUP2 ADD SWAP1 PUSH1 0x1F AND DUP1 ISZERO PUSH2 0x38D JUMPI DUP1 DUP3 SUB DUP1 MLOAD PUSH1 0x1 DUP4 PUSH1 0x20 SUB PUSH2 0x100 EXP SUB NOT AND DUP2 MSTORE PUSH1 0x20 ADD SWAP2 POP JUMPDEST POP SWAP3 POP POP POP PUSH1 0x40 MLOAD DUP1 SWAP2 SUB SWAP1 RETURN JUMPDEST PUSH2 0x3C7 PUSH1 0x4 DUP1 CALLDATASIZE SUB PUSH1 0x40 DUP2 LT ISZERO PUSH2 0x3B1 JUMPI PUSH1 0x0 DUP1 REVERT JUMPDEST POP PUSH1 0x1 PUSH1 0x1 PUSH1 0xA0 SHL SUB DUP2 CALLDATALOAD AND SWAP1 PUSH1 0x20 ADD CALLDATALOAD PUSH2 0xC87 JUMP JUMPDEST PUSH1 0x40 DUP1 MLOAD SWAP2 ISZERO ISZERO DUP3 MSTORE MLOAD SWAP1 DUP2 SWAP1 SUB PUSH1 0x20 ADD SWAP1 RETURN JUMPDEST PUSH2 0x401 PUSH1 0x4 DUP1 CALLDATASIZE SUB PUSH1 0x20 DUP2 LT ISZERO PUSH2 0x3F1 JUMPI PUSH1 0x0 DUP1 REVERT JUMPDEST POP CALLDATALOAD PUSH1 0x1 PUSH1 0x1 PUSH1 0xA0 SHL SUB AND PUSH2 0xCEE JUMP JUMPDEST PUSH1 0x40 DUP1 MLOAD SWAP2 DUP3 MSTORE MLOAD SWAP1 DUP2 SWAP1 SUB PUSH1 0x20 ADD SWAP1 RETURN JUMPDEST PUSH2 0x41B PUSH2 0xD00 JUMP JUMPDEST PUSH1 0x40 DUP1 MLOAD PUSH1 0x1 PUSH1 0x1 PUSH1 0xA0 SHL SUB SWAP1 SWAP3 AND DUP3 MSTORE MLOAD SWAP1 DUP2 SWAP1 SUB PUSH1 0x20 ADD SWAP1 RETURN JUMPDEST PUSH2 0x465 PUSH1 0x4 DUP1 CALLDATASIZE SUB PUSH1 0x40 DUP2 LT ISZERO PUSH2 0x44D JUMPI PUSH1 0x0 DUP1 REVERT JUMPDEST POP PUSH1 0x1 PUSH1 0x1 PUSH1 0xA0 SHL SUB DUP2 CALLDATALOAD DUP2 AND SWAP2 PUSH1 0x20 ADD CALLDATALOAD AND PUSH2 0xD0F JUMP JUMPDEST STOP JUMPDEST PUSH2 0x401 PUSH2 0xD60 JUMP JUMPDEST PUSH2 0x401 PUSH2 0xD66 JUMP JUMPDEST PUSH2 0x497 PUSH1 0x4 DUP1 CALLDATASIZE SUB PUSH1 0x20 DUP2 LT ISZERO PUSH2 0x48D JUMPI PUSH1 0x0 DUP1 REVERT JUMPDEST POP CALLDATALOAD PUSH1 0x2 SIGNEXTEND PUSH2 0xD6C JUMP JUMPDEST PUSH1 0x40 DUP1 MLOAD SWAP3 DUP4 MSTORE PUSH1 0x20 DUP4 ADD SWAP2 SWAP1 SWAP2 MSTORE DUP1 MLOAD SWAP2 DUP3 SWAP1 SUB ADD SWAP1 RETURN JUMPDEST PUSH2 0x3C7 PUSH1 0x4 DUP1 CALLDATASIZE SUB PUSH1 0x60 DUP2 LT ISZERO PUSH2 0x4C6 JUMPI PUSH1 0x0 DUP1 REVERT JUMPDEST POP PUSH1 0x1 PUSH1 0x1 PUSH1 0xA0 SHL SUB DUP2 CALLDATALOAD DUP2 AND SWAP2 PUSH1 0x20 DUP2 ADD CALLDATALOAD SWAP1 SWAP2 AND SWAP1 PUSH1 0x40 ADD CALLDATALOAD PUSH2 0xDD8 JUMP JUMPDEST PUSH2 0x401 PUSH1 0x4 DUP1 CALLDATASIZE SUB PUSH1 0x40 DUP2 LT ISZERO PUSH2 0x4FC JUMPI PUSH1 0x0 DUP1 REVERT JUMPDEST POP PUSH1 0x1 PUSH1 0x1 PUSH1 0xA0 SHL SUB DUP2 CALLDATALOAD AND SWAP1 PUSH1 0x20 ADD CALLDATALOAD PUSH1 0x2 SIGNEXTEND PUSH2 0xE6D JUMP JUMPDEST PUSH2 0x51D PUSH2 0xE8A JUMP JUMPDEST PUSH1 0x40 DUP1 MLOAD PUSH1 0xFF SWAP1 SWAP3 AND DUP3 MSTORE MLOAD SWAP1 DUP2 SWAP1 SUB PUSH1 0x20 ADD SWAP1 RETURN JUMPDEST PUSH2 0x401 PUSH2 0xE8F JUMP JUMPDEST PUSH2 0x401 PUSH2 0xE95 JUMP JUMPDEST PUSH2 0x41B PUSH2 0xEB6 JUMP JUMPDEST PUSH2 0x57F PUSH1 0x4 DUP1 CALLDATASIZE SUB PUSH1 0x60 DUP2 LT ISZERO PUSH2 0x561 JUMPI PUSH1 0x0 DUP1 REVERT JUMPDEST POP DUP1 CALLDATALOAD SWAP1 PUSH1 0x20 DUP2 ADD CALLDATALOAD ISZERO ISZERO SWAP1 PUSH1 0x40 ADD CALLDATALOAD PUSH1 0x1 PUSH1 0x1 PUSH1 0xA0 SHL SUB AND PUSH2 0xEC5 JUMP JUMPDEST PUSH1 0x40 DUP1 MLOAD SWAP3 DUP4 MSTORE PUSH1 0x1 PUSH1 0x1 PUSH1 0xA0 SHL SUB SWAP1 SWAP2 AND PUSH1 0x20 DUP4 ADD MSTORE DUP1 MLOAD SWAP2 DUP3 SWAP1 SUB ADD SWAP1 RETURN JUMPDEST PUSH2 0x401 PUSH2 0x10BF JUMP JUMPDEST PUSH2 0x401 PUSH1 0x4 DUP1 CALLDATASIZE SUB PUSH1 0x20 DUP2 LT ISZERO PUSH2 0x5BE JUMPI PUSH1 0x0 DUP1 REVERT JUMPDEST POP CALLDATALOAD PUSH1 0x1 SIGNEXTEND PUSH2 0x10C5 JUMP JUMPDEST PUSH2 0x401 PUSH2 0x10D7 JUMP JUMPDEST PUSH2 0x465 PUSH1 0x4 DUP1 CALLDATASIZE SUB PUSH1 0x80 DUP2 LT ISZERO PUSH2 0x5E6 JUMPI PUSH1 0x0 DUP1 REVERT JUMPDEST PUSH1 0x1 PUSH1 0x1 PUSH1 0xA0 SHL SUB DUP3 CALLDATALOAD AND SWAP2 PUSH1 0x20 DUP2 ADD CALLDATALOAD SWAP2 PUSH1 0x40 DUP3 ADD CALLDATALOAD SWAP2 SWAP1 DUP2 ADD SWAP1 PUSH1 0x80 DUP2 ADD PUSH1 0x60 DUP3 ADD CALLDATALOAD PUSH1 0x1 PUSH1 0x20 SHL DUP2 GT ISZERO PUSH2 0x61C JUMPI PUSH1 0x0 DUP1 REVERT JUMPDEST DUP3 ADD DUP4 PUSH1 0x20 DUP3 ADD GT ISZERO PUSH2 0x62E JUMPI PUSH1 0x0 DUP1 REVERT JUMPDEST DUP1 CALLDATALOAD SWAP1 PUSH1 0x20 ADD SWAP2 DUP5 PUSH1 0x1 DUP4 MUL DUP5 ADD GT PUSH1 0x1 PUSH1 0x20 SHL DUP4 GT OR ISZERO PUSH2 0x64F JUMPI PUSH1 0x0 DUP1 REVERT JUMPDEST POP SWAP1 SWAP3 POP SWAP1 POP PUSH2 0x10F7 JUMP JUMPDEST PUSH2 0x401 PUSH1 0x4 DUP1 CALLDATASIZE SUB PUSH1 0x20 DUP2 LT ISZERO PUSH2 0x670 JUMPI PUSH1 0x0 DUP1 REVERT JUMPDEST POP CALLDATALOAD PUSH1 0x1 PUSH1 0x1 PUSH1 0xA0 SHL SUB AND PUSH2 0x146C JUMP JUMPDEST PUSH2 0x497 PUSH1 0x4 DUP1 CALLDATASIZE SUB PUSH1 0x40 DUP2 LT ISZERO PUSH2 0x696 JUMPI PUSH1 0x0 DUP1 REVERT JUMPDEST POP PUSH1 0x1 PUSH1 0x1 PUSH1 0xA0 SHL SUB DUP2 CALLDATALOAD AND SWAP1 PUSH1 0x20 ADD CALLDATALOAD PUSH2 0x16BE JUMP JUMPDEST PUSH2 0x401 PUSH1 0x4 DUP1 CALLDATASIZE SUB PUSH1 0x20 DUP2 LT ISZERO PUSH2 0x6C2 JUMPI PUSH1 0x0 DUP1 REVERT JUMPDEST POP CALLDATALOAD PUSH1 0x1 PUSH1 0x1 PUSH1 0xA0 SHL SUB AND PUSH2 0x172E JUMP JUMPDEST PUSH2 0x401 PUSH1 0x4 DUP1 CALLDATASIZE SUB PUSH1 0x40 DUP2 LT ISZERO PUSH2 0x6E8 JUMPI PUSH1 0x0 DUP1 REVERT JUMPDEST POP DUP1 CALLDATALOAD SWAP1 PUSH1 0x20 ADD CALLDATALOAD PUSH1 0x1 PUSH1 0x1 PUSH1 0xA0 SHL SUB AND PUSH2 0x1740 JUMP JUMPDEST PUSH2 0x401 PUSH2 0x1792 JUMP JUMPDEST PUSH2 0x401 PUSH1 0x4 DUP1 CALLDATASIZE SUB PUSH1 0x60 DUP2 LT ISZERO PUSH2 0x71C JUMPI PUSH1 0x0 DUP1 REVERT JUMPDEST POP DUP1 CALLDATALOAD PUSH1 0x2 SIGNEXTEND SWAP1 PUSH1 0x20 DUP2 ADD CALLDATALOAD SWAP1 PUSH1 0x40 ADD CALLDATALOAD ISZERO ISZERO PUSH2 0x1798 JUMP JUMPDEST PUSH2 0x497 PUSH1 0x4 DUP1 CALLDATASIZE SUB PUSH1 0x20 DUP2 LT ISZERO PUSH2 0x74A JUMPI PUSH1 0x0 DUP1 REVERT JUMPDEST POP CALLDATALOAD PUSH1 0x1 PUSH1 0x1 PUSH1 0xA0 SHL SUB AND PUSH2 0x1EA7 JUMP JUMPDEST PUSH2 0x41B PUSH2 0x209D JUMP JUMPDEST PUSH2 0x401 PUSH2 0x20C1 JUMP JUMPDEST PUSH2 0x497 PUSH1 0x4 DUP1 CALLDATASIZE SUB PUSH1 0x60 DUP2 LT ISZERO PUSH2 0x780 JUMPI PUSH1 0x0 DUP1 REVERT JUMPDEST POP DUP1 CALLDATALOAD PUSH1 0x2 SIGNEXTEND SWAP1 PUSH1 0x20 DUP2 ADD CALLDATALOAD SWAP1 PUSH1 0x40 ADD CALLDATALOAD ISZERO ISZERO PUSH2 0x20C7 JUMP JUMPDEST PUSH2 0x326 PUSH2 0x21DE JUMP JUMPDEST PUSH2 0x3C7 PUSH1 0x4 DUP1 CALLDATASIZE SUB PUSH1 0x40 DUP2 LT ISZERO PUSH2 0x7B6 JUMPI PUSH1 0x0 DUP1 REVERT JUMPDEST POP PUSH1 0x1 PUSH1 0x1 PUSH1 0xA0 SHL SUB DUP2 CALLDATALOAD AND SWAP1 PUSH1 0x20 ADD CALLDATALOAD PUSH2 0x21E8 JUMP JUMPDEST PUSH2 0x401 PUSH1 0x4 DUP1 CALLDATASIZE SUB PUSH1 0x40 DUP2 LT ISZERO PUSH2 0x7E2 JUMPI PUSH1 0x0 DUP1 REVERT JUMPDEST POP DUP1 CALLDATALOAD SWAP1 PUSH1 0x20 ADD CALLDATALOAD PUSH1 0x1 PUSH1 0x1 PUSH1 0xA0 SHL SUB AND PUSH2 0x2208 JUMP JUMPDEST PUSH2 0x497 PUSH1 0x4 DUP1 CALLDATASIZE SUB PUSH1 0x60 DUP2 LT ISZERO PUSH2 0x80E JUMPI PUSH1 0x0 DUP1 REVERT JUMPDEST POP DUP1 CALLDATALOAD PUSH1 0x2 SIGNEXTEND SWAP1 PUSH1 0x20 DUP2 ADD CALLDATALOAD SWAP1 PUSH1 0x40 ADD CALLDATALOAD ISZERO ISZERO PUSH2 0x2261 JUMP JUMPDEST PUSH2 0x84B PUSH1 0x4 DUP1 CALLDATASIZE SUB PUSH1 0x40 DUP2 LT ISZERO PUSH2 0x83C JUMPI PUSH1 0x0 DUP1 REVERT JUMPDEST POP DUP1 CALLDATALOAD SWAP1 PUSH1 0x20 ADD CALLDATALOAD ISZERO ISZERO PUSH2 0x271D JUMP JUMPDEST PUSH1 0x40 DUP1 MLOAD SWAP4 DUP5 MSTORE PUSH1 0x20 DUP5 ADD SWAP3 SWAP1 SWAP3 MSTORE PUSH1 0x1 PUSH1 0x1 PUSH1 0xA0 SHL SUB AND DUP3 DUP3 ADD MSTORE MLOAD SWAP1 DUP2 SWAP1 SUB PUSH1 0x60 ADD SWAP1 RETURN JUMPDEST PUSH2 0x41B PUSH2 0x2821 JUMP JUMPDEST PUSH2 0x497 PUSH2 0x2830 JUMP JUMPDEST PUSH2 0x401 PUSH1 0x4 DUP1 CALLDATASIZE SUB PUSH1 0x40 DUP2 LT ISZERO PUSH2 0x898 JUMPI PUSH1 0x0 DUP1 REVERT JUMPDEST POP PUSH1 0x1 PUSH1 0x1 PUSH1 0xA0 SHL SUB DUP2 CALLDATALOAD DUP2 AND SWAP2 PUSH1 0x20 ADD CALLDATALOAD AND PUSH2 0x2847 JUMP JUMPDEST PUSH2 0x401 PUSH1 0x4 DUP1 CALLDATASIZE SUB PUSH1 0x40 DUP2 LT ISZERO PUSH2 0x8C6 JUMPI PUSH1 0x0 DUP1 REVERT JUMPDEST POP PUSH1 0x1 PUSH1 0x1 PUSH1 0xA0 SHL SUB DUP2 CALLDATALOAD AND SWAP1 PUSH1 0x20 ADD CALLDATALOAD PUSH1 0x2 SIGNEXTEND PUSH2 0x2864 JUMP JUMPDEST PUSH2 0x3C7 PUSH1 0x4 DUP1 CALLDATASIZE SUB PUSH1 0x40 DUP2 LT ISZERO PUSH2 0x8F5 JUMPI PUSH1 0x0 DUP1 REVERT JUMPDEST POP DUP1 CALLDATALOAD PUSH1 0x2 SIGNEXTEND SWAP1 PUSH1 0x20 ADD CALLDATALOAD PUSH2 0x2881 JUMP JUMPDEST PUSH2 0x401 PUSH1 0x4 DUP1 CALLDATASIZE SUB PUSH1 0x20 DUP2 LT ISZERO PUSH2 0x91B JUMPI PUSH1 0x0 DUP1 REVERT JUMPDEST POP CALLDATALOAD PUSH1 0x1 PUSH1 0x1 PUSH1 0xA0 SHL SUB AND PUSH2 0x2952 JUMP JUMPDEST PUSH1 0x2 SLOAD PUSH1 0x0 SWAP1 PUSH2 0x943 SWAP1 PUSH1 0x1 PUSH1 0x1 PUSH1 0xA0 SHL SUB AND PUSH2 0x2964 JUMP JUMPDEST SWAP1 POP SWAP1 JUMP JUMPDEST PUSH1 0x13 SLOAD PUSH1 0x40 DUP1 MLOAD PUSH4 0x6FDDE03 PUSH1 0xE0 SHL DUP2 MSTORE SWAP1 MLOAD PUSH1 0x60 SWAP3 PUSH1 0x1 PUSH1 0x1 PUSH1 0xA0 SHL SUB AND SWAP2 PUSH4 0x6FDDE03 SWAP2 PUSH1 0x4 DUP1 DUP4 ADD SWAP3 PUSH1 0x0 SWAP3 SWAP2 SWAP1 DUP3 SWAP1 SUB ADD DUP2 DUP7 DUP1 EXTCODESIZE ISZERO DUP1 ISZERO PUSH2 0x98D JUMPI PUSH1 0x0 DUP1 REVERT JUMPDEST POP GAS STATICCALL ISZERO DUP1 ISZERO PUSH2 0x9A1 JUMPI RETURNDATASIZE PUSH1 0x0 DUP1 RETURNDATACOPY RETURNDATASIZE PUSH1 0x0 REVERT JUMPDEST POP POP POP POP PUSH1 0x40 MLOAD RETURNDATASIZE PUSH1 0x0 DUP3 RETURNDATACOPY PUSH1 0x1F RETURNDATASIZE SWAP1 DUP2 ADD PUSH1 0x1F NOT AND DUP3 ADD PUSH1 0x40 MSTORE PUSH1 0x20 DUP2 LT ISZERO PUSH2 0x9CA JUMPI PUSH1 0x0 DUP1 REVERT JUMPDEST DUP2 ADD SWAP1 DUP1 DUP1 MLOAD PUSH1 0x40 MLOAD SWAP4 SWAP3 SWAP2 SWAP1 DUP5 PUSH1 0x1 PUSH1 0x20 SHL DUP3 GT ISZERO PUSH2 0x9E9 JUMPI PUSH1 0x0 DUP1 REVERT JUMPDEST SWAP1 DUP4 ADD SWAP1 PUSH1 0x20 DUP3 ADD DUP6 DUP2 GT ISZERO PUSH2 0x9FE JUMPI PUSH1 0x0 DUP1 REVERT JUMPDEST DUP3 MLOAD PUSH1 0x1 PUSH1 0x20 SHL DUP2 GT DUP3 DUP3 ADD DUP9 LT OR ISZERO PUSH2 0xA17 JUMPI PUSH1 0x0 DUP1 REVERT JUMPDEST DUP3 MSTORE POP DUP2 MLOAD PUSH1 0x20 SWAP2 DUP3 ADD SWAP3 SWAP1 SWAP2 ADD SWAP1 DUP1 DUP4 DUP4 PUSH1 0x0 JUMPDEST DUP4 DUP2 LT ISZERO PUSH2 0xA44 JUMPI DUP2 DUP2 ADD MLOAD DUP4 DUP3 ADD MSTORE PUSH1 0x20 ADD PUSH2 0xA2C JUMP JUMPDEST POP POP POP POP SWAP1 POP SWAP1 DUP2 ADD SWAP1 PUSH1 0x1F AND DUP1 ISZERO PUSH2 0xA71 JUMPI DUP1 DUP3 SUB DUP1 MLOAD PUSH1 0x1 DUP4 PUSH1 0x20 SUB PUSH2 0x100 EXP SUB NOT AND DUP2 MSTORE PUSH1 0x20 ADD SWAP2 POP JUMPDEST POP PUSH1 0x40 DUP2 DUP2 MSTORE PUSH1 0x14 SLOAD PUSH4 0x6FDDE03 PUSH1 0xE0 SHL DUP4 MSTORE SWAP1 MLOAD PUSH1 0x1 PUSH1 0x1 PUSH1 0xA0 SHL SUB SWAP1 SWAP2 AND SWAP5 POP PUSH4 0x6FDDE03 SWAP4 POP PUSH1 0x4 DUP1 DUP4 ADD SWAP4 POP PUSH1 0x0 SWAP3 DUP3 SWAP1 SUB ADD DUP2 DUP7 DUP1 EXTCODESIZE ISZERO DUP1 ISZERO PUSH2 0xAB8 JUMPI PUSH1 0x0 DUP1 REVERT JUMPDEST POP GAS STATICCALL ISZERO DUP1 ISZERO PUSH2 0xACC JUMPI RETURNDATASIZE PUSH1 0x0 DUP1 RETURNDATACOPY RETURNDATASIZE PUSH1 0x0 REVERT JUMPDEST POP POP POP POP PUSH1 0x40 MLOAD RETURNDATASIZE PUSH1 0x0 DUP3 RETURNDATACOPY PUSH1 0x1F RETURNDATASIZE SWAP1 DUP2 ADD PUSH1 0x1F NOT AND DUP3 ADD PUSH1 0x40 MSTORE PUSH1 0x20 DUP2 LT ISZERO PUSH2 0xAF5 JUMPI PUSH1 0x0 DUP1 REVERT JUMPDEST DUP2 ADD SWAP1 DUP1 DUP1 MLOAD PUSH1 0x40 MLOAD SWAP4 SWAP3 SWAP2 SWAP1 DUP5 PUSH1 0x1 PUSH1 0x20 SHL DUP3 GT ISZERO PUSH2 0xB14 JUMPI PUSH1 0x0 DUP1 REVERT JUMPDEST SWAP1 DUP4 ADD SWAP1 PUSH1 0x20 DUP3 ADD DUP6 DUP2 GT ISZERO PUSH2 0xB29 JUMPI PUSH1 0x0 DUP1 REVERT JUMPDEST DUP3 MLOAD PUSH1 0x1 PUSH1 0x20 SHL DUP2 GT DUP3 DUP3 ADD DUP9 LT OR ISZERO PUSH2 0xB42 JUMPI PUSH1 0x0 DUP1 REVERT JUMPDEST DUP3 MSTORE POP DUP2 MLOAD PUSH1 0x20 SWAP2 DUP3 ADD SWAP3 SWAP1 SWAP2 ADD SWAP1 DUP1 DUP4 DUP4 PUSH1 0x0 JUMPDEST DUP4 DUP2 LT ISZERO PUSH2 0xB6F JUMPI DUP2 DUP2 ADD MLOAD DUP4 DUP3 ADD MSTORE PUSH1 0x20 ADD PUSH2 0xB57 JUMP JUMPDEST POP POP POP POP SWAP1 POP SWAP1 DUP2 ADD SWAP1 PUSH1 0x1F AND DUP1 ISZERO PUSH2 0xB9C JUMPI DUP1 DUP3 SUB DUP1 MLOAD PUSH1 0x1 DUP4 PUSH1 0x20 SUB PUSH2 0x100 EXP SUB NOT AND DUP2 MSTORE PUSH1 0x20 ADD SWAP2 POP JUMPDEST POP PUSH1 0x40 MSTORE POP POP POP PUSH1 0x40 MLOAD PUSH1 0x20 ADD DUP1 DUP1 PUSH20 0x2634B6B4BA29BBB0B8102628102A37B5B2B71D1 PUSH1 0x65 SHL DUP2 MSTORE POP PUSH1 0x14 ADD DUP4 DUP1 MLOAD SWAP1 PUSH1 0x20 ADD SWAP1 DUP1 DUP4 DUP4 JUMPDEST PUSH1 0x20 DUP4 LT PUSH2 0xBF4 JUMPI DUP1 MLOAD DUP3 MSTORE PUSH1 0x1F NOT SWAP1 SWAP3 ADD SWAP2 PUSH1 0x20 SWAP2 DUP3 ADD SWAP2 ADD PUSH2 0xBD5 JUMP JUMPDEST PUSH1 0x1 DUP4 PUSH1 0x20 SUB PUSH2 0x100 EXP SUB DUP1 NOT DUP3 MLOAD AND DUP2 DUP5 MLOAD AND DUP1 DUP3 OR DUP6 MSTORE POP POP POP POP POP POP SWAP1 POP ADD DUP1 PUSH1 0x2F PUSH1 0xF8 SHL DUP2 MSTORE POP PUSH1 0x1 ADD DUP3 DUP1 MLOAD SWAP1 PUSH1 0x20 ADD SWAP1 DUP1 DUP4 DUP4 JUMPDEST PUSH1 0x20 DUP4 LT PUSH2 0xC4D JUMPI DUP1 MLOAD DUP3 MSTORE PUSH1 0x1F NOT SWAP1 SWAP3 ADD SWAP2 PUSH1 0x20 SWAP2 DUP3 ADD SWAP2 ADD PUSH2 0xC2E JUMP JUMPDEST PUSH1 0x1 DUP4 PUSH1 0x20 SUB PUSH2 0x100 EXP SUB DUP1 NOT DUP3 MLOAD AND DUP2 DUP5 MLOAD AND DUP1 DUP3 OR DUP6 MSTORE POP POP POP POP POP POP SWAP1 POP ADD SWAP3 POP POP POP PUSH1 0x40 MLOAD PUSH1 0x20 DUP2 DUP4 SUB SUB DUP2 MSTORE SWAP1 PUSH1 0x40 MSTORE SWAP1 POP SWAP1 JUMP JUMPDEST CALLER PUSH1 0x0 DUP2 DUP2 MSTORE PUSH1 0x17 PUSH1 0x20 SWAP1 DUP2 MSTORE PUSH1 0x40 DUP1 DUP4 KECCAK256 PUSH1 0x1 PUSH1 0x1 PUSH1 0xA0 SHL SUB DUP8 AND DUP1 DUP6 MSTORE SWAP1 DUP4 MSTORE DUP2 DUP5 KECCAK256 DUP7 SWAP1 SSTORE DUP2 MLOAD DUP7 DUP2 MSTORE SWAP2 MLOAD SWAP4 SWAP5 SWAP1 SWAP4 SWAP1 SWAP3 PUSH32 0x8C5BE1E5EBEC7D5BD14F71427D1E84F3DD0314C0F7B2291E5B200AC8C7C3B925 SWAP3 DUP3 SWAP1 SUB ADD SWAP1 LOG3 POP PUSH1 0x1 JUMPDEST SWAP3 SWAP2 POP POP JUMP JUMPDEST PUSH1 0x18 PUSH1 0x20 MSTORE PUSH1 0x0 SWAP1 DUP2 MSTORE PUSH1 0x40 SWAP1 KECCAK256 SLOAD DUP2 JUMP JUMPDEST PUSH1 0x13 SLOAD PUSH1 0x1 PUSH1 0x1 PUSH1 0xA0 SHL SUB AND DUP2 JUMP JUMPDEST PUSH1 0x13 SLOAD PUSH1 0x1 PUSH1 0x1 PUSH1 0xA0 SHL SUB AND ISZERO PUSH2 0xD25 JUMPI PUSH1 0x0 DUP1 REVERT JUMPDEST PUSH1 0x13 DUP1 SLOAD PUSH1 0x1 PUSH1 0x1 PUSH1 0xA0 SHL SUB SWAP4 DUP5 AND PUSH1 0x1 PUSH1 0x1 PUSH1 0xA0 SHL SUB NOT SWAP2 DUP3 AND OR SWAP1 SWAP2 SSTORE PUSH1 0x14 DUP1 SLOAD SWAP3 SWAP1 SWAP4 AND SWAP2 AND OR SWAP1 SSTORE PUSH1 0x1C DUP1 SLOAD PUSH1 0xFF NOT AND PUSH1 0x1 OR SWAP1 SSTORE JUMP JUMPDEST PUSH1 0x15 SLOAD DUP2 JUMP JUMPDEST PUSH1 0x3 SLOAD DUP2 JUMP JUMPDEST PUSH1 0x0 DUP1 PUSH2 0xD7A DUP4 PUSH1 0x0 PUSH2 0x2881 JUMP JUMPDEST PUSH2 0xDA3 JUMPI PUSH1 0x2 DUP4 DUP2 SIGNEXTEND SWAP1 SIGNEXTEND PUSH1 0x0 SWAP1 DUP2 MSTORE PUSH1 0xB PUSH1 0x20 MSTORE PUSH1 0x40 SWAP1 KECCAK256 PUSH1 0x1 ADD SLOAD PUSH1 0x1 PUSH1 0x1 PUSH1 0x80 SHL SUB AND SWAP2 POP JUMPDEST PUSH2 0xDAE DUP4 PUSH1 0x1 PUSH2 0x2881 JUMP JUMPDEST PUSH2 0xDD3 JUMPI POP PUSH1 0x2 DUP3 DUP2 SIGNEXTEND SWAP1 SIGNEXTEND PUSH1 0x0 SWAP1 DUP2 MSTORE PUSH1 0xB PUSH1 0x20 MSTORE PUSH1 0x40 SWAP1 KECCAK256 SLOAD PUSH1 0x1 PUSH1 0x1 PUSH1 0x80 SHL SUB AND JUMPDEST SWAP2 POP SWAP2 JUMP JUMPDEST PUSH1 0x1 PUSH1 0x1 PUSH1 0xA0 SHL SUB DUP4 AND PUSH1 0x0 SWAP1 DUP2 MSTORE PUSH1 0x17 PUSH1 0x20 SWAP1 DUP2 MSTORE PUSH1 0x40 DUP1 DUP4 KECCAK256 CALLER DUP5 MSTORE SWAP1 SWAP2 MSTORE DUP2 KECCAK256 SLOAD PUSH1 0x0 NOT EQ PUSH2 0xE57 JUMPI PUSH1 0x1 PUSH1 0x1 PUSH1 0xA0 SHL SUB DUP5 AND PUSH1 0x0 SWAP1 DUP2 MSTORE PUSH1 0x17 PUSH1 0x20 SWAP1 DUP2 MSTORE PUSH1 0x40 DUP1 DUP4 KECCAK256 CALLER DUP5 MSTORE SWAP1 SWAP2 MSTORE SWAP1 KECCAK256 SLOAD PUSH2 0xE32 SWAP1 DUP4 PUSH2 0x2C83 JUMP JUMPDEST PUSH1 0x1 PUSH1 0x1 PUSH1 0xA0 SHL SUB DUP6 AND PUSH1 0x0 SWAP1 DUP2 MSTORE PUSH1 0x17 PUSH1 0x20 SWAP1 DUP2 MSTORE PUSH1 0x40 DUP1 DUP4 KECCAK256 CALLER DUP5 MSTORE SWAP1 SWAP2 MSTORE SWAP1 KECCAK256 SSTORE JUMPDEST PUSH2 0xE62 DUP5 DUP5 DUP5 PUSH2 0x2CD3 JUMP JUMPDEST POP PUSH1 0x1 JUMPDEST SWAP4 SWAP3 POP POP POP JUMP JUMPDEST PUSH1 0xC PUSH1 0x20 SWAP1 DUP2 MSTORE PUSH1 0x0 SWAP3 DUP4 MSTORE PUSH1 0x40 DUP1 DUP5 KECCAK256 SWAP1 SWAP2 MSTORE SWAP1 DUP3 MSTORE SWAP1 KECCAK256 SLOAD DUP2 JUMP JUMPDEST PUSH1 0x12 DUP2 JUMP JUMPDEST PUSH1 0x1B SLOAD DUP2 JUMP JUMPDEST PUSH1 0x3 SLOAD PUSH1 0x2 SLOAD PUSH1 0x0 SWAP2 PUSH2 0x943 SWAP2 PUSH1 0x1 PUSH1 0x60 SHL SWAP1 PUSH1 0x1 PUSH1 0x1 PUSH1 0xA0 SHL SUB AND PUSH2 0x2E02 JUMP JUMPDEST PUSH1 0x2 SLOAD PUSH1 0x1 PUSH1 0x1 PUSH1 0xA0 SHL SUB AND DUP2 JUMP JUMPDEST PUSH1 0x1C SLOAD PUSH1 0x0 SWAP1 DUP2 SWAP1 PUSH1 0xFF AND PUSH2 0xF07 JUMPI PUSH1 0x40 DUP1 MLOAD PUSH3 0x461BCD PUSH1 0xE5 SHL DUP2 MSTORE PUSH1 0x20 PUSH1 0x4 DUP3 ADD MSTORE PUSH1 0x3 PUSH1 0x24 DUP3 ADD MSTORE PUSH3 0x4C4F4B PUSH1 0xE8 SHL PUSH1 0x44 DUP3 ADD MSTORE SWAP1 MLOAD SWAP1 DUP2 SWAP1 SUB PUSH1 0x64 ADD SWAP1 REVERT JUMPDEST PUSH1 0x1C DUP1 SLOAD PUSH1 0xFF NOT AND SWAP1 SSTORE PUSH1 0x2 SLOAD PUSH1 0x1 PUSH1 0x1 PUSH1 0xA0 SHL SUB AND PUSH2 0xF26 JUMPI PUSH1 0x0 DUP1 REVERT JUMPDEST PUSH2 0xF2F DUP6 PUSH2 0x2E3C JUMP JUMPDEST POP DUP4 ISZERO PUSH2 0xF5B JUMPI PUSH2 0xF3E PUSH2 0x2E57 JUMP JUMPDEST PUSH1 0x1E SLOAD PUSH2 0xF4B SWAP1 DUP8 PUSH2 0x2F72 JUMP JUMPDEST GT ISZERO PUSH2 0xF56 JUMPI PUSH1 0x0 DUP1 REVERT JUMPDEST PUSH2 0xF7B JUMP JUMPDEST PUSH2 0xF63 PUSH2 0x2FC1 JUMP JUMPDEST PUSH1 0x1D SLOAD PUSH2 0xF70 SWAP1 DUP8 PUSH2 0x2F72 JUMP JUMPDEST GT ISZERO PUSH2 0xF7B JUMPI PUSH1 0x0 DUP1 REVERT JUMPDEST PUSH2 0xF99 DUP6 DUP6 DUP7 PUSH2 0xF8F JUMPI PUSH3 0x7FFFFE NOT PUSH2 0xF94 JUMP JUMPDEST PUSH3 0x7FFFFF JUMPDEST PUSH2 0x303B JUMP JUMPDEST SWAP1 SWAP4 POP SWAP2 POP PUSH1 0x0 SWAP1 POP DUP5 PUSH2 0xFAE JUMPI PUSH1 0x0 PUSH2 0xFB0 JUMP JUMPDEST DUP3 JUMPDEST SWAP1 POP PUSH1 0x0 DUP6 PUSH2 0xFBF JUMPI DUP4 PUSH2 0xFC2 JUMP JUMPDEST PUSH1 0x0 JUMPDEST SWAP1 POP PUSH1 0x0 DUP1 PUSH2 0xFD4 DUP8 DUP6 DUP6 PUSH1 0x1 PUSH2 0x3212 JUMP JUMPDEST SWAP2 POP SWAP2 POP PUSH2 0xFE2 DUP3 DUP3 PUSH2 0x32C1 JUMP JUMPDEST CALLER PUSH32 0xB029EC0911DFD170DBC1992B48561B88A491EE3E92F0D20DC4FED6851E5125AF DUP10 PUSH2 0x1017 JUMPI PUSH2 0x1012 DUP12 PUSH2 0x2E3C JUMP JUMPDEST PUSH2 0x101A JUMP JUMPDEST PUSH1 0x0 JUMPDEST DUP11 PUSH2 0x1026 JUMPI PUSH1 0x0 PUSH2 0x102F JUMP JUMPDEST PUSH2 0x102F DUP13 PUSH2 0x2E3C JUMP JUMPDEST PUSH2 0x103A DUP7 DUP10 SUB PUSH2 0x2E3C JUMP JUMPDEST PUSH2 0x1045 DUP7 DUP10 SUB PUSH2 0x2E3C JUMP JUMPDEST PUSH1 0x40 DUP1 MLOAD PUSH1 0x1 PUSH1 0x1 PUSH1 0x80 SHL SUB SWAP6 DUP7 AND DUP2 MSTORE SWAP4 DUP6 AND PUSH1 0x20 DUP6 ADD MSTORE SWAP2 DUP5 AND DUP4 DUP4 ADD MSTORE SWAP1 SWAP3 AND PUSH1 0x60 DUP3 ADD MSTORE SWAP1 MLOAD SWAP1 DUP2 SWAP1 SUB PUSH1 0x80 ADD SWAP1 LOG2 PUSH1 0x0 DUP3 GT PUSH2 0x1088 JUMPI DUP1 DUP7 SUB PUSH2 0x108C JUMP JUMPDEST DUP2 DUP7 SUB JUMPDEST SWAP6 POP PUSH2 0x1096 PUSH2 0x2FC1 JUMP JUMPDEST PUSH1 0x1D SSTORE PUSH2 0x10A1 PUSH2 0x2E57 JUMP JUMPDEST PUSH1 0x1E SSTORE POP POP PUSH1 0x1C DUP1 SLOAD PUSH1 0xFF NOT AND PUSH1 0x1 OR SWAP1 SSTORE POP SWAP2 SWAP6 SWAP1 SWAP5 POP SWAP3 POP POP POP JUMP JUMPDEST PUSH1 0x1D SLOAD DUP2 JUMP JUMPDEST PUSH1 0x12 PUSH1 0x20 MSTORE PUSH1 0x0 SWAP1 DUP2 MSTORE PUSH1 0x40 SWAP1 KECCAK256 SLOAD DUP2 JUMP JUMPDEST PUSH1 0x3 SLOAD PUSH1 0x2 SLOAD PUSH1 0x0 SWAP2 PUSH2 0x943 SWAP2 PUSH1 0x1 PUSH1 0x1 PUSH1 0xA0 SHL SUB AND PUSH1 0x1 PUSH1 0x60 SHL PUSH2 0x2E02 JUMP JUMPDEST PUSH1 0x1C SLOAD PUSH1 0xFF AND PUSH2 0x1134 JUMPI PUSH1 0x40 DUP1 MLOAD PUSH3 0x461BCD PUSH1 0xE5 SHL DUP2 MSTORE PUSH1 0x20 PUSH1 0x4 DUP3 ADD MSTORE PUSH1 0x3 PUSH1 0x24 DUP3 ADD MSTORE PUSH3 0x4C4F4B PUSH1 0xE8 SHL PUSH1 0x44 DUP3 ADD MSTORE SWAP1 MLOAD SWAP1 DUP2 SWAP1 SUB PUSH1 0x64 ADD SWAP1 REVERT JUMPDEST PUSH1 0x1C DUP1 SLOAD PUSH1 0xFF NOT AND SWAP1 SSTORE PUSH1 0x0 PUSH2 0x114E DUP6 PUSH1 0x3 PUSH2 0x3E8 PUSH2 0x2E02 JUMP JUMPDEST SWAP1 POP PUSH1 0x0 PUSH2 0x1160 DUP6 PUSH1 0x3 PUSH2 0x3E8 PUSH2 0x2E02 JUMP JUMPDEST SWAP1 POP PUSH1 0x0 PUSH2 0x116C PUSH2 0x2FC1 JUMP JUMPDEST SWAP1 POP PUSH1 0x0 PUSH2 0x1178 PUSH2 0x2E57 JUMP JUMPDEST PUSH1 0x1 SLOAD PUSH1 0x40 DUP1 MLOAD PUSH4 0x931A3227 PUSH1 0xE0 SHL DUP2 MSTORE CALLER PUSH1 0x4 DUP3 ADD MSTORE SWAP1 MLOAD SWAP3 SWAP4 POP PUSH1 0x1 PUSH1 0x1 PUSH1 0xA0 SHL SUB SWAP1 SWAP2 AND SWAP2 PUSH4 0x931A3227 SWAP2 PUSH1 0x24 DUP1 DUP3 ADD SWAP3 PUSH1 0x20 SWAP3 SWAP1 SWAP2 SWAP1 DUP3 SWAP1 SUB ADD DUP2 DUP7 DUP1 EXTCODESIZE ISZERO DUP1 ISZERO PUSH2 0x11C6 JUMPI PUSH1 0x0 DUP1 REVERT JUMPDEST POP GAS STATICCALL ISZERO DUP1 ISZERO PUSH2 0x11DA JUMPI RETURNDATASIZE PUSH1 0x0 DUP1 RETURNDATACOPY RETURNDATASIZE PUSH1 0x0 REVERT JUMPDEST POP POP POP POP PUSH1 0x40 MLOAD RETURNDATASIZE PUSH1 0x20 DUP2 LT ISZERO PUSH2 0x11F0 JUMPI PUSH1 0x0 DUP1 REVERT JUMPDEST POP MLOAD ISZERO PUSH2 0x11FC JUMPI PUSH1 0x0 DUP1 REVERT JUMPDEST DUP8 ISZERO PUSH2 0x129F JUMPI PUSH1 0x1 SLOAD PUSH1 0x13 SLOAD PUSH1 0x40 DUP1 MLOAD PUSH4 0x3C4D60EB PUSH1 0xE1 SHL DUP2 MSTORE PUSH1 0x1 PUSH1 0x1 PUSH1 0xA0 SHL SUB SWAP3 DUP4 AND PUSH1 0x4 DUP3 ADD MSTORE SWAP1 MLOAD SWAP2 SWAP1 SWAP3 AND SWAP2 PUSH4 0x789AC1D6 SWAP2 PUSH1 0x24 DUP1 DUP4 ADD SWAP3 PUSH1 0x20 SWAP3 SWAP2 SWAP1 DUP3 SWAP1 SUB ADD DUP2 DUP7 DUP1 EXTCODESIZE ISZERO DUP1 ISZERO PUSH2 0x1252 JUMPI PUSH1 0x0 DUP1 REVERT JUMPDEST POP GAS STATICCALL ISZERO DUP1 ISZERO PUSH2 0x1266 JUMPI RETURNDATASIZE PUSH1 0x0 DUP1 RETURNDATACOPY RETURNDATASIZE PUSH1 0x0 REVERT JUMPDEST POP POP POP POP PUSH1 0x40 MLOAD RETURNDATASIZE PUSH1 0x20 DUP2 LT ISZERO PUSH2 0x127C JUMPI PUSH1 0x0 DUP1 REVERT JUMPDEST POP MLOAD ISZERO PUSH2 0x1288 JUMPI PUSH1 0x0 DUP1 REVERT JUMPDEST PUSH1 0x13 SLOAD PUSH2 0x129F SWAP1 PUSH1 0x1 PUSH1 0x1 PUSH1 0xA0 SHL SUB AND DUP11 DUP11 PUSH2 0x33D8 JUMP JUMPDEST DUP7 ISZERO PUSH2 0x1342 JUMPI PUSH1 0x1 SLOAD PUSH1 0x14 SLOAD PUSH1 0x40 DUP1 MLOAD PUSH4 0x3C4D60EB PUSH1 0xE1 SHL DUP2 MSTORE PUSH1 0x1 PUSH1 0x1 PUSH1 0xA0 SHL SUB SWAP3 DUP4 AND PUSH1 0x4 DUP3 ADD MSTORE SWAP1 MLOAD SWAP2 SWAP1 SWAP3 AND SWAP2 PUSH4 0x789AC1D6 SWAP2 PUSH1 0x24 DUP1 DUP4 ADD SWAP3 PUSH1 0x20 SWAP3 SWAP2 SWAP1 DUP3 SWAP1 SUB ADD DUP2 DUP7 DUP1 EXTCODESIZE ISZERO DUP1 ISZERO PUSH2 0x12F5 JUMPI PUSH1 0x0 DUP1 REVERT JUMPDEST POP GAS STATICCALL ISZERO DUP1 ISZERO PUSH2 0x1309 JUMPI RETURNDATASIZE PUSH1 0x0 DUP1 RETURNDATACOPY RETURNDATASIZE PUSH1 0x0 REVERT JUMPDEST POP POP POP POP PUSH1 0x40 MLOAD RETURNDATASIZE PUSH1 0x20 DUP2 LT ISZERO PUSH2 0x131F JUMPI PUSH1 0x0 DUP1 REVERT JUMPDEST POP MLOAD ISZERO PUSH2 0x132B JUMPI PUSH1 0x0 DUP1 REVERT JUMPDEST PUSH1 0x14 SLOAD PUSH2 0x1342 SWAP1 PUSH1 0x1 PUSH1 0x1 PUSH1 0xA0 SHL SUB AND DUP11 DUP10 PUSH2 0x33D8 JUMP JUMPDEST CALLER PUSH1 0x1 PUSH1 0x1 PUSH1 0xA0 SHL SUB AND PUSH4 0x97B90FB DUP6 DUP6 DUP10 DUP10 PUSH1 0x40 MLOAD DUP6 PUSH4 0xFFFFFFFF AND PUSH1 0xE0 SHL DUP2 MSTORE PUSH1 0x4 ADD DUP1 DUP6 DUP2 MSTORE PUSH1 0x20 ADD DUP5 DUP2 MSTORE PUSH1 0x20 ADD DUP1 PUSH1 0x20 ADD DUP3 DUP2 SUB DUP3 MSTORE DUP5 DUP5 DUP3 DUP2 DUP2 MSTORE PUSH1 0x20 ADD SWAP3 POP DUP1 DUP3 DUP5 CALLDATACOPY PUSH1 0x0 DUP2 DUP5 ADD MSTORE PUSH1 0x1F NOT PUSH1 0x1F DUP3 ADD AND SWAP1 POP DUP1 DUP4 ADD SWAP3 POP POP POP SWAP6 POP POP POP POP POP POP PUSH1 0x0 PUSH1 0x40 MLOAD DUP1 DUP4 SUB DUP2 PUSH1 0x0 DUP8 DUP1 EXTCODESIZE ISZERO DUP1 ISZERO PUSH2 0x13C4 JUMPI PUSH1 0x0 DUP1 REVERT JUMPDEST POP GAS CALL ISZERO DUP1 ISZERO PUSH2 0x13D8 JUMPI RETURNDATASIZE PUSH1 0x0 DUP1 RETURNDATACOPY RETURNDATASIZE PUSH1 0x0 REVERT JUMPDEST POP POP POP POP PUSH1 0x0 PUSH2 0x13E6 PUSH2 0x2FC1 JUMP JUMPDEST SWAP1 POP PUSH1 0x0 PUSH2 0x13F2 PUSH2 0x2E57 JUMP JUMPDEST SWAP1 POP DUP2 PUSH2 0x13FF DUP6 DUP9 PUSH2 0x2F72 JUMP JUMPDEST GT ISZERO PUSH2 0x140A JUMPI PUSH1 0x0 DUP1 REVERT JUMPDEST DUP1 PUSH2 0x1415 DUP5 DUP8 PUSH2 0x2F72 JUMP JUMPDEST GT ISZERO PUSH2 0x1420 JUMPI PUSH1 0x0 DUP1 REVERT JUMPDEST PUSH2 0x143C PUSH2 0x142D DUP4 DUP7 PUSH2 0x2C83 JUMP JUMPDEST PUSH2 0x1437 DUP4 DUP7 PUSH2 0x2C83 JUMP JUMPDEST PUSH2 0x32C1 JUMP JUMPDEST PUSH2 0x1444 PUSH2 0x2FC1 JUMP JUMPDEST PUSH1 0x1D SSTORE PUSH2 0x144F PUSH2 0x2E57 JUMP JUMPDEST PUSH1 0x1E SSTORE POP POP PUSH1 0x1C DUP1 SLOAD PUSH1 0xFF NOT AND PUSH1 0x1 OR SWAP1 SSTORE POP POP POP POP POP POP POP POP POP JUMP JUMPDEST PUSH1 0x1C SLOAD PUSH1 0x0 SWAP1 PUSH1 0xFF AND PUSH2 0x14AC JUMPI PUSH1 0x40 DUP1 MLOAD PUSH3 0x461BCD PUSH1 0xE5 SHL DUP2 MSTORE PUSH1 0x20 PUSH1 0x4 DUP3 ADD MSTORE PUSH1 0x3 PUSH1 0x24 DUP3 ADD MSTORE PUSH3 0x4C4F4B PUSH1 0xE8 SHL PUSH1 0x44 DUP3 ADD MSTORE SWAP1 MLOAD SWAP1 DUP2 SWAP1 SUB PUSH1 0x64 ADD SWAP1 REVERT JUMPDEST PUSH1 0x1C DUP1 SLOAD PUSH1 0xFF NOT AND SWAP1 SSTORE PUSH1 0x1D SLOAD PUSH1 0x0 SWAP1 PUSH2 0x14CE SWAP1 PUSH2 0x14C8 PUSH2 0x2FC1 JUMP JUMPDEST SWAP1 PUSH2 0x2C83 JUMP JUMPDEST SWAP1 POP PUSH1 0x0 PUSH2 0x14E0 PUSH1 0x1E SLOAD PUSH2 0x14C8 PUSH2 0x2E57 JUMP JUMPDEST SWAP1 POP PUSH2 0x14EB DUP3 PUSH2 0x2E3C JUMP JUMPDEST POP PUSH2 0x14F5 DUP2 PUSH2 0x2E3C JUMP JUMPDEST POP PUSH1 0x2 SLOAD PUSH1 0x1 PUSH1 0x1 PUSH1 0xA0 SHL SUB AND PUSH2 0x155A JUMPI PUSH2 0x1518 PUSH2 0x1513 DUP3 DUP5 PUSH2 0x3541 JUMP JUMPDEST PUSH2 0x35A4 JUMP JUMPDEST PUSH1 0x3 DUP2 SWAP1 SSTORE PUSH2 0x1535 SWAP1 PUSH2 0x1530 SWAP1 PUSH1 0x1 PUSH1 0x60 SHL DUP6 PUSH2 0x35F5 JUMP JUMPDEST PUSH2 0x36A4 JUMP JUMPDEST PUSH1 0x2 DUP1 SLOAD PUSH1 0x1 PUSH1 0x1 PUSH1 0xA0 SHL SUB NOT AND PUSH1 0x1 PUSH1 0x1 PUSH1 0xA0 SHL SUB SWAP3 SWAP1 SWAP3 AND SWAP2 SWAP1 SWAP2 OR SWAP1 SSTORE PUSH2 0x15EF JUMP JUMPDEST PUSH1 0x2 SLOAD PUSH1 0x0 SWAP1 PUSH2 0x1574 SWAP1 DUP5 SWAP1 PUSH1 0x1 PUSH1 0x1 PUSH1 0xA0 SHL SUB AND PUSH2 0x2208 JUMP JUMPDEST SWAP1 POP DUP1 DUP3 LT ISZERO PUSH2 0x15AA JUMPI PUSH1 0x2 SLOAD PUSH1 0x0 SWAP1 PUSH2 0x1598 SWAP1 DUP4 SWAP1 PUSH1 0x1 PUSH1 0x1 PUSH1 0xA0 SHL SUB AND PUSH2 0x1740 JUMP JUMPDEST SWAP1 POP PUSH2 0x15A7 DUP2 DUP6 SUB PUSH1 0x0 PUSH2 0x32C1 JUMP JUMPDEST SWAP3 POP JUMPDEST DUP1 DUP3 GT ISZERO PUSH2 0x15BF JUMPI PUSH2 0x15BF PUSH1 0x0 DUP3 DUP5 SUB PUSH2 0x32C1 JUMP JUMPDEST PUSH2 0x15EA PUSH2 0x15D4 DUP5 PUSH2 0x15CE PUSH2 0xE95 JUMP JUMPDEST SWAP1 PUSH2 0x2F72 JUMP JUMPDEST PUSH1 0x2 SLOAD PUSH1 0x1 PUSH1 0x1 PUSH1 0xA0 SHL SUB AND PUSH1 0x1 PUSH1 0x60 SHL PUSH2 0x35F5 JUMP JUMPDEST PUSH1 0x3 SSTORE POP JUMPDEST PUSH1 0x15 SLOAD PUSH2 0x1619 JUMPI PUSH1 0x2 SLOAD PUSH1 0x60 SWAP1 PUSH2 0x1610 SWAP1 DUP5 SWAP1 PUSH1 0x1 PUSH1 0x1 PUSH1 0xA0 SHL SUB AND PUSH2 0x3541 JUMP JUMPDEST SWAP1 SHR SWAP3 POP PUSH2 0x163B JUMP JUMPDEST PUSH2 0x1638 PUSH2 0x1624 PUSH2 0xE95 JUMP JUMPDEST PUSH1 0x15 SLOAD PUSH2 0x1632 SWAP1 DUP6 SWAP1 PUSH2 0x3541 JUMP JUMPDEST SWAP1 PUSH2 0x36BA JUMP JUMPDEST SWAP3 POP JUMPDEST PUSH2 0x1645 DUP5 DUP5 PUSH2 0x36CD JUMP JUMPDEST PUSH1 0x2 SLOAD PUSH1 0x40 DUP1 MLOAD DUP5 DUP2 MSTORE PUSH1 0x1 PUSH1 0x1 PUSH1 0xA0 SHL SUB SWAP3 DUP4 AND PUSH1 0x20 DUP3 ADD MSTORE SWAP2 DUP7 AND DUP3 DUP3 ADD MSTORE MLOAD CALLER SWAP2 PUSH32 0xDBBA30EB0402B389513E87F51F4DB2DB80BED454384EC6925A24097C3548A02A SWAP2 SWAP1 DUP2 SWAP1 SUB PUSH1 0x60 ADD SWAP1 LOG2 PUSH2 0x169C PUSH2 0x2FC1 JUMP JUMPDEST PUSH1 0x1D SSTORE PUSH2 0x16A7 PUSH2 0x2E57 JUMP JUMPDEST PUSH1 0x1E SSTORE POP POP PUSH1 0x1C DUP1 SLOAD PUSH1 0xFF NOT AND PUSH1 0x1 OR SWAP1 SSTORE SWAP2 SWAP1 POP JUMP JUMPDEST PUSH1 0x1 PUSH1 0x1 PUSH1 0xA0 SHL SUB DUP3 AND PUSH1 0x0 SWAP1 DUP2 MSTORE PUSH1 0x18 PUSH1 0x20 MSTORE PUSH1 0x40 DUP2 KECCAK256 SLOAD PUSH1 0x1A SLOAD DUP3 SWAP2 PUSH2 0x16F6 SWAP2 DUP6 SWAP2 PUSH2 0x16EC SWAP2 SWAP1 PUSH2 0x2C83 JUMP JUMPDEST PUSH1 0x1 PUSH1 0x60 SHL PUSH2 0x35F5 JUMP JUMPDEST PUSH1 0x1 PUSH1 0x1 PUSH1 0xA0 SHL SUB DUP6 AND PUSH1 0x0 SWAP1 DUP2 MSTORE PUSH1 0x18 PUSH1 0x20 MSTORE PUSH1 0x40 SWAP1 KECCAK256 SLOAD PUSH1 0x1A SLOAD SWAP2 SWAP4 POP PUSH2 0x1725 SWAP2 DUP6 SWAP2 PUSH2 0x16EC SWAP2 SWAP1 PUSH2 0x2C83 JUMP JUMPDEST SWAP1 POP SWAP3 POP SWAP3 SWAP1 POP JUMP JUMPDEST PUSH1 0x16 PUSH1 0x20 MSTORE PUSH1 0x0 SWAP1 DUP2 MSTORE PUSH1 0x40 SWAP1 KECCAK256 SLOAD DUP2 JUMP JUMPDEST PUSH1 0x0 PUSH1 0x1 PUSH1 0x1 PUSH1 0xA0 SHL SUB DUP3 AND ISZERO DUP1 PUSH2 0x1756 JUMPI POP DUP3 ISZERO JUMPDEST ISZERO PUSH2 0x1763 JUMPI POP PUSH1 0x0 PUSH2 0xCE8 JUMP JUMPDEST PUSH2 0xE66 PUSH2 0x177E DUP5 PUSH1 0x1 PUSH1 0x60 SHL DUP6 PUSH1 0x1 PUSH1 0x1 PUSH1 0xA0 SHL SUB AND PUSH2 0x35F5 JUMP JUMPDEST PUSH1 0x1 PUSH1 0x60 SHL DUP5 PUSH1 0x1 PUSH1 0x1 PUSH1 0xA0 SHL SUB AND PUSH2 0x35F5 JUMP JUMPDEST PUSH1 0x1A SLOAD DUP2 JUMP JUMPDEST PUSH1 0x1C SLOAD PUSH1 0x0 SWAP1 PUSH1 0xFF AND PUSH2 0x17D8 JUMPI PUSH1 0x40 DUP1 MLOAD PUSH3 0x461BCD PUSH1 0xE5 SHL DUP2 MSTORE PUSH1 0x20 PUSH1 0x4 DUP3 ADD MSTORE PUSH1 0x3 PUSH1 0x24 DUP3 ADD MSTORE PUSH3 0x4C4F4B PUSH1 0xE8 SHL PUSH1 0x44 DUP3 ADD MSTORE SWAP1 MLOAD SWAP1 DUP2 SWAP1 SUB PUSH1 0x64 ADD SWAP1 REVERT JUMPDEST PUSH1 0x1C DUP1 SLOAD PUSH1 0xFF NOT AND SWAP1 SSTORE PUSH1 0x2 SLOAD PUSH1 0x1 PUSH1 0x1 PUSH1 0xA0 SHL SUB AND PUSH2 0x17F7 JUMPI PUSH1 0x0 DUP1 REVERT JUMPDEST PUSH2 0x1800 DUP4 PUSH2 0x2E3C JUMP JUMPDEST POP DUP2 ISZERO PUSH2 0x183F JUMPI PUSH2 0x180F PUSH2 0x2FC1 JUMP JUMPDEST PUSH1 0x1D SLOAD PUSH2 0x181C SWAP1 DUP6 PUSH2 0x2F72 JUMP JUMPDEST GT ISZERO PUSH2 0x183A JUMPI PUSH1 0x13 SLOAD PUSH2 0x183A SWAP1 PUSH1 0x1 PUSH1 0x1 PUSH1 0xA0 SHL SUB AND CALLER ADDRESS DUP7 PUSH2 0x37C7 JUMP JUMPDEST PUSH2 0x1872 JUMP JUMPDEST PUSH2 0x1847 PUSH2 0x2E57 JUMP JUMPDEST PUSH1 0x1E SLOAD PUSH2 0x1854 SWAP1 DUP6 PUSH2 0x2F72 JUMP JUMPDEST GT ISZERO PUSH2 0x1872 JUMPI PUSH1 0x14 SLOAD PUSH2 0x1872 SWAP1 PUSH1 0x1 PUSH1 0x1 PUSH1 0xA0 SHL SUB AND CALLER ADDRESS DUP7 PUSH2 0x37C7 JUMP JUMPDEST CALLER DUP1 EXTCODESIZE DUP1 ISZERO PUSH2 0x18E5 JUMPI DUP2 PUSH1 0x1 PUSH1 0x1 PUSH1 0xA0 SHL SUB AND PUSH4 0x67E404CE PUSH1 0x40 MLOAD DUP2 PUSH4 0xFFFFFFFF AND PUSH1 0xE0 SHL DUP2 MSTORE PUSH1 0x4 ADD PUSH1 0x20 PUSH1 0x40 MLOAD DUP1 DUP4 SUB DUP2 PUSH1 0x0 DUP8 DUP1 EXTCODESIZE ISZERO DUP1 ISZERO PUSH2 0x18B6 JUMPI PUSH1 0x0 DUP1 REVERT JUMPDEST POP GAS CALL ISZERO DUP1 ISZERO PUSH2 0x18CA JUMPI RETURNDATASIZE PUSH1 0x0 DUP1 RETURNDATACOPY RETURNDATASIZE PUSH1 0x0 REVERT JUMPDEST POP POP POP POP PUSH1 0x40 MLOAD RETURNDATASIZE PUSH1 0x20 DUP2 LT ISZERO PUSH2 0x18E0 JUMPI PUSH1 0x0 DUP1 REVERT JUMPDEST POP MLOAD SWAP2 POP JUMPDEST POP PUSH1 0x0 DUP5 DUP5 DUP1 ISZERO PUSH2 0x1902 JUMPI POP PUSH2 0x18F9 PUSH2 0x92B JUMP JUMPDEST PUSH1 0x2 SIGNEXTEND DUP8 PUSH1 0x2 SIGNEXTEND SLT JUMPDEST DUP1 PUSH2 0x1922 JUMPI POP DUP5 ISZERO DUP1 ISZERO PUSH2 0x1922 JUMPI POP PUSH2 0x1919 PUSH2 0x92B JUMP JUMPDEST PUSH1 0x2 SIGNEXTEND DUP8 PUSH1 0x2 SIGNEXTEND SGT JUMPDEST ISZERO PUSH2 0x193A JUMPI PUSH2 0x1933 DUP7 DUP7 ISZERO DUP10 PUSH2 0x303B JUMP JUMPDEST POP SWAP1 SWAP7 POP SWAP2 POP JUMPDEST DUP6 ISZERO PUSH2 0x1CCB JUMPI PUSH1 0x0 DUP1 PUSH1 0x0 PUSH2 0x194E DUP11 PUSH2 0x3923 JUMP JUMPDEST PUSH1 0x2 DUP12 DUP2 SIGNEXTEND SWAP1 SIGNEXTEND PUSH1 0x0 SWAP1 DUP2 MSTORE PUSH1 0xB PUSH1 0x20 SWAP1 DUP2 MSTORE PUSH1 0x40 SWAP2 DUP3 SWAP1 KECCAK256 DUP3 MLOAD PUSH1 0x80 DUP2 ADD DUP5 MSTORE DUP2 SLOAD PUSH1 0x1 PUSH1 0x1 PUSH1 0x80 SHL SUB DUP1 DUP3 AND DUP4 MSTORE PUSH1 0x1 PUSH1 0x80 SHL SWAP2 DUP3 SWAP1 DIV DUP2 AND SWAP5 DUP4 ADD SWAP5 SWAP1 SWAP5 MSTORE PUSH1 0x1 SWAP1 SWAP3 ADD SLOAD DUP1 DUP5 AND SWAP5 DUP3 ADD SWAP5 SWAP1 SWAP5 MSTORE SWAP3 DIV AND PUSH1 0x60 DUP3 ADD MSTORE SWAP1 SWAP2 POP DUP9 ISZERO PUSH2 0x1B3D JUMPI PUSH2 0x19BC DUP12 PUSH1 0x0 PUSH2 0x2881 JUMP JUMPDEST ISZERO DUP1 ISZERO PUSH2 0x19D2 JUMPI POP DUP1 MLOAD PUSH1 0x1 PUSH1 0x1 PUSH1 0x80 SHL SUB AND ISZERO ISZERO JUMPDEST ISZERO PUSH2 0x1A5F JUMPI DUP1 MLOAD PUSH2 0x19F5 SWAP1 PUSH1 0x1 PUSH1 0x1 PUSH1 0x80 SHL SUB AND PUSH2 0x19F0 DUP13 DUP6 PUSH2 0x2208 JUMP JUMPDEST PUSH2 0x3C54 JUMP JUMPDEST SWAP4 POP PUSH2 0x1A01 DUP5 DUP4 PUSH2 0x1740 JUMP JUMPDEST SWAP3 POP PUSH2 0x1A0C DUP5 PUSH2 0x2E3C JUMP JUMPDEST DUP2 MLOAD SUB PUSH1 0x1 PUSH1 0x1 PUSH1 0x80 SHL SUB AND DUP2 MSTORE PUSH2 0x1A23 DUP4 PUSH2 0x2E3C JUMP JUMPDEST PUSH1 0x20 DUP3 ADD DUP1 MLOAD SWAP2 SWAP1 SWAP2 ADD PUSH1 0x1 PUSH1 0x1 PUSH1 0x80 SHL SUB AND SWAP1 MSTORE PUSH2 0x1A42 DUP11 DUP6 PUSH2 0x2C83 JUMP JUMPDEST SWAP10 POP DUP10 ISZERO PUSH2 0x1A52 JUMPI PUSH1 0x0 NOT SWAP1 SWAP10 ADD SWAP9 JUMPDEST PUSH2 0x1A5C DUP7 DUP6 PUSH2 0x2F72 JUMP JUMPDEST SWAP6 POP JUMPDEST PUSH2 0x1A68 DUP11 PUSH2 0x2E3C JUMP JUMPDEST PUSH1 0x40 DUP3 ADD DUP1 MLOAD SWAP2 SWAP1 SWAP2 ADD PUSH1 0x1 PUSH1 0x1 PUSH1 0x80 SHL SUB AND SWAP1 MSTORE PUSH2 0x1A9D DUP12 DUP3 DUP5 PUSH2 0x1A8C DUP15 PUSH2 0x3C6A JUMP JUMPDEST PUSH2 0x1A95 DUP10 PUSH2 0x3C6A JUMP JUMPDEST PUSH1 0x0 SUB PUSH2 0x3C80 JUMP JUMPDEST PUSH2 0x1AA7 DUP11 DUP4 PUSH2 0x2208 JUMP JUMPDEST SWAP8 POP PUSH2 0x1AF8 DUP9 PUSH1 0xD PUSH1 0x0 DUP11 PUSH1 0x1 PUSH1 0x1 PUSH1 0xA0 SHL SUB AND PUSH1 0x1 PUSH1 0x1 PUSH1 0xA0 SHL SUB AND DUP2 MSTORE PUSH1 0x20 ADD SWAP1 DUP2 MSTORE PUSH1 0x20 ADD PUSH1 0x0 KECCAK256 PUSH1 0x0 DUP15 PUSH1 0x2 SIGNEXTEND PUSH1 0x2 SIGNEXTEND DUP2 MSTORE PUSH1 0x20 ADD SWAP1 DUP2 MSTORE PUSH1 0x20 ADD PUSH1 0x0 KECCAK256 SLOAD PUSH2 0x2F72 SWAP1 SWAP2 SWAP1 PUSH4 0xFFFFFFFF AND JUMP JUMPDEST PUSH1 0xD PUSH1 0x0 DUP10 PUSH1 0x1 PUSH1 0x1 PUSH1 0xA0 SHL SUB AND PUSH1 0x1 PUSH1 0x1 PUSH1 0xA0 SHL SUB AND DUP2 MSTORE PUSH1 0x20 ADD SWAP1 DUP2 MSTORE PUSH1 0x20 ADD PUSH1 0x0 KECCAK256 PUSH1 0x0 DUP14 PUSH1 0x2 SIGNEXTEND PUSH1 0x2 SIGNEXTEND DUP2 MSTORE PUSH1 0x20 ADD SWAP1 DUP2 MSTORE PUSH1 0x20 ADD PUSH1 0x0 KECCAK256 DUP2 SWAP1 SSTORE POP PUSH2 0x1CC6 JUMP JUMPDEST PUSH2 0x1B48 DUP12 PUSH1 0x1 PUSH2 0x2881 JUMP JUMPDEST ISZERO DUP1 ISZERO PUSH2 0x1B62 JUMPI POP PUSH1 0x0 DUP2 PUSH1 0x40 ADD MLOAD PUSH1 0x1 PUSH1 0x1 PUSH1 0x80 SHL SUB AND GT JUMPDEST ISZERO PUSH2 0x1BF3 JUMPI PUSH2 0x1B82 DUP2 PUSH1 0x40 ADD MLOAD PUSH1 0x1 PUSH1 0x1 PUSH1 0x80 SHL SUB AND PUSH2 0x19F0 DUP13 DUP6 PUSH2 0x1740 JUMP JUMPDEST SWAP4 POP PUSH2 0x1B8E DUP5 DUP4 PUSH2 0x2208 JUMP JUMPDEST SWAP3 POP PUSH2 0x1B99 DUP5 PUSH2 0x2E3C JUMP JUMPDEST PUSH1 0x40 DUP3 ADD DUP1 MLOAD SWAP2 SWAP1 SWAP2 SUB PUSH1 0x1 PUSH1 0x1 PUSH1 0x80 SHL SUB AND SWAP1 MSTORE PUSH2 0x1BB7 DUP4 PUSH2 0x2E3C JUMP JUMPDEST PUSH1 0x60 DUP3 ADD DUP1 MLOAD SWAP2 SWAP1 SWAP2 ADD PUSH1 0x1 PUSH1 0x1 PUSH1 0x80 SHL SUB AND SWAP1 MSTORE PUSH2 0x1BD6 DUP11 DUP6 PUSH2 0x2C83 JUMP JUMPDEST SWAP10 POP DUP10 ISZERO PUSH2 0x1BE6 JUMPI PUSH1 0x0 NOT SWAP1 SWAP10 ADD SWAP9 JUMPDEST PUSH2 0x1BF0 DUP7 DUP6 PUSH2 0x2F72 JUMP JUMPDEST SWAP6 POP JUMPDEST PUSH2 0x1BFC DUP11 PUSH2 0x2E3C JUMP JUMPDEST DUP2 MLOAD ADD PUSH1 0x1 PUSH1 0x1 PUSH1 0x80 SHL SUB AND DUP2 MSTORE PUSH2 0x1C2A DUP12 DUP3 DUP5 PUSH2 0x1C19 DUP9 PUSH2 0x3C6A JUMP JUMPDEST PUSH1 0x0 SUB PUSH2 0x1C25 DUP16 PUSH2 0x3C6A JUMP JUMPDEST PUSH2 0x3C80 JUMP JUMPDEST PUSH2 0x1C34 DUP11 DUP4 PUSH2 0x1740 JUMP JUMPDEST SWAP8 POP PUSH2 0x1C85 DUP9 PUSH1 0xC PUSH1 0x0 DUP11 PUSH1 0x1 PUSH1 0x1 PUSH1 0xA0 SHL SUB AND PUSH1 0x1 PUSH1 0x1 PUSH1 0xA0 SHL SUB AND DUP2 MSTORE PUSH1 0x20 ADD SWAP1 DUP2 MSTORE PUSH1 0x20 ADD PUSH1 0x0 KECCAK256 PUSH1 0x0 DUP15 PUSH1 0x2 SIGNEXTEND PUSH1 0x2 SIGNEXTEND DUP2 MSTORE PUSH1 0x20 ADD SWAP1 DUP2 MSTORE PUSH1 0x20 ADD PUSH1 0x0 KECCAK256 SLOAD PUSH2 0x2F72 SWAP1 SWAP2 SWAP1 PUSH4 0xFFFFFFFF AND JUMP JUMPDEST PUSH1 0xC PUSH1 0x0 DUP10 PUSH1 0x1 PUSH1 0x1 PUSH1 0xA0 SHL SUB AND PUSH1 0x1 PUSH1 0x1 PUSH1 0xA0 SHL SUB AND DUP2 MSTORE PUSH1 0x20 ADD SWAP1 DUP2 MSTORE PUSH1 0x20 ADD PUSH1 0x0 KECCAK256 PUSH1 0x0 DUP14 PUSH1 0x2 SIGNEXTEND PUSH1 0x2 SIGNEXTEND DUP2 MSTORE PUSH1 0x20 ADD SWAP1 DUP2 MSTORE PUSH1 0x20 ADD PUSH1 0x0 KECCAK256 DUP2 SWAP1 SSTORE POP JUMPDEST POP POP POP POP JUMPDEST DUP2 ISZERO PUSH2 0x1DBB JUMPI PUSH1 0x0 DUP6 PUSH2 0x1CDE JUMPI DUP3 PUSH2 0x1CE1 JUMP JUMPDEST PUSH1 0x0 JUMPDEST SWAP1 POP PUSH1 0x0 DUP7 PUSH2 0x1CF1 JUMPI PUSH1 0x0 PUSH2 0x1CF3 JUMP JUMPDEST DUP4 JUMPDEST SWAP1 POP PUSH1 0x0 DUP1 PUSH2 0x1D05 DUP8 DUP6 DUP6 PUSH1 0x1 PUSH2 0x3212 JUMP JUMPDEST SWAP2 POP SWAP2 POP PUSH2 0x1D13 DUP3 DUP3 PUSH2 0x32C1 JUMP JUMPDEST DUP7 PUSH1 0x1 PUSH1 0x1 PUSH1 0xA0 SHL SUB AND PUSH32 0xB029EC0911DFD170DBC1992B48561B88A491EE3E92F0D20DC4FED6851E5125AF DUP11 PUSH2 0x1D4A JUMPI PUSH1 0x0 PUSH2 0x1D55 JUMP JUMPDEST PUSH2 0x1D55 DUP13 DUP9 SUB PUSH2 0x2E3C JUMP JUMPDEST DUP12 PUSH2 0x1D6A JUMPI PUSH2 0x1D65 DUP14 DUP10 SUB PUSH2 0x2E3C JUMP JUMPDEST PUSH2 0x1D6D JUMP JUMPDEST PUSH1 0x0 JUMPDEST PUSH2 0x1D78 DUP7 DUP10 SUB PUSH2 0x2E3C JUMP JUMPDEST PUSH2 0x1D83 DUP7 DUP10 SUB PUSH2 0x2E3C JUMP JUMPDEST PUSH1 0x40 DUP1 MLOAD PUSH1 0x1 PUSH1 0x1 PUSH1 0x80 SHL SUB SWAP6 DUP7 AND DUP2 MSTORE SWAP4 DUP6 AND PUSH1 0x20 DUP6 ADD MSTORE SWAP2 DUP5 AND DUP4 DUP4 ADD MSTORE SWAP1 SWAP3 AND PUSH1 0x60 DUP3 ADD MSTORE SWAP1 MLOAD SWAP1 DUP2 SWAP1 SUB PUSH1 0x80 ADD SWAP1 LOG2 POP POP POP POP JUMPDEST DUP3 PUSH1 0x1 PUSH1 0x1 PUSH1 0xA0 SHL SUB AND PUSH32 0xF1A73C4BA2A463DD1BD57BBAE8BF5385904B0E25B6EB91B82276A57481B9FC68 DUP9 DUP8 PUSH2 0x1DFA JUMPI PUSH2 0x1DF5 DUP8 PUSH2 0x2E3C JUMP JUMPDEST PUSH2 0x1DFD JUMP JUMPDEST PUSH1 0x0 JUMPDEST DUP9 PUSH2 0x1E09 JUMPI PUSH1 0x0 PUSH2 0x1E12 JUMP JUMPDEST PUSH2 0x1E12 DUP9 PUSH2 0x2E3C JUMP JUMPDEST DUP10 PUSH2 0x1E1E JUMPI PUSH1 0x0 PUSH2 0x1E27 JUMP JUMPDEST PUSH2 0x1E27 DUP12 PUSH2 0x2E3C JUMP JUMPDEST DUP11 PUSH2 0x1E3A JUMPI PUSH2 0x1E35 DUP13 PUSH2 0x2E3C JUMP JUMPDEST PUSH2 0x1E3D JUMP JUMPDEST PUSH1 0x0 JUMPDEST PUSH1 0x40 DUP1 MLOAD PUSH1 0x2 SWAP7 SWAP1 SWAP7 SIGNEXTEND DUP7 MSTORE PUSH1 0x1 PUSH1 0x1 PUSH1 0x80 SHL SUB SWAP5 DUP6 AND PUSH1 0x20 DUP8 ADD MSTORE SWAP3 DUP5 AND DUP6 DUP5 ADD MSTORE SWAP1 DUP4 AND PUSH1 0x60 DUP6 ADD MSTORE SWAP1 SWAP2 AND PUSH1 0x80 DUP4 ADD MSTORE MLOAD SWAP1 DUP2 SWAP1 SUB PUSH1 0xA0 ADD SWAP1 LOG2 PUSH2 0x1E82 PUSH2 0x2FC1 JUMP JUMPDEST PUSH1 0x1D SSTORE PUSH2 0x1E8D PUSH2 0x2E57 JUMP JUMPDEST PUSH1 0x1E SSTORE POP POP PUSH1 0x1C DUP1 SLOAD PUSH1 0xFF NOT AND PUSH1 0x1 OR SWAP1 SSTORE POP SWAP4 SWAP3 POP POP POP JUMP JUMPDEST PUSH1 0x1C SLOAD PUSH1 0x0 SWAP1 DUP2 SWAP1 PUSH1 0xFF AND PUSH2 0x1EE9 JUMPI PUSH1 0x40 DUP1 MLOAD PUSH3 0x461BCD PUSH1 0xE5 SHL DUP2 MSTORE PUSH1 0x20 PUSH1 0x4 DUP3 ADD MSTORE PUSH1 0x3 PUSH1 0x24 DUP3 ADD MSTORE PUSH3 0x4C4F4B PUSH1 0xE8 SHL PUSH1 0x44 DUP3 ADD MSTORE SWAP1 MLOAD SWAP1 DUP2 SWAP1 SUB PUSH1 0x64 ADD SWAP1 REVERT JUMPDEST PUSH1 0x1C DUP1 SLOAD PUSH1 0xFF NOT AND SWAP1 SSTORE ADDRESS PUSH1 0x0 SWAP1 DUP2 MSTORE PUSH1 0x16 PUSH1 0x20 MSTORE PUSH1 0x40 DUP2 KECCAK256 SLOAD SWAP1 PUSH2 0x1F0C PUSH2 0xE95 JUMP JUMPDEST PUSH1 0x15 SLOAD SWAP1 SWAP2 POP PUSH2 0x1F20 SWAP1 PUSH2 0x1632 DUP5 DUP5 PUSH2 0x3541 JUMP JUMPDEST PUSH1 0x2 SLOAD SWAP1 SWAP5 POP PUSH2 0x1F3A SWAP1 DUP6 SWAP1 PUSH1 0x1 PUSH1 0x1 PUSH1 0xA0 SHL SUB AND PUSH2 0x2208 JUMP JUMPDEST SWAP3 POP DUP4 ISZERO PUSH2 0x1F4A JUMPI PUSH1 0x0 NOT SWAP1 SWAP4 ADD SWAP3 JUMPDEST DUP4 DUP2 EQ ISZERO PUSH2 0x1F5A JUMPI PUSH1 0x0 NOT SWAP1 SWAP4 ADD SWAP3 JUMPDEST PUSH2 0x1F67 PUSH2 0x15D4 DUP3 DUP7 PUSH2 0x2C83 JUMP JUMPDEST PUSH1 0x3 DUP2 SWAP1 SSTORE PUSH2 0x1F76 JUMPI PUSH1 0x1 PUSH1 0x3 SSTORE JUMPDEST ADDRESS PUSH1 0x0 SWAP1 DUP2 MSTORE PUSH1 0x18 PUSH1 0x20 MSTORE PUSH1 0x40 SWAP1 KECCAK256 SLOAD PUSH1 0x1A SLOAD PUSH2 0x1FA4 SWAP2 PUSH2 0x1F9D SWAP2 DUP6 SWAP2 PUSH2 0x16EC SWAP2 SWAP1 PUSH2 0x2C83 JUMP JUMPDEST DUP6 SWAP1 PUSH2 0x2F72 JUMP JUMPDEST ADDRESS PUSH1 0x0 SWAP1 DUP2 MSTORE PUSH1 0x19 PUSH1 0x20 MSTORE PUSH1 0x40 SWAP1 KECCAK256 SLOAD PUSH1 0x1B SLOAD SWAP2 SWAP6 POP PUSH2 0x1FD4 SWAP2 PUSH2 0x1FCD SWAP2 DUP6 SWAP2 PUSH2 0x16EC SWAP2 PUSH2 0x2C83 JUMP JUMPDEST DUP5 SWAP1 PUSH2 0x2F72 JUMP JUMPDEST PUSH1 0x13 SLOAD SWAP1 SWAP4 POP PUSH2 0x1FF9 SWAP1 PUSH1 0x1 PUSH1 0x1 PUSH1 0xA0 SHL SUB AND DUP7 PUSH2 0x1FF4 DUP8 PUSH2 0x19F0 PUSH2 0x2FC1 JUMP JUMPDEST PUSH2 0x33D8 JUMP JUMPDEST PUSH1 0x14 SLOAD PUSH2 0x2016 SWAP1 PUSH1 0x1 PUSH1 0x1 PUSH1 0xA0 SHL SUB AND DUP7 PUSH2 0x1FF4 DUP7 PUSH2 0x19F0 PUSH2 0x2E57 JUMP JUMPDEST PUSH2 0x2020 ADDRESS DUP4 PUSH2 0x3DD8 JUMP JUMPDEST POP POP PUSH1 0x2 SLOAD PUSH1 0x40 DUP1 MLOAD DUP7 DUP2 MSTORE PUSH1 0x1 PUSH1 0x1 PUSH1 0xA0 SHL SUB SWAP3 DUP4 AND PUSH1 0x20 DUP3 ADD MSTORE SWAP2 DUP8 AND DUP3 DUP3 ADD MSTORE MLOAD CALLER SWAP2 PUSH32 0xDCCD412F0B1252819CB1FD330B93224CA42612892BB3F4F789976E6D81936496 SWAP2 SWAP1 DUP2 SWAP1 SUB PUSH1 0x60 ADD SWAP1 LOG2 PUSH2 0x2079 PUSH2 0x2FC1 JUMP JUMPDEST PUSH1 0x1D SSTORE PUSH2 0x2084 PUSH2 0x2E57 JUMP JUMPDEST PUSH1 0x1E SSTORE POP POP PUSH1 0x1C DUP1 SLOAD PUSH1 0xFF NOT AND PUSH1 0x1 OR SWAP1 SSTORE SWAP1 SWAP3 SWAP1 SWAP2 POP JUMP JUMPDEST PUSH32 0x0 DUP2 JUMP JUMPDEST PUSH1 0x1E SLOAD DUP2 JUMP JUMPDEST PUSH1 0x40 DUP1 MLOAD PUSH1 0x2 DUP6 SWAP1 SIGNEXTEND PUSH1 0x24 DUP3 ADD MSTORE PUSH1 0x44 DUP2 ADD DUP5 SWAP1 MSTORE DUP3 ISZERO ISZERO PUSH1 0x64 DUP1 DUP4 ADD SWAP2 SWAP1 SWAP2 MSTORE DUP3 MLOAD DUP1 DUP4 SUB SWAP1 SWAP2 ADD DUP2 MSTORE PUSH1 0x84 SWAP1 SWAP2 ADD DUP3 MSTORE PUSH1 0x20 DUP2 ADD DUP1 MLOAD PUSH1 0x1 PUSH1 0x1 PUSH1 0xE0 SHL SUB AND PUSH4 0x234ED1BF PUSH1 0xE1 SHL OR DUP2 MSTORE SWAP2 MLOAD DUP2 MLOAD PUSH1 0x0 SWAP4 DUP5 SWAP4 DUP5 SWAP4 ADDRESS SWAP4 SWAP2 SWAP3 SWAP1 SWAP2 DUP3 SWAP2 SWAP1 DUP1 DUP4 DUP4 JUMPDEST PUSH1 0x20 DUP4 LT PUSH2 0x214A JUMPI DUP1 MLOAD DUP3 MSTORE PUSH1 0x1F NOT SWAP1 SWAP3 ADD SWAP2 PUSH1 0x20 SWAP2 DUP3 ADD SWAP2 ADD PUSH2 0x212B JUMP JUMPDEST PUSH1 0x1 DUP4 PUSH1 0x20 SUB PUSH2 0x100 EXP SUB DUP1 NOT DUP3 MLOAD AND DUP2 DUP5 MLOAD AND DUP1 DUP3 OR DUP6 MSTORE POP POP POP POP POP POP SWAP1 POP ADD SWAP2 POP POP PUSH1 0x0 PUSH1 0x40 MLOAD DUP1 DUP4 SUB DUP2 DUP6 GAS STATICCALL SWAP2 POP POP RETURNDATASIZE DUP1 PUSH1 0x0 DUP2 EQ PUSH2 0x21AA JUMPI PUSH1 0x40 MLOAD SWAP2 POP PUSH1 0x1F NOT PUSH1 0x3F RETURNDATASIZE ADD AND DUP3 ADD PUSH1 0x40 MSTORE RETURNDATASIZE DUP3 MSTORE RETURNDATASIZE PUSH1 0x0 PUSH1 0x20 DUP5 ADD RETURNDATACOPY PUSH2 0x21AF JUMP JUMPDEST PUSH1 0x60 SWAP2 POP JUMPDEST POP SWAP2 POP POP DUP1 DUP1 PUSH1 0x20 ADD SWAP1 MLOAD PUSH1 0x40 DUP2 LT ISZERO PUSH2 0x21C8 JUMPI PUSH1 0x0 DUP1 REVERT JUMPDEST POP DUP1 MLOAD PUSH1 0x20 SWAP1 SWAP2 ADD MLOAD SWAP1 SWAP8 SWAP1 SWAP7 POP SWAP5 POP POP POP POP POP JUMP JUMPDEST PUSH1 0x60 PUSH2 0x943 PUSH2 0x948 JUMP JUMPDEST PUSH1 0x0 PUSH2 0x21F3 DUP3 PUSH2 0x2E3C JUMP JUMPDEST POP PUSH2 0x21FF CALLER DUP5 DUP5 PUSH2 0x2CD3 JUMP JUMPDEST POP PUSH1 0x1 SWAP3 SWAP2 POP POP JUMP JUMPDEST PUSH1 0x0 PUSH1 0x1 PUSH1 0x1 PUSH1 0xA0 SHL SUB DUP3 AND ISZERO DUP1 PUSH2 0x221E JUMPI POP DUP3 ISZERO JUMPDEST ISZERO PUSH2 0x222B JUMPI POP PUSH1 0x0 PUSH2 0xCE8 JUMP JUMPDEST PUSH1 0x60 PUSH2 0x224D PUSH1 0x1 PUSH1 0x1 PUSH1 0xA0 SHL SUB DUP5 AND DUP3 PUSH2 0x2245 DUP8 DUP4 PUSH2 0x3541 JUMP JUMPDEST SWAP1 SHR SWAP1 PUSH2 0x3541 JUMP JUMPDEST SWAP1 SHR SWAP1 POP DUP1 ISZERO PUSH2 0xCE8 JUMPI PUSH1 0x0 NOT ADD SWAP3 SWAP2 POP POP JUMP JUMPDEST PUSH1 0x1C SLOAD PUSH1 0x0 SWAP1 DUP2 SWAP1 PUSH1 0xFF AND PUSH2 0x22A3 JUMPI PUSH1 0x40 DUP1 MLOAD PUSH3 0x461BCD PUSH1 0xE5 SHL DUP2 MSTORE PUSH1 0x20 PUSH1 0x4 DUP3 ADD MSTORE PUSH1 0x3 PUSH1 0x24 DUP3 ADD MSTORE PUSH3 0x4C4F4B PUSH1 0xE8 SHL PUSH1 0x44 DUP3 ADD MSTORE SWAP1 MLOAD SWAP1 DUP2 SWAP1 SUB PUSH1 0x64 ADD SWAP1 REVERT JUMPDEST PUSH1 0x1C DUP1 SLOAD PUSH1 0xFF NOT AND SWAP1 SSTORE PUSH1 0x0 PUSH2 0x22B8 DUP7 PUSH2 0x3923 JUMP JUMPDEST PUSH1 0x2 DUP8 DUP2 SIGNEXTEND SWAP1 SIGNEXTEND PUSH1 0x0 SWAP1 DUP2 MSTORE PUSH1 0xB PUSH1 0x20 SWAP1 DUP2 MSTORE PUSH1 0x40 DUP1 DUP4 KECCAK256 DUP2 MLOAD PUSH1 0x80 DUP2 ADD DUP4 MSTORE DUP2 SLOAD PUSH1 0x1 PUSH1 0x1 PUSH1 0x80 SHL SUB DUP1 DUP3 AND DUP4 MSTORE PUSH1 0x1 PUSH1 0x80 SHL SWAP2 DUP3 SWAP1 DIV DUP2 AND SWAP6 DUP4 ADD SWAP6 SWAP1 SWAP6 MSTORE PUSH1 0x1 SWAP1 SWAP3 ADD SLOAD DUP1 DUP6 AND SWAP4 DUP3 ADD SWAP4 SWAP1 SWAP4 MSTORE SWAP2 DIV SWAP1 SWAP2 AND PUSH1 0x60 DUP3 ADD MSTORE SWAP2 SWAP3 POP PUSH2 0x2324 SWAP2 DUP9 SWAP2 DUP5 SWAP1 DUP1 PUSH2 0x3C80 JUMP JUMPDEST PUSH1 0x2 DUP7 DUP2 SIGNEXTEND SWAP1 SIGNEXTEND PUSH1 0x0 SWAP1 DUP2 MSTORE PUSH1 0xB PUSH1 0x20 SWAP1 DUP2 MSTORE PUSH1 0x40 SWAP2 DUP3 SWAP1 KECCAK256 DUP3 MLOAD PUSH1 0x80 DUP2 ADD DUP5 MSTORE DUP2 SLOAD PUSH1 0x1 PUSH1 0x1 PUSH1 0x80 SHL SUB DUP1 DUP3 AND DUP4 MSTORE PUSH1 0x1 PUSH1 0x80 SHL SWAP2 DUP3 SWAP1 DIV DUP2 AND SWAP5 DUP4 ADD SWAP5 SWAP1 SWAP5 MSTORE PUSH1 0x1 SWAP1 SWAP3 ADD SLOAD DUP1 DUP5 AND SWAP5 DUP3 ADD SWAP5 SWAP1 SWAP5 MSTORE SWAP3 DIV AND PUSH1 0x60 DUP3 ADD MSTORE PUSH2 0x2389 DUP8 DUP8 DUP8 PUSH2 0x20C7 JUMP JUMPDEST SWAP1 SWAP5 POP SWAP3 POP CALLER DUP1 EXTCODESIZE DUP1 ISZERO PUSH2 0x2401 JUMPI DUP2 PUSH1 0x1 PUSH1 0x1 PUSH1 0xA0 SHL SUB AND PUSH4 0x67E404CE PUSH1 0x40 MLOAD DUP2 PUSH4 0xFFFFFFFF AND PUSH1 0xE0 SHL DUP2 MSTORE PUSH1 0x4 ADD PUSH1 0x20 PUSH1 0x40 MLOAD DUP1 DUP4 SUB DUP2 PUSH1 0x0 DUP8 DUP1 EXTCODESIZE ISZERO DUP1 ISZERO PUSH2 0x23D2 JUMPI PUSH1 0x0 DUP1 REVERT JUMPDEST POP GAS CALL ISZERO DUP1 ISZERO PUSH2 0x23E6 JUMPI RETURNDATASIZE PUSH1 0x0 DUP1 RETURNDATACOPY RETURNDATASIZE PUSH1 0x0 REVERT JUMPDEST POP POP POP POP PUSH1 0x40 MLOAD RETURNDATASIZE PUSH1 0x20 DUP2 LT ISZERO PUSH2 0x23FC JUMPI PUSH1 0x0 DUP1 REVERT JUMPDEST POP MLOAD SWAP2 POP JUMPDEST DUP7 ISZERO PUSH2 0x24F6 JUMPI PUSH1 0x1 PUSH1 0x1 PUSH1 0xA0 SHL SUB DUP3 AND PUSH1 0x0 SWAP1 DUP2 MSTORE PUSH1 0xD PUSH1 0x20 SWAP1 DUP2 MSTORE PUSH1 0x40 DUP1 DUP4 KECCAK256 PUSH1 0x2 DUP14 DUP2 SIGNEXTEND SWAP1 SIGNEXTEND DUP5 MSTORE SWAP1 SWAP2 MSTORE SWAP1 KECCAK256 SLOAD DUP9 GT ISZERO PUSH2 0x243D JUMPI PUSH1 0x0 DUP1 REVERT JUMPDEST PUSH1 0x1 PUSH1 0x1 PUSH1 0xA0 SHL SUB DUP3 AND PUSH1 0x0 SWAP1 DUP2 MSTORE PUSH1 0xD PUSH1 0x20 SWAP1 DUP2 MSTORE PUSH1 0x40 DUP1 DUP4 KECCAK256 PUSH1 0x2 DUP14 DUP2 SIGNEXTEND SWAP1 SIGNEXTEND DUP5 MSTORE SWAP1 SWAP2 MSTORE SWAP1 KECCAK256 SLOAD PUSH2 0x2471 DUP2 DUP11 PUSH2 0x2C83 JUMP JUMPDEST PUSH1 0x1 PUSH1 0x1 PUSH1 0xA0 SHL SUB DUP5 AND PUSH1 0x0 SWAP1 DUP2 MSTORE PUSH1 0xD PUSH1 0x20 SWAP1 DUP2 MSTORE PUSH1 0x40 DUP1 DUP4 KECCAK256 PUSH1 0x2 DUP16 DUP2 SIGNEXTEND SWAP1 SIGNEXTEND DUP5 MSTORE SWAP1 SWAP2 MSTORE SWAP1 KECCAK256 SSTORE PUSH2 0x24A4 DUP8 PUSH2 0x2E3C JUMP JUMPDEST PUSH1 0x40 DUP6 ADD DUP1 MLOAD SWAP2 SWAP1 SWAP2 SUB PUSH1 0x1 PUSH1 0x1 PUSH1 0x80 SHL SUB AND SWAP1 MSTORE PUSH2 0x24C2 DUP7 PUSH2 0x2E3C JUMP JUMPDEST PUSH1 0x60 DUP6 ADD DUP1 MLOAD SWAP2 SWAP1 SWAP2 SUB PUSH1 0x1 PUSH1 0x1 PUSH1 0x80 SHL SUB AND SWAP1 MSTORE PUSH2 0x24F0 DUP11 DUP6 DUP8 PUSH2 0x24E6 DUP12 PUSH2 0x3C6A JUMP JUMPDEST PUSH1 0x0 SUB PUSH1 0x0 PUSH2 0x3C80 JUMP JUMPDEST POP PUSH2 0x25D2 JUMP JUMPDEST PUSH1 0x1 PUSH1 0x1 PUSH1 0xA0 SHL SUB DUP3 AND PUSH1 0x0 SWAP1 DUP2 MSTORE PUSH1 0xC PUSH1 0x20 SWAP1 DUP2 MSTORE PUSH1 0x40 DUP1 DUP4 KECCAK256 PUSH1 0x2 DUP14 DUP2 SIGNEXTEND SWAP1 SIGNEXTEND DUP5 MSTORE SWAP1 SWAP2 MSTORE SWAP1 KECCAK256 SLOAD DUP9 GT ISZERO PUSH2 0x252C JUMPI PUSH1 0x0 DUP1 REVERT JUMPDEST PUSH1 0x1 PUSH1 0x1 PUSH1 0xA0 SHL SUB DUP3 AND PUSH1 0x0 SWAP1 DUP2 MSTORE PUSH1 0xC PUSH1 0x20 SWAP1 DUP2 MSTORE PUSH1 0x40 DUP1 DUP4 KECCAK256 PUSH1 0x2 DUP14 DUP2 SIGNEXTEND SWAP1 SIGNEXTEND DUP5 MSTORE SWAP1 SWAP2 MSTORE SWAP1 KECCAK256 SLOAD PUSH2 0x2560 DUP2 DUP11 PUSH2 0x2C83 JUMP JUMPDEST PUSH1 0x1 PUSH1 0x1 PUSH1 0xA0 SHL SUB DUP5 AND PUSH1 0x0 SWAP1 DUP2 MSTORE PUSH1 0xC PUSH1 0x20 SWAP1 DUP2 MSTORE PUSH1 0x40 DUP1 DUP4 KECCAK256 PUSH1 0x2 DUP16 DUP2 SIGNEXTEND SWAP1 SIGNEXTEND DUP5 MSTORE SWAP1 SWAP2 MSTORE SWAP1 KECCAK256 SSTORE PUSH2 0x2593 DUP8 PUSH2 0x2E3C JUMP JUMPDEST PUSH1 0x20 DUP6 ADD DUP1 MLOAD SWAP2 SWAP1 SWAP2 SUB PUSH1 0x1 PUSH1 0x1 PUSH1 0x80 SHL SUB AND SWAP1 MSTORE PUSH2 0x25B1 DUP7 PUSH2 0x2E3C JUMP JUMPDEST DUP5 MLOAD SUB PUSH1 0x1 PUSH1 0x1 PUSH1 0x80 SHL SUB AND DUP5 MSTORE PUSH2 0x25D0 DUP11 DUP6 DUP8 PUSH1 0x0 PUSH2 0x1A95 DUP12 PUSH2 0x3C6A JUMP JUMPDEST POP JUMPDEST DUP7 DUP1 ISZERO PUSH2 0x25DF JUMPI POP PUSH1 0x0 DUP6 GT JUMPDEST ISZERO PUSH2 0x2616 JUMPI PUSH2 0x25F9 PUSH1 0x0 PUSH2 0x1437 PUSH1 0x64 PUSH2 0x1632 DUP10 PUSH1 0x3 PUSH2 0x3541 JUMP JUMPDEST PUSH2 0x2613 PUSH2 0x260C PUSH1 0x64 PUSH2 0x1632 DUP9 PUSH1 0x3 PUSH2 0x3541 JUMP JUMPDEST DUP7 SWAP1 PUSH2 0x2C83 JUMP JUMPDEST SWAP5 POP JUMPDEST DUP7 ISZERO DUP1 ISZERO PUSH2 0x2624 JUMPI POP PUSH1 0x0 DUP7 GT JUMPDEST ISZERO PUSH2 0x2660 JUMPI PUSH2 0x2643 PUSH2 0x263C PUSH1 0x64 PUSH2 0x1632 DUP10 PUSH1 0x3 PUSH2 0x3541 JUMP JUMPDEST PUSH1 0x0 PUSH2 0x32C1 JUMP JUMPDEST PUSH2 0x265D PUSH2 0x2656 PUSH1 0x64 PUSH2 0x1632 DUP9 PUSH1 0x3 PUSH2 0x3541 JUMP JUMPDEST DUP8 SWAP1 PUSH2 0x2C83 JUMP JUMPDEST SWAP6 POP JUMPDEST PUSH2 0x266D DUP3 DUP8 DUP8 PUSH1 0x0 PUSH2 0x3212 JUMP JUMPDEST POP POP DUP2 PUSH1 0x1 PUSH1 0x1 PUSH1 0xA0 SHL SUB AND PUSH32 0x884E468729443F48E19C8F9AE60F027026340405904D8ACA6016DE907F671538 DUP11 DUP10 PUSH2 0x26AE JUMPI PUSH2 0x26A9 DUP12 PUSH2 0x2E3C JUMP JUMPDEST PUSH2 0x26B1 JUMP JUMPDEST PUSH1 0x0 JUMPDEST DUP11 PUSH2 0x26BD JUMPI PUSH1 0x0 PUSH2 0x26C6 JUMP JUMPDEST PUSH2 0x26C6 DUP13 PUSH2 0x2E3C JUMP JUMPDEST PUSH2 0x26CF DUP12 PUSH2 0x2E3C JUMP JUMPDEST PUSH2 0x26D8 DUP12 PUSH2 0x2E3C JUMP JUMPDEST PUSH1 0x40 DUP1 MLOAD PUSH1 0x2 SWAP7 SWAP1 SWAP7 SIGNEXTEND DUP7 MSTORE PUSH1 0x1 PUSH1 0x1 PUSH1 0x80 SHL SUB SWAP5 DUP6 AND PUSH1 0x20 DUP8 ADD MSTORE SWAP3 DUP5 AND DUP6 DUP5 ADD MSTORE SWAP1 DUP4 AND PUSH1 0x60 DUP6 ADD MSTORE SWAP1 SWAP2 AND PUSH1 0x80 DUP4 ADD MSTORE MLOAD SWAP1 DUP2 SWAP1 SUB PUSH1 0xA0 ADD SWAP1 LOG2 PUSH2 0x1096 PUSH2 0x2FC1 JUMP JUMPDEST PUSH1 0x0 DUP1 DUP1 DUP1 DUP1 ADDRESS PUSH4 0x2EA5E1F PUSH1 0xE0 SHL DUP9 DUP9 DUP1 PUSH2 0x273D JUMPI PUSH3 0x7FFFFE NOT PUSH2 0x2742 JUMP JUMPDEST PUSH3 0x7FFFFF JUMPDEST PUSH1 0x40 DUP1 MLOAD PUSH1 0x24 DUP2 ADD SWAP5 SWAP1 SWAP5 MSTORE SWAP2 ISZERO ISZERO PUSH1 0x44 DUP5 ADD MSTORE PUSH1 0x2 SIGNEXTEND PUSH1 0x64 DUP1 DUP5 ADD SWAP2 SWAP1 SWAP2 MSTORE DUP2 MLOAD DUP1 DUP5 SUB SWAP1 SWAP2 ADD DUP2 MSTORE PUSH1 0x84 SWAP1 SWAP3 ADD DUP2 MSTORE PUSH1 0x20 DUP3 ADD DUP1 MLOAD PUSH1 0x1 PUSH1 0x1 PUSH1 0xE0 SHL SUB AND PUSH1 0x1 PUSH1 0x1 PUSH1 0xE0 SHL SUB NOT SWAP1 SWAP5 AND SWAP4 SWAP1 SWAP4 OR DUP4 MSTORE MLOAD DUP2 MLOAD SWAP2 SWAP3 SWAP1 SWAP2 DUP3 SWAP2 SWAP1 DUP1 DUP4 DUP4 JUMPDEST PUSH1 0x20 DUP4 LT PUSH2 0x27C1 JUMPI DUP1 MLOAD DUP3 MSTORE PUSH1 0x1F NOT SWAP1 SWAP3 ADD SWAP2 PUSH1 0x20 SWAP2 DUP3 ADD SWAP2 ADD PUSH2 0x27A2 JUMP JUMPDEST PUSH1 0x1 DUP4 PUSH1 0x20 SUB PUSH2 0x100 EXP SUB DUP1 NOT DUP3 MLOAD AND DUP2 DUP5 MLOAD AND DUP1 DUP3 OR DUP6 MSTORE POP POP POP POP POP POP SWAP1 POP ADD SWAP2 POP POP PUSH1 0x0 PUSH1 0x40 MLOAD DUP1 DUP4 SUB DUP2 DUP6 GAS STATICCALL SWAP2 POP POP RETURNDATASIZE DUP1 PUSH1 0x0 DUP2 EQ PUSH2 0x2DE JUMPI PUSH1 0x40 MLOAD SWAP2 POP PUSH1 0x1F NOT PUSH1 0x3F RETURNDATASIZE ADD AND DUP3 ADD PUSH1 0x40 MSTORE RETURNDATASIZE DUP3 MSTORE RETURNDATASIZE PUSH1 0x0 PUSH1 0x20 DUP5 ADD RETURNDATACOPY PUSH2 0x2E3 JUMP JUMPDEST PUSH1 0x14 SLOAD PUSH1 0x1 PUSH1 0x1 PUSH1 0xA0 SHL SUB AND DUP2 JUMP JUMPDEST PUSH1 0x4 SLOAD PUSH1 0x80 DUP2 SWAP1 SHR SWAP2 PUSH1 0x1 PUSH1 0x1 PUSH1 0x80 SHL SUB SWAP1 SWAP2 AND SWAP1 JUMP JUMPDEST PUSH1 0x17 PUSH1 0x20 SWAP1 DUP2 MSTORE PUSH1 0x0 SWAP3 DUP4 MSTORE PUSH1 0x40 DUP1 DUP5 KECCAK256 SWAP1 SWAP2 MSTORE SWAP1 DUP3 MSTORE SWAP1 KECCAK256 SLOAD DUP2 JUMP JUMPDEST PUSH1 0xD PUSH1 0x20 SWAP1 DUP2 MSTORE PUSH1 0x0 SWAP3 DUP4 MSTORE PUSH1 0x40 DUP1 DUP5 KECCAK256 SWAP1 SWAP2 MSTORE SWAP1 DUP3 MSTORE SWAP1 KECCAK256 SLOAD DUP2 JUMP JUMPDEST PUSH1 0x0 DUP1 PUSH1 0x0 DUP1 PUSH1 0x0 PUSH2 0x2892 DUP8 PUSH2 0x3EDC JUMP JUMPDEST SWAP4 POP SWAP4 POP SWAP4 POP SWAP4 POP PUSH2 0x28BA PUSH1 0x5 DUP8 PUSH1 0x2 DUP2 LT PUSH2 0x28AA JUMPI INVALID JUMPDEST ADD SLOAD PUSH2 0x28B5 DUP7 PUSH2 0x3F1B JUMP JUMPDEST PUSH2 0x3F24 JUMP JUMPDEST ISZERO PUSH2 0x28CC JUMPI PUSH1 0x1 SWAP5 POP POP POP POP POP PUSH2 0xCE8 JUMP JUMPDEST PUSH2 0x28F5 PUSH1 0x7 DUP8 PUSH1 0x2 DUP2 LT PUSH2 0x28DC JUMPI INVALID JUMPDEST PUSH1 0x0 DUP8 DUP2 SIGNEXTEND DUP2 SIGNEXTEND DUP2 MSTORE SWAP2 ADD PUSH1 0x20 MSTORE PUSH1 0x40 SWAP1 KECCAK256 SLOAD DUP5 PUSH2 0x3F24 JUMP JUMPDEST ISZERO PUSH2 0x2907 JUMPI PUSH1 0x1 SWAP5 POP POP POP POP POP PUSH2 0xCE8 JUMP JUMPDEST PUSH2 0x2933 PUSH1 0x9 DUP8 PUSH1 0x2 DUP2 LT PUSH2 0x2917 JUMPI INVALID JUMPDEST PUSH1 0x1 DUP6 DUP2 SIGNEXTEND SWAP1 SIGNEXTEND PUSH1 0x0 SWAP1 DUP2 MSTORE SWAP2 ADD PUSH1 0x20 MSTORE PUSH1 0x40 SWAP1 KECCAK256 SLOAD DUP3 PUSH2 0x3F24 JUMP JUMPDEST ISZERO PUSH2 0x2945 JUMPI PUSH1 0x1 SWAP5 POP POP POP POP POP PUSH2 0xCE8 JUMP JUMPDEST PUSH1 0x0 SWAP5 POP POP POP POP POP PUSH2 0xCE8 JUMP JUMPDEST PUSH1 0x19 PUSH1 0x20 MSTORE PUSH1 0x0 SWAP1 DUP2 MSTORE PUSH1 0x40 SWAP1 KECCAK256 SLOAD DUP2 JUMP JUMPDEST PUSH1 0x0 PUSH5 0x1000276A3 PUSH1 0x1 PUSH1 0x1 PUSH1 0xA0 SHL SUB DUP4 AND LT DUP1 ISZERO SWAP1 PUSH2 0x29A0 JUMPI POP PUSH20 0xFFFD8963EFD1FC6A506488495D951D5263988D26 PUSH1 0x1 PUSH1 0x1 PUSH1 0xA0 SHL SUB DUP4 AND LT JUMPDEST PUSH2 0x29D5 JUMPI PUSH1 0x40 DUP1 MLOAD PUSH3 0x461BCD PUSH1 0xE5 SHL DUP2 MSTORE PUSH1 0x20 PUSH1 0x4 DUP3 ADD MSTORE PUSH1 0x1 PUSH1 0x24 DUP3 ADD MSTORE PUSH1 0x29 PUSH1 0xF9 SHL PUSH1 0x44 DUP3 ADD MSTORE SWAP1 MLOAD SWAP1 DUP2 SWAP1 SUB PUSH1 0x64 ADD SWAP1 REVERT JUMPDEST PUSH5 0x100000000 PUSH1 0x1 PUSH1 0xC0 SHL SUB PUSH1 0x20 DUP4 SWAP1 SHL AND PUSH1 0x1 PUSH1 0x1 PUSH1 0x80 SHL SUB DUP2 GT PUSH1 0x7 SHL DUP2 DUP2 SHR PUSH8 0xFFFFFFFFFFFFFFFF DUP2 GT PUSH1 0x6 SHL SWAP1 DUP2 SHR PUSH4 0xFFFFFFFF DUP2 GT PUSH1 0x5 SHL SWAP1 DUP2 SHR PUSH2 0xFFFF DUP2 GT PUSH1 0x4 SHL SWAP1 DUP2 SHR PUSH1 0xFF DUP2 GT PUSH1 0x3 SWAP1 DUP2 SHL SWAP2 DUP3 SHR PUSH1 0xF DUP2 GT PUSH1 0x2 SHL SWAP1 DUP2 SHR SWAP2 DUP3 GT PUSH1 0x1 SWAP1 DUP2 SHL SWAP3 DUP4 SHR SWAP8 SWAP1 DUP9 GT SWAP7 OR SWAP1 SWAP5 OR SWAP1 SWAP3 OR OR SWAP1 SWAP2 OR OR OR PUSH1 0x80 DUP2 LT PUSH2 0x2A69 JUMPI PUSH1 0x7F DUP2 SUB DUP4 SWAP1 SHR SWAP2 POP PUSH2 0x2A73 JUMP JUMPDEST DUP1 PUSH1 0x7F SUB DUP4 SWAP1 SHL SWAP2 POP JUMPDEST SWAP1 DUP1 MUL PUSH1 0x7F DUP2 DUP2 SHR PUSH1 0xFF DUP4 DUP2 SHR SWAP2 SWAP1 SWAP2 SHR DUP1 MUL DUP1 DUP4 SHR DUP2 DUP4 SHR SHR DUP1 MUL DUP1 DUP5 SHR DUP2 DUP5 SHR SHR DUP1 MUL DUP1 DUP6 SHR DUP2 DUP6 SHR SHR DUP1 MUL DUP1 DUP7 SHR DUP2 DUP7 SHR SHR DUP1 MUL DUP1 DUP8 SHR DUP2 DUP8 SHR SHR DUP1 MUL DUP1 DUP9 SHR DUP2 DUP9 SHR SHR DUP1 MUL DUP1 DUP10 SHR DUP2 DUP10 SHR SHR DUP1 MUL DUP1 DUP11 SHR DUP2 DUP11 SHR SHR DUP1 MUL DUP1 DUP12 SHR DUP2 DUP12 SHR SHR DUP1 MUL DUP1 DUP13 SHR DUP2 DUP13 SHR SHR DUP1 MUL DUP1 DUP14 SHR DUP2 DUP14 SHR SHR DUP1 MUL DUP1 DUP15 SHR SWAP13 DUP2 SWAP1 SHR SWAP13 SWAP1 SWAP13 SHR DUP1 MUL SWAP13 DUP14 SWAP1 SHR SWAP15 SWAP14 PUSH1 0x7F NOT DUP16 ADD PUSH1 0x40 SHL PUSH1 0xC0 SWAP2 SWAP1 SWAP2 SHR PUSH8 0x8000000000000000 AND OR PUSH1 0xC1 SWAP12 SWAP1 SWAP12 SHR PUSH8 0x4000000000000000 AND SWAP11 SWAP1 SWAP11 OR PUSH1 0xC2 SWAP10 SWAP1 SWAP10 SHR PUSH8 0x2000000000000000 AND SWAP9 SWAP1 SWAP9 OR PUSH1 0xC3 SWAP8 SWAP1 SWAP8 SHR PUSH8 0x1000000000000000 AND SWAP7 SWAP1 SWAP7 OR PUSH1 0xC4 SWAP6 SWAP1 SWAP6 SHR PUSH8 0x800000000000000 AND SWAP5 SWAP1 SWAP5 OR PUSH1 0xC5 SWAP4 SWAP1 SWAP4 SHR PUSH8 0x400000000000000 AND SWAP3 SWAP1 SWAP3 OR PUSH1 0xC6 SWAP2 SWAP1 SWAP2 SHR PUSH8 0x200000000000000 AND OR PUSH1 0xC7 SWAP2 SWAP1 SWAP2 SHR PUSH8 0x100000000000000 AND OR PUSH1 0xC8 SWAP2 SWAP1 SWAP2 SHR PUSH7 0x80000000000000 AND OR PUSH1 0xC9 SWAP2 SWAP1 SWAP2 SHR PUSH7 0x40000000000000 AND OR PUSH1 0xCA SWAP2 SWAP1 SWAP2 SHR PUSH7 0x20000000000000 AND OR PUSH1 0xCB SWAP2 SWAP1 SWAP2 SHR PUSH7 0x10000000000000 AND OR PUSH1 0xCC SWAP2 SWAP1 SWAP2 SHR PUSH7 0x8000000000000 AND OR PUSH1 0xCD SWAP2 SWAP1 SWAP2 SHR PUSH7 0x4000000000000 AND OR PUSH10 0x3627A301D71055774C85 DUP2 MUL PUSH16 0x28F6481AB7F045A5AF012A19D003AA9 NOT DUP2 ADD PUSH1 0x80 SWAP1 DUP2 SAR SWAP1 PUSH16 0xDB2DF09E81959A81455E260799A0632F DUP4 ADD SWAP1 SAR PUSH1 0x2 DUP2 DUP2 SIGNEXTEND SWAP1 DUP4 SWAP1 SIGNEXTEND EQ PUSH2 0x2C74 JUMPI DUP9 PUSH1 0x1 PUSH1 0x1 PUSH1 0xA0 SHL SUB AND PUSH2 0x2C58 DUP3 PUSH2 0x3923 JUMP JUMPDEST PUSH1 0x1 PUSH1 0x1 PUSH1 0xA0 SHL SUB AND GT ISZERO PUSH2 0x2C6D JUMPI DUP2 PUSH2 0x2C6F JUMP JUMPDEST DUP1 JUMPDEST PUSH2 0x2C76 JUMP JUMPDEST DUP2 JUMPDEST SWAP10 SWAP9 POP POP POP POP POP POP POP POP POP JUMP JUMPDEST DUP1 DUP3 SUB DUP3 DUP2 GT ISZERO PUSH2 0xCE8 JUMPI PUSH1 0x40 DUP1 MLOAD PUSH3 0x461BCD PUSH1 0xE5 SHL DUP2 MSTORE PUSH1 0x20 PUSH1 0x4 DUP3 ADD MSTORE PUSH1 0x15 PUSH1 0x24 DUP3 ADD MSTORE PUSH21 0x64732D6D6174682D7375622D756E646572666C6F77 PUSH1 0x58 SHL PUSH1 0x44 DUP3 ADD MSTORE SWAP1 MLOAD SWAP1 DUP2 SWAP1 SUB PUSH1 0x64 ADD SWAP1 REVERT JUMPDEST PUSH1 0x1 PUSH1 0x1 PUSH1 0xA0 SHL SUB DUP1 DUP4 AND PUSH1 0x0 SWAP1 DUP2 MSTORE PUSH1 0x16 PUSH1 0x20 MSTORE PUSH1 0x40 DUP1 DUP3 KECCAK256 SLOAD SWAP3 DUP7 AND DUP3 MSTORE SWAP1 KECCAK256 SLOAD PUSH2 0x2D00 SWAP1 DUP4 PUSH2 0x2C83 JUMP JUMPDEST PUSH1 0x1 PUSH1 0x1 PUSH1 0xA0 SHL SUB DUP6 AND PUSH1 0x0 SWAP1 DUP2 MSTORE PUSH1 0x16 PUSH1 0x20 MSTORE PUSH1 0x40 SWAP1 KECCAK256 SSTORE PUSH2 0x2D23 DUP2 DUP4 PUSH2 0x2F72 JUMP JUMPDEST PUSH1 0x1 PUSH1 0x1 PUSH1 0xA0 SHL SUB DUP1 DUP6 AND PUSH1 0x0 DUP2 DUP2 MSTORE PUSH1 0x16 PUSH1 0x20 SWAP1 DUP2 MSTORE PUSH1 0x40 DUP1 DUP4 KECCAK256 SWAP6 SWAP1 SWAP6 SSTORE SWAP3 DUP9 AND DUP2 MSTORE PUSH1 0x18 SWAP1 SWAP3 MSTORE DUP3 DUP3 KECCAK256 SLOAD SWAP1 DUP3 MSTORE SWAP2 SWAP1 KECCAK256 SLOAD PUSH2 0x2D64 SWAP2 SWAP1 DUP4 DUP6 PUSH2 0x3F32 JUMP JUMPDEST PUSH1 0x1 PUSH1 0x1 PUSH1 0xA0 SHL SUB DUP1 DUP6 AND PUSH1 0x0 DUP2 DUP2 MSTORE PUSH1 0x18 PUSH1 0x20 SWAP1 DUP2 MSTORE PUSH1 0x40 DUP1 DUP4 KECCAK256 SWAP6 SWAP1 SWAP6 SSTORE SWAP3 DUP9 AND DUP2 MSTORE PUSH1 0x19 SWAP1 SWAP3 MSTORE DUP3 DUP3 KECCAK256 SLOAD SWAP1 DUP3 MSTORE SWAP2 SWAP1 KECCAK256 SLOAD PUSH2 0x2DA5 SWAP2 SWAP1 DUP4 DUP6 PUSH2 0x3F32 JUMP JUMPDEST PUSH1 0x1 PUSH1 0x1 PUSH1 0xA0 SHL SUB DUP1 DUP6 AND PUSH1 0x0 DUP2 DUP2 MSTORE PUSH1 0x19 PUSH1 0x20 SWAP1 DUP2 MSTORE PUSH1 0x40 SWAP2 DUP3 SWAP1 KECCAK256 SWAP5 SWAP1 SWAP5 SSTORE DUP1 MLOAD DUP7 DUP2 MSTORE SWAP1 MLOAD SWAP2 SWAP4 SWAP3 DUP9 AND SWAP3 PUSH32 0xDDF252AD1BE2C89B69C2B068FC378DAA952BA7F163C4A11628F55A4DF523B3EF SWAP3 SWAP2 DUP3 SWAP1 SUB ADD SWAP1 LOG3 POP POP POP POP JUMP JUMPDEST PUSH1 0x0 PUSH2 0x2E0F DUP5 DUP5 DUP5 PUSH2 0x35F5 JUMP JUMPDEST SWAP1 POP PUSH1 0x0 DUP3 DUP1 PUSH2 0x2E1B JUMPI INVALID JUMPDEST DUP5 DUP7 MULMOD GT ISZERO PUSH2 0xE66 JUMPI PUSH1 0x0 NOT DUP2 LT PUSH2 0x2E32 JUMPI PUSH1 0x0 DUP1 REVERT JUMPDEST PUSH1 0x1 ADD SWAP4 SWAP3 POP POP POP JUMP JUMPDEST DUP1 PUSH1 0x1 PUSH1 0x1 PUSH1 0x80 SHL SUB DUP2 AND DUP2 EQ PUSH2 0x2E52 JUMPI PUSH1 0x0 DUP1 REVERT JUMPDEST SWAP2 SWAP1 POP JUMP JUMPDEST PUSH1 0x14 SLOAD PUSH1 0x40 DUP1 MLOAD ADDRESS PUSH1 0x24 DUP1 DUP4 ADD SWAP2 SWAP1 SWAP2 MSTORE DUP3 MLOAD DUP1 DUP4 SUB SWAP1 SWAP2 ADD DUP2 MSTORE PUSH1 0x44 SWAP1 SWAP2 ADD DUP3 MSTORE PUSH1 0x20 DUP2 ADD DUP1 MLOAD PUSH1 0x1 PUSH1 0x1 PUSH1 0xE0 SHL SUB AND PUSH4 0x70A08231 PUSH1 0xE0 SHL OR DUP2 MSTORE SWAP2 MLOAD DUP2 MLOAD PUSH1 0x0 SWAP5 DUP6 SWAP5 DUP6 SWAP5 PUSH1 0x1 PUSH1 0x1 PUSH1 0xA0 SHL SUB SWAP1 SWAP3 AND SWAP4 SWAP2 SWAP3 DUP3 SWAP2 SWAP1 DUP1 DUP4 DUP4 JUMPDEST PUSH1 0x20 DUP4 LT PUSH2 0x2ED2 JUMPI DUP1 MLOAD DUP3 MSTORE PUSH1 0x1F NOT SWAP1 SWAP3 ADD SWAP2 PUSH1 0x20 SWAP2 DUP3 ADD SWAP2 ADD PUSH2 0x2EB3 JUMP JUMPDEST PUSH1 0x1 DUP4 PUSH1 0x20 SUB PUSH2 0x100 EXP SUB DUP1 NOT DUP3 MLOAD AND DUP2 DUP5 MLOAD AND DUP1 DUP3 OR DUP6 MSTORE POP POP POP POP POP POP SWAP1 POP ADD SWAP2 POP POP PUSH1 0x0 PUSH1 0x40 MLOAD DUP1 DUP4 SUB DUP2 DUP6 GAS STATICCALL SWAP2 POP POP RETURNDATASIZE DUP1 PUSH1 0x0 DUP2 EQ PUSH2 0x2F32 JUMPI PUSH1 0x40 MLOAD SWAP2 POP PUSH1 0x1F NOT PUSH1 0x3F RETURNDATASIZE ADD AND DUP3 ADD PUSH1 0x40 MSTORE RETURNDATASIZE DUP3 MSTORE RETURNDATASIZE PUSH1 0x0 PUSH1 0x20 DUP5 ADD RETURNDATACOPY PUSH2 0x2F37 JUMP JUMPDEST PUSH1 0x60 SWAP2 POP JUMPDEST POP SWAP2 POP SWAP2 POP DUP2 DUP1 ISZERO PUSH2 0x2F4B JUMPI POP PUSH1 0x20 DUP2 MLOAD LT ISZERO JUMPDEST PUSH2 0x2F54 JUMPI PUSH1 0x0 DUP1 REVERT JUMPDEST DUP1 DUP1 PUSH1 0x20 ADD SWAP1 MLOAD PUSH1 0x20 DUP2 LT ISZERO PUSH2 0x2F69 JUMPI PUSH1 0x0 DUP1 REVERT JUMPDEST POP MLOAD SWAP3 POP POP POP SWAP1 JUMP JUMPDEST DUP1 DUP3 ADD DUP3 DUP2 LT ISZERO PUSH2 0xCE8 JUMPI PUSH1 0x40 DUP1 MLOAD PUSH3 0x461BCD PUSH1 0xE5 SHL DUP2 MSTORE PUSH1 0x20 PUSH1 0x4 DUP3 ADD MSTORE PUSH1 0x14 PUSH1 0x24 DUP3 ADD MSTORE PUSH20 0x64732D6D6174682D6164642D6F766572666C6F77 PUSH1 0x60 SHL PUSH1 0x44 DUP3 ADD MSTORE SWAP1 MLOAD SWAP1 DUP2 SWAP1 SUB PUSH1 0x64 ADD SWAP1 REVERT JUMPDEST PUSH1 0x13 SLOAD PUSH1 0x40 DUP1 MLOAD ADDRESS PUSH1 0x24 DUP1 DUP4 ADD SWAP2 SWAP1 SWAP2 MSTORE DUP3 MLOAD DUP1 DUP4 SUB SWAP1 SWAP2 ADD DUP2 MSTORE PUSH1 0x44 SWAP1 SWAP2 ADD DUP3 MSTORE PUSH1 0x20 DUP2 ADD DUP1 MLOAD PUSH1 0x1 PUSH1 0x1 PUSH1 0xE0 SHL SUB AND PUSH4 0x70A08231 PUSH1 0xE0 SHL OR DUP2 MSTORE SWAP2 MLOAD DUP2 MLOAD PUSH1 0x0 SWAP5 DUP6 SWAP5 DUP6 SWAP5 PUSH1 0x1 PUSH1 0x1 PUSH1 0xA0 SHL SUB SWAP1 SWAP3 AND SWAP4 SWAP2 SWAP3 DUP3 SWAP2 SWAP1 DUP1 DUP4 DUP4 PUSH1 0x20 DUP4 LT PUSH2 0x2ED2 JUMPI DUP1 MLOAD DUP3 MSTORE PUSH1 0x1F NOT SWAP1 SWAP3 ADD SWAP2 PUSH1 0x20 SWAP2 DUP3 ADD SWAP2 ADD PUSH2 0x2EB3 JUMP JUMPDEST PUSH1 0x40 DUP1 MLOAD PUSH1 0x24 DUP2 ADD DUP6 SWAP1 MSTORE DUP4 ISZERO ISZERO PUSH1 0x44 DUP3 ADD MSTORE PUSH1 0x2 DUP4 SWAP1 SIGNEXTEND PUSH1 0x64 DUP1 DUP4 ADD SWAP2 SWAP1 SWAP2 MSTORE DUP3 MLOAD DUP1 DUP4 SUB SWAP1 SWAP2 ADD DUP2 MSTORE PUSH1 0x84 SWAP1 SWAP2 ADD DUP3 MSTORE PUSH1 0x20 DUP2 ADD DUP1 MLOAD PUSH1 0x1 PUSH1 0x1 PUSH1 0xE0 SHL SUB AND PUSH4 0x2B8D2639 PUSH1 0xE1 SHL OR DUP2 MSTORE SWAP2 MLOAD DUP2 MLOAD PUSH1 0x0 SWAP4 DUP5 SWAP4 DUP5 SWAP4 DUP5 SWAP4 DUP5 SWAP4 PUSH1 0x1 PUSH1 0x1 PUSH1 0xA0 SHL SUB PUSH32 0x0 AND SWAP4 SWAP3 SWAP2 DUP3 SWAP2 SWAP1 DUP1 DUP4 DUP4 JUMPDEST PUSH1 0x20 DUP4 LT PUSH2 0x30E9 JUMPI DUP1 MLOAD DUP3 MSTORE PUSH1 0x1F NOT SWAP1 SWAP3 ADD SWAP2 PUSH1 0x20 SWAP2 DUP3 ADD SWAP2 ADD PUSH2 0x30CA JUMP JUMPDEST PUSH1 0x1 DUP4 PUSH1 0x20 SUB PUSH2 0x100 EXP SUB DUP1 NOT DUP3 MLOAD AND DUP2 DUP5 MLOAD AND DUP1 DUP3 OR DUP6 MSTORE POP POP POP POP POP POP SWAP1 POP ADD SWAP2 POP POP PUSH1 0x0 PUSH1 0x40 MLOAD DUP1 DUP4 SUB DUP2 DUP6 GAS DELEGATECALL SWAP2 POP POP RETURNDATASIZE DUP1 PUSH1 0x0 DUP2 EQ PUSH2 0x3149 JUMPI PUSH1 0x40 MLOAD SWAP2 POP PUSH1 0x1F NOT PUSH1 0x3F RETURNDATASIZE ADD AND DUP3 ADD PUSH1 0x40 MSTORE RETURNDATASIZE DUP3 MSTORE RETURNDATASIZE PUSH1 0x0 PUSH1 0x20 DUP5 ADD RETURNDATACOPY PUSH2 0x314E JUMP JUMPDEST PUSH1 0x60 SWAP2 POP JUMPDEST POP SWAP2 POP SWAP2 POP DUP2 DUP2 SWAP1 PUSH2 0x31DE JUMPI PUSH1 0x40 MLOAD PUSH3 0x461BCD PUSH1 0xE5 SHL DUP2 MSTORE PUSH1 0x4 ADD DUP1 DUP1 PUSH1 0x20 ADD DUP3 DUP2 SUB DUP3 MSTORE DUP4 DUP2 DUP2 MLOAD DUP2 MSTORE PUSH1 0x20 ADD SWAP2 POP DUP1 MLOAD SWAP1 PUSH1 0x20 ADD SWAP1 DUP1 DUP4 DUP4 PUSH1 0x0 JUMPDEST DUP4 DUP2 LT ISZERO PUSH2 0x31A3 JUMPI DUP2 DUP2 ADD MLOAD DUP4 DUP3 ADD MSTORE PUSH1 0x20 ADD PUSH2 0x318B JUMP JUMPDEST POP POP POP POP SWAP1 POP SWAP1 DUP2 ADD SWAP1 PUSH1 0x1F AND DUP1 ISZERO PUSH2 0x31D0 JUMPI DUP1 DUP3 SUB DUP1 MLOAD PUSH1 0x1 DUP4 PUSH1 0x20 SUB PUSH2 0x100 EXP SUB NOT AND DUP2 MSTORE PUSH1 0x20 ADD SWAP2 POP JUMPDEST POP SWAP3 POP POP POP PUSH1 0x40 MLOAD DUP1 SWAP2 SUB SWAP1 REVERT JUMPDEST POP DUP1 DUP1 PUSH1 0x20 ADD SWAP1 MLOAD PUSH1 0x60 DUP2 LT ISZERO PUSH2 0x31F4 JUMPI PUSH1 0x0 DUP1 REVERT JUMPDEST POP DUP1 MLOAD PUSH1 0x20 DUP3 ADD MLOAD PUSH1 0x40 SWAP1 SWAP3 ADD MLOAD SWAP1 SWAP11 SWAP2 SWAP10 POP SWAP8 POP SWAP6 POP POP POP POP POP POP JUMP JUMPDEST PUSH1 0x0 DUP1 DUP3 ISZERO PUSH2 0x3272 JUMPI PUSH1 0x0 DUP6 ISZERO PUSH2 0x323A JUMPI PUSH2 0x3235 PUSH2 0x3E8 PUSH2 0x1632 DUP9 PUSH2 0x3E5 PUSH2 0x3541 JUMP JUMPDEST PUSH2 0x323D JUMP JUMPDEST PUSH1 0x0 JUMPDEST SWAP1 POP PUSH1 0x0 DUP6 ISZERO PUSH2 0x325E JUMPI PUSH2 0x3259 PUSH2 0x3E8 PUSH2 0x1632 DUP9 PUSH2 0x3E5 PUSH2 0x3541 JUMP JUMPDEST PUSH2 0x3261 JUMP JUMPDEST PUSH1 0x0 JUMPDEST SWAP2 SWAP7 SWAP2 SWAP6 SWAP2 DUP8 SWAP1 SUB SWAP4 POP POP DUP5 SWAP1 SUB SWAP1 POP JUMPDEST DUP5 ISZERO PUSH2 0x3295 JUMPI PUSH1 0x13 SLOAD PUSH2 0x3295 SWAP1 PUSH1 0x1 PUSH1 0x1 PUSH1 0xA0 SHL SUB AND DUP8 PUSH2 0x1FF4 DUP9 PUSH2 0x19F0 PUSH2 0x2FC1 JUMP JUMPDEST DUP4 ISZERO PUSH2 0x32B8 JUMPI PUSH1 0x14 SLOAD PUSH2 0x32B8 SWAP1 PUSH1 0x1 PUSH1 0x1 PUSH1 0xA0 SHL SUB AND DUP8 PUSH2 0x1FF4 DUP8 PUSH2 0x19F0 PUSH2 0x2E57 JUMP JUMPDEST SWAP5 POP SWAP5 SWAP3 POP POP POP JUMP JUMPDEST PUSH1 0x1 SLOAD PUSH1 0x40 DUP1 MLOAD PUSH4 0x31056E57 PUSH1 0xE2 SHL DUP2 MSTORE SWAP1 MLOAD PUSH1 0x0 SWAP3 PUSH1 0x1 PUSH1 0x1 PUSH1 0xA0 SHL SUB AND SWAP2 PUSH4 0xC415B95C SWAP2 PUSH1 0x4 DUP1 DUP4 ADD SWAP3 PUSH1 0x20 SWAP3 SWAP2 SWAP1 DUP3 SWAP1 SUB ADD DUP2 DUP7 DUP1 EXTCODESIZE ISZERO DUP1 ISZERO PUSH2 0x3306 JUMPI PUSH1 0x0 DUP1 REVERT JUMPDEST POP GAS STATICCALL ISZERO DUP1 ISZERO PUSH2 0x331A JUMPI RETURNDATASIZE PUSH1 0x0 DUP1 RETURNDATACOPY RETURNDATASIZE PUSH1 0x0 REVERT JUMPDEST POP POP POP POP PUSH1 0x40 MLOAD RETURNDATASIZE PUSH1 0x20 DUP2 LT ISZERO PUSH2 0x3330 JUMPI PUSH1 0x0 DUP1 REVERT JUMPDEST POP MLOAD SWAP1 POP PUSH1 0x1 PUSH1 0x1 PUSH1 0xA0 SHL SUB DUP2 AND PUSH2 0x33A5 JUMPI DUP3 ISZERO PUSH2 0x3371 JUMPI PUSH2 0x336D PUSH2 0x3364 PUSH1 0x15 SLOAD PUSH1 0x60 DUP7 SWAP1 SHL PUSH2 0x36BA SWAP1 SWAP2 SWAP1 PUSH4 0xFFFFFFFF AND JUMP JUMPDEST PUSH1 0x1A SLOAD SWAP1 PUSH2 0x2F72 JUMP JUMPDEST PUSH1 0x1A SSTORE JUMPDEST DUP2 ISZERO PUSH2 0x33A0 JUMPI PUSH2 0x339C PUSH2 0x3393 PUSH1 0x15 SLOAD PUSH1 0x60 DUP6 SWAP1 SHL PUSH2 0x36BA SWAP1 SWAP2 SWAP1 PUSH4 0xFFFFFFFF AND JUMP JUMPDEST PUSH1 0x1B SLOAD SWAP1 PUSH2 0x2F72 JUMP JUMPDEST PUSH1 0x1B SSTORE JUMPDEST PUSH2 0x33D3 JUMP JUMPDEST PUSH1 0x13 SLOAD PUSH2 0x33BC SWAP1 PUSH1 0x1 PUSH1 0x1 PUSH1 0xA0 SHL SUB AND DUP3 DUP6 PUSH2 0x33D8 JUMP JUMPDEST PUSH1 0x14 SLOAD PUSH2 0x33D3 SWAP1 PUSH1 0x1 PUSH1 0x1 PUSH1 0xA0 SHL SUB AND DUP3 DUP5 PUSH2 0x33D8 JUMP JUMPDEST POP POP POP JUMP JUMPDEST PUSH1 0x40 DUP1 MLOAD PUSH1 0x1 PUSH1 0x1 PUSH1 0xA0 SHL SUB DUP5 DUP2 AND PUSH1 0x24 DUP4 ADD MSTORE PUSH1 0x44 DUP1 DUP4 ADD DUP6 SWAP1 MSTORE DUP4 MLOAD DUP1 DUP5 SUB SWAP1 SWAP2 ADD DUP2 MSTORE PUSH1 0x64 SWAP1 SWAP3 ADD DUP4 MSTORE PUSH1 0x20 DUP3 ADD DUP1 MLOAD PUSH1 0x1 PUSH1 0x1 PUSH1 0xE0 SHL SUB AND PUSH4 0xA9059CBB PUSH1 0xE0 SHL OR DUP2 MSTORE SWAP3 MLOAD DUP3 MLOAD PUSH1 0x0 SWAP5 DUP6 SWAP5 SWAP4 DUP10 AND SWAP4 SWAP3 SWAP2 DUP3 SWAP2 SWAP1 DUP1 DUP4 DUP4 JUMPDEST PUSH1 0x20 DUP4 LT PUSH2 0x3454 JUMPI DUP1 MLOAD DUP3 MSTORE PUSH1 0x1F NOT SWAP1 SWAP3 ADD SWAP2 PUSH1 0x20 SWAP2 DUP3 ADD SWAP2 ADD PUSH2 0x3435 JUMP JUMPDEST PUSH1 0x1 DUP4 PUSH1 0x20 SUB PUSH2 0x100 EXP SUB DUP1 NOT DUP3 MLOAD AND DUP2 DUP5 MLOAD AND DUP1 DUP3 OR DUP6 MSTORE POP POP POP POP POP POP SWAP1 POP ADD SWAP2 POP POP PUSH1 0x0 PUSH1 0x40 MLOAD DUP1 DUP4 SUB DUP2 PUSH1 0x0 DUP7 GAS CALL SWAP2 POP POP RETURNDATASIZE DUP1 PUSH1 0x0 DUP2 EQ PUSH2 0x34B6 JUMPI PUSH1 0x40 MLOAD SWAP2 POP PUSH1 0x1F NOT PUSH1 0x3F RETURNDATASIZE ADD AND DUP3 ADD PUSH1 0x40 MSTORE RETURNDATASIZE DUP3 MSTORE RETURNDATASIZE PUSH1 0x0 PUSH1 0x20 DUP5 ADD RETURNDATACOPY PUSH2 0x34BB JUMP JUMPDEST PUSH1 0x60 SWAP2 POP JUMPDEST POP SWAP2 POP SWAP2 POP DUP2 DUP1 ISZERO PUSH2 0x34E9 JUMPI POP DUP1 MLOAD ISZERO DUP1 PUSH2 0x34E9 JUMPI POP DUP1 DUP1 PUSH1 0x20 ADD SWAP1 MLOAD PUSH1 0x20 DUP2 LT ISZERO PUSH2 0x34E6 JUMPI PUSH1 0x0 DUP1 REVERT JUMPDEST POP MLOAD JUMPDEST PUSH2 0x353A JUMPI PUSH1 0x40 DUP1 MLOAD PUSH3 0x461BCD PUSH1 0xE5 SHL DUP2 MSTORE PUSH1 0x20 PUSH1 0x4 DUP3 ADD MSTORE PUSH1 0x1F PUSH1 0x24 DUP3 ADD MSTORE PUSH32 0x5472616E7366657248656C7065723A205452414E534645525F4641494C454400 PUSH1 0x44 DUP3 ADD MSTORE SWAP1 MLOAD SWAP1 DUP2 SWAP1 SUB PUSH1 0x64 ADD SWAP1 REVERT JUMPDEST POP POP POP POP POP JUMP JUMPDEST PUSH1 0x0 DUP2 ISZERO DUP1 PUSH2 0x355C JUMPI POP POP DUP1 DUP3 MUL DUP3 DUP3 DUP3 DUP2 PUSH2 0x3559 JUMPI INVALID JUMPDEST DIV EQ JUMPDEST PUSH2 0xCE8 JUMPI PUSH1 0x40 DUP1 MLOAD PUSH3 0x461BCD PUSH1 0xE5 SHL DUP2 MSTORE PUSH1 0x20 PUSH1 0x4 DUP3 ADD MSTORE PUSH1 0x14 PUSH1 0x24 DUP3 ADD MSTORE PUSH20 0x64732D6D6174682D6D756C2D6F766572666C6F77 PUSH1 0x60 SHL PUSH1 0x44 DUP3 ADD MSTORE SWAP1 MLOAD SWAP1 DUP2 SWAP1 SUB PUSH1 0x64 ADD SWAP1 REVERT JUMPDEST PUSH1 0x0 PUSH1 0x3 DUP3 GT ISZERO PUSH2 0x35E7 JUMPI POP DUP1 PUSH1 0x1 PUSH1 0x2 DUP3 DIV ADD JUMPDEST DUP2 DUP2 LT ISZERO PUSH2 0x35E1 JUMPI DUP1 SWAP2 POP PUSH1 0x2 DUP2 DUP3 DUP6 DUP2 PUSH2 0x35D0 JUMPI INVALID JUMPDEST DIV ADD DUP2 PUSH2 0x35D9 JUMPI INVALID JUMPDEST DIV SWAP1 POP PUSH2 0x35B9 JUMP JUMPDEST POP PUSH2 0x2E52 JUMP JUMPDEST DUP2 ISZERO PUSH2 0x2E52 JUMPI POP PUSH1 0x1 SWAP2 SWAP1 POP JUMP JUMPDEST PUSH1 0x0 DUP1 DUP1 PUSH1 0x0 NOT DUP6 DUP8 MULMOD DUP7 DUP7 MUL SWAP3 POP DUP3 DUP2 LT SWAP1 DUP4 SWAP1 SUB SUB SWAP1 POP DUP1 PUSH2 0x362B JUMPI PUSH1 0x0 DUP5 GT PUSH2 0x3620 JUMPI PUSH1 0x0 DUP1 REVERT JUMPDEST POP DUP3 SWAP1 DIV SWAP1 POP PUSH2 0xE66 JUMP JUMPDEST DUP1 DUP5 GT PUSH2 0x3637 JUMPI PUSH1 0x0 DUP1 REVERT JUMPDEST PUSH1 0x0 DUP5 DUP7 DUP9 MULMOD PUSH1 0x0 DUP7 DUP2 SUB DUP8 AND SWAP7 DUP8 SWAP1 DIV SWAP7 PUSH1 0x2 PUSH1 0x3 DUP10 MUL DUP2 XOR DUP1 DUP11 MUL DUP3 SUB MUL DUP1 DUP11 MUL DUP3 SUB MUL DUP1 DUP11 MUL DUP3 SUB MUL DUP1 DUP11 MUL DUP3 SUB MUL DUP1 DUP11 MUL DUP3 SUB MUL DUP1 DUP11 MUL SWAP1 SWAP2 SUB MUL SWAP2 DUP2 SWAP1 SUB DUP2 SWAP1 DIV PUSH1 0x1 ADD DUP7 DUP5 GT SWAP1 SWAP6 SUB SWAP5 SWAP1 SWAP5 MUL SWAP2 SWAP1 SWAP5 SUB SWAP3 SWAP1 SWAP3 DIV SWAP2 SWAP1 SWAP2 OR SWAP2 SWAP1 SWAP2 MUL SWAP2 POP POP SWAP4 SWAP3 POP POP POP JUMP JUMPDEST DUP1 PUSH1 0x1 PUSH1 0x1 PUSH1 0xA0 SHL SUB DUP2 AND DUP2 EQ PUSH2 0x2E52 JUMPI PUSH1 0x0 DUP1 REVERT JUMPDEST PUSH1 0x0 DUP2 DUP4 DUP2 PUSH2 0x36C5 JUMPI INVALID JUMPDEST DIV SWAP4 SWAP3 POP POP POP JUMP JUMPDEST PUSH1 0x15 SLOAD PUSH2 0x36DA SWAP1 DUP3 PUSH2 0x2F72 JUMP JUMPDEST PUSH1 0x15 SSTORE PUSH1 0x1 PUSH1 0x1 PUSH1 0xA0 SHL SUB DUP3 AND PUSH1 0x0 SWAP1 DUP2 MSTORE PUSH1 0x16 PUSH1 0x20 MSTORE PUSH1 0x40 SWAP1 KECCAK256 SLOAD PUSH2 0x3700 DUP2 DUP4 PUSH2 0x2F72 JUMP JUMPDEST PUSH1 0x1 PUSH1 0x1 PUSH1 0xA0 SHL SUB DUP5 AND PUSH1 0x0 SWAP1 DUP2 MSTORE PUSH1 0x16 PUSH1 0x20 SWAP1 DUP2 MSTORE PUSH1 0x40 DUP1 DUP4 KECCAK256 SWAP4 SWAP1 SWAP4 SSTORE PUSH1 0x1A SLOAD PUSH1 0x18 SWAP1 SWAP2 MSTORE SWAP2 SWAP1 KECCAK256 SLOAD PUSH2 0x3737 SWAP2 SWAP1 DUP4 DUP6 PUSH2 0x3F32 JUMP JUMPDEST PUSH1 0x1 PUSH1 0x1 PUSH1 0xA0 SHL SUB DUP5 AND PUSH1 0x0 SWAP1 DUP2 MSTORE PUSH1 0x18 PUSH1 0x20 SWAP1 DUP2 MSTORE PUSH1 0x40 DUP1 DUP4 KECCAK256 SWAP4 SWAP1 SWAP4 SSTORE PUSH1 0x1B SLOAD PUSH1 0x19 SWAP1 SWAP2 MSTORE SWAP2 SWAP1 KECCAK256 SLOAD PUSH2 0x376E SWAP2 SWAP1 DUP4 DUP6 PUSH2 0x3F32 JUMP JUMPDEST PUSH1 0x1 PUSH1 0x1 PUSH1 0xA0 SHL SUB DUP5 AND PUSH1 0x0 DUP2 DUP2 MSTORE PUSH1 0x19 PUSH1 0x20 SWAP1 DUP2 MSTORE PUSH1 0x40 DUP1 DUP4 KECCAK256 SWAP5 SWAP1 SWAP5 SSTORE DUP4 MLOAD DUP7 DUP2 MSTORE SWAP4 MLOAD SWAP3 SWAP4 SWAP2 SWAP3 PUSH32 0xDDF252AD1BE2C89B69C2B068FC378DAA952BA7F163C4A11628F55A4DF523B3EF SWAP3 DUP2 SWAP1 SUB SWAP1 SWAP2 ADD SWAP1 LOG3 POP POP POP JUMP JUMPDEST PUSH1 0x40 DUP1 MLOAD PUSH1 0x1 PUSH1 0x1 PUSH1 0xA0 SHL SUB DUP6 DUP2 AND PUSH1 0x24 DUP4 ADD MSTORE DUP5 DUP2 AND PUSH1 0x44 DUP4 ADD MSTORE PUSH1 0x64 DUP1 DUP4 ADD DUP6 SWAP1 MSTORE DUP4 MLOAD DUP1 DUP5 SUB SWAP1 SWAP2 ADD DUP2 MSTORE PUSH1 0x84 SWAP1 SWAP3 ADD DUP4 MSTORE PUSH1 0x20 DUP3 ADD DUP1 MLOAD PUSH1 0x1 PUSH1 0x1 PUSH1 0xE0 SHL SUB AND PUSH4 0x23B872DD PUSH1 0xE0 SHL OR DUP2 MSTORE SWAP3 MLOAD DUP3 MLOAD PUSH1 0x0 SWAP5 DUP6 SWAP5 SWAP4 DUP11 AND SWAP4 SWAP3 SWAP2 DUP3 SWAP2 SWAP1 DUP1 DUP4 DUP4 JUMPDEST PUSH1 0x20 DUP4 LT PUSH2 0x384B JUMPI DUP1 MLOAD DUP3 MSTORE PUSH1 0x1F NOT SWAP1 SWAP3 ADD SWAP2 PUSH1 0x20 SWAP2 DUP3 ADD SWAP2 ADD PUSH2 0x382C JUMP JUMPDEST PUSH1 0x1 DUP4 PUSH1 0x20 SUB PUSH2 0x100 EXP SUB DUP1 NOT DUP3 MLOAD AND DUP2 DUP5 MLOAD AND DUP1 DUP3 OR DUP6 MSTORE POP POP POP POP POP POP SWAP1 POP ADD SWAP2 POP POP PUSH1 0x0 PUSH1 0x40 MLOAD DUP1 DUP4 SUB DUP2 PUSH1 0x0 DUP7 GAS CALL SWAP2 POP POP RETURNDATASIZE DUP1 PUSH1 0x0 DUP2 EQ PUSH2 0x38AD JUMPI PUSH1 0x40 MLOAD SWAP2 POP PUSH1 0x1F NOT PUSH1 0x3F RETURNDATASIZE ADD AND DUP3 ADD PUSH1 0x40 MSTORE RETURNDATASIZE DUP3 MSTORE RETURNDATASIZE PUSH1 0x0 PUSH1 0x20 DUP5 ADD RETURNDATACOPY PUSH2 0x38B2 JUMP JUMPDEST PUSH1 0x60 SWAP2 POP JUMPDEST POP SWAP2 POP SWAP2 POP DUP2 DUP1 ISZERO PUSH2 0x38E0 JUMPI POP DUP1 MLOAD ISZERO DUP1 PUSH2 0x38E0 JUMPI POP DUP1 DUP1 PUSH1 0x20 ADD SWAP1 MLOAD PUSH1 0x20 DUP2 LT ISZERO PUSH2 0x38DD JUMPI PUSH1 0x0 DUP1 REVERT JUMPDEST POP MLOAD JUMPDEST PUSH2 0x391B JUMPI PUSH1 0x40 MLOAD PUSH3 0x461BCD PUSH1 0xE5 SHL DUP2 MSTORE PUSH1 0x4 ADD DUP1 DUP1 PUSH1 0x20 ADD DUP3 DUP2 SUB DUP3 MSTORE PUSH1 0x24 DUP2 MSTORE PUSH1 0x20 ADD DUP1 PUSH2 0x3F62 PUSH1 0x24 SWAP2 CODECOPY PUSH1 0x40 ADD SWAP2 POP POP PUSH1 0x40 MLOAD DUP1 SWAP2 SUB SWAP1 REVERT JUMPDEST POP POP POP POP POP POP JUMP JUMPDEST PUSH1 0x0 DUP1 PUSH1 0x0 DUP4 PUSH1 0x2 SIGNEXTEND SLT PUSH2 0x393A JUMPI DUP3 PUSH1 0x2 SIGNEXTEND PUSH2 0x3942 JUMP JUMPDEST DUP3 PUSH1 0x2 SIGNEXTEND PUSH1 0x0 SUB JUMPDEST SWAP1 POP PUSH3 0xD89E8 DUP2 GT ISZERO PUSH2 0x3980 JUMPI PUSH1 0x40 DUP1 MLOAD PUSH3 0x461BCD PUSH1 0xE5 SHL DUP2 MSTORE PUSH1 0x20 PUSH1 0x4 DUP3 ADD MSTORE PUSH1 0x1 PUSH1 0x24 DUP3 ADD MSTORE PUSH1 0x15 PUSH1 0xFA SHL PUSH1 0x44 DUP3 ADD MSTORE SWAP1 MLOAD SWAP1 DUP2 SWAP1 SUB PUSH1 0x64 ADD SWAP1 REVERT JUMPDEST PUSH1 0x0 PUSH1 0x1 DUP3 AND PUSH2 0x3994 JUMPI PUSH1 0x1 PUSH1 0x80 SHL PUSH2 0x39A6 JUMP JUMPDEST PUSH16 0xFFFCB933BD6FAD37AA2D162D1A594001 JUMPDEST PUSH17 0xFFFFFFFFFFFFFFFFFFFFFFFFFFFFFFFFFF AND SWAP1 POP PUSH1 0x2 DUP3 AND ISZERO PUSH2 0x39DA JUMPI PUSH16 0xFFF97272373D413259A46990580E213A MUL PUSH1 0x80 SHR JUMPDEST PUSH1 0x4 DUP3 AND ISZERO PUSH2 0x39F9 JUMPI PUSH16 0xFFF2E50F5F656932EF12357CF3C7FDCC MUL PUSH1 0x80 SHR JUMPDEST PUSH1 0x8 DUP3 AND ISZERO PUSH2 0x3A18 JUMPI PUSH16 0xFFE5CACA7E10E4E61C3624EAA0941CD0 MUL PUSH1 0x80 SHR JUMPDEST PUSH1 0x10 DUP3 AND ISZERO PUSH2 0x3A37 JUMPI PUSH16 0xFFCB9843D60F6159C9DB58835C926644 MUL PUSH1 0x80 SHR JUMPDEST PUSH1 0x20 DUP3 AND ISZERO PUSH2 0x3A56 JUMPI PUSH16 0xFF973B41FA98C081472E6896DFB254C0 MUL PUSH1 0x80 SHR JUMPDEST PUSH1 0x40 DUP3 AND ISZERO PUSH2 0x3A75 JUMPI PUSH16 0xFF2EA16466C96A3843EC78B326B52861 MUL PUSH1 0x80 SHR JUMPDEST PUSH1 0x80 DUP3 AND ISZERO PUSH2 0x3A94 JUMPI PUSH16 0xFE5DEE046A99A2A811C461F1969C3053 MUL PUSH1 0x80 SHR JUMPDEST PUSH2 0x100 DUP3 AND ISZERO PUSH2 0x3AB4 JUMPI PUSH16 0xFCBE86C7900A88AEDCFFC83B479AA3A4 MUL PUSH1 0x80 SHR JUMPDEST PUSH2 0x200 DUP3 AND ISZERO PUSH2 0x3AD4 JUMPI PUSH16 0xF987A7253AC413176F2B074CF7815E54 MUL PUSH1 0x80 SHR JUMPDEST PUSH2 0x400 DUP3 AND ISZERO PUSH2 0x3AF4 JUMPI PUSH16 0xF3392B0822B70005940C7A398E4B70F3 MUL PUSH1 0x80 SHR JUMPDEST PUSH2 0x800 DUP3 AND ISZERO PUSH2 0x3B14 JUMPI PUSH16 0xE7159475A2C29B7443B29C7FA6E889D9 MUL PUSH1 0x80 SHR JUMPDEST PUSH2 0x1000 DUP3 AND ISZERO PUSH2 0x3B34 JUMPI PUSH16 0xD097F3BDFD2022B8845AD8F792AA5825 MUL PUSH1 0x80 SHR JUMPDEST PUSH2 0x2000 DUP3 AND ISZERO PUSH2 0x3B54 JUMPI PUSH16 0xA9F746462D870FDF8A65DC1F90E061E5 MUL PUSH1 0x80 SHR JUMPDEST PUSH2 0x4000 DUP3 AND ISZERO PUSH2 0x3B74 JUMPI PUSH16 0x70D869A156D2A1B890BB3DF62BAF32F7 MUL PUSH1 0x80 SHR JUMPDEST PUSH2 0x8000 DUP3 AND ISZERO PUSH2 0x3B94 JUMPI PUSH16 0x31BE135F97D08FD981231505542FCFA6 MUL PUSH1 0x80 SHR JUMPDEST PUSH3 0x10000 DUP3 AND ISZERO PUSH2 0x3BB5 JUMPI PUSH16 0x9AA508B5B7A84E1C677DE54F3E99BC9 MUL PUSH1 0x80 SHR JUMPDEST PUSH3 0x20000 DUP3 AND ISZERO PUSH2 0x3BD5 JUMPI PUSH15 0x5D6AF8DEDB81196699C329225EE604 MUL PUSH1 0x80 SHR JUMPDEST PUSH3 0x40000 DUP3 AND ISZERO PUSH2 0x3BF4 JUMPI PUSH14 0x2216E584F5FA1EA926041BEDFE98 MUL PUSH1 0x80 SHR JUMPDEST PUSH3 0x80000 DUP3 AND ISZERO PUSH2 0x3C11 JUMPI PUSH12 0x48A170391F7DC42444E8FA2 MUL PUSH1 0x80 SHR JUMPDEST PUSH1 0x0 DUP5 PUSH1 0x2 SIGNEXTEND SGT ISZERO PUSH2 0x3C2C JUMPI DUP1 PUSH1 0x0 NOT DUP2 PUSH2 0x3C28 JUMPI INVALID JUMPDEST DIV SWAP1 POP JUMPDEST PUSH1 0x1 PUSH1 0x20 SHL DUP2 MOD ISZERO PUSH2 0x3C3F JUMPI PUSH1 0x1 PUSH2 0x3C42 JUMP JUMPDEST PUSH1 0x0 JUMPDEST PUSH1 0xFF AND PUSH1 0x20 DUP3 SWAP1 SHR ADD SWAP3 POP POP POP SWAP2 SWAP1 POP JUMP JUMPDEST PUSH1 0x0 DUP2 DUP4 LT PUSH2 0x3C63 JUMPI DUP2 PUSH2 0xE66 JUMP JUMPDEST POP SWAP1 SWAP2 SWAP1 POP JUMP JUMPDEST PUSH1 0x0 PUSH1 0x1 PUSH1 0xFF SHL DUP3 LT PUSH2 0x3C7C JUMPI PUSH1 0x0 DUP1 REVERT JUMPDEST POP SWAP1 JUMP JUMPDEST DUP4 MLOAD PUSH1 0x20 DUP1 DUP7 ADD MLOAD PUSH1 0x40 DUP1 DUP9 ADD MLOAD PUSH1 0x60 DUP10 ADD MLOAD DUP3 MLOAD PUSH1 0x2 DUP13 SWAP1 SIGNEXTEND PUSH1 0x24 DUP3 ADD MSTORE PUSH1 0x1 PUSH1 0x1 PUSH1 0x80 SHL SUB SWAP7 DUP8 AND PUSH1 0x44 DUP3 ADD MSTORE SWAP4 DUP7 AND PUSH1 0x64 DUP6 ADD MSTORE SWAP1 DUP6 AND PUSH1 0x84 DUP5 ADD MSTORE SWAP4 SWAP1 SWAP4 AND PUSH1 0xA4 DUP3 ADD MSTORE PUSH1 0x1 PUSH1 0x1 PUSH1 0xA0 SHL SUB DUP7 DUP2 AND PUSH1 0xC4 DUP4 ADD MSTORE PUSH1 0xE4 DUP3 ADD DUP7 SWAP1 MSTORE PUSH2 0x104 DUP1 DUP4 ADD DUP7 SWAP1 MSTORE DUP5 MLOAD DUP1 DUP5 SUB SWAP1 SWAP2 ADD DUP2 MSTORE PUSH2 0x124 SWAP1 SWAP3 ADD DUP5 MSTORE SWAP2 DUP2 ADD DUP1 MLOAD PUSH1 0x1 PUSH1 0x1 PUSH1 0xE0 SHL SUB AND PUSH4 0x7A3642AF PUSH1 0xE1 SHL OR DUP2 MSTORE SWAP3 MLOAD DUP2 MLOAD PUSH1 0x0 SWAP5 PUSH32 0x0 SWAP5 SWAP1 SWAP5 AND SWAP4 DUP3 SWAP2 DUP1 DUP4 DUP4 JUMPDEST PUSH1 0x20 DUP4 LT PUSH2 0x3D65 JUMPI DUP1 MLOAD DUP3 MSTORE PUSH1 0x1F NOT SWAP1 SWAP3 ADD SWAP2 PUSH1 0x20 SWAP2 DUP3 ADD SWAP2 ADD PUSH2 0x3D46 JUMP JUMPDEST PUSH1 0x1 DUP4 PUSH1 0x20 SUB PUSH2 0x100 EXP SUB DUP1 NOT DUP3 MLOAD AND DUP2 DUP5 MLOAD AND DUP1 DUP3 OR DUP6 MSTORE POP POP POP POP POP POP SWAP1 POP ADD SWAP2 POP POP PUSH1 0x0 PUSH1 0x40 MLOAD DUP1 DUP4 SUB DUP2 DUP6 GAS DELEGATECALL SWAP2 POP POP RETURNDATASIZE DUP1 PUSH1 0x0 DUP2 EQ PUSH2 0x3DC5 JUMPI PUSH1 0x40 MLOAD SWAP2 POP PUSH1 0x1F NOT PUSH1 0x3F RETURNDATASIZE ADD AND DUP3 ADD PUSH1 0x40 MSTORE RETURNDATASIZE DUP3 MSTORE RETURNDATASIZE PUSH1 0x0 PUSH1 0x20 DUP5 ADD RETURNDATACOPY PUSH2 0x3DCA JUMP JUMPDEST PUSH1 0x60 SWAP2 POP JUMPDEST POP POP SWAP1 POP DUP1 PUSH2 0x391B JUMPI PUSH1 0x0 DUP1 REVERT JUMPDEST PUSH1 0x1 PUSH1 0x1 PUSH1 0xA0 SHL SUB DUP3 AND PUSH1 0x0 SWAP1 DUP2 MSTORE PUSH1 0x16 PUSH1 0x20 MSTORE PUSH1 0x40 DUP2 KECCAK256 SLOAD DUP2 SWAP1 PUSH2 0x3DFD SWAP1 DUP5 PUSH2 0x2C83 JUMP JUMPDEST PUSH1 0x1 PUSH1 0x1 PUSH1 0xA0 SHL SUB DUP6 AND PUSH1 0x0 SWAP1 DUP2 MSTORE PUSH1 0x16 PUSH1 0x20 MSTORE PUSH1 0x40 SWAP1 KECCAK256 SSTORE PUSH1 0x15 SLOAD PUSH2 0x3E23 SWAP1 DUP5 PUSH2 0x2C83 JUMP JUMPDEST PUSH1 0x15 SSTORE PUSH1 0x40 DUP1 MLOAD DUP5 DUP2 MSTORE SWAP1 MLOAD PUSH1 0x0 SWAP2 PUSH1 0x1 PUSH1 0x1 PUSH1 0xA0 SHL SUB DUP8 AND SWAP2 PUSH32 0xDDF252AD1BE2C89B69C2B068FC378DAA952BA7F163C4A11628F55A4DF523B3EF SWAP2 DUP2 SWAP1 SUB PUSH1 0x20 ADD SWAP1 LOG3 PUSH1 0x1 PUSH1 0x1 PUSH1 0xA0 SHL SUB DUP5 AND PUSH1 0x0 SWAP1 DUP2 MSTORE PUSH1 0x18 PUSH1 0x20 MSTORE PUSH1 0x40 SWAP1 KECCAK256 SLOAD PUSH1 0x1A SLOAD PUSH1 0x60 SWAP2 PUSH2 0x3E9C SWAP2 DUP7 SWAP2 PUSH2 0x3E96 SWAP2 SWAP1 PUSH2 0x2C83 JUMP JUMPDEST SWAP1 PUSH2 0x3541 JUMP JUMPDEST PUSH1 0x1 PUSH1 0x1 PUSH1 0xA0 SHL SUB DUP7 AND PUSH1 0x0 SWAP1 DUP2 MSTORE PUSH1 0x19 PUSH1 0x20 MSTORE PUSH1 0x40 SWAP1 KECCAK256 SLOAD PUSH1 0x1B SLOAD SWAP2 SWAP1 SWAP3 SHR SWAP4 POP PUSH1 0x60 SWAP2 PUSH2 0x3ED1 SWAP2 DUP7 SWAP2 PUSH2 0x3E96 SWAP2 SWAP1 PUSH2 0x2C83 JUMP JUMPDEST SWAP1 SHR SWAP1 POP SWAP3 POP SWAP3 SWAP1 POP JUMP JUMPDEST PUSH1 0x0 DUP1 PUSH1 0x0 DUP1 PUSH1 0xE DUP6 PUSH1 0x2 SIGNEXTEND SWAP1 SAR SWAP4 POP PUSH1 0x40 PUSH1 0x8 DUP7 PUSH1 0x2 SIGNEXTEND SWAP1 SAR PUSH1 0x2 SIGNEXTEND DUP2 PUSH2 0x3F00 JUMPI INVALID JUMPDEST SWAP5 SWAP7 SWAP5 SMOD SWAP5 PUSH1 0x2 SIGNEXTEND PUSH1 0x8 DUP2 SWAP1 SAR SWAP5 PUSH2 0x100 SWAP1 SWAP2 SMOD SWAP4 POP SWAP2 POP POP JUMP JUMPDEST PUSH1 0x0 SIGNEXTEND PUSH1 0x7F ADD SWAP1 JUMP JUMPDEST PUSH1 0x1 PUSH1 0xFF SWAP1 SWAP2 AND SHL AND ISZERO ISZERO SWAP1 JUMP JUMPDEST PUSH1 0x0 PUSH2 0x3F58 PUSH2 0x3F41 DUP5 DUP5 PUSH2 0x2F72 JUMP JUMPDEST PUSH2 0x1632 PUSH2 0x3F4E DUP9 DUP7 PUSH2 0x3541 JUMP JUMPDEST PUSH2 0x15CE DUP9 DUP9 PUSH2 0x3541 JUMP JUMPDEST SWAP6 SWAP5 POP POP POP POP POP JUMP INVALID SLOAD PUSH19 0x616E7366657248656C7065723A205452414E53 CHAINID GASLIMIT MSTORE 0x5F CHAINID MSTORE 0x4F 0x4D 0x5F CHAINID COINBASE 0x49 0x4C GASLIMIT DIFFICULTY LOG2 PUSH5 0x6970667358 0x22 SLT KECCAK256 ISZERO PUSH3 0x6ADA4D JUMPDEST 0x28 DUP14 0xEB 0xD9 MSIZE SWAP4 BYTE SWAP5 SSTORE 0xE9 LT SWAP8 SMOD DUP5 0xCA CHAINID 0xAB 0xC7 DUP16 PUSH8 0x264B507F620C6473 PUSH16 0x6C634300070600330000000000000000 "
		},
		"gasEstimates": {
			"creation": {
				"codeDepositCost": "3263000",
				"executionCost": "infinite",
				"totalCost": "infinite"
			},
			"external": {
				"": "infinite",
				"allowance(address,address)": "1305",
				"amount0ToAmount1(uint256,uint160)": "infinite",
				"amount1ToAmount0(uint256,uint160)": "infinite",
				"approve(address,uint256)": "22369",
				"balanceOf(address)": "1214",
				"burn(address)": "infinite",
				"buyShare(address,int24)": "1265",
				"cancelLimitOrder(int24,uint256,bool)": "infinite",
				"claimableReward(address,uint256)": "infinite",
				"currentSqrtPriceX96()": "1171",
				"currentTick()": "3672",
				"decimals()": "275",
				"estOutput(uint256,bool)": "infinite",
				"flashLoan(address,uint256,uint256,bytes)": "infinite",
				"getDeep(int24)": "infinite",
				"getLimitTokens(int24,uint256,bool)": "infinite",
				"getTotalLimit()": "1127",
				"initTokenAddress(address,address)": "63629",
				"isExploited(int24,uint256)": "infinite",
				"lastBalance0()": "1065",
				"lastBalance1()": "1109",
				"liquidity()": "1088",
				"mint(address)": "infinite",
				"name()": "infinite",
				"putLimitOrder(int24,uint256,bool)": "infinite",
				"reserve0()": "2578",
				"reserve1()": "2574",
				"reward0PerTokenX96()": "1132",
				"reward1PerTokenX96()": "1088",
				"sellShare(address,int24)": "1329",
				"swap(uint256,bool,address)": "infinite",
				"symbol()": "infinite",
				"tickBitmap(int16)": "1203",
				"token0()": "1172",
				"token1()": "1081",
				"totalSupply()": "1066",
				"tradeCore()": "infinite",
				"transfer(address,uint256)": "infinite",
				"transferFrom(address,address,uint256)": "infinite",
				"writeOffReward0PerTokenX96(address)": "1237",
				"writeOffReward1PerTokenX96(address)": "1278"
			},
			"internal": {
				"balance0()": "infinite",
				"balance1()": "infinite",
				"trade(uint256,bool,int24)": "infinite",
				"transferTokens(address,uint256,uint256,bool)": "infinite",
				"updateDeep(int24,struct LimitswapStorage.tickDeep memory,uint160,int256,int256)": "infinite",
				"wordHighMap(int8)": "26"
			}
		},
		"methodIdentifiers": {
			"allowance(address,address)": "dd62ed3e",
			"amount0ToAmount1(uint256,uint160)": "bbea8f6a",
			"amount1ToAmount0(uint256,uint160)": "7a95fff4",
			"approve(address,uint256)": "095ea7b3",
			"balanceOf(address)": "70a08231",
			"burn(address)": "89afcb44",
			"buyShare(address,int24)": "2a354ad9",
			"cancelLimitOrder(int24,uint256,bool)": "bf62f97c",
			"claimableReward(address,uint256)": "6bd97f1d",
			"currentSqrtPriceX96()": "47fd03d9",
			"currentTick()": "065e5360",
			"decimals()": "313ce567",
			"estOutput(uint256,bool)": "cbfe3ab3",
			"flashLoan(address,uint256,uint256,bytes)": "679f0579",
			"getDeep(int24)": "1b69c941",
			"getLimitTokens(int24,uint256,bool)": "9371b012",
			"getTotalLimit()": "d8f9f12d",
			"initTokenAddress(address,address)": "15d44a6d",
			"isExploited(int24,uint256)": "f81cfa76",
			"lastBalance0()": "4d630907",
			"lastBalance1()": "8fbd64cb",
			"liquidity()": "1a686502",
			"mint(address)": "6a627842",
			"name()": "06fdde03",
			"putLimitOrder(int24,uint256,bool)": "88bb52ed",
			"reserve0()": "443cb4bc",
			"reserve1()": "5a76f25e",
			"reward0PerTokenX96()": "834d04af",
			"reward1PerTokenX96()": "3b8a829d",
			"sellShare(address,int24)": "ef6ae4cc",
			"swap(uint256,bool,address)": "4af0871b",
			"symbol()": "95d89b41",
			"tickBitmap(int16)": "5339c296",
			"token0()": "0dfe1681",
			"token1()": "d21220a7",
			"totalSupply()": "18160ddd",
			"tradeCore()": "8c7987b7",
			"transfer(address,uint256)": "a9059cbb",
			"transferFrom(address,address,uint256)": "23b872dd",
			"writeOffReward0PerTokenX96(address)": "0c4d32ed",
			"writeOffReward1PerTokenX96(address)": "fcf96952"
		}
	},
	"abi": [
		{
			"inputs": [
				{
					"internalType": "address",
					"name": "_tradeCore",
					"type": "address"
				}
			],
			"stateMutability": "nonpayable",
			"type": "constructor"
		},
		{
			"anonymous": false,
			"inputs": [
				{
					"indexed": true,
					"internalType": "address",
					"name": "owner",
					"type": "address"
				},
				{
					"indexed": true,
					"internalType": "address",
					"name": "spender",
					"type": "address"
				},
				{
					"indexed": false,
					"internalType": "uint256",
					"name": "value",
					"type": "uint256"
				}
			],
			"name": "Approval",
			"type": "event"
		},
		{
			"anonymous": false,
			"inputs": [
				{
					"indexed": true,
					"internalType": "address",
					"name": "miner",
					"type": "address"
				},
				{
					"indexed": false,
					"internalType": "uint256",
					"name": "amount0In",
					"type": "uint256"
				},
				{
					"indexed": false,
					"internalType": "uint256",
					"name": "sqrtPriceX96",
					"type": "uint256"
				},
				{
					"indexed": false,
					"internalType": "address",
					"name": "to",
					"type": "address"
				}
			],
			"name": "Burn",
			"type": "event"
		},
		{
			"anonymous": false,
			"inputs": [
				{
					"indexed": true,
					"internalType": "address",
					"name": "from",
					"type": "address"
				},
				{
					"indexed": false,
					"internalType": "int24",
					"name": "tick",
					"type": "int24"
				},
				{
					"indexed": false,
					"internalType": "uint128",
					"name": "buyShare",
					"type": "uint128"
				},
				{
					"indexed": false,
					"internalType": "uint128",
					"name": "sellShare",
					"type": "uint128"
				},
				{
					"indexed": false,
					"internalType": "uint128",
					"name": "token0Out",
					"type": "uint128"
				},
				{
					"indexed": false,
					"internalType": "uint128",
					"name": "token1Out",
					"type": "uint128"
				}
			],
			"name": "CancelLimit",
			"type": "event"
		},
		{
			"anonymous": false,
			"inputs": [
				{
					"indexed": true,
					"internalType": "address",
					"name": "miner",
					"type": "address"
				},
				{
					"indexed": false,
					"internalType": "uint256",
					"name": "amount0In",
					"type": "uint256"
				},
				{
					"indexed": false,
					"internalType": "uint256",
					"name": "sqrtPriceX96",
					"type": "uint256"
				},
				{
					"indexed": false,
					"internalType": "address",
					"name": "to",
					"type": "address"
				}
			],
			"name": "Mint",
			"type": "event"
		},
		{
			"anonymous": false,
			"inputs": [
				{
					"indexed": true,
					"internalType": "address",
					"name": "from",
					"type": "address"
				},
				{
					"indexed": false,
					"internalType": "int24",
					"name": "tick",
					"type": "int24"
				},
				{
					"indexed": false,
					"internalType": "uint128",
					"name": "buyShare",
					"type": "uint128"
				},
				{
					"indexed": false,
					"internalType": "uint128",
					"name": "sellShare",
					"type": "uint128"
				},
				{
					"indexed": false,
					"internalType": "uint128",
					"name": "token0In",
					"type": "uint128"
				},
				{
					"indexed": false,
					"internalType": "uint128",
					"name": "token1In",
					"type": "uint128"
				}
			],
			"name": "PutLimit",
			"type": "event"
		},
		{
			"anonymous": false,
			"inputs": [
				{
					"indexed": true,
					"internalType": "address",
					"name": "from",
					"type": "address"
				},
				{
					"indexed": false,
					"internalType": "uint128",
					"name": "token0In",
					"type": "uint128"
				},
				{
					"indexed": false,
					"internalType": "uint128",
					"name": "token1In",
					"type": "uint128"
				},
				{
					"indexed": false,
					"internalType": "uint128",
					"name": "token0Out",
					"type": "uint128"
				},
				{
					"indexed": false,
					"internalType": "uint128",
					"name": "token1Out",
					"type": "uint128"
				}
			],
			"name": "Swap",
			"type": "event"
		},
		{
			"anonymous": false,
			"inputs": [
				{
					"indexed": true,
					"internalType": "address",
					"name": "from",
					"type": "address"
				},
				{
					"indexed": true,
					"internalType": "address",
					"name": "to",
					"type": "address"
				},
				{
					"indexed": false,
					"internalType": "uint256",
					"name": "value",
					"type": "uint256"
				}
			],
			"name": "Transfer",
			"type": "event"
		},
		{
			"stateMutability": "nonpayable",
			"type": "fallback"
		},
		{
			"inputs": [
				{
					"internalType": "address",
					"name": "",
					"type": "address"
				},
				{
					"internalType": "address",
					"name": "",
					"type": "address"
				}
			],
			"name": "allowance",
			"outputs": [
				{
					"internalType": "uint256",
					"name": "",
					"type": "uint256"
				}
			],
			"stateMutability": "view",
			"type": "function"
		},
		{
			"inputs": [
				{
					"internalType": "uint256",
					"name": "amount0",
					"type": "uint256"
				},
				{
					"internalType": "uint160",
					"name": "sqrtPriceX96",
					"type": "uint160"
				}
			],
			"name": "amount0ToAmount1",
			"outputs": [
				{
					"internalType": "uint256",
					"name": "amount1",
					"type": "uint256"
				}
			],
			"stateMutability": "pure",
			"type": "function"
		},
		{
			"inputs": [
				{
					"internalType": "uint256",
					"name": "amount1",
					"type": "uint256"
				},
				{
					"internalType": "uint160",
					"name": "sqrtPriceX96",
					"type": "uint160"
				}
			],
			"name": "amount1ToAmount0",
			"outputs": [
				{
					"internalType": "uint256",
					"name": "amount0",
					"type": "uint256"
				}
			],
			"stateMutability": "pure",
			"type": "function"
		},
		{
			"inputs": [
				{
					"internalType": "address",
					"name": "spender",
					"type": "address"
				},
				{
					"internalType": "uint256",
					"name": "value",
					"type": "uint256"
				}
			],
			"name": "approve",
			"outputs": [
				{
					"internalType": "bool",
					"name": "",
					"type": "bool"
				}
			],
			"stateMutability": "nonpayable",
			"type": "function"
		},
		{
			"inputs": [
				{
					"internalType": "address",
					"name": "",
					"type": "address"
				}
			],
			"name": "balanceOf",
			"outputs": [
				{
					"internalType": "uint256",
					"name": "",
					"type": "uint256"
				}
			],
			"stateMutability": "view",
			"type": "function"
		},
		{
			"inputs": [
				{
					"internalType": "address",
					"name": "to",
					"type": "address"
				}
			],
			"name": "burn",
			"outputs": [
				{
					"internalType": "uint256",
					"name": "amount0",
					"type": "uint256"
				},
				{
					"internalType": "uint256",
					"name": "amount1",
					"type": "uint256"
				}
			],
			"stateMutability": "nonpayable",
			"type": "function"
		},
		{
			"inputs": [
				{
					"internalType": "address",
					"name": "",
					"type": "address"
				},
				{
					"internalType": "int24",
					"name": "",
					"type": "int24"
				}
			],
			"name": "buyShare",
			"outputs": [
				{
					"internalType": "uint256",
					"name": "",
					"type": "uint256"
				}
			],
			"stateMutability": "view",
			"type": "function"
		},
		{
			"inputs": [
				{
					"internalType": "int24",
					"name": "tick",
					"type": "int24"
				},
				{
					"internalType": "uint256",
					"name": "share",
					"type": "uint256"
				},
				{
					"internalType": "bool",
					"name": "isSellShare",
					"type": "bool"
				}
			],
			"name": "cancelLimitOrder",
			"outputs": [
				{
					"internalType": "uint256",
					"name": "token0Out",
					"type": "uint256"
				},
				{
					"internalType": "uint256",
					"name": "token1Out",
					"type": "uint256"
				}
			],
			"stateMutability": "nonpayable",
			"type": "function"
		},
		{
			"inputs": [
				{
					"internalType": "address",
					"name": "from",
					"type": "address"
				},
				{
					"internalType": "uint256",
					"name": "share",
					"type": "uint256"
				}
			],
			"name": "claimableReward",
			"outputs": [
				{
					"internalType": "uint256",
					"name": "reward0",
					"type": "uint256"
				},
				{
					"internalType": "uint256",
					"name": "reward1",
					"type": "uint256"
				}
			],
			"stateMutability": "view",
			"type": "function"
		},
		{
			"inputs": [],
			"name": "currentSqrtPriceX96",
			"outputs": [
				{
					"internalType": "uint160",
					"name": "",
					"type": "uint160"
				}
			],
			"stateMutability": "view",
			"type": "function"
		},
		{
			"inputs": [],
			"name": "currentTick",
			"outputs": [
				{
					"internalType": "int24",
					"name": "tick",
					"type": "int24"
				}
			],
			"stateMutability": "view",
			"type": "function"
		},
		{
			"inputs": [],
			"name": "decimals",
			"outputs": [
				{
					"internalType": "uint8",
					"name": "",
					"type": "uint8"
				}
			],
			"stateMutability": "view",
			"type": "function"
		},
		{
			"inputs": [
				{
					"internalType": "uint256",
					"name": "amountIn",
					"type": "uint256"
				},
				{
					"internalType": "bool",
					"name": "zeroForToken0",
					"type": "bool"
				}
			],
			"name": "estOutput",
			"outputs": [
				{
					"internalType": "uint256",
					"name": "",
					"type": "uint256"
				},
				{
					"internalType": "uint256",
					"name": "",
					"type": "uint256"
				},
				{
					"internalType": "uint160",
					"name": "",
					"type": "uint160"
				}
			],
			"stateMutability": "view",
			"type": "function"
		},
		{
			"inputs": [
				{
					"internalType": "address",
					"name": "recipient",
					"type": "address"
				},
				{
					"internalType": "uint256",
					"name": "amount0",
					"type": "uint256"
				},
				{
					"internalType": "uint256",
					"name": "amount1",
					"type": "uint256"
				},
				{
					"internalType": "bytes",
					"name": "data",
					"type": "bytes"
				}
			],
			"name": "flashLoan",
			"outputs": [],
			"stateMutability": "nonpayable",
			"type": "function"
		},
		{
			"inputs": [
				{
					"internalType": "int24",
					"name": "tick",
					"type": "int24"
				}
			],
			"name": "getDeep",
			"outputs": [
				{
					"internalType": "uint256",
					"name": "token0Deep",
					"type": "uint256"
				},
				{
					"internalType": "uint256",
					"name": "token1Deep",
					"type": "uint256"
				}
			],
			"stateMutability": "view",
			"type": "function"
		},
		{
			"inputs": [
				{
					"internalType": "int24",
					"name": "tick",
					"type": "int24"
				},
				{
					"internalType": "uint256",
					"name": "share",
					"type": "uint256"
				},
				{
					"internalType": "bool",
					"name": "isSellShare",
					"type": "bool"
				}
			],
			"name": "getLimitTokens",
			"outputs": [
				{
					"internalType": "uint256",
					"name": "",
					"type": "uint256"
				},
				{
					"internalType": "uint256",
					"name": "",
					"type": "uint256"
				}
			],
			"stateMutability": "view",
			"type": "function"
		},
		{
			"inputs": [],
			"name": "getTotalLimit",
			"outputs": [
				{
					"internalType": "uint256",
					"name": "totalLimit0",
					"type": "uint256"
				},
				{
					"internalType": "uint256",
					"name": "totalLimit1",
					"type": "uint256"
				}
			],
			"stateMutability": "view",
			"type": "function"
		},
		{
			"inputs": [
				{
					"internalType": "address",
					"name": "_token0",
					"type": "address"
				},
				{
					"internalType": "address",
					"name": "_token1",
					"type": "address"
				}
			],
			"name": "initTokenAddress",
			"outputs": [],
			"stateMutability": "nonpayable",
			"type": "function"
		},
		{
			"inputs": [
				{
					"internalType": "int24",
					"name": "tick",
					"type": "int24"
				},
				{
					"internalType": "uint256",
					"name": "buyside",
					"type": "uint256"
				}
			],
			"name": "isExploited",
			"outputs": [
				{
					"internalType": "bool",
					"name": "",
					"type": "bool"
				}
			],
			"stateMutability": "view",
			"type": "function"
		},
		{
			"inputs": [],
			"name": "lastBalance0",
			"outputs": [
				{
					"internalType": "uint256",
					"name": "",
					"type": "uint256"
				}
			],
			"stateMutability": "view",
			"type": "function"
		},
		{
			"inputs": [],
			"name": "lastBalance1",
			"outputs": [
				{
					"internalType": "uint256",
					"name": "",
					"type": "uint256"
				}
			],
			"stateMutability": "view",
			"type": "function"
		},
		{
			"inputs": [],
			"name": "liquidity",
			"outputs": [
				{
					"internalType": "uint256",
					"name": "",
					"type": "uint256"
				}
			],
			"stateMutability": "view",
			"type": "function"
		},
		{
			"inputs": [
				{
					"internalType": "address",
					"name": "to",
					"type": "address"
				}
			],
			"name": "mint",
			"outputs": [
				{
					"internalType": "uint256",
					"name": "share",
					"type": "uint256"
				}
			],
			"stateMutability": "nonpayable",
			"type": "function"
		},
		{
			"inputs": [],
			"name": "name",
			"outputs": [
				{
					"internalType": "string",
					"name": "",
					"type": "string"
				}
			],
			"stateMutability": "view",
			"type": "function"
		},
		{
			"inputs": [
				{
					"internalType": "int24",
					"name": "tick",
					"type": "int24"
				},
				{
					"internalType": "uint256",
					"name": "amount",
					"type": "uint256"
				},
				{
					"internalType": "bool",
					"name": "zeroForToken1",
					"type": "bool"
				}
			],
			"name": "putLimitOrder",
			"outputs": [
				{
					"internalType": "uint256",
					"name": "share",
					"type": "uint256"
				}
			],
			"stateMutability": "nonpayable",
			"type": "function"
		},
		{
			"inputs": [],
			"name": "reserve0",
			"outputs": [
				{
					"internalType": "uint256",
					"name": "",
					"type": "uint256"
				}
			],
			"stateMutability": "view",
			"type": "function"
		},
		{
			"inputs": [],
			"name": "reserve1",
			"outputs": [
				{
					"internalType": "uint256",
					"name": "",
					"type": "uint256"
				}
			],
			"stateMutability": "view",
			"type": "function"
		},
		{
			"inputs": [],
			"name": "reward0PerTokenX96",
			"outputs": [
				{
					"internalType": "uint256",
					"name": "",
					"type": "uint256"
				}
			],
			"stateMutability": "view",
			"type": "function"
		},
		{
			"inputs": [],
			"name": "reward1PerTokenX96",
			"outputs": [
				{
					"internalType": "uint256",
					"name": "",
					"type": "uint256"
				}
			],
			"stateMutability": "view",
			"type": "function"
		},
		{
			"inputs": [
				{
					"internalType": "address",
					"name": "",
					"type": "address"
				},
				{
					"internalType": "int24",
					"name": "",
					"type": "int24"
				}
			],
			"name": "sellShare",
			"outputs": [
				{
					"internalType": "uint256",
					"name": "",
					"type": "uint256"
				}
			],
			"stateMutability": "view",
			"type": "function"
		},
		{
			"inputs": [
				{
					"internalType": "uint256",
					"name": "amountIn",
					"type": "uint256"
				},
				{
					"internalType": "bool",
					"name": "zeroForToken0",
					"type": "bool"
				},
				{
					"internalType": "address",
					"name": "to",
					"type": "address"
				}
			],
			"name": "swap",
			"outputs": [
				{
					"internalType": "uint256",
					"name": "amountOut",
					"type": "uint256"
				},
				{
					"internalType": "uint160",
					"name": "toSqrtPriceX96",
					"type": "uint160"
				}
			],
			"stateMutability": "nonpayable",
			"type": "function"
		},
		{
			"inputs": [],
			"name": "symbol",
			"outputs": [
				{
					"internalType": "string",
					"name": "",
					"type": "string"
				}
			],
			"stateMutability": "view",
			"type": "function"
		},
		{
			"inputs": [
				{
					"internalType": "int16",
					"name": "",
					"type": "int16"
				}
			],
			"name": "tickBitmap",
			"outputs": [
				{
					"internalType": "uint256",
					"name": "",
					"type": "uint256"
				}
			],
			"stateMutability": "view",
			"type": "function"
		},
		{
			"inputs": [],
			"name": "token0",
			"outputs": [
				{
					"internalType": "address",
					"name": "",
					"type": "address"
				}
			],
			"stateMutability": "view",
			"type": "function"
		},
		{
			"inputs": [],
			"name": "token1",
			"outputs": [
				{
					"internalType": "address",
					"name": "",
					"type": "address"
				}
			],
			"stateMutability": "view",
			"type": "function"
		},
		{
			"inputs": [],
			"name": "totalSupply",
			"outputs": [
				{
					"internalType": "uint256",
					"name": "",
					"type": "uint256"
				}
			],
			"stateMutability": "view",
			"type": "function"
		},
		{
			"inputs": [],
			"name": "tradeCore",
			"outputs": [
				{
					"internalType": "address",
					"name": "",
					"type": "address"
				}
			],
			"stateMutability": "view",
			"type": "function"
		},
		{
			"inputs": [
				{
					"internalType": "address",
					"name": "to",
					"type": "address"
				},
				{
					"internalType": "uint256",
					"name": "value",
					"type": "uint256"
				}
			],
			"name": "transfer",
			"outputs": [
				{
					"internalType": "bool",
					"name": "",
					"type": "bool"
				}
			],
			"stateMutability": "nonpayable",
			"type": "function"
		},
		{
			"inputs": [
				{
					"internalType": "address",
					"name": "from",
					"type": "address"
				},
				{
					"internalType": "address",
					"name": "to",
					"type": "address"
				},
				{
					"internalType": "uint256",
					"name": "value",
					"type": "uint256"
				}
			],
			"name": "transferFrom",
			"outputs": [
				{
					"internalType": "bool",
					"name": "",
					"type": "bool"
				}
			],
			"stateMutability": "nonpayable",
			"type": "function"
		},
		{
			"inputs": [
				{
					"internalType": "address",
					"name": "",
					"type": "address"
				}
			],
			"name": "writeOffReward0PerTokenX96",
			"outputs": [
				{
					"internalType": "uint256",
					"name": "",
					"type": "uint256"
				}
			],
			"stateMutability": "view",
			"type": "function"
		},
		{
			"inputs": [
				{
					"internalType": "address",
					"name": "",
					"type": "address"
				}
			],
			"name": "writeOffReward1PerTokenX96",
			"outputs": [
				{
					"internalType": "uint256",
					"name": "",
					"type": "uint256"
				}
			],
			"stateMutability": "view",
			"type": "function"
		}
	]
}