{
	"data": {
		"bytecode": {
			"linkReferences": {},
			"object": "60a060405234801561001057600080fd5b506040516200472c3803806200472c8339818101604052602081101561003557600080fd5b5051606081901b6001600160601b0319166080526001600160a01b03166146b3620000796000398061026f52806126f1528061363c528061406552506146b36000f3fe608060405234801561001057600080fd5b506004361061025e5760003560e01c8063679f05791161014657806395d89b41116100c3578063d21220a711610087578063d21220a7146108a9578063d8f9f12d146108b1578063dd62ed3e146108b9578063ef6ae4cc146108e7578063f81cfa7614610916578063fcf969521461093c5761025e565b806395d89b41146107cf578063a9059cbb146107d7578063bbea8f6a14610803578063bf62f97c1461082f578063cbfe3ab31461085d5761025e565b8063834d04af1161010a578063834d04af1461076357806388bb52ed1461076b57806389afcb44146107995780638c7987b7146107bf5780638fbd64cb146107c75761025e565b8063679f0579146106355780636a627842146106bf5780636bd97f1d146106e557806370a08231146107115780637a95fff4146107375761025e565b806325a6e322116101df57806347fd03d9116101a357806347fd03d91461056b5780634af0871b146105735780634d630907146105c85780635339c296146105d057806358ecdc35146105f05780635a76f25e1461062d5761025e565b806325a6e322146104f15780632a354ad91461050e578063313ce5671461053d5780633b8a829d1461055b578063443cb4bc146105635761025e565b806315d44a6d1161022657806315d44a6d1461044257806318160ddd146104725780631a6865021461047a5780631b69c9411461048257806323b872dd146104bb5761025e565b8063065e53601461030a57806306fdde0314610329578063095ea7b3146103a65780630c4d32ed146103e65780630dfe16811461041e575b33301461026a57600080fd5b6000807f00000000000000000000000000000000000000000000000000000000000000006001600160a01b03166000366040518083838082843760405192019450600093509091505080830381855af49150503d80600081146102e9576040519150601f19603f3d011682016040523d82523d6000602084013e6102ee565b606091505b50915091508160008114610303573d60208301f35b3d60208301fd5b610312610962565b6040805160029290920b8252519081900360200190f35b61033161097f565b6040805160208082528351818301528351919283929083019185019080838360005b8381101561036b578181015183820152602001610353565b50505050905090810190601f1680156103985780820380516001836020036101000a031916815260200191505b509250505060405180910390f35b6103d2600480360360408110156103bc57600080fd5b506001600160a01b038135169060200135610cbe565b604080519115158252519081900360200190f35b61040c600480360360208110156103fc57600080fd5b50356001600160a01b0316610d25565b60408051918252519081900360200190f35b610426610d37565b604080516001600160a01b039092168252519081900360200190f35b6104706004803603604081101561045857600080fd5b506001600160a01b0381358116916020013516610d46565b005b61040c610d97565b61040c610d9d565b6104a26004803603602081101561049857600080fd5b503560020b610da3565b6040805192835260208301919091528051918290030190f35b6103d2600480360360608110156104d157600080fd5b506001600160a01b03813581169160208101359091169060400135610e0f565b6104a26004803603602081101561050757600080fd5b5035610ea4565b61040c6004803603604081101561052457600080fd5b506001600160a01b03813516906020013560020b610f2c565b610545610f62565b6040805160ff9092168252519081900360200190f35b61040c610f67565b61040c610f6d565b610426610f8e565b6105a76004803603606081101561058957600080fd5b508035906020810135151590604001356001600160a01b0316610f9d565b604080519283526001600160a01b0390911660208301528051918290030190f35b61040c611197565b61040c600480360360208110156105e657600080fd5b503560010b61119d565b6104a26004803603608081101561060657600080fd5b50803560020b906001600160a01b03602082013516906040810135906060013515156111af565b61040c6112d8565b6104706004803603608081101561064b57600080fd5b6001600160a01b038235169160208101359160408201359190810190608081016060820135600160201b81111561068157600080fd5b82018360208201111561069357600080fd5b803590602001918460018302840111600160201b831117156106b457600080fd5b5090925090506112f8565b61040c600480360360208110156106d557600080fd5b50356001600160a01b031661166d565b6104a2600480360360408110156106fb57600080fd5b506001600160a01b0381351690602001356118b3565b61040c6004803603602081101561072757600080fd5b50356001600160a01b0316611923565b61040c6004803603604081101561074d57600080fd5b50803590602001356001600160a01b0316611935565b61040c611987565b61040c6004803603606081101561078157600080fd5b50803560020b9060208101359060400135151561198d565b6104a2600480360360208110156107af57600080fd5b50356001600160a01b0316612541565b6104266126ef565b61040c612713565b610331612719565b6103d2600480360360408110156107ed57600080fd5b506001600160a01b038135169060200135612723565b61040c6004803603604081101561081957600080fd5b50803590602001356001600160a01b0316612743565b6104a26004803603606081101561084557600080fd5b50803560020b9060208101359060400135151561279c565b6108826004803603604081101561087357600080fd5b50803590602001351515612c06565b6040805193845260208401929092526001600160a01b031682820152519081900360600190f35b610426612d0a565b6104a2612d19565b61040c600480360360408110156108cf57600080fd5b506001600160a01b0381358116916020013516612d30565b61040c600480360360408110156108fd57600080fd5b506001600160a01b03813516906020013560020b612d4d565b6103d26004803603604081101561092c57600080fd5b50803560020b9060200135612d58565b61040c6004803603602081101561095257600080fd5b50356001600160a01b0316612e29565b60025460009061097a906001600160a01b0316612e3b565b905090565b601154604080516306fdde0360e01b815290516060926001600160a01b0316916306fdde03916004808301926000929190829003018186803b1580156109c457600080fd5b505afa1580156109d8573d6000803e3d6000fd5b505050506040513d6000823e601f3d908101601f191682016040526020811015610a0157600080fd5b8101908080516040519392919084600160201b821115610a2057600080fd5b908301906020820185811115610a3557600080fd5b8251600160201b811182820188101715610a4e57600080fd5b82525081516020918201929091019080838360005b83811015610a7b578181015183820152602001610a63565b50505050905090810190601f168015610aa85780820380516001836020036101000a031916815260200191505b5060408181526012546306fdde0360e01b835290516001600160a01b0390911694506306fdde03935060048083019350600092829003018186803b158015610aef57600080fd5b505afa158015610b03573d6000803e3d6000fd5b505050506040513d6000823e601f3d908101601f191682016040526020811015610b2c57600080fd5b8101908080516040519392919084600160201b821115610b4b57600080fd5b908301906020820185811115610b6057600080fd5b8251600160201b811182820188101715610b7957600080fd5b82525081516020918201929091019080838360005b83811015610ba6578181015183820152602001610b8e565b50505050905090810190601f168015610bd35780820380516001836020036101000a031916815260200191505b5060405250505060405160200180807302634b6b4ba29bbb0b8102628102a37b5b2b71d160651b81525060140183805190602001908083835b60208310610c2b5780518252601f199092019160209182019101610c0c565b6001836020036101000a03801982511681845116808217855250505050505090500180602f60f81b81525060010182805190602001908083835b60208310610c845780518252601f199092019160209182019101610c65565b6001836020036101000a03801982511681845116808217855250505050505090500192505050604051602081830303815290604052905090565b3360008181526019602090815260408083206001600160a01b038716808552908352818420869055815186815291519394909390927f8c5be1e5ebec7d5bd14f71427d1e84f3dd0314c0f7b2291e5b200ac8c7c3b925928290030190a35060015b92915050565b601a6020526000908152604090205481565b6011546001600160a01b031681565b6011546001600160a01b031615610d5c57600080fd5b601180546001600160a01b039384166001600160a01b03199182161790915560128054929093169116179055601e805460ff19166001179055565b60175481565b60035481565b600080610db1836000612d58565b610dda57600283810b900b6000908152600b60205260409020600101546001600160801b031691505b610de5836001612d58565b610e0a5750600282810b900b6000908152600b60205260409020546001600160801b03165b915091565b6001600160a01b038316600090815260196020908152604080832033845290915281205460001914610e8e576001600160a01b0384166000908152601960209081526040808320338452909152902054610e69908361315a565b6001600160a01b03851660009081526019602090815260408083203384529091529020555b610e998484846131aa565b5060015b9392505050565b600080610eb3601754846132d9565b925060175460001415610ecb57506000905080610e0a565b6000610ed5610f6d565b9050610ee484826017546132ef565b925082811415610ef657600019909201915b600254610f0d9084906001600160a01b0316612743565b915081610f186112d8565b1415610f2657600019909101905b50915091565b60006013815b6001600160a01b039094166000908152930160209081526040808520600294850b90940b85529290525090205490565b601281565b601d5481565b60035460025460009161097a91600160601b906001600160a01b031661339e565b6002546001600160a01b031681565b601e54600090819060ff16610fdf576040805162461bcd60e51b81526020600482015260036024820152624c4f4b60e81b604482015290519081900360640190fd5b601e805460ff191690556002546001600160a01b0316610ffe57600080fd5b611007856133d8565b508315611033576110166133f3565b602054611023908761350e565b111561102e57600080fd5b611053565b61103b61355d565b601f54611048908761350e565b111561105357600080fd5b61107185858661106757627ffffe1961106c565b627fffff5b6135d7565b90935091506000905084611086576000611088565b825b9050600085611097578361109a565b60005b90506000806110ac87858560016137ae565b915091506110ba8282613854565b337fb029ec0911dfd170dbc1992b48561b88a491ee3e92f0d20dc4fed6851e5125af896110ef576110ea8b6133d8565b6110f2565b60005b8a6110fe576000611107565b6111078c6133d8565b6111128689036133d8565b61111d8689036133d8565b604080516001600160801b039586168152938516602085015291841683830152909216606082015290519081900360800190a26000821161116057808603611164565b8186035b955061116e61355d565b601f556111796133f3565b6020555050601e805460ff1916600117905550919590945092505050565b601f5481565b60106020526000908152604090205481565b60408051600286900b60248201526001600160a01b0385166044820152606481018490528215156084808301919091528251808303909101815260a490910182526020810180516001600160e01b03166361d6569b60e11b17815291518151600093849384933093919290918291908083835b602083106112415780518252601f199092019160209182019101611222565b6001836020036101000a038019825116818451168082178552505050505050905001915050600060405180830381855afa9150503d80600081146112a1576040519150601f19603f3d011682016040523d82523d6000602084013e6112a6565b606091505b509150508080602001905160408110156112bf57600080fd5b5080516020909101519093509150505b94509492505050565b60035460025460009161097a916001600160a01b0316600160601b61339e565b601e5460ff16611335576040805162461bcd60e51b81526020600482015260036024820152624c4f4b60e81b604482015290519081900360640190fd5b601e805460ff19169055600061134f8560036103e861339e565b905060006113618560036103e861339e565b9050600061136d61355d565b905060006113796133f3565b6001546040805163931a322760e01b815233600482015290519293506001600160a01b039091169163931a322791602480820192602092909190829003018186803b1580156113c757600080fd5b505afa1580156113db573d6000803e3d6000fd5b505050506040513d60208110156113f157600080fd5b5051156113fd57600080fd5b87156114a05760015460115460408051633c4d60eb60e11b81526001600160a01b0392831660048201529051919092169163789ac1d6916024808301926020929190829003018186803b15801561145357600080fd5b505afa158015611467573d6000803e3d6000fd5b505050506040513d602081101561147d57600080fd5b50511561148957600080fd5b6011546114a0906001600160a01b03168a8a61396b565b86156115435760015460125460408051633c4d60eb60e11b81526001600160a01b0392831660048201529051919092169163789ac1d6916024808301926020929190829003018186803b1580156114f657600080fd5b505afa15801561150a573d6000803e3d6000fd5b505050506040513d602081101561152057600080fd5b50511561152c57600080fd5b601254611543906001600160a01b03168a8961396b565b336001600160a01b031663097b90fb858589896040518563ffffffff1660e01b815260040180858152602001848152602001806020018281038252848482818152602001925080828437600081840152601f19601f82011690508083019250505095505050505050600060405180830381600087803b1580156115c557600080fd5b505af11580156115d9573d6000803e3d6000fd5b5050505060006115e761355d565b905060006115f36133f3565b905081611600858861350e565b111561160b57600080fd5b80611616848761350e565b111561162157600080fd5b61163d61162e838661315a565b611638838661315a565b613854565b61164561355d565b601f556116506133f3565b6020555050601e805460ff19166001179055505050505050505050565b601e5460009060ff166116ad576040805162461bcd60e51b81526020600482015260036024820152624c4f4b60e81b604482015290519081900360640190fd5b601e805460ff19169055601f546000906116cf906116c961355d565b9061315a565b905060006116e16020546116c96133f3565b90506116ec826133d8565b506116f6816133d8565b506002546000906001600160a01b031661175e5761171c6117178385613ad4565b613b37565b60038190556117399061173490600160601b866132ef565b613b88565b600280546001600160a01b0319166001600160a01b03929092169190911790556117f5565b6002546000906117789085906001600160a01b0316612743565b9050808310156117ae5760025460009061179c9083906001600160a01b0316611935565b90506117ab8186036000613854565b93505b808311156117c3576117c36000828503613854565b6117cb610f6d565b91506117f06117da838661350e565b6002546001600160a01b0316600160601b6132ef565b600355505b60175461181f576002546118189084906001600160a01b0316600160601b6132ef565b935061182f565b61182c83601754836132ef565b93505b6118398585613b9e565b600254604080518581526001600160a01b039283166020820152918716828201525133917fdbba30eb0402b389513e87f51f4db2db80bed454384ec6925a24097c3548a02a919081900360600190a261189061355d565b601f5561189b6133f3565b6020555050601e805460ff1916600117905550919050565b6001600160a01b0382166000908152601a6020526040812054601c5482916118eb9185916118e1919061315a565b600160601b6132ef565b6001600160a01b0385166000908152601a6020526040902054601c5491935061191a9185916118e1919061315a565b90509250929050565b60186020526000908152604090205481565b60006001600160a01b038216158061194b575082155b1561195857506000610d1f565b610e9d61197384600160601b856001600160a01b03166132ef565b600160601b846001600160a01b03166132ef565b601c5481565b601e5460009060ff166119cd576040805162461bcd60e51b81526020600482015260036024820152624c4f4b60e81b604482015290519081900360640190fd5b601e805460ff191690556002546001600160a01b03166119ec57600080fd5b60006119f785613c98565b600286810b900b6000908152600b60209081526040808320815160808101835281546001600160801b038082168352600160801b918290048116958301959095526001909201548085169382019390935291049091166060820152919250611a63918791849080613fc9565b611a6c846133d8565b508215611aab57611a7b61355d565b601f54611a88908661350e565b1115611aa657601154611aa6906001600160a01b0316333087614129565b611ade565b611ab36133f3565b602054611ac0908661350e565b1115611ade57601254611ade906001600160a01b0316333087614129565b33803b8015611b5157816001600160a01b03166367e404ce6040518163ffffffff1660e01b8152600401602060405180830381600087803b158015611b2257600080fd5b505af1158015611b36573d6000803e3d6000fd5b505050506040513d6020811015611b4c57600080fd5b505191505b50600085858015611b6e5750611b65610962565b60020b8860020b125b80611b8e575085158015611b8e5750611b85610962565b60020b8860020b135b15611ba657611b9f8787158a6135d7565b5090975091505b861561236357600288810b900b6000908152600b60209081526040808320815160808101835281546001600160801b038082168352600160801b91829004811695830195909552600190920154808516938201939093529104909116606082015281908815611d0057611c1a8b6001612d58565b158015611c30575080516001600160801b031615155b15611cbd578051611c53906001600160801b0316611c4e8c8a612743565b6132d9565b9250611c5f8388611935565b9150611c6a836133d8565b8151036001600160801b03168152611c81826133d8565b602082018051919091016001600160801b03169052611ca08a8461315a565b99508915611cb057600019909901985b611cba858461350e565b94505b611cc68a6133d8565b604082018051919091016001600160801b03169052611cfb8b8289611cea8e61427d565b611cf38861427d565b600003613fc9565b611ded565b611d0b8b6000612d58565b158015611d255750600081604001516001600160801b0316115b15611db657611d4581604001516001600160801b0316611c4e8c8a611935565b9250611d518388612743565b9150611d5c836133d8565b604082018051919091036001600160801b03169052611d7a826133d8565b606082018051919091016001600160801b03169052611d998a8461315a565b99508915611da957600019909901985b611db3858461350e565b94505b611dbf8a6133d8565b8151016001600160801b03168152611ded8b8289611ddc8761427d565b600003611de88f61427d565b613fc9565b601589611dfb576000611dfe565b60015b60ff1660028110611e0b57fe5b60028d810b900b600090815291016020526040902054611e3157633b9aca009750611ed7565b8981604001516001600160801b03161415611e7e576040805162461bcd60e51b81526020600482015260086024820152672224ab22a92927a960c11b604482015290519081900360640190fd5b611ed48a60158b611e90576000611e93565b60015b60ff1660028110611ea057fe5b60028f810b900b600090815291016020526040908190205490840151611ecf906001600160801b03168e61315a565b6132ef565b97505b611f158860158b611ee9576000611eec565b60015b60ff1660028110611ef957fe5b60028f810b900b6000908152910160205260409020549061350e565b60158a611f23576000611f26565b60015b60ff1660028110611f3357fe5b60028e810b900b600090815291016020526040902055601389611f57576000611f5a565b60015b60ff1660028110611f6757fe5b6001600160a01b038816600090815291016020908152604080832060028f810b900b845290915290206003015460158a611fa2576000611fa5565b60015b60ff1660028110611fb257fe5b0160008d60020b60020b815260200190815260200160002060020154111561203b57611fe0868c8b33614293565b601389611fee576000611ff1565b60015b60ff1660028110611ffe57fe5b6001600160a01b038816600090815291016020908152604080832060028f810b810b85529252822082815560018101839055908101829055600301555b6120aa8860138b61204d576000612050565b60015b60ff166002811061205d57fe5b016000896001600160a01b03166001600160a01b0316815260200190815260200160002060008e60020b60020b81526020019081526020016000206000015461350e90919063ffffffff16565b60138a6120b85760006120bb565b60015b60ff16600281106120c857fe5b016000886001600160a01b03166001600160a01b0316815260200190815260200160002060008d60020b60020b815260200190815260200160002060000181905550612196896121215761211c8b89611935565b61212b565b61212b8b89612743565b60138b61213957600061213c565b60015b60ff166002811061214957fe5b016000896001600160a01b03166001600160a01b0316815260200190815260200160002060008e60020b60020b81526020019081526020016000206001015461350e90919063ffffffff16565b60138a6121a45760006121a7565b60015b60ff16600281106121b457fe5b016000886001600160a01b03166001600160a01b0316815260200190815260200160002060008d60020b60020b8152602001908152602001600020600101819055506122658a60138b61220857600061220b565b60015b60ff166002811061221857fe5b016000896001600160a01b03166001600160a01b0316815260200190815260200160002060008e60020b60020b81526020019081526020016000206002015461350e90919063ffffffff16565b60138a612273576000612276565b60015b60ff166002811061228357fe5b016000886001600160a01b03166001600160a01b0316815260200190815260200160002060008d60020b60020b8152602001908152602001600020600201819055506015896122d35760006122d6565b60015b60ff16600281106122e357fe5b0160008c60020b60020b81526020019081526020016000206002015460138a61230d576000612310565b60015b60ff166002811061231d57fe5b016000886001600160a01b03166001600160a01b0316815260200190815260200160002060008d60020b60020b8152602001908152602001600020600301819055505050505b8115612453576000866123765782612379565b60005b905060008761238957600061238b565b835b905060008061239d33858560016137ae565b915091506123ab8282613854565b866001600160a01b03167fb029ec0911dfd170dbc1992b48561b88a491ee3e92f0d20dc4fed6851e5125af8b6123e25760006123ed565b6123ed8d88036133d8565b8c612402576123fd8e89036133d8565b612405565b60005b6124108689036133d8565b61241b8689036133d8565b604080516001600160801b039586168152938516602085015291841683830152909216606082015290519081900360800190a2505050505b826001600160a01b03167ff1a73c4ba2a463dd1bd57bbae8bf5385904b0e25b6eb91b82276a57481b9fc6889886124925761248d886133d8565b612495565b60005b896124a15760006124aa565b6124aa896133d8565b8a6124b65760006124bf565b6124bf8c6133d8565b8b6124d2576124cd8d6133d8565b6124d5565b60005b6040805160029690960b86526001600160801b0394851660208701529284168584015290831660608501529091166080830152519081900360a00190a261251a61355d565b601f556125256133f3565b6020555050601e805460ff191660011790555090949350505050565b601e54600090819060ff16612583576040805162461bcd60e51b81526020600482015260036024820152624c4f4b60e81b604482015290519081900360640190fd5b601e805460ff19169055306000908152601860205260409020546125a681610ea4565b90935091506125ba6117da846116c9610f6d565b60038190556125c95760016003555b306000908152601a6020526040902054601c546125f7916125f09184916118e1919061315a565b849061350e565b306000908152601b6020526040902054601d54919450612627916126209184916118e19161315a565b839061350e565b60115490925061264c906001600160a01b03168561264786611c4e61355d565b61396b565b601254612669906001600160a01b03168561264785611c4e6133f3565b61267330826144b7565b5050600254604080518581526001600160a01b039283166020820152918616828201525133917fdccd412f0b1252819cb1fd330b93224ca42612892bb3f4f789976e6d81936496919081900360600190a26126cc61355d565b601f556126d76133f3565b60205550601e805460ff191660011790559092909150565b7f000000000000000000000000000000000000000000000000000000000000000081565b60205481565b606061097a61097f565b600061272e826133d8565b5061273a3384846131aa565b50600192915050565b60006001600160a01b0382161580612759575082155b1561276657506000610d1f565b60606127886001600160a01b038416826127808783613ad4565b901c90613ad4565b901c90508015610d1f576000190192915050565b601e54600090819060ff166127de576040805162461bcd60e51b81526020600482015260036024820152624c4f4b60e81b604482015290519081900360640190fd5b601e805460ff1916905560006127f386613c98565b600287810b900b6000908152600b60209081526040808320815160808101835281546001600160801b038082168352600160801b91829004811695830195909552600190920154808516938201939093529104909116606082015291925061285f918891849080613fc9565b600286810b900b6000908152600b6020908152604091829020825160808101845281546001600160801b038082168352600160801b9182900481169483019490945260019092015480841694820194909452920416606082015233803b801561292c57816001600160a01b03166367e404ce6040518163ffffffff1660e01b8152600401602060405180830381600087803b1580156128fd57600080fd5b505af1158015612911573d6000803e3d6000fd5b505050506040513d602081101561292757600080fd5b505191505b61293889838a8a6111af565b9096509450600060138861294d576000612950565b60015b60ff166002811061295d57fe5b6001600160a01b038516600090815291016020908152604080832060028e810b900b84529091529020805490915089111561299757600080fd5b80546129ae57600080965096505050505050612bef565b6129c189826002015483600001546132ef565b6002820155600181015481546129d8918b916132ef565b6001820155805489900381558715612a44576129f3876133d8565b604085018051919091036001600160801b03169052612a11866133d8565b606085018051919091036001600160801b03169052612a3f8a8587612a358b61427d565b6000036000613fc9565b612a8a565b612a4d876133d8565b602085018051919091036001600160801b03169052612a6b866133d8565b8451036001600160801b03168452612a8a8a85876000611cf38b61427d565b878015612a975750600086115b15612ad457612ab760006116386064612ab18a6003613ad4565b906145bb565b612ad1612aca6064612ab1896003613ad4565b879061315a565b95505b87158015612ae25750600087115b15612b1e57612b01612afa6064612ab18a6003613ad4565b6000613854565b612b1b612b146064612ab1896003613ad4565b889061315a565b96505b612b2b33888860006137ae565b5050826001600160a01b03167f884e468729443f48e19c8f9ae60f027026340405904d8aca6016de907f6715388b8a612b6c57612b678c6133d8565b612b6f565b60005b8b612b7b576000612b84565b612b848d6133d8565b612b8d8c6133d8565b612b968c6133d8565b6040805160029690960b86526001600160801b0394851660208701529284168584015290831660608501529091166080830152519081900360a00190a2612bdb61355d565b601f55612be66133f3565b60205550505050505b601e805460ff191660011790559094909350915050565b600080808080306302ea5e1f60e01b888880612c2657627ffffe19612c2b565b627fffff5b604080516024810194909452911515604484015260020b60648084019190915281518084039091018152608490920181526020820180516001600160e01b03166001600160e01b0319909416939093178352518151919290918291908083835b60208310612caa5780518252601f199092019160209182019101612c8b565b6001836020036101000a038019825116818451168082178552505050505050905001915050600060405180830381855afa9150503d80600081146102e9576040519150601f19603f3d011682016040523d82523d6000602084013e6102ee565b6012546001600160a01b031681565b600454608081901c916001600160801b0390911690565b601960209081526000928352604080842090915290825290205481565b600060136001610f32565b6000806000806000612d69876145ce565b9350935093509350612d9160058760028110612d8157fe5b0154612d8c8661460d565b614616565b15612da3576001945050505050610d1f565b612dcc60078760028110612db357fe5b600087810b810b81529101602052604090205484614616565b15612dde576001945050505050610d1f565b612e0a60098760028110612dee57fe5b600185810b900b60009081529101602052604090205482614616565b15612e1c576001945050505050610d1f565b6000945050505050610d1f565b601b6020526000908152604090205481565b60006401000276a36001600160a01b03831610801590612e77575073fffd8963efd1fc6a506488495d951d5263988d266001600160a01b038316105b612eac576040805162461bcd60e51b81526020600482015260016024820152602960f91b604482015290519081900360640190fd5b640100000000600160c01b03602083901b166001600160801b03811160071b81811c67ffffffffffffffff811160061b90811c63ffffffff811160051b90811c61ffff811160041b90811c60ff8111600390811b91821c600f811160021b90811c918211600190811b92831c97908811961790941790921717909117171760808110612f4057607f810383901c9150612f4a565b80607f0383901b91505b908002607f81811c60ff83811c9190911c800280831c81831c1c800280841c81841c1c800280851c81851c1c800280861c81861c1c800280871c81871c1c800280881c81881c1c800280891c81891c1c8002808a1c818a1c1c8002808b1c818b1c1c8002808c1c818c1c1c8002808d1c818d1c1c8002808e1c9c81901c9c909c1c80029c8d901c9e9d607f198f0160401b60c09190911c678000000000000000161760c19b909b1c674000000000000000169a909a1760c29990991c672000000000000000169890981760c39790971c671000000000000000169690961760c49590951c670800000000000000169490941760c59390931c670400000000000000169290921760c69190911c670200000000000000161760c79190911c670100000000000000161760c89190911c6680000000000000161760c99190911c6640000000000000161760ca9190911c6620000000000000161760cb9190911c6610000000000000161760cc9190911c6608000000000000161760cd9190911c66040000000000001617693627a301d71055774c8581026f028f6481ab7f045a5af012a19d003aa9198101608090811d906fdb2df09e81959a81455e260799a0632f8301901d600281810b9083900b1461314b57886001600160a01b031661312f82613c98565b6001600160a01b031611156131445781613146565b805b61314d565b815b9998505050505050505050565b80820382811115610d1f576040805162461bcd60e51b815260206004820152601560248201527464732d6d6174682d7375622d756e646572666c6f7760581b604482015290519081900360640190fd5b6001600160a01b038083166000908152601860205260408082205492861682529020546131d7908361315a565b6001600160a01b0385166000908152601860205260409020556131fa818361350e565b6001600160a01b038085166000818152601860209081526040808320959095559288168152601a909252828220549082529190205461323b91908385614624565b6001600160a01b038085166000818152601a60209081526040808320959095559288168152601b909252828220549082529190205461327c91908385614624565b6001600160a01b038085166000818152601b602090815260409182902094909455805186815290519193928816927fddf252ad1be2c89b69c2b068fc378daa952ba7f163c4a11628f55a4df523b3ef92918290030190a350505050565b60008183106132e85781610e9d565b5090919050565b6000808060001985870986860292508281109083900303905080613325576000841161331a57600080fd5b508290049050610e9d565b80841161333157600080fd5b6000848688096000868103871696879004966002600389028118808a02820302808a02820302808a02820302808a02820302808a02820302808a02909103029181900381900460010186841190950394909402919094039290920491909117919091029150509392505050565b60006133ab8484846132ef565b9050600082806133b757fe5b8486091115610e9d5760001981106133ce57600080fd5b6001019392505050565b806001600160801b03811681146133ee57600080fd5b919050565b601254604080513060248083019190915282518083039091018152604490910182526020810180516001600160e01b03166370a0823160e01b17815291518151600094859485946001600160a01b039092169391928291908083835b6020831061346e5780518252601f19909201916020918201910161344f565b6001836020036101000a038019825116818451168082178552505050505050905001915050600060405180830381855afa9150503d80600081146134ce576040519150601f19603f3d011682016040523d82523d6000602084013e6134d3565b606091505b50915091508180156134e757506020815110155b6134f057600080fd5b80806020019051602081101561350557600080fd5b50519250505090565b80820182811015610d1f576040805162461bcd60e51b815260206004820152601460248201527364732d6d6174682d6164642d6f766572666c6f7760601b604482015290519081900360640190fd5b601154604080513060248083019190915282518083039091018152604490910182526020810180516001600160e01b03166370a0823160e01b17815291518151600094859485946001600160a01b039092169391928291908083836020831061346e5780518252601f19909201916020918201910161344f565b60408051602481018590528315156044820152600283900b60648083019190915282518083039091018152608490910182526020810180516001600160e01b0316632b8d263960e11b1781529151815160009384938493849384936001600160a01b037f0000000000000000000000000000000000000000000000000000000000000000169392918291908083835b602083106136855780518252601f199092019160209182019101613666565b6001836020036101000a038019825116818451168082178552505050505050905001915050600060405180830381855af49150503d80600081146136e5576040519150601f19603f3d011682016040523d82523d6000602084013e6136ea565b606091505b509150915081819061377a5760405162461bcd60e51b81526004018080602001828103825283818151815260200191508051906020019080838360005b8381101561373f578181015183820152602001613727565b50505050905090810190601f16801561376c5780820380516001836020036101000a031916815260200191505b509250505060405180910390fd5b5080806020019051606081101561379057600080fd5b5080516020820151604090920151909a919950975095505050505050565b600080821561380e57600085156137d6576137d16103e8612ab1886103e5613ad4565b6137d9565b60005b9050600085156137fa576137f56103e8612ab1886103e5613ad4565b6137fd565b60005b919691959187900393505084900390505b841561383157601154613831906001600160a01b03168761264788611c4e61355d565b83156112cf576012546112cf906001600160a01b03168761264787611c4e6133f3565b600154604080516331056e5760e21b815290516000926001600160a01b03169163c415b95c916004808301926020929190829003018186803b15801561389957600080fd5b505afa1580156138ad573d6000803e3d6000fd5b505050506040513d60208110156138c357600080fd5b505190506001600160a01b038116613938578215613904576139006138f7601754606086901b6145bb90919063ffffffff16565b601c549061350e565b601c555b81156139335761392f613926601754606085901b6145bb90919063ffffffff16565b601d549061350e565b601d555b613966565b60115461394f906001600160a01b0316828561396b565b601254613966906001600160a01b0316828461396b565b505050565b604080516001600160a01b038481166024830152604480830185905283518084039091018152606490920183526020820180516001600160e01b031663a9059cbb60e01b1781529251825160009485949389169392918291908083835b602083106139e75780518252601f1990920191602091820191016139c8565b6001836020036101000a0380198251168184511680821785525050505050509050019150506000604051808303816000865af19150503d8060008114613a49576040519150601f19603f3d011682016040523d82523d6000602084013e613a4e565b606091505b5091509150818015613a7c575080511580613a7c5750808060200190516020811015613a7957600080fd5b50515b613acd576040805162461bcd60e51b815260206004820152601f60248201527f5472616e7366657248656c7065723a205452414e534645525f4641494c454400604482015290519081900360640190fd5b5050505050565b6000811580613aef57505080820282828281613aec57fe5b04145b610d1f576040805162461bcd60e51b815260206004820152601460248201527364732d6d6174682d6d756c2d6f766572666c6f7760601b604482015290519081900360640190fd5b60006003821115613b7a575080600160028204015b81811015613b7457809150600281828581613b6357fe5b040181613b6c57fe5b049050613b4c565b506133ee565b81156133ee57506001919050565b806001600160a01b03811681146133ee57600080fd5b601754613bab908261350e565b6017556001600160a01b038216600090815260186020526040902054613bd1818361350e565b6001600160a01b038416600090815260186020908152604080832093909355601c54601a90915291902054613c0891908385614624565b6001600160a01b0384166000908152601a6020908152604080832093909355601d54601b90915291902054613c3f91908385614624565b6001600160a01b0384166000818152601b602090815260408083209490945583518681529351929391927fddf252ad1be2c89b69c2b068fc378daa952ba7f163c4a11628f55a4df523b3ef9281900390910190a3505050565b60008060008360020b12613caf578260020b613cb7565b8260020b6000035b9050620d89e8811115613cf5576040805162461bcd60e51b81526020600482015260016024820152601560fa1b604482015290519081900360640190fd5b600060018216613d0957600160801b613d1b565b6ffffcb933bd6fad37aa2d162d1a5940015b70ffffffffffffffffffffffffffffffffff1690506002821615613d4f576ffff97272373d413259a46990580e213a0260801c5b6004821615613d6e576ffff2e50f5f656932ef12357cf3c7fdcc0260801c5b6008821615613d8d576fffe5caca7e10e4e61c3624eaa0941cd00260801c5b6010821615613dac576fffcb9843d60f6159c9db58835c9266440260801c5b6020821615613dcb576fff973b41fa98c081472e6896dfb254c00260801c5b6040821615613dea576fff2ea16466c96a3843ec78b326b528610260801c5b6080821615613e09576ffe5dee046a99a2a811c461f1969c30530260801c5b610100821615613e29576ffcbe86c7900a88aedcffc83b479aa3a40260801c5b610200821615613e49576ff987a7253ac413176f2b074cf7815e540260801c5b610400821615613e69576ff3392b0822b70005940c7a398e4b70f30260801c5b610800821615613e89576fe7159475a2c29b7443b29c7fa6e889d90260801c5b611000821615613ea9576fd097f3bdfd2022b8845ad8f792aa58250260801c5b612000821615613ec9576fa9f746462d870fdf8a65dc1f90e061e50260801c5b614000821615613ee9576f70d869a156d2a1b890bb3df62baf32f70260801c5b618000821615613f09576f31be135f97d08fd981231505542fcfa60260801c5b62010000821615613f2a576f09aa508b5b7a84e1c677de54f3e99bc90260801c5b62020000821615613f4a576e5d6af8dedb81196699c329225ee6040260801c5b62040000821615613f69576d2216e584f5fa1ea926041bedfe980260801c5b62080000821615613f86576b048a170391f7dc42444e8fa20260801c5b60008460020b1315613fa1578060001981613f9d57fe5b0490505b600160201b810615613fb4576001613fb7565b60005b60ff16602082901c0192505050919050565b83516020808601516040808801516060890151825160028c900b60248201526001600160801b039687166044820152938616606485015290851660848401529390931660a48201526001600160a01b0386811660c483015260e4820186905261010480830186905284518084039091018152610124909201845291810180516001600160e01b0316637a3642af60e11b178152925181516000947f0000000000000000000000000000000000000000000000000000000000000000949094169382918083835b602083106140ae5780518252601f19909201916020918201910161408f565b6001836020036101000a038019825116818451168082178552505050505050905001915050600060405180830381855af49150503d806000811461410e576040519150601f19603f3d011682016040523d82523d6000602084013e614113565b606091505b505090508061412157600080fd5b505050505050565b604080516001600160a01b0385811660248301528481166044830152606480830185905283518084039091018152608490920183526020820180516001600160e01b03166323b872dd60e01b178152925182516000948594938a169392918291908083835b602083106141ad5780518252601f19909201916020918201910161418e565b6001836020036101000a0380198251168184511680821785525050505050509050019150506000604051808303816000865af19150503d806000811461420f576040519150601f19603f3d011682016040523d82523d6000602084013e614214565b606091505b5091509150818015614242575080511580614242575080806020019051602081101561423f57600080fd5b50515b6141215760405162461bcd60e51b815260040180806020018281038252602481526020018061465a6024913960400191505060405180910390fd5b6000600160ff1b821061428f57600080fd5b5090565b60006013836142a35760006142a6565b60015b60ff16600281106142b357fe5b6001600160a01b0387166000908152910160209081526040808320600288810b810b85529083528184208251608081018452815481526001820154948101949094529081015491830191909152600301546060820152915061431485613c98565b60408301519091501561412157836143bf576000614336836040015183611935565b600287810b900b6000908152600b60205260409020549091506143729061436d90600160801b90046001600160801b03168361315a565b6133d8565b600287810b900b6000908152600b6020526040902080546001600160801b03928316600160801b0292169190911790556011546143b9906001600160a01b0316858361396b565b50614455565b60006143cf836040015183612743565b600287810b900b6000908152600b60205260409020600101549091506144099061436d90600160801b90046001600160801b03168361315a565b600287810b900b6000908152600b6020526040902060010180546001600160801b03928316600160801b029216919091179055601254614453906001600160a01b0316858361396b565b505b601384614463576000614466565b60015b60ff166002811061447357fe5b6001600160a01b0388166000908152910160209081526040808320600289810b810b8552925282208281556001810183905590810182905560030155505050505050565b6001600160a01b03821660009081526018602052604081205481906144dc908461315a565b6001600160a01b038516600090815260186020526040902055601754614502908461315a565b6017556040805184815290516000916001600160a01b038716917fddf252ad1be2c89b69c2b068fc378daa952ba7f163c4a11628f55a4df523b3ef9181900360200190a36001600160a01b0384166000908152601a6020526040902054601c5460609161457b918691614575919061315a565b90613ad4565b6001600160a01b0386166000908152601b6020526040902054601d549190921c93506060916145b0918691614575919061315a565b901c90509250929050565b60008183816145c657fe5b049392505050565b600080600080600e8560020b901d9350604060088660020b901d60020b816145f257fe5b949694079460020b600881901d946101009091079350915050565b60000b607f0190565b600160ff9091161b16151590565b6000614650614633848461350e565b612ab16146408886613ad4565b61464a8888613ad4565b9061350e565b9594505050505056fe5472616e7366657248656c7065723a205452414e534645525f46524f4d5f4641494c4544a264697066735822122064f1f888083b7f490da188b91cbba0a411b982ce3cac80017430a1cb274e91ec64736f6c63430007060033",
			"opcodes": "PUSH1 0xA0 PUSH1 0x40 MSTORE CALLVALUE DUP1 ISZERO PUSH2 0x10 JUMPI PUSH1 0x0 DUP1 REVERT JUMPDEST POP PUSH1 0x40 MLOAD PUSH3 0x472C CODESIZE SUB DUP1 PUSH3 0x472C DUP4 CODECOPY DUP2 DUP2 ADD PUSH1 0x40 MSTORE PUSH1 0x20 DUP2 LT ISZERO PUSH2 0x35 JUMPI PUSH1 0x0 DUP1 REVERT JUMPDEST POP MLOAD PUSH1 0x60 DUP2 SWAP1 SHL PUSH1 0x1 PUSH1 0x1 PUSH1 0x60 SHL SUB NOT AND PUSH1 0x80 MSTORE PUSH1 0x1 PUSH1 0x1 PUSH1 0xA0 SHL SUB AND PUSH2 0x46B3 PUSH3 0x79 PUSH1 0x0 CODECOPY DUP1 PUSH2 0x26F MSTORE DUP1 PUSH2 0x26F1 MSTORE DUP1 PUSH2 0x363C MSTORE DUP1 PUSH2 0x4065 MSTORE POP PUSH2 0x46B3 PUSH1 0x0 RETURN INVALID PUSH1 0x80 PUSH1 0x40 MSTORE CALLVALUE DUP1 ISZERO PUSH2 0x10 JUMPI PUSH1 0x0 DUP1 REVERT JUMPDEST POP PUSH1 0x4 CALLDATASIZE LT PUSH2 0x25E JUMPI PUSH1 0x0 CALLDATALOAD PUSH1 0xE0 SHR DUP1 PUSH4 0x679F0579 GT PUSH2 0x146 JUMPI DUP1 PUSH4 0x95D89B41 GT PUSH2 0xC3 JUMPI DUP1 PUSH4 0xD21220A7 GT PUSH2 0x87 JUMPI DUP1 PUSH4 0xD21220A7 EQ PUSH2 0x8A9 JUMPI DUP1 PUSH4 0xD8F9F12D EQ PUSH2 0x8B1 JUMPI DUP1 PUSH4 0xDD62ED3E EQ PUSH2 0x8B9 JUMPI DUP1 PUSH4 0xEF6AE4CC EQ PUSH2 0x8E7 JUMPI DUP1 PUSH4 0xF81CFA76 EQ PUSH2 0x916 JUMPI DUP1 PUSH4 0xFCF96952 EQ PUSH2 0x93C JUMPI PUSH2 0x25E JUMP JUMPDEST DUP1 PUSH4 0x95D89B41 EQ PUSH2 0x7CF JUMPI DUP1 PUSH4 0xA9059CBB EQ PUSH2 0x7D7 JUMPI DUP1 PUSH4 0xBBEA8F6A EQ PUSH2 0x803 JUMPI DUP1 PUSH4 0xBF62F97C EQ PUSH2 0x82F JUMPI DUP1 PUSH4 0xCBFE3AB3 EQ PUSH2 0x85D JUMPI PUSH2 0x25E JUMP JUMPDEST DUP1 PUSH4 0x834D04AF GT PUSH2 0x10A JUMPI DUP1 PUSH4 0x834D04AF EQ PUSH2 0x763 JUMPI DUP1 PUSH4 0x88BB52ED EQ PUSH2 0x76B JUMPI DUP1 PUSH4 0x89AFCB44 EQ PUSH2 0x799 JUMPI DUP1 PUSH4 0x8C7987B7 EQ PUSH2 0x7BF JUMPI DUP1 PUSH4 0x8FBD64CB EQ PUSH2 0x7C7 JUMPI PUSH2 0x25E JUMP JUMPDEST DUP1 PUSH4 0x679F0579 EQ PUSH2 0x635 JUMPI DUP1 PUSH4 0x6A627842 EQ PUSH2 0x6BF JUMPI DUP1 PUSH4 0x6BD97F1D EQ PUSH2 0x6E5 JUMPI DUP1 PUSH4 0x70A08231 EQ PUSH2 0x711 JUMPI DUP1 PUSH4 0x7A95FFF4 EQ PUSH2 0x737 JUMPI PUSH2 0x25E JUMP JUMPDEST DUP1 PUSH4 0x25A6E322 GT PUSH2 0x1DF JUMPI DUP1 PUSH4 0x47FD03D9 GT PUSH2 0x1A3 JUMPI DUP1 PUSH4 0x47FD03D9 EQ PUSH2 0x56B JUMPI DUP1 PUSH4 0x4AF0871B EQ PUSH2 0x573 JUMPI DUP1 PUSH4 0x4D630907 EQ PUSH2 0x5C8 JUMPI DUP1 PUSH4 0x5339C296 EQ PUSH2 0x5D0 JUMPI DUP1 PUSH4 0x58ECDC35 EQ PUSH2 0x5F0 JUMPI DUP1 PUSH4 0x5A76F25E EQ PUSH2 0x62D JUMPI PUSH2 0x25E JUMP JUMPDEST DUP1 PUSH4 0x25A6E322 EQ PUSH2 0x4F1 JUMPI DUP1 PUSH4 0x2A354AD9 EQ PUSH2 0x50E JUMPI DUP1 PUSH4 0x313CE567 EQ PUSH2 0x53D JUMPI DUP1 PUSH4 0x3B8A829D EQ PUSH2 0x55B JUMPI DUP1 PUSH4 0x443CB4BC EQ PUSH2 0x563 JUMPI PUSH2 0x25E JUMP JUMPDEST DUP1 PUSH4 0x15D44A6D GT PUSH2 0x226 JUMPI DUP1 PUSH4 0x15D44A6D EQ PUSH2 0x442 JUMPI DUP1 PUSH4 0x18160DDD EQ PUSH2 0x472 JUMPI DUP1 PUSH4 0x1A686502 EQ PUSH2 0x47A JUMPI DUP1 PUSH4 0x1B69C941 EQ PUSH2 0x482 JUMPI DUP1 PUSH4 0x23B872DD EQ PUSH2 0x4BB JUMPI PUSH2 0x25E JUMP JUMPDEST DUP1 PUSH4 0x65E5360 EQ PUSH2 0x30A JUMPI DUP1 PUSH4 0x6FDDE03 EQ PUSH2 0x329 JUMPI DUP1 PUSH4 0x95EA7B3 EQ PUSH2 0x3A6 JUMPI DUP1 PUSH4 0xC4D32ED EQ PUSH2 0x3E6 JUMPI DUP1 PUSH4 0xDFE1681 EQ PUSH2 0x41E JUMPI JUMPDEST CALLER ADDRESS EQ PUSH2 0x26A JUMPI PUSH1 0x0 DUP1 REVERT JUMPDEST PUSH1 0x0 DUP1 PUSH32 0x0 PUSH1 0x1 PUSH1 0x1 PUSH1 0xA0 SHL SUB AND PUSH1 0x0 CALLDATASIZE PUSH1 0x40 MLOAD DUP1 DUP4 DUP4 DUP1 DUP3 DUP5 CALLDATACOPY PUSH1 0x40 MLOAD SWAP3 ADD SWAP5 POP PUSH1 0x0 SWAP4 POP SWAP1 SWAP2 POP POP DUP1 DUP4 SUB DUP2 DUP6 GAS DELEGATECALL SWAP2 POP POP RETURNDATASIZE DUP1 PUSH1 0x0 DUP2 EQ PUSH2 0x2E9 JUMPI PUSH1 0x40 MLOAD SWAP2 POP PUSH1 0x1F NOT PUSH1 0x3F RETURNDATASIZE ADD AND DUP3 ADD PUSH1 0x40 MSTORE RETURNDATASIZE DUP3 MSTORE RETURNDATASIZE PUSH1 0x0 PUSH1 0x20 DUP5 ADD RETURNDATACOPY PUSH2 0x2EE JUMP JUMPDEST PUSH1 0x60 SWAP2 POP JUMPDEST POP SWAP2 POP SWAP2 POP DUP2 PUSH1 0x0 DUP2 EQ PUSH2 0x303 JUMPI RETURNDATASIZE PUSH1 0x20 DUP4 ADD RETURN JUMPDEST RETURNDATASIZE PUSH1 0x20 DUP4 ADD REVERT JUMPDEST PUSH2 0x312 PUSH2 0x962 JUMP JUMPDEST PUSH1 0x40 DUP1 MLOAD PUSH1 0x2 SWAP3 SWAP1 SWAP3 SIGNEXTEND DUP3 MSTORE MLOAD SWAP1 DUP2 SWAP1 SUB PUSH1 0x20 ADD SWAP1 RETURN JUMPDEST PUSH2 0x331 PUSH2 0x97F JUMP JUMPDEST PUSH1 0x40 DUP1 MLOAD PUSH1 0x20 DUP1 DUP3 MSTORE DUP4 MLOAD DUP2 DUP4 ADD MSTORE DUP4 MLOAD SWAP2 SWAP3 DUP4 SWAP3 SWAP1 DUP4 ADD SWAP2 DUP6 ADD SWAP1 DUP1 DUP4 DUP4 PUSH1 0x0 JUMPDEST DUP4 DUP2 LT ISZERO PUSH2 0x36B JUMPI DUP2 DUP2 ADD MLOAD DUP4 DUP3 ADD MSTORE PUSH1 0x20 ADD PUSH2 0x353 JUMP JUMPDEST POP POP POP POP SWAP1 POP SWAP1 DUP2 ADD SWAP1 PUSH1 0x1F AND DUP1 ISZERO PUSH2 0x398 JUMPI DUP1 DUP3 SUB DUP1 MLOAD PUSH1 0x1 DUP4 PUSH1 0x20 SUB PUSH2 0x100 EXP SUB NOT AND DUP2 MSTORE PUSH1 0x20 ADD SWAP2 POP JUMPDEST POP SWAP3 POP POP POP PUSH1 0x40 MLOAD DUP1 SWAP2 SUB SWAP1 RETURN JUMPDEST PUSH2 0x3D2 PUSH1 0x4 DUP1 CALLDATASIZE SUB PUSH1 0x40 DUP2 LT ISZERO PUSH2 0x3BC JUMPI PUSH1 0x0 DUP1 REVERT JUMPDEST POP PUSH1 0x1 PUSH1 0x1 PUSH1 0xA0 SHL SUB DUP2 CALLDATALOAD AND SWAP1 PUSH1 0x20 ADD CALLDATALOAD PUSH2 0xCBE JUMP JUMPDEST PUSH1 0x40 DUP1 MLOAD SWAP2 ISZERO ISZERO DUP3 MSTORE MLOAD SWAP1 DUP2 SWAP1 SUB PUSH1 0x20 ADD SWAP1 RETURN JUMPDEST PUSH2 0x40C PUSH1 0x4 DUP1 CALLDATASIZE SUB PUSH1 0x20 DUP2 LT ISZERO PUSH2 0x3FC JUMPI PUSH1 0x0 DUP1 REVERT JUMPDEST POP CALLDATALOAD PUSH1 0x1 PUSH1 0x1 PUSH1 0xA0 SHL SUB AND PUSH2 0xD25 JUMP JUMPDEST PUSH1 0x40 DUP1 MLOAD SWAP2 DUP3 MSTORE MLOAD SWAP1 DUP2 SWAP1 SUB PUSH1 0x20 ADD SWAP1 RETURN JUMPDEST PUSH2 0x426 PUSH2 0xD37 JUMP JUMPDEST PUSH1 0x40 DUP1 MLOAD PUSH1 0x1 PUSH1 0x1 PUSH1 0xA0 SHL SUB SWAP1 SWAP3 AND DUP3 MSTORE MLOAD SWAP1 DUP2 SWAP1 SUB PUSH1 0x20 ADD SWAP1 RETURN JUMPDEST PUSH2 0x470 PUSH1 0x4 DUP1 CALLDATASIZE SUB PUSH1 0x40 DUP2 LT ISZERO PUSH2 0x458 JUMPI PUSH1 0x0 DUP1 REVERT JUMPDEST POP PUSH1 0x1 PUSH1 0x1 PUSH1 0xA0 SHL SUB DUP2 CALLDATALOAD DUP2 AND SWAP2 PUSH1 0x20 ADD CALLDATALOAD AND PUSH2 0xD46 JUMP JUMPDEST STOP JUMPDEST PUSH2 0x40C PUSH2 0xD97 JUMP JUMPDEST PUSH2 0x40C PUSH2 0xD9D JUMP JUMPDEST PUSH2 0x4A2 PUSH1 0x4 DUP1 CALLDATASIZE SUB PUSH1 0x20 DUP2 LT ISZERO PUSH2 0x498 JUMPI PUSH1 0x0 DUP1 REVERT JUMPDEST POP CALLDATALOAD PUSH1 0x2 SIGNEXTEND PUSH2 0xDA3 JUMP JUMPDEST PUSH1 0x40 DUP1 MLOAD SWAP3 DUP4 MSTORE PUSH1 0x20 DUP4 ADD SWAP2 SWAP1 SWAP2 MSTORE DUP1 MLOAD SWAP2 DUP3 SWAP1 SUB ADD SWAP1 RETURN JUMPDEST PUSH2 0x3D2 PUSH1 0x4 DUP1 CALLDATASIZE SUB PUSH1 0x60 DUP2 LT ISZERO PUSH2 0x4D1 JUMPI PUSH1 0x0 DUP1 REVERT JUMPDEST POP PUSH1 0x1 PUSH1 0x1 PUSH1 0xA0 SHL SUB DUP2 CALLDATALOAD DUP2 AND SWAP2 PUSH1 0x20 DUP2 ADD CALLDATALOAD SWAP1 SWAP2 AND SWAP1 PUSH1 0x40 ADD CALLDATALOAD PUSH2 0xE0F JUMP JUMPDEST PUSH2 0x4A2 PUSH1 0x4 DUP1 CALLDATASIZE SUB PUSH1 0x20 DUP2 LT ISZERO PUSH2 0x507 JUMPI PUSH1 0x0 DUP1 REVERT JUMPDEST POP CALLDATALOAD PUSH2 0xEA4 JUMP JUMPDEST PUSH2 0x40C PUSH1 0x4 DUP1 CALLDATASIZE SUB PUSH1 0x40 DUP2 LT ISZERO PUSH2 0x524 JUMPI PUSH1 0x0 DUP1 REVERT JUMPDEST POP PUSH1 0x1 PUSH1 0x1 PUSH1 0xA0 SHL SUB DUP2 CALLDATALOAD AND SWAP1 PUSH1 0x20 ADD CALLDATALOAD PUSH1 0x2 SIGNEXTEND PUSH2 0xF2C JUMP JUMPDEST PUSH2 0x545 PUSH2 0xF62 JUMP JUMPDEST PUSH1 0x40 DUP1 MLOAD PUSH1 0xFF SWAP1 SWAP3 AND DUP3 MSTORE MLOAD SWAP1 DUP2 SWAP1 SUB PUSH1 0x20 ADD SWAP1 RETURN JUMPDEST PUSH2 0x40C PUSH2 0xF67 JUMP JUMPDEST PUSH2 0x40C PUSH2 0xF6D JUMP JUMPDEST PUSH2 0x426 PUSH2 0xF8E JUMP JUMPDEST PUSH2 0x5A7 PUSH1 0x4 DUP1 CALLDATASIZE SUB PUSH1 0x60 DUP2 LT ISZERO PUSH2 0x589 JUMPI PUSH1 0x0 DUP1 REVERT JUMPDEST POP DUP1 CALLDATALOAD SWAP1 PUSH1 0x20 DUP2 ADD CALLDATALOAD ISZERO ISZERO SWAP1 PUSH1 0x40 ADD CALLDATALOAD PUSH1 0x1 PUSH1 0x1 PUSH1 0xA0 SHL SUB AND PUSH2 0xF9D JUMP JUMPDEST PUSH1 0x40 DUP1 MLOAD SWAP3 DUP4 MSTORE PUSH1 0x1 PUSH1 0x1 PUSH1 0xA0 SHL SUB SWAP1 SWAP2 AND PUSH1 0x20 DUP4 ADD MSTORE DUP1 MLOAD SWAP2 DUP3 SWAP1 SUB ADD SWAP1 RETURN JUMPDEST PUSH2 0x40C PUSH2 0x1197 JUMP JUMPDEST PUSH2 0x40C PUSH1 0x4 DUP1 CALLDATASIZE SUB PUSH1 0x20 DUP2 LT ISZERO PUSH2 0x5E6 JUMPI PUSH1 0x0 DUP1 REVERT JUMPDEST POP CALLDATALOAD PUSH1 0x1 SIGNEXTEND PUSH2 0x119D JUMP JUMPDEST PUSH2 0x4A2 PUSH1 0x4 DUP1 CALLDATASIZE SUB PUSH1 0x80 DUP2 LT ISZERO PUSH2 0x606 JUMPI PUSH1 0x0 DUP1 REVERT JUMPDEST POP DUP1 CALLDATALOAD PUSH1 0x2 SIGNEXTEND SWAP1 PUSH1 0x1 PUSH1 0x1 PUSH1 0xA0 SHL SUB PUSH1 0x20 DUP3 ADD CALLDATALOAD AND SWAP1 PUSH1 0x40 DUP2 ADD CALLDATALOAD SWAP1 PUSH1 0x60 ADD CALLDATALOAD ISZERO ISZERO PUSH2 0x11AF JUMP JUMPDEST PUSH2 0x40C PUSH2 0x12D8 JUMP JUMPDEST PUSH2 0x470 PUSH1 0x4 DUP1 CALLDATASIZE SUB PUSH1 0x80 DUP2 LT ISZERO PUSH2 0x64B JUMPI PUSH1 0x0 DUP1 REVERT JUMPDEST PUSH1 0x1 PUSH1 0x1 PUSH1 0xA0 SHL SUB DUP3 CALLDATALOAD AND SWAP2 PUSH1 0x20 DUP2 ADD CALLDATALOAD SWAP2 PUSH1 0x40 DUP3 ADD CALLDATALOAD SWAP2 SWAP1 DUP2 ADD SWAP1 PUSH1 0x80 DUP2 ADD PUSH1 0x60 DUP3 ADD CALLDATALOAD PUSH1 0x1 PUSH1 0x20 SHL DUP2 GT ISZERO PUSH2 0x681 JUMPI PUSH1 0x0 DUP1 REVERT JUMPDEST DUP3 ADD DUP4 PUSH1 0x20 DUP3 ADD GT ISZERO PUSH2 0x693 JUMPI PUSH1 0x0 DUP1 REVERT JUMPDEST DUP1 CALLDATALOAD SWAP1 PUSH1 0x20 ADD SWAP2 DUP5 PUSH1 0x1 DUP4 MUL DUP5 ADD GT PUSH1 0x1 PUSH1 0x20 SHL DUP4 GT OR ISZERO PUSH2 0x6B4 JUMPI PUSH1 0x0 DUP1 REVERT JUMPDEST POP SWAP1 SWAP3 POP SWAP1 POP PUSH2 0x12F8 JUMP JUMPDEST PUSH2 0x40C PUSH1 0x4 DUP1 CALLDATASIZE SUB PUSH1 0x20 DUP2 LT ISZERO PUSH2 0x6D5 JUMPI PUSH1 0x0 DUP1 REVERT JUMPDEST POP CALLDATALOAD PUSH1 0x1 PUSH1 0x1 PUSH1 0xA0 SHL SUB AND PUSH2 0x166D JUMP JUMPDEST PUSH2 0x4A2 PUSH1 0x4 DUP1 CALLDATASIZE SUB PUSH1 0x40 DUP2 LT ISZERO PUSH2 0x6FB JUMPI PUSH1 0x0 DUP1 REVERT JUMPDEST POP PUSH1 0x1 PUSH1 0x1 PUSH1 0xA0 SHL SUB DUP2 CALLDATALOAD AND SWAP1 PUSH1 0x20 ADD CALLDATALOAD PUSH2 0x18B3 JUMP JUMPDEST PUSH2 0x40C PUSH1 0x4 DUP1 CALLDATASIZE SUB PUSH1 0x20 DUP2 LT ISZERO PUSH2 0x727 JUMPI PUSH1 0x0 DUP1 REVERT JUMPDEST POP CALLDATALOAD PUSH1 0x1 PUSH1 0x1 PUSH1 0xA0 SHL SUB AND PUSH2 0x1923 JUMP JUMPDEST PUSH2 0x40C PUSH1 0x4 DUP1 CALLDATASIZE SUB PUSH1 0x40 DUP2 LT ISZERO PUSH2 0x74D JUMPI PUSH1 0x0 DUP1 REVERT JUMPDEST POP DUP1 CALLDATALOAD SWAP1 PUSH1 0x20 ADD CALLDATALOAD PUSH1 0x1 PUSH1 0x1 PUSH1 0xA0 SHL SUB AND PUSH2 0x1935 JUMP JUMPDEST PUSH2 0x40C PUSH2 0x1987 JUMP JUMPDEST PUSH2 0x40C PUSH1 0x4 DUP1 CALLDATASIZE SUB PUSH1 0x60 DUP2 LT ISZERO PUSH2 0x781 JUMPI PUSH1 0x0 DUP1 REVERT JUMPDEST POP DUP1 CALLDATALOAD PUSH1 0x2 SIGNEXTEND SWAP1 PUSH1 0x20 DUP2 ADD CALLDATALOAD SWAP1 PUSH1 0x40 ADD CALLDATALOAD ISZERO ISZERO PUSH2 0x198D JUMP JUMPDEST PUSH2 0x4A2 PUSH1 0x4 DUP1 CALLDATASIZE SUB PUSH1 0x20 DUP2 LT ISZERO PUSH2 0x7AF JUMPI PUSH1 0x0 DUP1 REVERT JUMPDEST POP CALLDATALOAD PUSH1 0x1 PUSH1 0x1 PUSH1 0xA0 SHL SUB AND PUSH2 0x2541 JUMP JUMPDEST PUSH2 0x426 PUSH2 0x26EF JUMP JUMPDEST PUSH2 0x40C PUSH2 0x2713 JUMP JUMPDEST PUSH2 0x331 PUSH2 0x2719 JUMP JUMPDEST PUSH2 0x3D2 PUSH1 0x4 DUP1 CALLDATASIZE SUB PUSH1 0x40 DUP2 LT ISZERO PUSH2 0x7ED JUMPI PUSH1 0x0 DUP1 REVERT JUMPDEST POP PUSH1 0x1 PUSH1 0x1 PUSH1 0xA0 SHL SUB DUP2 CALLDATALOAD AND SWAP1 PUSH1 0x20 ADD CALLDATALOAD PUSH2 0x2723 JUMP JUMPDEST PUSH2 0x40C PUSH1 0x4 DUP1 CALLDATASIZE SUB PUSH1 0x40 DUP2 LT ISZERO PUSH2 0x819 JUMPI PUSH1 0x0 DUP1 REVERT JUMPDEST POP DUP1 CALLDATALOAD SWAP1 PUSH1 0x20 ADD CALLDATALOAD PUSH1 0x1 PUSH1 0x1 PUSH1 0xA0 SHL SUB AND PUSH2 0x2743 JUMP JUMPDEST PUSH2 0x4A2 PUSH1 0x4 DUP1 CALLDATASIZE SUB PUSH1 0x60 DUP2 LT ISZERO PUSH2 0x845 JUMPI PUSH1 0x0 DUP1 REVERT JUMPDEST POP DUP1 CALLDATALOAD PUSH1 0x2 SIGNEXTEND SWAP1 PUSH1 0x20 DUP2 ADD CALLDATALOAD SWAP1 PUSH1 0x40 ADD CALLDATALOAD ISZERO ISZERO PUSH2 0x279C JUMP JUMPDEST PUSH2 0x882 PUSH1 0x4 DUP1 CALLDATASIZE SUB PUSH1 0x40 DUP2 LT ISZERO PUSH2 0x873 JUMPI PUSH1 0x0 DUP1 REVERT JUMPDEST POP DUP1 CALLDATALOAD SWAP1 PUSH1 0x20 ADD CALLDATALOAD ISZERO ISZERO PUSH2 0x2C06 JUMP JUMPDEST PUSH1 0x40 DUP1 MLOAD SWAP4 DUP5 MSTORE PUSH1 0x20 DUP5 ADD SWAP3 SWAP1 SWAP3 MSTORE PUSH1 0x1 PUSH1 0x1 PUSH1 0xA0 SHL SUB AND DUP3 DUP3 ADD MSTORE MLOAD SWAP1 DUP2 SWAP1 SUB PUSH1 0x60 ADD SWAP1 RETURN JUMPDEST PUSH2 0x426 PUSH2 0x2D0A JUMP JUMPDEST PUSH2 0x4A2 PUSH2 0x2D19 JUMP JUMPDEST PUSH2 0x40C PUSH1 0x4 DUP1 CALLDATASIZE SUB PUSH1 0x40 DUP2 LT ISZERO PUSH2 0x8CF JUMPI PUSH1 0x0 DUP1 REVERT JUMPDEST POP PUSH1 0x1 PUSH1 0x1 PUSH1 0xA0 SHL SUB DUP2 CALLDATALOAD DUP2 AND SWAP2 PUSH1 0x20 ADD CALLDATALOAD AND PUSH2 0x2D30 JUMP JUMPDEST PUSH2 0x40C PUSH1 0x4 DUP1 CALLDATASIZE SUB PUSH1 0x40 DUP2 LT ISZERO PUSH2 0x8FD JUMPI PUSH1 0x0 DUP1 REVERT JUMPDEST POP PUSH1 0x1 PUSH1 0x1 PUSH1 0xA0 SHL SUB DUP2 CALLDATALOAD AND SWAP1 PUSH1 0x20 ADD CALLDATALOAD PUSH1 0x2 SIGNEXTEND PUSH2 0x2D4D JUMP JUMPDEST PUSH2 0x3D2 PUSH1 0x4 DUP1 CALLDATASIZE SUB PUSH1 0x40 DUP2 LT ISZERO PUSH2 0x92C JUMPI PUSH1 0x0 DUP1 REVERT JUMPDEST POP DUP1 CALLDATALOAD PUSH1 0x2 SIGNEXTEND SWAP1 PUSH1 0x20 ADD CALLDATALOAD PUSH2 0x2D58 JUMP JUMPDEST PUSH2 0x40C PUSH1 0x4 DUP1 CALLDATASIZE SUB PUSH1 0x20 DUP2 LT ISZERO PUSH2 0x952 JUMPI PUSH1 0x0 DUP1 REVERT JUMPDEST POP CALLDATALOAD PUSH1 0x1 PUSH1 0x1 PUSH1 0xA0 SHL SUB AND PUSH2 0x2E29 JUMP JUMPDEST PUSH1 0x2 SLOAD PUSH1 0x0 SWAP1 PUSH2 0x97A SWAP1 PUSH1 0x1 PUSH1 0x1 PUSH1 0xA0 SHL SUB AND PUSH2 0x2E3B JUMP JUMPDEST SWAP1 POP SWAP1 JUMP JUMPDEST PUSH1 0x11 SLOAD PUSH1 0x40 DUP1 MLOAD PUSH4 0x6FDDE03 PUSH1 0xE0 SHL DUP2 MSTORE SWAP1 MLOAD PUSH1 0x60 SWAP3 PUSH1 0x1 PUSH1 0x1 PUSH1 0xA0 SHL SUB AND SWAP2 PUSH4 0x6FDDE03 SWAP2 PUSH1 0x4 DUP1 DUP4 ADD SWAP3 PUSH1 0x0 SWAP3 SWAP2 SWAP1 DUP3 SWAP1 SUB ADD DUP2 DUP7 DUP1 EXTCODESIZE ISZERO DUP1 ISZERO PUSH2 0x9C4 JUMPI PUSH1 0x0 DUP1 REVERT JUMPDEST POP GAS STATICCALL ISZERO DUP1 ISZERO PUSH2 0x9D8 JUMPI RETURNDATASIZE PUSH1 0x0 DUP1 RETURNDATACOPY RETURNDATASIZE PUSH1 0x0 REVERT JUMPDEST POP POP POP POP PUSH1 0x40 MLOAD RETURNDATASIZE PUSH1 0x0 DUP3 RETURNDATACOPY PUSH1 0x1F RETURNDATASIZE SWAP1 DUP2 ADD PUSH1 0x1F NOT AND DUP3 ADD PUSH1 0x40 MSTORE PUSH1 0x20 DUP2 LT ISZERO PUSH2 0xA01 JUMPI PUSH1 0x0 DUP1 REVERT JUMPDEST DUP2 ADD SWAP1 DUP1 DUP1 MLOAD PUSH1 0x40 MLOAD SWAP4 SWAP3 SWAP2 SWAP1 DUP5 PUSH1 0x1 PUSH1 0x20 SHL DUP3 GT ISZERO PUSH2 0xA20 JUMPI PUSH1 0x0 DUP1 REVERT JUMPDEST SWAP1 DUP4 ADD SWAP1 PUSH1 0x20 DUP3 ADD DUP6 DUP2 GT ISZERO PUSH2 0xA35 JUMPI PUSH1 0x0 DUP1 REVERT JUMPDEST DUP3 MLOAD PUSH1 0x1 PUSH1 0x20 SHL DUP2 GT DUP3 DUP3 ADD DUP9 LT OR ISZERO PUSH2 0xA4E JUMPI PUSH1 0x0 DUP1 REVERT JUMPDEST DUP3 MSTORE POP DUP2 MLOAD PUSH1 0x20 SWAP2 DUP3 ADD SWAP3 SWAP1 SWAP2 ADD SWAP1 DUP1 DUP4 DUP4 PUSH1 0x0 JUMPDEST DUP4 DUP2 LT ISZERO PUSH2 0xA7B JUMPI DUP2 DUP2 ADD MLOAD DUP4 DUP3 ADD MSTORE PUSH1 0x20 ADD PUSH2 0xA63 JUMP JUMPDEST POP POP POP POP SWAP1 POP SWAP1 DUP2 ADD SWAP1 PUSH1 0x1F AND DUP1 ISZERO PUSH2 0xAA8 JUMPI DUP1 DUP3 SUB DUP1 MLOAD PUSH1 0x1 DUP4 PUSH1 0x20 SUB PUSH2 0x100 EXP SUB NOT AND DUP2 MSTORE PUSH1 0x20 ADD SWAP2 POP JUMPDEST POP PUSH1 0x40 DUP2 DUP2 MSTORE PUSH1 0x12 SLOAD PUSH4 0x6FDDE03 PUSH1 0xE0 SHL DUP4 MSTORE SWAP1 MLOAD PUSH1 0x1 PUSH1 0x1 PUSH1 0xA0 SHL SUB SWAP1 SWAP2 AND SWAP5 POP PUSH4 0x6FDDE03 SWAP4 POP PUSH1 0x4 DUP1 DUP4 ADD SWAP4 POP PUSH1 0x0 SWAP3 DUP3 SWAP1 SUB ADD DUP2 DUP7 DUP1 EXTCODESIZE ISZERO DUP1 ISZERO PUSH2 0xAEF JUMPI PUSH1 0x0 DUP1 REVERT JUMPDEST POP GAS STATICCALL ISZERO DUP1 ISZERO PUSH2 0xB03 JUMPI RETURNDATASIZE PUSH1 0x0 DUP1 RETURNDATACOPY RETURNDATASIZE PUSH1 0x0 REVERT JUMPDEST POP POP POP POP PUSH1 0x40 MLOAD RETURNDATASIZE PUSH1 0x0 DUP3 RETURNDATACOPY PUSH1 0x1F RETURNDATASIZE SWAP1 DUP2 ADD PUSH1 0x1F NOT AND DUP3 ADD PUSH1 0x40 MSTORE PUSH1 0x20 DUP2 LT ISZERO PUSH2 0xB2C JUMPI PUSH1 0x0 DUP1 REVERT JUMPDEST DUP2 ADD SWAP1 DUP1 DUP1 MLOAD PUSH1 0x40 MLOAD SWAP4 SWAP3 SWAP2 SWAP1 DUP5 PUSH1 0x1 PUSH1 0x20 SHL DUP3 GT ISZERO PUSH2 0xB4B JUMPI PUSH1 0x0 DUP1 REVERT JUMPDEST SWAP1 DUP4 ADD SWAP1 PUSH1 0x20 DUP3 ADD DUP6 DUP2 GT ISZERO PUSH2 0xB60 JUMPI PUSH1 0x0 DUP1 REVERT JUMPDEST DUP3 MLOAD PUSH1 0x1 PUSH1 0x20 SHL DUP2 GT DUP3 DUP3 ADD DUP9 LT OR ISZERO PUSH2 0xB79 JUMPI PUSH1 0x0 DUP1 REVERT JUMPDEST DUP3 MSTORE POP DUP2 MLOAD PUSH1 0x20 SWAP2 DUP3 ADD SWAP3 SWAP1 SWAP2 ADD SWAP1 DUP1 DUP4 DUP4 PUSH1 0x0 JUMPDEST DUP4 DUP2 LT ISZERO PUSH2 0xBA6 JUMPI DUP2 DUP2 ADD MLOAD DUP4 DUP3 ADD MSTORE PUSH1 0x20 ADD PUSH2 0xB8E JUMP JUMPDEST POP POP POP POP SWAP1 POP SWAP1 DUP2 ADD SWAP1 PUSH1 0x1F AND DUP1 ISZERO PUSH2 0xBD3 JUMPI DUP1 DUP3 SUB DUP1 MLOAD PUSH1 0x1 DUP4 PUSH1 0x20 SUB PUSH2 0x100 EXP SUB NOT AND DUP2 MSTORE PUSH1 0x20 ADD SWAP2 POP JUMPDEST POP PUSH1 0x40 MSTORE POP POP POP PUSH1 0x40 MLOAD PUSH1 0x20 ADD DUP1 DUP1 PUSH20 0x2634B6B4BA29BBB0B8102628102A37B5B2B71D1 PUSH1 0x65 SHL DUP2 MSTORE POP PUSH1 0x14 ADD DUP4 DUP1 MLOAD SWAP1 PUSH1 0x20 ADD SWAP1 DUP1 DUP4 DUP4 JUMPDEST PUSH1 0x20 DUP4 LT PUSH2 0xC2B JUMPI DUP1 MLOAD DUP3 MSTORE PUSH1 0x1F NOT SWAP1 SWAP3 ADD SWAP2 PUSH1 0x20 SWAP2 DUP3 ADD SWAP2 ADD PUSH2 0xC0C JUMP JUMPDEST PUSH1 0x1 DUP4 PUSH1 0x20 SUB PUSH2 0x100 EXP SUB DUP1 NOT DUP3 MLOAD AND DUP2 DUP5 MLOAD AND DUP1 DUP3 OR DUP6 MSTORE POP POP POP POP POP POP SWAP1 POP ADD DUP1 PUSH1 0x2F PUSH1 0xF8 SHL DUP2 MSTORE POP PUSH1 0x1 ADD DUP3 DUP1 MLOAD SWAP1 PUSH1 0x20 ADD SWAP1 DUP1 DUP4 DUP4 JUMPDEST PUSH1 0x20 DUP4 LT PUSH2 0xC84 JUMPI DUP1 MLOAD DUP3 MSTORE PUSH1 0x1F NOT SWAP1 SWAP3 ADD SWAP2 PUSH1 0x20 SWAP2 DUP3 ADD SWAP2 ADD PUSH2 0xC65 JUMP JUMPDEST PUSH1 0x1 DUP4 PUSH1 0x20 SUB PUSH2 0x100 EXP SUB DUP1 NOT DUP3 MLOAD AND DUP2 DUP5 MLOAD AND DUP1 DUP3 OR DUP6 MSTORE POP POP POP POP POP POP SWAP1 POP ADD SWAP3 POP POP POP PUSH1 0x40 MLOAD PUSH1 0x20 DUP2 DUP4 SUB SUB DUP2 MSTORE SWAP1 PUSH1 0x40 MSTORE SWAP1 POP SWAP1 JUMP JUMPDEST CALLER PUSH1 0x0 DUP2 DUP2 MSTORE PUSH1 0x19 PUSH1 0x20 SWAP1 DUP2 MSTORE PUSH1 0x40 DUP1 DUP4 KECCAK256 PUSH1 0x1 PUSH1 0x1 PUSH1 0xA0 SHL SUB DUP8 AND DUP1 DUP6 MSTORE SWAP1 DUP4 MSTORE DUP2 DUP5 KECCAK256 DUP7 SWAP1 SSTORE DUP2 MLOAD DUP7 DUP2 MSTORE SWAP2 MLOAD SWAP4 SWAP5 SWAP1 SWAP4 SWAP1 SWAP3 PUSH32 0x8C5BE1E5EBEC7D5BD14F71427D1E84F3DD0314C0F7B2291E5B200AC8C7C3B925 SWAP3 DUP3 SWAP1 SUB ADD SWAP1 LOG3 POP PUSH1 0x1 JUMPDEST SWAP3 SWAP2 POP POP JUMP JUMPDEST PUSH1 0x1A PUSH1 0x20 MSTORE PUSH1 0x0 SWAP1 DUP2 MSTORE PUSH1 0x40 SWAP1 KECCAK256 SLOAD DUP2 JUMP JUMPDEST PUSH1 0x11 SLOAD PUSH1 0x1 PUSH1 0x1 PUSH1 0xA0 SHL SUB AND DUP2 JUMP JUMPDEST PUSH1 0x11 SLOAD PUSH1 0x1 PUSH1 0x1 PUSH1 0xA0 SHL SUB AND ISZERO PUSH2 0xD5C JUMPI PUSH1 0x0 DUP1 REVERT JUMPDEST PUSH1 0x11 DUP1 SLOAD PUSH1 0x1 PUSH1 0x1 PUSH1 0xA0 SHL SUB SWAP4 DUP5 AND PUSH1 0x1 PUSH1 0x1 PUSH1 0xA0 SHL SUB NOT SWAP2 DUP3 AND OR SWAP1 SWAP2 SSTORE PUSH1 0x12 DUP1 SLOAD SWAP3 SWAP1 SWAP4 AND SWAP2 AND OR SWAP1 SSTORE PUSH1 0x1E DUP1 SLOAD PUSH1 0xFF NOT AND PUSH1 0x1 OR SWAP1 SSTORE JUMP JUMPDEST PUSH1 0x17 SLOAD DUP2 JUMP JUMPDEST PUSH1 0x3 SLOAD DUP2 JUMP JUMPDEST PUSH1 0x0 DUP1 PUSH2 0xDB1 DUP4 PUSH1 0x0 PUSH2 0x2D58 JUMP JUMPDEST PUSH2 0xDDA JUMPI PUSH1 0x2 DUP4 DUP2 SIGNEXTEND SWAP1 SIGNEXTEND PUSH1 0x0 SWAP1 DUP2 MSTORE PUSH1 0xB PUSH1 0x20 MSTORE PUSH1 0x40 SWAP1 KECCAK256 PUSH1 0x1 ADD SLOAD PUSH1 0x1 PUSH1 0x1 PUSH1 0x80 SHL SUB AND SWAP2 POP JUMPDEST PUSH2 0xDE5 DUP4 PUSH1 0x1 PUSH2 0x2D58 JUMP JUMPDEST PUSH2 0xE0A JUMPI POP PUSH1 0x2 DUP3 DUP2 SIGNEXTEND SWAP1 SIGNEXTEND PUSH1 0x0 SWAP1 DUP2 MSTORE PUSH1 0xB PUSH1 0x20 MSTORE PUSH1 0x40 SWAP1 KECCAK256 SLOAD PUSH1 0x1 PUSH1 0x1 PUSH1 0x80 SHL SUB AND JUMPDEST SWAP2 POP SWAP2 JUMP JUMPDEST PUSH1 0x1 PUSH1 0x1 PUSH1 0xA0 SHL SUB DUP4 AND PUSH1 0x0 SWAP1 DUP2 MSTORE PUSH1 0x19 PUSH1 0x20 SWAP1 DUP2 MSTORE PUSH1 0x40 DUP1 DUP4 KECCAK256 CALLER DUP5 MSTORE SWAP1 SWAP2 MSTORE DUP2 KECCAK256 SLOAD PUSH1 0x0 NOT EQ PUSH2 0xE8E JUMPI PUSH1 0x1 PUSH1 0x1 PUSH1 0xA0 SHL SUB DUP5 AND PUSH1 0x0 SWAP1 DUP2 MSTORE PUSH1 0x19 PUSH1 0x20 SWAP1 DUP2 MSTORE PUSH1 0x40 DUP1 DUP4 KECCAK256 CALLER DUP5 MSTORE SWAP1 SWAP2 MSTORE SWAP1 KECCAK256 SLOAD PUSH2 0xE69 SWAP1 DUP4 PUSH2 0x315A JUMP JUMPDEST PUSH1 0x1 PUSH1 0x1 PUSH1 0xA0 SHL SUB DUP6 AND PUSH1 0x0 SWAP1 DUP2 MSTORE PUSH1 0x19 PUSH1 0x20 SWAP1 DUP2 MSTORE PUSH1 0x40 DUP1 DUP4 KECCAK256 CALLER DUP5 MSTORE SWAP1 SWAP2 MSTORE SWAP1 KECCAK256 SSTORE JUMPDEST PUSH2 0xE99 DUP5 DUP5 DUP5 PUSH2 0x31AA JUMP JUMPDEST POP PUSH1 0x1 JUMPDEST SWAP4 SWAP3 POP POP POP JUMP JUMPDEST PUSH1 0x0 DUP1 PUSH2 0xEB3 PUSH1 0x17 SLOAD DUP5 PUSH2 0x32D9 JUMP JUMPDEST SWAP3 POP PUSH1 0x17 SLOAD PUSH1 0x0 EQ ISZERO PUSH2 0xECB JUMPI POP PUSH1 0x0 SWAP1 POP DUP1 PUSH2 0xE0A JUMP JUMPDEST PUSH1 0x0 PUSH2 0xED5 PUSH2 0xF6D JUMP JUMPDEST SWAP1 POP PUSH2 0xEE4 DUP5 DUP3 PUSH1 0x17 SLOAD PUSH2 0x32EF JUMP JUMPDEST SWAP3 POP DUP3 DUP2 EQ ISZERO PUSH2 0xEF6 JUMPI PUSH1 0x0 NOT SWAP1 SWAP3 ADD SWAP2 JUMPDEST PUSH1 0x2 SLOAD PUSH2 0xF0D SWAP1 DUP5 SWAP1 PUSH1 0x1 PUSH1 0x1 PUSH1 0xA0 SHL SUB AND PUSH2 0x2743 JUMP JUMPDEST SWAP2 POP DUP2 PUSH2 0xF18 PUSH2 0x12D8 JUMP JUMPDEST EQ ISZERO PUSH2 0xF26 JUMPI PUSH1 0x0 NOT SWAP1 SWAP2 ADD SWAP1 JUMPDEST POP SWAP2 POP SWAP2 JUMP JUMPDEST PUSH1 0x0 PUSH1 0x13 DUP2 JUMPDEST PUSH1 0x1 PUSH1 0x1 PUSH1 0xA0 SHL SUB SWAP1 SWAP5 AND PUSH1 0x0 SWAP1 DUP2 MSTORE SWAP4 ADD PUSH1 0x20 SWAP1 DUP2 MSTORE PUSH1 0x40 DUP1 DUP6 KECCAK256 PUSH1 0x2 SWAP5 DUP6 SIGNEXTEND SWAP1 SWAP5 SIGNEXTEND DUP6 MSTORE SWAP3 SWAP1 MSTORE POP SWAP1 KECCAK256 SLOAD SWAP1 JUMP JUMPDEST PUSH1 0x12 DUP2 JUMP JUMPDEST PUSH1 0x1D SLOAD DUP2 JUMP JUMPDEST PUSH1 0x3 SLOAD PUSH1 0x2 SLOAD PUSH1 0x0 SWAP2 PUSH2 0x97A SWAP2 PUSH1 0x1 PUSH1 0x60 SHL SWAP1 PUSH1 0x1 PUSH1 0x1 PUSH1 0xA0 SHL SUB AND PUSH2 0x339E JUMP JUMPDEST PUSH1 0x2 SLOAD PUSH1 0x1 PUSH1 0x1 PUSH1 0xA0 SHL SUB AND DUP2 JUMP JUMPDEST PUSH1 0x1E SLOAD PUSH1 0x0 SWAP1 DUP2 SWAP1 PUSH1 0xFF AND PUSH2 0xFDF JUMPI PUSH1 0x40 DUP1 MLOAD PUSH3 0x461BCD PUSH1 0xE5 SHL DUP2 MSTORE PUSH1 0x20 PUSH1 0x4 DUP3 ADD MSTORE PUSH1 0x3 PUSH1 0x24 DUP3 ADD MSTORE PUSH3 0x4C4F4B PUSH1 0xE8 SHL PUSH1 0x44 DUP3 ADD MSTORE SWAP1 MLOAD SWAP1 DUP2 SWAP1 SUB PUSH1 0x64 ADD SWAP1 REVERT JUMPDEST PUSH1 0x1E DUP1 SLOAD PUSH1 0xFF NOT AND SWAP1 SSTORE PUSH1 0x2 SLOAD PUSH1 0x1 PUSH1 0x1 PUSH1 0xA0 SHL SUB AND PUSH2 0xFFE JUMPI PUSH1 0x0 DUP1 REVERT JUMPDEST PUSH2 0x1007 DUP6 PUSH2 0x33D8 JUMP JUMPDEST POP DUP4 ISZERO PUSH2 0x1033 JUMPI PUSH2 0x1016 PUSH2 0x33F3 JUMP JUMPDEST PUSH1 0x20 SLOAD PUSH2 0x1023 SWAP1 DUP8 PUSH2 0x350E JUMP JUMPDEST GT ISZERO PUSH2 0x102E JUMPI PUSH1 0x0 DUP1 REVERT JUMPDEST PUSH2 0x1053 JUMP JUMPDEST PUSH2 0x103B PUSH2 0x355D JUMP JUMPDEST PUSH1 0x1F SLOAD PUSH2 0x1048 SWAP1 DUP8 PUSH2 0x350E JUMP JUMPDEST GT ISZERO PUSH2 0x1053 JUMPI PUSH1 0x0 DUP1 REVERT JUMPDEST PUSH2 0x1071 DUP6 DUP6 DUP7 PUSH2 0x1067 JUMPI PUSH3 0x7FFFFE NOT PUSH2 0x106C JUMP JUMPDEST PUSH3 0x7FFFFF JUMPDEST PUSH2 0x35D7 JUMP JUMPDEST SWAP1 SWAP4 POP SWAP2 POP PUSH1 0x0 SWAP1 POP DUP5 PUSH2 0x1086 JUMPI PUSH1 0x0 PUSH2 0x1088 JUMP JUMPDEST DUP3 JUMPDEST SWAP1 POP PUSH1 0x0 DUP6 PUSH2 0x1097 JUMPI DUP4 PUSH2 0x109A JUMP JUMPDEST PUSH1 0x0 JUMPDEST SWAP1 POP PUSH1 0x0 DUP1 PUSH2 0x10AC DUP8 DUP6 DUP6 PUSH1 0x1 PUSH2 0x37AE JUMP JUMPDEST SWAP2 POP SWAP2 POP PUSH2 0x10BA DUP3 DUP3 PUSH2 0x3854 JUMP JUMPDEST CALLER PUSH32 0xB029EC0911DFD170DBC1992B48561B88A491EE3E92F0D20DC4FED6851E5125AF DUP10 PUSH2 0x10EF JUMPI PUSH2 0x10EA DUP12 PUSH2 0x33D8 JUMP JUMPDEST PUSH2 0x10F2 JUMP JUMPDEST PUSH1 0x0 JUMPDEST DUP11 PUSH2 0x10FE JUMPI PUSH1 0x0 PUSH2 0x1107 JUMP JUMPDEST PUSH2 0x1107 DUP13 PUSH2 0x33D8 JUMP JUMPDEST PUSH2 0x1112 DUP7 DUP10 SUB PUSH2 0x33D8 JUMP JUMPDEST PUSH2 0x111D DUP7 DUP10 SUB PUSH2 0x33D8 JUMP JUMPDEST PUSH1 0x40 DUP1 MLOAD PUSH1 0x1 PUSH1 0x1 PUSH1 0x80 SHL SUB SWAP6 DUP7 AND DUP2 MSTORE SWAP4 DUP6 AND PUSH1 0x20 DUP6 ADD MSTORE SWAP2 DUP5 AND DUP4 DUP4 ADD MSTORE SWAP1 SWAP3 AND PUSH1 0x60 DUP3 ADD MSTORE SWAP1 MLOAD SWAP1 DUP2 SWAP1 SUB PUSH1 0x80 ADD SWAP1 LOG2 PUSH1 0x0 DUP3 GT PUSH2 0x1160 JUMPI DUP1 DUP7 SUB PUSH2 0x1164 JUMP JUMPDEST DUP2 DUP7 SUB JUMPDEST SWAP6 POP PUSH2 0x116E PUSH2 0x355D JUMP JUMPDEST PUSH1 0x1F SSTORE PUSH2 0x1179 PUSH2 0x33F3 JUMP JUMPDEST PUSH1 0x20 SSTORE POP POP PUSH1 0x1E DUP1 SLOAD PUSH1 0xFF NOT AND PUSH1 0x1 OR SWAP1 SSTORE POP SWAP2 SWAP6 SWAP1 SWAP5 POP SWAP3 POP POP POP JUMP JUMPDEST PUSH1 0x1F SLOAD DUP2 JUMP JUMPDEST PUSH1 0x10 PUSH1 0x20 MSTORE PUSH1 0x0 SWAP1 DUP2 MSTORE PUSH1 0x40 SWAP1 KECCAK256 SLOAD DUP2 JUMP JUMPDEST PUSH1 0x40 DUP1 MLOAD PUSH1 0x2 DUP7 SWAP1 SIGNEXTEND PUSH1 0x24 DUP3 ADD MSTORE PUSH1 0x1 PUSH1 0x1 PUSH1 0xA0 SHL SUB DUP6 AND PUSH1 0x44 DUP3 ADD MSTORE PUSH1 0x64 DUP2 ADD DUP5 SWAP1 MSTORE DUP3 ISZERO ISZERO PUSH1 0x84 DUP1 DUP4 ADD SWAP2 SWAP1 SWAP2 MSTORE DUP3 MLOAD DUP1 DUP4 SUB SWAP1 SWAP2 ADD DUP2 MSTORE PUSH1 0xA4 SWAP1 SWAP2 ADD DUP3 MSTORE PUSH1 0x20 DUP2 ADD DUP1 MLOAD PUSH1 0x1 PUSH1 0x1 PUSH1 0xE0 SHL SUB AND PUSH4 0x61D6569B PUSH1 0xE1 SHL OR DUP2 MSTORE SWAP2 MLOAD DUP2 MLOAD PUSH1 0x0 SWAP4 DUP5 SWAP4 DUP5 SWAP4 ADDRESS SWAP4 SWAP2 SWAP3 SWAP1 SWAP2 DUP3 SWAP2 SWAP1 DUP1 DUP4 DUP4 JUMPDEST PUSH1 0x20 DUP4 LT PUSH2 0x1241 JUMPI DUP1 MLOAD DUP3 MSTORE PUSH1 0x1F NOT SWAP1 SWAP3 ADD SWAP2 PUSH1 0x20 SWAP2 DUP3 ADD SWAP2 ADD PUSH2 0x1222 JUMP JUMPDEST PUSH1 0x1 DUP4 PUSH1 0x20 SUB PUSH2 0x100 EXP SUB DUP1 NOT DUP3 MLOAD AND DUP2 DUP5 MLOAD AND DUP1 DUP3 OR DUP6 MSTORE POP POP POP POP POP POP SWAP1 POP ADD SWAP2 POP POP PUSH1 0x0 PUSH1 0x40 MLOAD DUP1 DUP4 SUB DUP2 DUP6 GAS STATICCALL SWAP2 POP POP RETURNDATASIZE DUP1 PUSH1 0x0 DUP2 EQ PUSH2 0x12A1 JUMPI PUSH1 0x40 MLOAD SWAP2 POP PUSH1 0x1F NOT PUSH1 0x3F RETURNDATASIZE ADD AND DUP3 ADD PUSH1 0x40 MSTORE RETURNDATASIZE DUP3 MSTORE RETURNDATASIZE PUSH1 0x0 PUSH1 0x20 DUP5 ADD RETURNDATACOPY PUSH2 0x12A6 JUMP JUMPDEST PUSH1 0x60 SWAP2 POP JUMPDEST POP SWAP2 POP POP DUP1 DUP1 PUSH1 0x20 ADD SWAP1 MLOAD PUSH1 0x40 DUP2 LT ISZERO PUSH2 0x12BF JUMPI PUSH1 0x0 DUP1 REVERT JUMPDEST POP DUP1 MLOAD PUSH1 0x20 SWAP1 SWAP2 ADD MLOAD SWAP1 SWAP4 POP SWAP2 POP POP JUMPDEST SWAP5 POP SWAP5 SWAP3 POP POP POP JUMP JUMPDEST PUSH1 0x3 SLOAD PUSH1 0x2 SLOAD PUSH1 0x0 SWAP2 PUSH2 0x97A SWAP2 PUSH1 0x1 PUSH1 0x1 PUSH1 0xA0 SHL SUB AND PUSH1 0x1 PUSH1 0x60 SHL PUSH2 0x339E JUMP JUMPDEST PUSH1 0x1E SLOAD PUSH1 0xFF AND PUSH2 0x1335 JUMPI PUSH1 0x40 DUP1 MLOAD PUSH3 0x461BCD PUSH1 0xE5 SHL DUP2 MSTORE PUSH1 0x20 PUSH1 0x4 DUP3 ADD MSTORE PUSH1 0x3 PUSH1 0x24 DUP3 ADD MSTORE PUSH3 0x4C4F4B PUSH1 0xE8 SHL PUSH1 0x44 DUP3 ADD MSTORE SWAP1 MLOAD SWAP1 DUP2 SWAP1 SUB PUSH1 0x64 ADD SWAP1 REVERT JUMPDEST PUSH1 0x1E DUP1 SLOAD PUSH1 0xFF NOT AND SWAP1 SSTORE PUSH1 0x0 PUSH2 0x134F DUP6 PUSH1 0x3 PUSH2 0x3E8 PUSH2 0x339E JUMP JUMPDEST SWAP1 POP PUSH1 0x0 PUSH2 0x1361 DUP6 PUSH1 0x3 PUSH2 0x3E8 PUSH2 0x339E JUMP JUMPDEST SWAP1 POP PUSH1 0x0 PUSH2 0x136D PUSH2 0x355D JUMP JUMPDEST SWAP1 POP PUSH1 0x0 PUSH2 0x1379 PUSH2 0x33F3 JUMP JUMPDEST PUSH1 0x1 SLOAD PUSH1 0x40 DUP1 MLOAD PUSH4 0x931A3227 PUSH1 0xE0 SHL DUP2 MSTORE CALLER PUSH1 0x4 DUP3 ADD MSTORE SWAP1 MLOAD SWAP3 SWAP4 POP PUSH1 0x1 PUSH1 0x1 PUSH1 0xA0 SHL SUB SWAP1 SWAP2 AND SWAP2 PUSH4 0x931A3227 SWAP2 PUSH1 0x24 DUP1 DUP3 ADD SWAP3 PUSH1 0x20 SWAP3 SWAP1 SWAP2 SWAP1 DUP3 SWAP1 SUB ADD DUP2 DUP7 DUP1 EXTCODESIZE ISZERO DUP1 ISZERO PUSH2 0x13C7 JUMPI PUSH1 0x0 DUP1 REVERT JUMPDEST POP GAS STATICCALL ISZERO DUP1 ISZERO PUSH2 0x13DB JUMPI RETURNDATASIZE PUSH1 0x0 DUP1 RETURNDATACOPY RETURNDATASIZE PUSH1 0x0 REVERT JUMPDEST POP POP POP POP PUSH1 0x40 MLOAD RETURNDATASIZE PUSH1 0x20 DUP2 LT ISZERO PUSH2 0x13F1 JUMPI PUSH1 0x0 DUP1 REVERT JUMPDEST POP MLOAD ISZERO PUSH2 0x13FD JUMPI PUSH1 0x0 DUP1 REVERT JUMPDEST DUP8 ISZERO PUSH2 0x14A0 JUMPI PUSH1 0x1 SLOAD PUSH1 0x11 SLOAD PUSH1 0x40 DUP1 MLOAD PUSH4 0x3C4D60EB PUSH1 0xE1 SHL DUP2 MSTORE PUSH1 0x1 PUSH1 0x1 PUSH1 0xA0 SHL SUB SWAP3 DUP4 AND PUSH1 0x4 DUP3 ADD MSTORE SWAP1 MLOAD SWAP2 SWAP1 SWAP3 AND SWAP2 PUSH4 0x789AC1D6 SWAP2 PUSH1 0x24 DUP1 DUP4 ADD SWAP3 PUSH1 0x20 SWAP3 SWAP2 SWAP1 DUP3 SWAP1 SUB ADD DUP2 DUP7 DUP1 EXTCODESIZE ISZERO DUP1 ISZERO PUSH2 0x1453 JUMPI PUSH1 0x0 DUP1 REVERT JUMPDEST POP GAS STATICCALL ISZERO DUP1 ISZERO PUSH2 0x1467 JUMPI RETURNDATASIZE PUSH1 0x0 DUP1 RETURNDATACOPY RETURNDATASIZE PUSH1 0x0 REVERT JUMPDEST POP POP POP POP PUSH1 0x40 MLOAD RETURNDATASIZE PUSH1 0x20 DUP2 LT ISZERO PUSH2 0x147D JUMPI PUSH1 0x0 DUP1 REVERT JUMPDEST POP MLOAD ISZERO PUSH2 0x1489 JUMPI PUSH1 0x0 DUP1 REVERT JUMPDEST PUSH1 0x11 SLOAD PUSH2 0x14A0 SWAP1 PUSH1 0x1 PUSH1 0x1 PUSH1 0xA0 SHL SUB AND DUP11 DUP11 PUSH2 0x396B JUMP JUMPDEST DUP7 ISZERO PUSH2 0x1543 JUMPI PUSH1 0x1 SLOAD PUSH1 0x12 SLOAD PUSH1 0x40 DUP1 MLOAD PUSH4 0x3C4D60EB PUSH1 0xE1 SHL DUP2 MSTORE PUSH1 0x1 PUSH1 0x1 PUSH1 0xA0 SHL SUB SWAP3 DUP4 AND PUSH1 0x4 DUP3 ADD MSTORE SWAP1 MLOAD SWAP2 SWAP1 SWAP3 AND SWAP2 PUSH4 0x789AC1D6 SWAP2 PUSH1 0x24 DUP1 DUP4 ADD SWAP3 PUSH1 0x20 SWAP3 SWAP2 SWAP1 DUP3 SWAP1 SUB ADD DUP2 DUP7 DUP1 EXTCODESIZE ISZERO DUP1 ISZERO PUSH2 0x14F6 JUMPI PUSH1 0x0 DUP1 REVERT JUMPDEST POP GAS STATICCALL ISZERO DUP1 ISZERO PUSH2 0x150A JUMPI RETURNDATASIZE PUSH1 0x0 DUP1 RETURNDATACOPY RETURNDATASIZE PUSH1 0x0 REVERT JUMPDEST POP POP POP POP PUSH1 0x40 MLOAD RETURNDATASIZE PUSH1 0x20 DUP2 LT ISZERO PUSH2 0x1520 JUMPI PUSH1 0x0 DUP1 REVERT JUMPDEST POP MLOAD ISZERO PUSH2 0x152C JUMPI PUSH1 0x0 DUP1 REVERT JUMPDEST PUSH1 0x12 SLOAD PUSH2 0x1543 SWAP1 PUSH1 0x1 PUSH1 0x1 PUSH1 0xA0 SHL SUB AND DUP11 DUP10 PUSH2 0x396B JUMP JUMPDEST CALLER PUSH1 0x1 PUSH1 0x1 PUSH1 0xA0 SHL SUB AND PUSH4 0x97B90FB DUP6 DUP6 DUP10 DUP10 PUSH1 0x40 MLOAD DUP6 PUSH4 0xFFFFFFFF AND PUSH1 0xE0 SHL DUP2 MSTORE PUSH1 0x4 ADD DUP1 DUP6 DUP2 MSTORE PUSH1 0x20 ADD DUP5 DUP2 MSTORE PUSH1 0x20 ADD DUP1 PUSH1 0x20 ADD DUP3 DUP2 SUB DUP3 MSTORE DUP5 DUP5 DUP3 DUP2 DUP2 MSTORE PUSH1 0x20 ADD SWAP3 POP DUP1 DUP3 DUP5 CALLDATACOPY PUSH1 0x0 DUP2 DUP5 ADD MSTORE PUSH1 0x1F NOT PUSH1 0x1F DUP3 ADD AND SWAP1 POP DUP1 DUP4 ADD SWAP3 POP POP POP SWAP6 POP POP POP POP POP POP PUSH1 0x0 PUSH1 0x40 MLOAD DUP1 DUP4 SUB DUP2 PUSH1 0x0 DUP8 DUP1 EXTCODESIZE ISZERO DUP1 ISZERO PUSH2 0x15C5 JUMPI PUSH1 0x0 DUP1 REVERT JUMPDEST POP GAS CALL ISZERO DUP1 ISZERO PUSH2 0x15D9 JUMPI RETURNDATASIZE PUSH1 0x0 DUP1 RETURNDATACOPY RETURNDATASIZE PUSH1 0x0 REVERT JUMPDEST POP POP POP POP PUSH1 0x0 PUSH2 0x15E7 PUSH2 0x355D JUMP JUMPDEST SWAP1 POP PUSH1 0x0 PUSH2 0x15F3 PUSH2 0x33F3 JUMP JUMPDEST SWAP1 POP DUP2 PUSH2 0x1600 DUP6 DUP9 PUSH2 0x350E JUMP JUMPDEST GT ISZERO PUSH2 0x160B JUMPI PUSH1 0x0 DUP1 REVERT JUMPDEST DUP1 PUSH2 0x1616 DUP5 DUP8 PUSH2 0x350E JUMP JUMPDEST GT ISZERO PUSH2 0x1621 JUMPI PUSH1 0x0 DUP1 REVERT JUMPDEST PUSH2 0x163D PUSH2 0x162E DUP4 DUP7 PUSH2 0x315A JUMP JUMPDEST PUSH2 0x1638 DUP4 DUP7 PUSH2 0x315A JUMP JUMPDEST PUSH2 0x3854 JUMP JUMPDEST PUSH2 0x1645 PUSH2 0x355D JUMP JUMPDEST PUSH1 0x1F SSTORE PUSH2 0x1650 PUSH2 0x33F3 JUMP JUMPDEST PUSH1 0x20 SSTORE POP POP PUSH1 0x1E DUP1 SLOAD PUSH1 0xFF NOT AND PUSH1 0x1 OR SWAP1 SSTORE POP POP POP POP POP POP POP POP POP JUMP JUMPDEST PUSH1 0x1E SLOAD PUSH1 0x0 SWAP1 PUSH1 0xFF AND PUSH2 0x16AD JUMPI PUSH1 0x40 DUP1 MLOAD PUSH3 0x461BCD PUSH1 0xE5 SHL DUP2 MSTORE PUSH1 0x20 PUSH1 0x4 DUP3 ADD MSTORE PUSH1 0x3 PUSH1 0x24 DUP3 ADD MSTORE PUSH3 0x4C4F4B PUSH1 0xE8 SHL PUSH1 0x44 DUP3 ADD MSTORE SWAP1 MLOAD SWAP1 DUP2 SWAP1 SUB PUSH1 0x64 ADD SWAP1 REVERT JUMPDEST PUSH1 0x1E DUP1 SLOAD PUSH1 0xFF NOT AND SWAP1 SSTORE PUSH1 0x1F SLOAD PUSH1 0x0 SWAP1 PUSH2 0x16CF SWAP1 PUSH2 0x16C9 PUSH2 0x355D JUMP JUMPDEST SWAP1 PUSH2 0x315A JUMP JUMPDEST SWAP1 POP PUSH1 0x0 PUSH2 0x16E1 PUSH1 0x20 SLOAD PUSH2 0x16C9 PUSH2 0x33F3 JUMP JUMPDEST SWAP1 POP PUSH2 0x16EC DUP3 PUSH2 0x33D8 JUMP JUMPDEST POP PUSH2 0x16F6 DUP2 PUSH2 0x33D8 JUMP JUMPDEST POP PUSH1 0x2 SLOAD PUSH1 0x0 SWAP1 PUSH1 0x1 PUSH1 0x1 PUSH1 0xA0 SHL SUB AND PUSH2 0x175E JUMPI PUSH2 0x171C PUSH2 0x1717 DUP4 DUP6 PUSH2 0x3AD4 JUMP JUMPDEST PUSH2 0x3B37 JUMP JUMPDEST PUSH1 0x3 DUP2 SWAP1 SSTORE PUSH2 0x1739 SWAP1 PUSH2 0x1734 SWAP1 PUSH1 0x1 PUSH1 0x60 SHL DUP7 PUSH2 0x32EF JUMP JUMPDEST PUSH2 0x3B88 JUMP JUMPDEST PUSH1 0x2 DUP1 SLOAD PUSH1 0x1 PUSH1 0x1 PUSH1 0xA0 SHL SUB NOT AND PUSH1 0x1 PUSH1 0x1 PUSH1 0xA0 SHL SUB SWAP3 SWAP1 SWAP3 AND SWAP2 SWAP1 SWAP2 OR SWAP1 SSTORE PUSH2 0x17F5 JUMP JUMPDEST PUSH1 0x2 SLOAD PUSH1 0x0 SWAP1 PUSH2 0x1778 SWAP1 DUP6 SWAP1 PUSH1 0x1 PUSH1 0x1 PUSH1 0xA0 SHL SUB AND PUSH2 0x2743 JUMP JUMPDEST SWAP1 POP DUP1 DUP4 LT ISZERO PUSH2 0x17AE JUMPI PUSH1 0x2 SLOAD PUSH1 0x0 SWAP1 PUSH2 0x179C SWAP1 DUP4 SWAP1 PUSH1 0x1 PUSH1 0x1 PUSH1 0xA0 SHL SUB AND PUSH2 0x1935 JUMP JUMPDEST SWAP1 POP PUSH2 0x17AB DUP2 DUP7 SUB PUSH1 0x0 PUSH2 0x3854 JUMP JUMPDEST SWAP4 POP JUMPDEST DUP1 DUP4 GT ISZERO PUSH2 0x17C3 JUMPI PUSH2 0x17C3 PUSH1 0x0 DUP3 DUP6 SUB PUSH2 0x3854 JUMP JUMPDEST PUSH2 0x17CB PUSH2 0xF6D JUMP JUMPDEST SWAP2 POP PUSH2 0x17F0 PUSH2 0x17DA DUP4 DUP7 PUSH2 0x350E JUMP JUMPDEST PUSH1 0x2 SLOAD PUSH1 0x1 PUSH1 0x1 PUSH1 0xA0 SHL SUB AND PUSH1 0x1 PUSH1 0x60 SHL PUSH2 0x32EF JUMP JUMPDEST PUSH1 0x3 SSTORE POP JUMPDEST PUSH1 0x17 SLOAD PUSH2 0x181F JUMPI PUSH1 0x2 SLOAD PUSH2 0x1818 SWAP1 DUP5 SWAP1 PUSH1 0x1 PUSH1 0x1 PUSH1 0xA0 SHL SUB AND PUSH1 0x1 PUSH1 0x60 SHL PUSH2 0x32EF JUMP JUMPDEST SWAP4 POP PUSH2 0x182F JUMP JUMPDEST PUSH2 0x182C DUP4 PUSH1 0x17 SLOAD DUP4 PUSH2 0x32EF JUMP JUMPDEST SWAP4 POP JUMPDEST PUSH2 0x1839 DUP6 DUP6 PUSH2 0x3B9E JUMP JUMPDEST PUSH1 0x2 SLOAD PUSH1 0x40 DUP1 MLOAD DUP6 DUP2 MSTORE PUSH1 0x1 PUSH1 0x1 PUSH1 0xA0 SHL SUB SWAP3 DUP4 AND PUSH1 0x20 DUP3 ADD MSTORE SWAP2 DUP8 AND DUP3 DUP3 ADD MSTORE MLOAD CALLER SWAP2 PUSH32 0xDBBA30EB0402B389513E87F51F4DB2DB80BED454384EC6925A24097C3548A02A SWAP2 SWAP1 DUP2 SWAP1 SUB PUSH1 0x60 ADD SWAP1 LOG2 PUSH2 0x1890 PUSH2 0x355D JUMP JUMPDEST PUSH1 0x1F SSTORE PUSH2 0x189B PUSH2 0x33F3 JUMP JUMPDEST PUSH1 0x20 SSTORE POP POP PUSH1 0x1E DUP1 SLOAD PUSH1 0xFF NOT AND PUSH1 0x1 OR SWAP1 SSTORE POP SWAP2 SWAP1 POP JUMP JUMPDEST PUSH1 0x1 PUSH1 0x1 PUSH1 0xA0 SHL SUB DUP3 AND PUSH1 0x0 SWAP1 DUP2 MSTORE PUSH1 0x1A PUSH1 0x20 MSTORE PUSH1 0x40 DUP2 KECCAK256 SLOAD PUSH1 0x1C SLOAD DUP3 SWAP2 PUSH2 0x18EB SWAP2 DUP6 SWAP2 PUSH2 0x18E1 SWAP2 SWAP1 PUSH2 0x315A JUMP JUMPDEST PUSH1 0x1 PUSH1 0x60 SHL PUSH2 0x32EF JUMP JUMPDEST PUSH1 0x1 PUSH1 0x1 PUSH1 0xA0 SHL SUB DUP6 AND PUSH1 0x0 SWAP1 DUP2 MSTORE PUSH1 0x1A PUSH1 0x20 MSTORE PUSH1 0x40 SWAP1 KECCAK256 SLOAD PUSH1 0x1C SLOAD SWAP2 SWAP4 POP PUSH2 0x191A SWAP2 DUP6 SWAP2 PUSH2 0x18E1 SWAP2 SWAP1 PUSH2 0x315A JUMP JUMPDEST SWAP1 POP SWAP3 POP SWAP3 SWAP1 POP JUMP JUMPDEST PUSH1 0x18 PUSH1 0x20 MSTORE PUSH1 0x0 SWAP1 DUP2 MSTORE PUSH1 0x40 SWAP1 KECCAK256 SLOAD DUP2 JUMP JUMPDEST PUSH1 0x0 PUSH1 0x1 PUSH1 0x1 PUSH1 0xA0 SHL SUB DUP3 AND ISZERO DUP1 PUSH2 0x194B JUMPI POP DUP3 ISZERO JUMPDEST ISZERO PUSH2 0x1958 JUMPI POP PUSH1 0x0 PUSH2 0xD1F JUMP JUMPDEST PUSH2 0xE9D PUSH2 0x1973 DUP5 PUSH1 0x1 PUSH1 0x60 SHL DUP6 PUSH1 0x1 PUSH1 0x1 PUSH1 0xA0 SHL SUB AND PUSH2 0x32EF JUMP JUMPDEST PUSH1 0x1 PUSH1 0x60 SHL DUP5 PUSH1 0x1 PUSH1 0x1 PUSH1 0xA0 SHL SUB AND PUSH2 0x32EF JUMP JUMPDEST PUSH1 0x1C SLOAD DUP2 JUMP JUMPDEST PUSH1 0x1E SLOAD PUSH1 0x0 SWAP1 PUSH1 0xFF AND PUSH2 0x19CD JUMPI PUSH1 0x40 DUP1 MLOAD PUSH3 0x461BCD PUSH1 0xE5 SHL DUP2 MSTORE PUSH1 0x20 PUSH1 0x4 DUP3 ADD MSTORE PUSH1 0x3 PUSH1 0x24 DUP3 ADD MSTORE PUSH3 0x4C4F4B PUSH1 0xE8 SHL PUSH1 0x44 DUP3 ADD MSTORE SWAP1 MLOAD SWAP1 DUP2 SWAP1 SUB PUSH1 0x64 ADD SWAP1 REVERT JUMPDEST PUSH1 0x1E DUP1 SLOAD PUSH1 0xFF NOT AND SWAP1 SSTORE PUSH1 0x2 SLOAD PUSH1 0x1 PUSH1 0x1 PUSH1 0xA0 SHL SUB AND PUSH2 0x19EC JUMPI PUSH1 0x0 DUP1 REVERT JUMPDEST PUSH1 0x0 PUSH2 0x19F7 DUP6 PUSH2 0x3C98 JUMP JUMPDEST PUSH1 0x2 DUP7 DUP2 SIGNEXTEND SWAP1 SIGNEXTEND PUSH1 0x0 SWAP1 DUP2 MSTORE PUSH1 0xB PUSH1 0x20 SWAP1 DUP2 MSTORE PUSH1 0x40 DUP1 DUP4 KECCAK256 DUP2 MLOAD PUSH1 0x80 DUP2 ADD DUP4 MSTORE DUP2 SLOAD PUSH1 0x1 PUSH1 0x1 PUSH1 0x80 SHL SUB DUP1 DUP3 AND DUP4 MSTORE PUSH1 0x1 PUSH1 0x80 SHL SWAP2 DUP3 SWAP1 DIV DUP2 AND SWAP6 DUP4 ADD SWAP6 SWAP1 SWAP6 MSTORE PUSH1 0x1 SWAP1 SWAP3 ADD SLOAD DUP1 DUP6 AND SWAP4 DUP3 ADD SWAP4 SWAP1 SWAP4 MSTORE SWAP2 DIV SWAP1 SWAP2 AND PUSH1 0x60 DUP3 ADD MSTORE SWAP2 SWAP3 POP PUSH2 0x1A63 SWAP2 DUP8 SWAP2 DUP5 SWAP1 DUP1 PUSH2 0x3FC9 JUMP JUMPDEST PUSH2 0x1A6C DUP5 PUSH2 0x33D8 JUMP JUMPDEST POP DUP3 ISZERO PUSH2 0x1AAB JUMPI PUSH2 0x1A7B PUSH2 0x355D JUMP JUMPDEST PUSH1 0x1F SLOAD PUSH2 0x1A88 SWAP1 DUP7 PUSH2 0x350E JUMP JUMPDEST GT ISZERO PUSH2 0x1AA6 JUMPI PUSH1 0x11 SLOAD PUSH2 0x1AA6 SWAP1 PUSH1 0x1 PUSH1 0x1 PUSH1 0xA0 SHL SUB AND CALLER ADDRESS DUP8 PUSH2 0x4129 JUMP JUMPDEST PUSH2 0x1ADE JUMP JUMPDEST PUSH2 0x1AB3 PUSH2 0x33F3 JUMP JUMPDEST PUSH1 0x20 SLOAD PUSH2 0x1AC0 SWAP1 DUP7 PUSH2 0x350E JUMP JUMPDEST GT ISZERO PUSH2 0x1ADE JUMPI PUSH1 0x12 SLOAD PUSH2 0x1ADE SWAP1 PUSH1 0x1 PUSH1 0x1 PUSH1 0xA0 SHL SUB AND CALLER ADDRESS DUP8 PUSH2 0x4129 JUMP JUMPDEST CALLER DUP1 EXTCODESIZE DUP1 ISZERO PUSH2 0x1B51 JUMPI DUP2 PUSH1 0x1 PUSH1 0x1 PUSH1 0xA0 SHL SUB AND PUSH4 0x67E404CE PUSH1 0x40 MLOAD DUP2 PUSH4 0xFFFFFFFF AND PUSH1 0xE0 SHL DUP2 MSTORE PUSH1 0x4 ADD PUSH1 0x20 PUSH1 0x40 MLOAD DUP1 DUP4 SUB DUP2 PUSH1 0x0 DUP8 DUP1 EXTCODESIZE ISZERO DUP1 ISZERO PUSH2 0x1B22 JUMPI PUSH1 0x0 DUP1 REVERT JUMPDEST POP GAS CALL ISZERO DUP1 ISZERO PUSH2 0x1B36 JUMPI RETURNDATASIZE PUSH1 0x0 DUP1 RETURNDATACOPY RETURNDATASIZE PUSH1 0x0 REVERT JUMPDEST POP POP POP POP PUSH1 0x40 MLOAD RETURNDATASIZE PUSH1 0x20 DUP2 LT ISZERO PUSH2 0x1B4C JUMPI PUSH1 0x0 DUP1 REVERT JUMPDEST POP MLOAD SWAP2 POP JUMPDEST POP PUSH1 0x0 DUP6 DUP6 DUP1 ISZERO PUSH2 0x1B6E JUMPI POP PUSH2 0x1B65 PUSH2 0x962 JUMP JUMPDEST PUSH1 0x2 SIGNEXTEND DUP9 PUSH1 0x2 SIGNEXTEND SLT JUMPDEST DUP1 PUSH2 0x1B8E JUMPI POP DUP6 ISZERO DUP1 ISZERO PUSH2 0x1B8E JUMPI POP PUSH2 0x1B85 PUSH2 0x962 JUMP JUMPDEST PUSH1 0x2 SIGNEXTEND DUP9 PUSH1 0x2 SIGNEXTEND SGT JUMPDEST ISZERO PUSH2 0x1BA6 JUMPI PUSH2 0x1B9F DUP8 DUP8 ISZERO DUP11 PUSH2 0x35D7 JUMP JUMPDEST POP SWAP1 SWAP8 POP SWAP2 POP JUMPDEST DUP7 ISZERO PUSH2 0x2363 JUMPI PUSH1 0x2 DUP9 DUP2 SIGNEXTEND SWAP1 SIGNEXTEND PUSH1 0x0 SWAP1 DUP2 MSTORE PUSH1 0xB PUSH1 0x20 SWAP1 DUP2 MSTORE PUSH1 0x40 DUP1 DUP4 KECCAK256 DUP2 MLOAD PUSH1 0x80 DUP2 ADD DUP4 MSTORE DUP2 SLOAD PUSH1 0x1 PUSH1 0x1 PUSH1 0x80 SHL SUB DUP1 DUP3 AND DUP4 MSTORE PUSH1 0x1 PUSH1 0x80 SHL SWAP2 DUP3 SWAP1 DIV DUP2 AND SWAP6 DUP4 ADD SWAP6 SWAP1 SWAP6 MSTORE PUSH1 0x1 SWAP1 SWAP3 ADD SLOAD DUP1 DUP6 AND SWAP4 DUP3 ADD SWAP4 SWAP1 SWAP4 MSTORE SWAP2 DIV SWAP1 SWAP2 AND PUSH1 0x60 DUP3 ADD MSTORE DUP2 SWAP1 DUP9 ISZERO PUSH2 0x1D00 JUMPI PUSH2 0x1C1A DUP12 PUSH1 0x1 PUSH2 0x2D58 JUMP JUMPDEST ISZERO DUP1 ISZERO PUSH2 0x1C30 JUMPI POP DUP1 MLOAD PUSH1 0x1 PUSH1 0x1 PUSH1 0x80 SHL SUB AND ISZERO ISZERO JUMPDEST ISZERO PUSH2 0x1CBD JUMPI DUP1 MLOAD PUSH2 0x1C53 SWAP1 PUSH1 0x1 PUSH1 0x1 PUSH1 0x80 SHL SUB AND PUSH2 0x1C4E DUP13 DUP11 PUSH2 0x2743 JUMP JUMPDEST PUSH2 0x32D9 JUMP JUMPDEST SWAP3 POP PUSH2 0x1C5F DUP4 DUP9 PUSH2 0x1935 JUMP JUMPDEST SWAP2 POP PUSH2 0x1C6A DUP4 PUSH2 0x33D8 JUMP JUMPDEST DUP2 MLOAD SUB PUSH1 0x1 PUSH1 0x1 PUSH1 0x80 SHL SUB AND DUP2 MSTORE PUSH2 0x1C81 DUP3 PUSH2 0x33D8 JUMP JUMPDEST PUSH1 0x20 DUP3 ADD DUP1 MLOAD SWAP2 SWAP1 SWAP2 ADD PUSH1 0x1 PUSH1 0x1 PUSH1 0x80 SHL SUB AND SWAP1 MSTORE PUSH2 0x1CA0 DUP11 DUP5 PUSH2 0x315A JUMP JUMPDEST SWAP10 POP DUP10 ISZERO PUSH2 0x1CB0 JUMPI PUSH1 0x0 NOT SWAP1 SWAP10 ADD SWAP9 JUMPDEST PUSH2 0x1CBA DUP6 DUP5 PUSH2 0x350E JUMP JUMPDEST SWAP5 POP JUMPDEST PUSH2 0x1CC6 DUP11 PUSH2 0x33D8 JUMP JUMPDEST PUSH1 0x40 DUP3 ADD DUP1 MLOAD SWAP2 SWAP1 SWAP2 ADD PUSH1 0x1 PUSH1 0x1 PUSH1 0x80 SHL SUB AND SWAP1 MSTORE PUSH2 0x1CFB DUP12 DUP3 DUP10 PUSH2 0x1CEA DUP15 PUSH2 0x427D JUMP JUMPDEST PUSH2 0x1CF3 DUP9 PUSH2 0x427D JUMP JUMPDEST PUSH1 0x0 SUB PUSH2 0x3FC9 JUMP JUMPDEST PUSH2 0x1DED JUMP JUMPDEST PUSH2 0x1D0B DUP12 PUSH1 0x0 PUSH2 0x2D58 JUMP JUMPDEST ISZERO DUP1 ISZERO PUSH2 0x1D25 JUMPI POP PUSH1 0x0 DUP2 PUSH1 0x40 ADD MLOAD PUSH1 0x1 PUSH1 0x1 PUSH1 0x80 SHL SUB AND GT JUMPDEST ISZERO PUSH2 0x1DB6 JUMPI PUSH2 0x1D45 DUP2 PUSH1 0x40 ADD MLOAD PUSH1 0x1 PUSH1 0x1 PUSH1 0x80 SHL SUB AND PUSH2 0x1C4E DUP13 DUP11 PUSH2 0x1935 JUMP JUMPDEST SWAP3 POP PUSH2 0x1D51 DUP4 DUP9 PUSH2 0x2743 JUMP JUMPDEST SWAP2 POP PUSH2 0x1D5C DUP4 PUSH2 0x33D8 JUMP JUMPDEST PUSH1 0x40 DUP3 ADD DUP1 MLOAD SWAP2 SWAP1 SWAP2 SUB PUSH1 0x1 PUSH1 0x1 PUSH1 0x80 SHL SUB AND SWAP1 MSTORE PUSH2 0x1D7A DUP3 PUSH2 0x33D8 JUMP JUMPDEST PUSH1 0x60 DUP3 ADD DUP1 MLOAD SWAP2 SWAP1 SWAP2 ADD PUSH1 0x1 PUSH1 0x1 PUSH1 0x80 SHL SUB AND SWAP1 MSTORE PUSH2 0x1D99 DUP11 DUP5 PUSH2 0x315A JUMP JUMPDEST SWAP10 POP DUP10 ISZERO PUSH2 0x1DA9 JUMPI PUSH1 0x0 NOT SWAP1 SWAP10 ADD SWAP9 JUMPDEST PUSH2 0x1DB3 DUP6 DUP5 PUSH2 0x350E JUMP JUMPDEST SWAP5 POP JUMPDEST PUSH2 0x1DBF DUP11 PUSH2 0x33D8 JUMP JUMPDEST DUP2 MLOAD ADD PUSH1 0x1 PUSH1 0x1 PUSH1 0x80 SHL SUB AND DUP2 MSTORE PUSH2 0x1DED DUP12 DUP3 DUP10 PUSH2 0x1DDC DUP8 PUSH2 0x427D JUMP JUMPDEST PUSH1 0x0 SUB PUSH2 0x1DE8 DUP16 PUSH2 0x427D JUMP JUMPDEST PUSH2 0x3FC9 JUMP JUMPDEST PUSH1 0x15 DUP10 PUSH2 0x1DFB JUMPI PUSH1 0x0 PUSH2 0x1DFE JUMP JUMPDEST PUSH1 0x1 JUMPDEST PUSH1 0xFF AND PUSH1 0x2 DUP2 LT PUSH2 0x1E0B JUMPI INVALID JUMPDEST PUSH1 0x2 DUP14 DUP2 SIGNEXTEND SWAP1 SIGNEXTEND PUSH1 0x0 SWAP1 DUP2 MSTORE SWAP2 ADD PUSH1 0x20 MSTORE PUSH1 0x40 SWAP1 KECCAK256 SLOAD PUSH2 0x1E31 JUMPI PUSH4 0x3B9ACA00 SWAP8 POP PUSH2 0x1ED7 JUMP JUMPDEST DUP10 DUP2 PUSH1 0x40 ADD MLOAD PUSH1 0x1 PUSH1 0x1 PUSH1 0x80 SHL SUB AND EQ ISZERO PUSH2 0x1E7E JUMPI PUSH1 0x40 DUP1 MLOAD PUSH3 0x461BCD PUSH1 0xE5 SHL DUP2 MSTORE PUSH1 0x20 PUSH1 0x4 DUP3 ADD MSTORE PUSH1 0x8 PUSH1 0x24 DUP3 ADD MSTORE PUSH8 0x2224AB22A92927A9 PUSH1 0xC1 SHL PUSH1 0x44 DUP3 ADD MSTORE SWAP1 MLOAD SWAP1 DUP2 SWAP1 SUB PUSH1 0x64 ADD SWAP1 REVERT JUMPDEST PUSH2 0x1ED4 DUP11 PUSH1 0x15 DUP12 PUSH2 0x1E90 JUMPI PUSH1 0x0 PUSH2 0x1E93 JUMP JUMPDEST PUSH1 0x1 JUMPDEST PUSH1 0xFF AND PUSH1 0x2 DUP2 LT PUSH2 0x1EA0 JUMPI INVALID JUMPDEST PUSH1 0x2 DUP16 DUP2 SIGNEXTEND SWAP1 SIGNEXTEND PUSH1 0x0 SWAP1 DUP2 MSTORE SWAP2 ADD PUSH1 0x20 MSTORE PUSH1 0x40 SWAP1 DUP2 SWAP1 KECCAK256 SLOAD SWAP1 DUP5 ADD MLOAD PUSH2 0x1ECF SWAP1 PUSH1 0x1 PUSH1 0x1 PUSH1 0x80 SHL SUB AND DUP15 PUSH2 0x315A JUMP JUMPDEST PUSH2 0x32EF JUMP JUMPDEST SWAP8 POP JUMPDEST PUSH2 0x1F15 DUP9 PUSH1 0x15 DUP12 PUSH2 0x1EE9 JUMPI PUSH1 0x0 PUSH2 0x1EEC JUMP JUMPDEST PUSH1 0x1 JUMPDEST PUSH1 0xFF AND PUSH1 0x2 DUP2 LT PUSH2 0x1EF9 JUMPI INVALID JUMPDEST PUSH1 0x2 DUP16 DUP2 SIGNEXTEND SWAP1 SIGNEXTEND PUSH1 0x0 SWAP1 DUP2 MSTORE SWAP2 ADD PUSH1 0x20 MSTORE PUSH1 0x40 SWAP1 KECCAK256 SLOAD SWAP1 PUSH2 0x350E JUMP JUMPDEST PUSH1 0x15 DUP11 PUSH2 0x1F23 JUMPI PUSH1 0x0 PUSH2 0x1F26 JUMP JUMPDEST PUSH1 0x1 JUMPDEST PUSH1 0xFF AND PUSH1 0x2 DUP2 LT PUSH2 0x1F33 JUMPI INVALID JUMPDEST PUSH1 0x2 DUP15 DUP2 SIGNEXTEND SWAP1 SIGNEXTEND PUSH1 0x0 SWAP1 DUP2 MSTORE SWAP2 ADD PUSH1 0x20 MSTORE PUSH1 0x40 SWAP1 KECCAK256 SSTORE PUSH1 0x13 DUP10 PUSH2 0x1F57 JUMPI PUSH1 0x0 PUSH2 0x1F5A JUMP JUMPDEST PUSH1 0x1 JUMPDEST PUSH1 0xFF AND PUSH1 0x2 DUP2 LT PUSH2 0x1F67 JUMPI INVALID JUMPDEST PUSH1 0x1 PUSH1 0x1 PUSH1 0xA0 SHL SUB DUP9 AND PUSH1 0x0 SWAP1 DUP2 MSTORE SWAP2 ADD PUSH1 0x20 SWAP1 DUP2 MSTORE PUSH1 0x40 DUP1 DUP4 KECCAK256 PUSH1 0x2 DUP16 DUP2 SIGNEXTEND SWAP1 SIGNEXTEND DUP5 MSTORE SWAP1 SWAP2 MSTORE SWAP1 KECCAK256 PUSH1 0x3 ADD SLOAD PUSH1 0x15 DUP11 PUSH2 0x1FA2 JUMPI PUSH1 0x0 PUSH2 0x1FA5 JUMP JUMPDEST PUSH1 0x1 JUMPDEST PUSH1 0xFF AND PUSH1 0x2 DUP2 LT PUSH2 0x1FB2 JUMPI INVALID JUMPDEST ADD PUSH1 0x0 DUP14 PUSH1 0x2 SIGNEXTEND PUSH1 0x2 SIGNEXTEND DUP2 MSTORE PUSH1 0x20 ADD SWAP1 DUP2 MSTORE PUSH1 0x20 ADD PUSH1 0x0 KECCAK256 PUSH1 0x2 ADD SLOAD GT ISZERO PUSH2 0x203B JUMPI PUSH2 0x1FE0 DUP7 DUP13 DUP12 CALLER PUSH2 0x4293 JUMP JUMPDEST PUSH1 0x13 DUP10 PUSH2 0x1FEE JUMPI PUSH1 0x0 PUSH2 0x1FF1 JUMP JUMPDEST PUSH1 0x1 JUMPDEST PUSH1 0xFF AND PUSH1 0x2 DUP2 LT PUSH2 0x1FFE JUMPI INVALID JUMPDEST PUSH1 0x1 PUSH1 0x1 PUSH1 0xA0 SHL SUB DUP9 AND PUSH1 0x0 SWAP1 DUP2 MSTORE SWAP2 ADD PUSH1 0x20 SWAP1 DUP2 MSTORE PUSH1 0x40 DUP1 DUP4 KECCAK256 PUSH1 0x2 DUP16 DUP2 SIGNEXTEND DUP2 SIGNEXTEND DUP6 MSTORE SWAP3 MSTORE DUP3 KECCAK256 DUP3 DUP2 SSTORE PUSH1 0x1 DUP2 ADD DUP4 SWAP1 SSTORE SWAP1 DUP2 ADD DUP3 SWAP1 SSTORE PUSH1 0x3 ADD SSTORE JUMPDEST PUSH2 0x20AA DUP9 PUSH1 0x13 DUP12 PUSH2 0x204D JUMPI PUSH1 0x0 PUSH2 0x2050 JUMP JUMPDEST PUSH1 0x1 JUMPDEST PUSH1 0xFF AND PUSH1 0x2 DUP2 LT PUSH2 0x205D JUMPI INVALID JUMPDEST ADD PUSH1 0x0 DUP10 PUSH1 0x1 PUSH1 0x1 PUSH1 0xA0 SHL SUB AND PUSH1 0x1 PUSH1 0x1 PUSH1 0xA0 SHL SUB AND DUP2 MSTORE PUSH1 0x20 ADD SWAP1 DUP2 MSTORE PUSH1 0x20 ADD PUSH1 0x0 KECCAK256 PUSH1 0x0 DUP15 PUSH1 0x2 SIGNEXTEND PUSH1 0x2 SIGNEXTEND DUP2 MSTORE PUSH1 0x20 ADD SWAP1 DUP2 MSTORE PUSH1 0x20 ADD PUSH1 0x0 KECCAK256 PUSH1 0x0 ADD SLOAD PUSH2 0x350E SWAP1 SWAP2 SWAP1 PUSH4 0xFFFFFFFF AND JUMP JUMPDEST PUSH1 0x13 DUP11 PUSH2 0x20B8 JUMPI PUSH1 0x0 PUSH2 0x20BB JUMP JUMPDEST PUSH1 0x1 JUMPDEST PUSH1 0xFF AND PUSH1 0x2 DUP2 LT PUSH2 0x20C8 JUMPI INVALID JUMPDEST ADD PUSH1 0x0 DUP9 PUSH1 0x1 PUSH1 0x1 PUSH1 0xA0 SHL SUB AND PUSH1 0x1 PUSH1 0x1 PUSH1 0xA0 SHL SUB AND DUP2 MSTORE PUSH1 0x20 ADD SWAP1 DUP2 MSTORE PUSH1 0x20 ADD PUSH1 0x0 KECCAK256 PUSH1 0x0 DUP14 PUSH1 0x2 SIGNEXTEND PUSH1 0x2 SIGNEXTEND DUP2 MSTORE PUSH1 0x20 ADD SWAP1 DUP2 MSTORE PUSH1 0x20 ADD PUSH1 0x0 KECCAK256 PUSH1 0x0 ADD DUP2 SWAP1 SSTORE POP PUSH2 0x2196 DUP10 PUSH2 0x2121 JUMPI PUSH2 0x211C DUP12 DUP10 PUSH2 0x1935 JUMP JUMPDEST PUSH2 0x212B JUMP JUMPDEST PUSH2 0x212B DUP12 DUP10 PUSH2 0x2743 JUMP JUMPDEST PUSH1 0x13 DUP12 PUSH2 0x2139 JUMPI PUSH1 0x0 PUSH2 0x213C JUMP JUMPDEST PUSH1 0x1 JUMPDEST PUSH1 0xFF AND PUSH1 0x2 DUP2 LT PUSH2 0x2149 JUMPI INVALID JUMPDEST ADD PUSH1 0x0 DUP10 PUSH1 0x1 PUSH1 0x1 PUSH1 0xA0 SHL SUB AND PUSH1 0x1 PUSH1 0x1 PUSH1 0xA0 SHL SUB AND DUP2 MSTORE PUSH1 0x20 ADD SWAP1 DUP2 MSTORE PUSH1 0x20 ADD PUSH1 0x0 KECCAK256 PUSH1 0x0 DUP15 PUSH1 0x2 SIGNEXTEND PUSH1 0x2 SIGNEXTEND DUP2 MSTORE PUSH1 0x20 ADD SWAP1 DUP2 MSTORE PUSH1 0x20 ADD PUSH1 0x0 KECCAK256 PUSH1 0x1 ADD SLOAD PUSH2 0x350E SWAP1 SWAP2 SWAP1 PUSH4 0xFFFFFFFF AND JUMP JUMPDEST PUSH1 0x13 DUP11 PUSH2 0x21A4 JUMPI PUSH1 0x0 PUSH2 0x21A7 JUMP JUMPDEST PUSH1 0x1 JUMPDEST PUSH1 0xFF AND PUSH1 0x2 DUP2 LT PUSH2 0x21B4 JUMPI INVALID JUMPDEST ADD PUSH1 0x0 DUP9 PUSH1 0x1 PUSH1 0x1 PUSH1 0xA0 SHL SUB AND PUSH1 0x1 PUSH1 0x1 PUSH1 0xA0 SHL SUB AND DUP2 MSTORE PUSH1 0x20 ADD SWAP1 DUP2 MSTORE PUSH1 0x20 ADD PUSH1 0x0 KECCAK256 PUSH1 0x0 DUP14 PUSH1 0x2 SIGNEXTEND PUSH1 0x2 SIGNEXTEND DUP2 MSTORE PUSH1 0x20 ADD SWAP1 DUP2 MSTORE PUSH1 0x20 ADD PUSH1 0x0 KECCAK256 PUSH1 0x1 ADD DUP2 SWAP1 SSTORE POP PUSH2 0x2265 DUP11 PUSH1 0x13 DUP12 PUSH2 0x2208 JUMPI PUSH1 0x0 PUSH2 0x220B JUMP JUMPDEST PUSH1 0x1 JUMPDEST PUSH1 0xFF AND PUSH1 0x2 DUP2 LT PUSH2 0x2218 JUMPI INVALID JUMPDEST ADD PUSH1 0x0 DUP10 PUSH1 0x1 PUSH1 0x1 PUSH1 0xA0 SHL SUB AND PUSH1 0x1 PUSH1 0x1 PUSH1 0xA0 SHL SUB AND DUP2 MSTORE PUSH1 0x20 ADD SWAP1 DUP2 MSTORE PUSH1 0x20 ADD PUSH1 0x0 KECCAK256 PUSH1 0x0 DUP15 PUSH1 0x2 SIGNEXTEND PUSH1 0x2 SIGNEXTEND DUP2 MSTORE PUSH1 0x20 ADD SWAP1 DUP2 MSTORE PUSH1 0x20 ADD PUSH1 0x0 KECCAK256 PUSH1 0x2 ADD SLOAD PUSH2 0x350E SWAP1 SWAP2 SWAP1 PUSH4 0xFFFFFFFF AND JUMP JUMPDEST PUSH1 0x13 DUP11 PUSH2 0x2273 JUMPI PUSH1 0x0 PUSH2 0x2276 JUMP JUMPDEST PUSH1 0x1 JUMPDEST PUSH1 0xFF AND PUSH1 0x2 DUP2 LT PUSH2 0x2283 JUMPI INVALID JUMPDEST ADD PUSH1 0x0 DUP9 PUSH1 0x1 PUSH1 0x1 PUSH1 0xA0 SHL SUB AND PUSH1 0x1 PUSH1 0x1 PUSH1 0xA0 SHL SUB AND DUP2 MSTORE PUSH1 0x20 ADD SWAP1 DUP2 MSTORE PUSH1 0x20 ADD PUSH1 0x0 KECCAK256 PUSH1 0x0 DUP14 PUSH1 0x2 SIGNEXTEND PUSH1 0x2 SIGNEXTEND DUP2 MSTORE PUSH1 0x20 ADD SWAP1 DUP2 MSTORE PUSH1 0x20 ADD PUSH1 0x0 KECCAK256 PUSH1 0x2 ADD DUP2 SWAP1 SSTORE POP PUSH1 0x15 DUP10 PUSH2 0x22D3 JUMPI PUSH1 0x0 PUSH2 0x22D6 JUMP JUMPDEST PUSH1 0x1 JUMPDEST PUSH1 0xFF AND PUSH1 0x2 DUP2 LT PUSH2 0x22E3 JUMPI INVALID JUMPDEST ADD PUSH1 0x0 DUP13 PUSH1 0x2 SIGNEXTEND PUSH1 0x2 SIGNEXTEND DUP2 MSTORE PUSH1 0x20 ADD SWAP1 DUP2 MSTORE PUSH1 0x20 ADD PUSH1 0x0 KECCAK256 PUSH1 0x2 ADD SLOAD PUSH1 0x13 DUP11 PUSH2 0x230D JUMPI PUSH1 0x0 PUSH2 0x2310 JUMP JUMPDEST PUSH1 0x1 JUMPDEST PUSH1 0xFF AND PUSH1 0x2 DUP2 LT PUSH2 0x231D JUMPI INVALID JUMPDEST ADD PUSH1 0x0 DUP9 PUSH1 0x1 PUSH1 0x1 PUSH1 0xA0 SHL SUB AND PUSH1 0x1 PUSH1 0x1 PUSH1 0xA0 SHL SUB AND DUP2 MSTORE PUSH1 0x20 ADD SWAP1 DUP2 MSTORE PUSH1 0x20 ADD PUSH1 0x0 KECCAK256 PUSH1 0x0 DUP14 PUSH1 0x2 SIGNEXTEND PUSH1 0x2 SIGNEXTEND DUP2 MSTORE PUSH1 0x20 ADD SWAP1 DUP2 MSTORE PUSH1 0x20 ADD PUSH1 0x0 KECCAK256 PUSH1 0x3 ADD DUP2 SWAP1 SSTORE POP POP POP POP JUMPDEST DUP2 ISZERO PUSH2 0x2453 JUMPI PUSH1 0x0 DUP7 PUSH2 0x2376 JUMPI DUP3 PUSH2 0x2379 JUMP JUMPDEST PUSH1 0x0 JUMPDEST SWAP1 POP PUSH1 0x0 DUP8 PUSH2 0x2389 JUMPI PUSH1 0x0 PUSH2 0x238B JUMP JUMPDEST DUP4 JUMPDEST SWAP1 POP PUSH1 0x0 DUP1 PUSH2 0x239D CALLER DUP6 DUP6 PUSH1 0x1 PUSH2 0x37AE JUMP JUMPDEST SWAP2 POP SWAP2 POP PUSH2 0x23AB DUP3 DUP3 PUSH2 0x3854 JUMP JUMPDEST DUP7 PUSH1 0x1 PUSH1 0x1 PUSH1 0xA0 SHL SUB AND PUSH32 0xB029EC0911DFD170DBC1992B48561B88A491EE3E92F0D20DC4FED6851E5125AF DUP12 PUSH2 0x23E2 JUMPI PUSH1 0x0 PUSH2 0x23ED JUMP JUMPDEST PUSH2 0x23ED DUP14 DUP9 SUB PUSH2 0x33D8 JUMP JUMPDEST DUP13 PUSH2 0x2402 JUMPI PUSH2 0x23FD DUP15 DUP10 SUB PUSH2 0x33D8 JUMP JUMPDEST PUSH2 0x2405 JUMP JUMPDEST PUSH1 0x0 JUMPDEST PUSH2 0x2410 DUP7 DUP10 SUB PUSH2 0x33D8 JUMP JUMPDEST PUSH2 0x241B DUP7 DUP10 SUB PUSH2 0x33D8 JUMP JUMPDEST PUSH1 0x40 DUP1 MLOAD PUSH1 0x1 PUSH1 0x1 PUSH1 0x80 SHL SUB SWAP6 DUP7 AND DUP2 MSTORE SWAP4 DUP6 AND PUSH1 0x20 DUP6 ADD MSTORE SWAP2 DUP5 AND DUP4 DUP4 ADD MSTORE SWAP1 SWAP3 AND PUSH1 0x60 DUP3 ADD MSTORE SWAP1 MLOAD SWAP1 DUP2 SWAP1 SUB PUSH1 0x80 ADD SWAP1 LOG2 POP POP POP POP JUMPDEST DUP3 PUSH1 0x1 PUSH1 0x1 PUSH1 0xA0 SHL SUB AND PUSH32 0xF1A73C4BA2A463DD1BD57BBAE8BF5385904B0E25B6EB91B82276A57481B9FC68 DUP10 DUP9 PUSH2 0x2492 JUMPI PUSH2 0x248D DUP9 PUSH2 0x33D8 JUMP JUMPDEST PUSH2 0x2495 JUMP JUMPDEST PUSH1 0x0 JUMPDEST DUP10 PUSH2 0x24A1 JUMPI PUSH1 0x0 PUSH2 0x24AA JUMP JUMPDEST PUSH2 0x24AA DUP10 PUSH2 0x33D8 JUMP JUMPDEST DUP11 PUSH2 0x24B6 JUMPI PUSH1 0x0 PUSH2 0x24BF JUMP JUMPDEST PUSH2 0x24BF DUP13 PUSH2 0x33D8 JUMP JUMPDEST DUP12 PUSH2 0x24D2 JUMPI PUSH2 0x24CD DUP14 PUSH2 0x33D8 JUMP JUMPDEST PUSH2 0x24D5 JUMP JUMPDEST PUSH1 0x0 JUMPDEST PUSH1 0x40 DUP1 MLOAD PUSH1 0x2 SWAP7 SWAP1 SWAP7 SIGNEXTEND DUP7 MSTORE PUSH1 0x1 PUSH1 0x1 PUSH1 0x80 SHL SUB SWAP5 DUP6 AND PUSH1 0x20 DUP8 ADD MSTORE SWAP3 DUP5 AND DUP6 DUP5 ADD MSTORE SWAP1 DUP4 AND PUSH1 0x60 DUP6 ADD MSTORE SWAP1 SWAP2 AND PUSH1 0x80 DUP4 ADD MSTORE MLOAD SWAP1 DUP2 SWAP1 SUB PUSH1 0xA0 ADD SWAP1 LOG2 PUSH2 0x251A PUSH2 0x355D JUMP JUMPDEST PUSH1 0x1F SSTORE PUSH2 0x2525 PUSH2 0x33F3 JUMP JUMPDEST PUSH1 0x20 SSTORE POP POP PUSH1 0x1E DUP1 SLOAD PUSH1 0xFF NOT AND PUSH1 0x1 OR SWAP1 SSTORE POP SWAP1 SWAP5 SWAP4 POP POP POP POP JUMP JUMPDEST PUSH1 0x1E SLOAD PUSH1 0x0 SWAP1 DUP2 SWAP1 PUSH1 0xFF AND PUSH2 0x2583 JUMPI PUSH1 0x40 DUP1 MLOAD PUSH3 0x461BCD PUSH1 0xE5 SHL DUP2 MSTORE PUSH1 0x20 PUSH1 0x4 DUP3 ADD MSTORE PUSH1 0x3 PUSH1 0x24 DUP3 ADD MSTORE PUSH3 0x4C4F4B PUSH1 0xE8 SHL PUSH1 0x44 DUP3 ADD MSTORE SWAP1 MLOAD SWAP1 DUP2 SWAP1 SUB PUSH1 0x64 ADD SWAP1 REVERT JUMPDEST PUSH1 0x1E DUP1 SLOAD PUSH1 0xFF NOT AND SWAP1 SSTORE ADDRESS PUSH1 0x0 SWAP1 DUP2 MSTORE PUSH1 0x18 PUSH1 0x20 MSTORE PUSH1 0x40 SWAP1 KECCAK256 SLOAD PUSH2 0x25A6 DUP2 PUSH2 0xEA4 JUMP JUMPDEST SWAP1 SWAP4 POP SWAP2 POP PUSH2 0x25BA PUSH2 0x17DA DUP5 PUSH2 0x16C9 PUSH2 0xF6D JUMP JUMPDEST PUSH1 0x3 DUP2 SWAP1 SSTORE PUSH2 0x25C9 JUMPI PUSH1 0x1 PUSH1 0x3 SSTORE JUMPDEST ADDRESS PUSH1 0x0 SWAP1 DUP2 MSTORE PUSH1 0x1A PUSH1 0x20 MSTORE PUSH1 0x40 SWAP1 KECCAK256 SLOAD PUSH1 0x1C SLOAD PUSH2 0x25F7 SWAP2 PUSH2 0x25F0 SWAP2 DUP5 SWAP2 PUSH2 0x18E1 SWAP2 SWAP1 PUSH2 0x315A JUMP JUMPDEST DUP5 SWAP1 PUSH2 0x350E JUMP JUMPDEST ADDRESS PUSH1 0x0 SWAP1 DUP2 MSTORE PUSH1 0x1B PUSH1 0x20 MSTORE PUSH1 0x40 SWAP1 KECCAK256 SLOAD PUSH1 0x1D SLOAD SWAP2 SWAP5 POP PUSH2 0x2627 SWAP2 PUSH2 0x2620 SWAP2 DUP5 SWAP2 PUSH2 0x18E1 SWAP2 PUSH2 0x315A JUMP JUMPDEST DUP4 SWAP1 PUSH2 0x350E JUMP JUMPDEST PUSH1 0x11 SLOAD SWAP1 SWAP3 POP PUSH2 0x264C SWAP1 PUSH1 0x1 PUSH1 0x1 PUSH1 0xA0 SHL SUB AND DUP6 PUSH2 0x2647 DUP7 PUSH2 0x1C4E PUSH2 0x355D JUMP JUMPDEST PUSH2 0x396B JUMP JUMPDEST PUSH1 0x12 SLOAD PUSH2 0x2669 SWAP1 PUSH1 0x1 PUSH1 0x1 PUSH1 0xA0 SHL SUB AND DUP6 PUSH2 0x2647 DUP6 PUSH2 0x1C4E PUSH2 0x33F3 JUMP JUMPDEST PUSH2 0x2673 ADDRESS DUP3 PUSH2 0x44B7 JUMP JUMPDEST POP POP PUSH1 0x2 SLOAD PUSH1 0x40 DUP1 MLOAD DUP6 DUP2 MSTORE PUSH1 0x1 PUSH1 0x1 PUSH1 0xA0 SHL SUB SWAP3 DUP4 AND PUSH1 0x20 DUP3 ADD MSTORE SWAP2 DUP7 AND DUP3 DUP3 ADD MSTORE MLOAD CALLER SWAP2 PUSH32 0xDCCD412F0B1252819CB1FD330B93224CA42612892BB3F4F789976E6D81936496 SWAP2 SWAP1 DUP2 SWAP1 SUB PUSH1 0x60 ADD SWAP1 LOG2 PUSH2 0x26CC PUSH2 0x355D JUMP JUMPDEST PUSH1 0x1F SSTORE PUSH2 0x26D7 PUSH2 0x33F3 JUMP JUMPDEST PUSH1 0x20 SSTORE POP PUSH1 0x1E DUP1 SLOAD PUSH1 0xFF NOT AND PUSH1 0x1 OR SWAP1 SSTORE SWAP1 SWAP3 SWAP1 SWAP2 POP JUMP JUMPDEST PUSH32 0x0 DUP2 JUMP JUMPDEST PUSH1 0x20 SLOAD DUP2 JUMP JUMPDEST PUSH1 0x60 PUSH2 0x97A PUSH2 0x97F JUMP JUMPDEST PUSH1 0x0 PUSH2 0x272E DUP3 PUSH2 0x33D8 JUMP JUMPDEST POP PUSH2 0x273A CALLER DUP5 DUP5 PUSH2 0x31AA JUMP JUMPDEST POP PUSH1 0x1 SWAP3 SWAP2 POP POP JUMP JUMPDEST PUSH1 0x0 PUSH1 0x1 PUSH1 0x1 PUSH1 0xA0 SHL SUB DUP3 AND ISZERO DUP1 PUSH2 0x2759 JUMPI POP DUP3 ISZERO JUMPDEST ISZERO PUSH2 0x2766 JUMPI POP PUSH1 0x0 PUSH2 0xD1F JUMP JUMPDEST PUSH1 0x60 PUSH2 0x2788 PUSH1 0x1 PUSH1 0x1 PUSH1 0xA0 SHL SUB DUP5 AND DUP3 PUSH2 0x2780 DUP8 DUP4 PUSH2 0x3AD4 JUMP JUMPDEST SWAP1 SHR SWAP1 PUSH2 0x3AD4 JUMP JUMPDEST SWAP1 SHR SWAP1 POP DUP1 ISZERO PUSH2 0xD1F JUMPI PUSH1 0x0 NOT ADD SWAP3 SWAP2 POP POP JUMP JUMPDEST PUSH1 0x1E SLOAD PUSH1 0x0 SWAP1 DUP2 SWAP1 PUSH1 0xFF AND PUSH2 0x27DE JUMPI PUSH1 0x40 DUP1 MLOAD PUSH3 0x461BCD PUSH1 0xE5 SHL DUP2 MSTORE PUSH1 0x20 PUSH1 0x4 DUP3 ADD MSTORE PUSH1 0x3 PUSH1 0x24 DUP3 ADD MSTORE PUSH3 0x4C4F4B PUSH1 0xE8 SHL PUSH1 0x44 DUP3 ADD MSTORE SWAP1 MLOAD SWAP1 DUP2 SWAP1 SUB PUSH1 0x64 ADD SWAP1 REVERT JUMPDEST PUSH1 0x1E DUP1 SLOAD PUSH1 0xFF NOT AND SWAP1 SSTORE PUSH1 0x0 PUSH2 0x27F3 DUP7 PUSH2 0x3C98 JUMP JUMPDEST PUSH1 0x2 DUP8 DUP2 SIGNEXTEND SWAP1 SIGNEXTEND PUSH1 0x0 SWAP1 DUP2 MSTORE PUSH1 0xB PUSH1 0x20 SWAP1 DUP2 MSTORE PUSH1 0x40 DUP1 DUP4 KECCAK256 DUP2 MLOAD PUSH1 0x80 DUP2 ADD DUP4 MSTORE DUP2 SLOAD PUSH1 0x1 PUSH1 0x1 PUSH1 0x80 SHL SUB DUP1 DUP3 AND DUP4 MSTORE PUSH1 0x1 PUSH1 0x80 SHL SWAP2 DUP3 SWAP1 DIV DUP2 AND SWAP6 DUP4 ADD SWAP6 SWAP1 SWAP6 MSTORE PUSH1 0x1 SWAP1 SWAP3 ADD SLOAD DUP1 DUP6 AND SWAP4 DUP3 ADD SWAP4 SWAP1 SWAP4 MSTORE SWAP2 DIV SWAP1 SWAP2 AND PUSH1 0x60 DUP3 ADD MSTORE SWAP2 SWAP3 POP PUSH2 0x285F SWAP2 DUP9 SWAP2 DUP5 SWAP1 DUP1 PUSH2 0x3FC9 JUMP JUMPDEST PUSH1 0x2 DUP7 DUP2 SIGNEXTEND SWAP1 SIGNEXTEND PUSH1 0x0 SWAP1 DUP2 MSTORE PUSH1 0xB PUSH1 0x20 SWAP1 DUP2 MSTORE PUSH1 0x40 SWAP2 DUP3 SWAP1 KECCAK256 DUP3 MLOAD PUSH1 0x80 DUP2 ADD DUP5 MSTORE DUP2 SLOAD PUSH1 0x1 PUSH1 0x1 PUSH1 0x80 SHL SUB DUP1 DUP3 AND DUP4 MSTORE PUSH1 0x1 PUSH1 0x80 SHL SWAP2 DUP3 SWAP1 DIV DUP2 AND SWAP5 DUP4 ADD SWAP5 SWAP1 SWAP5 MSTORE PUSH1 0x1 SWAP1 SWAP3 ADD SLOAD DUP1 DUP5 AND SWAP5 DUP3 ADD SWAP5 SWAP1 SWAP5 MSTORE SWAP3 DIV AND PUSH1 0x60 DUP3 ADD MSTORE CALLER DUP1 EXTCODESIZE DUP1 ISZERO PUSH2 0x292C JUMPI DUP2 PUSH1 0x1 PUSH1 0x1 PUSH1 0xA0 SHL SUB AND PUSH4 0x67E404CE PUSH1 0x40 MLOAD DUP2 PUSH4 0xFFFFFFFF AND PUSH1 0xE0 SHL DUP2 MSTORE PUSH1 0x4 ADD PUSH1 0x20 PUSH1 0x40 MLOAD DUP1 DUP4 SUB DUP2 PUSH1 0x0 DUP8 DUP1 EXTCODESIZE ISZERO DUP1 ISZERO PUSH2 0x28FD JUMPI PUSH1 0x0 DUP1 REVERT JUMPDEST POP GAS CALL ISZERO DUP1 ISZERO PUSH2 0x2911 JUMPI RETURNDATASIZE PUSH1 0x0 DUP1 RETURNDATACOPY RETURNDATASIZE PUSH1 0x0 REVERT JUMPDEST POP POP POP POP PUSH1 0x40 MLOAD RETURNDATASIZE PUSH1 0x20 DUP2 LT ISZERO PUSH2 0x2927 JUMPI PUSH1 0x0 DUP1 REVERT JUMPDEST POP MLOAD SWAP2 POP JUMPDEST PUSH2 0x2938 DUP10 DUP4 DUP11 DUP11 PUSH2 0x11AF JUMP JUMPDEST SWAP1 SWAP7 POP SWAP5 POP PUSH1 0x0 PUSH1 0x13 DUP9 PUSH2 0x294D JUMPI PUSH1 0x0 PUSH2 0x2950 JUMP JUMPDEST PUSH1 0x1 JUMPDEST PUSH1 0xFF AND PUSH1 0x2 DUP2 LT PUSH2 0x295D JUMPI INVALID JUMPDEST PUSH1 0x1 PUSH1 0x1 PUSH1 0xA0 SHL SUB DUP6 AND PUSH1 0x0 SWAP1 DUP2 MSTORE SWAP2 ADD PUSH1 0x20 SWAP1 DUP2 MSTORE PUSH1 0x40 DUP1 DUP4 KECCAK256 PUSH1 0x2 DUP15 DUP2 SIGNEXTEND SWAP1 SIGNEXTEND DUP5 MSTORE SWAP1 SWAP2 MSTORE SWAP1 KECCAK256 DUP1 SLOAD SWAP1 SWAP2 POP DUP10 GT ISZERO PUSH2 0x2997 JUMPI PUSH1 0x0 DUP1 REVERT JUMPDEST DUP1 SLOAD PUSH2 0x29AE JUMPI PUSH1 0x0 DUP1 SWAP7 POP SWAP7 POP POP POP POP POP POP PUSH2 0x2BEF JUMP JUMPDEST PUSH2 0x29C1 DUP10 DUP3 PUSH1 0x2 ADD SLOAD DUP4 PUSH1 0x0 ADD SLOAD PUSH2 0x32EF JUMP JUMPDEST PUSH1 0x2 DUP3 ADD SSTORE PUSH1 0x1 DUP2 ADD SLOAD DUP2 SLOAD PUSH2 0x29D8 SWAP2 DUP12 SWAP2 PUSH2 0x32EF JUMP JUMPDEST PUSH1 0x1 DUP3 ADD SSTORE DUP1 SLOAD DUP10 SWAP1 SUB DUP2 SSTORE DUP8 ISZERO PUSH2 0x2A44 JUMPI PUSH2 0x29F3 DUP8 PUSH2 0x33D8 JUMP JUMPDEST PUSH1 0x40 DUP6 ADD DUP1 MLOAD SWAP2 SWAP1 SWAP2 SUB PUSH1 0x1 PUSH1 0x1 PUSH1 0x80 SHL SUB AND SWAP1 MSTORE PUSH2 0x2A11 DUP7 PUSH2 0x33D8 JUMP JUMPDEST PUSH1 0x60 DUP6 ADD DUP1 MLOAD SWAP2 SWAP1 SWAP2 SUB PUSH1 0x1 PUSH1 0x1 PUSH1 0x80 SHL SUB AND SWAP1 MSTORE PUSH2 0x2A3F DUP11 DUP6 DUP8 PUSH2 0x2A35 DUP12 PUSH2 0x427D JUMP JUMPDEST PUSH1 0x0 SUB PUSH1 0x0 PUSH2 0x3FC9 JUMP JUMPDEST PUSH2 0x2A8A JUMP JUMPDEST PUSH2 0x2A4D DUP8 PUSH2 0x33D8 JUMP JUMPDEST PUSH1 0x20 DUP6 ADD DUP1 MLOAD SWAP2 SWAP1 SWAP2 SUB PUSH1 0x1 PUSH1 0x1 PUSH1 0x80 SHL SUB AND SWAP1 MSTORE PUSH2 0x2A6B DUP7 PUSH2 0x33D8 JUMP JUMPDEST DUP5 MLOAD SUB PUSH1 0x1 PUSH1 0x1 PUSH1 0x80 SHL SUB AND DUP5 MSTORE PUSH2 0x2A8A DUP11 DUP6 DUP8 PUSH1 0x0 PUSH2 0x1CF3 DUP12 PUSH2 0x427D JUMP JUMPDEST DUP8 DUP1 ISZERO PUSH2 0x2A97 JUMPI POP PUSH1 0x0 DUP7 GT JUMPDEST ISZERO PUSH2 0x2AD4 JUMPI PUSH2 0x2AB7 PUSH1 0x0 PUSH2 0x1638 PUSH1 0x64 PUSH2 0x2AB1 DUP11 PUSH1 0x3 PUSH2 0x3AD4 JUMP JUMPDEST SWAP1 PUSH2 0x45BB JUMP JUMPDEST PUSH2 0x2AD1 PUSH2 0x2ACA PUSH1 0x64 PUSH2 0x2AB1 DUP10 PUSH1 0x3 PUSH2 0x3AD4 JUMP JUMPDEST DUP8 SWAP1 PUSH2 0x315A JUMP JUMPDEST SWAP6 POP JUMPDEST DUP8 ISZERO DUP1 ISZERO PUSH2 0x2AE2 JUMPI POP PUSH1 0x0 DUP8 GT JUMPDEST ISZERO PUSH2 0x2B1E JUMPI PUSH2 0x2B01 PUSH2 0x2AFA PUSH1 0x64 PUSH2 0x2AB1 DUP11 PUSH1 0x3 PUSH2 0x3AD4 JUMP JUMPDEST PUSH1 0x0 PUSH2 0x3854 JUMP JUMPDEST PUSH2 0x2B1B PUSH2 0x2B14 PUSH1 0x64 PUSH2 0x2AB1 DUP10 PUSH1 0x3 PUSH2 0x3AD4 JUMP JUMPDEST DUP9 SWAP1 PUSH2 0x315A JUMP JUMPDEST SWAP7 POP JUMPDEST PUSH2 0x2B2B CALLER DUP9 DUP9 PUSH1 0x0 PUSH2 0x37AE JUMP JUMPDEST POP POP DUP3 PUSH1 0x1 PUSH1 0x1 PUSH1 0xA0 SHL SUB AND PUSH32 0x884E468729443F48E19C8F9AE60F027026340405904D8ACA6016DE907F671538 DUP12 DUP11 PUSH2 0x2B6C JUMPI PUSH2 0x2B67 DUP13 PUSH2 0x33D8 JUMP JUMPDEST PUSH2 0x2B6F JUMP JUMPDEST PUSH1 0x0 JUMPDEST DUP12 PUSH2 0x2B7B JUMPI PUSH1 0x0 PUSH2 0x2B84 JUMP JUMPDEST PUSH2 0x2B84 DUP14 PUSH2 0x33D8 JUMP JUMPDEST PUSH2 0x2B8D DUP13 PUSH2 0x33D8 JUMP JUMPDEST PUSH2 0x2B96 DUP13 PUSH2 0x33D8 JUMP JUMPDEST PUSH1 0x40 DUP1 MLOAD PUSH1 0x2 SWAP7 SWAP1 SWAP7 SIGNEXTEND DUP7 MSTORE PUSH1 0x1 PUSH1 0x1 PUSH1 0x80 SHL SUB SWAP5 DUP6 AND PUSH1 0x20 DUP8 ADD MSTORE SWAP3 DUP5 AND DUP6 DUP5 ADD MSTORE SWAP1 DUP4 AND PUSH1 0x60 DUP6 ADD MSTORE SWAP1 SWAP2 AND PUSH1 0x80 DUP4 ADD MSTORE MLOAD SWAP1 DUP2 SWAP1 SUB PUSH1 0xA0 ADD SWAP1 LOG2 PUSH2 0x2BDB PUSH2 0x355D JUMP JUMPDEST PUSH1 0x1F SSTORE PUSH2 0x2BE6 PUSH2 0x33F3 JUMP JUMPDEST PUSH1 0x20 SSTORE POP POP POP POP POP JUMPDEST PUSH1 0x1E DUP1 SLOAD PUSH1 0xFF NOT AND PUSH1 0x1 OR SWAP1 SSTORE SWAP1 SWAP5 SWAP1 SWAP4 POP SWAP2 POP POP JUMP JUMPDEST PUSH1 0x0 DUP1 DUP1 DUP1 DUP1 ADDRESS PUSH4 0x2EA5E1F PUSH1 0xE0 SHL DUP9 DUP9 DUP1 PUSH2 0x2C26 JUMPI PUSH3 0x7FFFFE NOT PUSH2 0x2C2B JUMP JUMPDEST PUSH3 0x7FFFFF JUMPDEST PUSH1 0x40 DUP1 MLOAD PUSH1 0x24 DUP2 ADD SWAP5 SWAP1 SWAP5 MSTORE SWAP2 ISZERO ISZERO PUSH1 0x44 DUP5 ADD MSTORE PUSH1 0x2 SIGNEXTEND PUSH1 0x64 DUP1 DUP5 ADD SWAP2 SWAP1 SWAP2 MSTORE DUP2 MLOAD DUP1 DUP5 SUB SWAP1 SWAP2 ADD DUP2 MSTORE PUSH1 0x84 SWAP1 SWAP3 ADD DUP2 MSTORE PUSH1 0x20 DUP3 ADD DUP1 MLOAD PUSH1 0x1 PUSH1 0x1 PUSH1 0xE0 SHL SUB AND PUSH1 0x1 PUSH1 0x1 PUSH1 0xE0 SHL SUB NOT SWAP1 SWAP5 AND SWAP4 SWAP1 SWAP4 OR DUP4 MSTORE MLOAD DUP2 MLOAD SWAP2 SWAP3 SWAP1 SWAP2 DUP3 SWAP2 SWAP1 DUP1 DUP4 DUP4 JUMPDEST PUSH1 0x20 DUP4 LT PUSH2 0x2CAA JUMPI DUP1 MLOAD DUP3 MSTORE PUSH1 0x1F NOT SWAP1 SWAP3 ADD SWAP2 PUSH1 0x20 SWAP2 DUP3 ADD SWAP2 ADD PUSH2 0x2C8B JUMP JUMPDEST PUSH1 0x1 DUP4 PUSH1 0x20 SUB PUSH2 0x100 EXP SUB DUP1 NOT DUP3 MLOAD AND DUP2 DUP5 MLOAD AND DUP1 DUP3 OR DUP6 MSTORE POP POP POP POP POP POP SWAP1 POP ADD SWAP2 POP POP PUSH1 0x0 PUSH1 0x40 MLOAD DUP1 DUP4 SUB DUP2 DUP6 GAS STATICCALL SWAP2 POP POP RETURNDATASIZE DUP1 PUSH1 0x0 DUP2 EQ PUSH2 0x2E9 JUMPI PUSH1 0x40 MLOAD SWAP2 POP PUSH1 0x1F NOT PUSH1 0x3F RETURNDATASIZE ADD AND DUP3 ADD PUSH1 0x40 MSTORE RETURNDATASIZE DUP3 MSTORE RETURNDATASIZE PUSH1 0x0 PUSH1 0x20 DUP5 ADD RETURNDATACOPY PUSH2 0x2EE JUMP JUMPDEST PUSH1 0x12 SLOAD PUSH1 0x1 PUSH1 0x1 PUSH1 0xA0 SHL SUB AND DUP2 JUMP JUMPDEST PUSH1 0x4 SLOAD PUSH1 0x80 DUP2 SWAP1 SHR SWAP2 PUSH1 0x1 PUSH1 0x1 PUSH1 0x80 SHL SUB SWAP1 SWAP2 AND SWAP1 JUMP JUMPDEST PUSH1 0x19 PUSH1 0x20 SWAP1 DUP2 MSTORE PUSH1 0x0 SWAP3 DUP4 MSTORE PUSH1 0x40 DUP1 DUP5 KECCAK256 SWAP1 SWAP2 MSTORE SWAP1 DUP3 MSTORE SWAP1 KECCAK256 SLOAD DUP2 JUMP JUMPDEST PUSH1 0x0 PUSH1 0x13 PUSH1 0x1 PUSH2 0xF32 JUMP JUMPDEST PUSH1 0x0 DUP1 PUSH1 0x0 DUP1 PUSH1 0x0 PUSH2 0x2D69 DUP8 PUSH2 0x45CE JUMP JUMPDEST SWAP4 POP SWAP4 POP SWAP4 POP SWAP4 POP PUSH2 0x2D91 PUSH1 0x5 DUP8 PUSH1 0x2 DUP2 LT PUSH2 0x2D81 JUMPI INVALID JUMPDEST ADD SLOAD PUSH2 0x2D8C DUP7 PUSH2 0x460D JUMP JUMPDEST PUSH2 0x4616 JUMP JUMPDEST ISZERO PUSH2 0x2DA3 JUMPI PUSH1 0x1 SWAP5 POP POP POP POP POP PUSH2 0xD1F JUMP JUMPDEST PUSH2 0x2DCC PUSH1 0x7 DUP8 PUSH1 0x2 DUP2 LT PUSH2 0x2DB3 JUMPI INVALID JUMPDEST PUSH1 0x0 DUP8 DUP2 SIGNEXTEND DUP2 SIGNEXTEND DUP2 MSTORE SWAP2 ADD PUSH1 0x20 MSTORE PUSH1 0x40 SWAP1 KECCAK256 SLOAD DUP5 PUSH2 0x4616 JUMP JUMPDEST ISZERO PUSH2 0x2DDE JUMPI PUSH1 0x1 SWAP5 POP POP POP POP POP PUSH2 0xD1F JUMP JUMPDEST PUSH2 0x2E0A PUSH1 0x9 DUP8 PUSH1 0x2 DUP2 LT PUSH2 0x2DEE JUMPI INVALID JUMPDEST PUSH1 0x1 DUP6 DUP2 SIGNEXTEND SWAP1 SIGNEXTEND PUSH1 0x0 SWAP1 DUP2 MSTORE SWAP2 ADD PUSH1 0x20 MSTORE PUSH1 0x40 SWAP1 KECCAK256 SLOAD DUP3 PUSH2 0x4616 JUMP JUMPDEST ISZERO PUSH2 0x2E1C JUMPI PUSH1 0x1 SWAP5 POP POP POP POP POP PUSH2 0xD1F JUMP JUMPDEST PUSH1 0x0 SWAP5 POP POP POP POP POP PUSH2 0xD1F JUMP JUMPDEST PUSH1 0x1B PUSH1 0x20 MSTORE PUSH1 0x0 SWAP1 DUP2 MSTORE PUSH1 0x40 SWAP1 KECCAK256 SLOAD DUP2 JUMP JUMPDEST PUSH1 0x0 PUSH5 0x1000276A3 PUSH1 0x1 PUSH1 0x1 PUSH1 0xA0 SHL SUB DUP4 AND LT DUP1 ISZERO SWAP1 PUSH2 0x2E77 JUMPI POP PUSH20 0xFFFD8963EFD1FC6A506488495D951D5263988D26 PUSH1 0x1 PUSH1 0x1 PUSH1 0xA0 SHL SUB DUP4 AND LT JUMPDEST PUSH2 0x2EAC JUMPI PUSH1 0x40 DUP1 MLOAD PUSH3 0x461BCD PUSH1 0xE5 SHL DUP2 MSTORE PUSH1 0x20 PUSH1 0x4 DUP3 ADD MSTORE PUSH1 0x1 PUSH1 0x24 DUP3 ADD MSTORE PUSH1 0x29 PUSH1 0xF9 SHL PUSH1 0x44 DUP3 ADD MSTORE SWAP1 MLOAD SWAP1 DUP2 SWAP1 SUB PUSH1 0x64 ADD SWAP1 REVERT JUMPDEST PUSH5 0x100000000 PUSH1 0x1 PUSH1 0xC0 SHL SUB PUSH1 0x20 DUP4 SWAP1 SHL AND PUSH1 0x1 PUSH1 0x1 PUSH1 0x80 SHL SUB DUP2 GT PUSH1 0x7 SHL DUP2 DUP2 SHR PUSH8 0xFFFFFFFFFFFFFFFF DUP2 GT PUSH1 0x6 SHL SWAP1 DUP2 SHR PUSH4 0xFFFFFFFF DUP2 GT PUSH1 0x5 SHL SWAP1 DUP2 SHR PUSH2 0xFFFF DUP2 GT PUSH1 0x4 SHL SWAP1 DUP2 SHR PUSH1 0xFF DUP2 GT PUSH1 0x3 SWAP1 DUP2 SHL SWAP2 DUP3 SHR PUSH1 0xF DUP2 GT PUSH1 0x2 SHL SWAP1 DUP2 SHR SWAP2 DUP3 GT PUSH1 0x1 SWAP1 DUP2 SHL SWAP3 DUP4 SHR SWAP8 SWAP1 DUP9 GT SWAP7 OR SWAP1 SWAP5 OR SWAP1 SWAP3 OR OR SWAP1 SWAP2 OR OR OR PUSH1 0x80 DUP2 LT PUSH2 0x2F40 JUMPI PUSH1 0x7F DUP2 SUB DUP4 SWAP1 SHR SWAP2 POP PUSH2 0x2F4A JUMP JUMPDEST DUP1 PUSH1 0x7F SUB DUP4 SWAP1 SHL SWAP2 POP JUMPDEST SWAP1 DUP1 MUL PUSH1 0x7F DUP2 DUP2 SHR PUSH1 0xFF DUP4 DUP2 SHR SWAP2 SWAP1 SWAP2 SHR DUP1 MUL DUP1 DUP4 SHR DUP2 DUP4 SHR SHR DUP1 MUL DUP1 DUP5 SHR DUP2 DUP5 SHR SHR DUP1 MUL DUP1 DUP6 SHR DUP2 DUP6 SHR SHR DUP1 MUL DUP1 DUP7 SHR DUP2 DUP7 SHR SHR DUP1 MUL DUP1 DUP8 SHR DUP2 DUP8 SHR SHR DUP1 MUL DUP1 DUP9 SHR DUP2 DUP9 SHR SHR DUP1 MUL DUP1 DUP10 SHR DUP2 DUP10 SHR SHR DUP1 MUL DUP1 DUP11 SHR DUP2 DUP11 SHR SHR DUP1 MUL DUP1 DUP12 SHR DUP2 DUP12 SHR SHR DUP1 MUL DUP1 DUP13 SHR DUP2 DUP13 SHR SHR DUP1 MUL DUP1 DUP14 SHR DUP2 DUP14 SHR SHR DUP1 MUL DUP1 DUP15 SHR SWAP13 DUP2 SWAP1 SHR SWAP13 SWAP1 SWAP13 SHR DUP1 MUL SWAP13 DUP14 SWAP1 SHR SWAP15 SWAP14 PUSH1 0x7F NOT DUP16 ADD PUSH1 0x40 SHL PUSH1 0xC0 SWAP2 SWAP1 SWAP2 SHR PUSH8 0x8000000000000000 AND OR PUSH1 0xC1 SWAP12 SWAP1 SWAP12 SHR PUSH8 0x4000000000000000 AND SWAP11 SWAP1 SWAP11 OR PUSH1 0xC2 SWAP10 SWAP1 SWAP10 SHR PUSH8 0x2000000000000000 AND SWAP9 SWAP1 SWAP9 OR PUSH1 0xC3 SWAP8 SWAP1 SWAP8 SHR PUSH8 0x1000000000000000 AND SWAP7 SWAP1 SWAP7 OR PUSH1 0xC4 SWAP6 SWAP1 SWAP6 SHR PUSH8 0x800000000000000 AND SWAP5 SWAP1 SWAP5 OR PUSH1 0xC5 SWAP4 SWAP1 SWAP4 SHR PUSH8 0x400000000000000 AND SWAP3 SWAP1 SWAP3 OR PUSH1 0xC6 SWAP2 SWAP1 SWAP2 SHR PUSH8 0x200000000000000 AND OR PUSH1 0xC7 SWAP2 SWAP1 SWAP2 SHR PUSH8 0x100000000000000 AND OR PUSH1 0xC8 SWAP2 SWAP1 SWAP2 SHR PUSH7 0x80000000000000 AND OR PUSH1 0xC9 SWAP2 SWAP1 SWAP2 SHR PUSH7 0x40000000000000 AND OR PUSH1 0xCA SWAP2 SWAP1 SWAP2 SHR PUSH7 0x20000000000000 AND OR PUSH1 0xCB SWAP2 SWAP1 SWAP2 SHR PUSH7 0x10000000000000 AND OR PUSH1 0xCC SWAP2 SWAP1 SWAP2 SHR PUSH7 0x8000000000000 AND OR PUSH1 0xCD SWAP2 SWAP1 SWAP2 SHR PUSH7 0x4000000000000 AND OR PUSH10 0x3627A301D71055774C85 DUP2 MUL PUSH16 0x28F6481AB7F045A5AF012A19D003AA9 NOT DUP2 ADD PUSH1 0x80 SWAP1 DUP2 SAR SWAP1 PUSH16 0xDB2DF09E81959A81455E260799A0632F DUP4 ADD SWAP1 SAR PUSH1 0x2 DUP2 DUP2 SIGNEXTEND SWAP1 DUP4 SWAP1 SIGNEXTEND EQ PUSH2 0x314B JUMPI DUP9 PUSH1 0x1 PUSH1 0x1 PUSH1 0xA0 SHL SUB AND PUSH2 0x312F DUP3 PUSH2 0x3C98 JUMP JUMPDEST PUSH1 0x1 PUSH1 0x1 PUSH1 0xA0 SHL SUB AND GT ISZERO PUSH2 0x3144 JUMPI DUP2 PUSH2 0x3146 JUMP JUMPDEST DUP1 JUMPDEST PUSH2 0x314D JUMP JUMPDEST DUP2 JUMPDEST SWAP10 SWAP9 POP POP POP POP POP POP POP POP POP JUMP JUMPDEST DUP1 DUP3 SUB DUP3 DUP2 GT ISZERO PUSH2 0xD1F JUMPI PUSH1 0x40 DUP1 MLOAD PUSH3 0x461BCD PUSH1 0xE5 SHL DUP2 MSTORE PUSH1 0x20 PUSH1 0x4 DUP3 ADD MSTORE PUSH1 0x15 PUSH1 0x24 DUP3 ADD MSTORE PUSH21 0x64732D6D6174682D7375622D756E646572666C6F77 PUSH1 0x58 SHL PUSH1 0x44 DUP3 ADD MSTORE SWAP1 MLOAD SWAP1 DUP2 SWAP1 SUB PUSH1 0x64 ADD SWAP1 REVERT JUMPDEST PUSH1 0x1 PUSH1 0x1 PUSH1 0xA0 SHL SUB DUP1 DUP4 AND PUSH1 0x0 SWAP1 DUP2 MSTORE PUSH1 0x18 PUSH1 0x20 MSTORE PUSH1 0x40 DUP1 DUP3 KECCAK256 SLOAD SWAP3 DUP7 AND DUP3 MSTORE SWAP1 KECCAK256 SLOAD PUSH2 0x31D7 SWAP1 DUP4 PUSH2 0x315A JUMP JUMPDEST PUSH1 0x1 PUSH1 0x1 PUSH1 0xA0 SHL SUB DUP6 AND PUSH1 0x0 SWAP1 DUP2 MSTORE PUSH1 0x18 PUSH1 0x20 MSTORE PUSH1 0x40 SWAP1 KECCAK256 SSTORE PUSH2 0x31FA DUP2 DUP4 PUSH2 0x350E JUMP JUMPDEST PUSH1 0x1 PUSH1 0x1 PUSH1 0xA0 SHL SUB DUP1 DUP6 AND PUSH1 0x0 DUP2 DUP2 MSTORE PUSH1 0x18 PUSH1 0x20 SWAP1 DUP2 MSTORE PUSH1 0x40 DUP1 DUP4 KECCAK256 SWAP6 SWAP1 SWAP6 SSTORE SWAP3 DUP9 AND DUP2 MSTORE PUSH1 0x1A SWAP1 SWAP3 MSTORE DUP3 DUP3 KECCAK256 SLOAD SWAP1 DUP3 MSTORE SWAP2 SWAP1 KECCAK256 SLOAD PUSH2 0x323B SWAP2 SWAP1 DUP4 DUP6 PUSH2 0x4624 JUMP JUMPDEST PUSH1 0x1 PUSH1 0x1 PUSH1 0xA0 SHL SUB DUP1 DUP6 AND PUSH1 0x0 DUP2 DUP2 MSTORE PUSH1 0x1A PUSH1 0x20 SWAP1 DUP2 MSTORE PUSH1 0x40 DUP1 DUP4 KECCAK256 SWAP6 SWAP1 SWAP6 SSTORE SWAP3 DUP9 AND DUP2 MSTORE PUSH1 0x1B SWAP1 SWAP3 MSTORE DUP3 DUP3 KECCAK256 SLOAD SWAP1 DUP3 MSTORE SWAP2 SWAP1 KECCAK256 SLOAD PUSH2 0x327C SWAP2 SWAP1 DUP4 DUP6 PUSH2 0x4624 JUMP JUMPDEST PUSH1 0x1 PUSH1 0x1 PUSH1 0xA0 SHL SUB DUP1 DUP6 AND PUSH1 0x0 DUP2 DUP2 MSTORE PUSH1 0x1B PUSH1 0x20 SWAP1 DUP2 MSTORE PUSH1 0x40 SWAP2 DUP3 SWAP1 KECCAK256 SWAP5 SWAP1 SWAP5 SSTORE DUP1 MLOAD DUP7 DUP2 MSTORE SWAP1 MLOAD SWAP2 SWAP4 SWAP3 DUP9 AND SWAP3 PUSH32 0xDDF252AD1BE2C89B69C2B068FC378DAA952BA7F163C4A11628F55A4DF523B3EF SWAP3 SWAP2 DUP3 SWAP1 SUB ADD SWAP1 LOG3 POP POP POP POP JUMP JUMPDEST PUSH1 0x0 DUP2 DUP4 LT PUSH2 0x32E8 JUMPI DUP2 PUSH2 0xE9D JUMP JUMPDEST POP SWAP1 SWAP2 SWAP1 POP JUMP JUMPDEST PUSH1 0x0 DUP1 DUP1 PUSH1 0x0 NOT DUP6 DUP8 MULMOD DUP7 DUP7 MUL SWAP3 POP DUP3 DUP2 LT SWAP1 DUP4 SWAP1 SUB SUB SWAP1 POP DUP1 PUSH2 0x3325 JUMPI PUSH1 0x0 DUP5 GT PUSH2 0x331A JUMPI PUSH1 0x0 DUP1 REVERT JUMPDEST POP DUP3 SWAP1 DIV SWAP1 POP PUSH2 0xE9D JUMP JUMPDEST DUP1 DUP5 GT PUSH2 0x3331 JUMPI PUSH1 0x0 DUP1 REVERT JUMPDEST PUSH1 0x0 DUP5 DUP7 DUP9 MULMOD PUSH1 0x0 DUP7 DUP2 SUB DUP8 AND SWAP7 DUP8 SWAP1 DIV SWAP7 PUSH1 0x2 PUSH1 0x3 DUP10 MUL DUP2 XOR DUP1 DUP11 MUL DUP3 SUB MUL DUP1 DUP11 MUL DUP3 SUB MUL DUP1 DUP11 MUL DUP3 SUB MUL DUP1 DUP11 MUL DUP3 SUB MUL DUP1 DUP11 MUL DUP3 SUB MUL DUP1 DUP11 MUL SWAP1 SWAP2 SUB MUL SWAP2 DUP2 SWAP1 SUB DUP2 SWAP1 DIV PUSH1 0x1 ADD DUP7 DUP5 GT SWAP1 SWAP6 SUB SWAP5 SWAP1 SWAP5 MUL SWAP2 SWAP1 SWAP5 SUB SWAP3 SWAP1 SWAP3 DIV SWAP2 SWAP1 SWAP2 OR SWAP2 SWAP1 SWAP2 MUL SWAP2 POP POP SWAP4 SWAP3 POP POP POP JUMP JUMPDEST PUSH1 0x0 PUSH2 0x33AB DUP5 DUP5 DUP5 PUSH2 0x32EF JUMP JUMPDEST SWAP1 POP PUSH1 0x0 DUP3 DUP1 PUSH2 0x33B7 JUMPI INVALID JUMPDEST DUP5 DUP7 MULMOD GT ISZERO PUSH2 0xE9D JUMPI PUSH1 0x0 NOT DUP2 LT PUSH2 0x33CE JUMPI PUSH1 0x0 DUP1 REVERT JUMPDEST PUSH1 0x1 ADD SWAP4 SWAP3 POP POP POP JUMP JUMPDEST DUP1 PUSH1 0x1 PUSH1 0x1 PUSH1 0x80 SHL SUB DUP2 AND DUP2 EQ PUSH2 0x33EE JUMPI PUSH1 0x0 DUP1 REVERT JUMPDEST SWAP2 SWAP1 POP JUMP JUMPDEST PUSH1 0x12 SLOAD PUSH1 0x40 DUP1 MLOAD ADDRESS PUSH1 0x24 DUP1 DUP4 ADD SWAP2 SWAP1 SWAP2 MSTORE DUP3 MLOAD DUP1 DUP4 SUB SWAP1 SWAP2 ADD DUP2 MSTORE PUSH1 0x44 SWAP1 SWAP2 ADD DUP3 MSTORE PUSH1 0x20 DUP2 ADD DUP1 MLOAD PUSH1 0x1 PUSH1 0x1 PUSH1 0xE0 SHL SUB AND PUSH4 0x70A08231 PUSH1 0xE0 SHL OR DUP2 MSTORE SWAP2 MLOAD DUP2 MLOAD PUSH1 0x0 SWAP5 DUP6 SWAP5 DUP6 SWAP5 PUSH1 0x1 PUSH1 0x1 PUSH1 0xA0 SHL SUB SWAP1 SWAP3 AND SWAP4 SWAP2 SWAP3 DUP3 SWAP2 SWAP1 DUP1 DUP4 DUP4 JUMPDEST PUSH1 0x20 DUP4 LT PUSH2 0x346E JUMPI DUP1 MLOAD DUP3 MSTORE PUSH1 0x1F NOT SWAP1 SWAP3 ADD SWAP2 PUSH1 0x20 SWAP2 DUP3 ADD SWAP2 ADD PUSH2 0x344F JUMP JUMPDEST PUSH1 0x1 DUP4 PUSH1 0x20 SUB PUSH2 0x100 EXP SUB DUP1 NOT DUP3 MLOAD AND DUP2 DUP5 MLOAD AND DUP1 DUP3 OR DUP6 MSTORE POP POP POP POP POP POP SWAP1 POP ADD SWAP2 POP POP PUSH1 0x0 PUSH1 0x40 MLOAD DUP1 DUP4 SUB DUP2 DUP6 GAS STATICCALL SWAP2 POP POP RETURNDATASIZE DUP1 PUSH1 0x0 DUP2 EQ PUSH2 0x34CE JUMPI PUSH1 0x40 MLOAD SWAP2 POP PUSH1 0x1F NOT PUSH1 0x3F RETURNDATASIZE ADD AND DUP3 ADD PUSH1 0x40 MSTORE RETURNDATASIZE DUP3 MSTORE RETURNDATASIZE PUSH1 0x0 PUSH1 0x20 DUP5 ADD RETURNDATACOPY PUSH2 0x34D3 JUMP JUMPDEST PUSH1 0x60 SWAP2 POP JUMPDEST POP SWAP2 POP SWAP2 POP DUP2 DUP1 ISZERO PUSH2 0x34E7 JUMPI POP PUSH1 0x20 DUP2 MLOAD LT ISZERO JUMPDEST PUSH2 0x34F0 JUMPI PUSH1 0x0 DUP1 REVERT JUMPDEST DUP1 DUP1 PUSH1 0x20 ADD SWAP1 MLOAD PUSH1 0x20 DUP2 LT ISZERO PUSH2 0x3505 JUMPI PUSH1 0x0 DUP1 REVERT JUMPDEST POP MLOAD SWAP3 POP POP POP SWAP1 JUMP JUMPDEST DUP1 DUP3 ADD DUP3 DUP2 LT ISZERO PUSH2 0xD1F JUMPI PUSH1 0x40 DUP1 MLOAD PUSH3 0x461BCD PUSH1 0xE5 SHL DUP2 MSTORE PUSH1 0x20 PUSH1 0x4 DUP3 ADD MSTORE PUSH1 0x14 PUSH1 0x24 DUP3 ADD MSTORE PUSH20 0x64732D6D6174682D6164642D6F766572666C6F77 PUSH1 0x60 SHL PUSH1 0x44 DUP3 ADD MSTORE SWAP1 MLOAD SWAP1 DUP2 SWAP1 SUB PUSH1 0x64 ADD SWAP1 REVERT JUMPDEST PUSH1 0x11 SLOAD PUSH1 0x40 DUP1 MLOAD ADDRESS PUSH1 0x24 DUP1 DUP4 ADD SWAP2 SWAP1 SWAP2 MSTORE DUP3 MLOAD DUP1 DUP4 SUB SWAP1 SWAP2 ADD DUP2 MSTORE PUSH1 0x44 SWAP1 SWAP2 ADD DUP3 MSTORE PUSH1 0x20 DUP2 ADD DUP1 MLOAD PUSH1 0x1 PUSH1 0x1 PUSH1 0xE0 SHL SUB AND PUSH4 0x70A08231 PUSH1 0xE0 SHL OR DUP2 MSTORE SWAP2 MLOAD DUP2 MLOAD PUSH1 0x0 SWAP5 DUP6 SWAP5 DUP6 SWAP5 PUSH1 0x1 PUSH1 0x1 PUSH1 0xA0 SHL SUB SWAP1 SWAP3 AND SWAP4 SWAP2 SWAP3 DUP3 SWAP2 SWAP1 DUP1 DUP4 DUP4 PUSH1 0x20 DUP4 LT PUSH2 0x346E JUMPI DUP1 MLOAD DUP3 MSTORE PUSH1 0x1F NOT SWAP1 SWAP3 ADD SWAP2 PUSH1 0x20 SWAP2 DUP3 ADD SWAP2 ADD PUSH2 0x344F JUMP JUMPDEST PUSH1 0x40 DUP1 MLOAD PUSH1 0x24 DUP2 ADD DUP6 SWAP1 MSTORE DUP4 ISZERO ISZERO PUSH1 0x44 DUP3 ADD MSTORE PUSH1 0x2 DUP4 SWAP1 SIGNEXTEND PUSH1 0x64 DUP1 DUP4 ADD SWAP2 SWAP1 SWAP2 MSTORE DUP3 MLOAD DUP1 DUP4 SUB SWAP1 SWAP2 ADD DUP2 MSTORE PUSH1 0x84 SWAP1 SWAP2 ADD DUP3 MSTORE PUSH1 0x20 DUP2 ADD DUP1 MLOAD PUSH1 0x1 PUSH1 0x1 PUSH1 0xE0 SHL SUB AND PUSH4 0x2B8D2639 PUSH1 0xE1 SHL OR DUP2 MSTORE SWAP2 MLOAD DUP2 MLOAD PUSH1 0x0 SWAP4 DUP5 SWAP4 DUP5 SWAP4 DUP5 SWAP4 DUP5 SWAP4 PUSH1 0x1 PUSH1 0x1 PUSH1 0xA0 SHL SUB PUSH32 0x0 AND SWAP4 SWAP3 SWAP2 DUP3 SWAP2 SWAP1 DUP1 DUP4 DUP4 JUMPDEST PUSH1 0x20 DUP4 LT PUSH2 0x3685 JUMPI DUP1 MLOAD DUP3 MSTORE PUSH1 0x1F NOT SWAP1 SWAP3 ADD SWAP2 PUSH1 0x20 SWAP2 DUP3 ADD SWAP2 ADD PUSH2 0x3666 JUMP JUMPDEST PUSH1 0x1 DUP4 PUSH1 0x20 SUB PUSH2 0x100 EXP SUB DUP1 NOT DUP3 MLOAD AND DUP2 DUP5 MLOAD AND DUP1 DUP3 OR DUP6 MSTORE POP POP POP POP POP POP SWAP1 POP ADD SWAP2 POP POP PUSH1 0x0 PUSH1 0x40 MLOAD DUP1 DUP4 SUB DUP2 DUP6 GAS DELEGATECALL SWAP2 POP POP RETURNDATASIZE DUP1 PUSH1 0x0 DUP2 EQ PUSH2 0x36E5 JUMPI PUSH1 0x40 MLOAD SWAP2 POP PUSH1 0x1F NOT PUSH1 0x3F RETURNDATASIZE ADD AND DUP3 ADD PUSH1 0x40 MSTORE RETURNDATASIZE DUP3 MSTORE RETURNDATASIZE PUSH1 0x0 PUSH1 0x20 DUP5 ADD RETURNDATACOPY PUSH2 0x36EA JUMP JUMPDEST PUSH1 0x60 SWAP2 POP JUMPDEST POP SWAP2 POP SWAP2 POP DUP2 DUP2 SWAP1 PUSH2 0x377A JUMPI PUSH1 0x40 MLOAD PUSH3 0x461BCD PUSH1 0xE5 SHL DUP2 MSTORE PUSH1 0x4 ADD DUP1 DUP1 PUSH1 0x20 ADD DUP3 DUP2 SUB DUP3 MSTORE DUP4 DUP2 DUP2 MLOAD DUP2 MSTORE PUSH1 0x20 ADD SWAP2 POP DUP1 MLOAD SWAP1 PUSH1 0x20 ADD SWAP1 DUP1 DUP4 DUP4 PUSH1 0x0 JUMPDEST DUP4 DUP2 LT ISZERO PUSH2 0x373F JUMPI DUP2 DUP2 ADD MLOAD DUP4 DUP3 ADD MSTORE PUSH1 0x20 ADD PUSH2 0x3727 JUMP JUMPDEST POP POP POP POP SWAP1 POP SWAP1 DUP2 ADD SWAP1 PUSH1 0x1F AND DUP1 ISZERO PUSH2 0x376C JUMPI DUP1 DUP3 SUB DUP1 MLOAD PUSH1 0x1 DUP4 PUSH1 0x20 SUB PUSH2 0x100 EXP SUB NOT AND DUP2 MSTORE PUSH1 0x20 ADD SWAP2 POP JUMPDEST POP SWAP3 POP POP POP PUSH1 0x40 MLOAD DUP1 SWAP2 SUB SWAP1 REVERT JUMPDEST POP DUP1 DUP1 PUSH1 0x20 ADD SWAP1 MLOAD PUSH1 0x60 DUP2 LT ISZERO PUSH2 0x3790 JUMPI PUSH1 0x0 DUP1 REVERT JUMPDEST POP DUP1 MLOAD PUSH1 0x20 DUP3 ADD MLOAD PUSH1 0x40 SWAP1 SWAP3 ADD MLOAD SWAP1 SWAP11 SWAP2 SWAP10 POP SWAP8 POP SWAP6 POP POP POP POP POP POP JUMP JUMPDEST PUSH1 0x0 DUP1 DUP3 ISZERO PUSH2 0x380E JUMPI PUSH1 0x0 DUP6 ISZERO PUSH2 0x37D6 JUMPI PUSH2 0x37D1 PUSH2 0x3E8 PUSH2 0x2AB1 DUP9 PUSH2 0x3E5 PUSH2 0x3AD4 JUMP JUMPDEST PUSH2 0x37D9 JUMP JUMPDEST PUSH1 0x0 JUMPDEST SWAP1 POP PUSH1 0x0 DUP6 ISZERO PUSH2 0x37FA JUMPI PUSH2 0x37F5 PUSH2 0x3E8 PUSH2 0x2AB1 DUP9 PUSH2 0x3E5 PUSH2 0x3AD4 JUMP JUMPDEST PUSH2 0x37FD JUMP JUMPDEST PUSH1 0x0 JUMPDEST SWAP2 SWAP7 SWAP2 SWAP6 SWAP2 DUP8 SWAP1 SUB SWAP4 POP POP DUP5 SWAP1 SUB SWAP1 POP JUMPDEST DUP5 ISZERO PUSH2 0x3831 JUMPI PUSH1 0x11 SLOAD PUSH2 0x3831 SWAP1 PUSH1 0x1 PUSH1 0x1 PUSH1 0xA0 SHL SUB AND DUP8 PUSH2 0x2647 DUP9 PUSH2 0x1C4E PUSH2 0x355D JUMP JUMPDEST DUP4 ISZERO PUSH2 0x12CF JUMPI PUSH1 0x12 SLOAD PUSH2 0x12CF SWAP1 PUSH1 0x1 PUSH1 0x1 PUSH1 0xA0 SHL SUB AND DUP8 PUSH2 0x2647 DUP8 PUSH2 0x1C4E PUSH2 0x33F3 JUMP JUMPDEST PUSH1 0x1 SLOAD PUSH1 0x40 DUP1 MLOAD PUSH4 0x31056E57 PUSH1 0xE2 SHL DUP2 MSTORE SWAP1 MLOAD PUSH1 0x0 SWAP3 PUSH1 0x1 PUSH1 0x1 PUSH1 0xA0 SHL SUB AND SWAP2 PUSH4 0xC415B95C SWAP2 PUSH1 0x4 DUP1 DUP4 ADD SWAP3 PUSH1 0x20 SWAP3 SWAP2 SWAP1 DUP3 SWAP1 SUB ADD DUP2 DUP7 DUP1 EXTCODESIZE ISZERO DUP1 ISZERO PUSH2 0x3899 JUMPI PUSH1 0x0 DUP1 REVERT JUMPDEST POP GAS STATICCALL ISZERO DUP1 ISZERO PUSH2 0x38AD JUMPI RETURNDATASIZE PUSH1 0x0 DUP1 RETURNDATACOPY RETURNDATASIZE PUSH1 0x0 REVERT JUMPDEST POP POP POP POP PUSH1 0x40 MLOAD RETURNDATASIZE PUSH1 0x20 DUP2 LT ISZERO PUSH2 0x38C3 JUMPI PUSH1 0x0 DUP1 REVERT JUMPDEST POP MLOAD SWAP1 POP PUSH1 0x1 PUSH1 0x1 PUSH1 0xA0 SHL SUB DUP2 AND PUSH2 0x3938 JUMPI DUP3 ISZERO PUSH2 0x3904 JUMPI PUSH2 0x3900 PUSH2 0x38F7 PUSH1 0x17 SLOAD PUSH1 0x60 DUP7 SWAP1 SHL PUSH2 0x45BB SWAP1 SWAP2 SWAP1 PUSH4 0xFFFFFFFF AND JUMP JUMPDEST PUSH1 0x1C SLOAD SWAP1 PUSH2 0x350E JUMP JUMPDEST PUSH1 0x1C SSTORE JUMPDEST DUP2 ISZERO PUSH2 0x3933 JUMPI PUSH2 0x392F PUSH2 0x3926 PUSH1 0x17 SLOAD PUSH1 0x60 DUP6 SWAP1 SHL PUSH2 0x45BB SWAP1 SWAP2 SWAP1 PUSH4 0xFFFFFFFF AND JUMP JUMPDEST PUSH1 0x1D SLOAD SWAP1 PUSH2 0x350E JUMP JUMPDEST PUSH1 0x1D SSTORE JUMPDEST PUSH2 0x3966 JUMP JUMPDEST PUSH1 0x11 SLOAD PUSH2 0x394F SWAP1 PUSH1 0x1 PUSH1 0x1 PUSH1 0xA0 SHL SUB AND DUP3 DUP6 PUSH2 0x396B JUMP JUMPDEST PUSH1 0x12 SLOAD PUSH2 0x3966 SWAP1 PUSH1 0x1 PUSH1 0x1 PUSH1 0xA0 SHL SUB AND DUP3 DUP5 PUSH2 0x396B JUMP JUMPDEST POP POP POP JUMP JUMPDEST PUSH1 0x40 DUP1 MLOAD PUSH1 0x1 PUSH1 0x1 PUSH1 0xA0 SHL SUB DUP5 DUP2 AND PUSH1 0x24 DUP4 ADD MSTORE PUSH1 0x44 DUP1 DUP4 ADD DUP6 SWAP1 MSTORE DUP4 MLOAD DUP1 DUP5 SUB SWAP1 SWAP2 ADD DUP2 MSTORE PUSH1 0x64 SWAP1 SWAP3 ADD DUP4 MSTORE PUSH1 0x20 DUP3 ADD DUP1 MLOAD PUSH1 0x1 PUSH1 0x1 PUSH1 0xE0 SHL SUB AND PUSH4 0xA9059CBB PUSH1 0xE0 SHL OR DUP2 MSTORE SWAP3 MLOAD DUP3 MLOAD PUSH1 0x0 SWAP5 DUP6 SWAP5 SWAP4 DUP10 AND SWAP4 SWAP3 SWAP2 DUP3 SWAP2 SWAP1 DUP1 DUP4 DUP4 JUMPDEST PUSH1 0x20 DUP4 LT PUSH2 0x39E7 JUMPI DUP1 MLOAD DUP3 MSTORE PUSH1 0x1F NOT SWAP1 SWAP3 ADD SWAP2 PUSH1 0x20 SWAP2 DUP3 ADD SWAP2 ADD PUSH2 0x39C8 JUMP JUMPDEST PUSH1 0x1 DUP4 PUSH1 0x20 SUB PUSH2 0x100 EXP SUB DUP1 NOT DUP3 MLOAD AND DUP2 DUP5 MLOAD AND DUP1 DUP3 OR DUP6 MSTORE POP POP POP POP POP POP SWAP1 POP ADD SWAP2 POP POP PUSH1 0x0 PUSH1 0x40 MLOAD DUP1 DUP4 SUB DUP2 PUSH1 0x0 DUP7 GAS CALL SWAP2 POP POP RETURNDATASIZE DUP1 PUSH1 0x0 DUP2 EQ PUSH2 0x3A49 JUMPI PUSH1 0x40 MLOAD SWAP2 POP PUSH1 0x1F NOT PUSH1 0x3F RETURNDATASIZE ADD AND DUP3 ADD PUSH1 0x40 MSTORE RETURNDATASIZE DUP3 MSTORE RETURNDATASIZE PUSH1 0x0 PUSH1 0x20 DUP5 ADD RETURNDATACOPY PUSH2 0x3A4E JUMP JUMPDEST PUSH1 0x60 SWAP2 POP JUMPDEST POP SWAP2 POP SWAP2 POP DUP2 DUP1 ISZERO PUSH2 0x3A7C JUMPI POP DUP1 MLOAD ISZERO DUP1 PUSH2 0x3A7C JUMPI POP DUP1 DUP1 PUSH1 0x20 ADD SWAP1 MLOAD PUSH1 0x20 DUP2 LT ISZERO PUSH2 0x3A79 JUMPI PUSH1 0x0 DUP1 REVERT JUMPDEST POP MLOAD JUMPDEST PUSH2 0x3ACD JUMPI PUSH1 0x40 DUP1 MLOAD PUSH3 0x461BCD PUSH1 0xE5 SHL DUP2 MSTORE PUSH1 0x20 PUSH1 0x4 DUP3 ADD MSTORE PUSH1 0x1F PUSH1 0x24 DUP3 ADD MSTORE PUSH32 0x5472616E7366657248656C7065723A205452414E534645525F4641494C454400 PUSH1 0x44 DUP3 ADD MSTORE SWAP1 MLOAD SWAP1 DUP2 SWAP1 SUB PUSH1 0x64 ADD SWAP1 REVERT JUMPDEST POP POP POP POP POP JUMP JUMPDEST PUSH1 0x0 DUP2 ISZERO DUP1 PUSH2 0x3AEF JUMPI POP POP DUP1 DUP3 MUL DUP3 DUP3 DUP3 DUP2 PUSH2 0x3AEC JUMPI INVALID JUMPDEST DIV EQ JUMPDEST PUSH2 0xD1F JUMPI PUSH1 0x40 DUP1 MLOAD PUSH3 0x461BCD PUSH1 0xE5 SHL DUP2 MSTORE PUSH1 0x20 PUSH1 0x4 DUP3 ADD MSTORE PUSH1 0x14 PUSH1 0x24 DUP3 ADD MSTORE PUSH20 0x64732D6D6174682D6D756C2D6F766572666C6F77 PUSH1 0x60 SHL PUSH1 0x44 DUP3 ADD MSTORE SWAP1 MLOAD SWAP1 DUP2 SWAP1 SUB PUSH1 0x64 ADD SWAP1 REVERT JUMPDEST PUSH1 0x0 PUSH1 0x3 DUP3 GT ISZERO PUSH2 0x3B7A JUMPI POP DUP1 PUSH1 0x1 PUSH1 0x2 DUP3 DIV ADD JUMPDEST DUP2 DUP2 LT ISZERO PUSH2 0x3B74 JUMPI DUP1 SWAP2 POP PUSH1 0x2 DUP2 DUP3 DUP6 DUP2 PUSH2 0x3B63 JUMPI INVALID JUMPDEST DIV ADD DUP2 PUSH2 0x3B6C JUMPI INVALID JUMPDEST DIV SWAP1 POP PUSH2 0x3B4C JUMP JUMPDEST POP PUSH2 0x33EE JUMP JUMPDEST DUP2 ISZERO PUSH2 0x33EE JUMPI POP PUSH1 0x1 SWAP2 SWAP1 POP JUMP JUMPDEST DUP1 PUSH1 0x1 PUSH1 0x1 PUSH1 0xA0 SHL SUB DUP2 AND DUP2 EQ PUSH2 0x33EE JUMPI PUSH1 0x0 DUP1 REVERT JUMPDEST PUSH1 0x17 SLOAD PUSH2 0x3BAB SWAP1 DUP3 PUSH2 0x350E JUMP JUMPDEST PUSH1 0x17 SSTORE PUSH1 0x1 PUSH1 0x1 PUSH1 0xA0 SHL SUB DUP3 AND PUSH1 0x0 SWAP1 DUP2 MSTORE PUSH1 0x18 PUSH1 0x20 MSTORE PUSH1 0x40 SWAP1 KECCAK256 SLOAD PUSH2 0x3BD1 DUP2 DUP4 PUSH2 0x350E JUMP JUMPDEST PUSH1 0x1 PUSH1 0x1 PUSH1 0xA0 SHL SUB DUP5 AND PUSH1 0x0 SWAP1 DUP2 MSTORE PUSH1 0x18 PUSH1 0x20 SWAP1 DUP2 MSTORE PUSH1 0x40 DUP1 DUP4 KECCAK256 SWAP4 SWAP1 SWAP4 SSTORE PUSH1 0x1C SLOAD PUSH1 0x1A SWAP1 SWAP2 MSTORE SWAP2 SWAP1 KECCAK256 SLOAD PUSH2 0x3C08 SWAP2 SWAP1 DUP4 DUP6 PUSH2 0x4624 JUMP JUMPDEST PUSH1 0x1 PUSH1 0x1 PUSH1 0xA0 SHL SUB DUP5 AND PUSH1 0x0 SWAP1 DUP2 MSTORE PUSH1 0x1A PUSH1 0x20 SWAP1 DUP2 MSTORE PUSH1 0x40 DUP1 DUP4 KECCAK256 SWAP4 SWAP1 SWAP4 SSTORE PUSH1 0x1D SLOAD PUSH1 0x1B SWAP1 SWAP2 MSTORE SWAP2 SWAP1 KECCAK256 SLOAD PUSH2 0x3C3F SWAP2 SWAP1 DUP4 DUP6 PUSH2 0x4624 JUMP JUMPDEST PUSH1 0x1 PUSH1 0x1 PUSH1 0xA0 SHL SUB DUP5 AND PUSH1 0x0 DUP2 DUP2 MSTORE PUSH1 0x1B PUSH1 0x20 SWAP1 DUP2 MSTORE PUSH1 0x40 DUP1 DUP4 KECCAK256 SWAP5 SWAP1 SWAP5 SSTORE DUP4 MLOAD DUP7 DUP2 MSTORE SWAP4 MLOAD SWAP3 SWAP4 SWAP2 SWAP3 PUSH32 0xDDF252AD1BE2C89B69C2B068FC378DAA952BA7F163C4A11628F55A4DF523B3EF SWAP3 DUP2 SWAP1 SUB SWAP1 SWAP2 ADD SWAP1 LOG3 POP POP POP JUMP JUMPDEST PUSH1 0x0 DUP1 PUSH1 0x0 DUP4 PUSH1 0x2 SIGNEXTEND SLT PUSH2 0x3CAF JUMPI DUP3 PUSH1 0x2 SIGNEXTEND PUSH2 0x3CB7 JUMP JUMPDEST DUP3 PUSH1 0x2 SIGNEXTEND PUSH1 0x0 SUB JUMPDEST SWAP1 POP PUSH3 0xD89E8 DUP2 GT ISZERO PUSH2 0x3CF5 JUMPI PUSH1 0x40 DUP1 MLOAD PUSH3 0x461BCD PUSH1 0xE5 SHL DUP2 MSTORE PUSH1 0x20 PUSH1 0x4 DUP3 ADD MSTORE PUSH1 0x1 PUSH1 0x24 DUP3 ADD MSTORE PUSH1 0x15 PUSH1 0xFA SHL PUSH1 0x44 DUP3 ADD MSTORE SWAP1 MLOAD SWAP1 DUP2 SWAP1 SUB PUSH1 0x64 ADD SWAP1 REVERT JUMPDEST PUSH1 0x0 PUSH1 0x1 DUP3 AND PUSH2 0x3D09 JUMPI PUSH1 0x1 PUSH1 0x80 SHL PUSH2 0x3D1B JUMP JUMPDEST PUSH16 0xFFFCB933BD6FAD37AA2D162D1A594001 JUMPDEST PUSH17 0xFFFFFFFFFFFFFFFFFFFFFFFFFFFFFFFFFF AND SWAP1 POP PUSH1 0x2 DUP3 AND ISZERO PUSH2 0x3D4F JUMPI PUSH16 0xFFF97272373D413259A46990580E213A MUL PUSH1 0x80 SHR JUMPDEST PUSH1 0x4 DUP3 AND ISZERO PUSH2 0x3D6E JUMPI PUSH16 0xFFF2E50F5F656932EF12357CF3C7FDCC MUL PUSH1 0x80 SHR JUMPDEST PUSH1 0x8 DUP3 AND ISZERO PUSH2 0x3D8D JUMPI PUSH16 0xFFE5CACA7E10E4E61C3624EAA0941CD0 MUL PUSH1 0x80 SHR JUMPDEST PUSH1 0x10 DUP3 AND ISZERO PUSH2 0x3DAC JUMPI PUSH16 0xFFCB9843D60F6159C9DB58835C926644 MUL PUSH1 0x80 SHR JUMPDEST PUSH1 0x20 DUP3 AND ISZERO PUSH2 0x3DCB JUMPI PUSH16 0xFF973B41FA98C081472E6896DFB254C0 MUL PUSH1 0x80 SHR JUMPDEST PUSH1 0x40 DUP3 AND ISZERO PUSH2 0x3DEA JUMPI PUSH16 0xFF2EA16466C96A3843EC78B326B52861 MUL PUSH1 0x80 SHR JUMPDEST PUSH1 0x80 DUP3 AND ISZERO PUSH2 0x3E09 JUMPI PUSH16 0xFE5DEE046A99A2A811C461F1969C3053 MUL PUSH1 0x80 SHR JUMPDEST PUSH2 0x100 DUP3 AND ISZERO PUSH2 0x3E29 JUMPI PUSH16 0xFCBE86C7900A88AEDCFFC83B479AA3A4 MUL PUSH1 0x80 SHR JUMPDEST PUSH2 0x200 DUP3 AND ISZERO PUSH2 0x3E49 JUMPI PUSH16 0xF987A7253AC413176F2B074CF7815E54 MUL PUSH1 0x80 SHR JUMPDEST PUSH2 0x400 DUP3 AND ISZERO PUSH2 0x3E69 JUMPI PUSH16 0xF3392B0822B70005940C7A398E4B70F3 MUL PUSH1 0x80 SHR JUMPDEST PUSH2 0x800 DUP3 AND ISZERO PUSH2 0x3E89 JUMPI PUSH16 0xE7159475A2C29B7443B29C7FA6E889D9 MUL PUSH1 0x80 SHR JUMPDEST PUSH2 0x1000 DUP3 AND ISZERO PUSH2 0x3EA9 JUMPI PUSH16 0xD097F3BDFD2022B8845AD8F792AA5825 MUL PUSH1 0x80 SHR JUMPDEST PUSH2 0x2000 DUP3 AND ISZERO PUSH2 0x3EC9 JUMPI PUSH16 0xA9F746462D870FDF8A65DC1F90E061E5 MUL PUSH1 0x80 SHR JUMPDEST PUSH2 0x4000 DUP3 AND ISZERO PUSH2 0x3EE9 JUMPI PUSH16 0x70D869A156D2A1B890BB3DF62BAF32F7 MUL PUSH1 0x80 SHR JUMPDEST PUSH2 0x8000 DUP3 AND ISZERO PUSH2 0x3F09 JUMPI PUSH16 0x31BE135F97D08FD981231505542FCFA6 MUL PUSH1 0x80 SHR JUMPDEST PUSH3 0x10000 DUP3 AND ISZERO PUSH2 0x3F2A JUMPI PUSH16 0x9AA508B5B7A84E1C677DE54F3E99BC9 MUL PUSH1 0x80 SHR JUMPDEST PUSH3 0x20000 DUP3 AND ISZERO PUSH2 0x3F4A JUMPI PUSH15 0x5D6AF8DEDB81196699C329225EE604 MUL PUSH1 0x80 SHR JUMPDEST PUSH3 0x40000 DUP3 AND ISZERO PUSH2 0x3F69 JUMPI PUSH14 0x2216E584F5FA1EA926041BEDFE98 MUL PUSH1 0x80 SHR JUMPDEST PUSH3 0x80000 DUP3 AND ISZERO PUSH2 0x3F86 JUMPI PUSH12 0x48A170391F7DC42444E8FA2 MUL PUSH1 0x80 SHR JUMPDEST PUSH1 0x0 DUP5 PUSH1 0x2 SIGNEXTEND SGT ISZERO PUSH2 0x3FA1 JUMPI DUP1 PUSH1 0x0 NOT DUP2 PUSH2 0x3F9D JUMPI INVALID JUMPDEST DIV SWAP1 POP JUMPDEST PUSH1 0x1 PUSH1 0x20 SHL DUP2 MOD ISZERO PUSH2 0x3FB4 JUMPI PUSH1 0x1 PUSH2 0x3FB7 JUMP JUMPDEST PUSH1 0x0 JUMPDEST PUSH1 0xFF AND PUSH1 0x20 DUP3 SWAP1 SHR ADD SWAP3 POP POP POP SWAP2 SWAP1 POP JUMP JUMPDEST DUP4 MLOAD PUSH1 0x20 DUP1 DUP7 ADD MLOAD PUSH1 0x40 DUP1 DUP9 ADD MLOAD PUSH1 0x60 DUP10 ADD MLOAD DUP3 MLOAD PUSH1 0x2 DUP13 SWAP1 SIGNEXTEND PUSH1 0x24 DUP3 ADD MSTORE PUSH1 0x1 PUSH1 0x1 PUSH1 0x80 SHL SUB SWAP7 DUP8 AND PUSH1 0x44 DUP3 ADD MSTORE SWAP4 DUP7 AND PUSH1 0x64 DUP6 ADD MSTORE SWAP1 DUP6 AND PUSH1 0x84 DUP5 ADD MSTORE SWAP4 SWAP1 SWAP4 AND PUSH1 0xA4 DUP3 ADD MSTORE PUSH1 0x1 PUSH1 0x1 PUSH1 0xA0 SHL SUB DUP7 DUP2 AND PUSH1 0xC4 DUP4 ADD MSTORE PUSH1 0xE4 DUP3 ADD DUP7 SWAP1 MSTORE PUSH2 0x104 DUP1 DUP4 ADD DUP7 SWAP1 MSTORE DUP5 MLOAD DUP1 DUP5 SUB SWAP1 SWAP2 ADD DUP2 MSTORE PUSH2 0x124 SWAP1 SWAP3 ADD DUP5 MSTORE SWAP2 DUP2 ADD DUP1 MLOAD PUSH1 0x1 PUSH1 0x1 PUSH1 0xE0 SHL SUB AND PUSH4 0x7A3642AF PUSH1 0xE1 SHL OR DUP2 MSTORE SWAP3 MLOAD DUP2 MLOAD PUSH1 0x0 SWAP5 PUSH32 0x0 SWAP5 SWAP1 SWAP5 AND SWAP4 DUP3 SWAP2 DUP1 DUP4 DUP4 JUMPDEST PUSH1 0x20 DUP4 LT PUSH2 0x40AE JUMPI DUP1 MLOAD DUP3 MSTORE PUSH1 0x1F NOT SWAP1 SWAP3 ADD SWAP2 PUSH1 0x20 SWAP2 DUP3 ADD SWAP2 ADD PUSH2 0x408F JUMP JUMPDEST PUSH1 0x1 DUP4 PUSH1 0x20 SUB PUSH2 0x100 EXP SUB DUP1 NOT DUP3 MLOAD AND DUP2 DUP5 MLOAD AND DUP1 DUP3 OR DUP6 MSTORE POP POP POP POP POP POP SWAP1 POP ADD SWAP2 POP POP PUSH1 0x0 PUSH1 0x40 MLOAD DUP1 DUP4 SUB DUP2 DUP6 GAS DELEGATECALL SWAP2 POP POP RETURNDATASIZE DUP1 PUSH1 0x0 DUP2 EQ PUSH2 0x410E JUMPI PUSH1 0x40 MLOAD SWAP2 POP PUSH1 0x1F NOT PUSH1 0x3F RETURNDATASIZE ADD AND DUP3 ADD PUSH1 0x40 MSTORE RETURNDATASIZE DUP3 MSTORE RETURNDATASIZE PUSH1 0x0 PUSH1 0x20 DUP5 ADD RETURNDATACOPY PUSH2 0x4113 JUMP JUMPDEST PUSH1 0x60 SWAP2 POP JUMPDEST POP POP SWAP1 POP DUP1 PUSH2 0x4121 JUMPI PUSH1 0x0 DUP1 REVERT JUMPDEST POP POP POP POP POP POP JUMP JUMPDEST PUSH1 0x40 DUP1 MLOAD PUSH1 0x1 PUSH1 0x1 PUSH1 0xA0 SHL SUB DUP6 DUP2 AND PUSH1 0x24 DUP4 ADD MSTORE DUP5 DUP2 AND PUSH1 0x44 DUP4 ADD MSTORE PUSH1 0x64 DUP1 DUP4 ADD DUP6 SWAP1 MSTORE DUP4 MLOAD DUP1 DUP5 SUB SWAP1 SWAP2 ADD DUP2 MSTORE PUSH1 0x84 SWAP1 SWAP3 ADD DUP4 MSTORE PUSH1 0x20 DUP3 ADD DUP1 MLOAD PUSH1 0x1 PUSH1 0x1 PUSH1 0xE0 SHL SUB AND PUSH4 0x23B872DD PUSH1 0xE0 SHL OR DUP2 MSTORE SWAP3 MLOAD DUP3 MLOAD PUSH1 0x0 SWAP5 DUP6 SWAP5 SWAP4 DUP11 AND SWAP4 SWAP3 SWAP2 DUP3 SWAP2 SWAP1 DUP1 DUP4 DUP4 JUMPDEST PUSH1 0x20 DUP4 LT PUSH2 0x41AD JUMPI DUP1 MLOAD DUP3 MSTORE PUSH1 0x1F NOT SWAP1 SWAP3 ADD SWAP2 PUSH1 0x20 SWAP2 DUP3 ADD SWAP2 ADD PUSH2 0x418E JUMP JUMPDEST PUSH1 0x1 DUP4 PUSH1 0x20 SUB PUSH2 0x100 EXP SUB DUP1 NOT DUP3 MLOAD AND DUP2 DUP5 MLOAD AND DUP1 DUP3 OR DUP6 MSTORE POP POP POP POP POP POP SWAP1 POP ADD SWAP2 POP POP PUSH1 0x0 PUSH1 0x40 MLOAD DUP1 DUP4 SUB DUP2 PUSH1 0x0 DUP7 GAS CALL SWAP2 POP POP RETURNDATASIZE DUP1 PUSH1 0x0 DUP2 EQ PUSH2 0x420F JUMPI PUSH1 0x40 MLOAD SWAP2 POP PUSH1 0x1F NOT PUSH1 0x3F RETURNDATASIZE ADD AND DUP3 ADD PUSH1 0x40 MSTORE RETURNDATASIZE DUP3 MSTORE RETURNDATASIZE PUSH1 0x0 PUSH1 0x20 DUP5 ADD RETURNDATACOPY PUSH2 0x4214 JUMP JUMPDEST PUSH1 0x60 SWAP2 POP JUMPDEST POP SWAP2 POP SWAP2 POP DUP2 DUP1 ISZERO PUSH2 0x4242 JUMPI POP DUP1 MLOAD ISZERO DUP1 PUSH2 0x4242 JUMPI POP DUP1 DUP1 PUSH1 0x20 ADD SWAP1 MLOAD PUSH1 0x20 DUP2 LT ISZERO PUSH2 0x423F JUMPI PUSH1 0x0 DUP1 REVERT JUMPDEST POP MLOAD JUMPDEST PUSH2 0x4121 JUMPI PUSH1 0x40 MLOAD PUSH3 0x461BCD PUSH1 0xE5 SHL DUP2 MSTORE PUSH1 0x4 ADD DUP1 DUP1 PUSH1 0x20 ADD DUP3 DUP2 SUB DUP3 MSTORE PUSH1 0x24 DUP2 MSTORE PUSH1 0x20 ADD DUP1 PUSH2 0x465A PUSH1 0x24 SWAP2 CODECOPY PUSH1 0x40 ADD SWAP2 POP POP PUSH1 0x40 MLOAD DUP1 SWAP2 SUB SWAP1 REVERT JUMPDEST PUSH1 0x0 PUSH1 0x1 PUSH1 0xFF SHL DUP3 LT PUSH2 0x428F JUMPI PUSH1 0x0 DUP1 REVERT JUMPDEST POP SWAP1 JUMP JUMPDEST PUSH1 0x0 PUSH1 0x13 DUP4 PUSH2 0x42A3 JUMPI PUSH1 0x0 PUSH2 0x42A6 JUMP JUMPDEST PUSH1 0x1 JUMPDEST PUSH1 0xFF AND PUSH1 0x2 DUP2 LT PUSH2 0x42B3 JUMPI INVALID JUMPDEST PUSH1 0x1 PUSH1 0x1 PUSH1 0xA0 SHL SUB DUP8 AND PUSH1 0x0 SWAP1 DUP2 MSTORE SWAP2 ADD PUSH1 0x20 SWAP1 DUP2 MSTORE PUSH1 0x40 DUP1 DUP4 KECCAK256 PUSH1 0x2 DUP9 DUP2 SIGNEXTEND DUP2 SIGNEXTEND DUP6 MSTORE SWAP1 DUP4 MSTORE DUP2 DUP5 KECCAK256 DUP3 MLOAD PUSH1 0x80 DUP2 ADD DUP5 MSTORE DUP2 SLOAD DUP2 MSTORE PUSH1 0x1 DUP3 ADD SLOAD SWAP5 DUP2 ADD SWAP5 SWAP1 SWAP5 MSTORE SWAP1 DUP2 ADD SLOAD SWAP2 DUP4 ADD SWAP2 SWAP1 SWAP2 MSTORE PUSH1 0x3 ADD SLOAD PUSH1 0x60 DUP3 ADD MSTORE SWAP2 POP PUSH2 0x4314 DUP6 PUSH2 0x3C98 JUMP JUMPDEST PUSH1 0x40 DUP4 ADD MLOAD SWAP1 SWAP2 POP ISZERO PUSH2 0x4121 JUMPI DUP4 PUSH2 0x43BF JUMPI PUSH1 0x0 PUSH2 0x4336 DUP4 PUSH1 0x40 ADD MLOAD DUP4 PUSH2 0x1935 JUMP JUMPDEST PUSH1 0x2 DUP8 DUP2 SIGNEXTEND SWAP1 SIGNEXTEND PUSH1 0x0 SWAP1 DUP2 MSTORE PUSH1 0xB PUSH1 0x20 MSTORE PUSH1 0x40 SWAP1 KECCAK256 SLOAD SWAP1 SWAP2 POP PUSH2 0x4372 SWAP1 PUSH2 0x436D SWAP1 PUSH1 0x1 PUSH1 0x80 SHL SWAP1 DIV PUSH1 0x1 PUSH1 0x1 PUSH1 0x80 SHL SUB AND DUP4 PUSH2 0x315A JUMP JUMPDEST PUSH2 0x33D8 JUMP JUMPDEST PUSH1 0x2 DUP8 DUP2 SIGNEXTEND SWAP1 SIGNEXTEND PUSH1 0x0 SWAP1 DUP2 MSTORE PUSH1 0xB PUSH1 0x20 MSTORE PUSH1 0x40 SWAP1 KECCAK256 DUP1 SLOAD PUSH1 0x1 PUSH1 0x1 PUSH1 0x80 SHL SUB SWAP3 DUP4 AND PUSH1 0x1 PUSH1 0x80 SHL MUL SWAP3 AND SWAP2 SWAP1 SWAP2 OR SWAP1 SSTORE PUSH1 0x11 SLOAD PUSH2 0x43B9 SWAP1 PUSH1 0x1 PUSH1 0x1 PUSH1 0xA0 SHL SUB AND DUP6 DUP4 PUSH2 0x396B JUMP JUMPDEST POP PUSH2 0x4455 JUMP JUMPDEST PUSH1 0x0 PUSH2 0x43CF DUP4 PUSH1 0x40 ADD MLOAD DUP4 PUSH2 0x2743 JUMP JUMPDEST PUSH1 0x2 DUP8 DUP2 SIGNEXTEND SWAP1 SIGNEXTEND PUSH1 0x0 SWAP1 DUP2 MSTORE PUSH1 0xB PUSH1 0x20 MSTORE PUSH1 0x40 SWAP1 KECCAK256 PUSH1 0x1 ADD SLOAD SWAP1 SWAP2 POP PUSH2 0x4409 SWAP1 PUSH2 0x436D SWAP1 PUSH1 0x1 PUSH1 0x80 SHL SWAP1 DIV PUSH1 0x1 PUSH1 0x1 PUSH1 0x80 SHL SUB AND DUP4 PUSH2 0x315A JUMP JUMPDEST PUSH1 0x2 DUP8 DUP2 SIGNEXTEND SWAP1 SIGNEXTEND PUSH1 0x0 SWAP1 DUP2 MSTORE PUSH1 0xB PUSH1 0x20 MSTORE PUSH1 0x40 SWAP1 KECCAK256 PUSH1 0x1 ADD DUP1 SLOAD PUSH1 0x1 PUSH1 0x1 PUSH1 0x80 SHL SUB SWAP3 DUP4 AND PUSH1 0x1 PUSH1 0x80 SHL MUL SWAP3 AND SWAP2 SWAP1 SWAP2 OR SWAP1 SSTORE PUSH1 0x12 SLOAD PUSH2 0x4453 SWAP1 PUSH1 0x1 PUSH1 0x1 PUSH1 0xA0 SHL SUB AND DUP6 DUP4 PUSH2 0x396B JUMP JUMPDEST POP JUMPDEST PUSH1 0x13 DUP5 PUSH2 0x4463 JUMPI PUSH1 0x0 PUSH2 0x4466 JUMP JUMPDEST PUSH1 0x1 JUMPDEST PUSH1 0xFF AND PUSH1 0x2 DUP2 LT PUSH2 0x4473 JUMPI INVALID JUMPDEST PUSH1 0x1 PUSH1 0x1 PUSH1 0xA0 SHL SUB DUP9 AND PUSH1 0x0 SWAP1 DUP2 MSTORE SWAP2 ADD PUSH1 0x20 SWAP1 DUP2 MSTORE PUSH1 0x40 DUP1 DUP4 KECCAK256 PUSH1 0x2 DUP10 DUP2 SIGNEXTEND DUP2 SIGNEXTEND DUP6 MSTORE SWAP3 MSTORE DUP3 KECCAK256 DUP3 DUP2 SSTORE PUSH1 0x1 DUP2 ADD DUP4 SWAP1 SSTORE SWAP1 DUP2 ADD DUP3 SWAP1 SSTORE PUSH1 0x3 ADD SSTORE POP POP POP POP POP POP JUMP JUMPDEST PUSH1 0x1 PUSH1 0x1 PUSH1 0xA0 SHL SUB DUP3 AND PUSH1 0x0 SWAP1 DUP2 MSTORE PUSH1 0x18 PUSH1 0x20 MSTORE PUSH1 0x40 DUP2 KECCAK256 SLOAD DUP2 SWAP1 PUSH2 0x44DC SWAP1 DUP5 PUSH2 0x315A JUMP JUMPDEST PUSH1 0x1 PUSH1 0x1 PUSH1 0xA0 SHL SUB DUP6 AND PUSH1 0x0 SWAP1 DUP2 MSTORE PUSH1 0x18 PUSH1 0x20 MSTORE PUSH1 0x40 SWAP1 KECCAK256 SSTORE PUSH1 0x17 SLOAD PUSH2 0x4502 SWAP1 DUP5 PUSH2 0x315A JUMP JUMPDEST PUSH1 0x17 SSTORE PUSH1 0x40 DUP1 MLOAD DUP5 DUP2 MSTORE SWAP1 MLOAD PUSH1 0x0 SWAP2 PUSH1 0x1 PUSH1 0x1 PUSH1 0xA0 SHL SUB DUP8 AND SWAP2 PUSH32 0xDDF252AD1BE2C89B69C2B068FC378DAA952BA7F163C4A11628F55A4DF523B3EF SWAP2 DUP2 SWAP1 SUB PUSH1 0x20 ADD SWAP1 LOG3 PUSH1 0x1 PUSH1 0x1 PUSH1 0xA0 SHL SUB DUP5 AND PUSH1 0x0 SWAP1 DUP2 MSTORE PUSH1 0x1A PUSH1 0x20 MSTORE PUSH1 0x40 SWAP1 KECCAK256 SLOAD PUSH1 0x1C SLOAD PUSH1 0x60 SWAP2 PUSH2 0x457B SWAP2 DUP7 SWAP2 PUSH2 0x4575 SWAP2 SWAP1 PUSH2 0x315A JUMP JUMPDEST SWAP1 PUSH2 0x3AD4 JUMP JUMPDEST PUSH1 0x1 PUSH1 0x1 PUSH1 0xA0 SHL SUB DUP7 AND PUSH1 0x0 SWAP1 DUP2 MSTORE PUSH1 0x1B PUSH1 0x20 MSTORE PUSH1 0x40 SWAP1 KECCAK256 SLOAD PUSH1 0x1D SLOAD SWAP2 SWAP1 SWAP3 SHR SWAP4 POP PUSH1 0x60 SWAP2 PUSH2 0x45B0 SWAP2 DUP7 SWAP2 PUSH2 0x4575 SWAP2 SWAP1 PUSH2 0x315A JUMP JUMPDEST SWAP1 SHR SWAP1 POP SWAP3 POP SWAP3 SWAP1 POP JUMP JUMPDEST PUSH1 0x0 DUP2 DUP4 DUP2 PUSH2 0x45C6 JUMPI INVALID JUMPDEST DIV SWAP4 SWAP3 POP POP POP JUMP JUMPDEST PUSH1 0x0 DUP1 PUSH1 0x0 DUP1 PUSH1 0xE DUP6 PUSH1 0x2 SIGNEXTEND SWAP1 SAR SWAP4 POP PUSH1 0x40 PUSH1 0x8 DUP7 PUSH1 0x2 SIGNEXTEND SWAP1 SAR PUSH1 0x2 SIGNEXTEND DUP2 PUSH2 0x45F2 JUMPI INVALID JUMPDEST SWAP5 SWAP7 SWAP5 SMOD SWAP5 PUSH1 0x2 SIGNEXTEND PUSH1 0x8 DUP2 SWAP1 SAR SWAP5 PUSH2 0x100 SWAP1 SWAP2 SMOD SWAP4 POP SWAP2 POP POP JUMP JUMPDEST PUSH1 0x0 SIGNEXTEND PUSH1 0x7F ADD SWAP1 JUMP JUMPDEST PUSH1 0x1 PUSH1 0xFF SWAP1 SWAP2 AND SHL AND ISZERO ISZERO SWAP1 JUMP JUMPDEST PUSH1 0x0 PUSH2 0x4650 PUSH2 0x4633 DUP5 DUP5 PUSH2 0x350E JUMP JUMPDEST PUSH2 0x2AB1 PUSH2 0x4640 DUP9 DUP7 PUSH2 0x3AD4 JUMP JUMPDEST PUSH2 0x464A DUP9 DUP9 PUSH2 0x3AD4 JUMP JUMPDEST SWAP1 PUSH2 0x350E JUMP JUMPDEST SWAP6 SWAP5 POP POP POP POP POP JUMP INVALID SLOAD PUSH19 0x616E7366657248656C7065723A205452414E53 CHAINID GASLIMIT MSTORE 0x5F CHAINID MSTORE 0x4F 0x4D 0x5F CHAINID COINBASE 0x49 0x4C GASLIMIT DIFFICULTY LOG2 PUSH5 0x6970667358 0x22 SLT KECCAK256 PUSH5 0xF1F888083B PUSH32 0x490DA188B91CBBA0A411B982CE3CAC80017430A1CB274E91EC64736F6C634300 SMOD MOD STOP CALLER "
		},
		"gasEstimates": {
			"creation": {
				"codeDepositCost": "3619800",
				"executionCost": "infinite",
				"totalCost": "infinite"
			},
			"external": {
				"": "infinite",
				"LP2Tokens(uint256)": "infinite",
				"allowance(address,address)": "1305",
				"amount0ToAmount1(uint256,uint160)": "infinite",
				"amount1ToAmount0(uint256,uint160)": "infinite",
				"approve(address,uint256)": "22369",
				"balanceOf(address)": "1236",
				"burn(address)": "infinite",
				"buyShare(address,int24)": "1348",
				"cancelLimitOrder(int24,uint256,bool)": "infinite",
				"claimableReward(address,uint256)": "infinite",
				"currentSqrtPriceX96()": "1082",
				"currentTick()": "3672",
				"decimals()": "297",
				"estOutput(uint256,bool)": "infinite",
				"flashLoan(address,uint256,uint256,bytes)": "infinite",
				"getDeep(int24)": "infinite",
				"getLimitTokens(int24,address,uint256,bool)": "infinite",
				"getTotalLimit()": "1127",
				"initTokenAddress(address,address)": "63629",
				"isExploited(int24,uint256)": "infinite",
				"lastBalance0()": "1087",
				"lastBalance1()": "1131",
				"liquidity()": "1088",
				"mint(address)": "infinite",
				"name()": "infinite",
				"putLimitOrder(int24,uint256,bool)": "infinite",
				"reserve0()": "2600",
				"reserve1()": "2618",
				"reward0PerTokenX96()": "1043",
				"reward1PerTokenX96()": "1110",
				"sellShare(address,int24)": "1401",
				"swap(uint256,bool,address)": "infinite",
				"symbol()": "infinite",
				"tickBitmap(int16)": "1225",
				"token0()": "1172",
				"token1()": "1081",
				"totalSupply()": "1066",
				"tradeCore()": "infinite",
				"transfer(address,uint256)": "infinite",
				"transferFrom(address,address,uint256)": "infinite",
				"writeOffReward0PerTokenX96(address)": "1237",
				"writeOffReward1PerTokenX96(address)": "1278"
			},
			"internal": {
				"balance0()": "infinite",
				"balance1()": "infinite",
				"claimDealtLimitPosition(address,int24,bool,address)": "infinite",
				"trade(uint256,bool,int24)": "infinite",
				"transferTokens(address,uint256,uint256,bool)": "infinite",
				"updateDeep(int24,struct LimitswapStorage.tickDeep memory,uint160,int256,int256)": "infinite",
				"wordHighMap(int8)": "26"
			}
		},
		"methodIdentifiers": {
			"LP2Tokens(uint256)": "25a6e322",
			"allowance(address,address)": "dd62ed3e",
			"amount0ToAmount1(uint256,uint160)": "bbea8f6a",
			"amount1ToAmount0(uint256,uint160)": "7a95fff4",
			"approve(address,uint256)": "095ea7b3",
			"balanceOf(address)": "70a08231",
			"burn(address)": "89afcb44",
			"buyShare(address,int24)": "2a354ad9",
			"cancelLimitOrder(int24,uint256,bool)": "bf62f97c",
			"claimableReward(address,uint256)": "6bd97f1d",
			"currentSqrtPriceX96()": "47fd03d9",
			"currentTick()": "065e5360",
			"decimals()": "313ce567",
			"estOutput(uint256,bool)": "cbfe3ab3",
			"flashLoan(address,uint256,uint256,bytes)": "679f0579",
			"getDeep(int24)": "1b69c941",
			"getLimitTokens(int24,address,uint256,bool)": "58ecdc35",
			"getTotalLimit()": "d8f9f12d",
			"initTokenAddress(address,address)": "15d44a6d",
			"isExploited(int24,uint256)": "f81cfa76",
			"lastBalance0()": "4d630907",
			"lastBalance1()": "8fbd64cb",
			"liquidity()": "1a686502",
			"mint(address)": "6a627842",
			"name()": "06fdde03",
			"putLimitOrder(int24,uint256,bool)": "88bb52ed",
			"reserve0()": "443cb4bc",
			"reserve1()": "5a76f25e",
			"reward0PerTokenX96()": "834d04af",
			"reward1PerTokenX96()": "3b8a829d",
			"sellShare(address,int24)": "ef6ae4cc",
			"swap(uint256,bool,address)": "4af0871b",
			"symbol()": "95d89b41",
			"tickBitmap(int16)": "5339c296",
			"token0()": "0dfe1681",
			"token1()": "d21220a7",
			"totalSupply()": "18160ddd",
			"tradeCore()": "8c7987b7",
			"transfer(address,uint256)": "a9059cbb",
			"transferFrom(address,address,uint256)": "23b872dd",
			"writeOffReward0PerTokenX96(address)": "0c4d32ed",
			"writeOffReward1PerTokenX96(address)": "fcf96952"
		}
	},
	"abi": [
		{
			"inputs": [
				{
					"internalType": "address",
					"name": "_tradeCore",
					"type": "address"
				}
			],
			"stateMutability": "nonpayable",
			"type": "constructor"
		},
		{
			"anonymous": false,
			"inputs": [
				{
					"indexed": true,
					"internalType": "address",
					"name": "owner",
					"type": "address"
				},
				{
					"indexed": true,
					"internalType": "address",
					"name": "spender",
					"type": "address"
				},
				{
					"indexed": false,
					"internalType": "uint256",
					"name": "value",
					"type": "uint256"
				}
			],
			"name": "Approval",
			"type": "event"
		},
		{
			"anonymous": false,
			"inputs": [
				{
					"indexed": true,
					"internalType": "address",
					"name": "miner",
					"type": "address"
				},
				{
					"indexed": false,
					"internalType": "uint256",
					"name": "amount0In",
					"type": "uint256"
				},
				{
					"indexed": false,
					"internalType": "uint256",
					"name": "sqrtPriceX96",
					"type": "uint256"
				},
				{
					"indexed": false,
					"internalType": "address",
					"name": "to",
					"type": "address"
				}
			],
			"name": "Burn",
			"type": "event"
		},
		{
			"anonymous": false,
			"inputs": [
				{
					"indexed": true,
					"internalType": "address",
					"name": "from",
					"type": "address"
				},
				{
					"indexed": false,
					"internalType": "int24",
					"name": "tick",
					"type": "int24"
				},
				{
					"indexed": false,
					"internalType": "uint128",
					"name": "buyShare",
					"type": "uint128"
				},
				{
					"indexed": false,
					"internalType": "uint128",
					"name": "sellShare",
					"type": "uint128"
				},
				{
					"indexed": false,
					"internalType": "uint128",
					"name": "token0Out",
					"type": "uint128"
				},
				{
					"indexed": false,
					"internalType": "uint128",
					"name": "token1Out",
					"type": "uint128"
				}
			],
			"name": "CancelLimit",
			"type": "event"
		},
		{
			"anonymous": false,
			"inputs": [
				{
					"indexed": true,
					"internalType": "address",
					"name": "miner",
					"type": "address"
				},
				{
					"indexed": false,
					"internalType": "uint256",
					"name": "amount0In",
					"type": "uint256"
				},
				{
					"indexed": false,
					"internalType": "uint256",
					"name": "sqrtPriceX96",
					"type": "uint256"
				},
				{
					"indexed": false,
					"internalType": "address",
					"name": "to",
					"type": "address"
				}
			],
			"name": "Mint",
			"type": "event"
		},
		{
			"anonymous": false,
			"inputs": [
				{
					"indexed": true,
					"internalType": "address",
					"name": "from",
					"type": "address"
				},
				{
					"indexed": false,
					"internalType": "int24",
					"name": "tick",
					"type": "int24"
				},
				{
					"indexed": false,
					"internalType": "uint128",
					"name": "buyShare",
					"type": "uint128"
				},
				{
					"indexed": false,
					"internalType": "uint128",
					"name": "sellShare",
					"type": "uint128"
				},
				{
					"indexed": false,
					"internalType": "uint128",
					"name": "token0In",
					"type": "uint128"
				},
				{
					"indexed": false,
					"internalType": "uint128",
					"name": "token1In",
					"type": "uint128"
				}
			],
			"name": "PutLimit",
			"type": "event"
		},
		{
			"anonymous": false,
			"inputs": [
				{
					"indexed": true,
					"internalType": "address",
					"name": "from",
					"type": "address"
				},
				{
					"indexed": false,
					"internalType": "uint128",
					"name": "token0In",
					"type": "uint128"
				},
				{
					"indexed": false,
					"internalType": "uint128",
					"name": "token1In",
					"type": "uint128"
				},
				{
					"indexed": false,
					"internalType": "uint128",
					"name": "token0Out",
					"type": "uint128"
				},
				{
					"indexed": false,
					"internalType": "uint128",
					"name": "token1Out",
					"type": "uint128"
				}
			],
			"name": "Swap",
			"type": "event"
		},
		{
			"anonymous": false,
			"inputs": [
				{
					"indexed": true,
					"internalType": "address",
					"name": "from",
					"type": "address"
				},
				{
					"indexed": true,
					"internalType": "address",
					"name": "to",
					"type": "address"
				},
				{
					"indexed": false,
					"internalType": "uint256",
					"name": "value",
					"type": "uint256"
				}
			],
			"name": "Transfer",
			"type": "event"
		},
		{
			"stateMutability": "nonpayable",
			"type": "fallback"
		},
		{
			"inputs": [
				{
					"internalType": "uint256",
					"name": "LPamount",
					"type": "uint256"
				}
			],
			"name": "LP2Tokens",
			"outputs": [
				{
					"internalType": "uint256",
					"name": "amount0",
					"type": "uint256"
				},
				{
					"internalType": "uint256",
					"name": "amount1",
					"type": "uint256"
				}
			],
			"stateMutability": "view",
			"type": "function"
		},
		{
			"inputs": [
				{
					"internalType": "address",
					"name": "",
					"type": "address"
				},
				{
					"internalType": "address",
					"name": "",
					"type": "address"
				}
			],
			"name": "allowance",
			"outputs": [
				{
					"internalType": "uint256",
					"name": "",
					"type": "uint256"
				}
			],
			"stateMutability": "view",
			"type": "function"
		},
		{
			"inputs": [
				{
					"internalType": "uint256",
					"name": "amount0",
					"type": "uint256"
				},
				{
					"internalType": "uint160",
					"name": "sqrtPriceX96",
					"type": "uint160"
				}
			],
			"name": "amount0ToAmount1",
			"outputs": [
				{
					"internalType": "uint256",
					"name": "amount1",
					"type": "uint256"
				}
			],
			"stateMutability": "pure",
			"type": "function"
		},
		{
			"inputs": [
				{
					"internalType": "uint256",
					"name": "amount1",
					"type": "uint256"
				},
				{
					"internalType": "uint160",
					"name": "sqrtPriceX96",
					"type": "uint160"
				}
			],
			"name": "amount1ToAmount0",
			"outputs": [
				{
					"internalType": "uint256",
					"name": "amount0",
					"type": "uint256"
				}
			],
			"stateMutability": "pure",
			"type": "function"
		},
		{
			"inputs": [
				{
					"internalType": "address",
					"name": "spender",
					"type": "address"
				},
				{
					"internalType": "uint256",
					"name": "value",
					"type": "uint256"
				}
			],
			"name": "approve",
			"outputs": [
				{
					"internalType": "bool",
					"name": "",
					"type": "bool"
				}
			],
			"stateMutability": "nonpayable",
			"type": "function"
		},
		{
			"inputs": [
				{
					"internalType": "address",
					"name": "",
					"type": "address"
				}
			],
			"name": "balanceOf",
			"outputs": [
				{
					"internalType": "uint256",
					"name": "",
					"type": "uint256"
				}
			],
			"stateMutability": "view",
			"type": "function"
		},
		{
			"inputs": [
				{
					"internalType": "address",
					"name": "to",
					"type": "address"
				}
			],
			"name": "burn",
			"outputs": [
				{
					"internalType": "uint256",
					"name": "amount0",
					"type": "uint256"
				},
				{
					"internalType": "uint256",
					"name": "amount1",
					"type": "uint256"
				}
			],
			"stateMutability": "nonpayable",
			"type": "function"
		},
		{
			"inputs": [
				{
					"internalType": "address",
					"name": "user",
					"type": "address"
				},
				{
					"internalType": "int24",
					"name": "tick",
					"type": "int24"
				}
			],
			"name": "buyShare",
			"outputs": [
				{
					"internalType": "uint256",
					"name": "share",
					"type": "uint256"
				}
			],
			"stateMutability": "view",
			"type": "function"
		},
		{
			"inputs": [
				{
					"internalType": "int24",
					"name": "tick",
					"type": "int24"
				},
				{
					"internalType": "uint256",
					"name": "share",
					"type": "uint256"
				},
				{
					"internalType": "bool",
					"name": "isSellShare",
					"type": "bool"
				}
			],
			"name": "cancelLimitOrder",
			"outputs": [
				{
					"internalType": "uint256",
					"name": "token0Out",
					"type": "uint256"
				},
				{
					"internalType": "uint256",
					"name": "token1Out",
					"type": "uint256"
				}
			],
			"stateMutability": "nonpayable",
			"type": "function"
		},
		{
			"inputs": [
				{
					"internalType": "address",
					"name": "from",
					"type": "address"
				},
				{
					"internalType": "uint256",
					"name": "share",
					"type": "uint256"
				}
			],
			"name": "claimableReward",
			"outputs": [
				{
					"internalType": "uint256",
					"name": "reward0",
					"type": "uint256"
				},
				{
					"internalType": "uint256",
					"name": "reward1",
					"type": "uint256"
				}
			],
			"stateMutability": "view",
			"type": "function"
		},
		{
			"inputs": [],
			"name": "currentSqrtPriceX96",
			"outputs": [
				{
					"internalType": "uint160",
					"name": "",
					"type": "uint160"
				}
			],
			"stateMutability": "view",
			"type": "function"
		},
		{
			"inputs": [],
			"name": "currentTick",
			"outputs": [
				{
					"internalType": "int24",
					"name": "tick",
					"type": "int24"
				}
			],
			"stateMutability": "view",
			"type": "function"
		},
		{
			"inputs": [],
			"name": "decimals",
			"outputs": [
				{
					"internalType": "uint8",
					"name": "",
					"type": "uint8"
				}
			],
			"stateMutability": "view",
			"type": "function"
		},
		{
			"inputs": [
				{
					"internalType": "uint256",
					"name": "amountIn",
					"type": "uint256"
				},
				{
					"internalType": "bool",
					"name": "zeroForToken0",
					"type": "bool"
				}
			],
			"name": "estOutput",
			"outputs": [
				{
					"internalType": "uint256",
					"name": "",
					"type": "uint256"
				},
				{
					"internalType": "uint256",
					"name": "",
					"type": "uint256"
				},
				{
					"internalType": "uint160",
					"name": "",
					"type": "uint160"
				}
			],
			"stateMutability": "view",
			"type": "function"
		},
		{
			"inputs": [
				{
					"internalType": "address",
					"name": "recipient",
					"type": "address"
				},
				{
					"internalType": "uint256",
					"name": "amount0",
					"type": "uint256"
				},
				{
					"internalType": "uint256",
					"name": "amount1",
					"type": "uint256"
				},
				{
					"internalType": "bytes",
					"name": "data",
					"type": "bytes"
				}
			],
			"name": "flashLoan",
			"outputs": [],
			"stateMutability": "nonpayable",
			"type": "function"
		},
		{
			"inputs": [
				{
					"internalType": "int24",
					"name": "tick",
					"type": "int24"
				}
			],
			"name": "getDeep",
			"outputs": [
				{
					"internalType": "uint256",
					"name": "token0Deep",
					"type": "uint256"
				},
				{
					"internalType": "uint256",
					"name": "token1Deep",
					"type": "uint256"
				}
			],
			"stateMutability": "view",
			"type": "function"
		},
		{
			"inputs": [
				{
					"internalType": "int24",
					"name": "tick",
					"type": "int24"
				},
				{
					"internalType": "address",
					"name": "user",
					"type": "address"
				},
				{
					"internalType": "uint256",
					"name": "share",
					"type": "uint256"
				},
				{
					"internalType": "bool",
					"name": "isSellShare",
					"type": "bool"
				}
			],
			"name": "getLimitTokens",
			"outputs": [
				{
					"internalType": "uint256",
					"name": "",
					"type": "uint256"
				},
				{
					"internalType": "uint256",
					"name": "",
					"type": "uint256"
				}
			],
			"stateMutability": "view",
			"type": "function"
		},
		{
			"inputs": [],
			"name": "getTotalLimit",
			"outputs": [
				{
					"internalType": "uint256",
					"name": "totalLimit0",
					"type": "uint256"
				},
				{
					"internalType": "uint256",
					"name": "totalLimit1",
					"type": "uint256"
				}
			],
			"stateMutability": "view",
			"type": "function"
		},
		{
			"inputs": [
				{
					"internalType": "address",
					"name": "_token0",
					"type": "address"
				},
				{
					"internalType": "address",
					"name": "_token1",
					"type": "address"
				}
			],
			"name": "initTokenAddress",
			"outputs": [],
			"stateMutability": "nonpayable",
			"type": "function"
		},
		{
			"inputs": [
				{
					"internalType": "int24",
					"name": "tick",
					"type": "int24"
				},
				{
					"internalType": "uint256",
					"name": "buyside",
					"type": "uint256"
				}
			],
			"name": "isExploited",
			"outputs": [
				{
					"internalType": "bool",
					"name": "",
					"type": "bool"
				}
			],
			"stateMutability": "view",
			"type": "function"
		},
		{
			"inputs": [],
			"name": "lastBalance0",
			"outputs": [
				{
					"internalType": "uint256",
					"name": "",
					"type": "uint256"
				}
			],
			"stateMutability": "view",
			"type": "function"
		},
		{
			"inputs": [],
			"name": "lastBalance1",
			"outputs": [
				{
					"internalType": "uint256",
					"name": "",
					"type": "uint256"
				}
			],
			"stateMutability": "view",
			"type": "function"
		},
		{
			"inputs": [],
			"name": "liquidity",
			"outputs": [
				{
					"internalType": "uint256",
					"name": "",
					"type": "uint256"
				}
			],
			"stateMutability": "view",
			"type": "function"
		},
		{
			"inputs": [
				{
					"internalType": "address",
					"name": "to",
					"type": "address"
				}
			],
			"name": "mint",
			"outputs": [
				{
					"internalType": "uint256",
					"name": "share",
					"type": "uint256"
				}
			],
			"stateMutability": "nonpayable",
			"type": "function"
		},
		{
			"inputs": [],
			"name": "name",
			"outputs": [
				{
					"internalType": "string",
					"name": "",
					"type": "string"
				}
			],
			"stateMutability": "view",
			"type": "function"
		},
		{
			"inputs": [
				{
					"internalType": "int24",
					"name": "tick",
					"type": "int24"
				},
				{
					"internalType": "uint256",
					"name": "amount",
					"type": "uint256"
				},
				{
					"internalType": "bool",
					"name": "zeroForToken1",
					"type": "bool"
				}
			],
			"name": "putLimitOrder",
			"outputs": [
				{
					"internalType": "uint256",
					"name": "share",
					"type": "uint256"
				}
			],
			"stateMutability": "nonpayable",
			"type": "function"
		},
		{
			"inputs": [],
			"name": "reserve0",
			"outputs": [
				{
					"internalType": "uint256",
					"name": "",
					"type": "uint256"
				}
			],
			"stateMutability": "view",
			"type": "function"
		},
		{
			"inputs": [],
			"name": "reserve1",
			"outputs": [
				{
					"internalType": "uint256",
					"name": "",
					"type": "uint256"
				}
			],
			"stateMutability": "view",
			"type": "function"
		},
		{
			"inputs": [],
			"name": "reward0PerTokenX96",
			"outputs": [
				{
					"internalType": "uint256",
					"name": "",
					"type": "uint256"
				}
			],
			"stateMutability": "view",
			"type": "function"
		},
		{
			"inputs": [],
			"name": "reward1PerTokenX96",
			"outputs": [
				{
					"internalType": "uint256",
					"name": "",
					"type": "uint256"
				}
			],
			"stateMutability": "view",
			"type": "function"
		},
		{
			"inputs": [
				{
					"internalType": "address",
					"name": "user",
					"type": "address"
				},
				{
					"internalType": "int24",
					"name": "tick",
					"type": "int24"
				}
			],
			"name": "sellShare",
			"outputs": [
				{
					"internalType": "uint256",
					"name": "share",
					"type": "uint256"
				}
			],
			"stateMutability": "view",
			"type": "function"
		},
		{
			"inputs": [
				{
					"internalType": "uint256",
					"name": "amountIn",
					"type": "uint256"
				},
				{
					"internalType": "bool",
					"name": "zeroForToken0",
					"type": "bool"
				},
				{
					"internalType": "address",
					"name": "to",
					"type": "address"
				}
			],
			"name": "swap",
			"outputs": [
				{
					"internalType": "uint256",
					"name": "amountOut",
					"type": "uint256"
				},
				{
					"internalType": "uint160",
					"name": "toSqrtPriceX96",
					"type": "uint160"
				}
			],
			"stateMutability": "nonpayable",
			"type": "function"
		},
		{
			"inputs": [],
			"name": "symbol",
			"outputs": [
				{
					"internalType": "string",
					"name": "",
					"type": "string"
				}
			],
			"stateMutability": "view",
			"type": "function"
		},
		{
			"inputs": [
				{
					"internalType": "int16",
					"name": "",
					"type": "int16"
				}
			],
			"name": "tickBitmap",
			"outputs": [
				{
					"internalType": "uint256",
					"name": "",
					"type": "uint256"
				}
			],
			"stateMutability": "view",
			"type": "function"
		},
		{
			"inputs": [],
			"name": "token0",
			"outputs": [
				{
					"internalType": "address",
					"name": "",
					"type": "address"
				}
			],
			"stateMutability": "view",
			"type": "function"
		},
		{
			"inputs": [],
			"name": "token1",
			"outputs": [
				{
					"internalType": "address",
					"name": "",
					"type": "address"
				}
			],
			"stateMutability": "view",
			"type": "function"
		},
		{
			"inputs": [],
			"name": "totalSupply",
			"outputs": [
				{
					"internalType": "uint256",
					"name": "",
					"type": "uint256"
				}
			],
			"stateMutability": "view",
			"type": "function"
		},
		{
			"inputs": [],
			"name": "tradeCore",
			"outputs": [
				{
					"internalType": "address",
					"name": "",
					"type": "address"
				}
			],
			"stateMutability": "view",
			"type": "function"
		},
		{
			"inputs": [
				{
					"internalType": "address",
					"name": "to",
					"type": "address"
				},
				{
					"internalType": "uint256",
					"name": "value",
					"type": "uint256"
				}
			],
			"name": "transfer",
			"outputs": [
				{
					"internalType": "bool",
					"name": "",
					"type": "bool"
				}
			],
			"stateMutability": "nonpayable",
			"type": "function"
		},
		{
			"inputs": [
				{
					"internalType": "address",
					"name": "from",
					"type": "address"
				},
				{
					"internalType": "address",
					"name": "to",
					"type": "address"
				},
				{
					"internalType": "uint256",
					"name": "value",
					"type": "uint256"
				}
			],
			"name": "transferFrom",
			"outputs": [
				{
					"internalType": "bool",
					"name": "",
					"type": "bool"
				}
			],
			"stateMutability": "nonpayable",
			"type": "function"
		},
		{
			"inputs": [
				{
					"internalType": "address",
					"name": "",
					"type": "address"
				}
			],
			"name": "writeOffReward0PerTokenX96",
			"outputs": [
				{
					"internalType": "uint256",
					"name": "",
					"type": "uint256"
				}
			],
			"stateMutability": "view",
			"type": "function"
		},
		{
			"inputs": [
				{
					"internalType": "address",
					"name": "",
					"type": "address"
				}
			],
			"name": "writeOffReward1PerTokenX96",
			"outputs": [
				{
					"internalType": "uint256",
					"name": "",
					"type": "uint256"
				}
			],
			"stateMutability": "view",
			"type": "function"
		}
	]
}