{
	"data": {
		"bytecode": {
			"linkReferences": {
				"libraries/TickMath.sol": {
					"TickMath": [
						{
							"length": 20,
							"start": 7112
						},
						{
							"length": 20,
							"start": 7397
						},
						{
							"length": 20,
							"start": 7636
						}
					]
				}
			},
			"object": "608060405234801561001057600080fd5b50613af6806100206000396000f3fe608060405234801561001057600080fd5b50600436106100f55760003560e01c80635a76f25e11610097578063d21220a711610066578063d21220a7146102a1578063f46c855e146102a9578063f5d588de14610310578063fdda7ec51461034a576100f5565b80635a76f25e146101eb5780637a95fff4146101f3578063bbea8f6a1461021f578063c3acad361461024b576100f5565b8063443cb4bc116100d3578063443cb4bc1461018d57806347fd03d9146101955780635339c2961461019d578063571a4c72146101bd576100f5565b806302ea5e1f146100fa5780630dfe16811461014f5780631a68650214610173575b600080fd5b6101286004803603606081101561011057600080fd5b5080359060208101351515906040013560020b610370565b6040805193845260208401929092526001600160a01b031682820152519081900360600190f35b610157610412565b604080516001600160a01b039092168252519081900360200190f35b61017b610421565b60408051918252519081900360200190f35b61017b610427565b61015761044d565b61017b600480360360208110156101b357600080fd5b503560010b61045c565b610128600480360360608110156101d357600080fd5b5080359060208101351515906040013560020b61046e565b61017b610759565b61017b6004803603604081101561020957600080fd5b50803590602001356001600160a01b0316610779565b61017b6004803603604081101561023557600080fd5b50803590602001356001600160a01b03166107d4565b6102886004803603608081101561026157600080fd5b50803560020b906001600160a01b036020820135169060408101359060600135151561082d565b6040805192835260208301919091528051918290030190f35b610157610a51565b61030e60048036036101008110156102c057600080fd5b50803560020b906001600160801b036020820135811691604081013582169160608201358116916080810135909116906001600160a01b0360a0820135169060c08101359060e00135610a60565b005b6103366004803603604081101561032657600080fd5b50803560020b9060200135610abb565b604080519115158252519081900360200190f35b61030e6004803603604081101561036057600080fd5b50803560020b9060200135610ac7565b60025460009081908190819061038e906001600160a01b0316610e5b565b9050610398613a5d565b878152600280546001600160a01b0316606083015287151560a083015286810b810b60c083015282810b900b60808201526103d28161117a565b505060208101519091506103f6906103e8906103f0906103e5611320565b90611383565b8160400151826060015194509450945050505b93509350939050565b6011546001600160a01b031681565b60035481565b60035460025460009161044891600160601b906001600160a01b0316611396565b905090565b6002546001600160a01b031681565b60106020526000908152604090205481565b60008080856104905750506002546000915081906001600160a01b0316610409565b6002546000906104a8906001600160a01b0316610e5b565b6002546001600160a01b0316925090506104c0613a5d565b878152600280546001600160a01b0316606083015287151560a083015286810b810b60c083015282810b900b60808201526104f9613a99565b60006105048361117a565b6060830151608084015193965091945092506001600160a01b031690610529906113d1565b6001600160a01b031614801561053c5750805b15610557576105578360800151838560600151600080611703565b8815610587578360020b836080015160020b1315610582576105828460018560800151036000611b30565b6105ac565b8360020b836080015160020b12156105ac576105ac8360800151600101856001611b30565b6060830151600280546001600160a01b0319166001600160a01b03909216919091179055886105f5576105f08584606001516105e9600354611ea3565b6001611ebe565b610610565b610610858460600151610609600354611ea3565b6001611f39565b9550858360200151111561063b578583602001510395506103e886101561063657600095505b610693565b856103e884602001510111156106545760009550610693565b6040805162461bcd60e51b815260206004820152600f60248201526e1d1bdb195c985b9d08195e18d95959608a1b604482015290519081900360640190fd5b60408301511561073b5788156106e7576004546103e8906106b79060801c88611fe4565b106106d2576004546106cd90608088901b611fe4565b6106df565b6004546001600160801b03165b60045561073b565b6004546103e890610701906001600160801b031688611fe4565b106107295761072461071287611ea3565b600454906001600160801b0316611fe4565b610737565b6004546001600160801b0319165b6004555b50508051602082015160609092015190999198509650945050505050565b600354600254600091610448916001600160a01b0316600160601b611396565b60006001600160a01b038216158061078f575082155b1561079c575060006107ce565b6107cb6107b784600160601b856001600160a01b0316612034565b600160601b846001600160a01b0316612034565b90505b92915050565b60006001600160a01b03821615806107ea575082155b156107f7575060006107ce565b60606108196001600160a01b038416826108118783611320565b901c90611320565b901c905080156107ce576000190192915050565b6000806000601384610840576000610843565b60015b60ff166002811061085057fe5b6001600160a01b038816600090815291016020908152604080832060028b810b810b8552908352818420825160808101845281548152600182015494810194909452908101549183019190915260030154606082015291506108b1886113d1565b90506000806108d18a886108c65760016108c9565b60005b60ff166120e3565b80610918575083606001516015886108ea5760006108ed565b60015b60ff16600281106108fa57fe5b0160008c60020b60020b815260200190815260200160002060020154115b1561094a578661093557610930846040015184610779565b610943565b6109438460400151846107d4565b91506109e6565b83516109919060158961095e576000610961565b60015b60ff166002811061096e57fe5b60028e810b900b600090815291016020526040902060010154600160601b612034565b9150836020015182116109a55760006109b5565b60208401516109b5908390611fe4565b91506109e3876109ce576109c983856107d4565b6109d8565b6109d88385610779565b604086015190611fe4565b90505b6109f488856000015161216f565b8451909850610a0d576000809550955050505050610a48565b610a1c88828660000151612034565b9050610a2d88838660000151612034565b915086610a3b578181610a3e565b80825b9096509450505050505b94509492505050565b6012546001600160a01b031681565b610ab18860405180608001604052808a6001600160801b03168152602001896001600160801b03168152602001886001600160801b03168152602001876001600160801b0316815250858585611703565b5050505050505050565b60006107cb83836120e3565b600080600080610ad686612185565b9350935093509350610afe60058660028110610aee57fe5b0154610af9866121c4565b6121cd565b15610bbf57610b2560058660028110610b1357fe5b0154610b1e866121c4565b60006121db565b60058660028110610b3257fe5b0155610b426000198460006121db565b60078660028110610b4f57fe5b600087810b810b815291016020526040812091909155610b74906000199083906121db565b60098660028110610b8157fe5b600185810b900b600090815291016020526040812091909155600c8660028110610ba757fe5b600087810b810b815291016020526040902055610e53565b610be860078660028110610bcf57fe5b600087810b810b815291016020526040902054846121cd565b15610ce057610c1860078660028110610bfd57fe5b600087810b810b8152910160205260408120549085906121db565b60078660028110610c2557fe5b600087810b810b815291016020526040812091909155610c4a906000199083906121db565b60098660028110610c5757fe5b600185810b900b600090815291016020526040902055600e8560028110610c7a57fe5b600184810b900b600090815291016020526040902054600c8660028110610c9d57fe5b600087810b810b8152910160205260408120805492909203909155600e8660028110610cc557fe5b600185810b900b600090815291016020526040902055610e53565b610d0c60098660028110610cf057fe5b600185810b900b600090815291016020526040902054826121cd565b15610e5357610d4260098660028110610d2157fe5b0160008460010b60010b8152602001908152602001600020548260006121db565b60098660028110610d4f57fe5b600185810b900b60009081529101602052604081209190915585610d9457600287810b900b6000908152600b60205260409020600101546001600160801b0316610db4565b600287810b900b6000908152600b60205260409020546001600160801b03165b6001600160801b031690506000808711610ddf57610dda82610dd58a6113d1565b6107d4565b610df1565b610df182610dec8a6113d1565b610779565b905080608083901b01600c8860028110610e0757fe5b600089810b810b81529101602052604090208054919091039055608082901b8101600e8860028110610e3557fe5b600089810b60010b8152910160205260409020805491909103905550505b505050505050565b60006401000276a36001600160a01b03831610801590610e97575073fffd8963efd1fc6a506488495d951d5263988d266001600160a01b038316105b610ecc576040805162461bcd60e51b81526020600482015260016024820152602960f91b604482015290519081900360640190fd5b640100000000600160c01b03602083901b166001600160801b03811160071b81811c67ffffffffffffffff811160061b90811c63ffffffff811160051b90811c61ffff811160041b90811c60ff8111600390811b91821c600f811160021b90811c918211600190811b92831c97908811961790941790921717909117171760808110610f6057607f810383901c9150610f6a565b80607f0383901b91505b908002607f81811c60ff83811c9190911c800280831c81831c1c800280841c81841c1c800280851c81851c1c800280861c81861c1c800280871c81871c1c800280881c81881c1c800280891c81891c1c8002808a1c818a1c1c8002808b1c818b1c1c8002808c1c818c1c1c8002808d1c818d1c1c8002808e1c9c81901c9c909c1c80029c8d901c9e9d607f198f0160401b60c09190911c678000000000000000161760c19b909b1c674000000000000000169a909a1760c29990991c672000000000000000169890981760c39790971c671000000000000000169690961760c49590951c670800000000000000169490941760c59390931c670400000000000000169290921760c69190911c670200000000000000161760c79190911c670100000000000000161760c89190911c6680000000000000161760c99190911c6640000000000000161760ca9190911c6620000000000000161760cb9190911c6610000000000000161760cc9190911c6608000000000000161760cd9190911c66040000000000001617693627a301d71055774c8581026f028f6481ab7f045a5af012a19d003aa9198101608090811d906fdb2df09e81959a81455e260799a0632f8301901d600281810b9083900b1461116b57886001600160a01b031661114f826113d1565b6001600160a01b031611156111645781611166565b805b61116d565b815b9998505050505050505050565b611182613a5d565b61118a613a99565b82516000906111c1575050604080516080810182526000808252602082018190529181018290526060810182905283925090611319565b83606001516001600160a01b03166111dc85608001516113d1565b6001600160a01b0316146112fa5760008460a001516111ff578460800151611208565b84608001516001015b905060008060006112786040518060e001604052808a60000151815260200160008152602001600260009054906101000a90046001600160a01b03166001600160a01b031681526020018660020b815260200160008152602001600081526020018a60a0015115158152506121fc565b92509250925082156112b157875181900388526020880180518301905261129e846113d1565b6001600160a01b031660608901526112f5565b6112ba886122c6565b600080825260408051608081018252828152602081018390529081018290526060810182905291995089985090965094506113199350505050565b505050505b611302613a99565b61130b8561244c565b909550859450925060019150505b9193909250565b600081158061133b5750508082028282828161133857fe5b04145b6107ce576040805162461bcd60e51b815260206004820152601460248201527364732d6d6174682d6d756c2d6f766572666c6f7760601b604482015290519081900360640190fd5b600081838161138e57fe5b049392505050565b60006113a3848484612034565b9050600082806113af57fe5b84860911156113ca5760001981106113c657600080fd5b6001015b9392505050565b60008060008360020b126113e8578260020b6113f0565b8260020b6000035b9050620d89e881111561142e576040805162461bcd60e51b81526020600482015260016024820152601560fa1b604482015290519081900360640190fd5b60006001821661144257600160801b611454565b6ffffcb933bd6fad37aa2d162d1a5940015b70ffffffffffffffffffffffffffffffffff1690506002821615611488576ffff97272373d413259a46990580e213a0260801c5b60048216156114a7576ffff2e50f5f656932ef12357cf3c7fdcc0260801c5b60088216156114c6576fffe5caca7e10e4e61c3624eaa0941cd00260801c5b60108216156114e5576fffcb9843d60f6159c9db58835c9266440260801c5b6020821615611504576fff973b41fa98c081472e6896dfb254c00260801c5b6040821615611523576fff2ea16466c96a3843ec78b326b528610260801c5b6080821615611542576ffe5dee046a99a2a811c461f1969c30530260801c5b610100821615611562576ffcbe86c7900a88aedcffc83b479aa3a40260801c5b610200821615611582576ff987a7253ac413176f2b074cf7815e540260801c5b6104008216156115a2576ff3392b0822b70005940c7a398e4b70f30260801c5b6108008216156115c2576fe7159475a2c29b7443b29c7fa6e889d90260801c5b6110008216156115e2576fd097f3bdfd2022b8845ad8f792aa58250260801c5b612000821615611602576fa9f746462d870fdf8a65dc1f90e061e50260801c5b614000821615611622576f70d869a156d2a1b890bb3df62baf32f70260801c5b618000821615611642576f31be135f97d08fd981231505542fcfa60260801c5b62010000821615611663576f09aa508b5b7a84e1c677de54f3e99bc90260801c5b62020000821615611683576e5d6af8dedb81196699c329225ee6040260801c5b620400008216156116a2576d2216e584f5fa1ea926041bedfe980260801c5b620800008216156116bf576b048a170391f7dc42444e8fa20260801c5b60008460020b13156116da5780600019816116d657fe5b0490505b6401000000008106156116ee5760016116f1565b60005b60ff16602082901c0192505050919050565b60008061170f87612185565b5092505091506117208760006120e3565b156117795761174461173f87600001516001600160801b031687610779565b611ea3565b602087018051919091016001600160801b0316905260008087526117699088906127fe565b611774876000610ac7565b6117f0565b602080870151600289810b900b6000908152600b9092526040909120546001600160801b03918216600160801b90910490911610156117f057600287810b900b6000908152600b60209081526040822054908801516117f0928a9290916001600160801b03600160801b909204821690031661288c565b6117fb8760016120e3565b156118515761181a61173f87604001516001600160801b0316876107d4565b606087018051919091016001600160801b03169052600060408701526118418760016127fe565b61184c876001610ac7565b6118d5565b6060860151600288810b900b6000908152600b60205260409020600101546001600160801b03918216600160801b90910490911610156118d5576118d5876001600b60008b60020b60020b815260200190815260200160002060010160109054906101000a90046001600160801b03168960600151036001600160801b031661288c565b600287810b900b6000908152600b6020908152604080832089518154938b01516001600160801b03199485166001600160801b03928316178216600160801b9183168202178355928b01516001909201805460608d015195169282169290921781169316909102919091179055600454818513156119a95760006119598689610779565b9050801561196657600019015b600085810b810b8152600d60209081526040808320805460808b901b959095019485019055600187810b810b8452600f9092529091208054909201909155915084015b6000851215611a165760006119c18660000389610779565b905080156119ce57600019015b600085810b810b8152600d6020908152604080832080548a8503608081901b9690960190819003909155600188810b810b8552600f9093529220805492909203909155925090035b6000861315611a70576000611a2b87896107d4565b600086810b810b8152600c60209081526040808320805460808d901b958601908101909155600189810b900b8452600e90925282208054909101905593509190910190505b6000861215611acf576000611a8887600003896107d4565b600086810b810b8152600c6020908152604080832080548c850360801b95860190819003909155600189810b900b8452600e90925282208054919091039055935090910390505b6004548114611ade5760048190555b87516001600160801b0316158015611b01575060408801516001600160801b0316155b15611b1857611b1360108a6000612981565b611b25565b611b2560108a6001612981565b505050505050505050565b8260020b8260020b1215611b4357600080fd5b600080600080611b5287612185565b93509350935093506000806000611b6889612185565b935050925092508660000b8360000b1315611c9357611b958a6001611b8e8d6001612a20565b038a611b30565b8660010160000b8360000b1315611c765773__$e59ac5441f1a8f376d0930c8a0eb1fdb51$__634033822a60058a60028110611bcd57fe5b0154611bdb8a6001016121c4565b611be7600188036121c4565b60016040518563ffffffff1660e01b8152600401808581526020018460ff1681526020018360ff168152602001821515815260200194505050505060206040518083038186803b158015611c3a57600080fd5b505af4158015611c4e573d6000803e3d6000fd5b505050506040513d6020811015611c6457600080fd5b505160058960028110611c7357fe5b01555b611c8e611c848a6000612a20565b6001018a8a611b30565b611e97565b8560ff168260ff161115611db257611cb28a6001611b8e8d6001612a48565b8560010160ff168260ff161115611da45773__$e59ac5441f1a8f376d0930c8a0eb1fdb51$__634033822a60078a60028110611cea57fe5b60008b810b810b81529101602090815260409182902054825160e085901b6001600160e01b0319168152600481019190915260018b810160ff9081166024840152600019890116604483015260648201529151608480840193829003018186803b158015611d5757600080fd5b505af4158015611d6b573d6000803e3d6000fd5b505050506040513d6020811015611d8157600080fd5b505160078960028110611d9057fe5b60008a810b810b8152910160205260409020555b611c8e611c848a6000612a48565b73__$e59ac5441f1a8f376d0930c8a0eb1fdb51$__634033822a60098a60028110611dd957fe5b0160008860010b60010b815260200190815260200160002054868460016040518563ffffffff1660e01b8152600401808581526020018460ff1681526020018360ff168152602001821515815260200194505050505060206040518083038186803b158015611e4757600080fd5b505af4158015611e5b573d6000803e3d6000fd5b505050506040513d6020811015611e7157600080fd5b505160098960028110611e8057fe5b600188810b900b6000908152910160205260409020555b50505050505050505050565b806001600160801b0381168114611eb957600080fd5b919050565b6000836001600160a01b0316856001600160a01b03161115611ede579293925b81611f0b57611f06836001600160801b03168686036001600160a01b0316600160601b612034565b611f2e565b611f2e836001600160801b03168686036001600160a01b0316600160601b611396565b90505b949350505050565b6000836001600160a01b0316856001600160a01b03161115611f59579293925b600160601b600160e01b03606084901b166001600160a01b038686038116908716611f8357600080fd5b83611fb357866001600160a01b0316611fa68383896001600160a01b0316612034565b81611fad57fe5b04611fd9565b611fd9611fca8383896001600160a01b0316611396565b886001600160a01b0316612a82565b979650505050505050565b808203828111156107ce576040805162461bcd60e51b815260206004820152601560248201527464732d6d6174682d7375622d756e646572666c6f7760581b604482015290519081900360640190fd5b600080806000198587098686029250828110908390030390508061206a576000841161205f57600080fd5b5082900490506113ca565b80841161207657600080fd5b6000848688096000868103871696879004966002600389028118808a02820302808a02820302808a02820302808a02820302808a02820302808a02909103029181900381900460010186841190950394909402919094039290920491909117919091029150509392505050565b60008060008060006120f487612185565b935093509350935061210c60058760028110610aee57fe5b1561211e5760019450505050506107ce565b61212e60078760028110610bcf57fe5b156121405760019450505050506107ce565b61215060098760028110610cf057fe5b156121625760019450505050506107ce565b60009450505050506107ce565b600081831061217e57816107cb565b5090919050565b600080600080600e8560020b901d9350604060088660020b901d60020b816121a957fe5b949694079460020b600881901d946101009091079350915050565b60000b607f0190565b600160ff9091161b16151590565b600081156121f25750600160ff83161b83176113ca565b5060009392505050565b60008060008061220f85606001516113d1565b90508460c001516122335761222e856040015182610609600354611ea3565b612247565b6122478560400151826105e9600354611ea3565b9150818560a0015101856000015111156122be5760a085015185519083019003855260c085015160009061229557612290866040015183612289600354611ea3565b6000611ebe565b6122b0565b6122b08660400151836122a9600354611ea3565b6000611f39565b608087015160019650019350505b509193909250565b6122ce613a5d565b60608201516003546122f29082906122e590611ea3565b855160a087015115612a8d565b6001600160a01b03166060840181905261230b90610e5b565b600290810b810b608085015260c0840151627fffff910b1480159061233b57508260c0015160020b627ffffe1914155b156123fe578260a00151801561235e57508260c0015160020b836080015160020b135b8061238357508260a0015115801561238357508260c0015160020b836080015160020b125b156123f4576123958360c001516113d1565b6001600160a01b0316606084015260a08301516123c5576123c0818460600151610609600354611ea3565b6123d9565b6123d98184606001516105e9600354611ea3565b835103835260c0830151600290810b900b60808401526123f9565b600083525b612403565b600083525b8260a0015161242557612420818460600151612289600354611ea3565b612439565b6124398184606001516122a9600354611ea3565b6020840180519190910190525090919050565b612454613a5d565b61245c613a99565b8251608084015160c0850151600291820b910b14156124df57505050608080820151600290810b900b6000908152600b60209081526040918290208251938401835280546001600160801b038082168652600160801b918290048116938601939093526001909101548083169385019390935290910416606082015281906127f9565b835161254f57505050608080820151600290810b900b6000908152600b60209081526040918290208251938401835280546001600160801b038082168652600160801b918290048116938601939093526001909101548083169385019390935290910416606082015281906127f9565b61256e84608001518560a001516125675760006108c9565b60016120e3565b6125ac5761257a613a99565b61258385612ad9565b8151919650915061259a5784935091506127f99050565b50835160408501805191830390910190525b8360a0015180156125d25750610100846080015160020b816125ca57fe5b0760020b60ff145b806125fd57508360a001511580156125fd5750610100846080015160020b816125f757fe5b0760020b155b156126325760015b801561261e5761261485612e10565b9095509050612605565b6126278561244c565b9350935050506127f9565b60006126658560a0015161264d576001866080015103612653565b85608001515b60a087015160109190600190156131f9565b5090508460a00151801561268257508460c0015160020b8160020b135b806126a357508460a001511580156126a357508460c0015160020b8160020b125b156126af575060c08401515b600080600061270c6040518060e001604052808a600001518152602001600081526020018a606001516001600160a01b031681526020018660020b815260200160008152602001600081526020018a60a0015115158152506121fc565b9250925092508215612763578751819003885260208801805183019052612732846113d1565b6001600160a01b03166060890152600284810b900b60808901526127558861244c565b9650965050505050506127f9565b61276c886122c6565b60008152606081015190985061278190610e5b565b600290810b810b6080808b019190915294810b900b6000908152600b60209081526040918290208251968701835280546001600160801b038082168952600160801b9182900481169389019390935260019091015480831693880193909352909104166060850152508695509193506127f992505050565b915091565b60006015826002811061280d57fe5b0160008460020b60020b81526020019081526020016000206000018190555060006015826002811061283b57fe5b0160008460020b60020b81526020019081526020016000206001018190555060016015826002811061286957fe5b600294850b850b6000908152910160205260409020909201805490920190915550565b801561297c576000601583600281106128a157fe5b600286810b900b600090815291016020526040902054116128f5576040805162461bcd60e51b81526020600482015260096024820152682222a2a822a92927a960b91b604482015290519081900360640190fd5b61295561292982600160601b6015866002811061290e57fe5b600289810b900b600090815291016020526040902054612034565b6015846002811061293657fe5b600287810b900b6000908152910160205260409020600101549061333b565b6015836002811061296257fe5b600286810b900b6000908152910160205260409020600101555b505050565b600180600284900b0760020b1561299757600080fd5b6000806129b28360020b8660020b816129ac57fe5b0561338a565b600182810b810b600090815260208a9052604090205492945090925060ff83161b90808216900385156129e25781015b600184810b900b6000908152602089905260409020548114610ab157600184810b900b60009081526020899052604090208190555050505050505050565b60008115612a395750614000820162803fff19166107ce565b505062803fff19166000190190565b60008115612a6957600880846101000160020b901d60020b901b90506107ce565b60016008808560020b901d60020b901b03905092915050565b808204910615150190565b600080856001600160a01b031611612aa457600080fd5b6000846001600160801b031611612aba57600080fd5b81612acc57611f06858585600161339c565b611f2e858585600161347d565b612ae1613a5d565b612ae9613a99565b612b0183608001518460a001516125675760006108c9565b15612b3357505060408051608081018252600080825260208201819052918101829052606081019190915281906127f9565b608080840151600290810b900b6000908152600b60209081526040918290208251938401835280546001600160801b038082168652600160801b918290048116938601939093526001909101548083169385019390935290910416606082015260a08401518015612bb15750600081604001516001600160801b0316115b15612cc6576000612bca85600001518660600151610779565b90508082604001516001600160801b031610612c3b57612be981611ea3565b604083018051919091036001600160801b031690528451612c0990611ea3565b606083018051919091016001600160801b03169052600085526020850151612c31908261333b565b6020860152612cc0565b6000612c5883604001516001600160801b031687606001516107d4565b8651909150612c679082611fe4565b80875215612c785785516000190186525b60408301516020870151612c94916001600160801b031661333b565b6020870152612ca281611ea3565b606084018051919091016001600160801b0316905250600060408301525b50612e09565b8360a00151158015612ce1575080516001600160801b031615155b15612e0957835181516060860151612d02916001600160801b031690610779565b10612d8a576000612d1b856000015186606001516107d4565b9050612d2681611ea3565b8251036001600160801b031680835215612d4c578151600019016001600160801b031682525b8451612d5790611ea3565b60208381018051929092016001600160801b031690915260008652850151612d7f908261333b565b602086015250612e09565b6000612da782600001516001600160801b03168660600151610779565b8551909150612db69082611fe4565b80865215612dc75784516000190185525b81516020860151612de0916001600160801b031661333b565b6020860152612dee81611ea3565b602083018051919091016001600160801b0316905250600081525b9293915050565b612e18613a5d565b6000826080015160020b8360c0015160020b1415612e3b575081905060006127f9565b8251612e4c575081905060006127f9565b6000806000612e5e8660800151612185565b509250925092508560a001518015612e7957508160ff16603f145b80612e9257508560a00151158015612e92575060ff8216155b15612ec35760015b8015612eb357612ea987613560565b9097509050612e9a565b86600195509550505050506127f9565b8560a00151612ed55760018203612eda565b816001015b91508560a00151612eee5760018103612ef3565b806001015b905060008660a00151612f1a5760ff612f1488608001518960a00151612a48565b03612f30565b612f2c87608001518860a00151612a48565b60ff015b90506000612f7260078960a00151612f49576000612f4c565b60015b60ff1660028110612f5957fe5b600088810b810b815291016020526040902054856121cd565b612fb357600e8860a00151612f88576001612f8b565b60005b60ff1660028110612f9857fe5b600185810b900b600090815291016020526040902054612fb6565b60005b90506000816001600160801b03169050608082901c915060008060006130286040518060e001604052808e600001518152602001600081526020018e606001516001600160a01b031681526020018860020b81526020018781526020018681526020018e60a0015115158152506121fc565b92509250925082801561306157508b60a00151613052578560020b8c60c0015160020b1315613061565b8560020b8c60c0015160020b12155b156130fa576130a460078d60a0015161307b57600061307e565b60015b60ff166002811061308b57fe5b60008c810b810b815291016020526040902054896121cd565b508b5184820190038c5260208c0180518301905260408c018051850190526130cb866113d1565b6001600160a01b031660608d01525050505050600290810b900b608087015250849350600192506127f9915050565b61310c8c608001518d60a00151612a48565b95506131666040518060e001604052808e600001518152602001600081526020018e606001516001600160a01b031681526020018860020b815260200160008152602001600081526020018e60a0015115158152506121fc565b9194509250905082801561317a5750600085115b156131c8578b518190038c5260208c01805183019052613199866113d1565b6001600160a01b031660608d01525050505050600290810b900b608087015250849350600092506127f9915050565b60608c0180516001600160a01b031690526131e28c6122c6565b9b508b60009a509a505050505050505050506127f9565b60008060008460020b8660020b8161320d57fe5b05905060008660020b12801561323457508460020b8660020b8161322d57fe5b0760020b15155b1561323e57600019015b83156132b3576000806132508361338a565b600182810b810b600090815260208d9052604090205460ff83169190911b8001600019019081168015159750929450909250908561329557888360ff168603026132a8565b8861329f826138bd565b840360ff168603025b965050505050613331565b6000806132c28360010161338a565b91509150600060018260ff166001901b031990506000818b60008660010b60010b815260200190815260200160002054169050806000141595508561331457888360ff0360ff1686600101010261332a565b888361331f8361395d565b0360ff168660010101025b9650505050505b5094509492505050565b808201828110156107ce576040805162461bcd60e51b815260206004820152601460248201527364732d6d6174682d6164642d6f766572666c6f7760601b604482015290519081900360640190fd5b60020b600881901d9161010090910790565b6000811561340f5760006001600160a01b038411156133d2576133cd84600160601b876001600160801b0316612034565b6133ea565b6001600160801b038516606085901b816133e857fe5b045b90506134076134026001600160a01b0388168361333b565b613a47565b915050611f31565b60006001600160a01b0384111561343d5761343884600160601b876001600160801b0316611396565b613454565b613454606085901b6001600160801b038716612a82565b905080866001600160a01b03161161346b57600080fd5b6001600160a01b038616039050611f31565b60008261348b575083611f31565b600160601b600160e01b03606085901b168215613519576001600160a01b038616848102908582816134b957fe5b0414156134ea578181018281106134e8576134de83896001600160a01b031683611396565b9350505050611f31565b505b6135108261350b878a6001600160a01b0316868161350457fe5b049061333b565b612a82565b92505050611f31565b6001600160a01b0386168481029085828161353057fe5b0414801561353d57508082115b61354657600080fd5b8082036134de613402846001600160a01b038b1684611396565b613568613a5d565b6000826080015160020b8360c0015160020b141561358b575081905060006127f9565b600061359a8460800151612185565b509192505050603f6001820160000b128015906135b857508360a001515b806135d95750603e19600019820160000b138015906135d957508360a00151155b156135ed57505060008083528291506127f9565b60008460a0015161361357613fff61360d86608001518760a00151612a20565b0361362a565b61362585608001518660a00151612a20565b613fff015b905060008560a001516136405760018303613645565b826001015b9050600061367960058860a0015161365e576000613661565b60015b60ff166002811061366e57fe5b0154610af9846121c4565b6136b757600c8760a0015161368f576001613692565b60005b60ff166002811061369f57fe5b600084810b810b8152910160205260409020546136ba565b60005b90506000816001600160801b03169050608082901c9150600080600061372c6040518060e001604052808d600001518152602001600081526020018d606001516001600160a01b031681526020018960020b81526020018781526020018681526020018d60a0015115158152506121fc565b92509250925082801561376557508a60a00151613756578660020b8b60c0015160020b1315613765565b8660020b8b60c0015160020b12155b156137bf578a5184820190038b5260208b0180518301905260408b01805185019052613790876113d1565b6001600160a01b031660608c01525050505050600291820b90910b608086015250839250600191506127f99050565b6137d18b608001518c60a00151612a20565b965061382b6040518060e001604052808d600001518152602001600081526020018d606001516001600160a01b031681526020018960020b815260200160008152602001600081526020018d60a0015115158152506121fc565b9194509250905082801561383f5750600085115b1561388d578a518190038b5260208b0180518301905261385e876113d1565b6001600160a01b031660608c01525050505050600291820b90910b608086015250839250600091506127f99050565b60608b0180516001600160a01b031690526138a78b6122c6565b9a508a60009950995050505050505050506127f9565b60008082116138cb57600080fd5b600160801b82106138de57608091821c91015b6801000000000000000082106138f657604091821c91015b640100000000821061390a57602091821c91015b62010000821061391c57601091821c91015b610100821061392d57600891821c91015b6010821061393d57600491821c91015b6004821061394d57600291821c91015b60028210611eb957600101919050565b600080821161396b57600080fd5b5060ff6001600160801b0382161561398657607f190161398e565b608082901c91505b67ffffffffffffffff8216156139a757603f19016139af565b604082901c91505b63ffffffff8216156139c457601f19016139cc565b602082901c91505b61ffff8216156139df57600f19016139e7565b601082901c91505b60ff8216156139f95760071901613a01565b600882901c91505b600f821615613a135760031901613a1b565b600482901c91505b6003821615613a2d5760011901613a35565b600282901c91505b6001821615611eb95760001901919050565b806001600160a01b0381168114611eb957600080fd5b6040805160e081018252600080825260208201819052918101829052606081018290526080810182905260a0810182905260c081019190915290565b6040805160808101825260008082526020820181905291810182905260608101919091529056fea26469706673582212202f307eaaf543e4efd142e220d5cd76717882f50faf3aed97322676b74d9dc8ac64736f6c63430007060033",
			"opcodes": "PUSH1 0x80 PUSH1 0x40 MSTORE CALLVALUE DUP1 ISZERO PUSH2 0x10 JUMPI PUSH1 0x0 DUP1 REVERT JUMPDEST POP PUSH2 0x3AF6 DUP1 PUSH2 0x20 PUSH1 0x0 CODECOPY PUSH1 0x0 RETURN INVALID PUSH1 0x80 PUSH1 0x40 MSTORE CALLVALUE DUP1 ISZERO PUSH2 0x10 JUMPI PUSH1 0x0 DUP1 REVERT JUMPDEST POP PUSH1 0x4 CALLDATASIZE LT PUSH2 0xF5 JUMPI PUSH1 0x0 CALLDATALOAD PUSH1 0xE0 SHR DUP1 PUSH4 0x5A76F25E GT PUSH2 0x97 JUMPI DUP1 PUSH4 0xD21220A7 GT PUSH2 0x66 JUMPI DUP1 PUSH4 0xD21220A7 EQ PUSH2 0x2A1 JUMPI DUP1 PUSH4 0xF46C855E EQ PUSH2 0x2A9 JUMPI DUP1 PUSH4 0xF5D588DE EQ PUSH2 0x310 JUMPI DUP1 PUSH4 0xFDDA7EC5 EQ PUSH2 0x34A JUMPI PUSH2 0xF5 JUMP JUMPDEST DUP1 PUSH4 0x5A76F25E EQ PUSH2 0x1EB JUMPI DUP1 PUSH4 0x7A95FFF4 EQ PUSH2 0x1F3 JUMPI DUP1 PUSH4 0xBBEA8F6A EQ PUSH2 0x21F JUMPI DUP1 PUSH4 0xC3ACAD36 EQ PUSH2 0x24B JUMPI PUSH2 0xF5 JUMP JUMPDEST DUP1 PUSH4 0x443CB4BC GT PUSH2 0xD3 JUMPI DUP1 PUSH4 0x443CB4BC EQ PUSH2 0x18D JUMPI DUP1 PUSH4 0x47FD03D9 EQ PUSH2 0x195 JUMPI DUP1 PUSH4 0x5339C296 EQ PUSH2 0x19D JUMPI DUP1 PUSH4 0x571A4C72 EQ PUSH2 0x1BD JUMPI PUSH2 0xF5 JUMP JUMPDEST DUP1 PUSH4 0x2EA5E1F EQ PUSH2 0xFA JUMPI DUP1 PUSH4 0xDFE1681 EQ PUSH2 0x14F JUMPI DUP1 PUSH4 0x1A686502 EQ PUSH2 0x173 JUMPI JUMPDEST PUSH1 0x0 DUP1 REVERT JUMPDEST PUSH2 0x128 PUSH1 0x4 DUP1 CALLDATASIZE SUB PUSH1 0x60 DUP2 LT ISZERO PUSH2 0x110 JUMPI PUSH1 0x0 DUP1 REVERT JUMPDEST POP DUP1 CALLDATALOAD SWAP1 PUSH1 0x20 DUP2 ADD CALLDATALOAD ISZERO ISZERO SWAP1 PUSH1 0x40 ADD CALLDATALOAD PUSH1 0x2 SIGNEXTEND PUSH2 0x370 JUMP JUMPDEST PUSH1 0x40 DUP1 MLOAD SWAP4 DUP5 MSTORE PUSH1 0x20 DUP5 ADD SWAP3 SWAP1 SWAP3 MSTORE PUSH1 0x1 PUSH1 0x1 PUSH1 0xA0 SHL SUB AND DUP3 DUP3 ADD MSTORE MLOAD SWAP1 DUP2 SWAP1 SUB PUSH1 0x60 ADD SWAP1 RETURN JUMPDEST PUSH2 0x157 PUSH2 0x412 JUMP JUMPDEST PUSH1 0x40 DUP1 MLOAD PUSH1 0x1 PUSH1 0x1 PUSH1 0xA0 SHL SUB SWAP1 SWAP3 AND DUP3 MSTORE MLOAD SWAP1 DUP2 SWAP1 SUB PUSH1 0x20 ADD SWAP1 RETURN JUMPDEST PUSH2 0x17B PUSH2 0x421 JUMP JUMPDEST PUSH1 0x40 DUP1 MLOAD SWAP2 DUP3 MSTORE MLOAD SWAP1 DUP2 SWAP1 SUB PUSH1 0x20 ADD SWAP1 RETURN JUMPDEST PUSH2 0x17B PUSH2 0x427 JUMP JUMPDEST PUSH2 0x157 PUSH2 0x44D JUMP JUMPDEST PUSH2 0x17B PUSH1 0x4 DUP1 CALLDATASIZE SUB PUSH1 0x20 DUP2 LT ISZERO PUSH2 0x1B3 JUMPI PUSH1 0x0 DUP1 REVERT JUMPDEST POP CALLDATALOAD PUSH1 0x1 SIGNEXTEND PUSH2 0x45C JUMP JUMPDEST PUSH2 0x128 PUSH1 0x4 DUP1 CALLDATASIZE SUB PUSH1 0x60 DUP2 LT ISZERO PUSH2 0x1D3 JUMPI PUSH1 0x0 DUP1 REVERT JUMPDEST POP DUP1 CALLDATALOAD SWAP1 PUSH1 0x20 DUP2 ADD CALLDATALOAD ISZERO ISZERO SWAP1 PUSH1 0x40 ADD CALLDATALOAD PUSH1 0x2 SIGNEXTEND PUSH2 0x46E JUMP JUMPDEST PUSH2 0x17B PUSH2 0x759 JUMP JUMPDEST PUSH2 0x17B PUSH1 0x4 DUP1 CALLDATASIZE SUB PUSH1 0x40 DUP2 LT ISZERO PUSH2 0x209 JUMPI PUSH1 0x0 DUP1 REVERT JUMPDEST POP DUP1 CALLDATALOAD SWAP1 PUSH1 0x20 ADD CALLDATALOAD PUSH1 0x1 PUSH1 0x1 PUSH1 0xA0 SHL SUB AND PUSH2 0x779 JUMP JUMPDEST PUSH2 0x17B PUSH1 0x4 DUP1 CALLDATASIZE SUB PUSH1 0x40 DUP2 LT ISZERO PUSH2 0x235 JUMPI PUSH1 0x0 DUP1 REVERT JUMPDEST POP DUP1 CALLDATALOAD SWAP1 PUSH1 0x20 ADD CALLDATALOAD PUSH1 0x1 PUSH1 0x1 PUSH1 0xA0 SHL SUB AND PUSH2 0x7D4 JUMP JUMPDEST PUSH2 0x288 PUSH1 0x4 DUP1 CALLDATASIZE SUB PUSH1 0x80 DUP2 LT ISZERO PUSH2 0x261 JUMPI PUSH1 0x0 DUP1 REVERT JUMPDEST POP DUP1 CALLDATALOAD PUSH1 0x2 SIGNEXTEND SWAP1 PUSH1 0x1 PUSH1 0x1 PUSH1 0xA0 SHL SUB PUSH1 0x20 DUP3 ADD CALLDATALOAD AND SWAP1 PUSH1 0x40 DUP2 ADD CALLDATALOAD SWAP1 PUSH1 0x60 ADD CALLDATALOAD ISZERO ISZERO PUSH2 0x82D JUMP JUMPDEST PUSH1 0x40 DUP1 MLOAD SWAP3 DUP4 MSTORE PUSH1 0x20 DUP4 ADD SWAP2 SWAP1 SWAP2 MSTORE DUP1 MLOAD SWAP2 DUP3 SWAP1 SUB ADD SWAP1 RETURN JUMPDEST PUSH2 0x157 PUSH2 0xA51 JUMP JUMPDEST PUSH2 0x30E PUSH1 0x4 DUP1 CALLDATASIZE SUB PUSH2 0x100 DUP2 LT ISZERO PUSH2 0x2C0 JUMPI PUSH1 0x0 DUP1 REVERT JUMPDEST POP DUP1 CALLDATALOAD PUSH1 0x2 SIGNEXTEND SWAP1 PUSH1 0x1 PUSH1 0x1 PUSH1 0x80 SHL SUB PUSH1 0x20 DUP3 ADD CALLDATALOAD DUP2 AND SWAP2 PUSH1 0x40 DUP2 ADD CALLDATALOAD DUP3 AND SWAP2 PUSH1 0x60 DUP3 ADD CALLDATALOAD DUP2 AND SWAP2 PUSH1 0x80 DUP2 ADD CALLDATALOAD SWAP1 SWAP2 AND SWAP1 PUSH1 0x1 PUSH1 0x1 PUSH1 0xA0 SHL SUB PUSH1 0xA0 DUP3 ADD CALLDATALOAD AND SWAP1 PUSH1 0xC0 DUP2 ADD CALLDATALOAD SWAP1 PUSH1 0xE0 ADD CALLDATALOAD PUSH2 0xA60 JUMP JUMPDEST STOP JUMPDEST PUSH2 0x336 PUSH1 0x4 DUP1 CALLDATASIZE SUB PUSH1 0x40 DUP2 LT ISZERO PUSH2 0x326 JUMPI PUSH1 0x0 DUP1 REVERT JUMPDEST POP DUP1 CALLDATALOAD PUSH1 0x2 SIGNEXTEND SWAP1 PUSH1 0x20 ADD CALLDATALOAD PUSH2 0xABB JUMP JUMPDEST PUSH1 0x40 DUP1 MLOAD SWAP2 ISZERO ISZERO DUP3 MSTORE MLOAD SWAP1 DUP2 SWAP1 SUB PUSH1 0x20 ADD SWAP1 RETURN JUMPDEST PUSH2 0x30E PUSH1 0x4 DUP1 CALLDATASIZE SUB PUSH1 0x40 DUP2 LT ISZERO PUSH2 0x360 JUMPI PUSH1 0x0 DUP1 REVERT JUMPDEST POP DUP1 CALLDATALOAD PUSH1 0x2 SIGNEXTEND SWAP1 PUSH1 0x20 ADD CALLDATALOAD PUSH2 0xAC7 JUMP JUMPDEST PUSH1 0x2 SLOAD PUSH1 0x0 SWAP1 DUP2 SWAP1 DUP2 SWAP1 DUP2 SWAP1 PUSH2 0x38E SWAP1 PUSH1 0x1 PUSH1 0x1 PUSH1 0xA0 SHL SUB AND PUSH2 0xE5B JUMP JUMPDEST SWAP1 POP PUSH2 0x398 PUSH2 0x3A5D JUMP JUMPDEST DUP8 DUP2 MSTORE PUSH1 0x2 DUP1 SLOAD PUSH1 0x1 PUSH1 0x1 PUSH1 0xA0 SHL SUB AND PUSH1 0x60 DUP4 ADD MSTORE DUP8 ISZERO ISZERO PUSH1 0xA0 DUP4 ADD MSTORE DUP7 DUP2 SIGNEXTEND DUP2 SIGNEXTEND PUSH1 0xC0 DUP4 ADD MSTORE DUP3 DUP2 SIGNEXTEND SWAP1 SIGNEXTEND PUSH1 0x80 DUP3 ADD MSTORE PUSH2 0x3D2 DUP2 PUSH2 0x117A JUMP JUMPDEST POP POP PUSH1 0x20 DUP2 ADD MLOAD SWAP1 SWAP2 POP PUSH2 0x3F6 SWAP1 PUSH2 0x3E8 SWAP1 PUSH2 0x3F0 SWAP1 PUSH2 0x3E5 PUSH2 0x1320 JUMP JUMPDEST SWAP1 PUSH2 0x1383 JUMP JUMPDEST DUP2 PUSH1 0x40 ADD MLOAD DUP3 PUSH1 0x60 ADD MLOAD SWAP5 POP SWAP5 POP SWAP5 POP POP POP JUMPDEST SWAP4 POP SWAP4 POP SWAP4 SWAP1 POP JUMP JUMPDEST PUSH1 0x11 SLOAD PUSH1 0x1 PUSH1 0x1 PUSH1 0xA0 SHL SUB AND DUP2 JUMP JUMPDEST PUSH1 0x3 SLOAD DUP2 JUMP JUMPDEST PUSH1 0x3 SLOAD PUSH1 0x2 SLOAD PUSH1 0x0 SWAP2 PUSH2 0x448 SWAP2 PUSH1 0x1 PUSH1 0x60 SHL SWAP1 PUSH1 0x1 PUSH1 0x1 PUSH1 0xA0 SHL SUB AND PUSH2 0x1396 JUMP JUMPDEST SWAP1 POP SWAP1 JUMP JUMPDEST PUSH1 0x2 SLOAD PUSH1 0x1 PUSH1 0x1 PUSH1 0xA0 SHL SUB AND DUP2 JUMP JUMPDEST PUSH1 0x10 PUSH1 0x20 MSTORE PUSH1 0x0 SWAP1 DUP2 MSTORE PUSH1 0x40 SWAP1 KECCAK256 SLOAD DUP2 JUMP JUMPDEST PUSH1 0x0 DUP1 DUP1 DUP6 PUSH2 0x490 JUMPI POP POP PUSH1 0x2 SLOAD PUSH1 0x0 SWAP2 POP DUP2 SWAP1 PUSH1 0x1 PUSH1 0x1 PUSH1 0xA0 SHL SUB AND PUSH2 0x409 JUMP JUMPDEST PUSH1 0x2 SLOAD PUSH1 0x0 SWAP1 PUSH2 0x4A8 SWAP1 PUSH1 0x1 PUSH1 0x1 PUSH1 0xA0 SHL SUB AND PUSH2 0xE5B JUMP JUMPDEST PUSH1 0x2 SLOAD PUSH1 0x1 PUSH1 0x1 PUSH1 0xA0 SHL SUB AND SWAP3 POP SWAP1 POP PUSH2 0x4C0 PUSH2 0x3A5D JUMP JUMPDEST DUP8 DUP2 MSTORE PUSH1 0x2 DUP1 SLOAD PUSH1 0x1 PUSH1 0x1 PUSH1 0xA0 SHL SUB AND PUSH1 0x60 DUP4 ADD MSTORE DUP8 ISZERO ISZERO PUSH1 0xA0 DUP4 ADD MSTORE DUP7 DUP2 SIGNEXTEND DUP2 SIGNEXTEND PUSH1 0xC0 DUP4 ADD MSTORE DUP3 DUP2 SIGNEXTEND SWAP1 SIGNEXTEND PUSH1 0x80 DUP3 ADD MSTORE PUSH2 0x4F9 PUSH2 0x3A99 JUMP JUMPDEST PUSH1 0x0 PUSH2 0x504 DUP4 PUSH2 0x117A JUMP JUMPDEST PUSH1 0x60 DUP4 ADD MLOAD PUSH1 0x80 DUP5 ADD MLOAD SWAP4 SWAP7 POP SWAP2 SWAP5 POP SWAP3 POP PUSH1 0x1 PUSH1 0x1 PUSH1 0xA0 SHL SUB AND SWAP1 PUSH2 0x529 SWAP1 PUSH2 0x13D1 JUMP JUMPDEST PUSH1 0x1 PUSH1 0x1 PUSH1 0xA0 SHL SUB AND EQ DUP1 ISZERO PUSH2 0x53C JUMPI POP DUP1 JUMPDEST ISZERO PUSH2 0x557 JUMPI PUSH2 0x557 DUP4 PUSH1 0x80 ADD MLOAD DUP4 DUP6 PUSH1 0x60 ADD MLOAD PUSH1 0x0 DUP1 PUSH2 0x1703 JUMP JUMPDEST DUP9 ISZERO PUSH2 0x587 JUMPI DUP4 PUSH1 0x2 SIGNEXTEND DUP4 PUSH1 0x80 ADD MLOAD PUSH1 0x2 SIGNEXTEND SGT ISZERO PUSH2 0x582 JUMPI PUSH2 0x582 DUP5 PUSH1 0x1 DUP6 PUSH1 0x80 ADD MLOAD SUB PUSH1 0x0 PUSH2 0x1B30 JUMP JUMPDEST PUSH2 0x5AC JUMP JUMPDEST DUP4 PUSH1 0x2 SIGNEXTEND DUP4 PUSH1 0x80 ADD MLOAD PUSH1 0x2 SIGNEXTEND SLT ISZERO PUSH2 0x5AC JUMPI PUSH2 0x5AC DUP4 PUSH1 0x80 ADD MLOAD PUSH1 0x1 ADD DUP6 PUSH1 0x1 PUSH2 0x1B30 JUMP JUMPDEST PUSH1 0x60 DUP4 ADD MLOAD PUSH1 0x2 DUP1 SLOAD PUSH1 0x1 PUSH1 0x1 PUSH1 0xA0 SHL SUB NOT AND PUSH1 0x1 PUSH1 0x1 PUSH1 0xA0 SHL SUB SWAP1 SWAP3 AND SWAP2 SWAP1 SWAP2 OR SWAP1 SSTORE DUP9 PUSH2 0x5F5 JUMPI PUSH2 0x5F0 DUP6 DUP5 PUSH1 0x60 ADD MLOAD PUSH2 0x5E9 PUSH1 0x3 SLOAD PUSH2 0x1EA3 JUMP JUMPDEST PUSH1 0x1 PUSH2 0x1EBE JUMP JUMPDEST PUSH2 0x610 JUMP JUMPDEST PUSH2 0x610 DUP6 DUP5 PUSH1 0x60 ADD MLOAD PUSH2 0x609 PUSH1 0x3 SLOAD PUSH2 0x1EA3 JUMP JUMPDEST PUSH1 0x1 PUSH2 0x1F39 JUMP JUMPDEST SWAP6 POP DUP6 DUP4 PUSH1 0x20 ADD MLOAD GT ISZERO PUSH2 0x63B JUMPI DUP6 DUP4 PUSH1 0x20 ADD MLOAD SUB SWAP6 POP PUSH2 0x3E8 DUP7 LT ISZERO PUSH2 0x636 JUMPI PUSH1 0x0 SWAP6 POP JUMPDEST PUSH2 0x693 JUMP JUMPDEST DUP6 PUSH2 0x3E8 DUP5 PUSH1 0x20 ADD MLOAD ADD GT ISZERO PUSH2 0x654 JUMPI PUSH1 0x0 SWAP6 POP PUSH2 0x693 JUMP JUMPDEST PUSH1 0x40 DUP1 MLOAD PUSH3 0x461BCD PUSH1 0xE5 SHL DUP2 MSTORE PUSH1 0x20 PUSH1 0x4 DUP3 ADD MSTORE PUSH1 0xF PUSH1 0x24 DUP3 ADD MSTORE PUSH15 0x1D1BDB195C985B9D08195E18D95959 PUSH1 0x8A SHL PUSH1 0x44 DUP3 ADD MSTORE SWAP1 MLOAD SWAP1 DUP2 SWAP1 SUB PUSH1 0x64 ADD SWAP1 REVERT JUMPDEST PUSH1 0x40 DUP4 ADD MLOAD ISZERO PUSH2 0x73B JUMPI DUP9 ISZERO PUSH2 0x6E7 JUMPI PUSH1 0x4 SLOAD PUSH2 0x3E8 SWAP1 PUSH2 0x6B7 SWAP1 PUSH1 0x80 SHR DUP9 PUSH2 0x1FE4 JUMP JUMPDEST LT PUSH2 0x6D2 JUMPI PUSH1 0x4 SLOAD PUSH2 0x6CD SWAP1 PUSH1 0x80 DUP9 SWAP1 SHL PUSH2 0x1FE4 JUMP JUMPDEST PUSH2 0x6DF JUMP JUMPDEST PUSH1 0x4 SLOAD PUSH1 0x1 PUSH1 0x1 PUSH1 0x80 SHL SUB AND JUMPDEST PUSH1 0x4 SSTORE PUSH2 0x73B JUMP JUMPDEST PUSH1 0x4 SLOAD PUSH2 0x3E8 SWAP1 PUSH2 0x701 SWAP1 PUSH1 0x1 PUSH1 0x1 PUSH1 0x80 SHL SUB AND DUP9 PUSH2 0x1FE4 JUMP JUMPDEST LT PUSH2 0x729 JUMPI PUSH2 0x724 PUSH2 0x712 DUP8 PUSH2 0x1EA3 JUMP JUMPDEST PUSH1 0x4 SLOAD SWAP1 PUSH1 0x1 PUSH1 0x1 PUSH1 0x80 SHL SUB AND PUSH2 0x1FE4 JUMP JUMPDEST PUSH2 0x737 JUMP JUMPDEST PUSH1 0x4 SLOAD PUSH1 0x1 PUSH1 0x1 PUSH1 0x80 SHL SUB NOT AND JUMPDEST PUSH1 0x4 SSTORE JUMPDEST POP POP DUP1 MLOAD PUSH1 0x20 DUP3 ADD MLOAD PUSH1 0x60 SWAP1 SWAP3 ADD MLOAD SWAP1 SWAP10 SWAP2 SWAP9 POP SWAP7 POP SWAP5 POP POP POP POP POP JUMP JUMPDEST PUSH1 0x3 SLOAD PUSH1 0x2 SLOAD PUSH1 0x0 SWAP2 PUSH2 0x448 SWAP2 PUSH1 0x1 PUSH1 0x1 PUSH1 0xA0 SHL SUB AND PUSH1 0x1 PUSH1 0x60 SHL PUSH2 0x1396 JUMP JUMPDEST PUSH1 0x0 PUSH1 0x1 PUSH1 0x1 PUSH1 0xA0 SHL SUB DUP3 AND ISZERO DUP1 PUSH2 0x78F JUMPI POP DUP3 ISZERO JUMPDEST ISZERO PUSH2 0x79C JUMPI POP PUSH1 0x0 PUSH2 0x7CE JUMP JUMPDEST PUSH2 0x7CB PUSH2 0x7B7 DUP5 PUSH1 0x1 PUSH1 0x60 SHL DUP6 PUSH1 0x1 PUSH1 0x1 PUSH1 0xA0 SHL SUB AND PUSH2 0x2034 JUMP JUMPDEST PUSH1 0x1 PUSH1 0x60 SHL DUP5 PUSH1 0x1 PUSH1 0x1 PUSH1 0xA0 SHL SUB AND PUSH2 0x2034 JUMP JUMPDEST SWAP1 POP JUMPDEST SWAP3 SWAP2 POP POP JUMP JUMPDEST PUSH1 0x0 PUSH1 0x1 PUSH1 0x1 PUSH1 0xA0 SHL SUB DUP3 AND ISZERO DUP1 PUSH2 0x7EA JUMPI POP DUP3 ISZERO JUMPDEST ISZERO PUSH2 0x7F7 JUMPI POP PUSH1 0x0 PUSH2 0x7CE JUMP JUMPDEST PUSH1 0x60 PUSH2 0x819 PUSH1 0x1 PUSH1 0x1 PUSH1 0xA0 SHL SUB DUP5 AND DUP3 PUSH2 0x811 DUP8 DUP4 PUSH2 0x1320 JUMP JUMPDEST SWAP1 SHR SWAP1 PUSH2 0x1320 JUMP JUMPDEST SWAP1 SHR SWAP1 POP DUP1 ISZERO PUSH2 0x7CE JUMPI PUSH1 0x0 NOT ADD SWAP3 SWAP2 POP POP JUMP JUMPDEST PUSH1 0x0 DUP1 PUSH1 0x0 PUSH1 0x13 DUP5 PUSH2 0x840 JUMPI PUSH1 0x0 PUSH2 0x843 JUMP JUMPDEST PUSH1 0x1 JUMPDEST PUSH1 0xFF AND PUSH1 0x2 DUP2 LT PUSH2 0x850 JUMPI INVALID JUMPDEST PUSH1 0x1 PUSH1 0x1 PUSH1 0xA0 SHL SUB DUP9 AND PUSH1 0x0 SWAP1 DUP2 MSTORE SWAP2 ADD PUSH1 0x20 SWAP1 DUP2 MSTORE PUSH1 0x40 DUP1 DUP4 KECCAK256 PUSH1 0x2 DUP12 DUP2 SIGNEXTEND DUP2 SIGNEXTEND DUP6 MSTORE SWAP1 DUP4 MSTORE DUP2 DUP5 KECCAK256 DUP3 MLOAD PUSH1 0x80 DUP2 ADD DUP5 MSTORE DUP2 SLOAD DUP2 MSTORE PUSH1 0x1 DUP3 ADD SLOAD SWAP5 DUP2 ADD SWAP5 SWAP1 SWAP5 MSTORE SWAP1 DUP2 ADD SLOAD SWAP2 DUP4 ADD SWAP2 SWAP1 SWAP2 MSTORE PUSH1 0x3 ADD SLOAD PUSH1 0x60 DUP3 ADD MSTORE SWAP2 POP PUSH2 0x8B1 DUP9 PUSH2 0x13D1 JUMP JUMPDEST SWAP1 POP PUSH1 0x0 DUP1 PUSH2 0x8D1 DUP11 DUP9 PUSH2 0x8C6 JUMPI PUSH1 0x1 PUSH2 0x8C9 JUMP JUMPDEST PUSH1 0x0 JUMPDEST PUSH1 0xFF AND PUSH2 0x20E3 JUMP JUMPDEST DUP1 PUSH2 0x918 JUMPI POP DUP4 PUSH1 0x60 ADD MLOAD PUSH1 0x15 DUP9 PUSH2 0x8EA JUMPI PUSH1 0x0 PUSH2 0x8ED JUMP JUMPDEST PUSH1 0x1 JUMPDEST PUSH1 0xFF AND PUSH1 0x2 DUP2 LT PUSH2 0x8FA JUMPI INVALID JUMPDEST ADD PUSH1 0x0 DUP13 PUSH1 0x2 SIGNEXTEND PUSH1 0x2 SIGNEXTEND DUP2 MSTORE PUSH1 0x20 ADD SWAP1 DUP2 MSTORE PUSH1 0x20 ADD PUSH1 0x0 KECCAK256 PUSH1 0x2 ADD SLOAD GT JUMPDEST ISZERO PUSH2 0x94A JUMPI DUP7 PUSH2 0x935 JUMPI PUSH2 0x930 DUP5 PUSH1 0x40 ADD MLOAD DUP5 PUSH2 0x779 JUMP JUMPDEST PUSH2 0x943 JUMP JUMPDEST PUSH2 0x943 DUP5 PUSH1 0x40 ADD MLOAD DUP5 PUSH2 0x7D4 JUMP JUMPDEST SWAP2 POP PUSH2 0x9E6 JUMP JUMPDEST DUP4 MLOAD PUSH2 0x991 SWAP1 PUSH1 0x15 DUP10 PUSH2 0x95E JUMPI PUSH1 0x0 PUSH2 0x961 JUMP JUMPDEST PUSH1 0x1 JUMPDEST PUSH1 0xFF AND PUSH1 0x2 DUP2 LT PUSH2 0x96E JUMPI INVALID JUMPDEST PUSH1 0x2 DUP15 DUP2 SIGNEXTEND SWAP1 SIGNEXTEND PUSH1 0x0 SWAP1 DUP2 MSTORE SWAP2 ADD PUSH1 0x20 MSTORE PUSH1 0x40 SWAP1 KECCAK256 PUSH1 0x1 ADD SLOAD PUSH1 0x1 PUSH1 0x60 SHL PUSH2 0x2034 JUMP JUMPDEST SWAP2 POP DUP4 PUSH1 0x20 ADD MLOAD DUP3 GT PUSH2 0x9A5 JUMPI PUSH1 0x0 PUSH2 0x9B5 JUMP JUMPDEST PUSH1 0x20 DUP5 ADD MLOAD PUSH2 0x9B5 SWAP1 DUP4 SWAP1 PUSH2 0x1FE4 JUMP JUMPDEST SWAP2 POP PUSH2 0x9E3 DUP8 PUSH2 0x9CE JUMPI PUSH2 0x9C9 DUP4 DUP6 PUSH2 0x7D4 JUMP JUMPDEST PUSH2 0x9D8 JUMP JUMPDEST PUSH2 0x9D8 DUP4 DUP6 PUSH2 0x779 JUMP JUMPDEST PUSH1 0x40 DUP7 ADD MLOAD SWAP1 PUSH2 0x1FE4 JUMP JUMPDEST SWAP1 POP JUMPDEST PUSH2 0x9F4 DUP9 DUP6 PUSH1 0x0 ADD MLOAD PUSH2 0x216F JUMP JUMPDEST DUP5 MLOAD SWAP1 SWAP9 POP PUSH2 0xA0D JUMPI PUSH1 0x0 DUP1 SWAP6 POP SWAP6 POP POP POP POP POP PUSH2 0xA48 JUMP JUMPDEST PUSH2 0xA1C DUP9 DUP3 DUP7 PUSH1 0x0 ADD MLOAD PUSH2 0x2034 JUMP JUMPDEST SWAP1 POP PUSH2 0xA2D DUP9 DUP4 DUP7 PUSH1 0x0 ADD MLOAD PUSH2 0x2034 JUMP JUMPDEST SWAP2 POP DUP7 PUSH2 0xA3B JUMPI DUP2 DUP2 PUSH2 0xA3E JUMP JUMPDEST DUP1 DUP3 JUMPDEST SWAP1 SWAP7 POP SWAP5 POP POP POP POP POP JUMPDEST SWAP5 POP SWAP5 SWAP3 POP POP POP JUMP JUMPDEST PUSH1 0x12 SLOAD PUSH1 0x1 PUSH1 0x1 PUSH1 0xA0 SHL SUB AND DUP2 JUMP JUMPDEST PUSH2 0xAB1 DUP9 PUSH1 0x40 MLOAD DUP1 PUSH1 0x80 ADD PUSH1 0x40 MSTORE DUP1 DUP11 PUSH1 0x1 PUSH1 0x1 PUSH1 0x80 SHL SUB AND DUP2 MSTORE PUSH1 0x20 ADD DUP10 PUSH1 0x1 PUSH1 0x1 PUSH1 0x80 SHL SUB AND DUP2 MSTORE PUSH1 0x20 ADD DUP9 PUSH1 0x1 PUSH1 0x1 PUSH1 0x80 SHL SUB AND DUP2 MSTORE PUSH1 0x20 ADD DUP8 PUSH1 0x1 PUSH1 0x1 PUSH1 0x80 SHL SUB AND DUP2 MSTORE POP DUP6 DUP6 DUP6 PUSH2 0x1703 JUMP JUMPDEST POP POP POP POP POP POP POP POP JUMP JUMPDEST PUSH1 0x0 PUSH2 0x7CB DUP4 DUP4 PUSH2 0x20E3 JUMP JUMPDEST PUSH1 0x0 DUP1 PUSH1 0x0 DUP1 PUSH2 0xAD6 DUP7 PUSH2 0x2185 JUMP JUMPDEST SWAP4 POP SWAP4 POP SWAP4 POP SWAP4 POP PUSH2 0xAFE PUSH1 0x5 DUP7 PUSH1 0x2 DUP2 LT PUSH2 0xAEE JUMPI INVALID JUMPDEST ADD SLOAD PUSH2 0xAF9 DUP7 PUSH2 0x21C4 JUMP JUMPDEST PUSH2 0x21CD JUMP JUMPDEST ISZERO PUSH2 0xBBF JUMPI PUSH2 0xB25 PUSH1 0x5 DUP7 PUSH1 0x2 DUP2 LT PUSH2 0xB13 JUMPI INVALID JUMPDEST ADD SLOAD PUSH2 0xB1E DUP7 PUSH2 0x21C4 JUMP JUMPDEST PUSH1 0x0 PUSH2 0x21DB JUMP JUMPDEST PUSH1 0x5 DUP7 PUSH1 0x2 DUP2 LT PUSH2 0xB32 JUMPI INVALID JUMPDEST ADD SSTORE PUSH2 0xB42 PUSH1 0x0 NOT DUP5 PUSH1 0x0 PUSH2 0x21DB JUMP JUMPDEST PUSH1 0x7 DUP7 PUSH1 0x2 DUP2 LT PUSH2 0xB4F JUMPI INVALID JUMPDEST PUSH1 0x0 DUP8 DUP2 SIGNEXTEND DUP2 SIGNEXTEND DUP2 MSTORE SWAP2 ADD PUSH1 0x20 MSTORE PUSH1 0x40 DUP2 KECCAK256 SWAP2 SWAP1 SWAP2 SSTORE PUSH2 0xB74 SWAP1 PUSH1 0x0 NOT SWAP1 DUP4 SWAP1 PUSH2 0x21DB JUMP JUMPDEST PUSH1 0x9 DUP7 PUSH1 0x2 DUP2 LT PUSH2 0xB81 JUMPI INVALID JUMPDEST PUSH1 0x1 DUP6 DUP2 SIGNEXTEND SWAP1 SIGNEXTEND PUSH1 0x0 SWAP1 DUP2 MSTORE SWAP2 ADD PUSH1 0x20 MSTORE PUSH1 0x40 DUP2 KECCAK256 SWAP2 SWAP1 SWAP2 SSTORE PUSH1 0xC DUP7 PUSH1 0x2 DUP2 LT PUSH2 0xBA7 JUMPI INVALID JUMPDEST PUSH1 0x0 DUP8 DUP2 SIGNEXTEND DUP2 SIGNEXTEND DUP2 MSTORE SWAP2 ADD PUSH1 0x20 MSTORE PUSH1 0x40 SWAP1 KECCAK256 SSTORE PUSH2 0xE53 JUMP JUMPDEST PUSH2 0xBE8 PUSH1 0x7 DUP7 PUSH1 0x2 DUP2 LT PUSH2 0xBCF JUMPI INVALID JUMPDEST PUSH1 0x0 DUP8 DUP2 SIGNEXTEND DUP2 SIGNEXTEND DUP2 MSTORE SWAP2 ADD PUSH1 0x20 MSTORE PUSH1 0x40 SWAP1 KECCAK256 SLOAD DUP5 PUSH2 0x21CD JUMP JUMPDEST ISZERO PUSH2 0xCE0 JUMPI PUSH2 0xC18 PUSH1 0x7 DUP7 PUSH1 0x2 DUP2 LT PUSH2 0xBFD JUMPI INVALID JUMPDEST PUSH1 0x0 DUP8 DUP2 SIGNEXTEND DUP2 SIGNEXTEND DUP2 MSTORE SWAP2 ADD PUSH1 0x20 MSTORE PUSH1 0x40 DUP2 KECCAK256 SLOAD SWAP1 DUP6 SWAP1 PUSH2 0x21DB JUMP JUMPDEST PUSH1 0x7 DUP7 PUSH1 0x2 DUP2 LT PUSH2 0xC25 JUMPI INVALID JUMPDEST PUSH1 0x0 DUP8 DUP2 SIGNEXTEND DUP2 SIGNEXTEND DUP2 MSTORE SWAP2 ADD PUSH1 0x20 MSTORE PUSH1 0x40 DUP2 KECCAK256 SWAP2 SWAP1 SWAP2 SSTORE PUSH2 0xC4A SWAP1 PUSH1 0x0 NOT SWAP1 DUP4 SWAP1 PUSH2 0x21DB JUMP JUMPDEST PUSH1 0x9 DUP7 PUSH1 0x2 DUP2 LT PUSH2 0xC57 JUMPI INVALID JUMPDEST PUSH1 0x1 DUP6 DUP2 SIGNEXTEND SWAP1 SIGNEXTEND PUSH1 0x0 SWAP1 DUP2 MSTORE SWAP2 ADD PUSH1 0x20 MSTORE PUSH1 0x40 SWAP1 KECCAK256 SSTORE PUSH1 0xE DUP6 PUSH1 0x2 DUP2 LT PUSH2 0xC7A JUMPI INVALID JUMPDEST PUSH1 0x1 DUP5 DUP2 SIGNEXTEND SWAP1 SIGNEXTEND PUSH1 0x0 SWAP1 DUP2 MSTORE SWAP2 ADD PUSH1 0x20 MSTORE PUSH1 0x40 SWAP1 KECCAK256 SLOAD PUSH1 0xC DUP7 PUSH1 0x2 DUP2 LT PUSH2 0xC9D JUMPI INVALID JUMPDEST PUSH1 0x0 DUP8 DUP2 SIGNEXTEND DUP2 SIGNEXTEND DUP2 MSTORE SWAP2 ADD PUSH1 0x20 MSTORE PUSH1 0x40 DUP2 KECCAK256 DUP1 SLOAD SWAP3 SWAP1 SWAP3 SUB SWAP1 SWAP2 SSTORE PUSH1 0xE DUP7 PUSH1 0x2 DUP2 LT PUSH2 0xCC5 JUMPI INVALID JUMPDEST PUSH1 0x1 DUP6 DUP2 SIGNEXTEND SWAP1 SIGNEXTEND PUSH1 0x0 SWAP1 DUP2 MSTORE SWAP2 ADD PUSH1 0x20 MSTORE PUSH1 0x40 SWAP1 KECCAK256 SSTORE PUSH2 0xE53 JUMP JUMPDEST PUSH2 0xD0C PUSH1 0x9 DUP7 PUSH1 0x2 DUP2 LT PUSH2 0xCF0 JUMPI INVALID JUMPDEST PUSH1 0x1 DUP6 DUP2 SIGNEXTEND SWAP1 SIGNEXTEND PUSH1 0x0 SWAP1 DUP2 MSTORE SWAP2 ADD PUSH1 0x20 MSTORE PUSH1 0x40 SWAP1 KECCAK256 SLOAD DUP3 PUSH2 0x21CD JUMP JUMPDEST ISZERO PUSH2 0xE53 JUMPI PUSH2 0xD42 PUSH1 0x9 DUP7 PUSH1 0x2 DUP2 LT PUSH2 0xD21 JUMPI INVALID JUMPDEST ADD PUSH1 0x0 DUP5 PUSH1 0x1 SIGNEXTEND PUSH1 0x1 SIGNEXTEND DUP2 MSTORE PUSH1 0x20 ADD SWAP1 DUP2 MSTORE PUSH1 0x20 ADD PUSH1 0x0 KECCAK256 SLOAD DUP3 PUSH1 0x0 PUSH2 0x21DB JUMP JUMPDEST PUSH1 0x9 DUP7 PUSH1 0x2 DUP2 LT PUSH2 0xD4F JUMPI INVALID JUMPDEST PUSH1 0x1 DUP6 DUP2 SIGNEXTEND SWAP1 SIGNEXTEND PUSH1 0x0 SWAP1 DUP2 MSTORE SWAP2 ADD PUSH1 0x20 MSTORE PUSH1 0x40 DUP2 KECCAK256 SWAP2 SWAP1 SWAP2 SSTORE DUP6 PUSH2 0xD94 JUMPI PUSH1 0x2 DUP8 DUP2 SIGNEXTEND SWAP1 SIGNEXTEND PUSH1 0x0 SWAP1 DUP2 MSTORE PUSH1 0xB PUSH1 0x20 MSTORE PUSH1 0x40 SWAP1 KECCAK256 PUSH1 0x1 ADD SLOAD PUSH1 0x1 PUSH1 0x1 PUSH1 0x80 SHL SUB AND PUSH2 0xDB4 JUMP JUMPDEST PUSH1 0x2 DUP8 DUP2 SIGNEXTEND SWAP1 SIGNEXTEND PUSH1 0x0 SWAP1 DUP2 MSTORE PUSH1 0xB PUSH1 0x20 MSTORE PUSH1 0x40 SWAP1 KECCAK256 SLOAD PUSH1 0x1 PUSH1 0x1 PUSH1 0x80 SHL SUB AND JUMPDEST PUSH1 0x1 PUSH1 0x1 PUSH1 0x80 SHL SUB AND SWAP1 POP PUSH1 0x0 DUP1 DUP8 GT PUSH2 0xDDF JUMPI PUSH2 0xDDA DUP3 PUSH2 0xDD5 DUP11 PUSH2 0x13D1 JUMP JUMPDEST PUSH2 0x7D4 JUMP JUMPDEST PUSH2 0xDF1 JUMP JUMPDEST PUSH2 0xDF1 DUP3 PUSH2 0xDEC DUP11 PUSH2 0x13D1 JUMP JUMPDEST PUSH2 0x779 JUMP JUMPDEST SWAP1 POP DUP1 PUSH1 0x80 DUP4 SWAP1 SHL ADD PUSH1 0xC DUP9 PUSH1 0x2 DUP2 LT PUSH2 0xE07 JUMPI INVALID JUMPDEST PUSH1 0x0 DUP10 DUP2 SIGNEXTEND DUP2 SIGNEXTEND DUP2 MSTORE SWAP2 ADD PUSH1 0x20 MSTORE PUSH1 0x40 SWAP1 KECCAK256 DUP1 SLOAD SWAP2 SWAP1 SWAP2 SUB SWAP1 SSTORE PUSH1 0x80 DUP3 SWAP1 SHL DUP2 ADD PUSH1 0xE DUP9 PUSH1 0x2 DUP2 LT PUSH2 0xE35 JUMPI INVALID JUMPDEST PUSH1 0x0 DUP10 DUP2 SIGNEXTEND PUSH1 0x1 SIGNEXTEND DUP2 MSTORE SWAP2 ADD PUSH1 0x20 MSTORE PUSH1 0x40 SWAP1 KECCAK256 DUP1 SLOAD SWAP2 SWAP1 SWAP2 SUB SWAP1 SSTORE POP POP JUMPDEST POP POP POP POP POP POP JUMP JUMPDEST PUSH1 0x0 PUSH5 0x1000276A3 PUSH1 0x1 PUSH1 0x1 PUSH1 0xA0 SHL SUB DUP4 AND LT DUP1 ISZERO SWAP1 PUSH2 0xE97 JUMPI POP PUSH20 0xFFFD8963EFD1FC6A506488495D951D5263988D26 PUSH1 0x1 PUSH1 0x1 PUSH1 0xA0 SHL SUB DUP4 AND LT JUMPDEST PUSH2 0xECC JUMPI PUSH1 0x40 DUP1 MLOAD PUSH3 0x461BCD PUSH1 0xE5 SHL DUP2 MSTORE PUSH1 0x20 PUSH1 0x4 DUP3 ADD MSTORE PUSH1 0x1 PUSH1 0x24 DUP3 ADD MSTORE PUSH1 0x29 PUSH1 0xF9 SHL PUSH1 0x44 DUP3 ADD MSTORE SWAP1 MLOAD SWAP1 DUP2 SWAP1 SUB PUSH1 0x64 ADD SWAP1 REVERT JUMPDEST PUSH5 0x100000000 PUSH1 0x1 PUSH1 0xC0 SHL SUB PUSH1 0x20 DUP4 SWAP1 SHL AND PUSH1 0x1 PUSH1 0x1 PUSH1 0x80 SHL SUB DUP2 GT PUSH1 0x7 SHL DUP2 DUP2 SHR PUSH8 0xFFFFFFFFFFFFFFFF DUP2 GT PUSH1 0x6 SHL SWAP1 DUP2 SHR PUSH4 0xFFFFFFFF DUP2 GT PUSH1 0x5 SHL SWAP1 DUP2 SHR PUSH2 0xFFFF DUP2 GT PUSH1 0x4 SHL SWAP1 DUP2 SHR PUSH1 0xFF DUP2 GT PUSH1 0x3 SWAP1 DUP2 SHL SWAP2 DUP3 SHR PUSH1 0xF DUP2 GT PUSH1 0x2 SHL SWAP1 DUP2 SHR SWAP2 DUP3 GT PUSH1 0x1 SWAP1 DUP2 SHL SWAP3 DUP4 SHR SWAP8 SWAP1 DUP9 GT SWAP7 OR SWAP1 SWAP5 OR SWAP1 SWAP3 OR OR SWAP1 SWAP2 OR OR OR PUSH1 0x80 DUP2 LT PUSH2 0xF60 JUMPI PUSH1 0x7F DUP2 SUB DUP4 SWAP1 SHR SWAP2 POP PUSH2 0xF6A JUMP JUMPDEST DUP1 PUSH1 0x7F SUB DUP4 SWAP1 SHL SWAP2 POP JUMPDEST SWAP1 DUP1 MUL PUSH1 0x7F DUP2 DUP2 SHR PUSH1 0xFF DUP4 DUP2 SHR SWAP2 SWAP1 SWAP2 SHR DUP1 MUL DUP1 DUP4 SHR DUP2 DUP4 SHR SHR DUP1 MUL DUP1 DUP5 SHR DUP2 DUP5 SHR SHR DUP1 MUL DUP1 DUP6 SHR DUP2 DUP6 SHR SHR DUP1 MUL DUP1 DUP7 SHR DUP2 DUP7 SHR SHR DUP1 MUL DUP1 DUP8 SHR DUP2 DUP8 SHR SHR DUP1 MUL DUP1 DUP9 SHR DUP2 DUP9 SHR SHR DUP1 MUL DUP1 DUP10 SHR DUP2 DUP10 SHR SHR DUP1 MUL DUP1 DUP11 SHR DUP2 DUP11 SHR SHR DUP1 MUL DUP1 DUP12 SHR DUP2 DUP12 SHR SHR DUP1 MUL DUP1 DUP13 SHR DUP2 DUP13 SHR SHR DUP1 MUL DUP1 DUP14 SHR DUP2 DUP14 SHR SHR DUP1 MUL DUP1 DUP15 SHR SWAP13 DUP2 SWAP1 SHR SWAP13 SWAP1 SWAP13 SHR DUP1 MUL SWAP13 DUP14 SWAP1 SHR SWAP15 SWAP14 PUSH1 0x7F NOT DUP16 ADD PUSH1 0x40 SHL PUSH1 0xC0 SWAP2 SWAP1 SWAP2 SHR PUSH8 0x8000000000000000 AND OR PUSH1 0xC1 SWAP12 SWAP1 SWAP12 SHR PUSH8 0x4000000000000000 AND SWAP11 SWAP1 SWAP11 OR PUSH1 0xC2 SWAP10 SWAP1 SWAP10 SHR PUSH8 0x2000000000000000 AND SWAP9 SWAP1 SWAP9 OR PUSH1 0xC3 SWAP8 SWAP1 SWAP8 SHR PUSH8 0x1000000000000000 AND SWAP7 SWAP1 SWAP7 OR PUSH1 0xC4 SWAP6 SWAP1 SWAP6 SHR PUSH8 0x800000000000000 AND SWAP5 SWAP1 SWAP5 OR PUSH1 0xC5 SWAP4 SWAP1 SWAP4 SHR PUSH8 0x400000000000000 AND SWAP3 SWAP1 SWAP3 OR PUSH1 0xC6 SWAP2 SWAP1 SWAP2 SHR PUSH8 0x200000000000000 AND OR PUSH1 0xC7 SWAP2 SWAP1 SWAP2 SHR PUSH8 0x100000000000000 AND OR PUSH1 0xC8 SWAP2 SWAP1 SWAP2 SHR PUSH7 0x80000000000000 AND OR PUSH1 0xC9 SWAP2 SWAP1 SWAP2 SHR PUSH7 0x40000000000000 AND OR PUSH1 0xCA SWAP2 SWAP1 SWAP2 SHR PUSH7 0x20000000000000 AND OR PUSH1 0xCB SWAP2 SWAP1 SWAP2 SHR PUSH7 0x10000000000000 AND OR PUSH1 0xCC SWAP2 SWAP1 SWAP2 SHR PUSH7 0x8000000000000 AND OR PUSH1 0xCD SWAP2 SWAP1 SWAP2 SHR PUSH7 0x4000000000000 AND OR PUSH10 0x3627A301D71055774C85 DUP2 MUL PUSH16 0x28F6481AB7F045A5AF012A19D003AA9 NOT DUP2 ADD PUSH1 0x80 SWAP1 DUP2 SAR SWAP1 PUSH16 0xDB2DF09E81959A81455E260799A0632F DUP4 ADD SWAP1 SAR PUSH1 0x2 DUP2 DUP2 SIGNEXTEND SWAP1 DUP4 SWAP1 SIGNEXTEND EQ PUSH2 0x116B JUMPI DUP9 PUSH1 0x1 PUSH1 0x1 PUSH1 0xA0 SHL SUB AND PUSH2 0x114F DUP3 PUSH2 0x13D1 JUMP JUMPDEST PUSH1 0x1 PUSH1 0x1 PUSH1 0xA0 SHL SUB AND GT ISZERO PUSH2 0x1164 JUMPI DUP2 PUSH2 0x1166 JUMP JUMPDEST DUP1 JUMPDEST PUSH2 0x116D JUMP JUMPDEST DUP2 JUMPDEST SWAP10 SWAP9 POP POP POP POP POP POP POP POP POP JUMP JUMPDEST PUSH2 0x1182 PUSH2 0x3A5D JUMP JUMPDEST PUSH2 0x118A PUSH2 0x3A99 JUMP JUMPDEST DUP3 MLOAD PUSH1 0x0 SWAP1 PUSH2 0x11C1 JUMPI POP POP PUSH1 0x40 DUP1 MLOAD PUSH1 0x80 DUP2 ADD DUP3 MSTORE PUSH1 0x0 DUP1 DUP3 MSTORE PUSH1 0x20 DUP3 ADD DUP2 SWAP1 MSTORE SWAP2 DUP2 ADD DUP3 SWAP1 MSTORE PUSH1 0x60 DUP2 ADD DUP3 SWAP1 MSTORE DUP4 SWAP3 POP SWAP1 PUSH2 0x1319 JUMP JUMPDEST DUP4 PUSH1 0x60 ADD MLOAD PUSH1 0x1 PUSH1 0x1 PUSH1 0xA0 SHL SUB AND PUSH2 0x11DC DUP6 PUSH1 0x80 ADD MLOAD PUSH2 0x13D1 JUMP JUMPDEST PUSH1 0x1 PUSH1 0x1 PUSH1 0xA0 SHL SUB AND EQ PUSH2 0x12FA JUMPI PUSH1 0x0 DUP5 PUSH1 0xA0 ADD MLOAD PUSH2 0x11FF JUMPI DUP5 PUSH1 0x80 ADD MLOAD PUSH2 0x1208 JUMP JUMPDEST DUP5 PUSH1 0x80 ADD MLOAD PUSH1 0x1 ADD JUMPDEST SWAP1 POP PUSH1 0x0 DUP1 PUSH1 0x0 PUSH2 0x1278 PUSH1 0x40 MLOAD DUP1 PUSH1 0xE0 ADD PUSH1 0x40 MSTORE DUP1 DUP11 PUSH1 0x0 ADD MLOAD DUP2 MSTORE PUSH1 0x20 ADD PUSH1 0x0 DUP2 MSTORE PUSH1 0x20 ADD PUSH1 0x2 PUSH1 0x0 SWAP1 SLOAD SWAP1 PUSH2 0x100 EXP SWAP1 DIV PUSH1 0x1 PUSH1 0x1 PUSH1 0xA0 SHL SUB AND PUSH1 0x1 PUSH1 0x1 PUSH1 0xA0 SHL SUB AND DUP2 MSTORE PUSH1 0x20 ADD DUP7 PUSH1 0x2 SIGNEXTEND DUP2 MSTORE PUSH1 0x20 ADD PUSH1 0x0 DUP2 MSTORE PUSH1 0x20 ADD PUSH1 0x0 DUP2 MSTORE PUSH1 0x20 ADD DUP11 PUSH1 0xA0 ADD MLOAD ISZERO ISZERO DUP2 MSTORE POP PUSH2 0x21FC JUMP JUMPDEST SWAP3 POP SWAP3 POP SWAP3 POP DUP3 ISZERO PUSH2 0x12B1 JUMPI DUP8 MLOAD DUP2 SWAP1 SUB DUP9 MSTORE PUSH1 0x20 DUP9 ADD DUP1 MLOAD DUP4 ADD SWAP1 MSTORE PUSH2 0x129E DUP5 PUSH2 0x13D1 JUMP JUMPDEST PUSH1 0x1 PUSH1 0x1 PUSH1 0xA0 SHL SUB AND PUSH1 0x60 DUP10 ADD MSTORE PUSH2 0x12F5 JUMP JUMPDEST PUSH2 0x12BA DUP9 PUSH2 0x22C6 JUMP JUMPDEST PUSH1 0x0 DUP1 DUP3 MSTORE PUSH1 0x40 DUP1 MLOAD PUSH1 0x80 DUP2 ADD DUP3 MSTORE DUP3 DUP2 MSTORE PUSH1 0x20 DUP2 ADD DUP4 SWAP1 MSTORE SWAP1 DUP2 ADD DUP3 SWAP1 MSTORE PUSH1 0x60 DUP2 ADD DUP3 SWAP1 MSTORE SWAP2 SWAP10 POP DUP10 SWAP9 POP SWAP1 SWAP7 POP SWAP5 POP PUSH2 0x1319 SWAP4 POP POP POP POP JUMP JUMPDEST POP POP POP POP JUMPDEST PUSH2 0x1302 PUSH2 0x3A99 JUMP JUMPDEST PUSH2 0x130B DUP6 PUSH2 0x244C JUMP JUMPDEST SWAP1 SWAP6 POP DUP6 SWAP5 POP SWAP3 POP PUSH1 0x1 SWAP2 POP POP JUMPDEST SWAP2 SWAP4 SWAP1 SWAP3 POP JUMP JUMPDEST PUSH1 0x0 DUP2 ISZERO DUP1 PUSH2 0x133B JUMPI POP POP DUP1 DUP3 MUL DUP3 DUP3 DUP3 DUP2 PUSH2 0x1338 JUMPI INVALID JUMPDEST DIV EQ JUMPDEST PUSH2 0x7CE JUMPI PUSH1 0x40 DUP1 MLOAD PUSH3 0x461BCD PUSH1 0xE5 SHL DUP2 MSTORE PUSH1 0x20 PUSH1 0x4 DUP3 ADD MSTORE PUSH1 0x14 PUSH1 0x24 DUP3 ADD MSTORE PUSH20 0x64732D6D6174682D6D756C2D6F766572666C6F77 PUSH1 0x60 SHL PUSH1 0x44 DUP3 ADD MSTORE SWAP1 MLOAD SWAP1 DUP2 SWAP1 SUB PUSH1 0x64 ADD SWAP1 REVERT JUMPDEST PUSH1 0x0 DUP2 DUP4 DUP2 PUSH2 0x138E JUMPI INVALID JUMPDEST DIV SWAP4 SWAP3 POP POP POP JUMP JUMPDEST PUSH1 0x0 PUSH2 0x13A3 DUP5 DUP5 DUP5 PUSH2 0x2034 JUMP JUMPDEST SWAP1 POP PUSH1 0x0 DUP3 DUP1 PUSH2 0x13AF JUMPI INVALID JUMPDEST DUP5 DUP7 MULMOD GT ISZERO PUSH2 0x13CA JUMPI PUSH1 0x0 NOT DUP2 LT PUSH2 0x13C6 JUMPI PUSH1 0x0 DUP1 REVERT JUMPDEST PUSH1 0x1 ADD JUMPDEST SWAP4 SWAP3 POP POP POP JUMP JUMPDEST PUSH1 0x0 DUP1 PUSH1 0x0 DUP4 PUSH1 0x2 SIGNEXTEND SLT PUSH2 0x13E8 JUMPI DUP3 PUSH1 0x2 SIGNEXTEND PUSH2 0x13F0 JUMP JUMPDEST DUP3 PUSH1 0x2 SIGNEXTEND PUSH1 0x0 SUB JUMPDEST SWAP1 POP PUSH3 0xD89E8 DUP2 GT ISZERO PUSH2 0x142E JUMPI PUSH1 0x40 DUP1 MLOAD PUSH3 0x461BCD PUSH1 0xE5 SHL DUP2 MSTORE PUSH1 0x20 PUSH1 0x4 DUP3 ADD MSTORE PUSH1 0x1 PUSH1 0x24 DUP3 ADD MSTORE PUSH1 0x15 PUSH1 0xFA SHL PUSH1 0x44 DUP3 ADD MSTORE SWAP1 MLOAD SWAP1 DUP2 SWAP1 SUB PUSH1 0x64 ADD SWAP1 REVERT JUMPDEST PUSH1 0x0 PUSH1 0x1 DUP3 AND PUSH2 0x1442 JUMPI PUSH1 0x1 PUSH1 0x80 SHL PUSH2 0x1454 JUMP JUMPDEST PUSH16 0xFFFCB933BD6FAD37AA2D162D1A594001 JUMPDEST PUSH17 0xFFFFFFFFFFFFFFFFFFFFFFFFFFFFFFFFFF AND SWAP1 POP PUSH1 0x2 DUP3 AND ISZERO PUSH2 0x1488 JUMPI PUSH16 0xFFF97272373D413259A46990580E213A MUL PUSH1 0x80 SHR JUMPDEST PUSH1 0x4 DUP3 AND ISZERO PUSH2 0x14A7 JUMPI PUSH16 0xFFF2E50F5F656932EF12357CF3C7FDCC MUL PUSH1 0x80 SHR JUMPDEST PUSH1 0x8 DUP3 AND ISZERO PUSH2 0x14C6 JUMPI PUSH16 0xFFE5CACA7E10E4E61C3624EAA0941CD0 MUL PUSH1 0x80 SHR JUMPDEST PUSH1 0x10 DUP3 AND ISZERO PUSH2 0x14E5 JUMPI PUSH16 0xFFCB9843D60F6159C9DB58835C926644 MUL PUSH1 0x80 SHR JUMPDEST PUSH1 0x20 DUP3 AND ISZERO PUSH2 0x1504 JUMPI PUSH16 0xFF973B41FA98C081472E6896DFB254C0 MUL PUSH1 0x80 SHR JUMPDEST PUSH1 0x40 DUP3 AND ISZERO PUSH2 0x1523 JUMPI PUSH16 0xFF2EA16466C96A3843EC78B326B52861 MUL PUSH1 0x80 SHR JUMPDEST PUSH1 0x80 DUP3 AND ISZERO PUSH2 0x1542 JUMPI PUSH16 0xFE5DEE046A99A2A811C461F1969C3053 MUL PUSH1 0x80 SHR JUMPDEST PUSH2 0x100 DUP3 AND ISZERO PUSH2 0x1562 JUMPI PUSH16 0xFCBE86C7900A88AEDCFFC83B479AA3A4 MUL PUSH1 0x80 SHR JUMPDEST PUSH2 0x200 DUP3 AND ISZERO PUSH2 0x1582 JUMPI PUSH16 0xF987A7253AC413176F2B074CF7815E54 MUL PUSH1 0x80 SHR JUMPDEST PUSH2 0x400 DUP3 AND ISZERO PUSH2 0x15A2 JUMPI PUSH16 0xF3392B0822B70005940C7A398E4B70F3 MUL PUSH1 0x80 SHR JUMPDEST PUSH2 0x800 DUP3 AND ISZERO PUSH2 0x15C2 JUMPI PUSH16 0xE7159475A2C29B7443B29C7FA6E889D9 MUL PUSH1 0x80 SHR JUMPDEST PUSH2 0x1000 DUP3 AND ISZERO PUSH2 0x15E2 JUMPI PUSH16 0xD097F3BDFD2022B8845AD8F792AA5825 MUL PUSH1 0x80 SHR JUMPDEST PUSH2 0x2000 DUP3 AND ISZERO PUSH2 0x1602 JUMPI PUSH16 0xA9F746462D870FDF8A65DC1F90E061E5 MUL PUSH1 0x80 SHR JUMPDEST PUSH2 0x4000 DUP3 AND ISZERO PUSH2 0x1622 JUMPI PUSH16 0x70D869A156D2A1B890BB3DF62BAF32F7 MUL PUSH1 0x80 SHR JUMPDEST PUSH2 0x8000 DUP3 AND ISZERO PUSH2 0x1642 JUMPI PUSH16 0x31BE135F97D08FD981231505542FCFA6 MUL PUSH1 0x80 SHR JUMPDEST PUSH3 0x10000 DUP3 AND ISZERO PUSH2 0x1663 JUMPI PUSH16 0x9AA508B5B7A84E1C677DE54F3E99BC9 MUL PUSH1 0x80 SHR JUMPDEST PUSH3 0x20000 DUP3 AND ISZERO PUSH2 0x1683 JUMPI PUSH15 0x5D6AF8DEDB81196699C329225EE604 MUL PUSH1 0x80 SHR JUMPDEST PUSH3 0x40000 DUP3 AND ISZERO PUSH2 0x16A2 JUMPI PUSH14 0x2216E584F5FA1EA926041BEDFE98 MUL PUSH1 0x80 SHR JUMPDEST PUSH3 0x80000 DUP3 AND ISZERO PUSH2 0x16BF JUMPI PUSH12 0x48A170391F7DC42444E8FA2 MUL PUSH1 0x80 SHR JUMPDEST PUSH1 0x0 DUP5 PUSH1 0x2 SIGNEXTEND SGT ISZERO PUSH2 0x16DA JUMPI DUP1 PUSH1 0x0 NOT DUP2 PUSH2 0x16D6 JUMPI INVALID JUMPDEST DIV SWAP1 POP JUMPDEST PUSH5 0x100000000 DUP2 MOD ISZERO PUSH2 0x16EE JUMPI PUSH1 0x1 PUSH2 0x16F1 JUMP JUMPDEST PUSH1 0x0 JUMPDEST PUSH1 0xFF AND PUSH1 0x20 DUP3 SWAP1 SHR ADD SWAP3 POP POP POP SWAP2 SWAP1 POP JUMP JUMPDEST PUSH1 0x0 DUP1 PUSH2 0x170F DUP8 PUSH2 0x2185 JUMP JUMPDEST POP SWAP3 POP POP SWAP2 POP PUSH2 0x1720 DUP8 PUSH1 0x0 PUSH2 0x20E3 JUMP JUMPDEST ISZERO PUSH2 0x1779 JUMPI PUSH2 0x1744 PUSH2 0x173F DUP8 PUSH1 0x0 ADD MLOAD PUSH1 0x1 PUSH1 0x1 PUSH1 0x80 SHL SUB AND DUP8 PUSH2 0x779 JUMP JUMPDEST PUSH2 0x1EA3 JUMP JUMPDEST PUSH1 0x20 DUP8 ADD DUP1 MLOAD SWAP2 SWAP1 SWAP2 ADD PUSH1 0x1 PUSH1 0x1 PUSH1 0x80 SHL SUB AND SWAP1 MSTORE PUSH1 0x0 DUP1 DUP8 MSTORE PUSH2 0x1769 SWAP1 DUP9 SWAP1 PUSH2 0x27FE JUMP JUMPDEST PUSH2 0x1774 DUP8 PUSH1 0x0 PUSH2 0xAC7 JUMP JUMPDEST PUSH2 0x17F0 JUMP JUMPDEST PUSH1 0x20 DUP1 DUP8 ADD MLOAD PUSH1 0x2 DUP10 DUP2 SIGNEXTEND SWAP1 SIGNEXTEND PUSH1 0x0 SWAP1 DUP2 MSTORE PUSH1 0xB SWAP1 SWAP3 MSTORE PUSH1 0x40 SWAP1 SWAP2 KECCAK256 SLOAD PUSH1 0x1 PUSH1 0x1 PUSH1 0x80 SHL SUB SWAP2 DUP3 AND PUSH1 0x1 PUSH1 0x80 SHL SWAP1 SWAP2 DIV SWAP1 SWAP2 AND LT ISZERO PUSH2 0x17F0 JUMPI PUSH1 0x2 DUP8 DUP2 SIGNEXTEND SWAP1 SIGNEXTEND PUSH1 0x0 SWAP1 DUP2 MSTORE PUSH1 0xB PUSH1 0x20 SWAP1 DUP2 MSTORE PUSH1 0x40 DUP3 KECCAK256 SLOAD SWAP1 DUP9 ADD MLOAD PUSH2 0x17F0 SWAP3 DUP11 SWAP3 SWAP1 SWAP2 PUSH1 0x1 PUSH1 0x1 PUSH1 0x80 SHL SUB PUSH1 0x1 PUSH1 0x80 SHL SWAP1 SWAP3 DIV DUP3 AND SWAP1 SUB AND PUSH2 0x288C JUMP JUMPDEST PUSH2 0x17FB DUP8 PUSH1 0x1 PUSH2 0x20E3 JUMP JUMPDEST ISZERO PUSH2 0x1851 JUMPI PUSH2 0x181A PUSH2 0x173F DUP8 PUSH1 0x40 ADD MLOAD PUSH1 0x1 PUSH1 0x1 PUSH1 0x80 SHL SUB AND DUP8 PUSH2 0x7D4 JUMP JUMPDEST PUSH1 0x60 DUP8 ADD DUP1 MLOAD SWAP2 SWAP1 SWAP2 ADD PUSH1 0x1 PUSH1 0x1 PUSH1 0x80 SHL SUB AND SWAP1 MSTORE PUSH1 0x0 PUSH1 0x40 DUP8 ADD MSTORE PUSH2 0x1841 DUP8 PUSH1 0x1 PUSH2 0x27FE JUMP JUMPDEST PUSH2 0x184C DUP8 PUSH1 0x1 PUSH2 0xAC7 JUMP JUMPDEST PUSH2 0x18D5 JUMP JUMPDEST PUSH1 0x60 DUP7 ADD MLOAD PUSH1 0x2 DUP9 DUP2 SIGNEXTEND SWAP1 SIGNEXTEND PUSH1 0x0 SWAP1 DUP2 MSTORE PUSH1 0xB PUSH1 0x20 MSTORE PUSH1 0x40 SWAP1 KECCAK256 PUSH1 0x1 ADD SLOAD PUSH1 0x1 PUSH1 0x1 PUSH1 0x80 SHL SUB SWAP2 DUP3 AND PUSH1 0x1 PUSH1 0x80 SHL SWAP1 SWAP2 DIV SWAP1 SWAP2 AND LT ISZERO PUSH2 0x18D5 JUMPI PUSH2 0x18D5 DUP8 PUSH1 0x1 PUSH1 0xB PUSH1 0x0 DUP12 PUSH1 0x2 SIGNEXTEND PUSH1 0x2 SIGNEXTEND DUP2 MSTORE PUSH1 0x20 ADD SWAP1 DUP2 MSTORE PUSH1 0x20 ADD PUSH1 0x0 KECCAK256 PUSH1 0x1 ADD PUSH1 0x10 SWAP1 SLOAD SWAP1 PUSH2 0x100 EXP SWAP1 DIV PUSH1 0x1 PUSH1 0x1 PUSH1 0x80 SHL SUB AND DUP10 PUSH1 0x60 ADD MLOAD SUB PUSH1 0x1 PUSH1 0x1 PUSH1 0x80 SHL SUB AND PUSH2 0x288C JUMP JUMPDEST PUSH1 0x2 DUP8 DUP2 SIGNEXTEND SWAP1 SIGNEXTEND PUSH1 0x0 SWAP1 DUP2 MSTORE PUSH1 0xB PUSH1 0x20 SWAP1 DUP2 MSTORE PUSH1 0x40 DUP1 DUP4 KECCAK256 DUP10 MLOAD DUP2 SLOAD SWAP4 DUP12 ADD MLOAD PUSH1 0x1 PUSH1 0x1 PUSH1 0x80 SHL SUB NOT SWAP5 DUP6 AND PUSH1 0x1 PUSH1 0x1 PUSH1 0x80 SHL SUB SWAP3 DUP4 AND OR DUP3 AND PUSH1 0x1 PUSH1 0x80 SHL SWAP2 DUP4 AND DUP3 MUL OR DUP4 SSTORE SWAP3 DUP12 ADD MLOAD PUSH1 0x1 SWAP1 SWAP3 ADD DUP1 SLOAD PUSH1 0x60 DUP14 ADD MLOAD SWAP6 AND SWAP3 DUP3 AND SWAP3 SWAP1 SWAP3 OR DUP2 AND SWAP4 AND SWAP1 SWAP2 MUL SWAP2 SWAP1 SWAP2 OR SWAP1 SSTORE PUSH1 0x4 SLOAD DUP2 DUP6 SGT ISZERO PUSH2 0x19A9 JUMPI PUSH1 0x0 PUSH2 0x1959 DUP7 DUP10 PUSH2 0x779 JUMP JUMPDEST SWAP1 POP DUP1 ISZERO PUSH2 0x1966 JUMPI PUSH1 0x0 NOT ADD JUMPDEST PUSH1 0x0 DUP6 DUP2 SIGNEXTEND DUP2 SIGNEXTEND DUP2 MSTORE PUSH1 0xD PUSH1 0x20 SWAP1 DUP2 MSTORE PUSH1 0x40 DUP1 DUP4 KECCAK256 DUP1 SLOAD PUSH1 0x80 DUP12 SWAP1 SHL SWAP6 SWAP1 SWAP6 ADD SWAP5 DUP6 ADD SWAP1 SSTORE PUSH1 0x1 DUP8 DUP2 SIGNEXTEND DUP2 SIGNEXTEND DUP5 MSTORE PUSH1 0xF SWAP1 SWAP3 MSTORE SWAP1 SWAP2 KECCAK256 DUP1 SLOAD SWAP1 SWAP3 ADD SWAP1 SWAP2 SSTORE SWAP2 POP DUP5 ADD JUMPDEST PUSH1 0x0 DUP6 SLT ISZERO PUSH2 0x1A16 JUMPI PUSH1 0x0 PUSH2 0x19C1 DUP7 PUSH1 0x0 SUB DUP10 PUSH2 0x779 JUMP JUMPDEST SWAP1 POP DUP1 ISZERO PUSH2 0x19CE JUMPI PUSH1 0x0 NOT ADD JUMPDEST PUSH1 0x0 DUP6 DUP2 SIGNEXTEND DUP2 SIGNEXTEND DUP2 MSTORE PUSH1 0xD PUSH1 0x20 SWAP1 DUP2 MSTORE PUSH1 0x40 DUP1 DUP4 KECCAK256 DUP1 SLOAD DUP11 DUP6 SUB PUSH1 0x80 DUP2 SWAP1 SHL SWAP7 SWAP1 SWAP7 ADD SWAP1 DUP2 SWAP1 SUB SWAP1 SWAP2 SSTORE PUSH1 0x1 DUP9 DUP2 SIGNEXTEND DUP2 SIGNEXTEND DUP6 MSTORE PUSH1 0xF SWAP1 SWAP4 MSTORE SWAP3 KECCAK256 DUP1 SLOAD SWAP3 SWAP1 SWAP3 SUB SWAP1 SWAP2 SSTORE SWAP3 POP SWAP1 SUB JUMPDEST PUSH1 0x0 DUP7 SGT ISZERO PUSH2 0x1A70 JUMPI PUSH1 0x0 PUSH2 0x1A2B DUP8 DUP10 PUSH2 0x7D4 JUMP JUMPDEST PUSH1 0x0 DUP7 DUP2 SIGNEXTEND DUP2 SIGNEXTEND DUP2 MSTORE PUSH1 0xC PUSH1 0x20 SWAP1 DUP2 MSTORE PUSH1 0x40 DUP1 DUP4 KECCAK256 DUP1 SLOAD PUSH1 0x80 DUP14 SWAP1 SHL SWAP6 DUP7 ADD SWAP1 DUP2 ADD SWAP1 SWAP2 SSTORE PUSH1 0x1 DUP10 DUP2 SIGNEXTEND SWAP1 SIGNEXTEND DUP5 MSTORE PUSH1 0xE SWAP1 SWAP3 MSTORE DUP3 KECCAK256 DUP1 SLOAD SWAP1 SWAP2 ADD SWAP1 SSTORE SWAP4 POP SWAP2 SWAP1 SWAP2 ADD SWAP1 POP JUMPDEST PUSH1 0x0 DUP7 SLT ISZERO PUSH2 0x1ACF JUMPI PUSH1 0x0 PUSH2 0x1A88 DUP8 PUSH1 0x0 SUB DUP10 PUSH2 0x7D4 JUMP JUMPDEST PUSH1 0x0 DUP7 DUP2 SIGNEXTEND DUP2 SIGNEXTEND DUP2 MSTORE PUSH1 0xC PUSH1 0x20 SWAP1 DUP2 MSTORE PUSH1 0x40 DUP1 DUP4 KECCAK256 DUP1 SLOAD DUP13 DUP6 SUB PUSH1 0x80 SHL SWAP6 DUP7 ADD SWAP1 DUP2 SWAP1 SUB SWAP1 SWAP2 SSTORE PUSH1 0x1 DUP10 DUP2 SIGNEXTEND SWAP1 SIGNEXTEND DUP5 MSTORE PUSH1 0xE SWAP1 SWAP3 MSTORE DUP3 KECCAK256 DUP1 SLOAD SWAP2 SWAP1 SWAP2 SUB SWAP1 SSTORE SWAP4 POP SWAP1 SWAP2 SUB SWAP1 POP JUMPDEST PUSH1 0x4 SLOAD DUP2 EQ PUSH2 0x1ADE JUMPI PUSH1 0x4 DUP2 SWAP1 SSTORE JUMPDEST DUP8 MLOAD PUSH1 0x1 PUSH1 0x1 PUSH1 0x80 SHL SUB AND ISZERO DUP1 ISZERO PUSH2 0x1B01 JUMPI POP PUSH1 0x40 DUP9 ADD MLOAD PUSH1 0x1 PUSH1 0x1 PUSH1 0x80 SHL SUB AND ISZERO JUMPDEST ISZERO PUSH2 0x1B18 JUMPI PUSH2 0x1B13 PUSH1 0x10 DUP11 PUSH1 0x0 PUSH2 0x2981 JUMP JUMPDEST PUSH2 0x1B25 JUMP JUMPDEST PUSH2 0x1B25 PUSH1 0x10 DUP11 PUSH1 0x1 PUSH2 0x2981 JUMP JUMPDEST POP POP POP POP POP POP POP POP POP JUMP JUMPDEST DUP3 PUSH1 0x2 SIGNEXTEND DUP3 PUSH1 0x2 SIGNEXTEND SLT ISZERO PUSH2 0x1B43 JUMPI PUSH1 0x0 DUP1 REVERT JUMPDEST PUSH1 0x0 DUP1 PUSH1 0x0 DUP1 PUSH2 0x1B52 DUP8 PUSH2 0x2185 JUMP JUMPDEST SWAP4 POP SWAP4 POP SWAP4 POP SWAP4 POP PUSH1 0x0 DUP1 PUSH1 0x0 PUSH2 0x1B68 DUP10 PUSH2 0x2185 JUMP JUMPDEST SWAP4 POP POP SWAP3 POP SWAP3 POP DUP7 PUSH1 0x0 SIGNEXTEND DUP4 PUSH1 0x0 SIGNEXTEND SGT ISZERO PUSH2 0x1C93 JUMPI PUSH2 0x1B95 DUP11 PUSH1 0x1 PUSH2 0x1B8E DUP14 PUSH1 0x1 PUSH2 0x2A20 JUMP JUMPDEST SUB DUP11 PUSH2 0x1B30 JUMP JUMPDEST DUP7 PUSH1 0x1 ADD PUSH1 0x0 SIGNEXTEND DUP4 PUSH1 0x0 SIGNEXTEND SGT ISZERO PUSH2 0x1C76 JUMPI PUSH20 0x0 PUSH4 0x4033822A PUSH1 0x5 DUP11 PUSH1 0x2 DUP2 LT PUSH2 0x1BCD JUMPI INVALID JUMPDEST ADD SLOAD PUSH2 0x1BDB DUP11 PUSH1 0x1 ADD PUSH2 0x21C4 JUMP JUMPDEST PUSH2 0x1BE7 PUSH1 0x1 DUP9 SUB PUSH2 0x21C4 JUMP JUMPDEST PUSH1 0x1 PUSH1 0x40 MLOAD DUP6 PUSH4 0xFFFFFFFF AND PUSH1 0xE0 SHL DUP2 MSTORE PUSH1 0x4 ADD DUP1 DUP6 DUP2 MSTORE PUSH1 0x20 ADD DUP5 PUSH1 0xFF AND DUP2 MSTORE PUSH1 0x20 ADD DUP4 PUSH1 0xFF AND DUP2 MSTORE PUSH1 0x20 ADD DUP3 ISZERO ISZERO DUP2 MSTORE PUSH1 0x20 ADD SWAP5 POP POP POP POP POP PUSH1 0x20 PUSH1 0x40 MLOAD DUP1 DUP4 SUB DUP2 DUP7 DUP1 EXTCODESIZE ISZERO DUP1 ISZERO PUSH2 0x1C3A JUMPI PUSH1 0x0 DUP1 REVERT JUMPDEST POP GAS DELEGATECALL ISZERO DUP1 ISZERO PUSH2 0x1C4E JUMPI RETURNDATASIZE PUSH1 0x0 DUP1 RETURNDATACOPY RETURNDATASIZE PUSH1 0x0 REVERT JUMPDEST POP POP POP POP PUSH1 0x40 MLOAD RETURNDATASIZE PUSH1 0x20 DUP2 LT ISZERO PUSH2 0x1C64 JUMPI PUSH1 0x0 DUP1 REVERT JUMPDEST POP MLOAD PUSH1 0x5 DUP10 PUSH1 0x2 DUP2 LT PUSH2 0x1C73 JUMPI INVALID JUMPDEST ADD SSTORE JUMPDEST PUSH2 0x1C8E PUSH2 0x1C84 DUP11 PUSH1 0x0 PUSH2 0x2A20 JUMP JUMPDEST PUSH1 0x1 ADD DUP11 DUP11 PUSH2 0x1B30 JUMP JUMPDEST PUSH2 0x1E97 JUMP JUMPDEST DUP6 PUSH1 0xFF AND DUP3 PUSH1 0xFF AND GT ISZERO PUSH2 0x1DB2 JUMPI PUSH2 0x1CB2 DUP11 PUSH1 0x1 PUSH2 0x1B8E DUP14 PUSH1 0x1 PUSH2 0x2A48 JUMP JUMPDEST DUP6 PUSH1 0x1 ADD PUSH1 0xFF AND DUP3 PUSH1 0xFF AND GT ISZERO PUSH2 0x1DA4 JUMPI PUSH20 0x0 PUSH4 0x4033822A PUSH1 0x7 DUP11 PUSH1 0x2 DUP2 LT PUSH2 0x1CEA JUMPI INVALID JUMPDEST PUSH1 0x0 DUP12 DUP2 SIGNEXTEND DUP2 SIGNEXTEND DUP2 MSTORE SWAP2 ADD PUSH1 0x20 SWAP1 DUP2 MSTORE PUSH1 0x40 SWAP2 DUP3 SWAP1 KECCAK256 SLOAD DUP3 MLOAD PUSH1 0xE0 DUP6 SWAP1 SHL PUSH1 0x1 PUSH1 0x1 PUSH1 0xE0 SHL SUB NOT AND DUP2 MSTORE PUSH1 0x4 DUP2 ADD SWAP2 SWAP1 SWAP2 MSTORE PUSH1 0x1 DUP12 DUP2 ADD PUSH1 0xFF SWAP1 DUP2 AND PUSH1 0x24 DUP5 ADD MSTORE PUSH1 0x0 NOT DUP10 ADD AND PUSH1 0x44 DUP4 ADD MSTORE PUSH1 0x64 DUP3 ADD MSTORE SWAP2 MLOAD PUSH1 0x84 DUP1 DUP5 ADD SWAP4 DUP3 SWAP1 SUB ADD DUP2 DUP7 DUP1 EXTCODESIZE ISZERO DUP1 ISZERO PUSH2 0x1D57 JUMPI PUSH1 0x0 DUP1 REVERT JUMPDEST POP GAS DELEGATECALL ISZERO DUP1 ISZERO PUSH2 0x1D6B JUMPI RETURNDATASIZE PUSH1 0x0 DUP1 RETURNDATACOPY RETURNDATASIZE PUSH1 0x0 REVERT JUMPDEST POP POP POP POP PUSH1 0x40 MLOAD RETURNDATASIZE PUSH1 0x20 DUP2 LT ISZERO PUSH2 0x1D81 JUMPI PUSH1 0x0 DUP1 REVERT JUMPDEST POP MLOAD PUSH1 0x7 DUP10 PUSH1 0x2 DUP2 LT PUSH2 0x1D90 JUMPI INVALID JUMPDEST PUSH1 0x0 DUP11 DUP2 SIGNEXTEND DUP2 SIGNEXTEND DUP2 MSTORE SWAP2 ADD PUSH1 0x20 MSTORE PUSH1 0x40 SWAP1 KECCAK256 SSTORE JUMPDEST PUSH2 0x1C8E PUSH2 0x1C84 DUP11 PUSH1 0x0 PUSH2 0x2A48 JUMP JUMPDEST PUSH20 0x0 PUSH4 0x4033822A PUSH1 0x9 DUP11 PUSH1 0x2 DUP2 LT PUSH2 0x1DD9 JUMPI INVALID JUMPDEST ADD PUSH1 0x0 DUP9 PUSH1 0x1 SIGNEXTEND PUSH1 0x1 SIGNEXTEND DUP2 MSTORE PUSH1 0x20 ADD SWAP1 DUP2 MSTORE PUSH1 0x20 ADD PUSH1 0x0 KECCAK256 SLOAD DUP7 DUP5 PUSH1 0x1 PUSH1 0x40 MLOAD DUP6 PUSH4 0xFFFFFFFF AND PUSH1 0xE0 SHL DUP2 MSTORE PUSH1 0x4 ADD DUP1 DUP6 DUP2 MSTORE PUSH1 0x20 ADD DUP5 PUSH1 0xFF AND DUP2 MSTORE PUSH1 0x20 ADD DUP4 PUSH1 0xFF AND DUP2 MSTORE PUSH1 0x20 ADD DUP3 ISZERO ISZERO DUP2 MSTORE PUSH1 0x20 ADD SWAP5 POP POP POP POP POP PUSH1 0x20 PUSH1 0x40 MLOAD DUP1 DUP4 SUB DUP2 DUP7 DUP1 EXTCODESIZE ISZERO DUP1 ISZERO PUSH2 0x1E47 JUMPI PUSH1 0x0 DUP1 REVERT JUMPDEST POP GAS DELEGATECALL ISZERO DUP1 ISZERO PUSH2 0x1E5B JUMPI RETURNDATASIZE PUSH1 0x0 DUP1 RETURNDATACOPY RETURNDATASIZE PUSH1 0x0 REVERT JUMPDEST POP POP POP POP PUSH1 0x40 MLOAD RETURNDATASIZE PUSH1 0x20 DUP2 LT ISZERO PUSH2 0x1E71 JUMPI PUSH1 0x0 DUP1 REVERT JUMPDEST POP MLOAD PUSH1 0x9 DUP10 PUSH1 0x2 DUP2 LT PUSH2 0x1E80 JUMPI INVALID JUMPDEST PUSH1 0x1 DUP9 DUP2 SIGNEXTEND SWAP1 SIGNEXTEND PUSH1 0x0 SWAP1 DUP2 MSTORE SWAP2 ADD PUSH1 0x20 MSTORE PUSH1 0x40 SWAP1 KECCAK256 SSTORE JUMPDEST POP POP POP POP POP POP POP POP POP POP JUMP JUMPDEST DUP1 PUSH1 0x1 PUSH1 0x1 PUSH1 0x80 SHL SUB DUP2 AND DUP2 EQ PUSH2 0x1EB9 JUMPI PUSH1 0x0 DUP1 REVERT JUMPDEST SWAP2 SWAP1 POP JUMP JUMPDEST PUSH1 0x0 DUP4 PUSH1 0x1 PUSH1 0x1 PUSH1 0xA0 SHL SUB AND DUP6 PUSH1 0x1 PUSH1 0x1 PUSH1 0xA0 SHL SUB AND GT ISZERO PUSH2 0x1EDE JUMPI SWAP3 SWAP4 SWAP3 JUMPDEST DUP2 PUSH2 0x1F0B JUMPI PUSH2 0x1F06 DUP4 PUSH1 0x1 PUSH1 0x1 PUSH1 0x80 SHL SUB AND DUP7 DUP7 SUB PUSH1 0x1 PUSH1 0x1 PUSH1 0xA0 SHL SUB AND PUSH1 0x1 PUSH1 0x60 SHL PUSH2 0x2034 JUMP JUMPDEST PUSH2 0x1F2E JUMP JUMPDEST PUSH2 0x1F2E DUP4 PUSH1 0x1 PUSH1 0x1 PUSH1 0x80 SHL SUB AND DUP7 DUP7 SUB PUSH1 0x1 PUSH1 0x1 PUSH1 0xA0 SHL SUB AND PUSH1 0x1 PUSH1 0x60 SHL PUSH2 0x1396 JUMP JUMPDEST SWAP1 POP JUMPDEST SWAP5 SWAP4 POP POP POP POP JUMP JUMPDEST PUSH1 0x0 DUP4 PUSH1 0x1 PUSH1 0x1 PUSH1 0xA0 SHL SUB AND DUP6 PUSH1 0x1 PUSH1 0x1 PUSH1 0xA0 SHL SUB AND GT ISZERO PUSH2 0x1F59 JUMPI SWAP3 SWAP4 SWAP3 JUMPDEST PUSH1 0x1 PUSH1 0x60 SHL PUSH1 0x1 PUSH1 0xE0 SHL SUB PUSH1 0x60 DUP5 SWAP1 SHL AND PUSH1 0x1 PUSH1 0x1 PUSH1 0xA0 SHL SUB DUP7 DUP7 SUB DUP2 AND SWAP1 DUP8 AND PUSH2 0x1F83 JUMPI PUSH1 0x0 DUP1 REVERT JUMPDEST DUP4 PUSH2 0x1FB3 JUMPI DUP7 PUSH1 0x1 PUSH1 0x1 PUSH1 0xA0 SHL SUB AND PUSH2 0x1FA6 DUP4 DUP4 DUP10 PUSH1 0x1 PUSH1 0x1 PUSH1 0xA0 SHL SUB AND PUSH2 0x2034 JUMP JUMPDEST DUP2 PUSH2 0x1FAD JUMPI INVALID JUMPDEST DIV PUSH2 0x1FD9 JUMP JUMPDEST PUSH2 0x1FD9 PUSH2 0x1FCA DUP4 DUP4 DUP10 PUSH1 0x1 PUSH1 0x1 PUSH1 0xA0 SHL SUB AND PUSH2 0x1396 JUMP JUMPDEST DUP9 PUSH1 0x1 PUSH1 0x1 PUSH1 0xA0 SHL SUB AND PUSH2 0x2A82 JUMP JUMPDEST SWAP8 SWAP7 POP POP POP POP POP POP POP JUMP JUMPDEST DUP1 DUP3 SUB DUP3 DUP2 GT ISZERO PUSH2 0x7CE JUMPI PUSH1 0x40 DUP1 MLOAD PUSH3 0x461BCD PUSH1 0xE5 SHL DUP2 MSTORE PUSH1 0x20 PUSH1 0x4 DUP3 ADD MSTORE PUSH1 0x15 PUSH1 0x24 DUP3 ADD MSTORE PUSH21 0x64732D6D6174682D7375622D756E646572666C6F77 PUSH1 0x58 SHL PUSH1 0x44 DUP3 ADD MSTORE SWAP1 MLOAD SWAP1 DUP2 SWAP1 SUB PUSH1 0x64 ADD SWAP1 REVERT JUMPDEST PUSH1 0x0 DUP1 DUP1 PUSH1 0x0 NOT DUP6 DUP8 MULMOD DUP7 DUP7 MUL SWAP3 POP DUP3 DUP2 LT SWAP1 DUP4 SWAP1 SUB SUB SWAP1 POP DUP1 PUSH2 0x206A JUMPI PUSH1 0x0 DUP5 GT PUSH2 0x205F JUMPI PUSH1 0x0 DUP1 REVERT JUMPDEST POP DUP3 SWAP1 DIV SWAP1 POP PUSH2 0x13CA JUMP JUMPDEST DUP1 DUP5 GT PUSH2 0x2076 JUMPI PUSH1 0x0 DUP1 REVERT JUMPDEST PUSH1 0x0 DUP5 DUP7 DUP9 MULMOD PUSH1 0x0 DUP7 DUP2 SUB DUP8 AND SWAP7 DUP8 SWAP1 DIV SWAP7 PUSH1 0x2 PUSH1 0x3 DUP10 MUL DUP2 XOR DUP1 DUP11 MUL DUP3 SUB MUL DUP1 DUP11 MUL DUP3 SUB MUL DUP1 DUP11 MUL DUP3 SUB MUL DUP1 DUP11 MUL DUP3 SUB MUL DUP1 DUP11 MUL DUP3 SUB MUL DUP1 DUP11 MUL SWAP1 SWAP2 SUB MUL SWAP2 DUP2 SWAP1 SUB DUP2 SWAP1 DIV PUSH1 0x1 ADD DUP7 DUP5 GT SWAP1 SWAP6 SUB SWAP5 SWAP1 SWAP5 MUL SWAP2 SWAP1 SWAP5 SUB SWAP3 SWAP1 SWAP3 DIV SWAP2 SWAP1 SWAP2 OR SWAP2 SWAP1 SWAP2 MUL SWAP2 POP POP SWAP4 SWAP3 POP POP POP JUMP JUMPDEST PUSH1 0x0 DUP1 PUSH1 0x0 DUP1 PUSH1 0x0 PUSH2 0x20F4 DUP8 PUSH2 0x2185 JUMP JUMPDEST SWAP4 POP SWAP4 POP SWAP4 POP SWAP4 POP PUSH2 0x210C PUSH1 0x5 DUP8 PUSH1 0x2 DUP2 LT PUSH2 0xAEE JUMPI INVALID JUMPDEST ISZERO PUSH2 0x211E JUMPI PUSH1 0x1 SWAP5 POP POP POP POP POP PUSH2 0x7CE JUMP JUMPDEST PUSH2 0x212E PUSH1 0x7 DUP8 PUSH1 0x2 DUP2 LT PUSH2 0xBCF JUMPI INVALID JUMPDEST ISZERO PUSH2 0x2140 JUMPI PUSH1 0x1 SWAP5 POP POP POP POP POP PUSH2 0x7CE JUMP JUMPDEST PUSH2 0x2150 PUSH1 0x9 DUP8 PUSH1 0x2 DUP2 LT PUSH2 0xCF0 JUMPI INVALID JUMPDEST ISZERO PUSH2 0x2162 JUMPI PUSH1 0x1 SWAP5 POP POP POP POP POP PUSH2 0x7CE JUMP JUMPDEST PUSH1 0x0 SWAP5 POP POP POP POP POP PUSH2 0x7CE JUMP JUMPDEST PUSH1 0x0 DUP2 DUP4 LT PUSH2 0x217E JUMPI DUP2 PUSH2 0x7CB JUMP JUMPDEST POP SWAP1 SWAP2 SWAP1 POP JUMP JUMPDEST PUSH1 0x0 DUP1 PUSH1 0x0 DUP1 PUSH1 0xE DUP6 PUSH1 0x2 SIGNEXTEND SWAP1 SAR SWAP4 POP PUSH1 0x40 PUSH1 0x8 DUP7 PUSH1 0x2 SIGNEXTEND SWAP1 SAR PUSH1 0x2 SIGNEXTEND DUP2 PUSH2 0x21A9 JUMPI INVALID JUMPDEST SWAP5 SWAP7 SWAP5 SMOD SWAP5 PUSH1 0x2 SIGNEXTEND PUSH1 0x8 DUP2 SWAP1 SAR SWAP5 PUSH2 0x100 SWAP1 SWAP2 SMOD SWAP4 POP SWAP2 POP POP JUMP JUMPDEST PUSH1 0x0 SIGNEXTEND PUSH1 0x7F ADD SWAP1 JUMP JUMPDEST PUSH1 0x1 PUSH1 0xFF SWAP1 SWAP2 AND SHL AND ISZERO ISZERO SWAP1 JUMP JUMPDEST PUSH1 0x0 DUP2 ISZERO PUSH2 0x21F2 JUMPI POP PUSH1 0x1 PUSH1 0xFF DUP4 AND SHL DUP4 OR PUSH2 0x13CA JUMP JUMPDEST POP PUSH1 0x0 SWAP4 SWAP3 POP POP POP JUMP JUMPDEST PUSH1 0x0 DUP1 PUSH1 0x0 DUP1 PUSH2 0x220F DUP6 PUSH1 0x60 ADD MLOAD PUSH2 0x13D1 JUMP JUMPDEST SWAP1 POP DUP5 PUSH1 0xC0 ADD MLOAD PUSH2 0x2233 JUMPI PUSH2 0x222E DUP6 PUSH1 0x40 ADD MLOAD DUP3 PUSH2 0x609 PUSH1 0x3 SLOAD PUSH2 0x1EA3 JUMP JUMPDEST PUSH2 0x2247 JUMP JUMPDEST PUSH2 0x2247 DUP6 PUSH1 0x40 ADD MLOAD DUP3 PUSH2 0x5E9 PUSH1 0x3 SLOAD PUSH2 0x1EA3 JUMP JUMPDEST SWAP2 POP DUP2 DUP6 PUSH1 0xA0 ADD MLOAD ADD DUP6 PUSH1 0x0 ADD MLOAD GT ISZERO PUSH2 0x22BE JUMPI PUSH1 0xA0 DUP6 ADD MLOAD DUP6 MLOAD SWAP1 DUP4 ADD SWAP1 SUB DUP6 MSTORE PUSH1 0xC0 DUP6 ADD MLOAD PUSH1 0x0 SWAP1 PUSH2 0x2295 JUMPI PUSH2 0x2290 DUP7 PUSH1 0x40 ADD MLOAD DUP4 PUSH2 0x2289 PUSH1 0x3 SLOAD PUSH2 0x1EA3 JUMP JUMPDEST PUSH1 0x0 PUSH2 0x1EBE JUMP JUMPDEST PUSH2 0x22B0 JUMP JUMPDEST PUSH2 0x22B0 DUP7 PUSH1 0x40 ADD MLOAD DUP4 PUSH2 0x22A9 PUSH1 0x3 SLOAD PUSH2 0x1EA3 JUMP JUMPDEST PUSH1 0x0 PUSH2 0x1F39 JUMP JUMPDEST PUSH1 0x80 DUP8 ADD MLOAD PUSH1 0x1 SWAP7 POP ADD SWAP4 POP POP JUMPDEST POP SWAP2 SWAP4 SWAP1 SWAP3 POP JUMP JUMPDEST PUSH2 0x22CE PUSH2 0x3A5D JUMP JUMPDEST PUSH1 0x60 DUP3 ADD MLOAD PUSH1 0x3 SLOAD PUSH2 0x22F2 SWAP1 DUP3 SWAP1 PUSH2 0x22E5 SWAP1 PUSH2 0x1EA3 JUMP JUMPDEST DUP6 MLOAD PUSH1 0xA0 DUP8 ADD MLOAD ISZERO PUSH2 0x2A8D JUMP JUMPDEST PUSH1 0x1 PUSH1 0x1 PUSH1 0xA0 SHL SUB AND PUSH1 0x60 DUP5 ADD DUP2 SWAP1 MSTORE PUSH2 0x230B SWAP1 PUSH2 0xE5B JUMP JUMPDEST PUSH1 0x2 SWAP1 DUP2 SIGNEXTEND DUP2 SIGNEXTEND PUSH1 0x80 DUP6 ADD MSTORE PUSH1 0xC0 DUP5 ADD MLOAD PUSH3 0x7FFFFF SWAP2 SIGNEXTEND EQ DUP1 ISZERO SWAP1 PUSH2 0x233B JUMPI POP DUP3 PUSH1 0xC0 ADD MLOAD PUSH1 0x2 SIGNEXTEND PUSH3 0x7FFFFE NOT EQ ISZERO JUMPDEST ISZERO PUSH2 0x23FE JUMPI DUP3 PUSH1 0xA0 ADD MLOAD DUP1 ISZERO PUSH2 0x235E JUMPI POP DUP3 PUSH1 0xC0 ADD MLOAD PUSH1 0x2 SIGNEXTEND DUP4 PUSH1 0x80 ADD MLOAD PUSH1 0x2 SIGNEXTEND SGT JUMPDEST DUP1 PUSH2 0x2383 JUMPI POP DUP3 PUSH1 0xA0 ADD MLOAD ISZERO DUP1 ISZERO PUSH2 0x2383 JUMPI POP DUP3 PUSH1 0xC0 ADD MLOAD PUSH1 0x2 SIGNEXTEND DUP4 PUSH1 0x80 ADD MLOAD PUSH1 0x2 SIGNEXTEND SLT JUMPDEST ISZERO PUSH2 0x23F4 JUMPI PUSH2 0x2395 DUP4 PUSH1 0xC0 ADD MLOAD PUSH2 0x13D1 JUMP JUMPDEST PUSH1 0x1 PUSH1 0x1 PUSH1 0xA0 SHL SUB AND PUSH1 0x60 DUP5 ADD MSTORE PUSH1 0xA0 DUP4 ADD MLOAD PUSH2 0x23C5 JUMPI PUSH2 0x23C0 DUP2 DUP5 PUSH1 0x60 ADD MLOAD PUSH2 0x609 PUSH1 0x3 SLOAD PUSH2 0x1EA3 JUMP JUMPDEST PUSH2 0x23D9 JUMP JUMPDEST PUSH2 0x23D9 DUP2 DUP5 PUSH1 0x60 ADD MLOAD PUSH2 0x5E9 PUSH1 0x3 SLOAD PUSH2 0x1EA3 JUMP JUMPDEST DUP4 MLOAD SUB DUP4 MSTORE PUSH1 0xC0 DUP4 ADD MLOAD PUSH1 0x2 SWAP1 DUP2 SIGNEXTEND SWAP1 SIGNEXTEND PUSH1 0x80 DUP5 ADD MSTORE PUSH2 0x23F9 JUMP JUMPDEST PUSH1 0x0 DUP4 MSTORE JUMPDEST PUSH2 0x2403 JUMP JUMPDEST PUSH1 0x0 DUP4 MSTORE JUMPDEST DUP3 PUSH1 0xA0 ADD MLOAD PUSH2 0x2425 JUMPI PUSH2 0x2420 DUP2 DUP5 PUSH1 0x60 ADD MLOAD PUSH2 0x2289 PUSH1 0x3 SLOAD PUSH2 0x1EA3 JUMP JUMPDEST PUSH2 0x2439 JUMP JUMPDEST PUSH2 0x2439 DUP2 DUP5 PUSH1 0x60 ADD MLOAD PUSH2 0x22A9 PUSH1 0x3 SLOAD PUSH2 0x1EA3 JUMP JUMPDEST PUSH1 0x20 DUP5 ADD DUP1 MLOAD SWAP2 SWAP1 SWAP2 ADD SWAP1 MSTORE POP SWAP1 SWAP2 SWAP1 POP JUMP JUMPDEST PUSH2 0x2454 PUSH2 0x3A5D JUMP JUMPDEST PUSH2 0x245C PUSH2 0x3A99 JUMP JUMPDEST DUP3 MLOAD PUSH1 0x80 DUP5 ADD MLOAD PUSH1 0xC0 DUP6 ADD MLOAD PUSH1 0x2 SWAP2 DUP3 SIGNEXTEND SWAP2 SIGNEXTEND EQ ISZERO PUSH2 0x24DF JUMPI POP POP POP PUSH1 0x80 DUP1 DUP3 ADD MLOAD PUSH1 0x2 SWAP1 DUP2 SIGNEXTEND SWAP1 SIGNEXTEND PUSH1 0x0 SWAP1 DUP2 MSTORE PUSH1 0xB PUSH1 0x20 SWAP1 DUP2 MSTORE PUSH1 0x40 SWAP2 DUP3 SWAP1 KECCAK256 DUP3 MLOAD SWAP4 DUP5 ADD DUP4 MSTORE DUP1 SLOAD PUSH1 0x1 PUSH1 0x1 PUSH1 0x80 SHL SUB DUP1 DUP3 AND DUP7 MSTORE PUSH1 0x1 PUSH1 0x80 SHL SWAP2 DUP3 SWAP1 DIV DUP2 AND SWAP4 DUP7 ADD SWAP4 SWAP1 SWAP4 MSTORE PUSH1 0x1 SWAP1 SWAP2 ADD SLOAD DUP1 DUP4 AND SWAP4 DUP6 ADD SWAP4 SWAP1 SWAP4 MSTORE SWAP1 SWAP2 DIV AND PUSH1 0x60 DUP3 ADD MSTORE DUP2 SWAP1 PUSH2 0x27F9 JUMP JUMPDEST DUP4 MLOAD PUSH2 0x254F JUMPI POP POP POP PUSH1 0x80 DUP1 DUP3 ADD MLOAD PUSH1 0x2 SWAP1 DUP2 SIGNEXTEND SWAP1 SIGNEXTEND PUSH1 0x0 SWAP1 DUP2 MSTORE PUSH1 0xB PUSH1 0x20 SWAP1 DUP2 MSTORE PUSH1 0x40 SWAP2 DUP3 SWAP1 KECCAK256 DUP3 MLOAD SWAP4 DUP5 ADD DUP4 MSTORE DUP1 SLOAD PUSH1 0x1 PUSH1 0x1 PUSH1 0x80 SHL SUB DUP1 DUP3 AND DUP7 MSTORE PUSH1 0x1 PUSH1 0x80 SHL SWAP2 DUP3 SWAP1 DIV DUP2 AND SWAP4 DUP7 ADD SWAP4 SWAP1 SWAP4 MSTORE PUSH1 0x1 SWAP1 SWAP2 ADD SLOAD DUP1 DUP4 AND SWAP4 DUP6 ADD SWAP4 SWAP1 SWAP4 MSTORE SWAP1 SWAP2 DIV AND PUSH1 0x60 DUP3 ADD MSTORE DUP2 SWAP1 PUSH2 0x27F9 JUMP JUMPDEST PUSH2 0x256E DUP5 PUSH1 0x80 ADD MLOAD DUP6 PUSH1 0xA0 ADD MLOAD PUSH2 0x2567 JUMPI PUSH1 0x0 PUSH2 0x8C9 JUMP JUMPDEST PUSH1 0x1 PUSH2 0x20E3 JUMP JUMPDEST PUSH2 0x25AC JUMPI PUSH2 0x257A PUSH2 0x3A99 JUMP JUMPDEST PUSH2 0x2583 DUP6 PUSH2 0x2AD9 JUMP JUMPDEST DUP2 MLOAD SWAP2 SWAP7 POP SWAP2 POP PUSH2 0x259A JUMPI DUP5 SWAP4 POP SWAP2 POP PUSH2 0x27F9 SWAP1 POP JUMP JUMPDEST POP DUP4 MLOAD PUSH1 0x40 DUP6 ADD DUP1 MLOAD SWAP2 DUP4 SUB SWAP1 SWAP2 ADD SWAP1 MSTORE JUMPDEST DUP4 PUSH1 0xA0 ADD MLOAD DUP1 ISZERO PUSH2 0x25D2 JUMPI POP PUSH2 0x100 DUP5 PUSH1 0x80 ADD MLOAD PUSH1 0x2 SIGNEXTEND DUP2 PUSH2 0x25CA JUMPI INVALID JUMPDEST SMOD PUSH1 0x2 SIGNEXTEND PUSH1 0xFF EQ JUMPDEST DUP1 PUSH2 0x25FD JUMPI POP DUP4 PUSH1 0xA0 ADD MLOAD ISZERO DUP1 ISZERO PUSH2 0x25FD JUMPI POP PUSH2 0x100 DUP5 PUSH1 0x80 ADD MLOAD PUSH1 0x2 SIGNEXTEND DUP2 PUSH2 0x25F7 JUMPI INVALID JUMPDEST SMOD PUSH1 0x2 SIGNEXTEND ISZERO JUMPDEST ISZERO PUSH2 0x2632 JUMPI PUSH1 0x1 JUMPDEST DUP1 ISZERO PUSH2 0x261E JUMPI PUSH2 0x2614 DUP6 PUSH2 0x2E10 JUMP JUMPDEST SWAP1 SWAP6 POP SWAP1 POP PUSH2 0x2605 JUMP JUMPDEST PUSH2 0x2627 DUP6 PUSH2 0x244C JUMP JUMPDEST SWAP4 POP SWAP4 POP POP POP PUSH2 0x27F9 JUMP JUMPDEST PUSH1 0x0 PUSH2 0x2665 DUP6 PUSH1 0xA0 ADD MLOAD PUSH2 0x264D JUMPI PUSH1 0x1 DUP7 PUSH1 0x80 ADD MLOAD SUB PUSH2 0x2653 JUMP JUMPDEST DUP6 PUSH1 0x80 ADD MLOAD JUMPDEST PUSH1 0xA0 DUP8 ADD MLOAD PUSH1 0x10 SWAP2 SWAP1 PUSH1 0x1 SWAP1 ISZERO PUSH2 0x31F9 JUMP JUMPDEST POP SWAP1 POP DUP5 PUSH1 0xA0 ADD MLOAD DUP1 ISZERO PUSH2 0x2682 JUMPI POP DUP5 PUSH1 0xC0 ADD MLOAD PUSH1 0x2 SIGNEXTEND DUP2 PUSH1 0x2 SIGNEXTEND SGT JUMPDEST DUP1 PUSH2 0x26A3 JUMPI POP DUP5 PUSH1 0xA0 ADD MLOAD ISZERO DUP1 ISZERO PUSH2 0x26A3 JUMPI POP DUP5 PUSH1 0xC0 ADD MLOAD PUSH1 0x2 SIGNEXTEND DUP2 PUSH1 0x2 SIGNEXTEND SLT JUMPDEST ISZERO PUSH2 0x26AF JUMPI POP PUSH1 0xC0 DUP5 ADD MLOAD JUMPDEST PUSH1 0x0 DUP1 PUSH1 0x0 PUSH2 0x270C PUSH1 0x40 MLOAD DUP1 PUSH1 0xE0 ADD PUSH1 0x40 MSTORE DUP1 DUP11 PUSH1 0x0 ADD MLOAD DUP2 MSTORE PUSH1 0x20 ADD PUSH1 0x0 DUP2 MSTORE PUSH1 0x20 ADD DUP11 PUSH1 0x60 ADD MLOAD PUSH1 0x1 PUSH1 0x1 PUSH1 0xA0 SHL SUB AND DUP2 MSTORE PUSH1 0x20 ADD DUP7 PUSH1 0x2 SIGNEXTEND DUP2 MSTORE PUSH1 0x20 ADD PUSH1 0x0 DUP2 MSTORE PUSH1 0x20 ADD PUSH1 0x0 DUP2 MSTORE PUSH1 0x20 ADD DUP11 PUSH1 0xA0 ADD MLOAD ISZERO ISZERO DUP2 MSTORE POP PUSH2 0x21FC JUMP JUMPDEST SWAP3 POP SWAP3 POP SWAP3 POP DUP3 ISZERO PUSH2 0x2763 JUMPI DUP8 MLOAD DUP2 SWAP1 SUB DUP9 MSTORE PUSH1 0x20 DUP9 ADD DUP1 MLOAD DUP4 ADD SWAP1 MSTORE PUSH2 0x2732 DUP5 PUSH2 0x13D1 JUMP JUMPDEST PUSH1 0x1 PUSH1 0x1 PUSH1 0xA0 SHL SUB AND PUSH1 0x60 DUP10 ADD MSTORE PUSH1 0x2 DUP5 DUP2 SIGNEXTEND SWAP1 SIGNEXTEND PUSH1 0x80 DUP10 ADD MSTORE PUSH2 0x2755 DUP9 PUSH2 0x244C JUMP JUMPDEST SWAP7 POP SWAP7 POP POP POP POP POP POP PUSH2 0x27F9 JUMP JUMPDEST PUSH2 0x276C DUP9 PUSH2 0x22C6 JUMP JUMPDEST PUSH1 0x0 DUP2 MSTORE PUSH1 0x60 DUP2 ADD MLOAD SWAP1 SWAP9 POP PUSH2 0x2781 SWAP1 PUSH2 0xE5B JUMP JUMPDEST PUSH1 0x2 SWAP1 DUP2 SIGNEXTEND DUP2 SIGNEXTEND PUSH1 0x80 DUP1 DUP12 ADD SWAP2 SWAP1 SWAP2 MSTORE SWAP5 DUP2 SIGNEXTEND SWAP1 SIGNEXTEND PUSH1 0x0 SWAP1 DUP2 MSTORE PUSH1 0xB PUSH1 0x20 SWAP1 DUP2 MSTORE PUSH1 0x40 SWAP2 DUP3 SWAP1 KECCAK256 DUP3 MLOAD SWAP7 DUP8 ADD DUP4 MSTORE DUP1 SLOAD PUSH1 0x1 PUSH1 0x1 PUSH1 0x80 SHL SUB DUP1 DUP3 AND DUP10 MSTORE PUSH1 0x1 PUSH1 0x80 SHL SWAP2 DUP3 SWAP1 DIV DUP2 AND SWAP4 DUP10 ADD SWAP4 SWAP1 SWAP4 MSTORE PUSH1 0x1 SWAP1 SWAP2 ADD SLOAD DUP1 DUP4 AND SWAP4 DUP9 ADD SWAP4 SWAP1 SWAP4 MSTORE SWAP1 SWAP2 DIV AND PUSH1 0x60 DUP6 ADD MSTORE POP DUP7 SWAP6 POP SWAP2 SWAP4 POP PUSH2 0x27F9 SWAP3 POP POP POP JUMP JUMPDEST SWAP2 POP SWAP2 JUMP JUMPDEST PUSH1 0x0 PUSH1 0x15 DUP3 PUSH1 0x2 DUP2 LT PUSH2 0x280D JUMPI INVALID JUMPDEST ADD PUSH1 0x0 DUP5 PUSH1 0x2 SIGNEXTEND PUSH1 0x2 SIGNEXTEND DUP2 MSTORE PUSH1 0x20 ADD SWAP1 DUP2 MSTORE PUSH1 0x20 ADD PUSH1 0x0 KECCAK256 PUSH1 0x0 ADD DUP2 SWAP1 SSTORE POP PUSH1 0x0 PUSH1 0x15 DUP3 PUSH1 0x2 DUP2 LT PUSH2 0x283B JUMPI INVALID JUMPDEST ADD PUSH1 0x0 DUP5 PUSH1 0x2 SIGNEXTEND PUSH1 0x2 SIGNEXTEND DUP2 MSTORE PUSH1 0x20 ADD SWAP1 DUP2 MSTORE PUSH1 0x20 ADD PUSH1 0x0 KECCAK256 PUSH1 0x1 ADD DUP2 SWAP1 SSTORE POP PUSH1 0x1 PUSH1 0x15 DUP3 PUSH1 0x2 DUP2 LT PUSH2 0x2869 JUMPI INVALID JUMPDEST PUSH1 0x2 SWAP5 DUP6 SIGNEXTEND DUP6 SIGNEXTEND PUSH1 0x0 SWAP1 DUP2 MSTORE SWAP2 ADD PUSH1 0x20 MSTORE PUSH1 0x40 SWAP1 KECCAK256 SWAP1 SWAP3 ADD DUP1 SLOAD SWAP1 SWAP3 ADD SWAP1 SWAP2 SSTORE POP JUMP JUMPDEST DUP1 ISZERO PUSH2 0x297C JUMPI PUSH1 0x0 PUSH1 0x15 DUP4 PUSH1 0x2 DUP2 LT PUSH2 0x28A1 JUMPI INVALID JUMPDEST PUSH1 0x2 DUP7 DUP2 SIGNEXTEND SWAP1 SIGNEXTEND PUSH1 0x0 SWAP1 DUP2 MSTORE SWAP2 ADD PUSH1 0x20 MSTORE PUSH1 0x40 SWAP1 KECCAK256 SLOAD GT PUSH2 0x28F5 JUMPI PUSH1 0x40 DUP1 MLOAD PUSH3 0x461BCD PUSH1 0xE5 SHL DUP2 MSTORE PUSH1 0x20 PUSH1 0x4 DUP3 ADD MSTORE PUSH1 0x9 PUSH1 0x24 DUP3 ADD MSTORE PUSH9 0x2222A2A822A92927A9 PUSH1 0xB9 SHL PUSH1 0x44 DUP3 ADD MSTORE SWAP1 MLOAD SWAP1 DUP2 SWAP1 SUB PUSH1 0x64 ADD SWAP1 REVERT JUMPDEST PUSH2 0x2955 PUSH2 0x2929 DUP3 PUSH1 0x1 PUSH1 0x60 SHL PUSH1 0x15 DUP7 PUSH1 0x2 DUP2 LT PUSH2 0x290E JUMPI INVALID JUMPDEST PUSH1 0x2 DUP10 DUP2 SIGNEXTEND SWAP1 SIGNEXTEND PUSH1 0x0 SWAP1 DUP2 MSTORE SWAP2 ADD PUSH1 0x20 MSTORE PUSH1 0x40 SWAP1 KECCAK256 SLOAD PUSH2 0x2034 JUMP JUMPDEST PUSH1 0x15 DUP5 PUSH1 0x2 DUP2 LT PUSH2 0x2936 JUMPI INVALID JUMPDEST PUSH1 0x2 DUP8 DUP2 SIGNEXTEND SWAP1 SIGNEXTEND PUSH1 0x0 SWAP1 DUP2 MSTORE SWAP2 ADD PUSH1 0x20 MSTORE PUSH1 0x40 SWAP1 KECCAK256 PUSH1 0x1 ADD SLOAD SWAP1 PUSH2 0x333B JUMP JUMPDEST PUSH1 0x15 DUP4 PUSH1 0x2 DUP2 LT PUSH2 0x2962 JUMPI INVALID JUMPDEST PUSH1 0x2 DUP7 DUP2 SIGNEXTEND SWAP1 SIGNEXTEND PUSH1 0x0 SWAP1 DUP2 MSTORE SWAP2 ADD PUSH1 0x20 MSTORE PUSH1 0x40 SWAP1 KECCAK256 PUSH1 0x1 ADD SSTORE JUMPDEST POP POP POP JUMP JUMPDEST PUSH1 0x1 DUP1 PUSH1 0x2 DUP5 SWAP1 SIGNEXTEND SMOD PUSH1 0x2 SIGNEXTEND ISZERO PUSH2 0x2997 JUMPI PUSH1 0x0 DUP1 REVERT JUMPDEST PUSH1 0x0 DUP1 PUSH2 0x29B2 DUP4 PUSH1 0x2 SIGNEXTEND DUP7 PUSH1 0x2 SIGNEXTEND DUP2 PUSH2 0x29AC JUMPI INVALID JUMPDEST SDIV PUSH2 0x338A JUMP JUMPDEST PUSH1 0x1 DUP3 DUP2 SIGNEXTEND DUP2 SIGNEXTEND PUSH1 0x0 SWAP1 DUP2 MSTORE PUSH1 0x20 DUP11 SWAP1 MSTORE PUSH1 0x40 SWAP1 KECCAK256 SLOAD SWAP3 SWAP5 POP SWAP1 SWAP3 POP PUSH1 0xFF DUP4 AND SHL SWAP1 DUP1 DUP3 AND SWAP1 SUB DUP6 ISZERO PUSH2 0x29E2 JUMPI DUP2 ADD JUMPDEST PUSH1 0x1 DUP5 DUP2 SIGNEXTEND SWAP1 SIGNEXTEND PUSH1 0x0 SWAP1 DUP2 MSTORE PUSH1 0x20 DUP10 SWAP1 MSTORE PUSH1 0x40 SWAP1 KECCAK256 SLOAD DUP2 EQ PUSH2 0xAB1 JUMPI PUSH1 0x1 DUP5 DUP2 SIGNEXTEND SWAP1 SIGNEXTEND PUSH1 0x0 SWAP1 DUP2 MSTORE PUSH1 0x20 DUP10 SWAP1 MSTORE PUSH1 0x40 SWAP1 KECCAK256 DUP2 SWAP1 SSTORE POP POP POP POP POP POP POP POP JUMP JUMPDEST PUSH1 0x0 DUP2 ISZERO PUSH2 0x2A39 JUMPI POP PUSH2 0x4000 DUP3 ADD PUSH3 0x803FFF NOT AND PUSH2 0x7CE JUMP JUMPDEST POP POP PUSH3 0x803FFF NOT AND PUSH1 0x0 NOT ADD SWAP1 JUMP JUMPDEST PUSH1 0x0 DUP2 ISZERO PUSH2 0x2A69 JUMPI PUSH1 0x8 DUP1 DUP5 PUSH2 0x100 ADD PUSH1 0x2 SIGNEXTEND SWAP1 SAR PUSH1 0x2 SIGNEXTEND SWAP1 SHL SWAP1 POP PUSH2 0x7CE JUMP JUMPDEST PUSH1 0x1 PUSH1 0x8 DUP1 DUP6 PUSH1 0x2 SIGNEXTEND SWAP1 SAR PUSH1 0x2 SIGNEXTEND SWAP1 SHL SUB SWAP1 POP SWAP3 SWAP2 POP POP JUMP JUMPDEST DUP1 DUP3 DIV SWAP2 MOD ISZERO ISZERO ADD SWAP1 JUMP JUMPDEST PUSH1 0x0 DUP1 DUP6 PUSH1 0x1 PUSH1 0x1 PUSH1 0xA0 SHL SUB AND GT PUSH2 0x2AA4 JUMPI PUSH1 0x0 DUP1 REVERT JUMPDEST PUSH1 0x0 DUP5 PUSH1 0x1 PUSH1 0x1 PUSH1 0x80 SHL SUB AND GT PUSH2 0x2ABA JUMPI PUSH1 0x0 DUP1 REVERT JUMPDEST DUP2 PUSH2 0x2ACC JUMPI PUSH2 0x1F06 DUP6 DUP6 DUP6 PUSH1 0x1 PUSH2 0x339C JUMP JUMPDEST PUSH2 0x1F2E DUP6 DUP6 DUP6 PUSH1 0x1 PUSH2 0x347D JUMP JUMPDEST PUSH2 0x2AE1 PUSH2 0x3A5D JUMP JUMPDEST PUSH2 0x2AE9 PUSH2 0x3A99 JUMP JUMPDEST PUSH2 0x2B01 DUP4 PUSH1 0x80 ADD MLOAD DUP5 PUSH1 0xA0 ADD MLOAD PUSH2 0x2567 JUMPI PUSH1 0x0 PUSH2 0x8C9 JUMP JUMPDEST ISZERO PUSH2 0x2B33 JUMPI POP POP PUSH1 0x40 DUP1 MLOAD PUSH1 0x80 DUP2 ADD DUP3 MSTORE PUSH1 0x0 DUP1 DUP3 MSTORE PUSH1 0x20 DUP3 ADD DUP2 SWAP1 MSTORE SWAP2 DUP2 ADD DUP3 SWAP1 MSTORE PUSH1 0x60 DUP2 ADD SWAP2 SWAP1 SWAP2 MSTORE DUP2 SWAP1 PUSH2 0x27F9 JUMP JUMPDEST PUSH1 0x80 DUP1 DUP5 ADD MLOAD PUSH1 0x2 SWAP1 DUP2 SIGNEXTEND SWAP1 SIGNEXTEND PUSH1 0x0 SWAP1 DUP2 MSTORE PUSH1 0xB PUSH1 0x20 SWAP1 DUP2 MSTORE PUSH1 0x40 SWAP2 DUP3 SWAP1 KECCAK256 DUP3 MLOAD SWAP4 DUP5 ADD DUP4 MSTORE DUP1 SLOAD PUSH1 0x1 PUSH1 0x1 PUSH1 0x80 SHL SUB DUP1 DUP3 AND DUP7 MSTORE PUSH1 0x1 PUSH1 0x80 SHL SWAP2 DUP3 SWAP1 DIV DUP2 AND SWAP4 DUP7 ADD SWAP4 SWAP1 SWAP4 MSTORE PUSH1 0x1 SWAP1 SWAP2 ADD SLOAD DUP1 DUP4 AND SWAP4 DUP6 ADD SWAP4 SWAP1 SWAP4 MSTORE SWAP1 SWAP2 DIV AND PUSH1 0x60 DUP3 ADD MSTORE PUSH1 0xA0 DUP5 ADD MLOAD DUP1 ISZERO PUSH2 0x2BB1 JUMPI POP PUSH1 0x0 DUP2 PUSH1 0x40 ADD MLOAD PUSH1 0x1 PUSH1 0x1 PUSH1 0x80 SHL SUB AND GT JUMPDEST ISZERO PUSH2 0x2CC6 JUMPI PUSH1 0x0 PUSH2 0x2BCA DUP6 PUSH1 0x0 ADD MLOAD DUP7 PUSH1 0x60 ADD MLOAD PUSH2 0x779 JUMP JUMPDEST SWAP1 POP DUP1 DUP3 PUSH1 0x40 ADD MLOAD PUSH1 0x1 PUSH1 0x1 PUSH1 0x80 SHL SUB AND LT PUSH2 0x2C3B JUMPI PUSH2 0x2BE9 DUP2 PUSH2 0x1EA3 JUMP JUMPDEST PUSH1 0x40 DUP4 ADD DUP1 MLOAD SWAP2 SWAP1 SWAP2 SUB PUSH1 0x1 PUSH1 0x1 PUSH1 0x80 SHL SUB AND SWAP1 MSTORE DUP5 MLOAD PUSH2 0x2C09 SWAP1 PUSH2 0x1EA3 JUMP JUMPDEST PUSH1 0x60 DUP4 ADD DUP1 MLOAD SWAP2 SWAP1 SWAP2 ADD PUSH1 0x1 PUSH1 0x1 PUSH1 0x80 SHL SUB AND SWAP1 MSTORE PUSH1 0x0 DUP6 MSTORE PUSH1 0x20 DUP6 ADD MLOAD PUSH2 0x2C31 SWAP1 DUP3 PUSH2 0x333B JUMP JUMPDEST PUSH1 0x20 DUP7 ADD MSTORE PUSH2 0x2CC0 JUMP JUMPDEST PUSH1 0x0 PUSH2 0x2C58 DUP4 PUSH1 0x40 ADD MLOAD PUSH1 0x1 PUSH1 0x1 PUSH1 0x80 SHL SUB AND DUP8 PUSH1 0x60 ADD MLOAD PUSH2 0x7D4 JUMP JUMPDEST DUP7 MLOAD SWAP1 SWAP2 POP PUSH2 0x2C67 SWAP1 DUP3 PUSH2 0x1FE4 JUMP JUMPDEST DUP1 DUP8 MSTORE ISZERO PUSH2 0x2C78 JUMPI DUP6 MLOAD PUSH1 0x0 NOT ADD DUP7 MSTORE JUMPDEST PUSH1 0x40 DUP4 ADD MLOAD PUSH1 0x20 DUP8 ADD MLOAD PUSH2 0x2C94 SWAP2 PUSH1 0x1 PUSH1 0x1 PUSH1 0x80 SHL SUB AND PUSH2 0x333B JUMP JUMPDEST PUSH1 0x20 DUP8 ADD MSTORE PUSH2 0x2CA2 DUP2 PUSH2 0x1EA3 JUMP JUMPDEST PUSH1 0x60 DUP5 ADD DUP1 MLOAD SWAP2 SWAP1 SWAP2 ADD PUSH1 0x1 PUSH1 0x1 PUSH1 0x80 SHL SUB AND SWAP1 MSTORE POP PUSH1 0x0 PUSH1 0x40 DUP4 ADD MSTORE JUMPDEST POP PUSH2 0x2E09 JUMP JUMPDEST DUP4 PUSH1 0xA0 ADD MLOAD ISZERO DUP1 ISZERO PUSH2 0x2CE1 JUMPI POP DUP1 MLOAD PUSH1 0x1 PUSH1 0x1 PUSH1 0x80 SHL SUB AND ISZERO ISZERO JUMPDEST ISZERO PUSH2 0x2E09 JUMPI DUP4 MLOAD DUP2 MLOAD PUSH1 0x60 DUP7 ADD MLOAD PUSH2 0x2D02 SWAP2 PUSH1 0x1 PUSH1 0x1 PUSH1 0x80 SHL SUB AND SWAP1 PUSH2 0x779 JUMP JUMPDEST LT PUSH2 0x2D8A JUMPI PUSH1 0x0 PUSH2 0x2D1B DUP6 PUSH1 0x0 ADD MLOAD DUP7 PUSH1 0x60 ADD MLOAD PUSH2 0x7D4 JUMP JUMPDEST SWAP1 POP PUSH2 0x2D26 DUP2 PUSH2 0x1EA3 JUMP JUMPDEST DUP3 MLOAD SUB PUSH1 0x1 PUSH1 0x1 PUSH1 0x80 SHL SUB AND DUP1 DUP4 MSTORE ISZERO PUSH2 0x2D4C JUMPI DUP2 MLOAD PUSH1 0x0 NOT ADD PUSH1 0x1 PUSH1 0x1 PUSH1 0x80 SHL SUB AND DUP3 MSTORE JUMPDEST DUP5 MLOAD PUSH2 0x2D57 SWAP1 PUSH2 0x1EA3 JUMP JUMPDEST PUSH1 0x20 DUP4 DUP2 ADD DUP1 MLOAD SWAP3 SWAP1 SWAP3 ADD PUSH1 0x1 PUSH1 0x1 PUSH1 0x80 SHL SUB AND SWAP1 SWAP2 MSTORE PUSH1 0x0 DUP7 MSTORE DUP6 ADD MLOAD PUSH2 0x2D7F SWAP1 DUP3 PUSH2 0x333B JUMP JUMPDEST PUSH1 0x20 DUP7 ADD MSTORE POP PUSH2 0x2E09 JUMP JUMPDEST PUSH1 0x0 PUSH2 0x2DA7 DUP3 PUSH1 0x0 ADD MLOAD PUSH1 0x1 PUSH1 0x1 PUSH1 0x80 SHL SUB AND DUP7 PUSH1 0x60 ADD MLOAD PUSH2 0x779 JUMP JUMPDEST DUP6 MLOAD SWAP1 SWAP2 POP PUSH2 0x2DB6 SWAP1 DUP3 PUSH2 0x1FE4 JUMP JUMPDEST DUP1 DUP7 MSTORE ISZERO PUSH2 0x2DC7 JUMPI DUP5 MLOAD PUSH1 0x0 NOT ADD DUP6 MSTORE JUMPDEST DUP2 MLOAD PUSH1 0x20 DUP7 ADD MLOAD PUSH2 0x2DE0 SWAP2 PUSH1 0x1 PUSH1 0x1 PUSH1 0x80 SHL SUB AND PUSH2 0x333B JUMP JUMPDEST PUSH1 0x20 DUP7 ADD MSTORE PUSH2 0x2DEE DUP2 PUSH2 0x1EA3 JUMP JUMPDEST PUSH1 0x20 DUP4 ADD DUP1 MLOAD SWAP2 SWAP1 SWAP2 ADD PUSH1 0x1 PUSH1 0x1 PUSH1 0x80 SHL SUB AND SWAP1 MSTORE POP PUSH1 0x0 DUP2 MSTORE JUMPDEST SWAP3 SWAP4 SWAP2 POP POP JUMP JUMPDEST PUSH2 0x2E18 PUSH2 0x3A5D JUMP JUMPDEST PUSH1 0x0 DUP3 PUSH1 0x80 ADD MLOAD PUSH1 0x2 SIGNEXTEND DUP4 PUSH1 0xC0 ADD MLOAD PUSH1 0x2 SIGNEXTEND EQ ISZERO PUSH2 0x2E3B JUMPI POP DUP2 SWAP1 POP PUSH1 0x0 PUSH2 0x27F9 JUMP JUMPDEST DUP3 MLOAD PUSH2 0x2E4C JUMPI POP DUP2 SWAP1 POP PUSH1 0x0 PUSH2 0x27F9 JUMP JUMPDEST PUSH1 0x0 DUP1 PUSH1 0x0 PUSH2 0x2E5E DUP7 PUSH1 0x80 ADD MLOAD PUSH2 0x2185 JUMP JUMPDEST POP SWAP3 POP SWAP3 POP SWAP3 POP DUP6 PUSH1 0xA0 ADD MLOAD DUP1 ISZERO PUSH2 0x2E79 JUMPI POP DUP2 PUSH1 0xFF AND PUSH1 0x3F EQ JUMPDEST DUP1 PUSH2 0x2E92 JUMPI POP DUP6 PUSH1 0xA0 ADD MLOAD ISZERO DUP1 ISZERO PUSH2 0x2E92 JUMPI POP PUSH1 0xFF DUP3 AND ISZERO JUMPDEST ISZERO PUSH2 0x2EC3 JUMPI PUSH1 0x1 JUMPDEST DUP1 ISZERO PUSH2 0x2EB3 JUMPI PUSH2 0x2EA9 DUP8 PUSH2 0x3560 JUMP JUMPDEST SWAP1 SWAP8 POP SWAP1 POP PUSH2 0x2E9A JUMP JUMPDEST DUP7 PUSH1 0x1 SWAP6 POP SWAP6 POP POP POP POP POP PUSH2 0x27F9 JUMP JUMPDEST DUP6 PUSH1 0xA0 ADD MLOAD PUSH2 0x2ED5 JUMPI PUSH1 0x1 DUP3 SUB PUSH2 0x2EDA JUMP JUMPDEST DUP2 PUSH1 0x1 ADD JUMPDEST SWAP2 POP DUP6 PUSH1 0xA0 ADD MLOAD PUSH2 0x2EEE JUMPI PUSH1 0x1 DUP2 SUB PUSH2 0x2EF3 JUMP JUMPDEST DUP1 PUSH1 0x1 ADD JUMPDEST SWAP1 POP PUSH1 0x0 DUP7 PUSH1 0xA0 ADD MLOAD PUSH2 0x2F1A JUMPI PUSH1 0xFF PUSH2 0x2F14 DUP9 PUSH1 0x80 ADD MLOAD DUP10 PUSH1 0xA0 ADD MLOAD PUSH2 0x2A48 JUMP JUMPDEST SUB PUSH2 0x2F30 JUMP JUMPDEST PUSH2 0x2F2C DUP8 PUSH1 0x80 ADD MLOAD DUP9 PUSH1 0xA0 ADD MLOAD PUSH2 0x2A48 JUMP JUMPDEST PUSH1 0xFF ADD JUMPDEST SWAP1 POP PUSH1 0x0 PUSH2 0x2F72 PUSH1 0x7 DUP10 PUSH1 0xA0 ADD MLOAD PUSH2 0x2F49 JUMPI PUSH1 0x0 PUSH2 0x2F4C JUMP JUMPDEST PUSH1 0x1 JUMPDEST PUSH1 0xFF AND PUSH1 0x2 DUP2 LT PUSH2 0x2F59 JUMPI INVALID JUMPDEST PUSH1 0x0 DUP9 DUP2 SIGNEXTEND DUP2 SIGNEXTEND DUP2 MSTORE SWAP2 ADD PUSH1 0x20 MSTORE PUSH1 0x40 SWAP1 KECCAK256 SLOAD DUP6 PUSH2 0x21CD JUMP JUMPDEST PUSH2 0x2FB3 JUMPI PUSH1 0xE DUP9 PUSH1 0xA0 ADD MLOAD PUSH2 0x2F88 JUMPI PUSH1 0x1 PUSH2 0x2F8B JUMP JUMPDEST PUSH1 0x0 JUMPDEST PUSH1 0xFF AND PUSH1 0x2 DUP2 LT PUSH2 0x2F98 JUMPI INVALID JUMPDEST PUSH1 0x1 DUP6 DUP2 SIGNEXTEND SWAP1 SIGNEXTEND PUSH1 0x0 SWAP1 DUP2 MSTORE SWAP2 ADD PUSH1 0x20 MSTORE PUSH1 0x40 SWAP1 KECCAK256 SLOAD PUSH2 0x2FB6 JUMP JUMPDEST PUSH1 0x0 JUMPDEST SWAP1 POP PUSH1 0x0 DUP2 PUSH1 0x1 PUSH1 0x1 PUSH1 0x80 SHL SUB AND SWAP1 POP PUSH1 0x80 DUP3 SWAP1 SHR SWAP2 POP PUSH1 0x0 DUP1 PUSH1 0x0 PUSH2 0x3028 PUSH1 0x40 MLOAD DUP1 PUSH1 0xE0 ADD PUSH1 0x40 MSTORE DUP1 DUP15 PUSH1 0x0 ADD MLOAD DUP2 MSTORE PUSH1 0x20 ADD PUSH1 0x0 DUP2 MSTORE PUSH1 0x20 ADD DUP15 PUSH1 0x60 ADD MLOAD PUSH1 0x1 PUSH1 0x1 PUSH1 0xA0 SHL SUB AND DUP2 MSTORE PUSH1 0x20 ADD DUP9 PUSH1 0x2 SIGNEXTEND DUP2 MSTORE PUSH1 0x20 ADD DUP8 DUP2 MSTORE PUSH1 0x20 ADD DUP7 DUP2 MSTORE PUSH1 0x20 ADD DUP15 PUSH1 0xA0 ADD MLOAD ISZERO ISZERO DUP2 MSTORE POP PUSH2 0x21FC JUMP JUMPDEST SWAP3 POP SWAP3 POP SWAP3 POP DUP3 DUP1 ISZERO PUSH2 0x3061 JUMPI POP DUP12 PUSH1 0xA0 ADD MLOAD PUSH2 0x3052 JUMPI DUP6 PUSH1 0x2 SIGNEXTEND DUP13 PUSH1 0xC0 ADD MLOAD PUSH1 0x2 SIGNEXTEND SGT ISZERO PUSH2 0x3061 JUMP JUMPDEST DUP6 PUSH1 0x2 SIGNEXTEND DUP13 PUSH1 0xC0 ADD MLOAD PUSH1 0x2 SIGNEXTEND SLT ISZERO JUMPDEST ISZERO PUSH2 0x30FA JUMPI PUSH2 0x30A4 PUSH1 0x7 DUP14 PUSH1 0xA0 ADD MLOAD PUSH2 0x307B JUMPI PUSH1 0x0 PUSH2 0x307E JUMP JUMPDEST PUSH1 0x1 JUMPDEST PUSH1 0xFF AND PUSH1 0x2 DUP2 LT PUSH2 0x308B JUMPI INVALID JUMPDEST PUSH1 0x0 DUP13 DUP2 SIGNEXTEND DUP2 SIGNEXTEND DUP2 MSTORE SWAP2 ADD PUSH1 0x20 MSTORE PUSH1 0x40 SWAP1 KECCAK256 SLOAD DUP10 PUSH2 0x21CD JUMP JUMPDEST POP DUP12 MLOAD DUP5 DUP3 ADD SWAP1 SUB DUP13 MSTORE PUSH1 0x20 DUP13 ADD DUP1 MLOAD DUP4 ADD SWAP1 MSTORE PUSH1 0x40 DUP13 ADD DUP1 MLOAD DUP6 ADD SWAP1 MSTORE PUSH2 0x30CB DUP7 PUSH2 0x13D1 JUMP JUMPDEST PUSH1 0x1 PUSH1 0x1 PUSH1 0xA0 SHL SUB AND PUSH1 0x60 DUP14 ADD MSTORE POP POP POP POP POP PUSH1 0x2 SWAP1 DUP2 SIGNEXTEND SWAP1 SIGNEXTEND PUSH1 0x80 DUP8 ADD MSTORE POP DUP5 SWAP4 POP PUSH1 0x1 SWAP3 POP PUSH2 0x27F9 SWAP2 POP POP JUMP JUMPDEST PUSH2 0x310C DUP13 PUSH1 0x80 ADD MLOAD DUP14 PUSH1 0xA0 ADD MLOAD PUSH2 0x2A48 JUMP JUMPDEST SWAP6 POP PUSH2 0x3166 PUSH1 0x40 MLOAD DUP1 PUSH1 0xE0 ADD PUSH1 0x40 MSTORE DUP1 DUP15 PUSH1 0x0 ADD MLOAD DUP2 MSTORE PUSH1 0x20 ADD PUSH1 0x0 DUP2 MSTORE PUSH1 0x20 ADD DUP15 PUSH1 0x60 ADD MLOAD PUSH1 0x1 PUSH1 0x1 PUSH1 0xA0 SHL SUB AND DUP2 MSTORE PUSH1 0x20 ADD DUP9 PUSH1 0x2 SIGNEXTEND DUP2 MSTORE PUSH1 0x20 ADD PUSH1 0x0 DUP2 MSTORE PUSH1 0x20 ADD PUSH1 0x0 DUP2 MSTORE PUSH1 0x20 ADD DUP15 PUSH1 0xA0 ADD MLOAD ISZERO ISZERO DUP2 MSTORE POP PUSH2 0x21FC JUMP JUMPDEST SWAP2 SWAP5 POP SWAP3 POP SWAP1 POP DUP3 DUP1 ISZERO PUSH2 0x317A JUMPI POP PUSH1 0x0 DUP6 GT JUMPDEST ISZERO PUSH2 0x31C8 JUMPI DUP12 MLOAD DUP2 SWAP1 SUB DUP13 MSTORE PUSH1 0x20 DUP13 ADD DUP1 MLOAD DUP4 ADD SWAP1 MSTORE PUSH2 0x3199 DUP7 PUSH2 0x13D1 JUMP JUMPDEST PUSH1 0x1 PUSH1 0x1 PUSH1 0xA0 SHL SUB AND PUSH1 0x60 DUP14 ADD MSTORE POP POP POP POP POP PUSH1 0x2 SWAP1 DUP2 SIGNEXTEND SWAP1 SIGNEXTEND PUSH1 0x80 DUP8 ADD MSTORE POP DUP5 SWAP4 POP PUSH1 0x0 SWAP3 POP PUSH2 0x27F9 SWAP2 POP POP JUMP JUMPDEST PUSH1 0x60 DUP13 ADD DUP1 MLOAD PUSH1 0x1 PUSH1 0x1 PUSH1 0xA0 SHL SUB AND SWAP1 MSTORE PUSH2 0x31E2 DUP13 PUSH2 0x22C6 JUMP JUMPDEST SWAP12 POP DUP12 PUSH1 0x0 SWAP11 POP SWAP11 POP POP POP POP POP POP POP POP POP POP PUSH2 0x27F9 JUMP JUMPDEST PUSH1 0x0 DUP1 PUSH1 0x0 DUP5 PUSH1 0x2 SIGNEXTEND DUP7 PUSH1 0x2 SIGNEXTEND DUP2 PUSH2 0x320D JUMPI INVALID JUMPDEST SDIV SWAP1 POP PUSH1 0x0 DUP7 PUSH1 0x2 SIGNEXTEND SLT DUP1 ISZERO PUSH2 0x3234 JUMPI POP DUP5 PUSH1 0x2 SIGNEXTEND DUP7 PUSH1 0x2 SIGNEXTEND DUP2 PUSH2 0x322D JUMPI INVALID JUMPDEST SMOD PUSH1 0x2 SIGNEXTEND ISZERO ISZERO JUMPDEST ISZERO PUSH2 0x323E JUMPI PUSH1 0x0 NOT ADD JUMPDEST DUP4 ISZERO PUSH2 0x32B3 JUMPI PUSH1 0x0 DUP1 PUSH2 0x3250 DUP4 PUSH2 0x338A JUMP JUMPDEST PUSH1 0x1 DUP3 DUP2 SIGNEXTEND DUP2 SIGNEXTEND PUSH1 0x0 SWAP1 DUP2 MSTORE PUSH1 0x20 DUP14 SWAP1 MSTORE PUSH1 0x40 SWAP1 KECCAK256 SLOAD PUSH1 0xFF DUP4 AND SWAP2 SWAP1 SWAP2 SHL DUP1 ADD PUSH1 0x0 NOT ADD SWAP1 DUP2 AND DUP1 ISZERO ISZERO SWAP8 POP SWAP3 SWAP5 POP SWAP1 SWAP3 POP SWAP1 DUP6 PUSH2 0x3295 JUMPI DUP9 DUP4 PUSH1 0xFF AND DUP7 SUB MUL PUSH2 0x32A8 JUMP JUMPDEST DUP9 PUSH2 0x329F DUP3 PUSH2 0x38BD JUMP JUMPDEST DUP5 SUB PUSH1 0xFF AND DUP7 SUB MUL JUMPDEST SWAP7 POP POP POP POP POP PUSH2 0x3331 JUMP JUMPDEST PUSH1 0x0 DUP1 PUSH2 0x32C2 DUP4 PUSH1 0x1 ADD PUSH2 0x338A JUMP JUMPDEST SWAP2 POP SWAP2 POP PUSH1 0x0 PUSH1 0x1 DUP3 PUSH1 0xFF AND PUSH1 0x1 SWAP1 SHL SUB NOT SWAP1 POP PUSH1 0x0 DUP2 DUP12 PUSH1 0x0 DUP7 PUSH1 0x1 SIGNEXTEND PUSH1 0x1 SIGNEXTEND DUP2 MSTORE PUSH1 0x20 ADD SWAP1 DUP2 MSTORE PUSH1 0x20 ADD PUSH1 0x0 KECCAK256 SLOAD AND SWAP1 POP DUP1 PUSH1 0x0 EQ ISZERO SWAP6 POP DUP6 PUSH2 0x3314 JUMPI DUP9 DUP4 PUSH1 0xFF SUB PUSH1 0xFF AND DUP7 PUSH1 0x1 ADD ADD MUL PUSH2 0x332A JUMP JUMPDEST DUP9 DUP4 PUSH2 0x331F DUP4 PUSH2 0x395D JUMP JUMPDEST SUB PUSH1 0xFF AND DUP7 PUSH1 0x1 ADD ADD MUL JUMPDEST SWAP7 POP POP POP POP POP JUMPDEST POP SWAP5 POP SWAP5 SWAP3 POP POP POP JUMP JUMPDEST DUP1 DUP3 ADD DUP3 DUP2 LT ISZERO PUSH2 0x7CE JUMPI PUSH1 0x40 DUP1 MLOAD PUSH3 0x461BCD PUSH1 0xE5 SHL DUP2 MSTORE PUSH1 0x20 PUSH1 0x4 DUP3 ADD MSTORE PUSH1 0x14 PUSH1 0x24 DUP3 ADD MSTORE PUSH20 0x64732D6D6174682D6164642D6F766572666C6F77 PUSH1 0x60 SHL PUSH1 0x44 DUP3 ADD MSTORE SWAP1 MLOAD SWAP1 DUP2 SWAP1 SUB PUSH1 0x64 ADD SWAP1 REVERT JUMPDEST PUSH1 0x2 SIGNEXTEND PUSH1 0x8 DUP2 SWAP1 SAR SWAP2 PUSH2 0x100 SWAP1 SWAP2 SMOD SWAP1 JUMP JUMPDEST PUSH1 0x0 DUP2 ISZERO PUSH2 0x340F JUMPI PUSH1 0x0 PUSH1 0x1 PUSH1 0x1 PUSH1 0xA0 SHL SUB DUP5 GT ISZERO PUSH2 0x33D2 JUMPI PUSH2 0x33CD DUP5 PUSH1 0x1 PUSH1 0x60 SHL DUP8 PUSH1 0x1 PUSH1 0x1 PUSH1 0x80 SHL SUB AND PUSH2 0x2034 JUMP JUMPDEST PUSH2 0x33EA JUMP JUMPDEST PUSH1 0x1 PUSH1 0x1 PUSH1 0x80 SHL SUB DUP6 AND PUSH1 0x60 DUP6 SWAP1 SHL DUP2 PUSH2 0x33E8 JUMPI INVALID JUMPDEST DIV JUMPDEST SWAP1 POP PUSH2 0x3407 PUSH2 0x3402 PUSH1 0x1 PUSH1 0x1 PUSH1 0xA0 SHL SUB DUP9 AND DUP4 PUSH2 0x333B JUMP JUMPDEST PUSH2 0x3A47 JUMP JUMPDEST SWAP2 POP POP PUSH2 0x1F31 JUMP JUMPDEST PUSH1 0x0 PUSH1 0x1 PUSH1 0x1 PUSH1 0xA0 SHL SUB DUP5 GT ISZERO PUSH2 0x343D JUMPI PUSH2 0x3438 DUP5 PUSH1 0x1 PUSH1 0x60 SHL DUP8 PUSH1 0x1 PUSH1 0x1 PUSH1 0x80 SHL SUB AND PUSH2 0x1396 JUMP JUMPDEST PUSH2 0x3454 JUMP JUMPDEST PUSH2 0x3454 PUSH1 0x60 DUP6 SWAP1 SHL PUSH1 0x1 PUSH1 0x1 PUSH1 0x80 SHL SUB DUP8 AND PUSH2 0x2A82 JUMP JUMPDEST SWAP1 POP DUP1 DUP7 PUSH1 0x1 PUSH1 0x1 PUSH1 0xA0 SHL SUB AND GT PUSH2 0x346B JUMPI PUSH1 0x0 DUP1 REVERT JUMPDEST PUSH1 0x1 PUSH1 0x1 PUSH1 0xA0 SHL SUB DUP7 AND SUB SWAP1 POP PUSH2 0x1F31 JUMP JUMPDEST PUSH1 0x0 DUP3 PUSH2 0x348B JUMPI POP DUP4 PUSH2 0x1F31 JUMP JUMPDEST PUSH1 0x1 PUSH1 0x60 SHL PUSH1 0x1 PUSH1 0xE0 SHL SUB PUSH1 0x60 DUP6 SWAP1 SHL AND DUP3 ISZERO PUSH2 0x3519 JUMPI PUSH1 0x1 PUSH1 0x1 PUSH1 0xA0 SHL SUB DUP7 AND DUP5 DUP2 MUL SWAP1 DUP6 DUP3 DUP2 PUSH2 0x34B9 JUMPI INVALID JUMPDEST DIV EQ ISZERO PUSH2 0x34EA JUMPI DUP2 DUP2 ADD DUP3 DUP2 LT PUSH2 0x34E8 JUMPI PUSH2 0x34DE DUP4 DUP10 PUSH1 0x1 PUSH1 0x1 PUSH1 0xA0 SHL SUB AND DUP4 PUSH2 0x1396 JUMP JUMPDEST SWAP4 POP POP POP POP PUSH2 0x1F31 JUMP JUMPDEST POP JUMPDEST PUSH2 0x3510 DUP3 PUSH2 0x350B DUP8 DUP11 PUSH1 0x1 PUSH1 0x1 PUSH1 0xA0 SHL SUB AND DUP7 DUP2 PUSH2 0x3504 JUMPI INVALID JUMPDEST DIV SWAP1 PUSH2 0x333B JUMP JUMPDEST PUSH2 0x2A82 JUMP JUMPDEST SWAP3 POP POP POP PUSH2 0x1F31 JUMP JUMPDEST PUSH1 0x1 PUSH1 0x1 PUSH1 0xA0 SHL SUB DUP7 AND DUP5 DUP2 MUL SWAP1 DUP6 DUP3 DUP2 PUSH2 0x3530 JUMPI INVALID JUMPDEST DIV EQ DUP1 ISZERO PUSH2 0x353D JUMPI POP DUP1 DUP3 GT JUMPDEST PUSH2 0x3546 JUMPI PUSH1 0x0 DUP1 REVERT JUMPDEST DUP1 DUP3 SUB PUSH2 0x34DE PUSH2 0x3402 DUP5 PUSH1 0x1 PUSH1 0x1 PUSH1 0xA0 SHL SUB DUP12 AND DUP5 PUSH2 0x1396 JUMP JUMPDEST PUSH2 0x3568 PUSH2 0x3A5D JUMP JUMPDEST PUSH1 0x0 DUP3 PUSH1 0x80 ADD MLOAD PUSH1 0x2 SIGNEXTEND DUP4 PUSH1 0xC0 ADD MLOAD PUSH1 0x2 SIGNEXTEND EQ ISZERO PUSH2 0x358B JUMPI POP DUP2 SWAP1 POP PUSH1 0x0 PUSH2 0x27F9 JUMP JUMPDEST PUSH1 0x0 PUSH2 0x359A DUP5 PUSH1 0x80 ADD MLOAD PUSH2 0x2185 JUMP JUMPDEST POP SWAP2 SWAP3 POP POP POP PUSH1 0x3F PUSH1 0x1 DUP3 ADD PUSH1 0x0 SIGNEXTEND SLT DUP1 ISZERO SWAP1 PUSH2 0x35B8 JUMPI POP DUP4 PUSH1 0xA0 ADD MLOAD JUMPDEST DUP1 PUSH2 0x35D9 JUMPI POP PUSH1 0x3E NOT PUSH1 0x0 NOT DUP3 ADD PUSH1 0x0 SIGNEXTEND SGT DUP1 ISZERO SWAP1 PUSH2 0x35D9 JUMPI POP DUP4 PUSH1 0xA0 ADD MLOAD ISZERO JUMPDEST ISZERO PUSH2 0x35ED JUMPI POP POP PUSH1 0x0 DUP1 DUP4 MSTORE DUP3 SWAP2 POP PUSH2 0x27F9 JUMP JUMPDEST PUSH1 0x0 DUP5 PUSH1 0xA0 ADD MLOAD PUSH2 0x3613 JUMPI PUSH2 0x3FFF PUSH2 0x360D DUP7 PUSH1 0x80 ADD MLOAD DUP8 PUSH1 0xA0 ADD MLOAD PUSH2 0x2A20 JUMP JUMPDEST SUB PUSH2 0x362A JUMP JUMPDEST PUSH2 0x3625 DUP6 PUSH1 0x80 ADD MLOAD DUP7 PUSH1 0xA0 ADD MLOAD PUSH2 0x2A20 JUMP JUMPDEST PUSH2 0x3FFF ADD JUMPDEST SWAP1 POP PUSH1 0x0 DUP6 PUSH1 0xA0 ADD MLOAD PUSH2 0x3640 JUMPI PUSH1 0x1 DUP4 SUB PUSH2 0x3645 JUMP JUMPDEST DUP3 PUSH1 0x1 ADD JUMPDEST SWAP1 POP PUSH1 0x0 PUSH2 0x3679 PUSH1 0x5 DUP9 PUSH1 0xA0 ADD MLOAD PUSH2 0x365E JUMPI PUSH1 0x0 PUSH2 0x3661 JUMP JUMPDEST PUSH1 0x1 JUMPDEST PUSH1 0xFF AND PUSH1 0x2 DUP2 LT PUSH2 0x366E JUMPI INVALID JUMPDEST ADD SLOAD PUSH2 0xAF9 DUP5 PUSH2 0x21C4 JUMP JUMPDEST PUSH2 0x36B7 JUMPI PUSH1 0xC DUP8 PUSH1 0xA0 ADD MLOAD PUSH2 0x368F JUMPI PUSH1 0x1 PUSH2 0x3692 JUMP JUMPDEST PUSH1 0x0 JUMPDEST PUSH1 0xFF AND PUSH1 0x2 DUP2 LT PUSH2 0x369F JUMPI INVALID JUMPDEST PUSH1 0x0 DUP5 DUP2 SIGNEXTEND DUP2 SIGNEXTEND DUP2 MSTORE SWAP2 ADD PUSH1 0x20 MSTORE PUSH1 0x40 SWAP1 KECCAK256 SLOAD PUSH2 0x36BA JUMP JUMPDEST PUSH1 0x0 JUMPDEST SWAP1 POP PUSH1 0x0 DUP2 PUSH1 0x1 PUSH1 0x1 PUSH1 0x80 SHL SUB AND SWAP1 POP PUSH1 0x80 DUP3 SWAP1 SHR SWAP2 POP PUSH1 0x0 DUP1 PUSH1 0x0 PUSH2 0x372C PUSH1 0x40 MLOAD DUP1 PUSH1 0xE0 ADD PUSH1 0x40 MSTORE DUP1 DUP14 PUSH1 0x0 ADD MLOAD DUP2 MSTORE PUSH1 0x20 ADD PUSH1 0x0 DUP2 MSTORE PUSH1 0x20 ADD DUP14 PUSH1 0x60 ADD MLOAD PUSH1 0x1 PUSH1 0x1 PUSH1 0xA0 SHL SUB AND DUP2 MSTORE PUSH1 0x20 ADD DUP10 PUSH1 0x2 SIGNEXTEND DUP2 MSTORE PUSH1 0x20 ADD DUP8 DUP2 MSTORE PUSH1 0x20 ADD DUP7 DUP2 MSTORE PUSH1 0x20 ADD DUP14 PUSH1 0xA0 ADD MLOAD ISZERO ISZERO DUP2 MSTORE POP PUSH2 0x21FC JUMP JUMPDEST SWAP3 POP SWAP3 POP SWAP3 POP DUP3 DUP1 ISZERO PUSH2 0x3765 JUMPI POP DUP11 PUSH1 0xA0 ADD MLOAD PUSH2 0x3756 JUMPI DUP7 PUSH1 0x2 SIGNEXTEND DUP12 PUSH1 0xC0 ADD MLOAD PUSH1 0x2 SIGNEXTEND SGT ISZERO PUSH2 0x3765 JUMP JUMPDEST DUP7 PUSH1 0x2 SIGNEXTEND DUP12 PUSH1 0xC0 ADD MLOAD PUSH1 0x2 SIGNEXTEND SLT ISZERO JUMPDEST ISZERO PUSH2 0x37BF JUMPI DUP11 MLOAD DUP5 DUP3 ADD SWAP1 SUB DUP12 MSTORE PUSH1 0x20 DUP12 ADD DUP1 MLOAD DUP4 ADD SWAP1 MSTORE PUSH1 0x40 DUP12 ADD DUP1 MLOAD DUP6 ADD SWAP1 MSTORE PUSH2 0x3790 DUP8 PUSH2 0x13D1 JUMP JUMPDEST PUSH1 0x1 PUSH1 0x1 PUSH1 0xA0 SHL SUB AND PUSH1 0x60 DUP13 ADD MSTORE POP POP POP POP POP PUSH1 0x2 SWAP2 DUP3 SIGNEXTEND SWAP1 SWAP2 SIGNEXTEND PUSH1 0x80 DUP7 ADD MSTORE POP DUP4 SWAP3 POP PUSH1 0x1 SWAP2 POP PUSH2 0x27F9 SWAP1 POP JUMP JUMPDEST PUSH2 0x37D1 DUP12 PUSH1 0x80 ADD MLOAD DUP13 PUSH1 0xA0 ADD MLOAD PUSH2 0x2A20 JUMP JUMPDEST SWAP7 POP PUSH2 0x382B PUSH1 0x40 MLOAD DUP1 PUSH1 0xE0 ADD PUSH1 0x40 MSTORE DUP1 DUP14 PUSH1 0x0 ADD MLOAD DUP2 MSTORE PUSH1 0x20 ADD PUSH1 0x0 DUP2 MSTORE PUSH1 0x20 ADD DUP14 PUSH1 0x60 ADD MLOAD PUSH1 0x1 PUSH1 0x1 PUSH1 0xA0 SHL SUB AND DUP2 MSTORE PUSH1 0x20 ADD DUP10 PUSH1 0x2 SIGNEXTEND DUP2 MSTORE PUSH1 0x20 ADD PUSH1 0x0 DUP2 MSTORE PUSH1 0x20 ADD PUSH1 0x0 DUP2 MSTORE PUSH1 0x20 ADD DUP14 PUSH1 0xA0 ADD MLOAD ISZERO ISZERO DUP2 MSTORE POP PUSH2 0x21FC JUMP JUMPDEST SWAP2 SWAP5 POP SWAP3 POP SWAP1 POP DUP3 DUP1 ISZERO PUSH2 0x383F JUMPI POP PUSH1 0x0 DUP6 GT JUMPDEST ISZERO PUSH2 0x388D JUMPI DUP11 MLOAD DUP2 SWAP1 SUB DUP12 MSTORE PUSH1 0x20 DUP12 ADD DUP1 MLOAD DUP4 ADD SWAP1 MSTORE PUSH2 0x385E DUP8 PUSH2 0x13D1 JUMP JUMPDEST PUSH1 0x1 PUSH1 0x1 PUSH1 0xA0 SHL SUB AND PUSH1 0x60 DUP13 ADD MSTORE POP POP POP POP POP PUSH1 0x2 SWAP2 DUP3 SIGNEXTEND SWAP1 SWAP2 SIGNEXTEND PUSH1 0x80 DUP7 ADD MSTORE POP DUP4 SWAP3 POP PUSH1 0x0 SWAP2 POP PUSH2 0x27F9 SWAP1 POP JUMP JUMPDEST PUSH1 0x60 DUP12 ADD DUP1 MLOAD PUSH1 0x1 PUSH1 0x1 PUSH1 0xA0 SHL SUB AND SWAP1 MSTORE PUSH2 0x38A7 DUP12 PUSH2 0x22C6 JUMP JUMPDEST SWAP11 POP DUP11 PUSH1 0x0 SWAP10 POP SWAP10 POP POP POP POP POP POP POP POP POP PUSH2 0x27F9 JUMP JUMPDEST PUSH1 0x0 DUP1 DUP3 GT PUSH2 0x38CB JUMPI PUSH1 0x0 DUP1 REVERT JUMPDEST PUSH1 0x1 PUSH1 0x80 SHL DUP3 LT PUSH2 0x38DE JUMPI PUSH1 0x80 SWAP2 DUP3 SHR SWAP2 ADD JUMPDEST PUSH9 0x10000000000000000 DUP3 LT PUSH2 0x38F6 JUMPI PUSH1 0x40 SWAP2 DUP3 SHR SWAP2 ADD JUMPDEST PUSH5 0x100000000 DUP3 LT PUSH2 0x390A JUMPI PUSH1 0x20 SWAP2 DUP3 SHR SWAP2 ADD JUMPDEST PUSH3 0x10000 DUP3 LT PUSH2 0x391C JUMPI PUSH1 0x10 SWAP2 DUP3 SHR SWAP2 ADD JUMPDEST PUSH2 0x100 DUP3 LT PUSH2 0x392D JUMPI PUSH1 0x8 SWAP2 DUP3 SHR SWAP2 ADD JUMPDEST PUSH1 0x10 DUP3 LT PUSH2 0x393D JUMPI PUSH1 0x4 SWAP2 DUP3 SHR SWAP2 ADD JUMPDEST PUSH1 0x4 DUP3 LT PUSH2 0x394D JUMPI PUSH1 0x2 SWAP2 DUP3 SHR SWAP2 ADD JUMPDEST PUSH1 0x2 DUP3 LT PUSH2 0x1EB9 JUMPI PUSH1 0x1 ADD SWAP2 SWAP1 POP JUMP JUMPDEST PUSH1 0x0 DUP1 DUP3 GT PUSH2 0x396B JUMPI PUSH1 0x0 DUP1 REVERT JUMPDEST POP PUSH1 0xFF PUSH1 0x1 PUSH1 0x1 PUSH1 0x80 SHL SUB DUP3 AND ISZERO PUSH2 0x3986 JUMPI PUSH1 0x7F NOT ADD PUSH2 0x398E JUMP JUMPDEST PUSH1 0x80 DUP3 SWAP1 SHR SWAP2 POP JUMPDEST PUSH8 0xFFFFFFFFFFFFFFFF DUP3 AND ISZERO PUSH2 0x39A7 JUMPI PUSH1 0x3F NOT ADD PUSH2 0x39AF JUMP JUMPDEST PUSH1 0x40 DUP3 SWAP1 SHR SWAP2 POP JUMPDEST PUSH4 0xFFFFFFFF DUP3 AND ISZERO PUSH2 0x39C4 JUMPI PUSH1 0x1F NOT ADD PUSH2 0x39CC JUMP JUMPDEST PUSH1 0x20 DUP3 SWAP1 SHR SWAP2 POP JUMPDEST PUSH2 0xFFFF DUP3 AND ISZERO PUSH2 0x39DF JUMPI PUSH1 0xF NOT ADD PUSH2 0x39E7 JUMP JUMPDEST PUSH1 0x10 DUP3 SWAP1 SHR SWAP2 POP JUMPDEST PUSH1 0xFF DUP3 AND ISZERO PUSH2 0x39F9 JUMPI PUSH1 0x7 NOT ADD PUSH2 0x3A01 JUMP JUMPDEST PUSH1 0x8 DUP3 SWAP1 SHR SWAP2 POP JUMPDEST PUSH1 0xF DUP3 AND ISZERO PUSH2 0x3A13 JUMPI PUSH1 0x3 NOT ADD PUSH2 0x3A1B JUMP JUMPDEST PUSH1 0x4 DUP3 SWAP1 SHR SWAP2 POP JUMPDEST PUSH1 0x3 DUP3 AND ISZERO PUSH2 0x3A2D JUMPI PUSH1 0x1 NOT ADD PUSH2 0x3A35 JUMP JUMPDEST PUSH1 0x2 DUP3 SWAP1 SHR SWAP2 POP JUMPDEST PUSH1 0x1 DUP3 AND ISZERO PUSH2 0x1EB9 JUMPI PUSH1 0x0 NOT ADD SWAP2 SWAP1 POP JUMP JUMPDEST DUP1 PUSH1 0x1 PUSH1 0x1 PUSH1 0xA0 SHL SUB DUP2 AND DUP2 EQ PUSH2 0x1EB9 JUMPI PUSH1 0x0 DUP1 REVERT JUMPDEST PUSH1 0x40 DUP1 MLOAD PUSH1 0xE0 DUP2 ADD DUP3 MSTORE PUSH1 0x0 DUP1 DUP3 MSTORE PUSH1 0x20 DUP3 ADD DUP2 SWAP1 MSTORE SWAP2 DUP2 ADD DUP3 SWAP1 MSTORE PUSH1 0x60 DUP2 ADD DUP3 SWAP1 MSTORE PUSH1 0x80 DUP2 ADD DUP3 SWAP1 MSTORE PUSH1 0xA0 DUP2 ADD DUP3 SWAP1 MSTORE PUSH1 0xC0 DUP2 ADD SWAP2 SWAP1 SWAP2 MSTORE SWAP1 JUMP JUMPDEST PUSH1 0x40 DUP1 MLOAD PUSH1 0x80 DUP2 ADD DUP3 MSTORE PUSH1 0x0 DUP1 DUP3 MSTORE PUSH1 0x20 DUP3 ADD DUP2 SWAP1 MSTORE SWAP2 DUP2 ADD DUP3 SWAP1 MSTORE PUSH1 0x60 DUP2 ADD SWAP2 SWAP1 SWAP2 MSTORE SWAP1 JUMP INVALID LOG2 PUSH5 0x6970667358 0x22 SLT KECCAK256 0x2F ADDRESS PUSH31 0xAAF543E4EFD142E220D5CD76717882F50FAF3AED97322676B74D9DC8AC6473 PUSH16 0x6C634300070600330000000000000000 "
		},
		"gasEstimates": {
			"creation": {
				"codeDepositCost": "3018800",
				"executionCost": "3318",
				"totalCost": "3022118"
			},
			"external": {
				"amount0ToAmount1(uint256,uint160)": "infinite",
				"amount1ToAmount0(uint256,uint160)": "infinite",
				"currentSqrtPriceX96()": "1082",
				"getLimitTokensCode(int24,address,uint256,bool)": "infinite",
				"isExploitedGate(int24,uint256)": "infinite",
				"liquidity()": "1066",
				"reserve0()": "2490",
				"reserve1()": "2487",
				"tickBitmap(int16)": "1181",
				"token0()": "1083",
				"token1()": "1059",
				"trade(uint256,bool,int24)": "infinite",
				"tradeStartGate(uint256,bool,int24)": "infinite",
				"unExploitedTick(int24,uint256)": "infinite",
				"updateDeepGate(int24,uint128,uint128,uint128,uint128,uint160,int256,int256)": "infinite"
			},
			"internal": {
				"clearTickPosition(int24,uint256)": "31256",
				"dealAtTickPosition(int24,uint256,uint256)": "infinite",
				"findNextWordHigh(struct LimitswapStorage.FinderState memory)": "infinite",
				"findNextWordLow(struct LimitswapStorage.FinderState memory)": "infinite",
				"isExploited(int24,uint256)": "infinite",
				"rangeExecLimitOrder(int24,int24,uint256)": "infinite",
				"tradeAllRemainingByCurve(struct LimitswapStorage.FinderState memory)": "infinite",
				"tradeAtTick(struct LimitswapStorage.FinderState memory)": "infinite",
				"tradeInWord(struct LimitswapStorage.FinderState memory)": "infinite",
				"tradeStart(struct LimitswapStorage.FinderState memory)": "infinite",
				"tradeToTick(struct LimitswapStorage.StepState memory)": "infinite",
				"updateDeep(int24,struct LimitswapStorage.tickDeep memory,uint160,int256,int256)": "infinite",
				"wordHighMap(int8)": "26"
			}
		},
		"methodIdentifiers": {
			"amount0ToAmount1(uint256,uint160)": "bbea8f6a",
			"amount1ToAmount0(uint256,uint160)": "7a95fff4",
			"currentSqrtPriceX96()": "47fd03d9",
			"getLimitTokensCode(int24,address,uint256,bool)": "c3acad36",
			"isExploitedGate(int24,uint256)": "f5d588de",
			"liquidity()": "1a686502",
			"reserve0()": "443cb4bc",
			"reserve1()": "5a76f25e",
			"tickBitmap(int16)": "5339c296",
			"token0()": "0dfe1681",
			"token1()": "d21220a7",
			"trade(uint256,bool,int24)": "571a4c72",
			"tradeStartGate(uint256,bool,int24)": "02ea5e1f",
			"unExploitedTick(int24,uint256)": "fdda7ec5",
			"updateDeepGate(int24,uint128,uint128,uint128,uint128,uint160,int256,int256)": "f46c855e"
		}
	},
	"abi": [
		{
			"inputs": [
				{
					"internalType": "uint256",
					"name": "amount0",
					"type": "uint256"
				},
				{
					"internalType": "uint160",
					"name": "sqrtPriceX96",
					"type": "uint160"
				}
			],
			"name": "amount0ToAmount1",
			"outputs": [
				{
					"internalType": "uint256",
					"name": "amount1",
					"type": "uint256"
				}
			],
			"stateMutability": "pure",
			"type": "function"
		},
		{
			"inputs": [
				{
					"internalType": "uint256",
					"name": "amount1",
					"type": "uint256"
				},
				{
					"internalType": "uint160",
					"name": "sqrtPriceX96",
					"type": "uint160"
				}
			],
			"name": "amount1ToAmount0",
			"outputs": [
				{
					"internalType": "uint256",
					"name": "amount0",
					"type": "uint256"
				}
			],
			"stateMutability": "pure",
			"type": "function"
		},
		{
			"inputs": [],
			"name": "currentSqrtPriceX96",
			"outputs": [
				{
					"internalType": "uint160",
					"name": "",
					"type": "uint160"
				}
			],
			"stateMutability": "view",
			"type": "function"
		},
		{
			"inputs": [
				{
					"internalType": "int24",
					"name": "tick",
					"type": "int24"
				},
				{
					"internalType": "address",
					"name": "user",
					"type": "address"
				},
				{
					"internalType": "uint256",
					"name": "share",
					"type": "uint256"
				},
				{
					"internalType": "bool",
					"name": "isSellShare",
					"type": "bool"
				}
			],
			"name": "getLimitTokensCode",
			"outputs": [
				{
					"internalType": "uint256",
					"name": "token0Out",
					"type": "uint256"
				},
				{
					"internalType": "uint256",
					"name": "token1Out",
					"type": "uint256"
				}
			],
			"stateMutability": "view",
			"type": "function"
		},
		{
			"inputs": [
				{
					"internalType": "int24",
					"name": "tick",
					"type": "int24"
				},
				{
					"internalType": "uint256",
					"name": "buyside",
					"type": "uint256"
				}
			],
			"name": "isExploitedGate",
			"outputs": [
				{
					"internalType": "bool",
					"name": "",
					"type": "bool"
				}
			],
			"stateMutability": "view",
			"type": "function"
		},
		{
			"inputs": [],
			"name": "liquidity",
			"outputs": [
				{
					"internalType": "uint256",
					"name": "",
					"type": "uint256"
				}
			],
			"stateMutability": "view",
			"type": "function"
		},
		{
			"inputs": [],
			"name": "reserve0",
			"outputs": [
				{
					"internalType": "uint256",
					"name": "",
					"type": "uint256"
				}
			],
			"stateMutability": "view",
			"type": "function"
		},
		{
			"inputs": [],
			"name": "reserve1",
			"outputs": [
				{
					"internalType": "uint256",
					"name": "",
					"type": "uint256"
				}
			],
			"stateMutability": "view",
			"type": "function"
		},
		{
			"inputs": [
				{
					"internalType": "int16",
					"name": "",
					"type": "int16"
				}
			],
			"name": "tickBitmap",
			"outputs": [
				{
					"internalType": "uint256",
					"name": "",
					"type": "uint256"
				}
			],
			"stateMutability": "view",
			"type": "function"
		},
		{
			"inputs": [],
			"name": "token0",
			"outputs": [
				{
					"internalType": "address",
					"name": "",
					"type": "address"
				}
			],
			"stateMutability": "view",
			"type": "function"
		},
		{
			"inputs": [],
			"name": "token1",
			"outputs": [
				{
					"internalType": "address",
					"name": "",
					"type": "address"
				}
			],
			"stateMutability": "view",
			"type": "function"
		},
		{
			"inputs": [
				{
					"internalType": "uint256",
					"name": "amountIn",
					"type": "uint256"
				},
				{
					"internalType": "bool",
					"name": "buyside",
					"type": "bool"
				},
				{
					"internalType": "int24",
					"name": "stopTick",
					"type": "int24"
				}
			],
			"name": "trade",
			"outputs": [
				{
					"internalType": "uint256",
					"name": "amountRemain",
					"type": "uint256"
				},
				{
					"internalType": "uint256",
					"name": "amountOut",
					"type": "uint256"
				},
				{
					"internalType": "uint160",
					"name": "sqrtPriceX96",
					"type": "uint160"
				}
			],
			"stateMutability": "nonpayable",
			"type": "function"
		},
		{
			"inputs": [
				{
					"internalType": "uint256",
					"name": "amountIn",
					"type": "uint256"
				},
				{
					"internalType": "bool",
					"name": "buyside",
					"type": "bool"
				},
				{
					"internalType": "int24",
					"name": "stopTick",
					"type": "int24"
				}
			],
			"name": "tradeStartGate",
			"outputs": [
				{
					"internalType": "uint256",
					"name": "amountOut",
					"type": "uint256"
				},
				{
					"internalType": "uint256",
					"name": "deepBurned",
					"type": "uint256"
				},
				{
					"internalType": "uint160",
					"name": "sqrtPriceX96",
					"type": "uint160"
				}
			],
			"stateMutability": "view",
			"type": "function"
		},
		{
			"inputs": [
				{
					"internalType": "int24",
					"name": "tick",
					"type": "int24"
				},
				{
					"internalType": "uint256",
					"name": "buyside",
					"type": "uint256"
				}
			],
			"name": "unExploitedTick",
			"outputs": [],
			"stateMutability": "nonpayable",
			"type": "function"
		},
		{
			"inputs": [
				{
					"internalType": "int24",
					"name": "tick",
					"type": "int24"
				},
				{
					"internalType": "uint128",
					"name": "buy",
					"type": "uint128"
				},
				{
					"internalType": "uint128",
					"name": "bought",
					"type": "uint128"
				},
				{
					"internalType": "uint128",
					"name": "sell",
					"type": "uint128"
				},
				{
					"internalType": "uint128",
					"name": "sold",
					"type": "uint128"
				},
				{
					"internalType": "uint160",
					"name": "sqrtPriceX96",
					"type": "uint160"
				},
				{
					"internalType": "int256",
					"name": "newDeep0",
					"type": "int256"
				},
				{
					"internalType": "int256",
					"name": "newDeep1",
					"type": "int256"
				}
			],
			"name": "updateDeepGate",
			"outputs": [],
			"stateMutability": "nonpayable",
			"type": "function"
		}
	]
}