{
  "contractName": "LimitswapRouter",
  "abi": [
    {
      "inputs": [
        {
          "internalType": "address",
          "name": "_factory",
          "type": "address"
        },
        {
          "internalType": "address",
          "name": "_WETH",
          "type": "address"
        }
      ],
      "stateMutability": "nonpayable",
      "type": "constructor"
    },
    {
      "inputs": [],
      "name": "WETH",
      "outputs": [
        {
          "internalType": "address",
          "name": "",
          "type": "address"
        }
      ],
      "stateMutability": "view",
      "type": "function"
    },
    {
      "inputs": [],
      "name": "factory",
      "outputs": [
        {
          "internalType": "address",
          "name": "",
          "type": "address"
        }
      ],
      "stateMutability": "view",
      "type": "function"
    },
    {
      "inputs": [],
      "name": "sender",
      "outputs": [
        {
          "internalType": "address",
          "name": "",
          "type": "address"
        }
      ],
      "stateMutability": "view",
      "type": "function"
    },
    {
      "stateMutability": "payable",
      "type": "receive"
    },
    {
      "inputs": [
        {
          "internalType": "address",
          "name": "tokenA",
          "type": "address"
        },
        {
          "internalType": "address",
          "name": "tokenB",
          "type": "address"
        },
        {
          "internalType": "uint256",
          "name": "amountAIn",
          "type": "uint256"
        },
        {
          "internalType": "uint256",
          "name": "amountBIn",
          "type": "uint256"
        },
        {
          "internalType": "uint256",
          "name": "amountAMin",
          "type": "uint256"
        },
        {
          "internalType": "uint256",
          "name": "amountBMin",
          "type": "uint256"
        },
        {
          "internalType": "address",
          "name": "to",
          "type": "address"
        },
        {
          "internalType": "uint256",
          "name": "deadline",
          "type": "uint256"
        }
      ],
      "name": "addLiquidity",
      "outputs": [
        {
          "internalType": "uint256",
          "name": "amountA",
          "type": "uint256"
        },
        {
          "internalType": "uint256",
          "name": "amountB",
          "type": "uint256"
        },
        {
          "internalType": "uint256",
          "name": "liquidity",
          "type": "uint256"
        }
      ],
      "stateMutability": "nonpayable",
      "type": "function"
    },
    {
      "inputs": [
        {
          "internalType": "address",
          "name": "token",
          "type": "address"
        },
        {
          "internalType": "uint256",
          "name": "amountTokenIn",
          "type": "uint256"
        },
        {
          "internalType": "uint256",
          "name": "amountTokenMin",
          "type": "uint256"
        },
        {
          "internalType": "uint256",
          "name": "amountETHMin",
          "type": "uint256"
        },
        {
          "internalType": "address",
          "name": "to",
          "type": "address"
        },
        {
          "internalType": "uint256",
          "name": "deadline",
          "type": "uint256"
        }
      ],
      "name": "addLiquidityETH",
      "outputs": [
        {
          "internalType": "uint256",
          "name": "amountToken",
          "type": "uint256"
        },
        {
          "internalType": "uint256",
          "name": "amountETH",
          "type": "uint256"
        },
        {
          "internalType": "uint256",
          "name": "liquidity",
          "type": "uint256"
        }
      ],
      "stateMutability": "payable",
      "type": "function"
    },
    {
      "inputs": [
        {
          "internalType": "address",
          "name": "tokenA",
          "type": "address"
        },
        {
          "internalType": "address",
          "name": "tokenB",
          "type": "address"
        },
        {
          "internalType": "uint256",
          "name": "share",
          "type": "uint256"
        },
        {
          "internalType": "uint256",
          "name": "amountAMin",
          "type": "uint256"
        },
        {
          "internalType": "uint256",
          "name": "amountBMin",
          "type": "uint256"
        },
        {
          "internalType": "address",
          "name": "to",
          "type": "address"
        },
        {
          "internalType": "uint256",
          "name": "deadline",
          "type": "uint256"
        }
      ],
      "name": "removeLiquidity",
      "outputs": [
        {
          "internalType": "uint256",
          "name": "amountA",
          "type": "uint256"
        },
        {
          "internalType": "uint256",
          "name": "amountB",
          "type": "uint256"
        }
      ],
      "stateMutability": "payable",
      "type": "function"
    },
    {
      "inputs": [
        {
          "internalType": "uint256",
          "name": "amountIn",
          "type": "uint256"
        },
        {
          "internalType": "uint256",
          "name": "amountOutMin",
          "type": "uint256"
        },
        {
          "internalType": "address[]",
          "name": "path",
          "type": "address[]"
        },
        {
          "internalType": "address",
          "name": "to",
          "type": "address"
        },
        {
          "internalType": "uint256",
          "name": "deadline",
          "type": "uint256"
        }
      ],
      "name": "swapExactTokensForTokens",
      "outputs": [
        {
          "internalType": "uint256",
          "name": "amountOut",
          "type": "uint256"
        }
      ],
      "stateMutability": "nonpayable",
      "type": "function"
    },
    {
      "inputs": [
        {
          "internalType": "uint256",
          "name": "amountOutMin",
          "type": "uint256"
        },
        {
          "internalType": "address[]",
          "name": "path",
          "type": "address[]"
        },
        {
          "internalType": "address",
          "name": "to",
          "type": "address"
        },
        {
          "internalType": "uint256",
          "name": "deadline",
          "type": "uint256"
        }
      ],
      "name": "swapExactETHForTokens",
      "outputs": [
        {
          "internalType": "uint256",
          "name": "amountOut",
          "type": "uint256"
        }
      ],
      "stateMutability": "payable",
      "type": "function"
    },
    {
      "inputs": [
        {
          "internalType": "uint256",
          "name": "amountIn",
          "type": "uint256"
        },
        {
          "internalType": "uint256",
          "name": "amountOutMin",
          "type": "uint256"
        },
        {
          "internalType": "address[]",
          "name": "path",
          "type": "address[]"
        },
        {
          "internalType": "address",
          "name": "to",
          "type": "address"
        },
        {
          "internalType": "uint256",
          "name": "deadline",
          "type": "uint256"
        }
      ],
      "name": "swapExactTokensForETH",
      "outputs": [
        {
          "internalType": "uint256",
          "name": "amountOut",
          "type": "uint256"
        }
      ],
      "stateMutability": "payable",
      "type": "function"
    },
    {
      "inputs": [
        {
          "internalType": "uint256",
          "name": "amountIn",
          "type": "uint256"
        },
        {
          "internalType": "address[]",
          "name": "path",
          "type": "address[]"
        }
      ],
      "name": "getAmountsOut",
      "outputs": [
        {
          "internalType": "uint256[]",
          "name": "amounts",
          "type": "uint256[]"
        }
      ],
      "stateMutability": "view",
      "type": "function"
    },
    {
      "inputs": [
        {
          "internalType": "uint256",
          "name": "amountIn",
          "type": "uint256"
        },
        {
          "internalType": "address[]",
          "name": "path",
          "type": "address[]"
        }
      ],
      "name": "getAmountOut",
      "outputs": [
        {
          "internalType": "uint256",
          "name": "amountOut",
          "type": "uint256"
        },
        {
          "internalType": "uint256",
          "name": "amountOutNoPriceImpact",
          "type": "uint256"
        }
      ],
      "stateMutability": "view",
      "type": "function"
    },
    {
      "inputs": [
        {
          "internalType": "address",
          "name": "pair",
          "type": "address"
        },
        {
          "internalType": "address",
          "name": "tokenIn",
          "type": "address"
        },
        {
          "internalType": "uint256",
          "name": "amountIn",
          "type": "uint256"
        },
        {
          "internalType": "int24",
          "name": "tick",
          "type": "int24"
        }
      ],
      "name": "putLimitOrder",
      "outputs": [
        {
          "internalType": "uint256",
          "name": "share",
          "type": "uint256"
        }
      ],
      "stateMutability": "nonpayable",
      "type": "function"
    },
    {
      "inputs": [
        {
          "internalType": "address",
          "name": "pair",
          "type": "address"
        },
        {
          "internalType": "int24",
          "name": "tick",
          "type": "int24"
        },
        {
          "internalType": "uint256",
          "name": "share",
          "type": "uint256"
        },
        {
          "internalType": "bool",
          "name": "isSellShare",
          "type": "bool"
        }
      ],
      "name": "cancelLimitOrder",
      "outputs": [
        {
          "internalType": "uint256",
          "name": "token0Out",
          "type": "uint256"
        },
        {
          "internalType": "uint256",
          "name": "token1Out",
          "type": "uint256"
        }
      ],
      "stateMutability": "nonpayable",
      "type": "function"
    },
    {
      "inputs": [
        {
          "internalType": "address",
          "name": "pair",
          "type": "address"
        },
        {
          "internalType": "int24",
          "name": "tick",
          "type": "int24"
        }
      ],
      "name": "putLimitOrderETH",
      "outputs": [
        {
          "internalType": "uint256",
          "name": "share",
          "type": "uint256"
        }
      ],
      "stateMutability": "payable",
      "type": "function"
    },
    {
      "inputs": [
        {
          "internalType": "address",
          "name": "user",
          "type": "address"
        },
        {
          "internalType": "uint256",
          "name": "limit",
          "type": "uint256"
        },
        {
          "internalType": "uint256",
          "name": "offset",
          "type": "uint256"
        }
      ],
      "name": "getLimitOrdersRaw",
      "outputs": [
        {
          "internalType": "uint256[]",
          "name": "records",
          "type": "uint256[]"
        }
      ],
      "stateMutability": "view",
      "type": "function"
    },
    {
      "inputs": [
        {
          "internalType": "address",
          "name": "user",
          "type": "address"
        },
        {
          "internalType": "uint256",
          "name": "limit",
          "type": "uint256"
        },
        {
          "internalType": "uint256",
          "name": "offset",
          "type": "uint256"
        }
      ],
      "name": "getLimitOrders",
      "outputs": [
        {
          "internalType": "uint256[]",
          "name": "records",
          "type": "uint256[]"
        },
        {
          "internalType": "uint256[]",
          "name": "token0Out",
          "type": "uint256[]"
        },
        {
          "internalType": "uint256[]",
          "name": "token1Out",
          "type": "uint256[]"
        }
      ],
      "stateMutability": "view",
      "type": "function"
    },
    {
      "inputs": [
        {
          "internalType": "address",
          "name": "user",
          "type": "address"
        },
        {
          "internalType": "uint256",
          "name": "scanLimit",
          "type": "uint256"
        },
        {
          "internalType": "uint256",
          "name": "scanOffset",
          "type": "uint256"
        },
        {
          "internalType": "uint256",
          "name": "resLimit",
          "type": "uint256"
        }
      ],
      "name": "getLPBalance",
      "outputs": [
        {
          "internalType": "uint256[]",
          "name": "balances",
          "type": "uint256[]"
        }
      ],
      "stateMutability": "view",
      "type": "function"
    },
    {
      "inputs": [
        {
          "internalType": "address",
          "name": "tokenA",
          "type": "address"
        },
        {
          "internalType": "address",
          "name": "tokenB",
          "type": "address"
        }
      ],
      "name": "getPairInfo",
      "outputs": [
        {
          "internalType": "int24",
          "name": "currentTick",
          "type": "int24"
        },
        {
          "internalType": "uint160",
          "name": "currentSqrtPriceX96",
          "type": "uint160"
        },
        {
          "internalType": "address",
          "name": "pair",
          "type": "address"
        },
        {
          "internalType": "uint256",
          "name": "reserve0",
          "type": "uint256"
        },
        {
          "internalType": "uint256",
          "name": "reserve1",
          "type": "uint256"
        },
        {
          "internalType": "uint256",
          "name": "totalLimit0",
          "type": "uint256"
        },
        {
          "internalType": "uint256",
          "name": "totalLimit1",
          "type": "uint256"
        }
      ],
      "stateMutability": "view",
      "type": "function"
    }
  ],
  "bytecode": "0x60c060405234801561001057600080fd5b50604051620048bf380380620048bf8339818101604052604081101561003557600080fd5b5080516020909101516001600160601b0319606092831b8116608052911b1660a05260805160601c60a05160601c6147a8620001176000398061011d52806109185280610b2c52806118dc528061196c52806119e05280611cd65280611d0c5280611e8e5280611ef252806120025280612115528061332752806133db528061344f5280613b8c5280613bc65280613c5e5280613c985250806109c45280610fbe528061107552806112ed5280611a0f52806121965280612611528061298c5280612a655280613763528061383c5280613e3e5280613ef852506147a86000f3fe60806040526004361061010d5760003560e01c8063ad5c464811610095578063d06ca61f11610064578063d06ca61f146106f7578063d7a4f61314610779578063e8e33700146107b8578063eb9a73b514610838578063f305d7191461088257610146565b8063ad5c4648146105e2578063b8239ebb146105f7578063baa2abde14610692578063c45a0155146106e257610146565b8063400f7a1e116100dc578063400f7a1e1461035d578063664c0f02146103e157806367e404ce146104fe5780637ff36ab51461052f578063a6c20942146105b357610146565b806318cbafe51461014b5780632131eea0146101e65780632d5d35be1461023257806338ed1739146102c757610146565b3661014657336001600160a01b037f0000000000000000000000000000000000000000000000000000000000000000161461014457fe5b005b600080fd5b6101d4600480360360a081101561016157600080fd5b813591602081013591810190606081016040820135600160201b81111561018757600080fd5b82018360208201111561019957600080fd5b803590602001918460208302840111600160201b831117156101ba57600080fd5b91935091506001600160a01b0381351690602001356108c8565b60408051918252519081900360200190f35b3480156101f257600080fd5b506101d46004803603608081101561020957600080fd5b506001600160a01b0381358116916020810135909116906040810135906060013560020b610bbd565b34801561023e57600080fd5b506102776004803603608081101561025557600080fd5b506001600160a01b038135169060208101359060408101359060600135610f74565b60408051602080825283518183015283519192839290830191858101910280838360005b838110156102b357818101518382015260200161029b565b505050509050019250505060405180910390f35b3480156102d357600080fd5b506101d4600480360360a08110156102ea57600080fd5b813591602081013591810190606081016040820135600160201b81111561031057600080fd5b82018360208201111561032257600080fd5b803590602001918460208302840111600160201b8311171561034357600080fd5b91935091506001600160a01b0381351690602001356111b9565b34801561036957600080fd5b506103986004803603604081101561038057600080fd5b506001600160a01b038135811691602001351661128f565b6040805160029890980b88526001600160a01b03968716602089015294909516868501526060860192909252608085015260a084015260c0830191909152519081900360e00190f35b3480156103ed57600080fd5b506104206004803603606081101561040457600080fd5b506001600160a01b0381351690602081013590604001356115ac565b60405180806020018060200180602001848103845287818151815260200191508051906020019060200280838360005b83811015610468578181015183820152602001610450565b50505050905001848103835286818151815260200191508051906020019060200280838360005b838110156104a757818101518382015260200161048f565b50505050905001848103825285818151815260200191508051906020019060200280838360005b838110156104e65781810151838201526020016104ce565b50505050905001965050505050505060405180910390f35b34801561050a57600080fd5b50610513611885565b604080516001600160a01b039092168252519081900360200190f35b6101d46004803603608081101561054557600080fd5b81359190810190604081016020820135600160201b81111561056657600080fd5b82018360208201111561057857600080fd5b803590602001918460208302840111600160201b8311171561059957600080fd5b91935091506001600160a01b038135169060200135611894565b6101d4600480360360408110156105c957600080fd5b506001600160a01b03813516906020013560020b611bf8565b3480156105ee57600080fd5b50610513612113565b34801561060357600080fd5b506106796004803603604081101561061a57600080fd5b81359190810190604081016020820135600160201b81111561063b57600080fd5b82018360208201111561064d57600080fd5b803590602001918460208302840111600160201b8311171561066e57600080fd5b509092509050612137565b6040805192835260208301919091528051918290030190f35b610679600480360360e08110156106a857600080fd5b506001600160a01b038135811691602081013582169160408201359160608101359160808201359160a08101359091169060c0013561259b565b3480156106ee57600080fd5b5061051361298a565b34801561070357600080fd5b506102776004803603604081101561071a57600080fd5b81359190810190604081016020820135600160201b81111561073b57600080fd5b82018360208201111561074d57600080fd5b803590602001918460208302840111600160201b8311171561076e57600080fd5b5090925090506129ae565b34801561078557600080fd5b506102776004803603606081101561079c57600080fd5b506001600160a01b038135169060208101359060400135612c4f565b3480156107c457600080fd5b5061081a60048036036101008110156107dc57600080fd5b506001600160a01b038135811691602081013582169160408201359160608101359160808201359160a08101359160c0820135169060e00135612d6f565b60408051938452602084019290925282820152519081900360600190f35b34801561084457600080fd5b506106796004803603608081101561085b57600080fd5b506001600160a01b0381351690602081013560020b90604081013590606001351515612ef3565b61081a600480360360c081101561089857600080fd5b506001600160a01b0381358116916020810135916040820135916060810135916080820135169060a001356132d3565b6000814281101561090e576040805162461bcd60e51b8152602060048201526018602482015260008051602061470c833981519152604482015290519081900360640190fd5b6001600160a01b037f0000000000000000000000000000000000000000000000000000000000000000168686600019810181811061094857fe5b905060200201356001600160a01b03166001600160a01b0316146109a1576040805162461bcd60e51b815260206004820152601d60248201526000805160206146ec833981519152604482015290519081900360640190fd5b610aaa868660008181106109b157fe5b905060200201356001600160a01b0316337f00000000000000000000000000000000000000000000000000000000000000006001600160a01b031663e6a439058a8a60008181106109fe57fe5b905060200201356001600160a01b03168b8b6001818110610a1b57fe5b905060200201356001600160a01b03166040518363ffffffff1660e01b815260040180836001600160a01b03168152602001826001600160a01b031681526020019250505060206040518083038186803b158015610a7857600080fd5b505afa158015610a8c573d6000803e3d6000fd5b505050506040513d6020811015610aa257600080fd5b50518b613593565b610ae9888787808060200260200160405190810160405280939291908181526020018383602002808284376000920191909152503092506136ef915050565b915086821015610b2a5760405162461bcd60e51b815260040180806020018281038252602b8152602001806146c1602b913960400191505060405180910390fd5b7f00000000000000000000000000000000000000000000000000000000000000006001600160a01b0316632e1a7d4d836040518263ffffffff1660e01b815260040180828152602001915050600060405180830381600087803b158015610b9057600080fd5b505af1158015610ba4573d6000803e3d6000fd5b50505050610bb284836139a5565b509695505050505050565b600080856001600160a01b0316630dfe16816040518163ffffffff1660e01b815260040160206040518083038186803b158015610bf957600080fd5b505afa158015610c0d573d6000803e3d6000fd5b505050506040513d6020811015610c2357600080fd5b50516040805163d21220a760e01b815290519192506000916001600160a01b0389169163d21220a7916004808301926020929190829003018186803b158015610c6b57600080fd5b505afa158015610c7f573d6000803e3d6000fd5b505050506040513d6020811015610c9557600080fd5b505190506001600160a01b038281169087161480610cc45750856001600160a01b0316816001600160a01b0316145b610d02576040805162461bcd60e51b815260206004820152600a6024820152692a27a5a2a722a92927a960b11b604482015290519081900360640190fd5b6000826001600160a01b03166370a08231306040518263ffffffff1660e01b815260040180826001600160a01b0316815260200191505060206040518083038186803b158015610d5157600080fd5b505afa158015610d65573d6000803e3d6000fd5b505050506040513d6020811015610d7b57600080fd5b5051604080516370a0823160e01b815230600482015290519192506000916001600160a01b038516916370a08231916024808301926020929190829003018186803b158015610dc957600080fd5b505afa158015610ddd573d6000803e3d6000fd5b505050506040513d6020811015610df357600080fd5b50519050610e0388338b8a613593565b6000896001600160a01b0316630dfe16816040518163ffffffff1660e01b815260040160206040518083038186803b158015610e3e57600080fd5b505afa158015610e52573d6000803e3d6000fd5b505050506040513d6020811015610e6857600080fd5b50516001600160a01b038a8116911614610e83576000610e86565b60015b600080546001600160a01b03191633178155604080516388bb52ed60e01b815260028b900b6004820152602481018c9052831515604482015290519293506001600160a01b038d16926388bb52ed92606480840193602093929083900390910190829087803b158015610ef857600080fd5b505af1158015610f0c573d6000803e3d6000fd5b505050506040513d6020811015610f2257600080fd5b5051600080546001600160a01b03191690559550610f59610f448b8984613a9d565b33600090815260016020526040902090613ac9565b50610f678585858533613ae0565b5050505050949350505050565b60608167ffffffffffffffff81118015610f8d57600080fd5b50604051908082528060200260200182016040528015610fb7578160200160208202803683370190505b50905060007f00000000000000000000000000000000000000000000000000000000000000006001600160a01b031663574f2ba36040518163ffffffff1660e01b815260040160206040518083038186803b15801561101557600080fd5b505afa158015611029573d6000803e3d6000fd5b505050506040513d602081101561103f57600080fd5b50519050848401811061105457838501611056565b805b945060009050835b858110801561106c57508382105b156111af5760007f00000000000000000000000000000000000000000000000000000000000000006001600160a01b0316631e3dd18b836040518263ffffffff1660e01b81526004018082815260200191505060206040518083038186803b1580156110d757600080fd5b505afa1580156110eb573d6000803e3d6000fd5b505050506040513d602081101561110157600080fd5b5051604080516370a0823160e01b81526001600160a01b038b81166004830152915191909216916370a08231916024808301926020929190829003018186803b15801561114d57600080fd5b505afa158015611161573d6000803e3d6000fd5b505050506040513d602081101561117757600080fd5b5051905080156111a6578060c083901b0184848151811061119457fe5b60209081029190910101526001909201915b5060010161105e565b5050949350505050565b600081428110156111ff576040805162461bcd60e51b8152602060048201526018602482015260008051602061470c833981519152604482015290519081900360640190fd5b61120f868660008181106109b157fe5b61124e888787808060200260200160405190810160405280939291908181526020018383602002808284376000920191909152508992506136ef915050565b915086821015610bb25760405162461bcd60e51b815260040180806020018281038252602b8152602001806146c1602b913960400191505060405180910390fd5b6000806000806000806000876001600160a01b0316896001600160a01b0316106112ba5787896112bd565b88885b6040805163e6a4390560e01b81526001600160a01b03808516600483015280841660248301529151939c50919a507f0000000000000000000000000000000000000000000000000000000000000000169163e6a4390591604480820192602092909190829003018186803b15801561133457600080fd5b505afa158015611348573d6000803e3d6000fd5b505050506040513d602081101561135e57600080fd5b505194506001600160a01b038516156115a057846001600160a01b031663065e53606040518163ffffffff1660e01b815260040160206040518083038186803b1580156113aa57600080fd5b505afa1580156113be573d6000803e3d6000fd5b505050506040513d60208110156113d457600080fd5b5051604080516347fd03d960e01b815290519198506001600160a01b038716916347fd03d991600480820192602092909190829003018186803b15801561141a57600080fd5b505afa15801561142e573d6000803e3d6000fd5b505050506040513d602081101561144457600080fd5b50516040805163110f2d2f60e21b815290519197506001600160a01b0387169163443cb4bc91600480820192602092909190829003018186803b15801561148a57600080fd5b505afa15801561149e573d6000803e3d6000fd5b505050506040513d60208110156114b457600080fd5b505160408051632d3b792f60e11b815290519195506001600160a01b03871691635a76f25e91600480820192602092909190829003018186803b1580156114fa57600080fd5b505afa15801561150e573d6000803e3d6000fd5b505050506040513d602081101561152457600080fd5b50516040805163d8f9f12d60e01b815281519295506001600160a01b0388169263d8f9f12d92600480840193919291829003018186803b15801561156757600080fd5b505afa15801561157b573d6000803e3d6000fd5b505050506040513d604081101561159157600080fd5b50805160209091015190925090505b92959891949750929550565b60608060606115bc868686612c4f565b92508467ffffffffffffffff811180156115d557600080fd5b506040519080825280602002602001820160405280156115ff578160200160208202803683370190505b5091508467ffffffffffffffff8111801561161957600080fd5b50604051908082528060200260200182016040528015611643578160200160208202803683370190505b5090506000805b8681101561187a57600085828151811061166057fe5b6020026020010151111561187257600080600061168f88858151811061168257fe5b6020026020010151613d37565b925092509250801561172657826001600160a01b031663ef6ae4cc8c846040518363ffffffff1660e01b815260040180836001600160a01b031681526020018260020b81526020019250505060206040518083038186803b1580156116f357600080fd5b505afa158015611707573d6000803e3d6000fd5b505050506040513d602081101561171d57600080fd5b505194506117ad565b826001600160a01b0316632a354ad98c846040518363ffffffff1660e01b815260040180836001600160a01b031681526020018260020b81526020019250505060206040518083038186803b15801561177e57600080fd5b505afa158015611792573d6000803e3d6000fd5b505050506040513d60208110156117a857600080fd5b505194505b604080516358ecdc3560e01b8152600284900b60048201526001600160a01b038d811660248301526044820188905283151560648301528251908616926358ecdc359260848082019391829003018186803b15801561180b57600080fd5b505afa15801561181f573d6000803e3d6000fd5b505050506040513d604081101561183557600080fd5b508051602090910151885189908790811061184c57fe5b6020026020010188878151811061185f57fe5b6020908102919091010191909152525050505b60010161164a565b505093509350939050565b6000546001600160a01b031681565b600081428110156118da576040805162461bcd60e51b8152602060048201526018602482015260008051602061470c833981519152604482015290519081900360640190fd5b7f00000000000000000000000000000000000000000000000000000000000000006001600160a01b03168686600081811061191157fe5b905060200201356001600160a01b03166001600160a01b03161461196a576040805162461bcd60e51b815260206004820152601d60248201526000805160206146ec833981519152604482015290519081900360640190fd5b7f00000000000000000000000000000000000000000000000000000000000000006001600160a01b031663d0e30db0346040518263ffffffff1660e01b81526004016000604051808303818588803b1580156119c557600080fd5b505af11580156119d9573d6000803e3d6000fd5b50505050507f00000000000000000000000000000000000000000000000000000000000000006001600160a01b031663a9059cbb7f00000000000000000000000000000000000000000000000000000000000000006001600160a01b031663e6a4390589896000818110611a4957fe5b905060200201356001600160a01b03168a8a6001818110611a6657fe5b905060200201356001600160a01b03166040518363ffffffff1660e01b815260040180836001600160a01b03168152602001826001600160a01b031681526020019250505060206040518083038186803b158015611ac357600080fd5b505afa158015611ad7573d6000803e3d6000fd5b505050506040513d6020811015611aed57600080fd5b5051604080516001600160e01b031960e085901b1681526001600160a01b0390921660048301523460248301525160448083019260209291908290030181600087803b158015611b3c57600080fd5b505af1158015611b50573d6000803e3d6000fd5b505050506040513d6020811015611b6657600080fd5b5051611b6e57fe5b611bad348787808060200260200160405190810160405280939291908181526020018383602002808284376000920191909152508992506136ef915050565b915086821015611bee5760405162461bcd60e51b815260040180806020018281038252602b8152602001806146c1602b913960400191505060405180910390fd5b5095945050505050565b600080836001600160a01b0316630dfe16816040518163ffffffff1660e01b815260040160206040518083038186803b158015611c3457600080fd5b505afa158015611c48573d6000803e3d6000fd5b505050506040513d6020811015611c5e57600080fd5b50516040805163d21220a760e01b815290519192506000916001600160a01b0387169163d21220a7916004808301926020929190829003018186803b158015611ca657600080fd5b505afa158015611cba573d6000803e3d6000fd5b505050506040513d6020811015611cd057600080fd5b505190507f00000000000000000000000000000000000000000000000000000000000000006001600160a01b039081169083161480611d4057507f00000000000000000000000000000000000000000000000000000000000000006001600160a01b0316816001600160a01b0316145b611d7e576040805162461bcd60e51b815260206004820152600a6024820152692a27a5a2a722a92927a960b11b604482015290519081900360640190fd5b6000826001600160a01b03166370a08231306040518263ffffffff1660e01b815260040180826001600160a01b0316815260200191505060206040518083038186803b158015611dcd57600080fd5b505afa158015611de1573d6000803e3d6000fd5b505050506040513d6020811015611df757600080fd5b5051604080516370a0823160e01b815230600482015290519192506000916001600160a01b038516916370a08231916024808301926020929190829003018186803b158015611e4557600080fd5b505afa158015611e59573d6000803e3d6000fd5b505050506040513d6020811015611e6f57600080fd5b505160408051630d0e30db60e41b815290519192506001600160a01b037f0000000000000000000000000000000000000000000000000000000000000000169163d0e30db0913491600480830192600092919082900301818588803b158015611ed757600080fd5b505af1158015611eeb573d6000803e3d6000fd5b50505050507f00000000000000000000000000000000000000000000000000000000000000006001600160a01b031663a9059cbb88346040518363ffffffff1660e01b815260040180836001600160a01b0316815260200182815260200192505050602060405180830381600087803b158015611f6757600080fd5b505af1158015611f7b573d6000803e3d6000fd5b505050506040513d6020811015611f9157600080fd5b5051611f9957fe5b6000876001600160a01b0316630dfe16816040518163ffffffff1660e01b815260040160206040518083038186803b158015611fd457600080fd5b505afa158015611fe8573d6000803e3d6000fd5b505050506040513d6020811015611ffe57600080fd5b50517f00000000000000000000000000000000000000000000000000000000000000006001600160a01b0390811691161461203a57600061203d565b60015b600080546001600160a01b03191633178155604080516388bb52ed60e01b815260028b900b6004820152346024820152831515604482015290519293506001600160a01b038b16926388bb52ed92606480840193602093929083900390910190829087803b1580156120ae57600080fd5b505af11580156120c2573d6000803e3d6000fd5b505050506040513d60208110156120d857600080fd5b5051600080546001600160a01b031916905595506120fa610f44898984613a9d565b506121088585858533613ae0565b505050505092915050565b7f000000000000000000000000000000000000000000000000000000000000000081565b600080600283101561217e576040805162461bcd60e51b815260206004820152601d60248201526000805160206146ec833981519152604482015290519081900360640190fd5b508390508060005b60001984018110156125925760007f00000000000000000000000000000000000000000000000000000000000000006001600160a01b031663e6a439058787858181106121cf57fe5b905060200201356001600160a01b03168888866001018181106121ee57fe5b905060200201356001600160a01b03166040518363ffffffff1660e01b815260040180836001600160a01b03168152602001826001600160a01b031681526020019250505060206040518083038186803b15801561224b57600080fd5b505afa15801561225f573d6000803e3d6000fd5b505050506040513d602081101561227557600080fd5b505190506001600160a01b03811663cbfe3ab38588886001870181811061229857fe5b905060200201356001600160a01b03166001600160a01b03168989878181106122bd57fe5b905060200201356001600160a01b03166001600160a01b0316106122e25760016122e5565b60005b6040518363ffffffff1660e01b81526004018083815260200182151581526020019250505060606040518083038186803b15801561232257600080fd5b505afa158015612336573d6000803e3d6000fd5b505050506040513d606081101561234c57600080fd5b5051935085856001840181811061235f57fe5b905060200201356001600160a01b03166001600160a01b031686868481811061238457fe5b905060200201356001600160a01b03166001600160a01b0316101561249857806001600160a01b031663bbea8f6a84836001600160a01b03166347fd03d96040518163ffffffff1660e01b815260040160206040518083038186803b1580156123ec57600080fd5b505afa158015612400573d6000803e3d6000fd5b505050506040513d602081101561241657600080fd5b5051604080516001600160e01b031960e086901b16815260048101939093526001600160a01b039091166024830152516044808301926020929190829003018186803b15801561246557600080fd5b505afa158015612479573d6000803e3d6000fd5b505050506040513d602081101561248f57600080fd5b50519250612589565b806001600160a01b0316637a95fff484836001600160a01b03166347fd03d96040518163ffffffff1660e01b815260040160206040518083038186803b1580156124e157600080fd5b505afa1580156124f5573d6000803e3d6000fd5b505050506040513d602081101561250b57600080fd5b5051604080516001600160e01b031960e086901b16815260048101939093526001600160a01b039091166024830152516044808301926020929190829003018186803b15801561255a57600080fd5b505afa15801561256e573d6000803e3d6000fd5b505050506040513d602081101561258457600080fd5b505192505b50600101612186565b50935093915050565b60008082428110156125e2576040805162461bcd60e51b8152602060048201526018602482015260008051602061470c833981519152604482015290519081900360640190fd5b886001600160a01b03168a6001600160a01b03161061260257888a612605565b89895b809a50819b50505060007f00000000000000000000000000000000000000000000000000000000000000006001600160a01b031663e6a439058c8c6040518363ffffffff1660e01b815260040180836001600160a01b03168152602001826001600160a01b031681526020019250505060206040518083038186803b15801561268d57600080fd5b505afa1580156126a1573d6000803e3d6000fd5b505050506040513d60208110156126b757600080fd5b505190506126c78133818c613593565b60008b6001600160a01b03166370a08231306040518263ffffffff1660e01b815260040180826001600160a01b0316815260200191505060206040518083038186803b15801561271657600080fd5b505afa15801561272a573d6000803e3d6000fd5b505050506040513d602081101561274057600080fd5b5051604080516370a0823160e01b815230600482015290519192506000916001600160a01b038e16916370a08231916024808301926020929190829003018186803b15801561278e57600080fd5b505afa1580156127a2573d6000803e3d6000fd5b505050506040513d60208110156127b857600080fd5b50516040805163226bf2d160e21b815230600482015281519293506001600160a01b038616926389afcb44926024808401939192918290030181600087803b15801561280357600080fd5b505af1158015612817573d6000803e3d6000fd5b505050506040513d604081101561282d57600080fd5b81019080805190602001909291908051906020019092919050505050506128cd828e6001600160a01b03166370a08231306040518263ffffffff1660e01b815260040180826001600160a01b0316815260200191505060206040518083038186803b15801561289b57600080fd5b505afa1580156128af573d6000803e3d6000fd5b505050506040513d60208110156128c557600080fd5b505190613d5c565b9550612920818d6001600160a01b03166370a08231306040518263ffffffff1660e01b815260040180826001600160a01b0316815260200191505060206040518083038186803b15801561289b57600080fd5b94508986101580156129325750888510155b61296d5760405162461bcd60e51b815260040180806020018281038252602b8152602001806146c1602b913960400191505060405180910390fd5b61297a8d8d84848c613ae0565b5050505097509795505050505050565b7f000000000000000000000000000000000000000000000000000000000000000081565b606060028210156129f4576040805162461bcd60e51b815260206004820152601d60248201526000805160206146ec833981519152604482015290519081900360640190fd5b8167ffffffffffffffff81118015612a0b57600080fd5b50604051908082528060200260200182016040528015612a35578160200160208202803683370190505b5090508381600081518110612a4657fe5b60200260200101818152505060005b6000198301811015612c475760007f00000000000000000000000000000000000000000000000000000000000000006001600160a01b031663e6a43905868685818110612a9e57fe5b905060200201356001600160a01b0316878786600101818110612abd57fe5b905060200201356001600160a01b03166040518363ffffffff1660e01b815260040180836001600160a01b03168152602001826001600160a01b031681526020019250505060206040518083038186803b158015612b1a57600080fd5b505afa158015612b2e573d6000803e3d6000fd5b505050506040513d6020811015612b4457600080fd5b505190506001600160a01b03811663cbfe3ab387878760018701818110612b6757fe5b905060200201356001600160a01b03166001600160a01b0316888887818110612b8c57fe5b905060200201356001600160a01b03166001600160a01b031610612bb1576001612bb4565b60005b6040518363ffffffff1660e01b81526004018083815260200182151581526020019250505060606040518083038186803b158015612bf157600080fd5b505afa158015612c05573d6000803e3d6000fd5b505050506040513d6060811015612c1b57600080fd5b505183519096508690849060018501908110612c3357fe5b602090810291909101015250600101612a55565b509392505050565b60608267ffffffffffffffff81118015612c6857600080fd5b50604051908082528060200260200182016040528015612c92578160200160208202803683370190505b50905060006001815b8481108015612ca75750815b8015612cbb57506000831180612cbb575080155b15612cee576001600160a01b0387166000908152600160205260409020612ce29084613dac565b93509150600101612c9b565b5060005b8581108015612cfe5750815b8015612d1257506000831180612d12575080155b15612d65576001600160a01b0387166000908152600160205260409020612d399084613dac565b935091508115612d5d5782848281518110612d5057fe5b6020026020010181815250505b600101612cf2565b5050509392505050565b60008060008342811015612db8576040805162461bcd60e51b8152602060048201526018602482015260008051602061470c833981519152604482015290519081900360640190fd5b6000806000612dc98f8f8f8f613dc6565b91945092509050612dda8d84613d5c565b9650612de68c83613d5c565b95508a8710158015612df85750898610155b612e49576040805162461bcd60e51b815260206004820152601b60248201527f4c696d697473776170526f757465723a20534c495020414c4552540000000000604482015290519081900360640190fd5b612e558f33838a613593565b612e618e338389613593565b806001600160a01b0316636a6278428a6040518263ffffffff1660e01b815260040180826001600160a01b03168152602001915050602060405180830381600087803b158015612eb057600080fd5b505af1158015612ec4573d6000803e3d6000fd5b505050506040513d6020811015612eda57600080fd5b5051969f959e50959c50939a5050505050505050505050565b6000806000866001600160a01b0316630dfe16816040518163ffffffff1660e01b815260040160206040518083038186803b158015612f3157600080fd5b505afa158015612f45573d6000803e3d6000fd5b505050506040513d6020811015612f5b57600080fd5b50516040805163d21220a760e01b815290519192506000916001600160a01b038a169163d21220a7916004808301926020929190829003018186803b158015612fa357600080fd5b505afa158015612fb7573d6000803e3d6000fd5b505050506040513d6020811015612fcd57600080fd5b5051604080516370a0823160e01b815230600482015290519192506000916001600160a01b038516916370a08231916024808301926020929190829003018186803b15801561301b57600080fd5b505afa15801561302f573d6000803e3d6000fd5b505050506040513d602081101561304557600080fd5b5051604080516370a0823160e01b815230600482015290519192506000916001600160a01b038516916370a08231916024808301926020929190829003018186803b15801561309357600080fd5b505afa1580156130a7573d6000803e3d6000fd5b505050506040513d60208110156130bd57600080fd5b505190506000871561314c5760408051633bdab93360e21b815233600482015260028c900b602482015290516001600160a01b038d169163ef6ae4cc916044808301926020929190829003018186803b15801561311957600080fd5b505afa15801561312d573d6000803e3d6000fd5b505050506040513d602081101561314357600080fd5b505190506131cb565b60408051632a354ad960e01b815233600482015260028c900b602482015290516001600160a01b038d1691632a354ad9916044808301926020929190829003018186803b15801561319c57600080fd5b505afa1580156131b0573d6000803e3d6000fd5b505050506040513d60208110156131c657600080fd5b505190505b808911156131d7578098505b600080546001600160a01b0319163317815560408051632fd8be5f60e21b815260028d900b6004820152602481018c90528a1515604482015281516001600160a01b038f169363bf62f97c93606480850194919392918390030190829087803b15801561324357600080fd5b505af1158015613257573d6000803e3d6000fd5b505050506040513d604081101561326d57600080fd5b508051602090910151600080546001600160a01b03191690559097509550888114156132b8576132b66132a18c8c8b613a9d565b33600090815260016020526040902090614344565b505b6132c58585858533613ae0565b505050505094509492505050565b6000806000834281101561331c576040805162461bcd60e51b8152602060048201526018602482015260008051602061470c833981519152604482015290519081900360640190fd5b600080600061334d8d7f00000000000000000000000000000000000000000000000000000000000000008e34613dc6565b9194509250905061335e8c84613d5c565b965061336a3483613d5c565b95508a871015801561337c5750898610155b6133cd576040805162461bcd60e51b815260206004820152601b60248201527f4c696d697473776170526f757465723a20534c495020414c4552540000000000604482015290519081900360640190fd5b6133d98d33838a613593565b7f00000000000000000000000000000000000000000000000000000000000000006001600160a01b031663d0e30db0876040518263ffffffff1660e01b81526004016000604051808303818588803b15801561343457600080fd5b505af1158015613448573d6000803e3d6000fd5b50505050507f00000000000000000000000000000000000000000000000000000000000000006001600160a01b031663a9059cbb82886040518363ffffffff1660e01b815260040180836001600160a01b0316815260200182815260200192505050602060405180830381600087803b1580156134c457600080fd5b505af11580156134d8573d6000803e3d6000fd5b505050506040513d60208110156134ee57600080fd5b50516134f657fe5b806001600160a01b0316636a6278428a6040518263ffffffff1660e01b815260040180826001600160a01b03168152602001915050602060405180830381600087803b15801561354557600080fd5b505af1158015613559573d6000803e3d6000fd5b505050506040513d602081101561356f57600080fd5b5051945081156135835761358333836139a5565b5050505096509650969350505050565b604080516001600160a01b0385811660248301528481166044830152606480830185905283518084039091018152608490920183526020820180516001600160e01b03166323b872dd60e01b178152925182516000948594938a169392918291908083835b602083106136175780518252601f1990920191602091820191016135f8565b6001836020036101000a0380198251168184511680821785525050505050509050019150506000604051808303816000865af19150503d8060008114613679576040519150601f19603f3d011682016040523d82523d6000602084013e61367e565b606091505b50915091508180156136ac5750805115806136ac57508080602001905160208110156136a957600080fd5b50515b6136e75760405162461bcd60e51b815260040180806020018281038252602481526020018061474f6024913960400191505060405180910390fd5b505050505050565b6000806000805b600186510381101561399a5785816001018151811061371157fe5b60200260200101516001600160a01b031686828151811061372e57fe5b60200260200101516001600160a01b03161061374b57600161374e565b60005b9150600286510381106137615784613838565b7f00000000000000000000000000000000000000000000000000000000000000006001600160a01b031663e6a4390587836001018151811061379f57fe5b60200260200101518884600201815181106137b657fe5b60200260200101516040518363ffffffff1660e01b815260040180836001600160a01b03168152602001826001600160a01b031681526020019250505060206040518083038186803b15801561380b57600080fd5b505afa15801561381f573d6000803e3d6000fd5b505050506040513d602081101561383557600080fd5b50515b92507f00000000000000000000000000000000000000000000000000000000000000006001600160a01b031663e6a4390587838151811061387557fe5b602002602001015188846001018151811061388c57fe5b60200260200101516040518363ffffffff1660e01b815260040180836001600160a01b03168152602001826001600160a01b031681526020019250505060206040518083038186803b1580156138e157600080fd5b505afa1580156138f5573d6000803e3d6000fd5b505050506040513d602081101561390b57600080fd5b505160408051634af0871b60e01b8152600481018a905284151560248201526001600160a01b0386811660448301528251931692634af0871b926064808401939192918290030181600087803b15801561396457600080fd5b505af1158015613978573d6000803e3d6000fd5b505050506040513d604081101561398e57600080fd5b505196506001016136f6565b509495945050505050565b604080516000808252602082019092526001600160a01b0384169083906040518082805190602001908083835b602083106139f15780518252601f1990920191602091820191016139d2565b6001836020036101000a03801982511681845116808217855250505050505090500191505060006040518083038185875af1925050503d8060008114613a53576040519150601f19603f3d011682016040523d82523d6000602084013e613a58565b606091505b5050905080613a985760405162461bcd60e51b815260040180806020018281038252602381526020018061472c6023913960400191505060405180910390fd5b505050565b62ffffff82168115613ab0576301000000015b6020846001600160a01b0316901b810190509392505050565b6000613ad7838360016143cc565b90505b92915050565b6000613b3384876001600160a01b03166370a08231306040518263ffffffff1660e01b815260040180826001600160a01b0316815260200191505060206040518083038186803b15801561289b57600080fd5b90506000613b8884876001600160a01b03166370a08231306040518263ffffffff1660e01b815260040180826001600160a01b0316815260200191505060206040518083038186803b15801561289b57600080fd5b90507f00000000000000000000000000000000000000000000000000000000000000006001600160a01b0316876001600160a01b03161415613c51577f00000000000000000000000000000000000000000000000000000000000000006001600160a01b0316632e1a7d4d836040518263ffffffff1660e01b815260040180828152602001915050600060405180830381600087803b158015613c2a57600080fd5b505af1158015613c3e573d6000803e3d6000fd5b50505050613c4c83836139a5565b613c5c565b613c5c8784846143e3565b7f00000000000000000000000000000000000000000000000000000000000000006001600160a01b0316866001600160a01b03161415613d23577f00000000000000000000000000000000000000000000000000000000000000006001600160a01b0316632e1a7d4d826040518263ffffffff1660e01b815260040180828152602001915050600060405180830381600087803b158015613cfc57600080fd5b505af1158015613d10573d6000803e3d6000fd5b50505050613d1e83826139a5565b613d2e565b613d2e8684836143e3565b50505050505050565b602081901c81600063010000008216613d51576000613d54565b60015b929491935050565b80820382811115613ada576040805162461bcd60e51b815260206004820152601560248201527464732d6d6174682d7375622d756e646572666c6f7760581b604482015290519081900360640190fd5b600080613dbb8484600161454c565b915091509250929050565b6000806000846001600160801b031685148015613deb5750836001600160801b031684145b613e3c576040805162461bcd60e51b815260206004820152601f60248201527f4c696d697473776170526f757465723a20544f4f5f4d5543485f494e50555400604482015290519081900360640190fd5b7f00000000000000000000000000000000000000000000000000000000000000006001600160a01b031663e6a4390588886040518363ffffffff1660e01b815260040180836001600160a01b03168152602001826001600160a01b031681526020019250505060206040518083038186803b158015613eba57600080fd5b505afa158015613ece573d6000803e3d6000fd5b505050506040513d6020811015613ee457600080fd5b505190506001600160a01b038116613fa5577f00000000000000000000000000000000000000000000000000000000000000006001600160a01b031663c9c6539688886040518363ffffffff1660e01b815260040180836001600160a01b03168152602001826001600160a01b0316815260200192505050602060405180830381600087803b158015613f7657600080fd5b505af1158015613f8a573d6000803e3d6000fd5b505050506040513d6020811015613fa057600080fd5b505190505b6000816001600160a01b0316631a6865026040518163ffffffff1660e01b815260040160206040518083038186803b158015613fe057600080fd5b505afa158015613ff4573d6000803e3d6000fd5b505050506040513d602081101561400a57600080fd5b505111156142e9576000816001600160a01b03166347fd03d96040518163ffffffff1660e01b815260040160206040518083038186803b15801561404d57600080fd5b505afa158015614061573d6000803e3d6000fd5b505050506040513d602081101561407757600080fd5b5051905060006001600160a01b03808916908a161061411657826001600160a01b0316637a95fff488846040518363ffffffff1660e01b815260040180838152602001826001600160a01b031681526020019250505060206040518083038186803b1580156140e557600080fd5b505afa1580156140f9573d6000803e3d6000fd5b505050506040513d602081101561410f57600080fd5b5051614198565b826001600160a01b031663bbea8f6a88846040518363ffffffff1660e01b815260040180838152602001826001600160a01b031681526020019250505060206040518083038186803b15801561416b57600080fd5b505afa15801561417f573d6000803e3d6000fd5b505050506040513d602081101561419557600080fd5b50515b9050808610156142d9576000886001600160a01b03168a6001600160a01b03161061424357836001600160a01b031663bbea8f6a88856040518363ffffffff1660e01b815260040180838152602001826001600160a01b031681526020019250505060206040518083038186803b15801561421257600080fd5b505afa158015614226573d6000803e3d6000fd5b505050506040513d602081101561423c57600080fd5b50516142c5565b836001600160a01b0316637a95fff488856040518363ffffffff1660e01b815260040180838152602001826001600160a01b031681526020019250505060206040518083038186803b15801561429857600080fd5b505afa1580156142ac573d6000803e3d6000fd5b505050506040513d60208110156142c257600080fd5b50515b90506142d18882613d5c565b9550506142e6565b6142e38682613d5c565b93505b50505b8285141580156142f95750828514155b61433a576040805162461bcd60e51b815260206004820152600d60248201526c45585452454d4520505249434560981b604482015290519081900360640190fd5b9450945094915050565b600081158061435a57506143588383614593565b155b1561436757506000613ada565b600082815260018481016020908152604080842084805290915280832054828452922054614399928692909190614617565b50600081815260018381016020908152604080842084805290915280832083905590825281205581546000190190915590565b60006143db846000858561464c565b949350505050565b604080516001600160a01b038481166024830152604480830185905283518084039091018152606490920183526020820180516001600160e01b031663a9059cbb60e01b1781529251825160009485949389169392918291908083835b6020831061445f5780518252601f199092019160209182019101614440565b6001836020036101000a0380198251168184511680821785525050505050509050019150506000604051808303816000865af19150503d80600081146144c1576040519150601f19603f3d011682016040523d82523d6000602084013e6144c6565b606091505b50915091508180156144f45750805115806144f457508080602001905160208110156144f157600080fd5b50515b614545576040805162461bcd60e51b815260206004820152601f60248201527f5472616e7366657248656c7065723a205452414e534645525f4641494c454400604482015290519081900360640190fd5b5050505050565b6000806145598585614593565b6145685750600090508061458b565b505060008281526001848101602090815260408084208515158552909152909120545b935093915050565b600081815260018301602090815260408083208380529091528120541580156145d657506000828152600180850160209081526040808420928452919052902054155b1561460f57600080805260018085016020908152604080842092845291905290205482141561460757506001613ada565b506000613ada565b506001613ada565b600082815260019094016020818152604080872093158088529382528087208690559486529081528385209115855252912055565b60006146588584614593565b15801561466a575061466a8585614593565b156146b55760008481526001860160209081526040808320851515845290915290205461469986868686614617565b6146a586858386614617565b50508354600190810185556143db565b50600094935050505056fe4c696d697473776170526f757465723a20494e53554646494349454e545f4f55545055545f414d4f554e544c696d697473776170526f757465723a20494e56414c49445f504154480000004c696d697473776170526f757465723a204558504952454400000000000000005472616e7366657248656c7065723a204554485f5452414e534645525f4641494c45445472616e7366657248656c7065723a205452414e534645525f46524f4d5f4641494c4544a26469706673582212207936c7d5df7c3f1f004fd6200b516db3e86e1396e92d970813d7a281947d065564736f6c63430007060033",
  "immutableReferences": {
    "3626": [
      {
        "length": 32,
        "start": 2500
      },
      {
        "length": 32,
        "start": 4030
      },
      {
        "length": 32,
        "start": 4213
      },
      {
        "length": 32,
        "start": 4845
      },
      {
        "length": 32,
        "start": 6671
      },
      {
        "length": 32,
        "start": 8598
      },
      {
        "length": 32,
        "start": 9745
      },
      {
        "length": 32,
        "start": 10636
      },
      {
        "length": 32,
        "start": 10853
      },
      {
        "length": 32,
        "start": 14179
      },
      {
        "length": 32,
        "start": 14396
      },
      {
        "length": 32,
        "start": 15934
      },
      {
        "length": 32,
        "start": 16120
      }
    ],
    "3628": [
      {
        "length": 32,
        "start": 285
      },
      {
        "length": 32,
        "start": 2328
      },
      {
        "length": 32,
        "start": 2860
      },
      {
        "length": 32,
        "start": 6364
      },
      {
        "length": 32,
        "start": 6508
      },
      {
        "length": 32,
        "start": 6624
      },
      {
        "length": 32,
        "start": 7382
      },
      {
        "length": 32,
        "start": 7436
      },
      {
        "length": 32,
        "start": 7822
      },
      {
        "length": 32,
        "start": 7922
      },
      {
        "length": 32,
        "start": 8194
      },
      {
        "length": 32,
        "start": 8469
      },
      {
        "length": 32,
        "start": 13095
      },
      {
        "length": 32,
        "start": 13275
      },
      {
        "length": 32,
        "start": 13391
      },
      {
        "length": 32,
        "start": 15244
      },
      {
        "length": 32,
        "start": 15302
      },
      {
        "length": 32,
        "start": 15454
      },
      {
        "length": 32,
        "start": 15512
      }
    ]
  },
  "source": "// SPDX-License-Identifier: GPL-2.0\r\npragma solidity =0.7.6;\r\n\r\nimport './libraries/SafeMath.sol';\r\nimport './interfaces/ILimitswapFactory.sol';\r\nimport './interfaces/ILimitswapPair.sol';\r\nimport './interfaces/IERC20.sol';\r\nimport './libraries/BitMath.sol';\r\nimport './libraries/TransferHelper.sol';\r\nimport './libraries/StructuredLinkedList.sol';\r\n\r\n//import './libraries/TickFinder.sol';\r\n\r\ninterface IWETH {\r\n    function deposit() external payable;\r\n    function transfer(address to, uint256 value) external returns (bool);\r\n    function withdraw(uint) external;\r\n}\r\n\r\n//Router is only for add/remove liquidity and swap\r\n//put/cancel limit order should direct interplay with the pair contract\r\ncontract LimitswapRouter {\r\n    using SafeMath for uint256;\r\n    using StructuredLinkedList for StructuredLinkedList.List;\r\n\r\n    address public immutable factory;\r\n    address public immutable WETH;\r\n\r\n    constructor (address _factory, address _WETH) {\r\n        factory = _factory;\r\n        WETH = _WETH;\r\n    }\r\n\r\n    modifier ensure(uint256 deadline) {\r\n        require(deadline >= block.timestamp, 'LimitswapRouter: EXPIRED');\r\n        _;\r\n    }\r\n\r\n    receive() external payable {\r\n        assert(msg.sender == WETH); // only accept ETH via fallback from the WETH contract\r\n    }\r\n\r\n    // **** ADD LIQUIDITY ****\r\n    function _addLiquidity(\r\n        address tokenA,\r\n        address tokenB,\r\n        uint256 amountA,\r\n        uint256 amountB\r\n    ) internal returns (uint256 remainedA, uint256 remainedB, address pair) {\r\n        // create the pair if it doesn't exist yet\r\n        require(amountA == uint128(amountA) && amountB == uint128(amountB), 'LimitswapRouter: TOO_MUCH_INPUT');\r\n        pair = ILimitswapFactory(factory).getPair(tokenA, tokenB);\r\n        if (pair == address(0)) {\r\n            pair = ILimitswapFactory(factory).createPair(tokenA, tokenB);\r\n        }\r\n        if (ILimitswapPair(pair).liquidity() > 0) {\r\n            uint160 currentSqrtPriceX96 = ILimitswapPair(pair).currentSqrtPriceX96();\r\n            uint256 amountBDesired = tokenA < tokenB ?\r\n                ILimitswapPair(pair).amount0ToAmount1(amountA, currentSqrtPriceX96):\r\n                ILimitswapPair(pair).amount1ToAmount0(amountA, currentSqrtPriceX96);\r\n            if (amountB < amountBDesired){\r\n                uint256 amountADesired = tokenA < tokenB ?\r\n                    ILimitswapPair(pair).amount1ToAmount0(amountB, currentSqrtPriceX96):\r\n                    ILimitswapPair(pair).amount0ToAmount1(amountB, currentSqrtPriceX96);\r\n                remainedA = amountA.sub(amountADesired);\r\n            } else {\r\n                remainedB = amountB.sub(amountBDesired);\r\n            }\r\n        }\r\n        //alert when extreme price comes\r\n        require( amountA!=remainedA && amountA!=remainedA, 'EXTREME PRICE');\r\n    }\r\n\r\n    function addLiquidity(\r\n        address tokenA,\r\n        address tokenB,\r\n        uint256 amountAIn,\r\n        uint256 amountBIn,\r\n        uint256 amountAMin,\r\n        uint256 amountBMin,\r\n        address to,\r\n        uint256 deadline\r\n    ) external ensure(deadline) returns (uint256 amountA, uint256 amountB, uint256 liquidity) {\r\n        (uint256 remainedA, uint256 remainedB, address pair) = _addLiquidity(tokenA, tokenB, amountAIn, amountBIn);\r\n        amountA = amountAIn.sub(remainedA);\r\n        amountB = amountBIn.sub(remainedB);\r\n        require(amountA >= amountAMin && amountB >= amountBMin, 'LimitswapRouter: SLIP ALERT');\r\n        TransferHelper.safeTransferFrom(tokenA, msg.sender, pair, amountA);\r\n        TransferHelper.safeTransferFrom(tokenB, msg.sender, pair, amountB);\r\n        liquidity = ILimitswapPair(pair).mint(to);\r\n    }\r\n\r\n    function addLiquidityETH(\r\n        address token,\r\n        uint256 amountTokenIn,\r\n        uint256 amountTokenMin,\r\n        uint256 amountETHMin,\r\n        address to,\r\n        uint256 deadline\r\n    ) external payable ensure(deadline) returns (uint amountToken, uint amountETH, uint liquidity) {\r\n        (uint256 remainedToken, uint256 remainedETH, address pair) = _addLiquidity(token, WETH, amountTokenIn, msg.value);\r\n        amountToken = amountTokenIn.sub(remainedToken);\r\n        amountETH = msg.value.sub(remainedETH);\r\n        require(amountToken >= amountTokenMin && amountETH >= amountETHMin, 'LimitswapRouter: SLIP ALERT');\r\n        TransferHelper.safeTransferFrom(token, msg.sender, pair, amountToken);\r\n        IWETH(WETH).deposit{value: amountETH}();\r\n        assert(IWETH(WETH).transfer(pair, amountETH));\r\n        liquidity = ILimitswapPair(pair).mint(to);\r\n        // refund dust eth, if any\r\n        if (remainedETH > 0) TransferHelper.safeTransferETH(msg.sender, remainedETH);\r\n    }\r\n//update 2021.5.14:  line 113 tokenA -> tokenB\r\n    function removeLiquidity(\r\n        address tokenA,\r\n        address tokenB,\r\n        uint256 share,\r\n        uint256 amountAMin,\r\n        uint256 amountBMin,\r\n        address to,\r\n        uint256 deadline\r\n    ) external payable ensure(deadline) returns (uint256 amountA, uint256 amountB) {\r\n        (tokenA, tokenB) = tokenA < tokenB ? (tokenA, tokenB) : (tokenB, tokenA);\r\n        address pair = ILimitswapFactory(factory).getPair(tokenA, tokenB);\r\n        TransferHelper.safeTransferFrom(pair, msg.sender, pair, share);\r\n        uint256 balanceA = IERC20(tokenA).balanceOf(address(this));\r\n        uint256 balanceB = IERC20(tokenB).balanceOf(address(this));\r\n        ILimitswapPair(pair).burn(address(this));\r\n        amountA = IERC20(tokenA).balanceOf(address(this)).sub(balanceA);\r\n        amountB = IERC20(tokenB).balanceOf(address(this)).sub(balanceB);\r\n        require(amountA >= amountAMin && amountB >= amountBMin, 'LimitswapRouter: INSUFFICIENT_OUTPUT_AMOUNT');\r\n        transferExtraTokens(tokenA, tokenB, balanceA, balanceB, to);\r\n    }\r\n\r\n    function transferExtraTokens(address tokenA, address tokenB, uint256 balanceA, uint256 balanceB, address to) private {\r\n        //without checking token order\r\n        //must make sure tokenA < tokenB before calling\r\n        uint256 amountA = IERC20(tokenA).balanceOf(address(this)).sub(balanceA);\r\n        uint256 amountB = IERC20(tokenB).balanceOf(address(this)).sub(balanceB);\r\n        if (tokenA == WETH) {\r\n            IWETH(WETH).withdraw(amountA);\r\n            TransferHelper.safeTransferETH(to, amountA);\r\n        } else {\r\n            TransferHelper.safeTransfer(tokenA, to, amountA);\r\n        }\r\n        if (tokenB == WETH) {\r\n            IWETH(WETH).withdraw(amountB);\r\n            TransferHelper.safeTransferETH(to, amountB);\r\n        } else {\r\n            TransferHelper.safeTransfer(tokenB, to, amountB);\r\n        }\r\n    }\r\n\r\n    // **** SWAP ****\r\n    // requires the initial amount to have already been sent to the first pair\r\n    function _swap(uint256 amountIn, address[] memory path, address _to) internal returns(uint256) {\r\n        address to;\r\n        bool zeroForToken0;\r\n        for (uint i; i < path.length - 1; i++) {\r\n            zeroForToken0 = path[i] < path[i + 1] ? false : true;\r\n            to = i < path.length - 2 ? ILimitswapFactory(factory).getPair(path[i + 1], path[i + 2]) : _to;\r\n            (amountIn,) = ILimitswapPair(ILimitswapFactory(factory).getPair(path[i], path[i + 1])).swap(amountIn, zeroForToken0, to);\r\n        }\r\n        return amountIn;\r\n    }\r\n\r\n    function swapExactTokensForTokens(\r\n        uint256 amountIn,\r\n        uint256 amountOutMin,\r\n        address[] calldata path,\r\n        address to,\r\n        uint256 deadline\r\n    ) external ensure(deadline) returns (uint256 amountOut) {\r\n        TransferHelper.safeTransferFrom(\r\n            path[0], msg.sender, ILimitswapFactory(factory).getPair(path[0], path[1]), amountIn\r\n        );\r\n        amountOut = _swap(amountIn, path, to);\r\n        require(amountOut >= amountOutMin, 'LimitswapRouter: INSUFFICIENT_OUTPUT_AMOUNT');\r\n    }\r\n    function swapExactETHForTokens(uint256 amountOutMin, address[] calldata path, address to, uint256 deadline)\r\n        external\r\n        payable\r\n        ensure(deadline)\r\n        returns (uint256 amountOut)\r\n    {\r\n        require(path[0] == WETH, 'LimitswapRouter: INVALID_PATH');\r\n        IWETH(WETH).deposit{value: msg.value}();\r\n        assert(IWETH(WETH).transfer(ILimitswapFactory(factory).getPair(path[0], path[1]), msg.value));\r\n        amountOut = _swap(msg.value, path, to);\r\n        require(amountOut >= amountOutMin, 'LimitswapRouter: INSUFFICIENT_OUTPUT_AMOUNT');\r\n    }\r\n\r\n    function swapExactTokensForETH(uint256 amountIn, uint256 amountOutMin, address[] calldata path, address to, uint256 deadline)\r\n        external\r\n        payable\r\n        ensure(deadline)\r\n        returns (uint256 amountOut)\r\n    {\r\n        require(path[path.length - 1] == WETH, 'LimitswapRouter: INVALID_PATH');\r\n        TransferHelper.safeTransferFrom(\r\n            path[0], msg.sender, ILimitswapFactory(factory).getPair(path[0], path[1]), amountIn\r\n        );\r\n        amountOut = _swap(amountIn, path, address(this));\r\n        require(amountOut >= amountOutMin, 'LimitswapRouter: INSUFFICIENT_OUTPUT_AMOUNT');\r\n        IWETH(WETH).withdraw(amountOut);\r\n        TransferHelper.safeTransferETH(to, amountOut);\r\n    }\r\n\r\n    function getAmountsOut(uint amountIn, address[] calldata path) public view returns (uint[] memory amounts) {\r\n        require(path.length >= 2, 'LimitswapRouter: INVALID_PATH');\r\n        amounts = new uint[](path.length);\r\n        amounts[0] = amountIn;\r\n        for (uint i; i < path.length - 1; i++) {\r\n            address pair = ILimitswapFactory(factory).getPair(path[i], path[i+1]);\r\n            (amountIn,,) = ILimitswapPair(pair).estOutput(amountIn, path[i] < path[i+1] ? false : true);\r\n            amounts[i + 1] = amountIn;\r\n        }\r\n    }\r\n\r\n    function getAmountOut(uint amountIn, address[] calldata path) public view returns (uint amountOut, uint amountOutNoPriceImpact) {\r\n        require(path.length >= 2, 'LimitswapRouter: INVALID_PATH');\r\n        amountOut = amountIn;\r\n        amountOutNoPriceImpact = amountIn;\r\n        for (uint i; i < path.length - 1; i++) {\r\n            address pair = ILimitswapFactory(factory).getPair(path[i], path[i+1]);\r\n            (amountOut,,) = ILimitswapPair(pair).estOutput(amountOut, path[i] < path[i+1] ? false : true);\r\n            if (path[i] < path[i+1]){//input is token0\r\n                amountOutNoPriceImpact = ILimitswapPair(pair).amount0ToAmount1(amountOutNoPriceImpact, ILimitswapPair(pair).currentSqrtPriceX96());\r\n            } else {//input is token1\r\n                amountOutNoPriceImpact = ILimitswapPair(pair).amount1ToAmount0(amountOutNoPriceImpact, ILimitswapPair(pair).currentSqrtPriceX96());\r\n            }\r\n        }\r\n    }\r\n\r\n    address public sender;\r\n    mapping (address => StructuredLinkedList.List) limitOrders;\r\n\r\n    //record of limit order\r\n    //uint256 = padding X64 + address(uint160) pair + padding X7 + bool isSellShare + int24 tick\r\n    //256 = 64 + 160 + 7 + 1 + 24\r\n    function packRecord (address pair, int24 tick, bool isSellShare) internal pure returns(uint256 record) {\r\n        record += uint256(uint24(tick));\r\n        if (isSellShare) record += (1 << 24);\r\n        record += (uint256(pair) << 32);\r\n    }\r\n\r\n    function resovleRecord (uint256 record) internal pure returns(address pair, int24 tick, bool isSellShare) {\r\n        pair = address(record >> 32);\r\n        tick = int24(record);\r\n        isSellShare = (record & (1 << 24)) > 0 ? true : false;\r\n    }\r\n\r\n\r\n    function putLimitOrder (address pair, address tokenIn, uint256 amountIn, int24 tick) external returns(uint256 share) {\r\n        address tokenA = ILimitswapPair(pair).token0();\r\n        address tokenB = ILimitswapPair(pair).token1();\r\n        require(tokenA == tokenIn || tokenB == tokenIn, 'TOKENERROR');\r\n        uint256 balanceA = IERC20(tokenA).balanceOf(address(this));\r\n        uint256 balanceB = IERC20(tokenB).balanceOf(address(this));\r\n        TransferHelper.safeTransferFrom(\r\n            tokenIn, msg.sender, pair, amountIn\r\n        );\r\n        bool isSellShare = tokenIn == ILimitswapPair(pair).token0()? true : false;\r\n        sender = msg.sender;\r\n        share = ILimitswapPair(pair).putLimitOrder(tick, amountIn, isSellShare);\r\n        delete sender;\r\n        limitOrders[msg.sender].pushFront(packRecord(pair, tick, isSellShare));\r\n        transferExtraTokens(tokenA, tokenB, balanceA, balanceB, msg.sender);\r\n    }\r\n\r\n    function cancelLimitOrder (address pair, int24 tick, uint256 share, bool isSellShare) external returns(uint256 token0Out, uint256 token1Out) {\r\n        address tokenA = ILimitswapPair(pair).token0();\r\n        address tokenB = ILimitswapPair(pair).token1();\r\n        uint256 balanceA = IERC20(tokenA).balanceOf(address(this));\r\n        uint256 balanceB = IERC20(tokenB).balanceOf(address(this));\r\n        uint256 totalUserShare;\r\n        if (isSellShare) {\r\n            totalUserShare = ILimitswapPair(pair).sellShare(msg.sender, tick);\r\n        } else {\r\n            totalUserShare = ILimitswapPair(pair).buyShare(msg.sender, tick);\r\n        }\r\n        if (share > totalUserShare) share = totalUserShare;\r\n        sender = msg.sender;\r\n        (token0Out, token1Out) = ILimitswapPair(pair).cancelLimitOrder(tick, share, isSellShare);\r\n        delete sender;\r\n        if(share == totalUserShare){\r\n            limitOrders[msg.sender].remove(packRecord(pair, tick, isSellShare));\r\n        }\r\n        transferExtraTokens(tokenA, tokenB, balanceA, balanceB, msg.sender);\r\n    }\r\n//add: 2021.5.13\r\n    function putLimitOrderETH (address pair, int24 tick) external payable returns (uint256 share) {\r\n        address tokenA = ILimitswapPair(pair).token0();\r\n        address tokenB = ILimitswapPair(pair).token1();\r\n        require(tokenA == WETH || tokenB == WETH, 'TOKENERROR');\r\n        uint256 balanceA = IERC20(tokenA).balanceOf(address(this));\r\n        uint256 balanceB = IERC20(tokenB).balanceOf(address(this));\r\n        IWETH(WETH).deposit{value: msg.value}();\r\n        assert(IWETH(WETH).transfer(pair, msg.value));\r\n        bool isSellShare = WETH == ILimitswapPair(pair).token0()? true : false;\r\n        sender = msg.sender;\r\n        share = ILimitswapPair(pair).putLimitOrder(tick, msg.value, isSellShare);\r\n        delete sender;\r\n        limitOrders[msg.sender].pushFront(packRecord(pair, tick, isSellShare));\r\n        transferExtraTokens(tokenA, tokenB, balanceA, balanceB, msg.sender);\r\n    }\r\n\r\n    function getLimitOrdersRaw(address user, uint256 limit, uint256 offset) public view returns(uint256[] memory records){\r\n        records = new uint[](limit);\r\n        uint256 cursor;\r\n        bool toContinue = true;\r\n        for(uint i; (i < offset) && toContinue && (cursor > 0 || i == 0); i++){\r\n            (toContinue, cursor) = limitOrders[user].getNextNode(cursor);\r\n        }\r\n        for(uint i; (i < limit) && toContinue && (cursor > 0 || i == 0); i++){\r\n            (toContinue, cursor) = limitOrders[user].getNextNode(cursor);\r\n            if(toContinue) records[i] = cursor;\r\n        }\r\n    }\r\n//update 2021.5.14: positions(token0Out+token1Out) -> token0Out, token1Out\r\n    function getLimitOrders(address user, uint256 limit, uint256 offset) public view\r\n        returns(uint256[] memory records, uint256[] memory token0Out, uint256[] memory token1Out){\r\n        records = getLimitOrdersRaw(user, limit, offset);\r\n        token0Out = new uint256[](limit);\r\n        token1Out = new uint256[](limit);\r\n        uint256 position;\r\n        for (uint i; i < limit; i++){\r\n            if (records[i] > 0) {\r\n                (address pair, int24 tick, bool isSellShare) = resovleRecord(records[i]);\r\n                if (isSellShare){\r\n                    position = ILimitswapPair(pair).sellShare(user, tick);\r\n                } else {\r\n                    position = ILimitswapPair(pair).buyShare(user, tick);\r\n                }\r\n                (token0Out[i], token1Out[i]) = ILimitswapPair(pair).getLimitTokens(tick, user, position, isSellShare);\r\n                //positions[i] = (token0Out<<128) + (token1Out&uint128(-1));\r\n            }\r\n        }\r\n    }\r\n\r\n    //return value: uint256 = uint64 pairId + uint192 balance\r\n    function getLPBalance (address user, uint256 scanLimit, uint256 scanOffset, uint256 resLimit) public view returns(uint256[] memory balances) {\r\n        balances = new uint256[](resLimit);\r\n        uint256 length = ILimitswapFactory(factory).allPairsLength();\r\n        scanLimit = scanLimit + scanOffset > length ? length : scanLimit + scanOffset;\r\n        length = 0;//reuse length as the length of balances\r\n        for (uint i=scanOffset; i<scanLimit && length<resLimit; i++){\r\n            uint256 balance = IERC20(ILimitswapFactory(factory).allPairs(i)).balanceOf(user);\r\n            if (balance > 0){\r\n                balances[length] = (i << 192) + balance;\r\n                length ++;\r\n            }\r\n        }\r\n    }\r\n\r\n    function getPairInfo (address tokenA, address tokenB) public view\r\n        returns(int24 currentTick, uint160 currentSqrtPriceX96, address pair, uint256 reserve0,\r\n        uint256 reserve1, uint256 totalLimit0, uint256 totalLimit1) {\r\n        (tokenA, tokenB) = tokenA < tokenB ? (tokenA, tokenB) : (tokenB, tokenA);\r\n        pair = ILimitswapFactory(factory).getPair(tokenA, tokenB);\r\n        if (pair != address(0)){\r\n            currentTick = ILimitswapPair(pair).currentTick();\r\n            currentSqrtPriceX96 = ILimitswapPair(pair).currentSqrtPriceX96();\r\n            reserve0 = ILimitswapPair(pair).reserve0();\r\n            reserve1 = ILimitswapPair(pair).reserve1();\r\n            (totalLimit0, totalLimit1) = ILimitswapPair(pair).getTotalLimit();\r\n        }\r\n    }\r\n\r\n\r\n\r\n\r\n}\r\n",
  "sourcePath": "E:/UBL/limitswap/contracts/LimitswapRouter.sol",
  "compiler": {
    "name": "solc",
    "version": "0.7.6+commit.7338295f.Emscripten.clang"
  },
  "schemaVersion": "3.3.4",
  "updatedAt": "2021-06-02T12:46:09.582Z",
  "devdoc": {
    "kind": "dev",
    "methods": {},
    "version": 1
  },
  "userdoc": {
    "kind": "user",
    "methods": {},
    "version": 1
  }
}