{
  "contractName": "LimitswapMine",
  "abi": [
    {
      "inputs": [
        {
          "internalType": "contract LimitswapToken",
          "name": "_limitswapToken",
          "type": "address"
        },
        {
          "internalType": "uint256",
          "name": "_minedPerBlock",
          "type": "uint256"
        },
        {
          "internalType": "uint256",
          "name": "_startBlock",
          "type": "uint256"
        },
        {
          "internalType": "uint256",
          "name": "_maxSupply",
          "type": "uint256"
        }
      ],
      "stateMutability": "nonpayable",
      "type": "constructor"
    },
    {
      "anonymous": false,
      "inputs": [
        {
          "indexed": true,
          "internalType": "address",
          "name": "user",
          "type": "address"
        },
        {
          "indexed": true,
          "internalType": "uint256",
          "name": "pid",
          "type": "uint256"
        },
        {
          "indexed": false,
          "internalType": "uint256",
          "name": "amount",
          "type": "uint256"
        }
      ],
      "name": "Claim",
      "type": "event"
    },
    {
      "anonymous": false,
      "inputs": [
        {
          "indexed": true,
          "internalType": "address",
          "name": "user",
          "type": "address"
        },
        {
          "indexed": true,
          "internalType": "uint256",
          "name": "pid",
          "type": "uint256"
        },
        {
          "indexed": false,
          "internalType": "uint256",
          "name": "amount",
          "type": "uint256"
        }
      ],
      "name": "Deposit",
      "type": "event"
    },
    {
      "anonymous": false,
      "inputs": [
        {
          "indexed": true,
          "internalType": "address",
          "name": "user",
          "type": "address"
        },
        {
          "indexed": true,
          "internalType": "uint256",
          "name": "pid",
          "type": "uint256"
        },
        {
          "indexed": false,
          "internalType": "uint256",
          "name": "amount",
          "type": "uint256"
        }
      ],
      "name": "EmergencyWithdraw",
      "type": "event"
    },
    {
      "anonymous": false,
      "inputs": [
        {
          "indexed": true,
          "internalType": "address",
          "name": "previousOwner",
          "type": "address"
        },
        {
          "indexed": true,
          "internalType": "address",
          "name": "newOwner",
          "type": "address"
        }
      ],
      "name": "OwnershipTransferred",
      "type": "event"
    },
    {
      "anonymous": false,
      "inputs": [
        {
          "indexed": true,
          "internalType": "address",
          "name": "user",
          "type": "address"
        },
        {
          "indexed": true,
          "internalType": "uint256",
          "name": "pid",
          "type": "uint256"
        },
        {
          "indexed": false,
          "internalType": "uint256",
          "name": "amount",
          "type": "uint256"
        }
      ],
      "name": "Withdraw",
      "type": "event"
    },
    {
      "inputs": [],
      "name": "limitswapToken",
      "outputs": [
        {
          "internalType": "contract LimitswapToken",
          "name": "",
          "type": "address"
        }
      ],
      "stateMutability": "view",
      "type": "function"
    },
    {
      "inputs": [],
      "name": "maxSupply",
      "outputs": [
        {
          "internalType": "uint256",
          "name": "",
          "type": "uint256"
        }
      ],
      "stateMutability": "view",
      "type": "function"
    },
    {
      "inputs": [],
      "name": "minedPerBlock",
      "outputs": [
        {
          "internalType": "uint256",
          "name": "",
          "type": "uint256"
        }
      ],
      "stateMutability": "view",
      "type": "function"
    },
    {
      "inputs": [],
      "name": "owner",
      "outputs": [
        {
          "internalType": "address",
          "name": "",
          "type": "address"
        }
      ],
      "stateMutability": "view",
      "type": "function"
    },
    {
      "inputs": [
        {
          "internalType": "uint256",
          "name": "",
          "type": "uint256"
        }
      ],
      "name": "poolInfo",
      "outputs": [
        {
          "internalType": "contract IERC20",
          "name": "depositToken",
          "type": "address"
        },
        {
          "internalType": "uint256",
          "name": "allocPoint",
          "type": "uint256"
        },
        {
          "internalType": "uint256",
          "name": "lastRewardBlock",
          "type": "uint256"
        },
        {
          "internalType": "uint256",
          "name": "accMinedPerShare",
          "type": "uint256"
        }
      ],
      "stateMutability": "view",
      "type": "function"
    },
    {
      "inputs": [],
      "name": "renounceOwnership",
      "outputs": [],
      "stateMutability": "nonpayable",
      "type": "function"
    },
    {
      "inputs": [],
      "name": "startBlock",
      "outputs": [
        {
          "internalType": "uint256",
          "name": "",
          "type": "uint256"
        }
      ],
      "stateMutability": "view",
      "type": "function"
    },
    {
      "inputs": [],
      "name": "totalAllocPoint",
      "outputs": [
        {
          "internalType": "uint256",
          "name": "",
          "type": "uint256"
        }
      ],
      "stateMutability": "view",
      "type": "function"
    },
    {
      "inputs": [
        {
          "internalType": "address",
          "name": "newOwner",
          "type": "address"
        }
      ],
      "name": "transferOwnership",
      "outputs": [],
      "stateMutability": "nonpayable",
      "type": "function"
    },
    {
      "inputs": [
        {
          "internalType": "uint256",
          "name": "",
          "type": "uint256"
        },
        {
          "internalType": "address",
          "name": "",
          "type": "address"
        }
      ],
      "name": "userInfo",
      "outputs": [
        {
          "internalType": "uint256",
          "name": "amount",
          "type": "uint256"
        },
        {
          "internalType": "uint256",
          "name": "rewardDebt",
          "type": "uint256"
        }
      ],
      "stateMutability": "view",
      "type": "function"
    },
    {
      "inputs": [],
      "name": "poolLength",
      "outputs": [
        {
          "internalType": "uint256",
          "name": "",
          "type": "uint256"
        }
      ],
      "stateMutability": "view",
      "type": "function"
    },
    {
      "inputs": [
        {
          "internalType": "uint256",
          "name": "_allocPoint",
          "type": "uint256"
        },
        {
          "internalType": "contract IERC20",
          "name": "_depositToken",
          "type": "address"
        },
        {
          "internalType": "bool",
          "name": "_withUpdate",
          "type": "bool"
        }
      ],
      "name": "add",
      "outputs": [],
      "stateMutability": "nonpayable",
      "type": "function"
    },
    {
      "inputs": [
        {
          "internalType": "uint256",
          "name": "_pid",
          "type": "uint256"
        },
        {
          "internalType": "uint256",
          "name": "_allocPoint",
          "type": "uint256"
        }
      ],
      "name": "set",
      "outputs": [],
      "stateMutability": "nonpayable",
      "type": "function"
    },
    {
      "inputs": [
        {
          "internalType": "uint256",
          "name": "_minedPerBlock",
          "type": "uint256"
        }
      ],
      "name": "setMinedPerBlock",
      "outputs": [],
      "stateMutability": "nonpayable",
      "type": "function"
    },
    {
      "inputs": [
        {
          "internalType": "uint256",
          "name": "_pid",
          "type": "uint256"
        },
        {
          "internalType": "address",
          "name": "_user",
          "type": "address"
        }
      ],
      "name": "pendingAmount",
      "outputs": [
        {
          "internalType": "uint256",
          "name": "_pending",
          "type": "uint256"
        }
      ],
      "stateMutability": "view",
      "type": "function"
    },
    {
      "inputs": [
        {
          "internalType": "address",
          "name": "_user",
          "type": "address"
        }
      ],
      "name": "pendingAllAmount",
      "outputs": [
        {
          "internalType": "uint256",
          "name": "_pending",
          "type": "uint256"
        }
      ],
      "stateMutability": "view",
      "type": "function"
    },
    {
      "inputs": [],
      "name": "massUpdatePools",
      "outputs": [],
      "stateMutability": "nonpayable",
      "type": "function"
    },
    {
      "inputs": [
        {
          "internalType": "uint256",
          "name": "_pid",
          "type": "uint256"
        }
      ],
      "name": "updatePool",
      "outputs": [],
      "stateMutability": "nonpayable",
      "type": "function"
    },
    {
      "inputs": [
        {
          "internalType": "uint256",
          "name": "_pid",
          "type": "uint256"
        },
        {
          "internalType": "address",
          "name": "_user",
          "type": "address"
        }
      ],
      "name": "depositedAmount",
      "outputs": [
        {
          "internalType": "uint256",
          "name": "amount",
          "type": "uint256"
        }
      ],
      "stateMutability": "view",
      "type": "function"
    },
    {
      "inputs": [
        {
          "internalType": "uint256",
          "name": "_pid",
          "type": "uint256"
        }
      ],
      "name": "claim",
      "outputs": [],
      "stateMutability": "nonpayable",
      "type": "function"
    },
    {
      "inputs": [
        {
          "internalType": "uint256",
          "name": "_pid",
          "type": "uint256"
        },
        {
          "internalType": "uint256",
          "name": "_amount",
          "type": "uint256"
        }
      ],
      "name": "deposit",
      "outputs": [],
      "stateMutability": "nonpayable",
      "type": "function"
    },
    {
      "inputs": [
        {
          "internalType": "uint256",
          "name": "_pid",
          "type": "uint256"
        },
        {
          "internalType": "uint256",
          "name": "_amount",
          "type": "uint256"
        }
      ],
      "name": "withdraw",
      "outputs": [],
      "stateMutability": "nonpayable",
      "type": "function"
    },
    {
      "inputs": [
        {
          "internalType": "uint256",
          "name": "_pid",
          "type": "uint256"
        }
      ],
      "name": "emergencyWithdraw",
      "outputs": [],
      "stateMutability": "nonpayable",
      "type": "function"
    }
  ],
  "bytecode": "0x60c0604052600060045534801561001557600080fd5b506040516119ed3803806119ed8339818101604052608081101561003857600080fd5b508051602082015160408301516060909301519192909160006100596100c7565b600080546001600160a01b0319166001600160a01b0383169081178255604051929350917f8be0079c531659141344cd1fd0a4f28419497f9722a3daafe3b4186f6b6457e0908290a35060609390931b6001600160601b03191660805260019190915560055560a0526100cb565b3390565b60805160601c60a0516118c061012d6000398061092a52806109d85280610d685280610fa35280610fc952806110825250806109535280610a095280610a905280610fee52806110a352806112645280611741528061176752506118c06000f3fe608060405234801561001057600080fd5b506004361061014d5760003560e01c8063715018a6116100c3578063d5abeb011161007c578063d5abeb0114610360578063e2bbb15814610368578063f0d6436d1461038b578063f2fde38b146103b7578063f4c8770e146103dd578063fef3fcbc146104095761014d565b8063715018a6146102a45780638da5cb5b146102ac57806393f1a40b146102d05780639b1c615014610315578063d42f3dfa1461033b578063d437b320146103585761014d565b8063379607f511610115578063379607f51461021a578063441a3e701461023757806348cd4cb11461025a57806351eb05a6146102625780635312ea8e1461027f578063630b5ba11461029c5761014d565b8063081e3eda146101525780631526fe271461016c57806317caf6f1146101b95780631ab06ee5146101c15780631eaaa045146101e6575b600080fd5b61015a610411565b60408051918252519081900360200190f35b6101896004803603602081101561018257600080fd5b5035610417565b604080516001600160a01b0390951685526020850193909352838301919091526060830152519081900360800190f35b61015a61045b565b6101e4600480360360408110156101d757600080fd5b5080359060200135610461565b005b6101e4600480360360608110156101fc57600080fd5b508035906001600160a01b0360208201351690604001351515610535565b6101e46004803603602081101561023057600080fd5b50356106bc565b6101e46004803603604081101561024d57600080fd5b5080359060200135610726565b61015a610833565b6101e46004803603602081101561027857600080fd5b5035610839565b6101e46004803603602081101561029557600080fd5b5035610b2c565b6101e4610bc5565b6101e4610be8565b6102b4610c94565b604080516001600160a01b039092168252519081900360200190f35b6102fc600480360360408110156102e657600080fd5b50803590602001356001600160a01b0316610ca3565b6040805192835260208301919091528051918290030190f35b61015a6004803603602081101561032b57600080fd5b50356001600160a01b0316610cc7565b6101e46004803603602081101561035157600080fd5b5035610cf1565b61015a610d60565b61015a610d66565b6101e46004803603604081101561037e57600080fd5b5080359060200135610d8a565b61015a600480360360408110156103a157600080fd5b50803590602001356001600160a01b0316610e50565b6101e4600480360360208110156103cd57600080fd5b50356001600160a01b0316611139565b61015a600480360360408110156103f357600080fd5b50803590602001356001600160a01b031661123b565b6102b4611262565b60025490565b6002818154811061042757600080fd5b600091825260209091206004909102018054600182015460028301546003909301546001600160a01b039092169350919084565b60045481565b610469611286565b6001600160a01b031661047a610c94565b6001600160a01b0316146104c3576040805162461bcd60e51b81526020600482018190526024820152600080516020611847833981519152604482015290519081900360640190fd5b6104cb610bc5565b61050881610502600285815481106104df57fe5b90600052602060002090600402016001015460045461128a90919063ffffffff16565b906112e0565b600481905550806002838154811061051c57fe5b9060005260206000209060040201600101819055505050565b61053d611286565b6001600160a01b031661054e610c94565b6001600160a01b031614610597576040805162461bcd60e51b81526020600482018190526024820152600080516020611847833981519152604482015290519081900360640190fd5b80156105a5576105a5610bc5565b600060055443116105b8576005546105ba565b435b6004549091506105ca90856112e0565b6004908155604080516080810182526001600160a01b03958616815260208101968752908101928352600060608201818152600280546001810182559252915192027f405787fa12a823e0f2b7631cc41b3ba8828b3321ca811111fa75cd3aa3bb5ace81018054939096166001600160a01b03199093169290921790945593517f405787fa12a823e0f2b7631cc41b3ba8828b3321ca811111fa75cd3aa3bb5acf850155517f405787fa12a823e0f2b7631cc41b3ba8828b3321ca811111fa75cd3aa3bb5ad084015550517f405787fa12a823e0f2b7631cc41b3ba8828b3321ca811111fa75cd3aa3bb5ad190910155565b6000818152600360209081526040808320338085529252909120906106e290839061132f565b61071d64e8d4a51000610717600285815481106106fb57fe5b6000918252602090912060036004909202010154845490611401565b90611464565b60019091015550565b60006002838154811061073557fe5b6000918252602080832086845260038252604080852033865290925292208054600490920290920192508311156107a8576040805162461bcd60e51b81526020600482015260126024820152711dda5d1a191c985dce881b9bdd0819dbdbd960721b604482015290519081900360640190fd5b6107b2843361132f565b80546107be908461128a565b80825560038301546107db9164e8d4a51000916107179190611401565b600182015581546107f6906001600160a01b03163385611477565b604080518481529051859133917ff279e6a1f5e320cca91135676d9cb6e44ca8a08c0b88342bcdb1144f6511b5689181900360200190a350505050565b60055481565b60006002828154811061084857fe5b90600052602060002090600402019050806002015443116108695750610b29565b8054604080516370a0823160e01b815230600482015290516000926001600160a01b0316916370a08231916024808301926020929190829003018186803b1580156108b357600080fd5b505afa1580156108c7573d6000803e3d6000fd5b505050506040513d60208110156108dd57600080fd5b50519050806108f3575043600290910155610b29565b6000610926600454610717856001015461092060015461092089600201544361128a90919063ffffffff16565b90611401565b90507f000000000000000000000000000000000000000000000000000000000000000015610a63576109fd7f00000000000000000000000000000000000000000000000000000000000000006001600160a01b03166318160ddd6040518163ffffffff1660e01b815260040160206040518083038186803b1580156109aa57600080fd5b505afa1580156109be573d6000803e3d6000fd5b505050506040513d60208110156109d457600080fd5b50517f00000000000000000000000000000000000000000000000000000000000000009061128a565b811115610a6357610a607f00000000000000000000000000000000000000000000000000000000000000006001600160a01b03166318160ddd6040518163ffffffff1660e01b815260040160206040518083038186803b1580156109aa57600080fd5b90505b8015610b1f57604080516340c10f1960e01b81523060048201526024810183905290516001600160a01b037f000000000000000000000000000000000000000000000000000000000000000016916340c10f1991604480830192600092919082900301818387803b158015610ad757600080fd5b505af1158015610aeb573d6000803e3d6000fd5b50505050610b19610b0e8361071764e8d4a510008561140190919063ffffffff16565b6003850154906112e0565b60038401555b5050436002909101555b50565b600060028281548110610b3b57fe5b600091825260208083208584526003825260408085203380875293529093206004909202909201805482549194509192610b7e926001600160a01b031691611477565b80546040805191825251849133917fbb757047c2b5f3974fe26b7c10f732e7bce710b0952a71082702781e62ae05959181900360200190a360008082556001909101555050565b60025460005b81811015610be457610bdc81610839565b600101610bcb565b5050565b610bf0611286565b6001600160a01b0316610c01610c94565b6001600160a01b031614610c4a576040805162461bcd60e51b81526020600482018190526024820152600080516020611847833981519152604482015290519081900360640190fd5b600080546040516001600160a01b03909116907f8be0079c531659141344cd1fd0a4f28419497f9722a3daafe3b4186f6b6457e0908390a3600080546001600160a01b0319169055565b6000546001600160a01b031690565b60036020908152600092835260408084209091529082529020805460019091015482565b6000805b600254811015610ceb57610cdf8184610e50565b90910190600101610ccb565b50919050565b610cf9611286565b6001600160a01b0316610d0a610c94565b6001600160a01b031614610d53576040805162461bcd60e51b81526020600482018190526024820152600080516020611847833981519152604482015290519081900360640190fd5b610d5b610bc5565b600155565b60015481565b7f000000000000000000000000000000000000000000000000000000000000000081565b600060028381548110610d9957fe5b600091825260208083208684526003825260408085203380875293529093206004909202909201925090610dce90859061132f565b8154610de5906001600160a01b03163330866115e0565b8054610df190846112e0565b8082556003830154610e0e9164e8d4a51000916107179190611401565b6001820155604080518481529051859133917f90890809c654f11d6e72a28fa60149770a0d11ec6c92319d6ceb2bb0a4ea1a159181900360200190a350505050565b60008060028481548110610e6057fe5b60009182526020808320878452600380835260408086206001600160a01b03808b168852908552818720600496870290940192830154835483516370a0823160e01b8152309881019890985292519398509396939593949116926370a082319260248083019392829003018186803b158015610edb57600080fd5b505afa158015610eef573d6000803e3d6000fd5b505050506040513d6020811015610f0557600080fd5b5051600285015490915043118015610f1c57508015155b15610f71576000610f4e60045461071787600101546109206001546109208b600201544361128a90919063ffffffff16565b9050610f6d610f66836107178464e8d4a51000611401565b84906112e0565b9250505b610f9f8360010154610f9964e8d4a5100061071786886000015461140190919063ffffffff16565b9061128a565b94507f00000000000000000000000000000000000000000000000000000000000000001561112f577f0000000000000000000000000000000000000000000000000000000000000000611077867f00000000000000000000000000000000000000000000000000000000000000006001600160a01b03166318160ddd6040518163ffffffff1660e01b815260040160206040518083038186803b15801561104557600080fd5b505afa158015611059573d6000803e3d6000fd5b505050506040513d602081101561106f57600080fd5b5051906112e0565b111561112f5761112c7f00000000000000000000000000000000000000000000000000000000000000007f00000000000000000000000000000000000000000000000000000000000000006001600160a01b03166318160ddd6040518163ffffffff1660e01b815260040160206040518083038186803b1580156110fa57600080fd5b505afa15801561110e573d6000803e3d6000fd5b505050506040513d602081101561112457600080fd5b50519061128a565b94505b5050505092915050565b611141611286565b6001600160a01b0316611152610c94565b6001600160a01b03161461119b576040805162461bcd60e51b81526020600482018190526024820152600080516020611847833981519152604482015290519081900360640190fd5b6001600160a01b0381166111e05760405162461bcd60e51b81526004018080602001828103825260268152602001806118216026913960400191505060405180910390fd5b600080546040516001600160a01b03808516939216917f8be0079c531659141344cd1fd0a4f28419497f9722a3daafe3b4186f6b6457e091a3600080546001600160a01b0319166001600160a01b0392909216919091179055565b60009182526003602090815260408084206001600160a01b03909316845291905290205490565b7f000000000000000000000000000000000000000000000000000000000000000081565b3390565b808203828111156112da576040805162461bcd60e51b815260206004820152601560248201527464732d6d6174682d7375622d756e646572666c6f7760581b604482015290519081900360640190fd5b92915050565b808201828110156112da576040805162461bcd60e51b815260206004820152601460248201527364732d6d6174682d6164642d6f766572666c6f7760601b604482015290519081900360640190fd5b60006002838154811061133e57fe5b600091825260208083208684526003825260408085206001600160a01b038816865290925292206004909102909101915061137884610839565b8054156113fb5760006113ad8260010154610f9964e8d4a510006107178760030154876000015461140190919063ffffffff16565b90506113b9848261173c565b60408051828152905186916001600160a01b038716917f34fcbac0073d7c3d388e51312faf357774904998eeb8fca628b9e6f65ee1cbf79181900360200190a3505b50505050565b600081158061141c5750508082028282828161141957fe5b04145b6112da576040805162461bcd60e51b815260206004820152601460248201527364732d6d6174682d6d756c2d6f766572666c6f7760601b604482015290519081900360640190fd5b600081838161146f57fe5b049392505050565b604080516001600160a01b038481166024830152604480830185905283518084039091018152606490920183526020820180516001600160e01b031663a9059cbb60e01b1781529251825160009485949389169392918291908083835b602083106114f35780518252601f1990920191602091820191016114d4565b6001836020036101000a0380198251168184511680821785525050505050509050019150506000604051808303816000865af19150503d8060008114611555576040519150601f19603f3d011682016040523d82523d6000602084013e61155a565b606091505b5091509150818015611588575080511580611588575080806020019051602081101561158557600080fd5b50515b6115d9576040805162461bcd60e51b815260206004820152601f60248201527f5472616e7366657248656c7065723a205452414e534645525f4641494c454400604482015290519081900360640190fd5b5050505050565b604080516001600160a01b0385811660248301528481166044830152606480830185905283518084039091018152608490920183526020820180516001600160e01b03166323b872dd60e01b178152925182516000948594938a169392918291908083835b602083106116645780518252601f199092019160209182019101611645565b6001836020036101000a0380198251168184511680821785525050505050509050019150506000604051808303816000865af19150503d80600081146116c6576040519150601f19603f3d011682016040523d82523d6000602084013e6116cb565b606091505b50915091508180156116f95750805115806116f957508080602001905160208110156116f657600080fd5b50515b6117345760405162461bcd60e51b81526004018080602001828103825260248152602001806118676024913960400191505060405180910390fd5b505050505050565b610be47f000000000000000000000000000000000000000000000000000000000000000083611803847f00000000000000000000000000000000000000000000000000000000000000006001600160a01b03166370a08231306040518263ffffffff1660e01b815260040180826001600160a01b0316815260200191505060206040518083038186803b1580156117d257600080fd5b505afa1580156117e6573d6000803e3d6000fd5b505050506040513d60208110156117fc57600080fd5b5051611808565b611477565b60008183106118175781611819565b825b939250505056fe4f776e61626c653a206e6577206f776e657220697320746865207a65726f20616464726573734f776e61626c653a2063616c6c6572206973206e6f7420746865206f776e65725472616e7366657248656c7065723a205452414e534645525f46524f4d5f4641494c4544a2646970667358221220716f6dadfb8bc3cbf871d2855ebf070d35a31b9f34c4cd5c4db8510f661aef3c64736f6c63430007060033",
  "immutableReferences": {
    "331": [
      {
        "length": 32,
        "start": 2387
      },
      {
        "length": 32,
        "start": 2569
      },
      {
        "length": 32,
        "start": 2704
      },
      {
        "length": 32,
        "start": 4078
      },
      {
        "length": 32,
        "start": 4259
      },
      {
        "length": 32,
        "start": 4708
      },
      {
        "length": 32,
        "start": 5953
      },
      {
        "length": 32,
        "start": 5991
      }
    ],
    "335": [
      {
        "length": 32,
        "start": 2346
      },
      {
        "length": 32,
        "start": 2520
      },
      {
        "length": 32,
        "start": 3432
      },
      {
        "length": 32,
        "start": 4003
      },
      {
        "length": 32,
        "start": 4041
      },
      {
        "length": 32,
        "start": 4226
      }
    ]
  },
  "source": "// SPDX-License-Identifier: GPL-2.0\r\npragma solidity =0.7.6;\r\n\r\nimport './interfaces/IERC20.sol';\r\n\r\nimport './libraries/SafeMath.sol';\r\nimport './libraries/Math.sol';\r\nimport './libraries/TransferHelper.sol';\r\n\r\nimport './LimitswapToken.sol';\r\n\r\n\r\n//Famring pool of LimitSwap Token\r\n//Copied and modified from sushi MasterChef\r\n//https://github.com/sushiswap/sushiswap/blob/master/contracts/MasterChef.sol\r\n//no migrate\r\ncontract LimitswapMine is Ownable {\r\n    using SafeMath for uint256;\r\n    // Info of each user.\r\n    struct UserInfo {\r\n        uint256 amount; // How tokens the user has provided.\r\n        uint256 rewardDebt; // Reward debt. See explanation below.\r\n        //\r\n        // We do some fancy math here. Basically, any point in time, the amount of Limitswap tokens\r\n        // entitled to a user but is pending to be distributed is:\r\n        //\r\n        //   pending reward = (user.amount * pool.accMinedPerShare) - user.rewardDebt\r\n        //\r\n        // Whenever a user deposits or withdraws tokens to a pool. Here's what happens:\r\n        //   1. The pool's `accMinedPerShare` (and `lastRewardBlock`) gets updated.\r\n        //   2. User receives the pending reward sent to his/her address.\r\n        //   3. User's `amount` gets updated.\r\n        //   4. User's `rewardDebt` gets updated.\r\n    }\r\n    // Info of each pool.\r\n    struct PoolInfo {\r\n        IERC20 depositToken; // Address of token contract.\r\n        uint256 allocPoint; // How many allocation points assigned to this pool. tokens to distribute per block.\r\n        uint256 lastRewardBlock; // Last block number that tokens distribution occurs.\r\n        uint256 accMinedPerShare; // Accumulated tokens per share, times 1e12. See below.\r\n    }\r\n    // The LimitSwap TOKEN!\r\n    LimitswapToken public immutable limitswapToken;\r\n    // Limitswap Token mined per block.\r\n    uint256 public minedPerBlock;\r\n    // Mining will stop when reached max amount\r\n    uint256 public immutable maxSupply;\r\n    // Info of each pool.\r\n    PoolInfo[] public poolInfo;\r\n    // Info of each user that stakes tokens.\r\n    mapping(uint256 => mapping(address => UserInfo)) public userInfo;\r\n    // Total allocation poitns. Must be the sum of all allocation points in all pools.\r\n    uint256 public totalAllocPoint = 0;\r\n    // The block number when token mining starts.\r\n    uint256 public startBlock;\r\n    event Deposit(address indexed user, uint256 indexed pid, uint256 amount);\r\n    event Withdraw(address indexed user, uint256 indexed pid, uint256 amount);\r\n    event Claim(address indexed user, uint256 indexed pid, uint256 amount);\r\n    event EmergencyWithdraw(\r\n        address indexed user,\r\n        uint256 indexed pid,\r\n        uint256 amount\r\n    );\r\n\r\n    constructor(\r\n        LimitswapToken _limitswapToken,\r\n        uint256 _minedPerBlock,\r\n        uint256 _startBlock,\r\n        uint256 _maxSupply\r\n    ) {\r\n        limitswapToken = _limitswapToken;\r\n        minedPerBlock = _minedPerBlock;\r\n        startBlock = _startBlock;\r\n        maxSupply = _maxSupply;\r\n    }\r\n\r\n    function poolLength() external view returns (uint256) {\r\n        return poolInfo.length;\r\n    }\r\n\r\n    // Add a new token to the pool. Can only be called by the owner.\r\n    // XXX DO NOT add the same token more than once. Rewards will be messed up if you do.\r\n    function add(\r\n        uint256 _allocPoint,\r\n        IERC20 _depositToken,\r\n        bool _withUpdate\r\n    ) public onlyOwner {\r\n        if (_withUpdate) {\r\n            massUpdatePools();\r\n        }\r\n        uint256 lastRewardBlock =\r\n            block.number > startBlock ? block.number : startBlock;\r\n        totalAllocPoint = totalAllocPoint.add(_allocPoint);\r\n        poolInfo.push(\r\n            PoolInfo({\r\n                depositToken: _depositToken,\r\n                allocPoint: _allocPoint,\r\n                lastRewardBlock: lastRewardBlock,\r\n                accMinedPerShare: 0\r\n            })\r\n        );\r\n    }\r\n\r\n    // Update the given pool's mining allocation point. Can only be called by the owner.\r\n    function set(\r\n        uint256 _pid,\r\n        uint256 _allocPoint\r\n    ) public onlyOwner {\r\n        massUpdatePools();\r\n        totalAllocPoint = totalAllocPoint.sub(poolInfo[_pid].allocPoint).add(\r\n            _allocPoint\r\n        );\r\n        poolInfo[_pid].allocPoint = _allocPoint;\r\n    }\r\n\r\n    // Update minedPerBlock which affecting all pools. Can only be called by the owner.\r\n    function setMinedPerBlock(\r\n        uint256 _minedPerBlock\r\n    ) public onlyOwner {\r\n        massUpdatePools();\r\n        minedPerBlock = _minedPerBlock;\r\n    }\r\n\r\n\r\n    // View function to see pending LimitSwap Tokens on frontend.\r\n    function pendingAmount(uint256 _pid, address _user)\r\n        public\r\n        view\r\n        returns (uint256 _pending)\r\n    {\r\n        PoolInfo storage pool = poolInfo[_pid];\r\n        UserInfo storage user = userInfo[_pid][_user];\r\n        uint256 accMinedPerShare = pool.accMinedPerShare;\r\n        uint256 totalDeposit = pool.depositToken.balanceOf(address(this));\r\n        if (block.number > pool.lastRewardBlock && totalDeposit != 0) {\r\n            uint256 minedAmount =\r\n                (block.number.sub(pool.lastRewardBlock))\r\n                    .mul(minedPerBlock)\r\n                    .mul(pool.allocPoint)\r\n                    .div(totalAllocPoint);\r\n            accMinedPerShare = accMinedPerShare.add(\r\n                minedAmount.mul(1e12).div(totalDeposit)\r\n            );\r\n        }\r\n        _pending = user.amount.mul(accMinedPerShare).div(1e12).sub(user.rewardDebt);\r\n        if (maxSupply > 0){\r\n            if(limitswapToken.totalSupply().add(_pending) > maxSupply) _pending = limitswapToken.totalSupply().sub(maxSupply);\r\n        }\r\n    }\r\n\r\n    function pendingAllAmount(address _user)\r\n        public\r\n        view\r\n        returns (uint256 _pending)\r\n    {\r\n        for (uint256 pid = 0; pid < poolInfo.length; ++pid){\r\n            _pending += pendingAmount(pid, _user);\r\n        }\r\n    }\r\n\r\n    // Update reward vairables for all pools. Be careful of gas spending!\r\n    function massUpdatePools() public {\r\n        uint256 length = poolInfo.length;\r\n        for (uint256 pid = 0; pid < length; ++pid) {\r\n            updatePool(pid);\r\n        }\r\n    }\r\n\r\n    // Update reward variables of the given pool to be up-to-date.\r\n    function updatePool(uint256 _pid) public {\r\n        PoolInfo storage pool = poolInfo[_pid];\r\n        if (block.number <= pool.lastRewardBlock) {\r\n            return;\r\n        }\r\n        uint256 totalDeposit = pool.depositToken.balanceOf(address(this));\r\n        if (totalDeposit == 0) {\r\n            pool.lastRewardBlock = block.number;\r\n            return;\r\n        }\r\n        uint256 minedAmount =\r\n            (block.number.sub(pool.lastRewardBlock))\r\n                .mul(minedPerBlock)\r\n                .mul(pool.allocPoint)\r\n                .div(totalAllocPoint);\r\n        if(maxSupply > 0) {\r\n            if(minedAmount > maxSupply.sub(limitswapToken.totalSupply())) minedAmount = maxSupply.sub(limitswapToken.totalSupply());\r\n        }\r\n        if(minedAmount > 0){\r\n            limitswapToken.mint(address(this), minedAmount);\r\n            pool.accMinedPerShare = pool.accMinedPerShare.add(\r\n                minedAmount.mul(1e12).div(totalDeposit)\r\n            );\r\n        }\r\n        pool.lastRewardBlock = block.number;\r\n    }\r\n\r\n    function _claim(uint256 _pid, address _user) internal {\r\n        PoolInfo storage pool = poolInfo[_pid];\r\n        UserInfo storage user = userInfo[_pid][_user];\r\n        updatePool(_pid);\r\n        if (user.amount > 0) {\r\n            uint256 pending =\r\n                user.amount.mul(pool.accMinedPerShare).div(1e12).sub(\r\n                    user.rewardDebt\r\n                );\r\n            safeTokenTransfer(_user, pending);\r\n            emit Claim(_user, _pid, pending);\r\n            //user.rewardDebt = user.rewardDebt.add(pending);\r\n            //rewardDebt not update, should be updated elsewhere\r\n        }\r\n    }\r\n\r\n    function depositedAmount(uint256 _pid, address _user) public view returns (uint256 amount) {\r\n        amount = userInfo[_pid][_user].amount;\r\n    }\r\n\r\n    // Claim limitswap token.\r\n    function claim(uint256 _pid) public {\r\n        UserInfo storage user = userInfo[_pid][msg.sender];\r\n        _claim(_pid, msg.sender);\r\n        user.rewardDebt = user.amount.mul(poolInfo[_pid].accMinedPerShare).div(1e12);\r\n    }\r\n\r\n    // Deposit tokens to mine limitswap token.\r\n    function deposit(uint256 _pid, uint256 _amount) public {\r\n        PoolInfo storage pool = poolInfo[_pid];\r\n        UserInfo storage user = userInfo[_pid][msg.sender];\r\n        _claim(_pid, msg.sender);\r\n        TransferHelper.safeTransferFrom(\r\n            address(pool.depositToken),\r\n            address(msg.sender),\r\n            address(this),\r\n            _amount\r\n        );\r\n        user.amount = user.amount.add(_amount);\r\n        user.rewardDebt = user.amount.mul(pool.accMinedPerShare).div(1e12);\r\n        emit Deposit(msg.sender, _pid, _amount);\r\n    }\r\n\r\n    // Withdraw tokens, claiming all the rewards\r\n    function withdraw(uint256 _pid, uint256 _amount) public {\r\n        PoolInfo storage pool = poolInfo[_pid];\r\n        UserInfo storage user = userInfo[_pid][msg.sender];\r\n        require(user.amount >= _amount, \"withdraw: not good\");\r\n        _claim(_pid, msg.sender);\r\n        user.amount = user.amount.sub(_amount);\r\n        user.rewardDebt = user.amount.mul(pool.accMinedPerShare).div(1e12);\r\n        TransferHelper.safeTransfer(\r\n            address(pool.depositToken),\r\n            address(msg.sender),\r\n            _amount\r\n        );\r\n        emit Withdraw(msg.sender, _pid, _amount);\r\n    }\r\n\r\n    // Withdraw without caring about rewards. EMERGENCY ONLY.\r\n    function emergencyWithdraw(uint256 _pid) public {\r\n        PoolInfo storage pool = poolInfo[_pid];\r\n        UserInfo storage user = userInfo[_pid][msg.sender];\r\n        TransferHelper.safeTransfer(\r\n            address(pool.depositToken),\r\n            address(msg.sender),\r\n            user.amount\r\n        );\r\n        emit EmergencyWithdraw(msg.sender, _pid, user.amount);\r\n        user.amount = 0;\r\n        user.rewardDebt = 0;\r\n    }\r\n\r\n    // Safe limitswap token transfer function, just in case if rounding error causes pool to not have enough tokens.\r\n    function safeTokenTransfer(address _to, uint256 _amount) internal {\r\n        TransferHelper.safeTransfer(\r\n            address(limitswapToken),\r\n            _to,\r\n            Math.min(_amount, limitswapToken.balanceOf(address(this)))\r\n            );\r\n    }\r\n}\r\n",
  "sourcePath": "E:/UBL/limitswap/contracts/LimitswapMine.sol",
  "compiler": {
    "name": "solc",
    "version": "0.7.6+commit.7338295f.Emscripten.clang"
  },
  "schemaVersion": "3.3.4",
  "updatedAt": "2021-06-02T05:56:27.278Z",
  "devdoc": {
    "kind": "dev",
    "methods": {
      "owner()": {
        "details": "Returns the address of the current owner."
      },
      "renounceOwnership()": {
        "details": "Leaves the contract without owner. It will not be possible to call `onlyOwner` functions anymore. Can only be called by the current owner. NOTE: Renouncing ownership will leave the contract without an owner, thereby removing any functionality that is only available to the owner."
      },
      "transferOwnership(address)": {
        "details": "Transfers ownership of the contract to a new account (`newOwner`). Can only be called by the current owner."
      }
    },
    "version": 1
  },
  "userdoc": {
    "kind": "user",
    "methods": {},
    "version": 1
  }
}